:4000000000800020110000009D0000009D00000080B500AF064B064A126842F020021A60044B054A12681A6000F004FB00F03AF8E8460040BC760040FA46004010B5054CEF
:40004000237833B9044B13B10448AFF300800123237010BD2881FF1F00000000901D000008B5064B1BB106480649AFF300800648036813B1054B03B1984708BD00000000C2
:40008000901D00002C81FF1F0881FF1F0000000080B500AF00F078FAFEE700BF80B400AFFEE700BF80B586B000AF224B7B61224B3B61204B7B6135E03B691B68FB603B69C2
:4000C0005B68BB603B699B683B6000237B600CE0FB681A68BB681A60BB680433BB60FB680433FB607B6804337B607A683B689A42EED13B69DB683B6000237B6008E0BB686A
:4001000000221A60BB680433BB607B6804337B607A683B689A42F2D13B6910333B617B69013B7B617B69002BC6D101F0F5FDFFF7AFFFFEE701000000A021000080B582B0DB
:4001400000AF174B174A1A60174B174A126842F400721A6000237B600FE07B68032B04D8124B7A6853F8223000E0114B114A796842F821307B6801337B607B682F2BECD987
:400180000D4B1B78DAB20D4B1A700D4B094A1A6000F026F90B4B00221A600837BD4680BD0CED00E00004FA0514ED00E0000000009D0000000080FF1FBC7600400481FF1F34
:4001C00008ED00E00081FF1F80B582B000AF78603960786800213A6801F0CDFD0837BD4680BD00BF80B584B000AFF860B9607A60F868B9687A6801F0B5FD1037BD4680BD78
:4002000080B584B000AFF860B9607A60F868B9687A6801F0A7FD1037BD4680BD80B483B000AF0346FB71FEE780B487B000AF7860396000233B6100237B6126E07B699B005E
:400240007A6813441B68BB60BB68FB73BB6823F0FF03BB6013E03B695B003A6813441B781A46BB6813443A69520039680A4452781A703B6901333B61FB7B013BFB73FB7B29
:40028000002BE8D17B6901337B617B69102BD5D91C37BD465DF8047B704700BF80B582B000AF304B19221A802F4B18221A702F4B02221A704FF0402308221A702C4B03223B
:4002C0001A702C4B2C4A1278D2B21A702B4B08221A802B4B41F251221A800023FB7019237B6014E0FB785B00DAB2264B1B78DBB203F00103DBB21343DBB203F00303FB70B0
:400300004FF4F07000F00CFF7B68013B7B607B68002B02D0FB78032BE4D17B68002B02D10320FFF77BFF184B4FF480721A80164B07221A70154B00221A70154B48221A70D5
:40034000114B00221A70134B02221A70124B124A1278D2B242F00102D2B21A700837BD4680BD00BF80400040824000400043004000420040A14600400801004922420040FD
:40038000204200402542004004400040064000400840004001400040A243004080B483B000AF0B4B1B78FB710A4BFA7902F00702D2B21A70084BFA791209D2B21A70074B3F
:4003C00044221A700C37BD465DF8047B704700BFCF0100496E5800406F5800407658004080B582B000AF72B6334B334A1278D2B242F02402D2B21A700023FB7113E0FA79A7
:4004000013465B0013445B002C4A13443B603B681A683B689B889BB210461946FFF7D4FEFB790133FB71FB79072BE8D924482549FFF7FAFE244B244A1278D2B242F00202D5
:40044000D2B21A70214B214A1278D2B242F00202D2B21A701E4B1E4A1278D2B242F04002D2B21A701B4B1B4A1278D2B242F01002D2B21A70184819490A22FFF7C1FE184BB3
:40048000174A1278D2B242F00802D2B21A70154B01221A70FFF702FF124B81221A70124B01221A70FFF77AFF104809490E22FFF799FE0837BD4680BDE8460040941D000077
:4004C000C41D0000081E00000350014013500140A0430040C24300406051004068210000224300400048004004000840B043004080B485B000AF78600B467B800023FB8154
:400500000BE07B88013B7A6813441B781A46FB891344FB817B88013B7B807B88002BF0D1FB895B429BB218461437BD465DF8047B704700BF80B586B000AFF860B9607A601C
:400540000023FB75FA680F4B9A4206D0FB68002B03D0002000F070FF0CE00BE07B68013B7B60FA68BB681A447B6813441A78FB7D1344FB757B68002BF0D1FB7D18461837E7
:40058000BD4680BD0080004080B582B000AF06237B60002000F06EF80346002B01D100237B601C4B1B681B68002000211A46FFF7C1FF0346FB70184B1B681B78FA78D31A17
:4005C000FB70FB785B42FB70134B1B681B78FA789A4204D10F4B1B681B68002B02D1002000F02AFF0D4B1B78DBB203F0C003402B02D07B68002B05D0084B00221A7000207A
:4006000000F0AEF8322000F0ABF800F009F80837BD4680BD1081FF1F0C81FF1FFA46004080B500AF024B80221A7000F011FF80BDFA46004080B500AF0C4B1B78DBB203F08D
:40064000C003802B11D1094B00221A700220002100F0DCFB0346002B07D00220002100F0D5FB0346184600F003F880BDFA460040004700BF90B587B000AF0346FB71FB7929
:400680000320194600F0C2FB034601331C02FB790420194600F0BAFB03462344FB600023FB740023BB74FB790320194600F0AEFB034601331B027B6111E07B691B78FB720B
:4006C000FB7A002B04D0FB7AFF2B01D00123FB74BA7CFB7A1344BB747B6901337B617A69FB689A42E9D3FB790320194600F08EFB034601331B02DB087B61FA68174B9A4218
:4007000002D0FB68DB0801E04FF40043FB600AE07B6903F190431B78DAB2BB7C1344BB747B6901337B617A69FB689A42F0D3BB7C5B42BB74BC7CFB790120194600F066FB15
:4007400003469C4202D1FB7C002B01D1062300E0002318461C37BD4690BD00BFC0FF030080B5ADF5247D00AF0246FB1D1A700023A7F88A320023A7F888320A2387F88732ED
:40078000002387F8863200F055FD0346002B02D0002000F051FE00F01BFC62B6002387F88D32FB1D1B78002B02D0FB1D1B7800E0FF2307F59E7107F26A2208464FF49671FB
:4007C00000F034FCC7F87802FB1D1B78002B04D097F88732013B87F8873297F88732002B03D0D7F87832002BDBD1D7F87832002B00D0B0E2B7F86A32062B04D907F59E7338
:400800001B78012B03D0042387F88D3244E007F59E73DB781B029AB207F59E739B781343A7F88A32B7F88A32053307F59E72D35C1B029AB2B7F88A32043307F59E71CB5CE8
:400840001343A7F87632B7F88A32DA1DB7F86A329A4203D9032387F88D321DE0B7F88A32063307F59E72D35C172B03D0042387F88D3211E0B7F88A3204339BB207F59E72D0
:4008800010461946FFF734FE0346B7F876229A4202D0082387F88D320023A7F88E3297F88D32002B40F04C8207F59E731B7987F87532042387F88D3207F59E735B78313B43
:4008C0000A2B00F2398201A252F823F0F908000033090000390D0000CD0900003F0B0000390D0000510B0000A70B0000CD090000EB0B0000210D000097F88632012B17D1CA
:40090000B7F88A32002B13D10020FFF7B3FE0346002B14BF00230123DBB21A4607F59E731A710123A7F88E32002387F88D3207E206E297F88632012B47D1B7F88A32012B8C
:4009400043D197F87532032B3FD8D14B1B681B681B0C87F8743297F8752297F874329A4208D1CB4B1B681B681B0A9BB2DBB2A7F884320DE097F8752297F874329A4203D9FA
:400980000023A7F8843203E04FF48073A7F88432B7F88432DAB207F59E731A71B7F884321B0A9BB2DAB207F59E735A7107F59E73FF229A7107F59E730022DA710423A7F814
:4009C0008E32002387F88D32BAE1B9E107F59E735B78342B23D197F88632012B40F0B081B7F88A32032B40F0AB8197F875323F2B08D997F875325BB2002B03DB1023A7F806
:400A0000883203E04FF49073A7F88832B7F8883207F11002104600211A4601F0ACF997F88632012B40F08A80B7F88A32022B40F28580B7F8883207F11002D118B7F88A3257
:400A4000033B07F59E720732084611461A4601F089F9B7F88822B7F88A3213449BB2033BA7F8883297F875323F2B0AD997F875325BB2002B05DB00F099FC1023A7F88A3298
:400A800003E04FF49073A7F88A32B7F88822B7F88A329A424BD107F59E739B791B029AB207F59E735B791343A7F8883297F875323F2B27D897F875329BB21B029AB2B7F8A2
:400AC00088321344A7F87232714B1B681B681B0AA7F882326E4B1B681B68DBB2002B04D0B7F882320133A7F88232B7F87222B7F882329A4206D20A2387F88D320023A7F8AC
:400B000088321DE197F87502B7F8881207F11002B7F88A3200F0A0FB0346002B01D00A2300E0002387F88D3200F0D6FC02E0032387F88D320023A7F8883201E100E197F825
:400B40008632012B03D10023A7F8883203E1F7E097F88632012B25D1B7F88822B7F88A321344B3F5967F19D8002387F88D32B7F8883207F11002D118B7F88A3207F59E7220
:400B80000432084611461A4601F0ECF8B7F88822B7F88A321344A7F8883203E0032387F88D32CDE0CCE0B7F88A32002B1CD107F10803384A92E8030083E80300012387F87B
:400BC00086320823A7F88E32B7F88E3207F59E72111D07F10802084611461A4601F0C2F8002387F88D32ABE0AAE097F88632012B40F09580B7F88A32032B40F0908007F555
:400C00009E739B791B029AB207F59E735B791343A7F8703297F875323F2B13D997F875325BB2002B0EDBB7F870321B01C7F86C321948D7F86C121022FFF77CFC034687F8EB
:400C4000813212E097F875321A02B7F8703213441B02C7F86C320020D7F86C124FF48072FFF768FC034687F8813297F875323F2B29D897F8753203F510331A02B7F8703265
:400C800013445B01C7F86C320023A7F87E3216E01081FF1F7421000000800040B7F87E22D7F86C3213441B78DAB297F88132134487F88132B7F87E320133A7F87E32B7F82A
:400CC0007E321F2BEAD997F87532032B19D1B7F87032FF2B15D10520002100F097F80346DBB297F88122D31A87F881320620002100F08CF80346DBB297F88122D31A87F86D
:400D0000813297F881325B42DAB207F59E731A71002387F88D320123A7F88E3210E00FE00020FFF7A7FC0346002B02D1114B80221A7000F08DFB03E0052387F88D3200BF32
:400D400097F88D1207F59E72B7F88E32084611461A4600F011F8FB1D1B78002B3FF41EAD97F88632012B3FF419AD07F52477BD4680BD00BFFA46004080B584B000AF3960C5
:400D800013460246FA71BB803B6801221A703B680133FA791A703B680233BA88D2B21A703B680333BA88120A92B2D2B21A70BB8804339BB238681946FFF79AFB0346FB8101
:400DC000BB8804333A681344FA89D2B21A70BB8805333A681344FA89120A92B2D2B21A70BB8806333A68134417221A70BB8807339AB23B1D386811461A46962300F0F2F847
:400E0000034618461037BD4680BD00BF80B586B000AF02460B46FA71BB710223FB740023FB60FB79013B092B00F2928001A252F823F000BF5D0E0000770E0000910E000033
:400E4000A70E0000C10E0000DB0E00000B0F0000F50E0000210F0000370F0000BA7913461B069B1A1B0203F57F3303F570737B610123FB7472E0BA7913461B069B1A1B022E
:400E800003F57F3303F2C1337B610423FB7465E0BA7913461B069B1A1B0203F57F3303F2C5337B615AE0BA7913461B069B1A1B0203F57F3303F2C9337B610423FB744DE003
:400EC000BA7913461B069B1A1B0203F57F3303F574737B610123FB7440E0BA7913461B069B1A1B0203F57F3303F2D1337B610123FB7433E0BA7913461B069B1A1B0203F540
:400F00007F3303F2D6337B6128E0BA7913461B069B1A1B0203F57F3303F2D2337B611DE0BA7913461B069B1A1B0203F57F3303F575737B6112E0BA7913461B069B1A1B02CB
:400F400003F57F3303F576737B610423FB7405E0002000F071FA00237B6100BFFB7C012B03D17B691B78DBB2FB60FB7C022B0BD17B691B78DBB2FB607B6901331B78DBB269
:400F80001B02FA681343FB60FB7C042B1BD17B691B78DBB2FB607B6901331B78DBB21B02FA681343FB607B6902331B78DBB21B04FA681343FB607B6903331B78DBB21B06E2
:400FC000FA681343FB60FB6818461837BD4680BD80B500AF00F0A0FC00F0A0FD00F0F6FD80BD00BF80B586B000AFF8607A600A467A817B720023FB8200F090FD09E0FB8AA3
:40100000FA6813441B78184600F0C6FDFB8A0133FB82FA8A7B899A42F1D37B687A891A80002318461837BD4680BD00BF90B589B000AFF8607A600A467A817B720523BB61CB
:401040000023FB831AE000F021FD0346002B0FD000F01CFD0346FB82192000F009FA00F015FD0346FA8A9A42F2D30023BB610DE0012000F0FDF9FB8B0133FB83F98B7A7A26
:4010800013469B0013445B009942DCDB7B6800221A800023BB8336E000F0F8FC0346BB827B681A88BB8A13449AB27B681A807B681B887A899A421ED90023FB830CE0BB8B5F
:4010C000FA68D41800F098FC03462370BB8B0133BB83FB8B0133FB83FA8BBB8A9A42EED3BB8B013BFA6813441B78172B0BD0052000F0BEF907E07B681A88BB8AD31A9AB24A
:401100007B681A8004E000F0C1FC0346002BC3D1BB6918462437BD4690BD00BF000000000230800800F0058000BF013800467FF4FCAF7047EFF3108072B6704780F310880F
:40114000704700BFAFF3008080B582B000AF00F039FA4FF0FF337B6000F05EFB0346002B24D1012000F026FB0346072B1BD11348022100F049FA0346022B0DD100237B6004
:4011800002E0012000F096F90D4B1B78DBB203F00203002BF5D006E0094B1B78DBB203F00203002BE3D000F06BFB01E004237B607B6818460837BD4680BD00BF5481FF1F72
:4011C0002247004080B582B000AF00F0FBF900F023FB0346002B23D100F07AFB78607B68072B1AD102E0012000F064F9104B1B78DBB203F00203002BF5D00D4B1B78DBB26E
:4012000003F00203002B08D0094B1B78DBB29B08DBB2002B01D100237B6000F031FB01E004237B607B6818460837BD4680BD00BF2247004080B582B000AFFFF7C3FF786047
:401240007B68002B02D1FFF77FFF78607B6818460837BD4680BD00BF80B586B000AFBA600246FA730A46BA81FB8000237B61FB7B3F2B04D8FB7B042B01D901237B61FB7B23
:401280005BB2002B01DA01237B61FB7B3F2B04D9FB7B412B01D901237B61FB7B3F2B06D8BB89B3F5807F0CD901237B6109E0BB89802B01D901237B61FB88102B01D00123AF
:4012C0007B61BB68002B01D101237B617B69002B62D100F0A1FA0346002B5BD1F97BBA89FB8808461146BA6800F0BAF978617B69072B4CD102E0012000F0DCF8294B1B7807
:40130000DBB203F00203002BF5D0264B1B78DBB203F00203002B09D0224B1B78DBB29B08DBB2002B02D100237B6102E04FF0FF337B617B69002B2AD11B4B1A781A4B5B7888
:40134000F87BB98900F0F2F978617B69072B1ED102E0012000F0AEF8124B1B78DBB203F00203002BF5D00F4B1B78DBB203F00203002B09D00B4B1B78DBB29B08DBB2002BBA
:4013800002D100237B6102E04FF0FF337B6100F077FA01E004237B617B6918461837BD4680BD00BF224700405481FF1F80B582B000AFFFF7BFFE0346FB71194B184A1278ED
:4013C000D2B242F00802D2B21A70164B154A1278D2B242F00802D2B21A70134BC8221A70124B124A1278D2B242F01002D2B21A700F4B0F4A1278D2B242F01002D2B21A7009
:4014000000BF0C4B1B78DBB203F02003002BF8D0FB791846FFF792FE0837BD4680BD00BFA0430040B043004001470040AC430040BC4300400047004080B483B000AF0346A5
:40144000FB7101BE0C37BD465DF8047B704700BF80B400AF054B054A1278D2B242F00102D2B21A70BD465DF8047B7047F646004080B582B000AF786008E00C4B1B681846C6
:40148000FFF74EFE7B68A3F500437B607B68B3F5004FF2D8064B1B687A6802FB03F31846FFF73EFE0837BD4680BD00BF2081FF1F1881FF1F80B582B000AF0346FB80FB8863
:4014C000044A127802FB03F31846FFF729FE0837BD4680BD1C81FF1F80B582B000AFFFF729FE0346FB7100BF00BF00BF00BF00BF00BF00BF00BF00BF00BF00BF00BF00BFD1
:4015000000BF00BF00BF094B084A128892B242F0040292B21A80054B1B88BFF36F8FFB791846FFF70BFE0837BD4680BD0048004080B584B000AF03463960FB710F4B1B6816
:40154000FB60FB791F2B02D90020FFF775FFFB7903F01F0310339B00FA6813441B68BB60FB7903F01F0310339B00FA6813443A681A60BB6818461037BD4680BD08ED00E016
:4015800080B582B000AF02460B46FA71BB71BB79072B02D90020FFF74FFFFB791F2B02D90020FFF749FFFB7903F01F0303F1604303F56443BA795201D2B21A700837BD46B4
:4015C00080BD00BF80B582B000AFFFF7B3FD0346FB710B4B0A4A1278D2B242F00802D2B21A70084B074A1278D2B242F00802D2B21A70FB791846FFF7A1FD0837BD4680BD9B
:40160000A0430040B043004080B584B000AF78600B46FB700023FB7314E002E00120FFF749FF0D4B1B78DBB203F00103002BF5D0FB7B7A681344094A1278D2B21A70FB7B73
:401640000133FB73FA7BFB789A42E6D3FB7B18461037BD4680BD00BF224700402047004080B489B000AFBA600246FA730A46BA81FB800723FB612B4B1B78DBB203F00203DC
:40168000002B45D0284BB6221A70274BD5221A70254B02221A70234B1B78DBB203F00203002B32D1204BFA7B1A7000237B8308E01D4B7A8BB9680A4412781A707B8B0133B3
:4016C0007B837A8BFB889A42F2D3FB88B3F5807F20D1FB7B3F2B1DD8FB7B03F510331A02BB8913445B017B6100237B8309E00E4B798B7A690A441278D2B21A707B8B0133C9
:401700007B837B8B1F2BF2D904E00923FB6101E00423FB61FB6918462437BD465DF8047B704700BF224700402047004080B485B000AFF871B980BA71FB700723FB601B4BCB
:401740001B78DBB203F00203002B26D0184BB6221A70174BD8221A70154B05221A70134B1B78DBB203F00203002B13D1104BFA791A700F4BBA88120A92B2D2B21A700C4B36
:40178000BA88D2B21A700A4BBA791A70084BFA781A7004E00923FB6001E00423FB60FB6818461437BD465DF8047B7047224700402047004080B485B000AF0346FB710723C9
:4017C000FB60134B1B78DBB203F00203002B16D0104BB6221A700F4BE1221A700D4B0E221A700B4B1B78DBB203F00203002B03D1084BFA791A7004E00923FB6001E0042321
:40180000FB60FB6818461437BD465DF8047B7047224700402047004080B582B000AF04237B60FFF787FC0346FB70124B1B78002B16D1104B01221A7000237B600E4B1B683A
:4018400003F00103002B0BD00B4B0B4A126822F001021A6000BF00BF00BF084B01221A60FB781846FFF76AFC7B6818460837BD4680BD00BF4481FF1F040008404881FF1FC8
:4018800080B582B000AFFFF755FC0346FB710D4B00221A700C4B1B68012B0BD10B4B0B4A126842F001021A6000BF00BF00BF064B00221A60FB791846FFF740FC0837BD46EC
:4018C00080BD00BF4481FF1F4881FF1F0400084080B483B000AF07237B600D4B1B78DBB203F00203002B09D00A4BB6221A70094BE0221A70074B0D221A7001E004237B60C2
:401900007B6818460C37BD465DF8047B704700BF224700402047004080B500AF054B1B78002B04D100F008F8024B01221A7000F02FF880BD4C81FF1F80B500AF00200D493C
:40194000FFF7F6FD00200721FFF71AFE0A4B00221A700A4B72221A70094B20221A70094B06221A70084B47221A70084B00221A7080BD00BF0D1C00004D81FF1F8C64004008
:401980008A6400402E6400403E6400408B64004080B582B000AFFFF7CDFB0346FB71124B114A1278D2B242F02002D2B21A700F4B0E4A1278D2B242F01002D2B21A700C4BFC
:4019C00001221A600B4B0B4A1278D2B242F01002D2B21A7000F086F9FB791846FFF7AEFB0837BD4680BD00BF9C6400409A64004000E100E09B64004080B483B000AF1C4B26
:401A000001221A601B4B1B78BB711B4B1B787B711A4B1B78DBB2002B03D1BA797B799A4219D0BB79164AD35CFB71BB790133BB71BB795BB2002B01DA0023BB710D4BBA79AB
:401A40001A700E4B1B78DBB2002B03D00B4B00221A7003E002E00B4B1B78FB710A4B01221A60FB7918460C37BD465DF8047B704780E100E04E81FF1F4F81FF1F5081FF1FA9
:401A80005881FF1F4F64004000E100E080B483B000AF1D4B01221A601C4B1B78DAB21C4B1B78DBB29A420AD11A4B1B78DBB2002B02D08023FB711DE00023FB711AE0134B27
:401AC0001B78DAB2124B1B78DBB29A4208D2104B1B78DAB20D4B1B78DBB2D31AFB7109E00B4B1B78DAB2094B1B78DBB2D31ADBB2803BFB71084B01221A60FB7918460C37D1
:401B0000BD465DF8047B704780E100E04E81FF1F4F81FF1F5081FF1F00E100E080B582B000AFFFF707FB0346FB71144B134A1278D2B242F00102D2B21A70104B0F4A12783D
:401B4000D2B222F00102D2B21A70FB791846FFF7F5FA0B4B01221A600A4B00221A700A4B00221A70094B00221A70094B00221A70084B01221A600837BD4680BD9F64004060
:401B800080E100E04E81FF1F4F81FF1F5081FF1F5181FF1F00E100E080B483B000AF0346FB7100BF074B1B78DBB203F00403002BF8D1054BFA791A700C37BD465DF8047B18
:401BC000704700BF6B6400404B64004080B582B000AFFFF7AFFA0346FB710B4B0A4A1278D2B242F00102D2B21A70074B064A1278D2B222F00102D2B21A70FB791846FFF771
:401C00009DFA0837BD4680BD9B64004080B483B000AF0023FB712B4B1B78BB71BB797B71BB7903F01E03002B0BD0BB7903F01E03DAB2254B1B78DBB21343DBB2DAB2224BC7
:401C40001A70BB7903F02003002B31D01F4B1B787B711F4B1B78DBB21E4A7979D1540123FB71FB79002B23D01B4B1B78DBB2002B02D01A4B01221A70154B1B78DBB2013307
:401C8000DAB2134B1A70124B1B78DBB2DBB25BB2002B02DA0E4B00221A700D4B1B78DAB20F4B1B78DBB29A4202D10B4B01221A70BB7903F02003002BADD10C37BD465DF85C
:401CC000047B70476A6400404D81FF1F4F6400404F81FF1F5881FF1F5081FF1F5181FF1F4E81FF1F80B400AF094B094A1278D2B242F00102D2B21A70064B064A1278D2B286
:401D000042F00102D2B21A70BD465DF8047B7047A2430040B243004070B50E4B0E4D0024ED1AAD101E46AC4204D056F8242090470134F8E700F022FA084D094B0024ED1A34
:401D4000AD101E46AC4204D056F8242090470134F8E770BD8821000088210000902100008821000010B50023934203D0CC5CC4540133F9E710BD02440346934202D003F848
:401D8000011BFAE77047000032000000D021000000000000005100406000C05100401000F0510040100000000140001000140140000800400140000A004C01400002005051
:401DC000014020000252004003640040010501404B0A0140420B01403A0C0140430D01405D0E01402F0F014002400140014101400342014004440140034501400246014072
:401E00000350014001510140310134028A388B0F8C72E60102030308051A07040B050C0C0E1110101103120C130C181C1A021C101D031F14201421202C092E102F18301F93
:401E4000311C3303352039083B023F1454185604580459045B045F018002850A860287048A028B058F08900296029D039F0CA001A503A704AD03AF04B002B10FB401BB02F4
:401E8000BE11C053C104C5E0C6CBC80EC9FFCAFFCBFFCEF0CF44D00CD401D804D904DA04DB04DF01E6C0EA40EB02008001020428074009010B060D020E100F2010811180F0
:401EC000150119021E882080210622102340250126022740280129022F2231023342374038283A303B063D803E203F04450246104D014E02548057305A025D015E986080A7
:401F00006150808082109028920293029508974099509E20A140A501C079C23BC419CA59CC19CE77D0C0D210D6F1D80DE4040104050209020D04110215011D0121012704B9
:401F400029082D0133023501370C39803F105602571159045B045F01800F830485C08603880489188C018D44900391E7920C93189402958098039BE39D10A00FA11CA3E14C
:401F8000A40CA51CA7E2A80CA908AA03AC08ADFFB00FB1C0B31FB738BA82BB88D804D904DF010160039009080A400B041219130119811A401BC0228923012540261027109F
:401FC000284029A42E602FA0308031093310344035043688370939423A103B043D023E143F4058805A405E206C206E146F097484752076138D048F409028914293069508B6
:40200000974199509C809D209E029F18A108A320A424A545A748B420B540C00FC20EC40FCAFFCCDFCEFFD620040C05010603070E1001120E1544173119671A031E08200146
:402040002206252227D129672E0C31803360340F350737183A203F404003454049FF4A074BFF4C404D204EF04F055008580459045A045F01604061A8624063208106830166
:40208000850688028B018C028D079204950796049D019E029F06A104A602A902AA01AE01B002B107B404B601B802BE50C042C103C205C401C6E0C70CC818C9FFCAFFCBFFB5
:4020C000CC62CDA0CEF0CF41D00CD804D904DA04DF01E640E702E910EA30EB10ED10EE10EF120320070609200B420E800F2111821608174818081B201D501E802189230460
:402100002602274028202B082D202E0230203108348037083B043C083D203F8141044480459447164B024E025010512056085710C0C4C2BBC4E9CAA6CC56CEF2D0F2D210E6
:402140003240CC10968082409680E68005025910C004D4019D10B502EA0281109D1000010C010E01000300000100020101000100000000006930122E001E0101F8B500BF9B
:40218000F8BC08BC9E467047610000003D010000F8B500BFF8BC08BC9E4670473D000000B02100000881FF1F20000000B000000000000000881D00008C1D000000366E0176
:4021C000C05D0000180000000000E02E000000000000000000000000000000000000000000000000000000000000000000000000000000000000000000000000000000009C
:4022000000800020112200000D6B00000D6B000080B500AF04F0A8FC10B5054C237833B9044B13B10448AFF300800123237010BDF881FF1F0000000004BD000008B5064B57
:402240001BB106480649AFF300800648036813B1054B03B1984708BD0000000004BD0000FC81FF1F0881FF1F0000000090B583B000AF62B6804B20221A6005F0BDFA7E4B70
:4022800010221A6005F098FC05F018F805F0DAF905F008FF06F080F8774B02221A60764B04221A6006F0DEFD734B08221A6006F027FD724B002283F85920704B002283F879
:4022C0005A206E4B002283F85B206D4B002283F859206B4B002283F85A20694B002283F85B20052004F01CFF0023FB710CE0FC79FB799BB2184606F097FD03461A46614B0A
:402300001A55FB790133FB71FB79072BEFD95D4B1B78DBB2072B2AD05A4B07221A70594B30225A70574B30229A70564B3022DA70544B31221A71534B30225A71514B32223D
:402340009A71504B3922DA710023FB710CE0FB794C4AD35CDAB2FB799BB21046194606F0D5FCFB790133FB71FB79072BEFD9454B1B79DBB203F00F039BB21A465201D21A70
:4023800092001344DB009AB23E4BDB78DBB203F00F039BB2194689000B4419468800194603460B449B009BB213449AB2354B9B78DBB203F00F039BB2194689000B445B00AE
:4023C0009BB213449AB22F4B5B78DBB203F00F039BB213449AB22C4B1A800823FB710EE0FB79A3F10804FB799BB2184606F01CFD03461A46254B1A55FB790133FB71FB7936
:402400000C2BEDD9214B1B78DBB2042B31D01F4B04221A701D4B34225A701C4B30229A701A4B3022DA70194B30221A710823FB711CE0164B04221A70144B34225A70134BBB
:4024400030229A70114B3022DA70104B30221A71FB79083B0D4AD35CDAB2FB799BB21046194606F053FCFB790133FB71FB790C2BDFD90D23FB711AE000E100E04086FF1F9A
:402480006082FF1F3485FF1FC282FF1F2C85FF1FFB79A3F10D04FB799BB2184606F0C4FC03461A464C4B1A55FB790133FB71FB790E2BEDD90F2006F0B7FC03461A46474BDD
:4024C00083F85C20102006F0AFFC03461A46434B83F85920112006F0A7FC03461A463F4B83F85A20122006F09FFC03461A463B4B83F85B20132006F097FC03461A46384B27
:4025000083F85C20142006F08FFC03461A46344B83F85920152006F087FC03461A46304B83F85A20162006F07FFC03461A462C4B83F85B20172006F077FC03461A46294B92
:402540001A701E2006F070FC03461A46264B5A701F2006F069FC03461A46234B9A70202006F062FC03461A461F4BDA701A2006F05BFC03461A46194B1A701C2006F054FC01
:4025800003461A46164B1A70144B01225A70144B01225A70134B01221A70104B022283F85C200E4B022283F859200C4B032283F85A200A4B002283F85B200B4B06225A70D7
:4025C000094B00229A70084B0322DA70052004F0A7FD0C37BD4690BD3C85FF1F4086FF1F6082FF1F3E85FF1FDC82FF1F80B582B000AF02460B46FA71BB80FB79012B15D14E
:40260000BB880120194604F06FF8124B64221A70114B01221A70114B01225A7006F022FD0F4806F037F806F0FFF80FE0BB880220194604F059F80B4B64221A700A4B012269
:402640001A700A4806F022FA06F0D2F90837BD4680BD00BF5585FF1F2885FF1F4086FF1F114900000284FF1FC482FF1F8149000080B582B000AF0023FB7175E10023FB7110
:40268000BD4B1B78DBB2FF2B04D0BC4B1B78DBB2FF2B53D100BF02F01BFA0346002BFAD0322004F03DFDB44B1B78DAB2B24B93F85C30DBB21046194603F032FA322004F022
:4026C0002FFDAE4B1B78DAB2AC4B93F85C30DBB21046194603F024FA322004F021FDA64B1B78DBB218461A2106F010FB0346002B04D101203C2103F0F7FF03E001205521FC
:4027000003F0F2FF9D4B1B78DBB218461C2106F0FDFA0346002B04D102203C2103F0E4FF03E00220552103F0DFFF954B00221A70944B00221A700223FB7115E18E4B1B7831
:40274000DBB2184602F078F90346BB71BB790C2B7AD801A252F823F08D270000492800004928000049280000492800004928000095270000D1270000FB27000009280000E9
:402780002528000017280000332800007A4BFF221A7059E0784B1B78DBB2184602F0A6FA322004F0BDFC744B1B78DAB2724B93F85C30DBB21046194603F0B2F9322004F0DF
:4027C000AFFC704B00221A70FB790133FB713BE0694B1B78DAB2684B93F85C30DBB21046194603F09DF9322004F09AFC654B00221A70FB790133FB7126E0624B0B221A707A
:40280000FB790133FB711FE05E4B0B221A70FB790133FB7118E05B4B0C221A70FB790133FB7111E0574B0C221A70FB790133FB710AE0544B0B221A700120082103F054FF78
:40284000FB790133FB7100BF4C4B1B78DBB2184602F0F2F80346BB71BB790C2B00F2848001A252F823F000BF9D280000692900006929000069290000692900006929000060
:40288000A5280000E12800000B29000021290000452900003729000053290000374BFF221A7061E0354B1B78DBB2184602F01EFA322004F035FC314B1B78DAB22F4B93F8ED
:4028C0005C30DBB21046194603F02AF9322004F027FC2B4B00221A70FB790133FB7143E0264B1B78DAB2254B93F85C30DBB21046194603F015F9322004F012FC204B0022F7
:402900001A70FB790133FB712EE01D4B0B221A700220082103F0E8FEFB790133FB7123E0174B0B221A700220082103F0DDFEFB790133FB7118E0124B0C221A70FB79013396
:40294000FB7111E00E4B0C221A70FB790133FB710AE00B4B0B221A700220082103F0C4FEFB790133FB7100BFFB79022B7FF486AE0837BD4680BD00BF4086FF1F6082FF1FA1
:402980000284FF1F5585FF1F80B586B000AF04F0A3FF0346052B40F2FE8104F09DFF03463B820A2004F0BCFB04F096FF0346FB813A8AFB899A4240F0EE81A54B1B78DBB215
:4029C000422B40F0E281A24B5B78DBB2422B40F0DC819F4B9B78DBB2422B40F0D6819D4B00221A709A4BDB78DBB2312B00F05E81452B00F08481302B40F0B381944B5B79B7
:402A0000DBB24E2B0AD1924B1B79DBB203F00F03DBB218461C21FFF7E9FDA2E18C4B9B7ADBB2462B6CD08C4B1B78DAB28A4B93F85C30DBB21046194603F072F8874B1B781F
:402A4000DBB2012B11D1824B5B7ADBB23B72804B1B7ADBB27B727E4BDB79DBB2BB727C4B9B79DBB2FB7200233B737C4B1B78DBB2002B13D1764B9B7ADBB23B72744B5B7AEE
:402A8000DBB27B72724B1B7ADBB2BB72704BDB79DBB2FB726E4B9B79DBB23B736E4B1B78DBB203F00F03D9B26D4B9B7E07F10802084611461A4602F0F5FE0346002B1FD1F5
:402AC000684B4D221A70674B55225A70654B58229A70644B4522DA70624B30221A715C4B1B79DAB25F4B5A715E4B31229A715D4B2A22DA710823FB82564B01221A7030E190
:402B0000534B5B7CDBB27B70514B5B7CDBB22C2B06D04F4B5B7CDBB203F00F03DBB27B704B4B1B7CDBB2BB70494B1B7CDBB22C2B06D0474B1B7CDBB203F00F03DBB2BB70C3
:402B4000434BDB7BDBB2FB70414BDB7BDBB22C2B06D03F4BDB7BDBB203F00F03DBB2FB703B4B9B7BDBB23B71394B9B7BDBB22C2B06D0374B9B7BDBB203F00F03DBB23B71E7
:402B8000334B5B7BDBB27B71314B5B7BDBB22C2B06D02F4B5B7BDBB203F00F03DBB27B712B4B1B7BDBB2BB71294B1B7BDBB22C2B06D0274B1B7BDBB203F00F03DBB2BB7105
:402BC000234BDB7ADBB2FB71214BDB7ADBB22C2B06D01F4BDB7ADBB203F00F03DBB2FB711B4B9B7CDBB27B827B8A312B02D102237B8201E001237B82174B1B78DBB203F080
:402C00000F03D8B2164B997E7B8ADBB23A4602F00BFA0346012B29D10A2004F081FA0E4B1B78DBB2DBB203F00F03DBB243F01003DBB2DBB2184604F081FC074B06225A7064
:402C4000094B0B221A700120082103F04DFD88E06C88FF1F2A83FF1F4086FF1F3E85FF1FC486FF1F6084FF1F5585FF1F4B4B4D221A704A4B55225A70484B58229A70474B48
:402C80004522DA70454B30221A71454B1B79DAB2424B5A71414B32229A71404B2A22DA710823FB823F4B01221A705AE00120372103F01AFD3C4B1B78DBB21A463A4B1B7826
:402CC000DBB203F00F039A4206D1374B01225A70364B00221A7011E0354B1B78DBB21A462F4B1B79DBB203F00F039A4206D1304B01225A702D4B00221A7032E031E0284B8D
:402D00005B79DBB2313B032B2AD801A252F823F0212D0000312D0000412D0000512D0000214B01225A7001201C21FFF75FFC17E01D4B01225A7001200C21FFF757FC0FE024
:402D4000194B01225A7001205521FFF74FFC07E0154B01225A7001200C21FFF747FC00BF00BF104B1B78012B0FD10023BB8208E0BB8A0A4AD35C184604F036FEBB8A0133E8
:402D8000BB82BA8AFB8A9A42F2D304F0EFFD00233B820023FB811837BD4680BD6084FF1F6C88FF1F2A83FF1F4086FF1F5585FF1F6082FF1F80B582B000AF254B5B78DBB2DD
:402DC000012B18D105E004F0E7FA0346184606F087F904F02BFB0346002BF4D105E006F0AFF80346184604F0A9FB06F0F3F80346002BF4D129E006F0EDF80346002B24D06D
:402E000006F09EF80346FB71FB7903F00F02104B1B78DBB29A4207D0FB7903F00F020D4B1B78DBB29A420ED1FB7903F0F003002B09D1FB7943F06003DBB2184606F050F96D
:402E400006F010F901E006F00DF90837BD4680BD4086FF1F6082FF1F90B58FB002AFB24B1B78DBB2652B01F2458501A151F823F009300000233000004F30000049360000EC
:402E8000B13700007F390000F54800008F3A0000C53A0000F93A0000F5480000013F0000594000006D45000069460000F5480000F5480000F5480000F5480000F548000092
:402EC000F5480000F5480000F5480000F5480000F5480000F5480000F5480000F5480000F5480000F5480000F5480000F5480000F5480000F5480000F5480000F548000002
:402F0000F5480000F5480000F5480000F5480000F5480000F5480000F5480000F5480000F5480000F5480000F5480000F5480000F5480000F5480000F5480000F5480000C1
:402F4000F5480000F5480000F5480000F5480000F5480000F5480000F5480000F5480000F5480000F5480000F5480000F5480000F5480000F5480000F5480000F548000081
:402F8000F5480000F5480000F5480000F5480000F5480000F5480000F5480000F5480000F5480000F5480000F5480000F5480000F5480000F5480000F5480000F548000041
:402FC000F5480000F5480000F5480000F5480000F5480000F5480000F5480000F5480000F5480000F5480000F5480000F5480000F5480000F5480000F5480000F548000001
:40300000D54800009F480000484805F043FB05F00BFC474B00221A70434B01221A7001F069BC05F0AFF80346082B0ED105F044FB05F00AFC3C4B0D221A700120632103F040
:4030400053FB05F0E7F801F055BC01F053BC05F099F80346082B40F0CB82364B1B78DBB2AA2B40F0C382334B9B79DBB2C32B40F0BD82304BDB79DBB23C2B40F0B7822C4BA3
:4030800000221A702C4B1B78DAB22C4B1B78DBB29A4280F0C780274BDB78DBB2092B2ED8254B1B78DBB20133DAB2234B1A70224B1B78DBB21F4AD278D1B2214AD1541D4B15
:4030C000DB78DBB23033D9B21E4B1B889AB21A4B1B78DBB21C48008880B2013080B200FB03F398B2194B1B889BB203449BB21648008880B2C0B20090012003F03FFB0D4BC1
:40310000DB78DBB20A2B4ED1114B1B78DBB2012B20D1094B1B78DBB2012B1BD1084B5B78DBB2002B16D13EE05585FF1F114900002885FF1F608EFF1F3F85FF1F0684FF1FA0
:403140001C86FF1FE082FF1F0084FF1F9E86FF1FDB82FF1F9A4B1B78DBB20133DAB2984B1A70974B1B78DBB2964A0021D154964B1B889AB2924B1B78DBB29449098889B2E0
:40318000013189B201FB03F399B2914B1B889BB20B449BB28D49098889B2C9B200910120302103F0EBFA8B4BDB78DBB2512B39D1834B1B78DBB2002B34D0874B1B78DBB2BA
:4031C000002B2FD17E4B1B78DBB20133DAB27C4B1A707B4B1B78DBB2804A1278D1B2794AD1547E4B1B78D9B2774B1B889AB2744B1B78DBB27548008880B2013080B200FBB9
:4032000003F398B2724B1B889BB203449BB26F48008880B2C0B20090012003F0AFFA6E4B01221A706B4BDB78DBB20B2B70D1644B1B78DBB2002B34D1694B1B78DBB2013B5B
:40324000032B65D801A252F823F000BF5D3200006D320000753200008B3200000120052103F042FA5F4B04221A7019E05D4B00221A7015E00120002103F036FA594B002255
:403280001A70594B01225A700AE00120002103F02BFA544B00221A70534B01225A7000BF36E0494B1B889AB2454B1B78DBB24749098889B2013189B201FB03F399B2444B3C
:4032C0001B889BB20B449BB24049098889B2C9B200910120202103F051FA394B1B78DBB2384AD35CDAB23D4B1B78DBB29A4202D1394B00221A70324B1B78DBB2314A0021A0
:40330000D1542F4B1B78DBB2013BDAB22C4B1A70304BDB78DBB20C2B40F06881304B1B78DBB2013B032B00F2618101A151F823F041330000D13400001F35000095350000EC
:40334000002387F82F300CE097F82F3007F130021344002203F82C2C97F82F30013387F82F3097F82F30072BEED9154B1B78DBB2002B00F0AC80124B1B78DBB2114AD35CC7
:40338000DBB22C2B00F0A380012387F82F303FE097F82F300B4AD35CDBB22C2B26D097F82F30013B97F82F2006498A5CD2B23032D2B207F130010B4403F82C2C23E000BF75
:4033C0003F85FF1F1C86FF1FE082FF1F0084FF1F9E86FF1F608EFF1F5C82FF1FBD82FF1FDB82FF1F5585FF1F4086FF1F97F82F30013B97F82F20AB498A5CD2B207F130017C
:403400000B4403F82C2C97F82F30013387F82F30A54B1B78DBB297F82F209A42B8D93B1D184606F00BFAC7E90801A04BDB7E012B09D1D7E908014FF000029D4B06F0EAF910
:403440000346002B1AD1994BDB7E022B3FD1D7E908014FF00002974B06F0D2F90346002B00D1C3E0D7E908014FF000024FF0000306F0DAF90346002B00D1B7E08A4B1B7885
:4034800087F82F3014E097F82F30874A1278D2B2114697F82F208A1A013282498A5CD2B282490B44DA7697F82F30013B87F82F3097F82F30002BE6D17F4B05221A707F4BA5
:4034C00002225A700120072103F00EF98EE08DE0754B1B7887F82F3015E097F82F30724A1278D2B2114697F82F208A1A01326D498A5CD2B26D490B4483F8332097F82F30F5
:40350000013B87F82F3097F82F30002BE5D16A4B04221A700120052103F0E6F866E0624B1B7887F82F3017E097F82F305E4A1278D2B2114697F82F208A1A013259498A5C92
:40354000D2B23032D2B259490B4483F8492097F82F30013B87F82F3097F82F30002BE3D1554B02221A700120052103F0BDF84E4B00221A70524B04221A70524B0A221A7015
:40358000514B02221A80514B03221A80504B01221A802BE0444B1B7887F82F3017E097F82F30414A1278D2B2114697F82F208A1A01323C498A5CD2B23032D2B23B490B44C1
:4035C00083F8542097F82F30013B87F82F3097F82F30002BE3D1384B66221A700120392103F082F8354B10225A7000BF04F012FE384B1B78DBB21D2B24D92C4B93F84830E9
:40360000002B1FD12E4B1B78DBB2022B1AD1264B00221A702B4B07221A702B4B04221A802A4B03221A802A4B01221A8001200A2103F05AF8204B0D221A70264B00221A700A
:4036400001F058B901F056B9012003F0F3F80346012B40F08A800120332103F04BF90346002B00F08280002387F82F300FE097F82F40012003F0C4F903461A460B4B234463
:4036800083F8232097F82F30013387F82F3097F82F30072BEBD9104B00221A70002387F82F3030E01C86FF1F3F85FF1FC486FF1F0000894000208C405585FF1F4086FF1FB5
:4036C000DB82FF1F0684FF1F9E86FF1FE082FF1F0084FF1F2885FF1F2883FF1FB94B1A7897F82F30B8490B4493F823301046194603F0E0F903461A46B24B1A7097F82F305E
:40370000013387F82F3097F82F30062BE6D9AE4B93F82A20AB4B1B789A4226D10120132102F0E2FFA94B00221A70A94804F0B2FF05F07AF8A74B65221A70A74B02221A80F7
:40374000A54B0E225A80A54B00221A70A44B02221A70A44B0A221A70A34B02221A80A34B03221A80A24B01221A8004F00BFD0346082B1BD19F4B1B78DBB2AA2B12D19D4B60
:403780009B79DBB2C32B0DD19A4BDB79DBB23C2B08D1984BDB78DBB23B2B03D18D4B00221A7000BF04F036FD01F0A4B801F0A2B804F0E8FC0346082B40F0DF808D4B1B7849
:4037C000DBB2AA2B40F0D5808A4B9B79DBB2C32B40F0CF80874BDB79DBB23C2B40F0C980844BDB78DBB2102B4BD0102B02DC0F2B07D0BEE03B2B00F0B880432B00F08180B2
:40380000B7E0002387F82F300AE097F82F306E4A13440022DA7697F82F30013387F82F3097F82F30072BF0D96A4B02221A706B4B00221A706A4B01221A706F4B2C221A70F5
:403840006E4B5B78DAB2674B1A705F4B0122DA766B4B00221A700120062102F045FF624B04221A80614B03221A80614B01221A8001230093012024210322042302F07EFFDE
:4038800077E0002387F82F300AE097F82F304E4A13440022DA7697F82F30013387F82F3097F82F30072BF0D94A4B02221A704B4B00221A704A4B01221A704F4B2C221A7055
:4038C0004E4B5B78DAB2474B1A703F4B0222DA764B4B00221A7001200D2102F005FF424B04221A80414B03221A80414B01221A8001230093012047210322042302F03EFF93
:4039000037E0002387F82F300AE097F82F302E4A13440022DA7697F82F30013387F82F3097F82F30072BF0D9274B0322DA76052387F82F300AE097F82F30234A13440922B9
:40394000DA7697F82F30013387F82F3097F82F30072BF0D91F4B07221A700120072102F0C3FE284B02225A7003E01A4B00221A7000BF04F04FFC00F0BDBF00F0BBBF32207A
:4039800003F0CEFB04F0FEFB0346082B3CD1194B1B78DBB2AA2B11D1164B9B79DBB2C32B0CD1144BDB79DBB23C2B07D1114BDB78DBB27E2B02D1074B00221A7004F02AFC7E
:4039C00000F098BF2883FF1FC486FF1F2885FF1F114900005585FF1F4C87FF1F3F85FF1FDB82FF1F0684FF1F9E86FF1FE082FF1F0084FF1F608EFF1FBD82FF1FDC82FF1FF3
:403A00005C82FF1F4086FF1F434B1B78DBB2184601F012F8034687F82F3097F82F30072B06D13E4B07221A70322003F079FB2CE097F82F30002B0ED1322003F071FB364B56
:403A40001B78DAB207F11403104601211A46022301F0EAFA19E097F82F300C2B04D101205521FEF7C3FD10E097F82F300B2B03D12A4B0C221A7008E097F82F300A2B04D112
:403A8000264B0C221A7000F035BF00F033BF0A2003F046FB204B1B78DBB2184601F068F803461A461E4B9A761D4B9B7E002B07D01A4B08221A700A2003F032FB00F01ABFAE
:403AC00000F018BF0A2003F02BFB134B1B78DBB2184600F0B1FF0346072B0BD10F4B09221A700120392102F0FFFD0B4B04225A7000F000BF00F0FEBE0A4B4D221A70094B2E
:403B000055225A70074B58229A70064B3022DA70002387F82F3040E04086FF1F5585FF1FC486FF1F6084FF1F97F82F305B08DBB2B14A134493F823301B0987F82E3097F87C
:403B40002F3003F00103DBB2002B0BD197F82F305B08DBB2A84A134493F8233003F00F0387F82E3097F82F30043397F82E203032D1B2A24AD15497F82E30092B08D997F8EB
:403B80002F30043397F82E203732D1B29B4AD15497F82F30013387F82F3097F82F300F2BC2D9954B9B7E013B954A134493F85930DBB23033DAB2914B1A75924B1B79DAB276
:403BC0008E4B5A758F4BDB78DAB28C4B9A758D4B9B78DAB2894BDA758A4B5B78DAB2874B1A76894B1B78DBB2002B59D1824B9B7E5A1E834913469B0013440B444C339B78AF
:403C0000DBB203F00F03DBB23033DAB27B4B5A76794B9B7E5A1E7A4913469B0013440B444B339B78DBB203F00F03DBB23033DAB2724B9A76704B9B7E5A1E714913469B00C8
:403C400013440B444A339B78DBB203F00F03DBB23033DAB2694BDA76674B9B7E5A1E684913469B0013440B4449339B78DBB203F00F03DBB23033DAB2604B1A775E4B9B7ED3
:403C80005A1E5F4913469B0013440B4448339B78DBB203F00F03DBB23033DAB2574B5A77594B1B78DBB2012B4AD1534B9B7E5A1E534913469B0013440B444B339B78DBB2AD
:403CC00003F00F03DBB23033DAB24C4B5A764A4B9B7E5A1E4A4913469B0013440B444A339B78DBB203F00F03DBB23033DAB2434B9A76414B9B7E5A1E414913469B0013445B
:403D00000B4449339B78DBB203F00F03DBB23033DAB23A4BDA76384B9B7E5A1E384913469B0013440B4448339B78DBB203F00F03DBB23033DAB2314B1A77304B30225A774C
:403D40002D4BDB7E3033DAB22C4B9A772A4B93F822202A4BDA77284B93F82230092B06D8254B93F822303033DAB2244BDA77224B93F82120214B83F820201F4B93F82130EF
:403D8000092B07D81C4B93F821303033DAB21B4B83F82020184B93F82020184B83F82120154B93F82030092B07D8134B93F820303033DAB2114B83F821200F4BDA7F0F4BB5
:403DC00083F822200C4BDB7F092B06D80A4BDB7F3033DAB2094B83F82220074B9A7F074B83F82320044B9B7F092B12D8024B9B7F3033DAB20AE000BFC486FF1F6084FF1F29
:403E00004086FF1F2C85FF1F3E85FF1F8D4B83F823208D4B5A7F8B4B83F824208A4B5B7F092B06D8884B5B7F3033DAB2854B83F82420854B1A7F834B83F82520824B1B7FC8
:403E4000092B06D8804B1B7F3033DAB27D4B83F82520002387F82F3012E097F82F30263397F82F20013278490A4492F833203032D1B2744AD15497F82F30013387F82F3055
:403E800097F82F30062BE8D96E4B312283F82D206C4B2A2283F82E2003F068FD002387F82F300BE097F82F30664AD35C184603F09BFD97F82F30013387F82F3097F82F309A
:403EC0002E2BEFD9962003F02BF903F005FD0346022B13D15D4B1B78DBB24F2B0ED15B4B5B78DBB24B2B09D1594B02225A70594B0A221A7003F03AFD00F0FCBC00F0FABCAA
:403F0000322003F00DF9524B1B78DBB2184600F093FD03460A2B33D00B2B03D0062B5AD000F0E8BC642003F0FBF8002387F82F3010E097F82F30444A13440022DA7197F8F8
:403F40002F30414A134400221A7497F82F30013387F82F3097F82F30082BEAD93C4B1B78DBB2184600F0C2FE0346012B07D1394B0C221A700120392102F0B6FB5FE05EE093
:403F8000002387F82F3010E097F82F302E4A13440022DA7197F82F302B4A134400221A7497F82F30013387F82F3097F82F30082BEAD9274B1B78DBB2184600F097FE0346DA
:403FC000012B07D1234B0C221A700120392102F08BFB34E033E0002387F82F3010E097F82F30194A13440022DA7197F82F30164A134400221A7497F82F30013387F82F3022
:4040000097F82F30082BEAD9002387F82F300AE097F82F300C4A134400229A7097F82F30013387F82F3097F82F30042BF0D9094B0C221A700120392102F056FB00BF00F08B
:4040400059BC00BF6084FF1FC486FF1F6C88FF1F4086FF1F5585FF1F7B4B4D221A707A4B55225A70784B58229A70774B3122DA70754B31221A71754B5B7E013B744A134421
:4040800093F85930DBB23033DAB26F4B5A716F4B5B7D3033DAB26C4B9A716C4B1B7D3033DAB2694BDA71694BDB7C3033DAB2664B1A72654B2C225A72644B9B7C3033DAB2B5
:4040C000614B9A72614B5B7C3033DAB25E4BDA725E4B1B7C3033DAB25B4B1A735D4B5B78DBB2072B2AD1594B9B7B3033DAB2564B5A73564B5B7B3033DAB2534B9A73534B44
:404100001B7B3033DAB2504BDA73504BDB7A3033DAB24D4B1A744D4B9B7A3033DAB24A4B5A744A4B5B7A3033DAB2474B9A74474B1B7A3033DAB2444BDA7429E0434B5B7BB5
:404140003033DAB2404B5A73404B1B7B3033DAB23D4B9A733D4BDB7A3033DAB23A4BDA733A4B9B7A3033DAB2374B1A74374B5B7A3033DAB2344B5A74344B1B7A3033DAB286
:40418000314B9A74314BDB793033DAB22E4BDA74314B1B78DBB2002B1DD12C4B9B793033DAB2294B1A75294B5B793033DAB2264B5A75264B1B793033DAB2234B9A75234B67
:4041C000DB783033DAB2204BDA75204B9B783033DAB21D4B1A76204B1B78DBB2012B1AD11A4B5B793033DAB2174B1A75174B1B793033DAB2144B5A75144BDB783033DAB2EF
:40420000114B9A75114B9B783033DAB20E4BDA750D4B30221A76114B1B79DAB20A4B5A760E4BDB78DAB2084B9A760C4B9B78DAB2054BDA76094B5B78DAB2034B1A7700234C
:4042400087F82F3045E000BF6084FF1FC486FF1F4086FF1FDC82FF1F3E85FF1F2C85FF1F97F82F305B08DBB2B64A134493F823301B0987F82E3097F82F3003F00103DBB27C
:40428000002B0BD197F82F305B08DBB2AD4A134493F8233003F00F0387F82E3097F82F301D3397F82E203032D1B2A74AD15497F82E30092B08D997F82F301D3397F82E20D8
:4042C0003732D1B2A04AD15497F82F30013387F82F3097F82F300F2BC2D99C4B1B8801339AB29A4B1A80994B1A88994BA3FB02139B099BB2DBB23033DAB2964B1A71934BA3
:404300001B88934AA2FB031292094FF47A7101FB02F29B1A9AB2904BA3FB02135B099BB2DBB23033DAB28B4BDA70884B1B88884AA2FB031292094FF47A7101FB02F29B1A4E
:404340009BB2854AA2FB03125209642101FB02F29B1A9AB2814BA3FB0213DB089BB2DBB23033DAB27B4B9A70784B1B88784AA2FB031292094FF47A7101FB02F29B1A9BB20E
:40438000754AA2FB03125209642101FB02F29B1A9AB2724BA3FB0213D9080B469B000B445B00D31A9BB2DBB23033DAB2694B5A70012387F82F300EE097F82F302C3397F8D4
:4043C0002F2064498A5CD1B25F4AD15497F82F30013387F82F3097F82F30072BECD9012387F82F3010E097F82F305A4AD35CDAB297F82F309BB21046194604F087FC97F870
:404400002F30013387F82F3097F82F30042BEAD9002387F82F3012E097F82F30343397F82F20013247490A4492F833203032D1B2454AD15497F82F30013387F82F3097F8EF
:404440002F30062BE8D9404B2A2283F83B2003F08DFA002387F82F300BE097F82F303A4AD35C184603F0C0FA97F82F30013387F82F3097F82F303B2BEFD9FA2002F050FEB6
:4044800003F02AFA0346022B5AD1354B1B78DBB24F2B0AD1324B5B78DBB24B2B05D1314B02225A70304B0A221A7003F05FFA254B5B7E5A1E2B4913469B0013440B444833F5
:4044C0009B78DBB23B731F4B5B7E5A1E254913469B0013440B4449339B78DBB27B73194B5B7E5A1E1F4913469B0013440B444A339B78DBB2BB73134B5B7E5A1E1949134635
:404500009B0013440B444B339B78DBB2FB730D4B5B7E5A1E134913469B0013440B444C339B78DBB23B740F4B1B78D9B2054B5B7E07F10C02084611461A4601F0B3F9D9E13E
:40454000D8E100BFC486FF1F6084FF1FC282FF1FD34D62103485FF1F1F85EB51CDCCCCCC6C88FF1F4086FF1F5585FF1F03F00AFE0346082B77D1A64B1B78DBB2AA2B6CD1AD
:40458000A34B9B79DBB2C32B67D1A14BDB79DBB23C2B62D19E4BDB78DBB2592B10D0592B01DC452B59E05C2B02D07E2B4DD054E0984B03221A700120122102F095F84CE0C4
:4045C0000120392102F090F8934B4D221A70924B55225A70904B58229A708F4B3222DA708D4B2A221A7103F0C1F9002387F82F300BE097F82F30884AD35C184603F0F4F985
:4046000097F82F30013387F82F3097F82F30042BEFD9962002F084FD03F05EF90346022B12D17E4B1B78DBB24F2B0AD17B4B5B78DBB24B2B05D17A4B02225A70754B0A227A
:404640001A7003F093F908E007E00120002102F04BF8704B00221A7000BF642002F060FD03F0D8FD46E145E103F08CFD0346082B40F01481664B1B78DBB2AA2B40F00B81BE
:40468000634B9B79DBB2C32B40F00581604BDB79DBB23C2B40F0FF80624B1B78DAB2624B1B78DBB29A4265D2594BDB78DBB2092B2FD85C4B1B78DBB20133554AD278D2B292
:4046C0003032D2B259490B4483F85420584B1B889AB2544B1B78DBB25649098889B2013189B201FB03F399B2534B1B889BB20B449BB25049098889B2C9B2009101202A2187
:4047000002F03CF8474B1B78DBB20133DAB2454B1A703F4BDB78DBB20A2B2BD1414B1B78DBB20133414A1344302283F85420404B1B889AB23B4B1B78DBB23E49098889B2B6
:40474000013189B201FB03F399B23B4B1B889BB20B449BB23749098889B2C9B2009101202A2102F00BF82F4B1B78DBB20133DAB22C4B1A70264BDB78DBB20B2B2BD12A4B71
:404780001B78DBB2002B03D1224B00221A7022E0244B1B78DBB2013BDAB2224B1A70244B1B889AB21F4B1B78DBB22249098889B2013189B201FB03F399B21F4B1B889BB24E
:4047C0000B449BB21B49098889B2C9B200910120202101F0D3FF0E4BDB78DBB20C2B5AD1104B1B78DBB2002B55D00E4B1B78DAB20E4B83F85420002387F82E300B4B93F8B5
:404800005430042B44D1012387F82F302CE000BF608EFF1F5585FF1F6084FF1F6C88FF1F4086FF1F3F85FF1F0684FF1FC486FF1FE082FF1F0084FF1F9E86FF1F97F82F30A3
:404840002E4A134493F8542097F82F302C49CB5C9A4204D197F82E30013387F82E3097F82F30013387F82F3097F82F30042BE5D997F82E30042B07D1224B0F221A70012019
:404880005D2101F031FF06E01E4B00221A7002E01C4B00221A7003F0BDFC2BE02AE01A4B1B78DBB2012B14D903F006FF03F0CCFF164B1B889BB2DAB2124B1A70134B5B884F
:4048C0009BB20120194601F00FFF0F4B00221A7010E00FE00C4B1B78DBB2032B09D9094B00221A7003F0E8FE03F0AEFF064B00221A7000BF3437BD4690BD00BFC486FF1F69
:404900002881FF1F5585FF1F2885FF1F4C87FF1F80B500AF03F0CCFF174B1B78DBB2012B22D1164B1B78DBB2062B10D8134B1B78DBB20133DAB2114B1A70104B1B78DBB280
:4049400014339BB20120194601F0CEFE13E00B4B00221A70094B1B78DBB214339BB20120194601F0C1FE06E0044B1B78DBB20133DAB2024B1A7080BD5585FF1F2885FF1F4D
:4049800080B500AF04F054F8174B1B78DBB2012B22D1164B1B78DBB2062B10D8134B1B78DBB20133DAB2114B1A70104B1B78DBB214339BB20220194601F096FE13E00B4B16
:4049C00000221A70094B1B78DBB214339BB20220194601F089FE06E0044B1B78DBB20133DAB2024B1A7080BD0284FF1FC482FF1F80B500AFFDF73AFCFDF73AFE032000215B
:404A000002F0C2FBFDF7C0FF02F002FCFEF7D2F902F0FEFBFEF720FA02F0FAFBFEF7CAF9F0E700BF80B500AF04F034F9014B01221A7080BD5487FF1F80B584B000AF0346A0
:404A4000FB7102F03DFDFB79184602F077FD1E4803F09CFA04F0DAF81C4B00221A700A2002F05EFB0BE0194B1B78012B07D103F09FFA04F0DBF802F023FD002320E002F0C9
:404A8000D5FC0346002BEED002F086FC0346FB73FB7B03F00F02FB799A420AD1FB7B1B09FB7302F00DFD03F083FA04F0BFF8FB7B06E002F005FD03F07BFA04F0B7F8002386
:404AC00018461037BD4680BD254A00005487FF1F80B582B000AF244BFF221A70234BFF221A70052002F01CFB0020FFF7A5FF0346002B02D01D4B00221A700123FB711FE04F
:404B0000052002F00DFBFB791846FFF795FF0346002B12D0144B1B78DBB2FF2B03D1124BFA791A7009E0114B1B78DBB2FF2B04D10E4BFA791A70012312E0FB790133FB71E9
:404B4000FB790F2BDCD9084B1B78DBB2FF2B06D0064B1B78DBB2FF2B01D0012300E0002318460837BD4680BD4086FF1F6082FF1F90B58BB000AF0346FB71594A07F1080381
:404B80001068516803C3127A1A7002F099FCFB7943F02003DBB2184602F0D0FC514803F0F5F904F033F8504B00221A700BE04E4B1B78012B07D103F0FBF904F037F802F0F7
:404BC0007FFC002388E002F031FC0346002BEED003F0EEF904F02AF802F0DEFB03461A46FB7963F02F03DBB29A4274D102F068FC052002F095FA002387F827300EE097F8E1
:404C0000273007F12802134413F8203C184602F095FC97F82730013387F8273097F82730082BECD92F4803F0B1F903F0EFFF2E4B00221A700BE02C4B1B78012B07D103F088
:404C4000B7F903F0F3FF02F03BFC002344E002F0EDFB0346132BEED103F0AAF903F0E6FF002387F827300FE097F8274002F094FB03461A4607F12803234403F8142C97F845
:404C80002730013387F8273097F82730122BEBD902F016FC3B7DBA2B1BD197F825308D2B17D197F826308A2B13D197F82030B12B0FD197F82230B22B05D0B32B05D0B12B60
:404CC00005D1012308E0022306E0032304E0002302E0002300E0002318462C37BD4690BD08BD0000254A00005487FF1F80B584B000AF0346FB7102F0E3FBFB7943F04003CD
:404D0000DBB2184602F01AFC4FF4967002F008FAA64B5B78DBB2072B00F0B68002F086FB0346212B40F0B080A14B1B78DBB2FF2B40F0A8809E4B9B78DBB2F82B40F0A280A6
:404D40009B4B93F82030DBB2F02B40F09B80994B1B78DBB2FA799A4249D1954B5B7ADBB203F00F03DBB20133DAB2934B5A760023FB730EE0FB7BFA7B0C328D498A5CD2B2E8
:404D800002F00F02D2B28C490B449A70FB7B0133FB73FB7B032BEDD90023FB730EE0FB7BFA7B113282498A5CD2B202F00F02D2B281490B441A74FB7B0133FB73FB7B052BEE
:404DC000EDD90023FB730EE0FB7BFA7B183278498A5CD2B202F00F02D2B277490B44DA71FB7B0133FB73FB7B052BEDD948E0704B5B7ADBB203F00F03DBB20133DAB26F4B58
:404E00005A760023FB730EE0FB7BFA7B0C3268498A5CD2B202F00F02D2B268490B449A70FB7B0133FB73FB7B032BEDD90023FB730EE0FB7BFA7B11325D498A5CD2B202F01D
:404E40000F02D2B25D490B441A74FB7B0133FB73FB7B052BEDD90023FB730EE0FB7BFA7B183253498A5CD2B202F00F02D2B253490B44DA71FB7B0133FB73FB7B052BEDD99B
:404E80000123C9E00023C7E0484B5B78DBB2072B40F0C18002F0CAFA0346272B40F0BB80434B1B78DBB2FF2B40F0B380404B9B78DBB2F82B40F0AD803D4B93F82630DBB22D
:404EC000F02B40F0A6803B4B1B78DBB2FA799A4249D1374B5B7ADBB203F00F03DBB20133DAB2354B5A760023FB730EE0FB7BFA7B0C322F498A5CD2B202F00F02D2B22E4924
:404F00000B449A70FB7B0133FB73FB7B052BEDD90023FB730EE0FB7BFA7B133224498A5CD2B202F00F02D2B223490B441A74FB7B0133FB73FB7B072BEDD90023FB730EE039
:404F4000FB7BFA7B1C321A498A5CD2B202F00F02D2B219490B44DA71FB7B0133FB73FB7B072BEDD953E0124B5B7ADBB203F00F03DBB20133DAB2114B5A760023FB730EE033
:404F8000FB7BFA7B0C320A498A5CD2B202F00F02D2B20A490B449A70FB7B0133FB73FB7B052BEDD90023FB7319E000BFDC82FF1F5887FF1F4086FF1FC486FF1F5885FF1F4B
:404FC000FB7BFA7B133216498A5CD2B202F00F02D2B214490B441A74FB7B0133FB73FB7B072BEDD90023FB730EE0FB7BFA7B1C320B498A5CD2B202F00F02D2B209490B44D3
:40500000DA71FB7B0133FB73FB7B072BEDD9012302E0002300E0002318461037BD4680BD5887FF1F5885FF1F80B588B000AF3A600246FA710A46BA717B7107F108030022A1
:405040001A60043300221A60043300221A60043300221A60043300221A8002330423BB777B79032B01D102237B71B34B5B78DBB2052B04D0B04B5B78DBB2062B04D17B7900
:40508000012B01D10323BB77AB4B5B78DBB2052B04D17B79022B01D10523BB77A64B5B78DBB2072B04D17B79012B01D10023BB77A14B5B78DBB2072B04D17B79022B01D10D
:4050C0000223BB7700233B7701237B770AE07B7F3A6813441B782C2B01D17B7F3B777B7F01337B777B7F072BF1D93B7F042B01D90023CFE3904B5B78DBB2072B00F0058297
:40510000FF233B72BB7F63F01F03DBB27B727B7963F00F03DBB2BB72F423FB72F8233B733B6801331B7863F01F03DBB27B733B6802331B7863F01F03DBB2BB733B68033349
:405140001B7863F01F03DBB2FB733B6804331B7863F01F03DBB23B743B6805331B7863F01F03DBB27B743B6806331B7863F01F03DBB2BB74704B9B78DBB2022B40F0A58032
:405180003B7F042B29D13B6802331B7863F01F03DBB27B733B6803331B7863F01F03DBB2BB733B6805331B7863F01F03DBB2FB733B6806331B7863F01F03DBB23B743B6874
:4051C00007331B7863F01F03DBB27B743B6808331B7863F01F03DBB2BB743B7F032B29D13B6801331B7863F01F03DBB27B733B6802331B7863F01F03DBB2BB733B6804339E
:405200001B7863F01F03DBB2FB733B6805331B7863F01F03DBB23B743B6806331B7863F01F03DBB27B743B6807331B7863F01F03DBB2BB743B7F022B24D1E0237B733B68DB
:4052400001331B7863F01F03DBB2BB733B6803331B7863F01F03DBB2FB733B6804331B7863F01F03DBB23B743B6805331B7863F01F03DBB27B743B6806331B7863F01F03FA
:40528000DBB2BB743B7F002B1FD1E0237B73E023BB733B6801331B7863F01F03DBB2FB733B6802331B7863F01F03DBB23B743B6803331B7863F01F03DBB27B743B6804330E
:4052C0001B7863F01F03DBB2BB74FB23FB7400233B7500237B770FE03A7D7B7F07F120010B4413F8183C03F00F03DBB21344DBB23B757B7F01337B777B7F0B2BECD93B7D1B
:405300005B42DBB2DBB203F00F03DBB263F01F03DBB2DBB23B75F0237B750D23FB77064B5B78DBB2052B2CD1FB23BB740023FB7400237B7712E000BFDC82FF1FFA7C7B7FD1
:4053400007F120010B4413F8183C03F00F03DBB21344DBB2FB747B7F01337B777B7F0A2BECD9FB7C5B42DBB2DBB203F00F03DBB263F01F03DBB2DBB2FB74F0233B750C23BD
:40538000FB777B79012B40F0C080F6233B73BB79013BDBB2DBB263F01F03DBB2DBB27B73F823BB733B7F042B22D13B6802331B7863F01F03DBB2FB733B6803331B7863F05E
:4053C0001F03DBB23B743B6805331B7863F01F03DBB27B743B6806331B7863F01F03DBB2BB743B6807331B7863F01F03DBB2FB743B7F032B22D13B6801331B7863F01F03B5
:40540000DBB2FB733B6802331B7863F01F03DBB23B743B6804331B7863F01F03DBB27B743B6805331B7863F01F03DBB2BB743B6806331B7863F01F03DBB2FB743B7F022B91
:405440001DD1E023FB733B6801331B7863F01F03DBB23B743B6803331B7863F01F03DBB27B743B6804331B7863F01F03DBB2BB743B6805331B7863F01F03DBB2FB743B7F1E
:40548000002B18D1E023FB73E0233B743B6801331B7863F01F03DBB27B743B6802331B7863F01F03DBB2BB743B6803331B7863F01F03DBB2FB74FB233B7500237B750023DD
:4054C0007B770FE07A7D7B7F07F120010B4413F8183C03F00F03DBB21344DBB27B757B7F01337B777B7F0C2BECD97B7D5B42DBB2DBB203F00F03DBB263F01F03DBB2DBB2C7
:405500007B75F023BB750E23FB77A24B5B78DBB2072B40F06481FF233B72BB7F63F01F03DBB27B727B7963F00F03DBB2BB72F423FB72F8233B733B6801331B7863F01F03CA
:40554000DBB27B733B6802331B7863F01F03DBB2BB733B6803331B7863F01F03DBB2FB733B6804331B7863F01F03DBB23B743B6805331B7863F01F03DBB27B743B680633E0
:405580001B7863F01F03DBB2BB743B6807331B7863F01F03DBB2FB74E0233B75FB237B750023BB7500237B770FE0BA7D7B7F07F120010B4413F8183C03F00F03DBB213444D
:4055C000DBB2BB757B7F01337B777B7F0D2BECD9BB7D5B42DBB2DBB203F00F03DBB263F01F03DBB2DBB2BB75F023FB750F23FB777B79012B40F0F380F6233B73BB79013B76
:40560000DBB2DBB263F01F03DBB2DBB27B73F823BB733B7F042B2DD13B6801331B7863F01F03DBB2FB733B6802331B7863F01F03DBB23B743B6803331B7863F01F03DBB23F
:405640007B743B6805331B7863F01F03DBB2BB743B6806331B7863F01F03DBB2FB743B6807331B7863F01F03DBB23B75E0237B75E023BB753B7F032B2DD1E023FB733B687A
:4056800001331B7863F01F03DBB23B743B6802331B7863F01F03DBB27B743B6804331B7863F01F03DBB2BB743B6805331B7863F01F03DBB2FB743B6806331B7863F01F03B5
:4056C000DBB23B753B6807331B7863F01F03DBB27B75E023BB753B7F022B2DD1E023FB73E0233B743B6801331B7863F01F03DBB27B743B6803331B7863F01F03DBB2BB74D8
:405700003B6804331B7863F01F03DBB2FB743B6805331B7863F01F03DBB23B753B6806331B7863F01F03DBB27B753B6807331B7863F01F03DBB2BB753B7F002B23D1E0238C
:40574000FB73E0233B74E0237B743B6801331B7863F01F03DBB2BB743B6802331B7863F01F03DBB2FB743B6803331B7863F01F03DBB23B753B6804331B7863F01F03DBB213
:405780007B75E023BB75FB23FB7500233B7600237B7711E0DC82FF1F3A7E7B7F07F120010B4413F8183C03F00F03DBB21344DBB23B767B7F01337B777B7F0F2BECD93B7E70
:4057C0005B42DBB2DBB203F00F03DBB263F01F03DBB2DBB23B76F0237B761123FB7701F06FFEFB7943F02003DBB2184601F0A6FE2A4802F0CBFB03F009FA294B00221A708E
:405800000A2001F08DFC0BE0254B1B78012B07D102F0CEFB03F00AFA01F052FE002339E001F004FE0346002BEED002F0C1FB03F0FDF901F0B1FD03461A46FB7963F02F03A6
:40584000DBB29A4225D101F03BFE0A2001F068FC00237B770BE07B7F07F12002134413F8183C184601F06AFE7B7F01337B777A7FFB7F9A42EFD9322001F052FCFB79184605
:40588000FFF7DAF80346002B01D1002302E0012300E0002318462037BD4680BD254A00005487FF1F80B588B000AF396013460246FA71BB7100233B7300237B730023BB7331
:4058C0000023FB7300233B7400237B740023BB740023FB7400233B7500237B750023BB750023FB7500233B7600237B760023BB76884B5B78DBB2072B56D0FF233B73E523E4
:405900007B73F423BB73F623FB73BB79013BDBB2DBB263F01F03DBB2DBB23B74F7237B740623BB7715E0BB7FBA7F063A39680A441278D2B202F00F02D2B262F01F02D2B25E
:40594000D2B207F120010B4403F8142CBB7F0133BB77BB7F092BE6D9FB23BB750023BB770FE0FA7DBB7F07F120010B4413F8143C03F00F03DBB21344DBB2FB75BB7F0133D9
:40598000BB77BB7F0A2BECD9FB7D5B42DBB2DBB203F00F03DBB263F01F03DBB2DBB2FB75F0233B760C23FB775A4B5B78DBB2072B53D1FF233B73E3237B73F423BB73F623DF
:4059C000FB73BB79013BDBB2DBB263F01F03DBB2DBB23B74F7237B740623BB7710E0BB7FBA7F063A39680A44127862F01F02D2B207F120010B4403F8142CBB7F0133BB77B7
:405A0000BB7F0A2BEBD9E023FB75FB233B760023BB770FE07A7EBB7F07F120010B4413F8143C03F00F03DBB21344DBB27B76BB7F0133BB77BB7F0C2BECD97B7E5B42DBB258
:405A4000DBB203F00F03DBB263F01F03DBB2DBB27B76F023BB760E23FB7701F031FDFB7943F02003DBB2184601F068FD2A4802F08DFA03F0CBF8294B00221A700BE0274B58
:405A80001B78012B07D102F093FA03F0CFF801F017FD002339E001F0C9FC0346002BEED002F086FA03F0C2F801F076FC03461A46FB7963F02F03DBB29A4225D101F000FD7C
:405AC0000A2001F02DFB0023BB770BE0BB7F07F12002134413F8143C184601F02FFDBB7F0133BB77BA7FFB7F9A42EFD9322001F017FBFB791846FEF79FFF0346002B01D1AB
:405B0000002302E0012300E0002318462037BD4680BD00BFDC82FF1F254A00005487FF1F80B584B000AF02460B46FA71BB7101F0C7FCFB7943F05003DBB2184601F0FEFCD5
:405B4000AF4B00221A70642001F0EAFA01F06EFC0346002B00F0BE85AA4B1B78DBB2FA799A4240F0DF82A84B5B78DBB2072B00F073814FF4617001F0D3FA01F057FC034667
:405B8000FB73FB7B222B06D0FB7B402B03D0FB7B5E2B40F05C819D4B1B78DBB2FF2B40F051819A4B5B78DBB2F62B40F04B81974BDB78DBB2F92B40F045810023BB7316E065
:405BC0000023FB730DE0BA7BF87B8E4913465B001344DB0003440B4400229A70FB7B0133FB73FB7B172BEED9BB7B0133BB73BB7B022BE5D90023FB730BE0FB7BFA7B043213
:405C000082498A5CD2B27F490B449A70FB7B0133FB73FB7B072BF0D90023FB7316E0FB7B0D337A4AD35CDBB2002B02D1002300F052BDFB7B0C33FA7B0D3274498A5CD2B218
:405C400070490B449A70FB7B0133FB73FB7B072BE5D90023FB730CE0FB7BFA7B16326B498A5CD2B267490B4483F84A20FB7B0133FB73FB7B032BEFD9BB79022B46D10023C3
:405C8000FB730BE0FB7BFA7B223260498A5CD2B25C490B449A76FB7B0133FB73FB7B072BF0D90023FB7316E0FB7B2B33574AD35CDBB2002B02D1002300F00DBDFB7B0C3364
:405CC000FA7B2B3251498A5CD2B24E490B449A76FB7B0133FB73FB7B072BE5D90023FB730CE0FB7BFA7B343248498A5CD2B245490B4483F84F20FB7B0133FB73FB7B032B0E
:405D0000EFD901F0DDFB022300F0E5BCBB79032B40F093800023FB730BE0FB7BFA7B22323A498A5CD2B237490B449A76FB7B0133FB73FB7B072BF0D90023FB7316E0FB7B6A
:405D40002B33324AD35CDBB2002B02D1002300F0C2BCFB7B0C33FA7B2B322C498A5CD2B228490B449A76FB7B0133FB73FB7B072BE5D90023FB730CE0FB7BFA7B3432234910
:405D80008A5CD2B21F490B4483F84F20FB7B0133FB73FB7B032BEFD90023FB730CE0FB7BFA7B403219498A5CD2B216490B4483F83220FB7B0133FB73FB7B072BEFD9002388
:405DC000FB7317E0FB7B4933104AD35CDBB2002B02D1002300F07FBCFB7B0C33FA7B49320A498A5CD2B207490B4483F83220FB7B0133FB73FB7B072BE4D90023FB7314E01A
:405E00005487FF1F4086FF1FDC82FF1F5887FF1FFB7BFA7B5232A7498A5CD2B2A6490B4483F85420FB7B0133FB73FB7B032BEFD901F046FB032300F04EBC01F041FB0123EF
:405E400000F049BC01F03CFB002300F044BC01F037FB002300F03FBC4FF4617001F060F901F0E4FA0346FB73FB7B2E2B06D0FB7B582B03D0FB7B822B40F050818D4B1B78DD
:405E8000DBB2FF2B40F046818A4B5B78DBB2F62B40F04081874BDB78DBB2F92B40F03A810023BB7316E00023FB730DE0BA7BF87B814913465B001344DB0003440B44002257
:405EC0009A70FB7B0133FB73FB7B172BEED9BB7B0133BB73BB7B022BE5D90023FB730BE0FB7BFA7B043273498A5CD2B272490B449A70FB7B0133FB73FB7B0B2BF0D90023C1
:405F0000FB7315E0FB7B11336A4AD35CDBB2002B01D10023DFE3FB7B0C33FA7B113265498A5CD2B264490B449A70FB7B0133FB73FB7B0B2BE6D90023FB730CE0FB7BFA7B7C
:405F40001E325C498A5CD2B25B490B4483F84A20FB7B0133FB73FB7B042BEFD9BB79022B44D10023FB730BE0FB7BFA7B2E3251498A5CD2B250490B449A76FB7B0133FB7314
:405F8000FB7B0B2BF0D90023FB7315E0FB7B3B33484AD35CDBB2002B01D100239BE3FB7B0C33FA7B3B3243498A5CD2B242490B449A76FB7B0133FB73FB7B0B2BE6D90023F9
:405FC000FB730CE0FB7BFA7B48323A498A5CD2B239490B4483F84F20FB7B0133FB73FB7B042BEFD901F06CFA022374E3BB79032B40F08C800023FB730BE0FB7BFA7B2E327D
:406000002C498A5CD2B22C490B449A76FB7B0133FB73FB7B0B2BF0D90023FB7315E0FB7B3B33244AD35CDBB2002B01D1002352E3FB7B0C33FA7B3B321E498A5CD2B21E4968
:406040000B449A76FB7B0133FB73FB7B0B2BE6D90023FB730CE0FB7BFA7B483215498A5CD2B215490B4483F84F20FB7B0133FB73FB7B042BEFD90023FB730CE0FB7BFA7B10
:4060800058320C498A5CD2B20B490B4483F83220FB7B0133FB73FB7B0B2BEFD90023FB731AE0FB7B6533034AD35CDBB2002B05D1002310E35887FF1F4086FF1FFB7B0C334C
:4060C000FA7B6532AD498A5CD2B2AD490B4483F83220FB7B0133FB73FB7B0B2BE1D90023FB730CE0FB7BFA7B7232A4498A5CD2B2A3490B4483F85420FB7B0133FB73FB7B89
:40610000042BEFD901F0DCF90323E4E201F0D8F90123E0E201F0D4F90023DCE201F0D0F90023D8E2974B5B78DBB2072B00F06B814FF4617000F0F4FF01F078F90346FB7378
:40614000FB7B222B06D0FB7B402B03D0FB7B5E2B40F05581894B1B78DBB2FF2B40F04B81864B5B78DBB2F62B40F04581834BDB78DBB2F92B40F03F810023BB7316E000233F
:40618000FB730DE0BA7BF87B7F4913465B001344DB0003440B4400229A70FB7B0133FB73FB7B172BEED9BB7B0133BB73BB7B022BE5D90023FB730BE0FB7BFA7B04326F49C7
:4061C0008A5CD2B270490B449A70FB7B0133FB73FB7B072BF0D90023FB7315E0FB7B0D33664AD35CDBB2002B01D1002373E2FB7B0C33FA7B0D3261498A5CD2B262490B4406
:406200009A70FB7B0133FB73FB7B072BE6D90023FB730CE0FB7BFA7B163258498A5CD2B259490B4483F84A20FB7B0133FB73FB7B032BEFD9BB79022B44D10023FB730BE0CE
:40624000FB7BFA7B22324D498A5CD2B24E490B449A76FB7B0133FB73FB7B072BF0D90023FB7315E0FB7B2B33444AD35CDBB2002B01D100232FE2FB7B0C33FA7B2B323F497C
:406280008A5CD2B240490B449A76FB7B0133FB73FB7B072BE6D90023FB730CE0FB7BFA7B343236498A5CD2B237490B4483F84F20FB7B0133FB73FB7B032BEFD901F000F92F
:4062C000022308E2BB79032B40F091800023FB730BE0FB7BFA7B223228498A5CD2B22A490B449A76FB7B0133FB73FB7B072BF0D90023FB7315E0FB7B2B33204AD35CDBB27B
:40630000002B01D10023E6E1FB7B0C33FA7B2B321A498A5CD2B21C490B449A76FB7B0133FB73FB7B072BE6D90023FB730CE0FB7BFA7B343211498A5CD2B213490B4483F827
:406340004F20FB7B0133FB73FB7B032BEFD90023FB730CE0FB7BFA7B403208498A5CD2B209490B4483F83220FB7B0133FB73FB7B072BEFD90023FB731FE000BF5887FF1F53
:406380004086FF1FDC82FF1F6082FF1FFB7B4933A64AD35CDBB2002B01D100239BE1FB7B0C33FA7B4932A1498A5CD2B2A0490B4483F83220FB7B0133FB73FB7B072BE5D9C7
:4063C0000023FB730CE0FB7BFA7B523297498A5CD2B297490B4483F85420FB7B0133FB73FB7B032BEFD901F06BF8032373E101F067F801236FE101F063F800236BE101F087
:406400005FF8002367E14FF4617000F089FE01F00DF80346FB73FB7B2E2B06D0FB7B582B03D0FB7B822B40F05181804B1B78DBB2FF2B40F047817D4B5B78DBB2F62B40F046
:4064400041817A4BDB78DBB2F92B40F03B810023BB7316E00023FB730DE0BA7BF87B744913465B001344DB0003440B4400229A70FB7B0133FB73FB7B172BEED9BB7B0133D2
:40648000BB73BB7B022BE5D90023FB730BE0FB7BFA7B043265498A5CD2B265490B449A70FB7B0133FB73FB7B0B2BF0D90023FB7315E0FB7B11335D4AD35CDBB2002B01D1A4
:4064C000002308E1FB7B0C33FA7B113257498A5CD2B257490B449A70FB7B0133FB73FB7B0B2BE6D90023FB730CE0FB7BFA7B1E324E498A5CD2B24E490B4483F84A20FB7BA3
:406500000133FB73FB7B042BEFD9BB79022B44D10023FB730BE0FB7BFA7B2E3243498A5CD2B243490B449A76FB7B0133FB73FB7B0B2BF0D90023FB7315E0FB7B3B333B4AB2
:40654000D35CDBB2002B01D10023C4E0FB7B0C33FA7B3B3235498A5CD2B235490B449A76FB7B0133FB73FB7B0B2BE6D90023FB730CE0FB7BFA7B48322C498A5CD2B22C4986
:406580000B4483F84F20FB7B0133FB73FB7B042BEFD900F095FF02239DE0BB79032B40F08D800023FB730BE0FB7BFA7B2E321F498A5CD2B21E490B449A76FB7B0133FB73E1
:4065C000FB7B0B2BF0D90023FB7315E0FB7B3B33164AD35CDBB2002B01D100237BE0FB7B0C33FA7B3B3211498A5CD2B210490B449A76FB7B0133FB73FB7B0B2BE6D900236C
:40660000FB730CE0FB7BFA7B483208498A5CD2B207490B4483F84F20FB7B0133FB73FB7B042BEFD90023FB7311E000BF5887FF1F6082FF1FFB7BFA7B583229498A5CD2B243
:4066400028490B4483F83220FB7B0133FB73FB7B0B2BEFD90023FB7316E0FB7B6533204AD35CDBB2002B01D1002334E0FB7B0C33FA7B65321A498A5CD2B21A490B4483F857
:406680003220FB7B0133FB73FB7B0B2BE5D90023FB730CE0FB7BFA7B723211498A5CD2B210490B4483F85420FB7B0133FB73FB7B042BEFD900F004FF03230CE000F000FF26
:4066C000012308E000F0FCFE002304E000F0F8FE002300E0002318461037BD4680BD00BF5887FF1F6082FF1F80B582B000AF02460B46FA71BB80FB79012B1ED1AA2001F051
:40670000C7FD702001F0C4FDBB881B0A9BB2DBB2184601F0BDFDBB88DBB2184601F0B8FDCC2001F0B5FD332001F0B2FDC32001F0AFFD3C2001F0ACFD1DE0AA2001F09CFEEA
:40674000702001F099FEBB881B0A9BB2DBB2184601F092FEBB88DBB2184601F08DFECC2001F08AFE332001F087FEC32001F084FE3C2001F081FE0837BD4680BDB0B588B0CA
:4067800000AFF871B971BA807B80294B07F10C041D4628686968AA68EB680FC42B8A23807A8813465B0013449B001B12DBB2BB737B88DBB21A46520013449B00DBB2FB73D3
:4067C000BA8813461B019B1A1B12DBB23B74BB88DBB21A461201D31ADBB27B7497F830302333DBB2BB74BB797B760023FB7718E0FB79012B09D1FB7F07F12002134413F8F5
:40680000143C184601F044FD08E0FB7F07F12002134413F8143C184601F02EFEFB7F0133FB77FB7F112BE3D92037BD46B0BD00BF14BD000080B584B000AF0346FB71FB79A5
:40684000012B29D1002001F0CFFE4FF4FA7000F089FC012001F0C8FE052000F083FC01F0DDFE0346002B01D100233EE0412000F079FC01F0D3FE0346002B14BF002301231D
:40688000DBB2FB73F02000F06DFCFB7B002B01D001232AE0002328E0002001F0CDFE4FF4FA7000F05FFC012001F0C6FE052000F059FC01F0DFFE0346002B01D1002314E06A
:4068C000412000F04FFC01F0D5FE0346002B14BF00230123DBB2FB73F02000F043FCFB7B002B01D0012300E0002318461037BD4680BD00BF80B584B000AF02460B46FA7117
:40690000BB71FB79012B3BD10023FB7333E0002001F06AFE0A2000F025FCBA79FB7B42FA03F303F00103002B0CD0012001F05CFE0A2000F017FC01F071FE0346002B0ED102
:40694000002358E0002001F04FFE0A2000F00AFC01F064FE0346002B01D000234BE0322000F000FC012001F03FFE322000F0FAFBFB7B0133FB73FB7B072BC8D901233AE0F5
:406980000023FB7333E0002001F056FE0A2000F0E9FBBA79FB7B42FA03F303F00103002B0CD0012001F048FE0A2000F0DBFB01F061FE0346002B0ED100231CE0002001F0DC
:4069C0003BFE0A2000F0CEFB01F054FE0346002B01D000230FE0322000F0C4FB012001F02BFE322000F0BEFBFB7B0133FB73FB7B072BC8D9012318461037BD4680BD00BF81
:406A000080B584B000AF0346FB710023BB73FB79012B25D10023FB731DE0002001F0E4FD0E2000F09FFB012001F0DEFD072000F099FB01F0F3FD03461A46FB7B02FA03F3E0
:406A4000DAB2BB7B1343DBB2BB73642000F08AFBFB7B0133FB73FB7B072BDED9BB7B24E00023FB731DE0002001F0E6FD0E2000F079FB012001F0E0FD072000F073FB01F020
:406A8000F9FD03461A46FB7B02FA03F3DAB2BB7B1343DBB2BB73642000F064FBFB7B0133FB73FB7B072BDED9BB7B18461037BD4680BD00BF80B485B000AF02460B46FA71BC
:406AC000BB71FA79BB795340FB710023FB7312E0FB7903F00103002B07D0FB795B08DBB283F07303DB43FB7102E0FB795B08FB71FB7B0133FB73FB7B072BE9D9FB79184684
:406B00001437BD465DF8047B704700BF80B400AFFEE700BF80B584B000AF7860104B1A687B6813441A460F4BD31AB3F5805F09DC0B4B1B68FB600A4B1A687B681A44084B7D
:406B40001A6007E002F07EFE03460C221A604FF0FF33FB60FB6818461037BD4680BD00BF4481FF1F408FFF1F80B586B000AF224B7B61224B3B61204B7B6135E03B691B68C3
:406B8000FB603B695B68BB603B699B683B6000237B600CE0FB681A68BB681A60BB680433BB60FB680433FB607B6804337B607A683B689A42EED13B69DB683B6000237B604B
:406BC00008E0BB6800221A60BB680433BB607B6804337B607A683B689A42F2D13B6910333B617B69013B7B617B69002BC6D102F02FFEFDF7FDFEFEE70100000068BF000020
:406C000080B582B000AF174B174A1A60174B174A126842F400721A6000237B600FE07B68032B04D8124B7A6853F8223000E0114B114A796842F821307B6801337B607B6814
:406C40002F2BECD90D4B1B78DAB20D4B1A700D4B094A1A6000F04EF90B4B00221A600837BD4680BD0CED00E00004FA0514ED00E0002200000D6B00000080FF1FBC76004068
:406C80000481FF1F08ED00E00081FF1F80B582B000AF78603960786800213A6802F007FE0837BD4680BD00BF80B584B000AFF860B9607A60F868B9687A6802F0EFFD103773
:406CC000BD4680BD80B483B000AF0346FB71FEE780B487B000AF7860396000233B6100237B6126E07B699B007A6813441B68BB60BB68FB73BB6823F0FF03BB6013E03B6984
:406D00005B003A6813441B781A46BB6813443A69520039680A4452781A703B6901333B61FB7B013BFB73FB7B002BE8D17B6901337B617B69292BD5D91C37BD465DF8047B68
:406D4000704700BF80B582B000AF414B81221A80404B18221A70404B81221A803F4B18221A703F4B4FF443721A803E4B18221A703D4B4FF443721A803C4B18221A703C4B04
:406D800040F217521A803B4B18221A703A4B4EF65F221A80394B18221A70394B02221A704FF0402308221A70364B03221A70364B364A1278D2B21A70354B14221A80354B07
:406DC00041F251221A800023FB7019237B6014E0FB785B00DAB2304B1B78DBB203F00103DBB21343DBB203F00303FB704FF4F07000F076F97B68013B7B607B68002B02D01E
:406E0000FB78032BE4D17B68002B02D10320FFF759FF224B4FF480721A80204B07221A701F4B00221A701F4B48221A701B4B00221A701D4B02221A701C4B1C4A1278D2B2D9
:406E400042F03F02D2B21A700837BD4680BD00BF80400040824000408440004086400040884000408A4000408C4000408E40004090400040924000409440004096400040CF
:406E80000043004000420040A14600400801004922420040204200402542004004400040064000400840004001400040A243004080B483B000AF0B4B1B78FB710A4BFA79FC
:406EC00002F00702D2B21A70084BFA791209D2B21A70074B44221A700C37BD465DF8047B704700BFCF0100496E5800406F5800407658004080B586B000AF72B6604B012284
:406F00001A70FFF71FFF5F4B5E4A1278D2B242F02402D2B21A700023FB7513E0FA7D13465B0013445B00584A13443B613B691A683B699B889BB210461946FFF7A7FEFB7DF3
:406F40000133FB75FB7D0B2BE8D90023FB751CE0FA7D13469B0013445B004C4A1344FB60FB681B68BB60FB685B687B60FB681A7A5B7A1B0213437B807B88B86879681A466A
:406F8000FFF792FEFB7D0133FB75FB7D042BDFD93F4B03F190431A463D4B03F19043A83310461946FFF794FE3A4B3A4A1278D2B242F00202D2B21A70374B374A1278D2B24C
:406FC00042F00202D2B21A70344B344A1278D2B242F04002D2B21A70314B314A1278D2B242F01002D2B21A70294A2E4B13442E4819460A22FFF758FE254A2C4B13442C4828
:4070000019460A22FFF750FE214A2A4B13442A4819460A22FFF748FE1D4A284B1344284819460A22FFF740FE194A264B1344264819460A22FFF738FE154B03F1904303F542
:407040009153224819460A22FFF72EFE104A204B1344204819460A22FFF726FE1E4B1E4A1278D2B242F00802D2B21A70FFF720FF1A480A490E22FFF717FE1837BD4680BD2F
:4070800000480040E84600405CBD0000A4BD0000400400000350014013500140A0430040C2430040E4110048C0510040F0110048F0510040FC1100481051004008120048CC
:4070C000205100401412004840510040505100402C1200486051004022430040B04300400230800800F0058000BF013800467FF4FCAF7047EFF3108072B6704780F31088D2
:40710000704700BFAFF3008080B483B000AF0346FB7101BE0C37BD465DF8047B704700BF80B582B000AF786008E00C4B1B681846FFF7D6FF7B68A3F500437B607B68B3F5A0
:40714000004FF2D8064B1B687A6802FB03F31846FFF7C6FF0837BD4680BD00BF5481FF1F4C81FF1F80B582B000AF0346FB80FB88044A127802FB03F31846FFF7B1FF0837AD
:40718000BD4680BD5081FF1F80B483B000AF02460B46FA71BB711D4B1C4A1278D2B222F00302D1B2FA7902F00302D2B20A43D2B21A70164B154A1278D2B262F07F02D2B276
:4071C0001A70124B114A1278D2B202F07F02D2B21A700E4BBA795201D2B202F06002D1B20A4A1278D2B222F06002D2B20A43D2B21A70064B054A1278D2B242F01002D2B259
:407200001A700C37BD465DF8047B70478343004080B400AF034B01221A70BD465DF8047B704700BF8443004080B584B000AF03463960FB710F4B1B68FB60FB791F2B02D984
