:400000000080002011000000F9870000F987000080B500AF024A034B1B68136008F01AFCBC760040FA46004010B5054C237833B9044B13B10448AFF300800123237010BDF9
:400040000082FF1F0000000078D40000084B10B51BB108480849AFF300800848036803B910BD074B002BFBD0BDE81040184700BF0000000078D400000482FF1F0881FF1FB7
:400080000000000090B583B000AF6A4B00221A8062B609F01FF909F01FFB08F055FF09F079FD09F0F3FE0AF0A7FB634B002283F85920614B002283F85A205F4B002283F85D
:4000C0005B205E4B002283F859205C4B002283F85A205A4B002283F85B200023FB7108E0FB79574A1344012283F83320FB790133FB71FB790F2BF3D9052008F055FE0D2349
:40010000FB710EE0FB79A3F10D04FB799BB218460AF008FC03461A464A4B1A55FB790133FB71FB790E2BEDD90F200AF0FBFB03461A46414B83F85C2010200AF0F3FB03464F
:400140001A463D4B83F8592011200AF0EBFB03461A46394B83F85A2012200AF0E3FB03461A46354B83F85B2013200AF0DBFB03461A46324B83F85C2014200AF0D3FB0346E2
:400180001A462E4B83F8592015200AF0CBFB03461A462A4B83F85A2016200AF0C3FB03461A46264B83F85B2017200AF0BBFB03461A46254B1A701E200AF0B4FB03461A4652
:4001C000224B5A701F200AF0ADFB03461A461F4B9A7020200AF0A6FB03461A461B4BDA701A200AF09FFB03461A46134B1A701C200AF098FB03461A46104B1A700E4B012264
:400200005A700E4B01225A70114B00221A700A4B032283F85C200D4B00229A700B4B0322DA700C4B00221A70052008F0BDFD0C37BD4690BD2883FF1F5886FF1F5882FF1FC2
:40024000DC86FF1F3C85FF1F3E85FF1FD882FF1F5686FF1F5585FF1F80B582B000AF03460A46FB711346BB80FB79012B13D1BB880120194608F0A4F8104B64221A70104B84
:4002800001221A700F4B01225A700F4809F07EFF0AF046F80FE0BB880220194608F090F80A4B64221A700A4B01221A7009480AF069F90AF019F90837BD4680BD5585FF1F7B
:4002C0002885FF1F5886FF1FE16000000384FF1FC082FF1F5561000080B582B000AF0023FB7180E10023FB71C24B1B78DBB2FF2B04D0C14B1B78DBB2FF2B58D100BF05F048
:40030000DFFF0346002BFAD000BFBA4B1B78DAB2B84B93F85C30DBB21046194607F006F80346002BF1D0322008F03EFD00BFB24B1B78DAB2B04B93F85C30DBB21046194684
:4003400006F0F4FF0346002BF1D0322008F02CFDA84B1B78DBB218461A210AF053FA0346002B04D101203C2108F02AF803E00120552108F025F8A04B1B78DBB218461C21E3
:400380000AF040FA0346002B04D102203C2108F017F803E00220552108F012F8974B00221A70974B00221A700223FB711BE1914B1B78DBB2184605F037FF0346BB71BB79E6
:4003C0000C2B7ED801A252F823F000BF01040000C3040000C3040000C3040000C3040000C304000009040000450400006F040000830400009F04000091040000AD04000090
:400400007C4BFF221A705CE07A4B1B78DBB2184606F064F8322008F0C7FC764B1B78DAB2744B93F85C30DBB21046194606F07EFF322008F0B9FC724B00221A70FB790133F1
:40044000FB713EE06B4B1B78DAB26A4B93F85C30DBB21046194606F069FF322008F0A4FC674B00221A70FB790133FB7129E0644B08221A70634B01221A70FB790133FB717A
:400480001FE05F4B0B221A70FB790133FB7118E05B4B0C221A70FB790133FB7111E0584B0C221A70FB790133FB710AE0544B0B221A700120082107F083FFFB790133FB71E7
:4004C00000BF4D4B1B78DBB2184605F0ADFE0346BB71BB790C2B00F2868001A252F823F015050000E7050000E7050000E7050000E7050000E70500001D0500005905000079
:40050000830500009F050000C3050000B5050000D1050000384BFF221A7064E0364B1B78DBB2184605F0DAFF322008F03DFC324B1B78DAB2304B93F85C30DBB21046194605
:4005400006F0F4FE322008F02FFC2C4B00221A70FB790133FB7146E0274B1B78DAB2264B93F85C30DBB21046194606F0DFFE322008F01AFC214B00221A70FB790133FB7107
:4005800031E01E4B08221A701E4B02221A700220082107F015FFFB790133FB7123E0174B0B221A700220082107F00AFFFB790133FB7118E0114B0C221A70FB790133FB71F1
:4005C00011E00E4B0C221A70FB790133FB710AE00A4B0B221A700220082107F0F1FEFB790133FB7100BFFB79012B7FF67BAE0837BD4680BD5886FF1F5882FF1F0384FF1F95
:400600005585FF1F4F86FF1F80B586B000AF08F0D1FE0346052B40F2798208F0CBFE03463B820A2008F0C0FB08F0C4FE0346FB813A8AFB899A4240F06982924B1B78DBB2E9
:40064000422B40F05B828F4B5B78DBB2422B40F055828C4B9B78DBB2422B40F04F828A4B00221A70874BDB78DBB2312B00F0DE81452B00F00482302B40F02C82814B002282
:40068000DA70804B5B79DBB24E2B0AD17D4B1B79DBB203F00F03DBB218461C21FFF7DCFD18E2784B9B7ADBB2462B7DD1774B9B7E5A1E774913469B0013440B4448339B7832
:4006C000DBB203F00F03DBB23B72704B9B7E5A1E6F4913469B0013440B4449339B78DBB203F00F03DBB27B72684B9B7E5A1E684913469B0013440B444A339B78DBB203F056
:400700000F03DBB2BB72614B9B7E5A1E604913469B0013440B444B339B78DBB203F00F03DBB2FB72594B9B7E5A1E594913469B0013440B444C339B78DBB203F00F03DBB22E
:400740003B73534B1B78DBB203F00F03D9B24F4B9B7E07F10802084611461A4606F0A8FC0346002B40F09A804A4B4D221A70494B55225A70474B58229A70464B4522DA70B0
:40078000444B30221A713F4B1B79DAB2414B5A71404B31229A713F4B2A22DA710823FB82394B01221A7095E1394B1B78DAB2384B93F85C30DBB21046194606F0B7FD364BC9
:4007C0001B78DBB2012B11D12E4B5B7ADBB23B732C4B1B7ADBB2FB722A4BDB79DBB2BB72284B9B79DBB27B7200233B722A4B1B78DBB2002B13D1234B9B7ADBB23B73214B1A
:400800005B7ADBB2FB721F4B1B7ADBB2BB721D4BDB79DBB27B721B4B9B79DBB23B721C4B1B78DBB203F00F03D9B2184B9B7E07F10802084611461A4606F03AFC0346002B0C
:400840002CD1144B4D221A70124B55225A70114B58229A700F4B4522DA700E4B30221A71084B1B79DAB20B4B5A710A4B31229A71084B2A22DA710823FB82034B01221A7090
:4008800028E100BF8488FF1F2A83FF1FDC86FF1F5886FF1F6084FF1F3E85FF1F9D4B5B7CDBB27B709B4B5B7CDBB22C2B06D0994B5B7CDBB203F00F03DBB27B70954B1B7C32
:4008C000DBB2BB70934B1B7CDBB22C2B06D0914B1B7CDBB203F00F03DBB2BB708D4BDB7BDBB2FB708B4BDB7BDBB22C2B06D0894BDB7BDBB203F00F03DBB2FB70854B9B7BAE
:40090000DBB23B71834B9B7BDBB22C2B06D0814B9B7BDBB203F00F03DBB23B717D4B5B7BDBB27B717B4B5B7BDBB22C2B06D0794B5B7BDBB203F00F03DBB27B71754B1B7BCB
:40094000DBB2BB71734B1B7BDBB22C2B06D0714B1B7BDBB203F00F03DBB2BB716D4BDB7ADBB2FB716B4BDB7ADBB22C2B06D0694BDB7ADBB203F00F03DBB2FB71654B9B7CED
:40098000DBB27B827B8A312B02D102237B8201E001237B82604B1B78DBB203F00F03D8B25E4B997E7B8ADBB23A4605F041FF0346012B1BD10A2008F0F7F9574B1B78DBB2BF
:4009C000DBB203F00F03DBB243F01003DBB2DBB2184608F0F9FB504B06225A70504B08221A700120082107F0EBFC73E04D4B4D221A704C4B55225A704A4B58229A70494BC1
:400A00004522DA70474B30221A71424B1B79DAB2444B5A71434B32229A71424B2A22DA710823FB82404B01221A7053E00120372107F0C6FC384B1B78DBB21A46364B1B7822
:400A4000DBB203F00F039A4206D1334B01225A70334B00221A7011E0344B1B78DBB21A462C4B1B79DBB203F00F039A4206D12F4B01225A702A4B00221A702BE02AE0254B4F
:400A80005B79DBB2313B032B23D801A252F823F0A10A0000B10A0000C10A0000D10A00001D4B01225A7001201C21FFF7D5FB10E0194B01225A7001200C21FFF7CDFB08E086
:400AC000154B01225A7001200C21FFF7C5FB00E000BF00BF144B1B78012B0FD10023BB8208E0BB8A0F4AD35C184608F0EBFCBB8A0133BB82BA8AFB8A9A42F2D308F0A4FC3F
:400B000008F024FB00233B820023FB811837BD4680BD00BF8488FF1F5886FF1FDC86FF1F5585FF1F6084FF1F2A83FF1F5882FF1F80B586B000AF08F03DFC0346052B40F278
:400B40007B8208F037FC03463B820A2008F02CF908F030FC0346FB813A8AFB899A4240F06B82924B1B78DBB2422B40F05D828F4B5B78DBB2422B40F057828C4B9B78DBB236
:400B8000422B40F051828A4B00221A70874BDB78DBB2312B00F0E081452B00F00682302B40F02E82814B0022DA70804B5B79DBB24E2B0AD17D4B1B79DBB203F00F03DBB28F
:400BC00018461C21FFF748FB1AE2784B9B7ADBB2462B7DD1774B9B7E5A1E774913469B0013440B4448339B78DBB203F00F03DBB23B72704B9B7E5A1E6F4913469B001344AB
:400C00000B4449339B78DBB203F00F03DBB27B72684B9B7E5A1E684913469B0013440B444A339B78DBB203F00F03DBB2BB72614B9B7E5A1E604913469B0013440B444B3361
:400C40009B78DBB203F00F03DBB2FB72594B9B7E5A1E594913469B0013440B444C339B78DBB203F00F03DBB23B73534B1B78DBB203F00F03D9B2514B9B7E07F108020846B2
:400C800011461A4606F014FA0346002B40F09C804B4B4D221A704A4B55225A70484B58229A70474B4522DA70454B30221A713F4B1B79DAB2424B5A71414B31229A71404B16
:400CC0002A22DA710823FB82394B01221A7097E1394B1B78DAB2384B93F85C30DBB21046194606F023FB374B1B78DBB2012B11D12E4B5B7ADBB23B732C4B1B7ADBB2FB723A
:400D00002A4BDB79DBB2BB72284B9B79DBB27B7200233B722B4B1B78DBB2002B13D1234B9B7ADBB23B73214B5B7ADBB2FB721F4B1B7ADBB2BB721D4BDB79DBB27B721B4B6C
:400D40009B79DBB23B721C4B1B78DBB203F00F03D9B21A4B9B7E07F10802084611461A4606F0A6F90346002B2ED1154B4D221A70134B55225A70124B58229A70104B4522E6
:400D8000DA700F4B30221A71084B1B79DAB20C4B5A710B4B31229A71094B2A22DA710823FB82034B01221A702AE100BF8488FF1F2A83FF1FDC86FF1F5882FF1F5885FF1FA9
:400DC0006084FF1F3E85FF1F9D4B5B7CDBB27B709B4B5B7CDBB22C2B06D0994B5B7CDBB203F00F03DBB27B70954B1B7CDBB2BB70934B1B7CDBB22C2B06D0914B1B7CDBB23F
:400E000003F00F03DBB2BB708D4BDB7BDBB2FB708B4BDB7BDBB22C2B06D0894BDB7BDBB203F00F03DBB2FB70854B9B7BDBB23B71834B9B7BDBB22C2B06D0814B9B7BDBB209
:400E400003F00F03DBB23B717D4B5B7BDBB27B717B4B5B7BDBB22C2B06D0794B5B7BDBB203F00F03DBB27B71754B1B7BDBB2BB71734B1B7BDBB22C2B06D0714B1B7BDBB226
:400E800003F00F03DBB2BB716D4BDB7ADBB2FB716B4BDB7ADBB22C2B06D0694BDB7ADBB203F00F03DBB2FB71654B9B7CDBB27B827B8A312B02D102237B8201E001237B826C
:400EC000604B1B78DBB203F00F03D8B25E4B997E7B8ADBB23A4605F0ABFC0346012B1BD10A2007F061FF574B1B78DBB2DBB203F00F03DBB243F01003DBB2DBB2184608F0B1
:400F000063F9504B06225A70504B08221A700120082107F055FA73E04D4B4D221A704C4B55225A704A4B58229A70494B4522DA70474B30221A71424B1B79DAB2444B5A7159
:400F4000434B32229A71424B2A22DA710823FB82404B01221A7053E00120372107F030FA3D4B1B78DBB21A463B4B1B78DBB203F00F039A4206D1384B01225A70334B00223D
:400F80001A7011E02F4B1B78DBB21A462C4B1B79DBB203F00F039A4206D12A4B01225A702A4B00221A702BE02AE0254B5B79DBB2313B032B23D801A252F823F0CD0F000092
:400FC000DD0F0000ED0F0000FD0F00001D4B01225A7001201C21FFF73FF910E0194B01225A7001200C21FFF737F908E0154B01225A7001200C21FFF72FF900E000BF00BF68
:40100000144B1B78012B0FD10023BB8208E0BB8A0F4AD35C184608F055FABB8A0133BB82BA8AFB8A9A42F2D308F00EFA08F08EF800233B820023FB811837BD4680BD00BF8D
:401040008488FF1F5882FF1F5885FF1F5585FF1F6084FF1F2A83FF1F5886FF1FB0B58EB002AFCD4B1B78DBB2662B05F22D8001A252F823F0111200006513000067140000BB
:4010800063190000351A0000011E0000A51F0000C96000008920000019230000C96000003F2C0000232F000095450000F95000001F5300005F5400004D550000F35500005C
:4010C000B35E0000CD1300002B120000C9600000C9600000C9600000C9600000C9600000C9600000C9600000C9600000C9600000C9600000C9600000C9600000C9600000AD
:40110000C9600000C9600000C9600000C9600000C9600000C9600000C9600000C9600000C9600000C9600000C9600000C9600000C9600000C9600000C9600000C96000001F
:40114000C9600000C9600000C9600000C9600000C9600000C9600000C9600000C9600000C9600000C9600000C9600000C9600000C9600000C9600000C9600000C9600000DF
:40118000C9600000C9600000C9600000C9600000C9600000C9600000C9600000C9600000C9600000C9600000C9600000C9600000C9600000C9600000C9600000C96000009F
:4011C000C9600000C9600000C9600000C9600000C9600000C9600000C9600000C9600000C9600000C9600000C9600000C9600000C9600000C9600000C9600000C96000005F
:40120000C9600000A9600000C9600000C9600000624808F0BBFF09F083F8614B00221A705D4B15221A7004F04FBF012007F078F90346012B70D10120332107F0D1F90346D9
:40124000002B69D0002387F82F301CE097F82F40012007F04BFA03461A46524B234483F8232097F82F3097F82F204E490A4492F823104D4A13440A4683F8232097F82F30EF
:40128000013387F82F3097F82F30072BDED9474B00221A70002387F82F3014E0434B197897F82F303F4A134493F823300846194607F076FA03461A463C4B1A7097F82F308B
:4012C000013387F82F3097F82F30062BE6D9354B93F82A20354B1B789A421DD10120132107F06EF84FF4FA7007F05EFD304B00221A70304B0A221A702F4B02221A802F4B11
:4013000003221A802E4B01221A80234B14221A7001202E2107F054F808F0ACFC0346082B1ED1284B1B78DBB2AA2B12D1254B9B79DBB2C32B0DD1234BDB79DBB23C2B08D115
:40134000204BDB78DBB23B2B03D1134B00221A7000BF642007F028FD08F0D4FC04F0B4BE04F0B2BE08F086FC0346082B11D108F01FFF08F0E5FF01202E2107F021F8064B52
:4013800014221A7008F0BEFC0F4B00221A7004F09BBE04F099BE00BF5585FF1FE16000002885FF1FDC86FF1F5885FF1F2583FF1F3F85FF1F0884FF1FB686FF1FDC82FF1FB7
:4013C0000084FF1F788EFF1F4F86FF1F08F052FC0346082B45D1BC4B1B78DBB2AA2B39D1B94B9B79DBB2C32B34D1B74BDB79DBB23C2B2FD1B44BDB78DBB2572B11D0942B73
:401400001DD0562B26D10120242106F0D9FFAF4B01221A70AE4B0C221A70AE4B08221A7018E00120242106F0CBFFA84B02221A70A74B0C221A70A74B08221A700AE00120F4
:40144000722106F0BDFFA14B01221A70A04B0F221A7000BF642007F0A7FC08F053FC04F033BE04F031BE08F005FC0346082B40F07682954B1B78DBB2AA2B40F06982924B92
:401480009B79DBB2C32B40F063828F4BDB79DBB23C2B40F05D828C4BDB78DBB2592B1AD0592B02DC452B0ED052E25C2B03D07E2B00F046824CE20120492106F081FF844B95
:4014C00003221A7044E20120722106F079FF804B0F221A703CE20120392106F071FF7E4B4D221A707C4B55225A707B4B58229A70794B3222DA70754B1B78DBB2012B40F0BE
:401500001181764B1B78DAB2744B93F85C30DBB21046194605F00AFF322007F045FC042387F82D30002387F82F3018E097F82D3097F82F2069490A449278D2B202F00F0242
:40154000D2B23032D1B2644AD15497F82D30013387F82D3097F82F30013387F82F3097F82F300B2BE2D90C2387F82F3018E097F82D3097F82F2059490A449278D2B202F015
:401580000F02D2B23032D1B2534AD15497F82D30013387F82D3097F82F30013387F82F3097F82F30172BE2D9002387F82F3018E097F82D3097F82F2048490A44927ED2B2D2
:4015C00002F00F02D2B23032D1B2434AD15497F82D30013387F82D3097F82F30013387F82F3097F82F300B2BE2D90C2387F82F3018E097F82D3097F82F2038490A44927E44
:40160000D2B202F00F02D2B23032D1B2324AD15497F82D30013387F82D3097F82F30013387F82F3097F82F30172BE2D9002387F82F3019E097F82D3097F82F2027490A44B0
:4016400092F83220D2B202F00F02D2B23032D1B2214AD15497F82D30013387F82D3097F82F30013387F82F3097F82F300B2BE1D90C2387F82F3019E097F82D3097F82F2064
:4016800016490A4492F83220D2B202F00F02D2B23032D1B2104AD15497F82D30013387F82D3097F82F30013387F82F3097F82F30172BE1D9084B2A2283F84B2007F0C4FE0E
:4016C000002387F82F3017E0788EFF1F4F86FF1F5585FF1FD782FF1F6084FF1F5886FF1F97F82F30CB4AD35C184607F0EBFE97F82F30013387F82F3097F82F304B2BEFD9D2
:40170000FA2007F051FB07F055FE0346012B09D901204A2106F054FEBF4B00221A70BF4B01225A70BE4B1B78DBB2022B40F00581BC4B1B78DAB2BB4B93F85C30DBB21046F8
:40174000194605F0F3FD322007F02EFB042387F82D30002387F82F3018E097F82D3097F82F20B0490A449278D2B202F00F02D2B23032D1B2A74AD15497F82D30013387F8F7
:401780002D3097F82F30013387F82F3097F82F300B2BE2D90C2387F82F3018E097F82D3097F82F209F490A449278D2B202F00F02D2B23032D1B2974AD15497F82D300133C8
:4017C00087F82D3097F82F30013387F82F3097F82F30172BE2D9002387F82F3018E097F82D3097F82F208F490A44927ED2B202F00F02D2B23032D1B2864AD15497F82D3058
:40180000013387F82D3097F82F30013387F82F3097F82F300B2BE2D90C2387F82F3018E097F82D3097F82F207E490A44927ED2B202F00F02D2B23032D1B2764AD15497F861
:401840002D30013387F82D3097F82F30013387F82F3097F82F30172BE2D9002387F82F3019E097F82D3097F82F206E490A4492F83220D2B202F00F02D2B23032D1B2654ACC
:40188000D15497F82D30013387F82D3097F82F30013387F82F3097F82F300B2BE1D90C2387F82F3019E097F82D3097F82F205D490A4492F83220D2B202F00F02D2B230321C
:4018C000D1B2544AD15497F82D30013387F82D3097F82F30013387F82F3097F82F30172BE1D94C4B2A2283F84B2007F0ADFD002387F82F300BE097F82F30464AD35C18465B
:4019000007F0E0FD97F82F30013387F82F3097F82F304B2BEFD9FA2007F046FA07F04AFD0346012B09D901204A2106F049FD3A4B00221A703B4B01225A7007F085FD07E0F5
:4019400001204A2106F03CFD334B00221A7000BF642007F029FA08F0D5F904F0B5BB04F0B3BB08F087F90346082B50D12E4B1B78DBB2AA2B44D12C4B9B79DBB2C32B3FD1EB
:40198000294BDB79DBB23C2B3AD1274BDB78DBB25F2B09D05F2B02DC5E2B13D030E07E2B1ED0942B24D02BE00120122106F008FD1E4B00221A701E4B08221A70164B0B2263
:4019C0001A701DE00120122106F0FAFC174B01221A70114B0B221A70154B00221A700FE001204A2106F0ECFC0B4B00221A7007E00120632106F0E4FC074B01221A7000BF77
:401A0000642007F0D1F908F07DF904F05DBB04F05BBB00BF6084FF1F5585FF1F5886FF1F4F86FF1F5882FF1F788EFF1F0284FF1FD782FF1F08F01EF90346082B40F0DE81E4
:401A4000BD4B1B78DBB2AA2B40F0D181BA4B9B79DBB2C32B40F0CB81B74BDB79DBB23C2B40F0C581B44BDB78DBB23B2B00F0B3813B2B05DC0F2B0AD0102B00F09280B6E17F
:401A8000432B00F018817E2B00F0A981AFE1AB4B1B78DBB2012B3ED1002387F82F300AE097F82F30A64A13440022DA7697F82F30013387F82F3097F82F30072BF0D9A14B24
:401AC00000221A70A04B01221A70A04B2C221A709F4B5B78DAB29F4B1A70994B0122DA769D4B00221A700120062106F069FC9B4B04221A809A4B03221A809A4B01221A80A8
:401B000001230093012024210322042306F0A4FC954B0C221A70894B1B78DBB2022B3FD1002387F82F300AE097F82F308F4A13440022DA7697F82F30013387F82F3097F8D3
:401B40002F30072BF0D97F4B00221A707E4B01221A707E4B2C221A707D4B5B78DAB27D4B1A70824B0122DA767B4B00221A700120062106F025FC794B04221A80784B032288
:401B80001A80784B01221A8001230093012024210322042306F060FC734B0C221A7026E125E1664B1B78DBB2012B3ED1002387F82F300AE097F82F30614A13440022DA7674
:401BC00097F82F30013387F82F3097F82F30072BF0D95C4B00221A705B4B01221A705B4B2C221A705A4B5B78DAB25A4B1A70544B0222DA76584B00221A7001200D2106F0FE
:401C0000DFFB564B04221A80554B03221A80554B01221A800123009301204C210322042306F01AFC504B0C221A70444B1B78DBB2022B3FD1002387F82F300AE097F82F30F8
:401C40003F4A13440022DA7697F82F30013387F82F3097F82F30072BF0D93A4B00221A70394B01221A70394B2C221A70384B5B78DAB2384B1A703D4B0222DA76364B0022DD
:401C80001A7001200D2106F09BFB344B04221A80334B03221A80334B01221A800123009301204C210322042306F0D6FB2E4B0C221A709CE09BE0214B1B78DBB2012B32D1CD
:401CC000002387F82F300AE097F82F301C4A13440022DA7697F82F30013387F82F3097F82F30072BF0D9164B0322DA76052387F82F300AE097F82F30114A13440922DA7612
:401D000097F82F30013387F82F3097F82F30072BF0D90120072106F053FB154B02225A70114B06221A70054B1B78DBB2022B51D1002387F82F3028E0788EFF1F4F86FF1FF2
:401D4000DC86FF1F3F85FF1FD782FF1FB582FF1FD882FF1F0884FF1F5682FF1FB686FF1FDC82FF1F0084FF1F5585FF1F5885FF1F5886FF1F97F82F30BB4A13440022DA76FA
:401D800097F82F30013387F82F3097F82F30072BF0D9B64B0322DA76052387F82F300AE097F82F30B04A13440922DA7697F82F30013387F82F3097F82F30072BF0D9012010
:401DC000072106F0FDFAAA4B02225A70A94B06221A700CE00BE0A74B00221A7007E001204A2106F0EDFAA34B00221A7000BF642006F0DAFF07F086FF04F066B904F064B934
:401E00009D4B1B78DBB2012B61D1322006F0CCFF07F030FF0346082B1AD1984B1B78DBB2AA2B11D1954B9B79DBB2C32B0CD1934BDB79DBB23C2B07D1904BDB78DBB27E2B34
:401E400002D18C4B00221A7007F05CFF04F03CB98B4B1B78DBB2184604F0E6F9034687F82F3097F82F30072B06D1824B06221A70322006F099FF2AE097F82F30002B0ED12B
:401E8000322006F091FF7E4B1B78DAB207F11403104601211A46022304F0CAFC17E097F82F300C2B04D101205521FEF7D5F90EE097F82F300B2B03D16E4B0D221A7006E013
:401EC00097F82F300A2B02D16A4B0D221A706A4B1B78DBB2022B63D1322006F065FF07F0C9FE0346082B1AD1644B1B78DBB2AA2B11D1624B9B79DBB2C32B0CD15F4BDB79DA
:401F0000DBB23C2B07D15D4BDB78DBB27E2B02D1584B00221A7007F0F5FE04F0D5B8544B1B78DBB2184604F07FF9034687F82F3097F82F30072B06D14E4B06221A703220D3
:401F400006F032FF2CE097F82F30002B0ED1322006F02AFF464B1B78DAB207F11403104601211A46022304F063FC19E097F82F300C2B04D101205521FEF76EF910E097F851
:401F80002F300B2B03D13B4B0D221A7008E097F82F300A2B04D1374B0D221A7004F094B804F092B8344B1B78DBB2012B29D10A2006F0FAFE324B1B78DBB2184604F0D0F94B
:401FC00003461A46294B9A76284B9B7E002B18D0142006F0E9FE2A4B1B78DBB2184604F023F90346072B0CD1264B00221A80244B04225A700120392106F0E2F91D4B09223E
:402000001A701D4B1B78DBB2022B2BD10A2006F0CBFE174B1B78DBB2184604F0A1F903461A46114B9A76104B9B7E002B1AD0142006F0BAFE0E4B1B78DBB2184604F0F4F8D7
:402040000346072B0ED10F4B00221A80084B04225A700120392106F0B3F9064B09221A7004F032B804F030B85885FF1FDC86FF1F5882FF1F5585FF1F4F86FF1F788EFF1F4E
:402080005886FF1F2883FF1F322006F08DFEAF4B1B78DBB2012B40F09B80AD4B1B78DBB2184604F0C1F803460A2B32D00B2B02D0062B59D08CE0642006F076FE002387F8F6
:4020C0002F3010E097F82F30A24A13440022DA7197F82F309F4A134400221A7497F82F30013387F82F3097F82F30082BEAD9984B1B78DBB2184604F0F1F90346012B07D1A5
:40210000954B0D221A700120392106F059F95FE05EE0002387F82F3010E097F82F308D4A13440022DA7197F82F308A4A134400221A7497F82F30013387F82F3097F82F3095
:40214000082BEAD9824B1B78DBB2184604F0C6F90346012B07D1804B0D221A700120392106F02EF934E033E0002387F82F3010E097F82F30774A13440022DA7197F82F3089
:40218000744A134400221A7497F82F30013387F82F3097F82F30082BEAD9002387F82F300AE097F82F306B4A134400229A7097F82F30013387F82F3097F82F30042BF0D97F
:4021C000654B0D221A700120392106F0F9F800BF5E4B1B78DBB2022B40F09C805F4B1B78DBB2184604F020F803460A2B33D00B2B03D0062B5AD003F067BF642006F0D4FD96
:40220000002387F82F3010E097F82F30544A13440022DA7197F82F30514A134400221A7497F82F30013387F82F3097F82F30082BEAD94A4B1B78DBB2184604F04FF9034651
:40224000012B07D1444B0D221A700120392106F0B7F85FE05EE0002387F82F3010E097F82F303F4A13440022DA7197F82F303C4A134400221A7497F82F30013387F82F30CE
:4022800097F82F30082BEAD9344B1B78DBB2184604F024F90346012B07D12F4B0D221A700120392106F08CF834E033E0002387F82F3010E097F82F30294A13440022DA717A
:4022C00097F82F30264A134400221A7497F82F30013387F82F3097F82F30082BEAD9002387F82F300AE097F82F301D4A134400229A7097F82F30013387F82F3097F82F30E4
:40230000042BF0D9144B0D221A700120392106F057F800BF03F0D8BE124B4D221A70114B55225A700F4B58229A700E4B3022DA70064B1B78DBB2012B40F031820A4B1B7857
:40234000012B52D1002387F82F304AE04F86FF1F5886FF1FDC86FF1F5585FF1F5882FF1F5885FF1F6084FF1F0284FF1F97F82F305B08DBB21A46214B134493F823301B09E0
:4023800087F82E3097F82F3003F00103DBB2002B0CD197F82F305B08DBB21A46174B134493F8233003F00F0387F82E3097F82F30043397F82E203032D1B2114AD15497F819
:4023C0002E30092B08D997F82F30043397F82E203732D1B20A4AD15497F82F30013387F82F3097F82F300F2BC0D9064B1B78002B49D1002387F82F3041E000BFDC86FF1FB8
:402400006084FF1F0284FF1F97F82F305B08DBB21A46B54B134493F823301B0987F82E3097F82F3003F00103DBB2002B0CD197F82F305B08DBB21A46AB4B134493F823309F
:4024400003F00F0387F82E3097F82F30043397F82E203032D1B2A54AD15497F82E30092B08D997F82F30043397F82E203732D1B29E4AD15497F82F30013387F82F3097F8F3
:402480002F300F2BC0D9984B9B7E013B984A134493F85930DBB23033DAB2944B1A75954B1B78002B13D1944B1B79DAB28F4B5A75914BDB78DAB28D4B9A758F4B9B78DAB236
:4024C0008A4BDA758C4B5B78DAB2884B1A76894B1B78012B0BD1854B30225A75834B30229A75824B3022DA75804B30221A76834B1B78DBB2002B59D17B4B9B7E5A1E7C4916
:4025000013469B0013440B444C339B78DBB203F00F03DBB23033DAB2744B5A76724B9B7E5A1E734913469B0013440B444B339B78DBB203F00F03DBB23033DAB26B4B9A76C9
:40254000694B9B7E5A1E6A4913469B0013440B444A339B78DBB203F00F03DBB23033DAB2624BDA76604B9B7E5A1E614913469B0013440B4449339B78DBB203F00F03DBB200
:402580003033DAB2594B1A77574B9B7E5A1E584913469B0013440B4448339B78DBB203F00F03DBB23033DAB2504B5A77534B1B78DBB2012B4AD14C4B9B7E5A1E4C49134666
:4025C0009B0013440B444B339B78DBB203F00F03DBB23033DAB2454B5A76434B9B7E5A1E434913469B0013440B444A339B78DBB203F00F03DBB23033DAB23C4B9A763A4B9C
:402600009B7E5A1E3A4913469B0013440B4449339B78DBB203F00F03DBB23033DAB2334BDA76314B9B7E5A1E314913469B0013440B4448339B78DBB203F00F03DBB2303350
:40264000DAB22A4B1A77294B30225A77264BDB7E3033DAB2254B9A77234B93F82220234BDA77214B93F82230092B06D81E4B93F822303033DAB21D4BDA771B4B93F8212082
:402680001A4B83F82020184B93F82130092B07D8154B93F821303033DAB2144B83F82020114B93F82020114B83F821200E4B93F82030092B07D80C4B93F820303033DAB2BC
:4026C0000A4B83F82120084BDA7F084B83F82220054BDB7F092B13D8034BDB7F3033DAB2024B83F822200BE0DC86FF1F6084FF1F5886FF1F0284FF1F2C85FF1F3E85FF1FE6
:40270000514B9A7F514B83F823204F4B9B7F092B06D84D4B9B7F3033DAB24C4B83F82320494B5A7F494B83F82420474B5B7F092B06D8454B5B7F3033DAB2444B83F82420E9
:40274000414B1A7F414B83F825203F4B1B7F092B06D83D4B1B7F3033DAB23C4B83F82520002387F82F3012E097F82F30263397F82F20013234490A4492F843203032D1B272
:40278000324AD15497F82F30013387F82F3097F82F30062BE8D92D4B312283F82D202C4B1B78DBB2022B40F028822A4B1B78012B42D1002387F82F303AE097F82F305B08B4
:4027C000DBB21A46244B134493F823301B0987F82E3097F82F3003F00103DBB2002B0CD197F82F305B08DBB21A461B4B134493F8233003F00F0387F82E3097F82F300433ED
:4028000097F82E203032D1B2104AD15497F82E30092B08D997F82F30043397F82E203732D1B20A4AD15497F82F30013387F82F3097F82F300F2BC0D9064B1B78002B4CD101
:40284000002387F82F3044E0DC86FF1F6084FF1F4F86FF1F0284FF1F5885FF1F97F82F305B08DBB21A46B54B134493F823301B0987F82E3097F82F3003F00103DBB2002B0E
:402880000CD197F82F305B08DBB21A46AB4B134493F8233003F00F0387F82E3097F82F30043397F82E203032D1B2A54AD15497F82E30092B08D997F82F30043397F82E20F1
:4028C0003732D1B29E4AD15497F82F30013387F82F3097F82F300F2BC0D9984B9B7E013B984A134493F85930DBB23033DAB2944B1A75954B1B78002B13D1944B1B79DAB22E
:402900008F4B5A75914BDB78DAB28D4B9A758F4B9B78DAB28A4BDA758C4B5B78DAB2884B1A76894B1B78012B0BD1854B30225A75834B30229A75824B3022DA75804B3022FC
:402940001A76834B1B78DBB2002B59D17B4B9B7E5A1E7C4913469B0013440B444C339B78DBB203F00F03DBB23033DAB2744B5A76724B9B7E5A1E734913469B0013440B44FB
:402980004B339B78DBB203F00F03DBB23033DAB26B4B9A76694B9B7E5A1E6A4913469B0013440B444A339B78DBB203F00F03DBB23033DAB2624BDA76604B9B7E5A1E61499F
:4029C00013469B0013440B4449339B78DBB203F00F03DBB23033DAB2594B1A77574B9B7E5A1E584913469B0013440B4448339B78DBB203F00F03DBB23033DAB2504B5A77F5
:402A0000534B1B78DBB2012B4AD14C4B9B7E5A1E504913469B0013440B444B339B78DBB203F00F03DBB23033DAB2454B5A76434B9B7E5A1E474913469B0013440B444A3371
:402A40009B78DBB203F00F03DBB23033DAB23C4B9A763A4B9B7E5A1E3E4913469B0013440B4449339B78DBB203F00F03DBB23033DAB2334BDA76314B9B7E5A1E3549134618
:402A80009B0013440B4448339B78DBB203F00F03DBB23033DAB22A4B1A77294B30225A77264BDB7E3033DAB2254B9A77234B93F82220234BDA77284B93F82230092B06D806
:402AC0001E4B93F822303033DAB21D4BDA771B4B93F821201A4B83F820201F4B93F82130092B07D8154B93F821303033DAB2144B83F82020114B93F82020114B83F82120B9
:402B00000E4B93F82030092B07D80C4B93F820303033DAB20A4B83F82120084BDA7F084B83F82220054BDB7F092B17D8034BDB7F3033DAB2024B83F822200FE05885FF1F08
:402B40006084FF1F5882FF1F0284FF1F2C85FF1F3E85FF1F5886FF1FDC86FF1F9F4B9A7F9F4B83F823209D4B9B7F092B06D89B4B9B7F3033DAB29A4B83F82320974B5A7F7F
:402B8000974B83F82420954B5B7F092B06D8934B5B7F3033DAB2924B83F824208F4B1A7F8F4B83F825208D4B1B7F092B06D88B4B1B7F3033DAB28A4B83F82520002387F83E
:402BC0002F3012E097F82F30263397F82F20013282490A4492F843203032D1B2804AD15497F82F30013387F82F3097F82F30062BE8D97B4B322283F82D20794B2A2283F805
:402C00002E2006F021FC002387F82F300BE097F82F30734AD35C184606F054FC97F82F30013387F82F3097F82F302E2BEFD94FF4AF7006F0B9F806F05FFC03F045BA694BBA
:402C40001B78DBB2012B40F09480012005F068FC0346012B40F08D800120332105F0C0FC0346002B00F08580002387F82F300FE097F82F40012005F039FD03461A465A4B81
:402C8000234483F8232097F82F30013387F82F3097F82F30072BEBD9544B00221A70002387F82F3014E0514B197897F82F304E4A134493F823300846194605F071FD03468A
:402CC0001A464A4B1A7097F82F30013387F82F3097F82F30062BE6D9434B93F82A20434B1B789A4245D10120132105F069FB4FF4FA7006F059F83E4B00221A703D4B0A2276
:402D00001A703D4B02221A803C4B03221A803C4B01221A803B4B00221A703B4B1B78DBB20A2B06D10120132105F04AFB374B13221A70354B1B78DBB2082B06D10120242175
:402D400005F03EFB314B0C221A702F4B1B78DBB2082B0ED02C4B1B78DBB20A2B09D02A4B02221A7001200E2105F02AFB274B0C221A701C4B1B78DBB2022B40F0AC800120B9
:402D800005F0CEFB0346012B40F0A5800120332105F026FC0346002B00F09D80002387F82F300FE097F82F40012005F09FFC03461A460A4B234483F8232097F82F3001339A
:402DC00087F82F3097F82F30072BEBD9074B00221A70002387F82F302FE000BF5885FF1F6084FF1F4F86FF1FDC86FF1F2583FF1F3F85FF1F0884FF1FB686FF1FDC82FF1FAC
:402E00000084FF1F2885FF1FD782FF1F5585FF1F7F4B197897F82F307E4A134493F823300846194605F0BCFC03461A46784B1A7097F82F30013387F82F3097F82F30062B01
:402E4000E6D9744B93F82A20714B1B789A4242D10120132105F0B4FA4FF4FA7005F0A4FF6D4B00221A706D4B0A221A706C4B02221A806C4B03221A806B4B01221A806B4B9E
:402E80001B78DBB20A2B06D10120132105F098FA674B13221A70654B1B78DBB2082B06D10120242105F08CFA614B0C221A705F4B1B78DBB2082B0ED05C4B1B78DBB20A2BA3
:402EC00009D05A4B02221A7001200E2105F078FA574B0C221A7006F0CDFE0346082B1ED1544B1B78DBB2AA2B12D1524B9B79DBB2C32B0DD14F4BDB79DBB23C2B08D14D4B95
:402F0000DB78DBB23B2B03D1494B00221A7000BF642005F049FF06F0F5FE03F0D5B803F0D3B8454B1B78DBB2012B40F0938506F0A1FE0346082B40F08D853E4B1B78DBB2B0
:402F4000AA2B40F085853B4B9B79DBB2C32B40F07F85384BDB79DBB23C2B40F07985374B00221A702C4B1B78DAB22C4B1B78DBB29A4280F0D7802F4BDB78DBB2092B32D86A
:402F8000254B1B78DBB20133DAB2234B1A70224B1B78DBB21A46274BDB78D9B2284B9954244BDB78DBB23033D9B21E4B1B889DB2194B1B78DBB29BB21B4A128892B201324D
:402FC00092B202FB03F39AB2154B1B889BB213449CB2154B1B889BB2DBB2009301202A46234605F039FA134BDB78DBB20A2B56D10E4B1B78DBB2012B24D1074B1B78DBB221
:40300000012B1FD10E4B5B78DBB2002B1AD146E02583FF1F5885FF1F3F85FF1F0884FF1FB686FF1FDC82FF1F0084FF1FD782FF1F5585FF1F788EFF1F4F86FF1F2885FF1F69
:403040003086FF1FAF4B1B78DBB20133DAB2AD4B1A70AC4B1B78DBB21A46AB4B00219954AA4B1B889DB2A74B1B78DBB29BB2A84A128892B2013292B202FB03F39AB2A54BE9
:403080001B889BB213449CB2A14B1B889BB2DBB20093012030212A46234605F0DDF99E4BDB78DBB2512B3DD1964B1B78DBB2002B38D09A4B1B78DBB2002B33D1914B1B783F
:4030C000DBB20133DAB28F4B1A708E4B1B78DBB21A46934B1B78D9B28B4B9954904B1B78D9B28A4B1B889DB2864B1B78DBB29BB2874A128892B2013292B202FB03F39AB2A4
:40310000844B1B889BB213449CB2814B1B889BB2DBB2009301202A46234605F09DF97F4B01221A707C4BDB78DBB20B2B40F0A080744B1B78DBB2002B5ED17A4B1B78DBB208
:40314000013B072B00F2948001A252F823F000BF7131000081310000893100009F310000B5310000CB31000071320000E13100000120052105F024F96B4B04221A703AE0CE
:40318000694B00221A7036E00120002105F018F9654B00221A70654B01225A702BE00120002105F00DF9604B00221A705F4B01225A7020E00120002105F002F95A4B002229
:4031C0001A705A4B01225A7015E00120002105F0F7F8554B00221A70544B01225A700AE00120002105F0ECF84F4B00221A704F4B01225A7000BF3BE0444B1B889DB2414B07
:403200001B78DBB29BB2424A128892B2013292B202FB03F39AB23F4B1B889BB213449CB23B4B1B889BB2DBB20093012020212A46234605F011F9334B1B78DBB21A46324B97
:403240009B5CDAB2364B1B78DBB29A4202D1334B00221A702B4B1B78DBB21A462A4B00219954284B1B78DBB2013BDAB2254B1A70294BDB78DBB20C2B40F0EA83294B1B7854
:40328000DBB2013B072B00F2E38301A252F823F0B1320000453400002135000099350000F3350000E136000013370000BB380000002387F82F300CE097F82F3007F13002BA
:4032C0001344002203F82C2C97F82F30013387F82F3097F82F30072BEED90A4B1B78DBB2002B00F0AE80074B1B78DBB21A46064B9B5CDBB22C2B00F0A480012387F82F3049
:403300003FE000BF3F85FF1F3086FF1FDC82FF1F0084FF1FB686FF1F788EFF1F5682FF1FB582FF1FD782FF1F5585FF1F5886FF1F97F82F30B14AD35CDBB22C2B0FD097F83D
:403340002F30013B97F82F20AC498A5CD2B23032D2B207F130010B4403F82C2C0CE097F82F30013B97F82F20A4498A5CD2B207F130010B4403F82C2C97F82F30013387F80D
:403380002F309F4B1B78DBB297F82F209A42CFD93B1D184607F018FEC7E90801994BDB7E012B09D1D7E908014FF00002964B07F0F7FD0346002B1AD1924BDB7E022B40D1DA
:4033C000D7E908014FF000028F4B07F0DFFD0346002B00D13CE3D7E908014FF000024FF0000307F0E7FD0346002B00D130E3844B1B7887F82F3015E097F82F30804A1278BC
:40340000D2B2114697F82F208A1A01327B498A5CD1B27C4A13440A46DA7697F82F30013B87F82F3097F82F30002BE5D1774B05221A70774B02225A700120072104F0C0FF1C
:4034400006E305E3002387F82F300BE097F82F306C4A1344002283F8432097F82F30013387F82F3097F82F300A2BEFD9644B1B7887F82F3016E097F82F30614A1278D2B2EC
:40348000114697F82F208A1A01325C498A5CD1B25C4A13440A4683F8432097F82F30013B87F82F3097F82F30002BE4D1594B1B78DBB2012B33D1002387F82F300AE097F883
:4034C0002F30504A13440022DA7697F82F30013387F82F3097F82F30072BF0D9494B0322DA76052387F82F300AE097F82F30454A13440922DA7697F82F30013387F82F30D9
:4035000097F82F30072BF0D90120072104F058FF3F4B02225A703D4B06221A7098E297E2374B1B7887F82F3018E097F82F30344A1278D2B2114697F82F208A1A01322F4980
:403540008A5CD2B23032D1B22E4A13440A4683F8592097F82F30013B87F82F3097F82F30002BE2D1294B02221A700120052104F027FF234B00221A70274B04221A70274BE4
:403580000A221A70264B02221A80264B03221A80254B01221A805BE2194B1B7887F82F3018E097F82F30164A1278D2B2114697F82F208A1A013211498A5CD2B23032D1B2AE
:4035C000104A13440A4683F8642097F82F30013B87F82F3097F82F30002BE2D10B4B66221A700120392104F0EBFE094B10225A702EE2034B1B7887F82F3030E03086FF1F34
:403600003F85FF1FDC86FF1F000014405585FF1F5886FF1F4F86FF1FD782FF1F0884FF1FB686FF1FDC82FF1F0084FF1F97F82F30AF4A1278D2B2114697F82F208A1A013253
:40364000AC498A5CD2B23032D1B2AB4A13440A4683F8712097F82F30013B87F82F3097F82F30002BE2D1A54B1A78A34B93F875309A4223D1A14B5A789F4B93F874309A4267
:403680001CD19E4B9A789C4B93F873309A4215D19A4BDA78984B93F872309A420ED10120262104F08DFEC82005F07EFB0120462104F086FE924B10221A70C9E1904B0022CC
:4036C0001A700120272104F07BFE8E4B01225A70C82005F069FB0120002104F071FEB7E1834B1B78DBB21A46824B9B5CDBB218461E2107F087F8824B00221A7001203C217D
:4037000004F05EFEC82005F04FFB7E4B01225A709EE17B4B12221A700120582104F050FE794B1B78013B032B00F2988001A252F823F000BF453700008B370000D1370000AD
:40374000173800006B4B5B78DBB23033DAB26F4B1A706E4B1B78322B08D0332B0BD0312B0ED1684B012283F859200DE0654B012283F85A2008E0634B012283F85B2003E0AB
:40378000634B00221A7000BF68E05A4B5B78DBB23033DAB25D4B5A705C4B5B78322B08D0332B0BD0312B0ED1564B022283F859200DE0544B022283F85A2008E0514B022219
:4037C00083F85B2003E0534B00221A7000BF45E0484B5B78DBB23033DAB24C4B9A704B4B9B78322B08D0332B0BD0312B0ED1454B032283F859200DE0424B032283F85A20B0
:4038000008E0404B032283F85B2003E0424B00221A7000BF22E0374B5B78DBB23033DAB23A4BDA70394BDB78322B08D0332B0BD0312B0ED1334B042283F859200DE0314BFC
:40384000042283F85A2008E02E4B042283F85B2003E0324B00221A7000BF00BF2B4B1A78012300930120114607222C2304F0F4FD264B5A7801230093012011460E222C23A1
:4038800004F0EAFD214B9A78012300930120114613222C2304F0E0FD1C4BDA78012300930120114619222C2304F0D6FD154B01225A70C82005F078FACAE0012387F82F30AA
:4038C00009E097F82F30164A0021D15497F82F30013387F82F3097F82F30042BF1D9104B04221A70024B1B7887F82F3030E000BF3F85FF1F3086FF1FDC86FF1F4481FF1FB3
:403900005585FF1F5886FF1F8187FF1FBC82FF1F4881FF1F4981FF1F4A81FF1F4B81FF1F2C85FF1F97F82F30864A1278D2B2114697F82F208A1A013283498A5CD2B2303230
:40394000D1B2824AD15497F82F30013B87F82F3097F82F30002BE5D17C4B5B78DBB22F2B17D97A4B9B78DBB22F2B12D8774BDB78DBB22F2B0DD8754B1B79DBB22F2B08D8E6
:40398000724B30229A70714B3022DA706F4B30221A716E4B5B78DBB22F2B14D96B4B9B78DBB22F2B0FD9694BDB78DBB22F2B0AD8664B1B79DBB22F2B05D8644B3022DA70E3
:4039C000624B30221A71614B5B78DBB22F2B11D95E4B9B78DBB22F2B0CD95C4BDB78DBB22F2B07D9594B1B79DBB22F2B02D8574B30221A71082387F82F3011E097F82F3044
:403A0000083B524AD35CDAB297F82F309BB21046194606F0F7FE97F82F30013387F82F3097F82F300C2BE9D9494B0C221A70494B02221A7001200E2104F0C2FCC82005F0BD
:403A4000B3F9404B00221A70434B01225A7000BF06F058F9414B1B78DBB2022B40F0988506F008F90346082B40F092853C4B1B78DBB2AA2B40F08885394B9B79DBB2C32B36
:403A800040F08285364BDB79DBB23C2B40F07C85344B00221A702B4B1B78DAB2324B1B78DBB29A4280F0D8802D4BDB78DBB2092B32D8244B1B78DBB20133DAB2214B1A70F9
:403AC000204B1B78DBB21A46254BDB78D9B21E4B9954234BDB78DBB23033D9B2234B1B889DB2184B1B78DBB29BB2214A128892B2013292B202FB03F39AB21E4B1B889BB273
:403B000013449CB21A4B1B889BB2DBB2009301202A46234604F0A0FC114BDB78DBB20A2B57D10C4B1B78DBB2012B25D1054B1B78DBB2012B20D1044B5B78DBB2002B1BD15C
:403B400047E000BF3F85FF1F3086FF1F2C85FF1F5585FF1FD782FF1F5886FF1F4F86FF1F788EFF1F2885FF1F0884FF1FDC82FF1F0084FF1FB686FF1FAF4B1B78DBB201331D
:403B8000DAB2AD4B1A70AC4B1B78DBB21A46AB4B00219954AA4B1B889DB2A74B1B78DBB29BB2A84A128892B2013292B202FB03F39AB2A54B1B889BB213449CB2A14B1B889C
:403BC0009BB2DBB20093012030212A46234604F043FC9E4BDB78DBB2512B3DD1964B1B78DBB2002B38D09A4B1B78DBB2002B33D1914B1B78DBB20133DAB28F4B1A708E4B26
:403C00001B78DBB21A46934B1B78D9B28B4B9954904B1B78D9B28A4B1B889DB2864B1B78DBB29BB2874A128892B2013292B202FB03F39AB2844B1B889BB213449CB2814BB2
:403C40001B889BB2DBB2009301202A46234604F003FC7F4B01221A707C4BDB78DBB20B2B40F0A080744B1B78DBB2002B5ED17A4B1B78DBB2013B072B00F2948001A252F824
:403C800023F000BFA53C0000B53C0000BD3C0000D33C0000E93C0000FF3C0000A53D0000153D00000120052104F08AFB6B4B04221A703AE0694B00221A7036E001200021CC
:403CC00004F07EFB654B00221A70654B01225A702BE00120002104F073FB604B00221A705F4B01225A7020E00120002104F068FB5A4B00221A705A4B01225A7015E001202F
:403D0000002104F05DFB554B00221A70544B01225A700AE00120002104F052FB4F4B00221A704F4B01225A7000BF3BE0444B1B889DB2414B1B78DBB29BB2424A128892B246
:403D4000013292B202FB03F39AB23F4B1B889BB213449CB23B4B1B889BB2DBB20093012020212A46234604F077FB334B1B78DBB21A46324B9B5CDAB2364B1B78DBB29A42BC
:403D800002D1334B00221A702B4B1B78DBB21A462A4B00219954284B1B78DBB2013BDAB2254B1A70294BDB78DBB20C2B40F0EC83294B1B78DBB2013B072B00F2E58301A20F
:403DC00052F823F0E53D0000793F000055400000CD400000274100001542000047420000EF430000002387F82F300CE097F82F3007F130021344002203F82C2C97F82F30B1
:403E0000013387F82F3097F82F30072BEED90A4B1B78DBB2002B00F0AE80074B1B78DBB21A46064B9B5CDBB22C2B00F0A480012387F82F303FE000BF3F85FF1F3086FF1F23
:403E4000DC82FF1F0084FF1FB686FF1F788EFF1F5682FF1FB582FF1FD782FF1F5585FF1F5882FF1F97F82F30B14AD35CDBB22C2B0FD097F82F30013B97F82F20AC498A5C36
:403E8000D2B23032D2B207F130010B4403F82C2C0CE097F82F30013B97F82F20A4498A5CD2B207F130010B4403F82C2C97F82F30013387F82F309F4B1B78DBB297F82F20CF
:403EC0009A42CFD93B1D184607F07EF8C7E90801994BDB7E012B09D1D7E908014FF00002964B07F05DF80346002B1AD1924BDB7E022B40D1D7E908014FF000028F4B07F03A
:403F000045F80346002B00D13EE3D7E908014FF000024FF0000307F04DF80346002B00D132E3844B1B7887F82F3015E097F82F30804A1278D2B2114697F82F208A1A0132F5
:403F40007B498A5CD1B27C4A13440A46DA7697F82F30013B87F82F3097F82F30002BE5D1774B05221A70774B02225A700120072104F026FA08E307E3002387F82F300BE03F
:403F800097F82F306C4A1344002283F8432097F82F30013387F82F3097F82F300A2BEFD9644B1B7887F82F3016E097F82F30614A1278D2B2114697F82F208A1A01325C49AD
:403FC0008A5CD1B25C4A13440A4683F8432097F82F30013B87F82F3097F82F30002BE4D1594B1B78DBB2022B33D1002387F82F300AE097F82F30504A13440022DA7697F897
:404000002F30013387F82F3097F82F30072BF0D9494B0322DA76052387F82F300AE097F82F30454A13440922DA7697F82F30013387F82F3097F82F30072BF0D901200721AC
:4040400004F0BEF93F4B02225A703D4B06221A709AE299E2374B1B7887F82F3018E097F82F30344A1278D2B2114697F82F208A1A01322F498A5CD2B23032D1B22E4A1344E5
:404080000A4683F8592097F82F30013B87F82F3097F82F30002BE2D1294B02221A700120052104F08DF9234B00221A70274B04221A70274B0A221A70264B02221A80264B01
:4040C00003221A80254B01221A805DE2194B1B7887F82F3018E097F82F30164A1278D2B2114697F82F208A1A013211498A5CD2B23032D1B2104A13440A4683F8642097F828
:404100002F30013B87F82F3097F82F30002BE2D10B4B66221A700120392104F051F9094B10225A7030E2034B1B7887F82F3030E03086FF1F3F85FF1F5885FF1F00001440E3
:404140005585FF1F5882FF1F4F86FF1FD782FF1F0884FF1FB686FF1FDC82FF1F0084FF1F97F82F30AF4A1278D2B2114697F82F208A1A0132AC498A5CD2B23032D1B2AB4A89
:4041800013440A4683F8712097F82F30013B87F82F3097F82F30002BE2D1A54B1A78A34B93F875309A4223D1A14B5A789F4B93F874309A421CD19E4B9A789C4B93F8733058
:4041C0009A4215D19A4BDA78984B93F872309A420ED10120262104F0F3F8C82004F0E4FD0120462104F0ECF8924B10221A70CBE1904B00221A700120272104F0E1F88E4BBC
:4042000001225A70C82004F0CFFD0120002104F0D7F8B9E1834B1B78DBB21A46824B9B5CDBB218461E2106F0EDFA824B00221A7001203C2104F0C4F8C82004F0B5FD7E4B33
:4042400001225A70A0E17B4B12221A700120582104F0B6F8794B1B78013B032B00F2988001A252F823F000BF79420000BF420000054300004B4300006B4B5B78DBB230337B
:40428000DAB26F4B1A706E4B1B78322B08D0332B0BD0312B0ED1684B012283F859200DE0654B012283F85A2008E0634B012283F85B2003E0634B00221A7000BF68E05A4B22
:4042C0005B78DBB23033DAB25D4B5A705C4B5B78322B08D0332B0BD0312B0ED1564B022283F859200DE0544B022283F85A2008E0514B022283F85B2003E0534B00221A70B1
:4043000000BF45E0484B5B78DBB23033DAB24C4B9A704B4B9B78322B08D0332B0BD0312B0ED1454B032283F859200DE0424B032283F85A2008E0404B032283F85B2003E016
:40434000424B00221A7000BF22E0374B5B78DBB23033DAB23A4BDA70394BDB78322B08D0332B0BD0312B0ED1334B042283F859200DE0314B042283F85A2008E02E4B042280
:4043800083F85B2003E0324B00221A7000BF00BF2B4B1A78012300930120114607222C2304F05AF8264B5A7801230093012011460E222C2304F050F8214B9A780123009326
:4043C0000120114613222C2304F046F81C4BDA78012300930120114619222C2304F03CF81C4B01225A70C82004F0DEFCCCE0012387F82F3009E097F82F30174A0021D154BF
:4044000097F82F30013387F82F3097F82F30042BF1D9114B04221A70024B1B7887F82F3032E000BF3F85FF1F3086FF1FDC86FF1F4481FF1F5585FF1F5882FF1F8187FF1FCB
:40444000BC82FF1F4881FF1F4981FF1F4A81FF1F4B81FF1F5886FF1F2C85FF1F97F82F30884A1278D2B2114697F82F208A1A013285498A5CD2B23032D1B2844AD15497F8FA
:404480002F30013B87F82F3097F82F30002BE5D17E4B5B78DBB22F2B17D97C4B9B78DBB22F2B12D8794BDB78DBB22F2B0DD8774B1B79DBB22F2B08D8744B30229A70734BBD
:4044C0003022DA70714B30221A71704B5B78DBB22F2B14D96D4B9B78DBB22F2B0FD96B4BDB78DBB22F2B0AD8684B1B79DBB22F2B05D8664B3022DA70644B30221A71634B27
:404500005B78DBB22F2B11D9604B9B78DBB22F2B0CD95E4BDB78DBB22F2B07D95B4B1B79DBB22F2B02D8594B30221A71082387F82F3011E097F82F30083B544AD35CDAB28A
:4045400097F82F309BB21046194606F05BF997F82F30013387F82F3097F82F300C2BE9D94B4B0C221A704B4B02221A7001200E2103F026FFC82004F017FC424B00221A70F8
:40458000454B01225A7000BF05F0BCFB01F09CBD01F09ABD414B1B78DBB2012B40F0D1823F4B4D221A703E4B55225A703C4B58229A703B4B3122DA70394B31221A71394BC5
:4045C0005B7E013B384A134493F85930DBB23033DAB2334B5A71334B5B7D3033DAB2304B9A71304B1B7D3033DAB22D4BDA712D4BDB7C3033DAB22A4B1A72294B2C225A7217
:40460000284B9B7C3033DAB2254B9A72254B5B7C3033DAB2224BDA72224B1B7C3033DAB21F4B1A73214B5B78DBB2072B40D11D4B9B7B3033DAB21A4B5A731A4B5B7B303360
:40464000DAB2174B9A73174B1B7B3033DAB2144BDA73144BDB7A3033DAB2114B1A74114B9B7A3033DAB20E4B5A740E4B5B7A3033DAB20B4B9A740B4B1B7A3033DAB2084BEA
:40468000DA743FE03F85FF1F3086FF1F2C85FF1F5585FF1FD782FF1F5882FF1F4F86FF1F6084FF1FDC86FF1F5886FF1FD882FF1F664B5B7B3033DAB2654B5A73634B1B7B81
:4046C0003033DAB2624B9A73604BDB7A3033DAB25F4BDA735D4B9B7A3033DAB25C4B1A745A4B5B7A3033DAB2594B5A74574B1B7A3033DAB2564B9A74544BDB793033DAB2B8
:40470000534BDA74534B1B78DBB2002B1DD14F4B9B793033DAB24E4B1A754C4B5B793033DAB24B4B5A75494B1B793033DAB2484B9A75464BDB783033DAB2454BDA75434B39
:404740009B783033DAB2424B1A76424B1B78DBB2012B1AD13D4B5B793033DAB23C4B1A753A4B1B793033DAB2394B5A75374BDB783033DAB2364B9A75344B9B783033DAB2C5
:40478000334BDA75324B30221A76334B1B79DAB22F4B5A76304BDB78DAB22D4B9A762E4B9B78DAB22A4BDA762B4B5B78DAB2284B1A772A4B1B78012B43D1002387F82F3004
:4047C0003AE097F82F305B08DBB21A461F4B134493F823301B0987F82E3097F82F3003F00103DBB2002B0CD197F82F305B08DBB21A46164B134493F8233003F00F0387F8EF
:404800002E3097F82F301D3397F82E203032D1B20F4AD15497F82E30092B08D997F82F301D3397F82E203732D1B2094AD15497F82F30013387F82F3097F82F300F2BC0D95A
:404840004DE0002387F82F3045E000BFDC86FF1F6084FF1F3E85FF1F2C85FF1F0284FF1F97F82F305B08DBB21A467D4B134493F823301B0987F82E3097F82F3003F001032F
:40488000DBB2002B0CD197F82F305B08DBB21A46734B134493F8233003F00F0387F82E3097F82F301D3397F82E203032D1B26D4AD15497F82E30092B08D997F82F301D3334
:4048C00097F82E203732D1B2664AD15497F82F30013387F82F3097F82F300F2BC0D9624B1B8801339AB2604B1A805F4B1B885F4AA2FB03239B099BB2DBB23033DAB25C4B77
:404900001A71594B1B88594AA2FB031292094FF47A7101FB02F29B1A9BB2564AA2FB03235B099BB2DBB23033DAB2514BDA704E4B1B884E4AA2FB031292094FF47A7101FBD4
:4049400002F29B1A9BB24B4AA2FB03125209642101FB02F29B1A9BB2474AA2FB0323DB089BB2DBB23033DAB2414B9A703E4B1B883E4AA2FB031292094FF47A7101FB02F273
:404980009B1A9BB23B4AA2FB03125209642101FB02F29B1A9AB2384BA3FB0213D9080B469B000B445B00D31A9BB2DBB23033DAB22F4B5A70012387F82F300EE097F82F3068
:4049C0002C3397F82F202A498A5CD1B2254AD15497F82F30013387F82F3097F82F30072BECD9012387F82F3010E097F82F30204AD35CDAB297F82F309BB21046194605F03B
:404A000001FF97F82F30013387F82F3097F82F30042BEAD9002387F82F3012E097F82F30343397F82F2001320D490A4492F843203032D1B20B4AD15497F82F30013387F8AC
:404A40002F3097F82F30062BE8D9064B2A2283F83B2004F0F9FC002387F82F301AE000BFDC86FF1F6084FF1FBA82FF1FD34D62103485FF1F1F85EB51CDCCCCCC97F82F309D
:404A80006C4AD35C184604F01DFD97F82F30013387F82F3097F82F303B2BEFD904F0D4FC4FF4967004F080F904F026FD624B00221A70624B5B7E5A1E614913469B001344AC
:404AC0000B4448339B78DBB23B735C4B5B7E5A1E5B4913469B0013440B4449339B78DBB27B73564B5B7E5A1E554913469B0013440B444A339B78DBB2BB73504B5B7E5A1EFD
:404B00004F4913469B0013440B444B339B78DBB2FB734A4B5B7E5A1E494913469B0013440B444C339B78DBB23B74454B1B78D9B2424B5B7E07F10C02084611461A4602F0C6
:404B4000B7FA404B1B78DBB2022B40F0BF82394B4D221A70374B55225A70364B58229A70344B3122DA70334B32221A71364B5B7E013B364A134493F85930DBB23033DAB280
:404B80002C4B5A71304B5B7D3033DAB2294B9A712D4B1B7D3033DAB2264BDA712A4BDB7C3033DAB2234B1A72224B2C225A72264B9B7C3033DAB21F4B9A72234B5B7C303366
:404BC000DAB21C4BDA72204B1B7C3033DAB2194B1A731F4B5B78DBB2072B3BD11A4B9B7B3033DAB2134B5A73174B5B7B3033DAB2104B9A73144B1B7B3033DAB20D4BDA73DF
:404C0000114BDB7A3033DAB20A4B1A740E4B9B7A3033DAB2074B5A740B4B5B7A3033DAB2044B9A74084B1B7A3033DAB2014BDA743AE000BF6084FF1F5686FF1FDC86FF1F37
:404C40005886FF1F4F86FF1F5885FF1F5882FF1FD882FF1F664B5B7B3033DAB2654B5A73634B1B7B3033DAB2624B9A73604BDB7A3033DAB25F4BDA735D4B9B7A3033DAB268
:404C80005C4B1A745A4B5B7A3033DAB2594B5A74574B1B7A3033DAB2564B9A74544BDB793033DAB2534BDA74534B1B78DBB2002B1DD14F4B9B793033DAB24E4B1A754C4B0E
:404CC0005B793033DAB24B4B5A75494B1B793033DAB2484B9A75464BDB783033DAB2454BDA75434B9B783033DAB2424B1A76424B1B78DBB2012B1AD13D4B5B793033DAB265
:404D00003C4B1A753A4B1B793033DAB2394B5A75374BDB783033DAB2364B9A75344B9B783033DAB2334BDA75324B30221A76334B1B79DAB22F4B5A76304BDB78DAB22D4B47
:404D40009A762E4B9B78DAB22A4BDA762B4B5B78DAB2284B1A772A4B1B78012B43D1002387F82F303AE097F82F305B08DBB21A461F4B134493F823301B0987F82E3097F89D
:404D80002F3003F00103DBB2002B0CD197F82F305B08DBB21A46164B134493F8233003F00F0387F82E3097F82F301D3397F82E203032D1B20F4AD15497F82E30092B08D9D2
:404DC00097F82F301D3397F82E203732D1B2094AD15497F82F30013387F82F3097F82F300F2BC0D94DE0002387F82F3045E000BF5885FF1F6084FF1F3E85FF1F2C85FF1FB4
:404E00000284FF1F97F82F305B08DBB21A46B04B134493F823301B0987F82E3097F82F3003F00103DBB2002B0CD197F82F305B08DBB21A46A64B134493F8233003F00F037C
:404E400087F82E3097F82F301D3397F82E203032D1B2A04AD15497F82E30092B08D997F82F301D3397F82E203732D1B2994AD15497F82F30013387F82F3097F82F300F2B0D
:404E8000C0D9954B1B8801339AB2934B1A80924B1B88924AA2FB03239B099BB2DBB23033DAB28F4B1A718C4B1B888C4AA2FB031292094FF47A7101FB02F29B1A9BB2894A5D
:404EC000A2FB03235B099BB2DBB23033DAB2844BDA70814B1B88814AA2FB031292094FF47A7101FB02F29B1A9BB27E4AA2FB03125209642101FB02F29B1A9BB27A4AA2FB55
:404F00000323DB089BB2DBB23033DAB2744B9A70714B1B88714AA2FB031292094FF47A7101FB02F29B1A9BB26E4AA2FB03125209642101FB02F29B1A9AB26B4BA3FB0213AB
:404F4000D9080B469B000B445B00D31A9BB2DBB23033DAB2624B5A70012387F82F300EE097F82F302C3397F82F205D498A5CD1B2584AD15497F82F30013387F82F3097F80D
:404F80002F30072BECD9012387F82F3010E097F82F30534AD35CDAB297F82F309BB21046194605F02FFC97F82F30013387F82F3097F82F30042BEAD9002387F82F3012E080
:404FC00097F82F30343397F82F20013240490A4492F843203032D1B23E4AD15497F82F30013387F82F3097F82F30062BE8D9394B2A2283F83B2004F027FA002387F82F3059
:405000000BE097F82F30334AD35C184604F05AFA97F82F30013387F82F3097F82F303B2BEFD904F011FA4FF4967003F0BDFE04F063FA2E4B00221A70254B5B7E5A1E2C4987
:4050400013469B0013440B4448339B78DBB23B731F4B5B7E5A1E264913469B0013440B4449339B78DBB27B73194B5B7E5A1E204913469B0013440B444A339B78DBB2BB73FC
:40508000134B5B7E5A1E1A4913469B0013440B444B339B78DBB2FB730D4B5B7E5A1E144913469B0013440B444C339B78DBB23B74104B1B78D9B2064B5B7E07F10C02084653
:4050C00011461A4601F0F4FF00F0FEBF00F0FCBF5885FF1F6084FF1FBA82FF1FD34D62103485FF1F1F85EB51CDCCCCCC5686FF1F5886FF1F5882FF1F04F0BCFD0346082BD5
:4051000040F00B81A24B1B78DBB2AA2B40F0FE809F4B9B79DBB2C32B40F0F8809C4BDB79DBB23C2B40F0F2809A4B1B78DAB29A4B1B78DBB29A426CD2954BDB78DBB2092B1A
:4051400033D8944B1B78DBB20133914AD278D2B23032D1B2914A13440A4683F86420904B1B889DB28B4B1B78DBB29BB28D4A128892B2013292B202FB03F39AB28A4B1B88EF
:405180009BB213449CB2874B1B889BB2DBB2009301202A212A46234603F05EF97D4B1B78DBB20133DAB27B4B1A70794BDB78DBB20A2B2ED1774B1B78DBB20133774A13448E
:4051C000302283F86420764B1B889DB2714B1B78DBB29BB2734A128892B2013292B202FB03F39AB2704B1B889BB213449CB26D4B1B889BB2DBB2009301202A212A462346D4
:4052000003F02AF9634B1B78DBB20133DAB2614B1A705F4BDB78DBB20B2B2ED15E4B1B78DBB2002B03D1614B00221A7025E0594B1B78DBB2013BDAB2564B1A70584B1B88B3
:405240009DB2544B1B78DBB29BB2564A128892B2013292B202FB03F39AB2534B1B889BB213449CB24F4B1B889BB2DBB20093012020212A46234603F0EFF8454BDB78DBB23D
:405280000C2B43D1434B1B78DBB2002B3ED0414B1B78DAB2414B83F86420002387F82E303E4B93F86430042B2DD1012387F82F3015E097F82F30394A134493F8642097F854
:4052C0002F303B49CB5C9A4204D197F82E30013387F82E3097F82F30013387F82F3097F82F30042BE5D997F82E30042B07D12F4B0F221A7001205D2103F062F806E02B4BA9
:4053000000221A7002E0294B00221A70642003F04BFD04F0F7FC00F0D7BE00F0D5BE04F0A9FC0346082B40F09880194B1B78DBB2AA2B40F09280164B9B79DBB2C32B40F0F9
:405340008C80134BDB79DBB23C2B40F08680104BDB78DBB2B92B05D0BA2B59D07E2B74D000F0B2BE134B4D221A70124B55225A70104B58229A700F4B3322DA700D4B2A2285
:405380001A7104F061F8002387F82F3020E000BF788EFF1F3F85FF1F0884FF1FDC86FF1FDC82FF1F0084FF1FB686FF1F5585FF1F2881FF1F6084FF1F97F82F30B64AD35CCF
:4053C000184604F07FF897F82F30013387F82F3097F82F30042BEFD9962003F0E5FC0120002102F0EDFFAD4B00221A70AC4B1B78DBB2012B02D1AB4B01225A70A84B1B7832
:40540000DBB2022B03D1A84B01225A7025E024E001202F2102F0D4FFA44B05221A70A44B00221A70A34B2C221A70A34B04221A70A24B04221A80A24B03221A80A14B0122B8
:405440001A80964B0C221A7007E001204A2102F0B7FF924B00221A7000BF00F035BE04F009FC0346082B6FD1974B1B78DBB2AA2B63D1954B9B79DBB2C32B5ED1924BDB7924
:40548000DBB23C2B59D1904BDB78DBB2802B13D0802B04DC7E2B48D07F2B05D04DE0812B27D0C22B2DD048E00120582102F088FF7A4B12221A7040E00120642102F080FF0B
:4054C0007A4B06221A707A4B00221A70794B2C221A70794B01221A70784B04221A80784B03221A80774B01221A806C4B0C221A7023E06A4B11221A7001206D2102F060FF4F
:405500001BE001206E2102F05BFF6C4B04221A806B4B03221A806B4B01221A805F4B0B221A70624B0A221A7007E001204A2102F047FF5A4B00221A7000BF642003F034FCEF
:4055400004F0E0FB00F0C0BD00F0BEBD04F092FB0346082B4BD15C4B1B78DBB2AA2B3FD1594B9B79DBB2C32B3AD1574BDB79DBB23C2B35D1544BDB78DBB28F2B04D0902BC9
:4055800014D07E2B24D02BE00020172105F03AF9424B00221A7001203C2102F011FFC82003F002FC3F4B01225A7019E00120172105F028F9394B00221A7001203C2102F0CE
:4055C000FFFEC82003F0F0FB364B01225A7007E001204A2102F0F4FE304B00221A7000BF642003F0E1FB04F08DFB00F06DBD00F06BBD2B4B1B78DBB2012B40F0358204F09F
:4056000039FB0346082B40F02F822F4B1B78DBB2AA2B40F024822C4B9B79DBB2C32B40F01E82294BDB79DBB23C2B40F01882264BDB78DBB27E3B042B00F2118201A252F88D
:4056400023F000BF915700001157000059560000D1560000515700001C4B01221A700120062102F0ADFE114B07221A70104B00221A70104B2C221A700F4B01221A700F4BE7
:4056800004221A800E4B03221A800E4B01221A80024B0C221A70E2E16084FF1F5585FF1F4F86FF1F5886FF1F5882FF1FD782FF1F3F85FF1FB582FF1F0884FF1FB686FF1FA1
:4056C000DC82FF1F0084FF1F788EFF1F8187FF1FB44B02221A700120062102F071FEB24B07221A70B14B00221A70B14B2C221A70B04B01221A70B04B04221A80AF4B03223E
:405700001A80AF4B01221A80AE4B0C221A70A6E1A44B03221A700120062102F051FEA24B07221A70A14B00221A70A14B2C221A70A04B01221A70A04B04221A809F4B03226B
:405740001A809F4B01221A809E4B0C221A7086E1944B04221A700120062102F031FE924B07221A70914B00221A70914B2C221A70904B01221A70904B04221A808F4B0322FA
:405780001A808F4B01221A808E4B0C221A7066E18D4B4D221A708C4B55225A708A4B58229A70894B3422DA70042387F82E30002387F82F303CE097F82F30844A134493F86B
:4057C0005930DBB2013B032B22D801A252F823F0E1570000ED570000F95700000558000097F82E30784A3121D15417E097F82E30754A3221D15411E097F82E30724A3321D7
:40580000D1540BE097F82E306F4A3421D15405E097F82E306C4A3021D15400BF97F82E30013387F82E3097F82F30013387F82F3097F82F30022BBED9654B1B78002B26D166
:40584000002387F82E30042387F82F301BE097F82F305D4AD35C312B0BD197F82F305A4A3021D15497F82E30584A1344002283F8592097F82E30013387F82E3097F82F303C
:40588000013387F82F3097F82F30062BDFD9514B1B78002B26D1002387F82E30042387F82F301BE097F82F30474AD35C322B0BD197F82F30444A3021D15497F82E30434A5B
:4058C0001344002283F8592097F82E30013387F82E3097F82F30013387F82F3097F82F30062BDFD93C4B1B78002B26D1002387F82E30042387F82F301BE097F82F30324AC0
:40590000D35C332B0BD197F82F302F4A3021D15497F82E302D4A1344002283F8592097F82E30013387F82E3097F82F30013387F82F3097F82F30062BDFD9284B1B78002B4A
:4059400026D1002387F82E30042387F82F301BE097F82F301C4AD35C342B0BD197F82F30194A3021D15497F82E30184A1344002283F8592097F82E30013387F82E3097F862
:405980002F30013387F82F3097F82F30062BDFD90D4B2A22DA7103F057FD002387F82F302AE000BF8187FF1FD782FF1F3F85FF1FB582FF1F0884FF1FB686FF1FDC82FF1F4B
:4059C0000084FF1F5585FF1F6084FF1F5886FF1F4881FF1F4981FF1F4A81FF1F4B81FF1F97F82F30BE4AD35C184603F06BFD97F82F30013387F82F3097F82F30072BEFD9A7
:405A0000B84B01221A70B84B01221A70B74B01221A70B74B01221A70B64B93F85930DBB21846102104F0EEFEB24B93F85A30DBB21846112104F0E6FEAE4B93F85B30DBB2F4
:405A40001846122104F0DEFE01204A2102F0B8FCA94B00221A70A74B01225A7000BF642003F0A2F904F04EF9A44B1B78DBB2022B40F01E8204F0FEF80346082B40F01882CC
:405A80009F4B1B78DBB2AA2B40F00C829C4B9B79DBB2C32B40F00682994BDB79DBB23C2B40F00082964BDB78DBB27E3B042B00F2F98101A252F823F0CD5B00004D5B000058
:405AC000CD5A00000D5B00008D5B00008D4B01221A700120062102F073FC8B4B07221A708A4B00221A708A4B2C221A70894B01221A70894B04221A80884B03221A80884BD0
:405B000001221A807C4B0C221A70CBE17D4B02221A700120062102F053FC7B4B07221A707A4B00221A707A4B2C221A70794B01221A70794B04221A80784B03221A80784BBD
:405B400001221A806C4B0C221A70ABE16D4B03221A700120062102F033FC6B4B07221A706A4B00221A706A4B2C221A70694B01221A70694B04221A80684B03221A80684B4C
:405B800001221A805C4B0C221A708BE15D4B04221A700120062102F013FC5B4B07221A705A4B00221A705A4B2C221A70594B01221A70594B04221A80584B03221A80584BDB
:405BC00001221A804C4B0C221A706BE1444B4D221A70434B55225A70414B58229A70404B3422DA70042387F82E30002387F82F303CE097F82F304B4A134493F85930DBB21F
:405C0000013B032B22D801A252F823F01D5C0000295C0000355C0000415C000097F82E302F4A3121D15417E097F82E302C4A3221D15411E097F82E30294A3321D1540BE070
:405C400097F82E30264A3421D15405E097F82E30234A3021D15400BF97F82E30013387F82E3097F82F30013387F82F3097F82F30022BBED91B4B1B78002B26D1002387F86C
:405C80002E30042387F82F301BE097F82F30144AD35C312B0BD197F82F30114A3021D15497F82E301F4A1344002283F8592097F82E30013387F82E3097F82F30013387F8B2
:405CC0002F3097F82F30062BDFD9074B1B78002B4AD1002387F82E30042387F82F303FE06084FF1F4881FF1F4981FF1F4A81FF1F4B81FF1F5886FF1F5585FF1F4F86FF1F94
:405D0000788EFF1F8187FF1FD782FF1F3F85FF1FB582FF1F0884FF1FB686FF1FDC82FF1F0084FF1F5882FF1F97F82F30C54AD35C322B0BD197F82F30C24A3021D15497F8ED
:405D40002E30C14A1344002283F8592097F82E30013387F82E3097F82F30013387F82F3097F82F30062BDFD9B84B1B78002B26D1002387F82E30042387F82F301BE097F831
:405D80002F30B04AD35C332B0BD197F82F30AD4A3021D15497F82E30AB4A1344002283F8592097F82E30013387F82E3097F82F30013387F82F3097F82F30062BDFD9A44BB3
:405DC0001B78002B26D1002387F82E30042387F82F301BE097F82F309A4AD35C342B0BD197F82F30974A3021D15497F82E30964A1344002283F8592097F82E30013387F893
:405E00002E3097F82F30013387F82F3097F82F30062BDFD98B4B2A22DA7103F015FB002387F82F300BE097F82F30864AD35C184603F048FB97F82F30013387F82F3097F8C1
:405E40002F30072BEFD9834B01221A70824B01221A707E4B01221A707D4B01221A707A4B93F85930DBB21846102104F0CBFC764B93F85A30DBB21846112104F0C3FC724BD6
:405E800093F85B30DBB21846122104F0BBFC01204A2102F095FA714B00221A706A4B01225A7000BF642002F07FFF03F02BFF0BE10AE1644B4D221A70624B55225A70614B03
:405EC00058229A705F4B3522DA70654B1B78DBB2012B65D1002387F82F303AE097F82F305B08DBB21A465F4B134493F823301B0987F82E3097F82F3003F00103DBB2002BCB
:405F00000CD197F82F305B08DBB21A46554B134493F8233003F00F0387F82E3097F82F30043397F82E203032D1B2464AD15497F82E30092B08D997F82F30043397F82E20EF
:405F40003732D1B23F4AD15497F82F30013387F82F3097F82F300F2BC0D93A4B2A221A7503F072FA002387F82F300BE097F82F30344AD35C184603F0A5FA97F82F3001336E
:405F800087F82F3097F82F30142BEFD90120002102F016FA314B00221A70334B01225A702F4B1B78DBB2022B7DD1002387F82F303AE097F82F305B08DBB21A462B4B1344FC
:405FC00093F823301B0987F82E3097F82F3003F00103DBB2002B0CD197F82F305B08DBB21A46224B134493F8233003F00F0387F82E3097F82F30043397F82E203032D1B29F
:40600000104AD15497F82E30092B08D997F82F30043397F82E203732D1B20A4AD15497F82F30013387F82F3097F82F300F2BC0D9044B2A221A7503F007FA002387F82F3098
:4060400022E000BF6084FF1F5882FF1F4A81FF1F4B81FF1F4881FF1F4981FF1F5585FF1F4F86FF1FDC86FF1F5886FF1F5885FF1F97F82F30164AD35C184603F023FA97F8E7
:406080002F30013387F82F3097F82F30142BEFD90120002102F094F90E4B00221A700E4B01225A7010E00FE00C4B1B78DBB2032B09D9084B00221A7004F07AF804F040F976
:4060C000064B00221A7000BF3037BD46B0BD00BF6084FF1F5585FF1F5882FF1F2885FF1F80B500AF04F060F9184B1B78DBB2012B24D1174B1B78DBB2062B11D8144B1B782E
:40610000DBB20133DAB2124B1A70114B1B78DBB29BB214339BB20120194602F051F914E00B4B00221A700A4B1B78DBB29BB214339BB20120194602F043F906E0044B1B7850
:40614000DBB20133DAB2024B1A7080BD5585FF1F2885FF1F80B500AF04F0E6F9184B1B78DBB2012B24D1174B1B78DBB2062B11D8144B1B78DBB20133DAB2124B1A70114B82
:406180001B78DBB29BB214339BB20220194602F017F914E00B4B00221A700A4B1B78DBB29BB214339BB20220194602F009F906E0044B1B78DBB20133DAB2024B1A7080BD71
:4061C0000384FF1FC082FF1F80B500AFF9F75AFFFAF782F80320002102F01AFE02F05EFEFAF73CFF02F05AFE094B1B78DBB2012B04D0074B1B78DBB2002B01D1FAF704FA1E
:40620000034B1B78DBB2022B01D1FAF791FCE5E74F86FF1F80B500AF04F0B8FA014B01221A7080BD8287FF1F80B584B000AF0346FB7102F08BFFFB79184602F0C5FF1E4896
:4062400003F036FC04F05EFA1C4B00221A700A2002F0AAFD0BE0194B1B78012B07D103F039FC04F05FFA02F071FF002320E002F023FF0346002BEED002F0D4FE0346FB7336
:40628000FB7B03F00F02FB799A420AD1FB7B1B09FB7302F05BFF03F01DFC04F043FAFB7B06E002F053FF03F015FC04F03BFA002318461037BD4680BD156200008287FF1F35
:4062C00080B582B000AF244BFF221A70234BFF221A70052002F068FD0020FFF7A5FF0346002B02D01D4B00221A700123FB711FE0052002F059FDFB791846FFF795FF034624
:40630000002B12D0144B1B78DBB2FF2B03D1124AFB79137009E0114B1B78DBB2FF2B04D10E4AFB791370012312E0FB790133FB71FB790F2BDCD9084B1B78DBB2FF2B06D0CD
:40634000064B1B78DBB2FF2B01D0012300E0002318460837BD4680BD5886FF1F5882FF1F90B58BB000AF0346FB71594A07F108031068516803C3127A1A7002F0E7FEFB79D7
:4063800043F02003DBB2184602F01EFF514803F08FFB04F0B7F9504B00221A700BE04E4B1B78012B07D103F095FB04F0BBF902F0CDFE002388E002F07FFE0346002BEED05D
:4063C00003F088FB04F0AEF902F02CFE03461A46FB7963F02F03DBB29A4274D102F0B6FE052002F0E1FC002387F827300EE097F8273007F12802134413F8203C184602F089
:40640000E3FE97F82730013387F8273097F82730082BECD92F4803F04BFB04F073F92E4B00221A700BE02C4B1B78012B07D103F051FB04F077F902F089FE002344E002F02A
:406440003BFE0346132BEED103F044FB04F06AF9002387F827300FE097F8274002F0E2FD03461A4607F12803234403F8142C97F82730013387F8273097F82730122BEBD920
:4064800002F064FE3B7DBA2B1BD197F825308D2B17D197F826308A2B13D197F82030B12B0FD197F82230B22B05D0B32B05D0B12B05D1012308E0022306E0032304E0002326
:4064C00002E0002300E0002318462C37BD4690BD80D40000156200008287FF1F80B584B000AF0346FB7102F031FEFB7943F04003DBB2184602F068FE4FF4967002F054FCEB
:40650000AB4B5B78DBB2072B00F0BC8002F0D4FD0346212B40F0B680A64B1B78DBB2FF2B40F0AE80A34B9B78DBB2F82B40F0A880A04B93F82030DBB2F02B40F0A1809E4B9F
:406540001B78DBB2FA799A424CD19A4B5B7ADBB203F00F03DBB20133DAB2984B5A760023FB730FE0FB7BFA7B0C3292498A5CD2B202F00F02D1B2914A13440A469A70FB7BCD
:406580000133FB73FB7B032BECD90023FB730FE0FB7BFA7B113287498A5CD2B202F00F02D1B2864A13440A461A74FB7B0133FB73FB7B052BECD90023FB730FE0FB7BFA7B6F
:4065C00018327C498A5CD2B202F00F02D1B27B4A13440A46DA71FB7B0133FB73FB7B052BECD94BE0734B5B7ADBB203F00F03DBB20133DAB2724B5A760023FB730FE0FB7B42
:40660000FA7B0C326B498A5CD2B202F00F02D1B26B4A13440A469A70FB7B0133FB73FB7B032BECD90023FB730FE0FB7BFA7B113260498A5CD2B202F00F02D1B2604A1344D4
:406640000A461A74FB7B0133FB73FB7B052BECD90023FB730FE0FB7BFA7B183255498A5CD2B202F00F02D1B2554A13440A46DA71FB7B0133FB73FB7B052BECD90123CFE08F
:406680000023CDE04A4B5B78DBB2072B40F0C78002F012FD0346272B40F0C180454B1B78DBB2FF2B40F0B980424B9B78DBB2F82B40F0B3803F4B93F82630DBB2F02B40F026
:4066C000AC803D4B1B78DBB2FA799A424CD1394B5B7ADBB203F00F03DBB20133DAB2374B5A760023FB730FE0FB7BFA7B0C3231498A5CD2B202F00F02D1B2304A13440A469C
:406700009A70FB7B0133FB73FB7B052BECD90023FB730FE0FB7BFA7B133226498A5CD2B202F00F02D1B2254A13440A461A74FB7B0133FB73FB7B072BECD90023FB730FE014
:40674000FB7BFA7B1C321B498A5CD2B202F00F02D1B21A4A13440A46DA71FB7B0133FB73FB7B072BECD956E0124B5B7ADBB203F00F03DBB20133DAB2114B5A760023FB73AD
:406780000FE0FB7BFA7B0C320A498A5CD2B202F00F02D1B20A4A13440A469A70FB7B0133FB73FB7B052BECD90023FB731AE000BFD882FF1F8487FF1F5886FF1FDC86FF1F8F
:4067C0005885FF1FFB7BFA7B133217498A5CD2B202F00F02D1B2154A13440A461A74FB7B0133FB73FB7B072BECD90023FB730FE0FB7BFA7B1C320C498A5CD2B202F00F028A
:40680000D1B20A4A13440A46DA71FB7B0133FB73FB7B072BECD9012302E0002300E0002318461037BD4680BD8487FF1F5885FF1F80B588B000AF3A601A460346FB710B46B9
:40684000BB7113467B7107F1080300221A60043300221A60043300221A60043300221A60043300221A8002330423BB777B79032B01D102237B71B34B5B78DBB2052B04D0A7
:40688000B04B5B78DBB2062B04D17B79012B01D10323BB77AB4B5B78DBB2052B04D17B79022B01D10523BB77A64B5B78DBB2072B04D17B79012B01D10023BB77A14B5B7827
:4068C000DBB2072B04D17B79022B01D10223BB7700233B7701237B770AE07B7F3A6813441B782C2B01D17B7F3B777B7F01337B777B7F072BF1D93B7F042B01D90023CFE3DC
:40690000904B5B78DBB2072B00F00582FF233B72BB7F63F01F03DBB27B727B7963F00F03DBB2BB72F423FB72F8233B733B6801331B7863F01F03DBB27B733B6802331B7856
:4069400063F01F03DBB2BB733B6803331B7863F01F03DBB2FB733B6804331B7863F01F03DBB23B743B6805331B7863F01F03DBB27B743B6806331B7863F01F03DBB2BB74EE
:40698000704B9B78DBB2022B40F0A5803B7F042B29D13B6802331B7863F01F03DBB27B733B6803331B7863F01F03DBB2BB733B6805331B7863F01F03DBB2FB733B68063366
:4069C0001B7863F01F03DBB23B743B6807331B7863F01F03DBB27B743B6808331B7863F01F03DBB2BB743B7F032B29D13B6801331B7863F01F03DBB27B733B6802331B78A9
:406A000063F01F03DBB2BB733B6804331B7863F01F03DBB2FB733B6805331B7863F01F03DBB23B743B6806331B7863F01F03DBB27B743B6807331B7863F01F03DBB2BB7429
:406A40003B7F022B24D1E0237B733B6801331B7863F01F03DBB2BB733B6803331B7863F01F03DBB2FB733B6804331B7863F01F03DBB23B743B6805331B7863F01F03DBB245
:406A80007B743B6806331B7863F01F03DBB2BB743B7F002B1FD1E0237B73E023BB733B6801331B7863F01F03DBB2FB733B6802331B7863F01F03DBB23B743B6803331B78EE
:406AC00063F01F03DBB27B743B6804331B7863F01F03DBB2BB74FB23FB7400233B7500237B770FE03A7D7B7F07F120010B4413F8183C03F00F03DBB21344DBB23B757B7F0B
:406B000001337B777B7F0B2BECD93B7D5B42DBB2DBB203F00F03DBB263F01F03DBB2DBB23B75F0237B750D23FB77064B5B78DBB2052B2CD1FB23BB740023FB7400237B7783
:406B400012E000BFD882FF1FFA7C7B7F07F120010B4413F8183C03F00F03DBB21344DBB2FB747B7F01337B777B7F0A2BECD9FB7C5B42DBB2DBB203F00F03DBB263F01F0387
:406B8000DBB2DBB2FB74F0233B750C23FB777B79012B40F0C080F6233B73BB79013BDBB2DBB263F01F03DBB2DBB27B73F823BB733B7F042B22D13B6802331B7863F01F0385
:406BC000DBB2FB733B6803331B7863F01F03DBB23B743B6805331B7863F01F03DBB27B743B6806331B7863F01F03DBB2BB743B6807331B7863F01F03DBB2FB743B7F032BB5
:406C000022D13B6801331B7863F01F03DBB2FB733B6802331B7863F01F03DBB23B743B6804331B7863F01F03DBB27B743B6805331B7863F01F03DBB2BB743B6806331B78FF
:406C400063F01F03DBB2FB743B7F022B1DD1E023FB733B6801331B7863F01F03DBB23B743B6803331B7863F01F03DBB27B743B6804331B7863F01F03DBB2BB743B6805336C
:406C80001B7863F01F03DBB2FB743B7F002B18D1E023FB73E0233B743B6801331B7863F01F03DBB27B743B6802331B7863F01F03DBB2BB743B6803331B7863F01F03DBB27A
:406CC000FB74FB233B7500237B7500237B770FE07A7D7B7F07F120010B4413F8183C03F00F03DBB21344DBB27B757B7F01337B777B7F0C2BECD97B7D5B42DBB2DBB203F06A
:406D00000F03DBB263F01F03DBB2DBB27B75F023BB750E23FB77A24B5B78DBB2072B40F06481FF233B72BB7F63F01F03DBB27B727B7963F00F03DBB2BB72F423FB72F82311
:406D40003B733B6801331B7863F01F03DBB27B733B6802331B7863F01F03DBB2BB733B6803331B7863F01F03DBB2FB733B6804331B7863F01F03DBB23B743B6805331B7808
:406D800063F01F03DBB27B743B6806331B7863F01F03DBB2BB743B6807331B7863F01F03DBB2FB74E0233B75FB237B750023BB7500237B770FE0BA7D7B7F07F120010B44B0
:406DC00013F8183C03F00F03DBB21344DBB2BB757B7F01337B777B7F0D2BECD9BB7D5B42DBB2DBB203F00F03DBB263F01F03DBB2DBB2BB75F023FB750F23FB777B79012BF0
:406E000040F0F380F6233B73BB79013BDBB2DBB263F01F03DBB2DBB27B73F823BB733B7F042B2DD13B6801331B7863F01F03DBB2FB733B6802331B7863F01F03DBB23B74BB
:406E40003B6803331B7863F01F03DBB27B743B6805331B7863F01F03DBB2BB743B6806331B7863F01F03DBB2FB743B6807331B7863F01F03DBB23B75E0237B75E023BB75EE
:406E80003B7F032B2DD1E023FB733B6801331B7863F01F03DBB23B743B6802331B7863F01F03DBB27B743B6804331B7863F01F03DBB2BB743B6805331B7863F01F03DBB2F6
:406EC000FB743B6806331B7863F01F03DBB23B753B6807331B7863F01F03DBB27B75E023BB753B7F022B2DD1E023FB73E0233B743B6801331B7863F01F03DBB27B743B6867
:406F000003331B7863F01F03DBB2BB743B6804331B7863F01F03DBB2FB743B6805331B7863F01F03DBB23B753B6806331B7863F01F03DBB27B753B6807331B7863F01F0313
:406F4000DBB2BB753B7F002B23D1E023FB73E0233B74E0237B743B6801331B7863F01F03DBB2BB743B6802331B7863F01F03DBB2FB743B6803331B7863F01F03DBB23B75D1
:406F80003B6804331B7863F01F03DBB27B75E023BB75FB23FB7500233B7600237B7711E0D882FF1F3A7E7B7F07F120010B4413F8183C03F00F03DBB21344DBB23B767B7FC5
:406FC00001337B777B7F0F2BECD93B7E5B42DBB2DBB203F00F03DBB263F01F03DBB2DBB23B76F0237B761123FB7702F0AFF8FB7943F02003DBB2184602F0E6F82A4802F004
:4070000057FD03F07FFB294B00221A700A2001F0CBFE0BE0254B1B78012B07D102F05AFD03F080FB02F092F8002339E002F044F80346002BEED002F04DFD03F073FB01F03C
:40704000F1FF03461A46FB7963F02F03DBB29A4225D102F07BF80A2001F0A6FE00237B770BE07B7F07F12002134413F8183C184602F0AAF87B7F01337B777A7FFB7F9A42D0
:40708000EFD9322001F090FEFB791846FFF7CCF80346002B01D1002302E0012300E0002318462037BD4680BD156200008287FF1F80B588B000AF03463960FB711346BB71B7
:4070C00000233B7300237B730023BB730023FB7300233B7400237B740023BB740023FB7400233B7500237B750023BB750023FB7500233B7600237B760023BB76884B5B7856
:40710000DBB2072B56D0FF233B73E5237B73F423BB73F623FB73BB79013BDBB2DBB263F01F03DBB2DBB23B74F7237B740623BB7715E0BB7FBA7F063A39680A441278D2B207
:4071400002F00F02D2B262F01F02D2B2D2B207F120010B4403F8142CBB7F0133BB77BB7F092BE6D9FB23BB750023BB770FE0FA7DBB7F07F120010B4413F8143C03F00F0392
:40718000DBB21344DBB2FB75BB7F0133BB77BB7F0A2BECD9FB7D5B42DBB2DBB203F00F03DBB263F01F03DBB2DBB2FB75F0233B760C23FB775A4B5B78DBB2072B53D1FF2378
:4071C0003B73E3237B73F423BB73F623FB73BB79013BDBB2DBB263F01F03DBB2DBB23B74F7237B740623BB7710E0BB7FBA7F063A39680A44127862F01F02D2B207F12001C9
:407200000B4403F8142CBB7F0133BB77BB7F0A2BEBD9E023FB75FB233B760023BB770FE07A7EBB7F07F120010B4413F8143C03F00F03DBB21344DBB27B76BB7F0133BB776F
