:400000000080002011000000FD810000FD81000080B500AF024A034B1B68136008F01CF9BC760040FA46004010B5054C237833B9044B13B10448AFF300800123237010BDFE
:400040000082FF1F0000000078CE0000084B10B51BB108480849AFF300800848036803B910BD074B002BFBD0BDE81040184700BF0000000078CE00000482FF1F0881FF1FC3
:400080000000000090B583B000AF734B00221A8062B608F01FFE09F01FF808F055FC09F079FA09F0F3FB0AF0A7F86C4B002283F859206A4B002283F85A20684B002283F844
:4000C0005B20674B002283F85920654B002283F85A20634B002283F85B200023FB7108E0FB79604A1344012283F83320FB790133FB71FB790F2BF3D9052008F055FB0D2328
:40010000FB710EE0FB79A3F10D04FB799BB218460AF008F903461A46534B1A55FB790133FB71FB790E2BEDD90F200AF0FBF803461A464A4B83F85C2010200AF0F3F8034646
:400140001A46464B83F8592011200AF0EBF803461A46424B83F85A2012200AF0E3F803461A463E4B83F85B2013200AF0DBF803461A463B4B83F85C2014200AF0D3F80346CA
:400180001A46374B83F8592015200AF0CBF803461A46334B83F85A2016200AF0C3F803461A462F4B83F85B2017200AF0BBF803461A462E4B1A701E200AF0B4F803461A463A
:4001C0002B4B5A701F200AF0ADF803461A46284B9A7020200AF0A6F803461A46244BDA701A200AF09FF803461A461C4B1A701C200AF098F803461A46194B1A7021200AF084
:4002000091F803461A461B4B1A7022200AF08AF803461A46184B1A7023200AF083F803461A46164B1A700D4B01225A700C4B01225A70134B00221A700D4B00229A700C4B8E
:400240000322DA700F4B00221A70052008F0ACFA0C37BD4690BD00BF2883FF1F5886FF1F5882FF1FDC86FF1F3C85FF1F3E85FF1FD882FF1F8287FF1F5585FF1F5482FF1F6C
:400280005686FF1F5685FF1F80B582B000AF03460A46FB711346BB80FB79012B13D1BB880120194607F08EFD104B64221A70104B01221A700F4B01225A700F4809F066FC67
:4002C00009F02EFD0FE0BB880220194607F07AFD0A4B64221A700A4B01221A70094809F051FE09F001FE0837BD4680BD5685FF1F2885FF1F5886FF1F095B00000384FF1F79
:40030000C082FF1F7D5B000080B582B000AF0023FB7180E10023FB71C24B1B78DBB2FF2B04D0C14B1B78DBB2FF2B58D100BF05F0C9FC0346002BFAD000BFBA4B1B78DAB2AC
:40034000B84B93F85C30DBB21046194606F0F0FC0346002BF1D0322008F026FA00BFB24B1B78DAB2B04B93F85C30DBB21046194606F0DEFC0346002BF1D0322008F014FA14
:40038000A84B1B78DBB218461A2109F03BFF0346002B04D101203C2107F014FD03E00120552107F00FFDA04B1B78DBB218461C2109F028FF0346002B04D102203C2107F08D
:4003C00001FD03E00220552107F0FCFC974B00221A70974B00221A700223FB711BE1914B1B78DBB2184605F021FC0346BB71BB790C2B7ED801A252F823F000BF3104000056
:40040000F3040000F3040000F3040000F3040000F304000039040000750400009F040000B3040000CF040000C1040000DD0400007C4BFF221A705CE07A4B1B78DBB218466F
:4004400005F04EFD322008F0AFF9764B1B78DAB2744B93F85C30DBB21046194606F068FC322008F0A1F9724B00221A70FB790133FB713EE06B4B1B78DAB26A4B93F85C30D8
:40048000DBB21046194606F053FC322008F08CF9674B00221A70FB790133FB7129E0644B08221A70634B01221A70FB790133FB711FE05F4B0B221A70FB790133FB7118E02D
:4004C0005B4B0C221A70FB790133FB7111E0584B0C221A70FB790133FB710AE0544B0B221A700120082107F06DFCFB790133FB7100BF4D4B1B78DBB2184605F097FB034687
:40050000BB71BB790C2B00F2868001A252F823F04505000017060000170600001706000017060000170600004D05000089050000B3050000CF050000F3050000E505000003
:4005400001060000384BFF221A7064E0364B1B78DBB2184605F0C4FC322008F025F9324B1B78DAB2304B93F85C30DBB21046194606F0DEFB322008F017F92C4B00221A702A
:40058000FB790133FB7146E0274B1B78DAB2264B93F85C30DBB21046194606F0C9FB322008F002F9214B00221A70FB790133FB7131E01E4B08221A701E4B02221A70022014
:4005C000082107F0FFFBFB790133FB7123E0174B0B221A700220082107F0F4FBFB790133FB7118E0114B0C221A70FB790133FB7111E00E4B0C221A70FB790133FB710AE04C
:400600000A4B0B221A700220082107F0DBFBFB790133FB7100BFFB79012B7FF67BAE0837BD4680BD5886FF1F5882FF1F0384FF1F5685FF1F4F86FF1F80B586B000AF08F06F
:40064000B9FB0346052B40F28C8508F0B3FB03463B820A2008F0A8F808F0ACFB0346FB813A8AFB899A4240F07C85AB4B1B78DBB2422B40F06E85A84B5B78DBB2422B40F04D
:400680006885A54B9B78DBB2422B40F06285A34B00221A70A04BDB78DBB2303B152B00F2448501A252F823F0010700007D0E00002B110000490F00002B1100002B110000CF
:4006C0002B1100002B1100002B1100002B1100002B1100002B1100002B1100002B1100002B1100002B1100002B1100002B1100002B1100002B1100002B110000EF0E000079
:40070000854B1B79DBB2312B40F0DA81824B0022DA70814B5B79DBB24E2B0BD17E4B1B79DBB203F00F03DBB218461C21FFF7ACFD00F0FBBC784B9B7ADBB2462B7ED1784BE1
:400740009B7E5A1E774913469B0013440B4448339B78DBB203F00F03DBB23B72704B9B7E5A1E704913469B0013440B4449339B78DBB203F00F03DBB27B72694B9B7E5A1EB5
:40078000684913469B0013440B444A339B78DBB203F00F03DBB2BB72614B9B7E5A1E614913469B0013440B444B339B78DBB203F00F03DBB2FB725A4B9B7E5A1E5949134643
:4007C0009B0013440B444C339B78DBB203F00F03DBB23B73534B1B78DBB203F00F03D9B24F4B9B7E07F10802084611461A4606F061F90346002B40F09B804B4B4D221A70B3
:40080000494B55225A70484B58229A70464B4522DA70454B30221A713F4B1B79DAB2424B5A71414B31229A713F4B2A22DA710823FB823A4B01221A7000F077BC394B1B78FC
:40084000DAB2384B93F85C30DBB21046194606F06FFA364B1B78DBB2012B11D12E4B5B7ADBB23B732C4B1B7ADBB2FB722A4BDB79DBB2BB72284B9B79DBB27B7200233B721F
:400880002A4B1B78DBB2002B13D1234B9B7ADBB23B73214B5B7ADBB2FB721F4B1B7ADBB2BB721D4BDB79DBB27B721B4B9B79DBB23B721C4B1B78DBB203F00F03D9B2184B7E
:4008C0009B7E07F10802084611461A4606F0F2F80346002B2CD1144B4D221A70124B55225A70114B58229A700F4B4522DA700E4B30221A71084B1B79DAB20B4B5A710A4B87
:4009000031229A71084B2A22DA710823FB82034B01221A7000F009BC8488FF1F2A83FF1FDC86FF1F5886FF1F6084FF1F3E85FF1FAF4B5B7CDBB27B70AD4B5B7CDBB22C2BC7
:4009400006D0AB4B5B7CDBB203F00F03DBB27B70A74B1B7CDBB2BB70A54B1B7CDBB22C2B06D0A34B1B7CDBB203F00F03DBB2BB709F4BDB7BDBB2FB709D4BDB7BDBB22C2B1F
:4009800006D09B4BDB7BDBB203F00F03DBB2FB70974B9B7BDBB23B71954B9B7BDBB22C2B06D0934B9B7BDBB203F00F03DBB23B718F4B5B7BDBB27B718D4B5B7BDBB22C2B40
:4009C00006D08B4B5B7BDBB203F00F03DBB27B71874B1B7BDBB2BB71854B1B7BDBB22C2B06D0834B1B7BDBB203F00F03DBB2BB717F4BDB7ADBB2FB717D4BDB7ADBB22C2B61
:400A000006D07B4BDB7ADBB203F00F03DBB2FB71774B9B7CDBB27B827B8A312B02D102237B8201E001237B82724B1B78DBB203F00F03D8B2704B997E7B8ADBB23A4605F03A
:400A4000F9FB0346012B1BD10A2007F0ADFE694B1B78DBB2DBB203F00F03DBB243F01003DBB2DBB2184608F0AFF8624B06225A70624B08221A700120082107F0A3F9FCE14B
:400A80005F4B4D221A705E4B55225A705C4B58229A705B4B4522DA70594B30221A71544B1B79DAB2564B5A71554B32229A71544B2A22DA710823FB82524B01221A7034E33D
:400AC0004B4B0022DA704A4B5B79DBB24E2B0AD1474B1B79DBB203F00F03DBB218461C21FFF7D2FB21E3424B9B7ADBB2462B40F08F80454B9B7E5A1E444913469B0013442B
:400B00000B4448339B78DBB203F00F03DBB23B723D4B9B7E5A1E3D4913469B0013440B4449339B78DBB203F00F03DBB27B72364B9B7E5A1E354913469B0013440B444A3391
:400B40009B78DBB203F00F03DBB2BB722E4B9B7E5A1E2E4913469B0013440B444B339B78DBB203F00F03DBB2FB72274B9B7E5A1E264913469B0013440B444C339B78DBB2B3
:400B800003F00F03DBB23B73204B1B78DBB203F00F03D9B21C4B9B7E07F10802084611461A4605F087FF0346002B40F09E80144B4D221A70124B55225A70114B58229A7040
:400BC0000F4B4522DA700E4B30221A71084B1B79DAB20B4B5A710A4B31229A71084B2A22DA710823FB82074B01221A709DE200BF8488FF1F5886FF1FDC86FF1F5685FF1FFF
:400C00006084FF1F2A83FF1F5885FF1F5882FF1FAE4B1B78DAB2AD4B93F85C30DBB21046194606F085F8AA4B1B78DBB2012B11D1A84B5B7ADBB23B73A64B1B7ADBB2FB7272
:400C4000A44BDB79DBB2BB72A24B9B79DBB27B7200233B729E4B1B78DBB2002B13D19D4B9B7ADBB23B739B4B5B7ADBB2FB72994B1B7ADBB2BB72974BDB79DBB27B72954B64
:400C80009B79DBB23B72914B1B78DBB203F00F03D9B2914B9B7E07F10802084611461A4605F008FF0346002B1FD18C4B4D221A708A4B55225A70894B58229A70874B452287
:400CC000DA70864B30221A71824B1B79DAB2834B5A71824B31229A71804B2A22DA710823FB827F4B01221A701FE27A4B5B7CDBB27B70784B5B7CDBB22C2B06D0754B5B7CCA
:400D0000DBB203F00F03DBB27B70724B1B7CDBB2BB70704B1B7CDBB22C2B06D06D4B1B7CDBB203F00F03DBB2BB706A4BDB7BDBB2FB70684BDB7BDBB22C2B06D0654BDB7B2C
:400D4000DBB203F00F03DBB2FB70624B9B7BDBB23B71604B9B7BDBB22C2B06D05D4B9B7BDBB203F00F03DBB23B715A4B5B7BDBB27B71584B5B7BDBB22C2B06D0554B5B7B4C
:400D8000DBB203F00F03DBB27B71524B1B7BDBB2BB71504B1B7BDBB22C2B06D04D4B1B7BDBB203F00F03DBB2BB714A4BDB7ADBB2FB71484BDB7ADBB22C2B06D0454BDB7A6E
:400DC000DBB203F00F03DBB2FB71424B9B7CDBB27B827B8A312B02D102237B8201E001237B823A4B1B78DBB203F00F03D8B23A4B997E7B8ADBB23A4605F01CFA0346012B80
:400E00001BD10A2007F0D0FC304B1B78DBB2DBB203F00F03DBB243F01003DBB2DBB2184607F0D2FE294B06225A702E4B08221A700120082106F0C6FF1FE0284B4D221A7097
:400E4000264B55225A70254B58229A70234B4522DA70224B30221A711E4B1B79DAB21F4B5A711E4B32229A711C4B2A22DA710823FB821B4B01221A7057E156E1012037213C
:400E800006F0A0FF184B1B78DBB21A46164B1B78DBB203F00F039A4206D1134B01225A70104B00221A7021E0084B1B78DBB21A46084B1B79DBB203F00F039A4216D1034BD1
:400EC00001225A70074B00221A702EE15882FF1F3E85FF1F8488FF1F5885FF1F6084FF1F2A83FF1F5685FF1F5886FF1F1DE19E4B5B79DBB2313B032B00F2168101A252F8E0
:400F000023F000BF150F0000250F0000350F0000450F0000954B01225A7001201C21FFF7B3F910E0914B01225A7001200C21FFF7ABF908E08D4B01225A7001200C21FFF790
:400F4000A3F900E000BFEFE0874B1B79DBB2303BDAB2864B83F85C20834B5B79DBB2303BDAB2824B83F859207F4B9B79DBB2303BDAB27E4B83F85A207B4BDB79DBB2303B9C
:400F8000DAB27A4B83F85B20774B1B7ADBB2303BDAB2774B83F85C20734B5B7ADBB2303BDAB2734B83F859206F4B9B7ADBB2303BDAB26F4B83F85A206B4BDB7ADBB2303B88
:400FC000DAB26B4B83F85B20674B1B7BDBB2303BDAB2684B5A70644B5B7BDBB2303BDAB2644B9A70604B9B7BDBB2303BDAB2614BDA705D4BDB7BDBB2303BDAB25E4B1A70BE
:40100000594B1B7CDBB2303BDAB25C4B1A70564B5B7CDBB2303BDAB2594B1A70524B9B7CDBB2303BDAB2574B1A70504B93F85C30DBB218460F2109F0E5F84C4B93F85930E4
:40104000DBB21846102109F0DDF8484B93F85A30DBB21846112109F0D5F8444B93F85B30DBB21846122109F0CDF8414B93F85C30DBB21846132109F0C5F83D4B93F8593066
:40108000DBB21846142109F0BDF8394B93F85A30DBB21846152109F0B5F8354B93F85B30DBB21846162109F0ADF8334B1B78DBB21846172109F0A6F82E4B5B78DBB21846AA
:4010C0001E2109F09FF82B4B9B78DBB218461F2109F098F8274BDB78DBB21846202109F091F8264B1B78DBB21846212109F08AF8234B1B78DBB21846222109F083F8214BB6
:401100001B78DBB21846232109F07CF801203C2106F058FE4FF4FA7007F046FBFEF7B2FF194B00221A7000E000BF184B1B78012B0FD10023BB8208E0BB8A154AD35C184601
:4011400007F0C0FEBB8A0133BB82BA8AFB8A9A42F2D307F079FE07F0F9FC00233B820023FB811837BD4680BD8488FF1F5886FF1F5882FF1FD882FF1F3E85FF1F8287FF1F94
:401180005585FF1F5482FF1F5685FF1F2A83FF1F6084FF1FB0B58EB002AFCD4B1B78DBB2662B04F29B8401A252F823F0491300009D1400009F1500009B1A00006D1B00004D
:4011C000391F0000DD200000DD5A0000C121000051240000DD5A0000772D00005B300000F94600005D5200007F540000B955000053580000DD5A0000F5580000051500008E
:4012000063130000DD5A0000DD5A0000DD5A0000DD5A0000DD5A0000DD5A0000DD5A0000DD5A0000DD5A0000DD5A0000DD5A0000DD5A0000DD5A0000DD5A0000DD5A0000FF
:40124000DD5A0000DD5A0000DD5A0000DD5A0000DD5A0000DD5A0000DD5A0000DD5A0000DD5A0000DD5A0000DD5A0000DD5A0000DD5A0000DD5A0000DD5A0000DD5A0000FE
:40128000DD5A0000DD5A0000DD5A0000DD5A0000DD5A0000DD5A0000DD5A0000DD5A0000DD5A0000DD5A0000DD5A0000DD5A0000DD5A0000DD5A0000DD5A0000DD5A0000BE
:4012C000DD5A0000DD5A0000DD5A0000DD5A0000DD5A0000DD5A0000DD5A0000DD5A0000DD5A0000DD5A0000DD5A0000DD5A0000DD5A0000DD5A0000DD5A0000DD5A00007E
:40130000DD5A0000DD5A0000DD5A0000DD5A0000DD5A0000DD5A0000DD5A0000DD5A0000DD5A0000DD5A0000DD5A0000DD5A0000DD5A0000DD5A0000DD5A0000BD5A00005D
:40134000DD5A0000DD5A0000624808F01FFC08F0E7FC614B00221A705D4B15221A7004F0BDBB012006F0DEFD0346012B70D10120332106F037FE0346002B69D0002387F8A3
:401380002F301CE097F82F40012006F0B1FE03461A46524B234483F8232097F82F3097F82F204E490A4492F823104D4A13440A4683F8232097F82F30013387F82F3097F8AA
:4013C0002F30072BDED9474B00221A70002387F82F3014E0434B197897F82F303F4A134493F823300846194606F0DCFE03461A463C4B1A7097F82F30013387F82F3097F8E1
:401400002F30062BE6D9354B93F82A20354B1B789A421DD10120132106F0D4FC4FF4FA7007F0C2F9304B00221A70304B0A221A702F4B02221A802F4B03221A802E4B01224C
:401440001A80234B14221A7001202E2106F0BAFC08F010F90346082B1ED1284B1B78DBB2AA2B12D1254B9B79DBB2C32B0DD1234BDB79DBB23C2B08D1204BDB78DBB23B2BB4
:4014800003D1134B00221A7000BF642007F08CF908F038F904F022BB04F020BB08F0EAF80346082B11D108F083FB08F049FC01202E2106F087FC064B14221A7008F022F9CE
:4014C0000F4B00221A7004F009BB04F007BB00BF5685FF1F095B00002885FF1FDC86FF1F5885FF1F2583FF1F3F85FF1F0884FF1FB686FF1FDC82FF1F0084FF1F788EFF1F28
:401500004F86FF1F08F0B6F80346082B45D1BC4B1B78DBB2AA2B39D1B94B9B79DBB2C32B34D1B74BDB79DBB23C2B2FD1B44BDB78DBB2572B11D0942B1DD0562B26D1012011
:40154000242106F03FFCAF4B01221A70AE4B0C221A70AE4B08221A7018E00120242106F031FCA84B02221A70A74B0C221A70A74B08221A700AE00120722106F023FCA14BDF
:4015800001221A70A04B0F221A7000BF642007F00BF908F0B7F804F0A1BA04F09FBA08F069F80346082B40F07682954B1B78DBB2AA2B40F06982924B9B79DBB2C32B40F0CE
:4015C00063828F4BDB79DBB23C2B40F05D828C4BDB78DBB2592B1AD0592B02DC452B0ED052E25C2B03D07E2B00F046824CE20120492106F0E7FB844B03221A7044E20120BB
:40160000722106F0DFFB804B0F221A703CE20120392106F0D7FB7E4B4D221A707C4B55225A707B4B58229A70794B3222DA70754B1B78DBB2012B40F01181764B1B78DAB23C
:40164000744B93F85C30DBB21046194605F070FB322007F0A9F8042387F82D30002387F82F3018E097F82D3097F82F2069490A449278D2B202F00F02D2B23032D1B2644A9A
:40168000D15497F82D30013387F82D3097F82F30013387F82F3097F82F300B2BE2D90C2387F82F3018E097F82D3097F82F2059490A449278D2B202F00F02D2B23032D1B271
:4016C000534AD15497F82D30013387F82D3097F82F30013387F82F3097F82F30172BE2D9002387F82F3018E097F82D3097F82F2048490A44927ED2B202F00F02D2B2303222
:40170000D1B2434AD15497F82D30013387F82D3097F82F30013387F82F3097F82F300B2BE2D90C2387F82F3018E097F82D3097F82F2038490A44927ED2B202F00F02D2B2E0
:401740003032D1B2324AD15497F82D30013387F82D3097F82F30013387F82F3097F82F30172BE2D9002387F82F3019E097F82D3097F82F2027490A4492F83220D2B202F028
:401780000F02D2B23032D1B2214AD15497F82D30013387F82D3097F82F30013387F82F3097F82F300B2BE1D90C2387F82F3019E097F82D3097F82F2016490A4492F83220EC
:4017C000D2B202F00F02D2B23032D1B2104AD15497F82D30013387F82D3097F82F30013387F82F3097F82F30172BE1D9084B2A2283F84B2007F028FB002387F82F3017E0FD
:40180000788EFF1F4F86FF1F5685FF1FD782FF1F6084FF1F5886FF1F97F82F30CB4AD35C184607F04FFB97F82F30013387F82F3097F82F304B2BEFD9FA2006F0B5FF07F06B
:40184000B9FA0346012B09D901204A2106F0BAFABF4B00221A70BF4B01225A70BE4B1B78DBB2022B40F00581BC4B1B78DAB2BB4B93F85C30DBB21046194605F059FA322050
:4018800006F092FF042387F82D30002387F82F3018E097F82D3097F82F20B0490A449278D2B202F00F02D2B23032D1B2A74AD15497F82D30013387F82D3097F82F30013366
:4018C00087F82F3097F82F300B2BE2D90C2387F82F3018E097F82D3097F82F209F490A449278D2B202F00F02D2B23032D1B2974AD15497F82D30013387F82D3097F82F303C
:40190000013387F82F3097F82F30172BE2D9002387F82F3018E097F82D3097F82F208F490A44927ED2B202F00F02D2B23032D1B2864AD15497F82D30013387F82D3097F841
:401940002F30013387F82F3097F82F300B2BE2D90C2387F82F3018E097F82D3097F82F207E490A44927ED2B202F00F02D2B23032D1B2764AD15497F82D30013387F82D3052
:4019800097F82F30013387F82F3097F82F30172BE2D9002387F82F3019E097F82D3097F82F206E490A4492F83220D2B202F00F02D2B23032D1B2654AD15497F82D300133B3
:4019C00087F82D3097F82F30013387F82F3097F82F300B2BE1D90C2387F82F3019E097F82D3097F82F205D490A4492F83220D2B202F00F02D2B23032D1B2544AD15497F84B
:401A00002D30013387F82D3097F82F30013387F82F3097F82F30172BE1D94C4B2A2283F84B2007F011FA002387F82F300BE097F82F30464AD35C184607F044FA97F82F306A
:401A4000013387F82F3097F82F304B2BEFD9FA2006F0AAFE07F0AEF90346012B09D901204A2106F0AFF93A4B00221A703B4B01225A7007F0E9F907E001204A2106F0A2F9D0
:401A8000334B00221A7000BF642006F08DFE07F039FE04F023B804F021B807F0EBFD0346082B50D12E4B1B78DBB2AA2B44D12C4B9B79DBB2C32B3FD1294BDB79DBB23C2B9D
:401AC0003AD1274BDB78DBB25F2B09D05F2B02DC5E2B13D030E07E2B1ED0942B24D02BE00120122106F06EF91E4B00221A701E4B08221A70164B0B221A701DE001201221A1
:401B000006F060F9174B01221A70114B0B221A70154B00221A700FE001204A2106F052F90B4B00221A7007E00120632106F04AF9074B01221A7000BF642006F035FE07F043
:401B4000E1FD03F0CBBF03F0C9BF00BF6084FF1F5685FF1F5886FF1F4F86FF1F5882FF1F788EFF1F0284FF1FD782FF1F07F082FD0346082B40F0DE81BD4B1B78DBB2AA2B31
:401B800040F0D181BA4B9B79DBB2C32B40F0CB81B74BDB79DBB23C2B40F0C581B44BDB78DBB23B2B00F0B3813B2B05DC0F2B0AD0102B00F09280B6E1432B00F018817E2B9B
:401BC00000F0A981AFE1AB4B1B78DBB2012B3ED1002387F82F300AE097F82F30A64A13440022DA7697F82F30013387F82F3097F82F30072BF0D9A14B00221A70A04B0122C9
:401C00001A70A04B2C221A709F4B5B78DAB29F4B1A70994B0122DA769D4B00221A700120062106F0CFF89B4B04221A809A4B03221A809A4B01221A800123009301202421A1
:401C40000322042306F00AF9954B0C221A70894B1B78DBB2022B3FD1002387F82F300AE097F82F308F4A13440022DA7697F82F30013387F82F3097F82F30072BF0D97F4B28
:401C800000221A707E4B01221A707E4B2C221A707D4B5B78DAB27D4B1A70824B0122DA767B4B00221A700120062106F08BF8794B04221A80784B03221A80784B01221A80EF
:401CC00001230093012024210322042306F0C6F8734B0C221A7026E125E1664B1B78DBB2012B3ED1002387F82F300AE097F82F30614A13440022DA7697F82F30013387F84A
:401D00002F3097F82F30072BF0D95C4B00221A705B4B01221A705B4B2C221A705A4B5B78DAB25A4B1A70544B0222DA76584B00221A7001200D2106F045F8564B04221A80BF
:401D4000554B03221A80554B01221A800123009301204C210322042306F080F8504B0C221A70444B1B78DBB2022B3FD1002387F82F300AE097F82F303F4A13440022DA763E
:401D800097F82F30013387F82F3097F82F30072BF0D93A4B00221A70394B01221A70394B2C221A70384B5B78DAB2384B1A703D4B0222DA76364B00221A7001200D2106F01F
:401DC00001F8344B04221A80334B03221A80334B01221A800123009301204C210322042306F03CF82E4B0C221A709CE09BE0214B1B78DBB2012B32D1002387F82F300AE0AA
:401E000097F82F301C4A13440022DA7697F82F30013387F82F3097F82F30072BF0D9164B0322DA76052387F82F300AE097F82F30114A13440922DA7697F82F30013387F81A
:401E40002F3097F82F30072BF0D90120072105F0B9FF154B02225A70114B06221A70054B1B78DBB2022B51D1002387F82F3028E0788EFF1F4F86FF1FDC86FF1F3F85FF1F87
:401E8000D782FF1FB582FF1FD882FF1F0884FF1F5782FF1FB686FF1FDC82FF1F0084FF1F5685FF1F5885FF1F5886FF1F97F82F30BB4A13440022DA7697F82F30013387F878
:401EC0002F3097F82F30072BF0D9B64B0322DA76052387F82F300AE097F82F30B04A13440922DA7697F82F30013387F82F3097F82F30072BF0D90120072105F063FFAA4BFC
:401F000002225A70A94B06221A700CE00BE0A74B00221A7007E001204A2105F053FFA34B00221A7000BF642006F03EFC07F0EAFB03F0D4BD03F0D2BD9D4B1B78DBB2012BBB
:401F400061D1322006F030FC07F094FB0346082B1AD1984B1B78DBB2AA2B11D1954B9B79DBB2C32B0CD1934BDB79DBB23C2B07D1904BDB78DBB27E2B02D18C4B00221A7010
:401F800007F0C0FB03F0AABD8B4B1B78DBB2184603F04CFE034687F82F3097F82F30072B06D1824B06221A70322006F0FDFB2AE097F82F30002B0ED1322006F0F5FB7E4BA4
:401FC0001B78DAB207F11403104601211A46022304F030F917E097F82F300C2B04D101205521FEF751F90EE097F82F300B2B03D16E4B0D221A7006E097F82F300A2B02D19E
:402000006A4B0D221A706A4B1B78DBB2022B63D1322006F0C9FB07F02DFB0346082B1AD1644B1B78DBB2AA2B11D1624B9B79DBB2C32B0CD15F4BDB79DBB23C2B07D15D4B59
:40204000DB78DBB27E2B02D1584B00221A7007F059FB03F043BD544B1B78DBB2184603F0E5FD034687F82F3097F82F30072B06D14E4B06221A70322006F096FB2CE097F8A8
:402080002F30002B0ED1322006F08EFB464B1B78DAB207F11403104601211A46022304F0C9F819E097F82F300C2B04D101205521FEF7EAF810E097F82F300B2B03D13B4BA6
:4020C0000D221A7008E097F82F300A2B04D1374B0D221A7003F002BD03F000BD344B1B78DBB2012B29D10A2006F05EFB324B1B78DBB2184603F036FE03461A46294B9A761D
:40210000284B9B7E002B18D0142006F04DFB2A4B1B78DBB2184603F089FD0346072B0CD1264B00221A80244B04225A700120392105F048FE1D4B09221A701D4B1B78DBB2E3
:40214000022B2BD10A2006F02FFB174B1B78DBB2184603F007FE03461A46114B9A76104B9B7E002B1AD0142006F01EFB0E4B1B78DBB2184603F05AFD0346072B0ED10F4B5E
:4021800000221A80084B04225A700120392105F019FE064B09221A7003F0A0BC03F09EBC5885FF1FDC86FF1F5882FF1F5685FF1F4F86FF1F788EFF1F5886FF1F2883FF1FAF
:4021C000322006F0F1FAAF4B1B78DBB2012B40F09B80AD4B1B78DBB2184603F027FD03460A2B32D00B2B02D0062B59D08CE0642006F0DAFA002387F82F3010E097F82F3013
:40220000A24A13440022DA7197F82F309F4A134400221A7497F82F30013387F82F3097F82F30082BEAD9984B1B78DBB2184603F057FE0346012B07D1954B0D221A7001207C
:40224000392105F0BFFD5FE05EE0002387F82F3010E097F82F308D4A13440022DA7197F82F308A4A134400221A7497F82F30013387F82F3097F82F30082BEAD9824B1B784F
:40228000DBB2184603F02CFE0346012B07D1804B0D221A700120392105F094FD34E033E0002387F82F3010E097F82F30774A13440022DA7197F82F30744A134400221A7406
:4022C00097F82F30013387F82F3097F82F30082BEAD9002387F82F300AE097F82F306B4A134400229A7097F82F30013387F82F3097F82F30042BF0D9654B0D221A70012079
:40230000392105F05FFD00BF5E4B1B78DBB2022B40F09C805F4B1B78DBB2184603F086FC03460A2B33D00B2B03D0062B5AD003F0D5BB642006F038FA002387F82F3010E04F
:4023400097F82F30544A13440022DA7197F82F30514A134400221A7497F82F30013387F82F3097F82F30082BEAD94A4B1B78DBB2184603F0B5FD0346012B07D1444B0D22D6
:402380001A700120392105F01DFD5FE05EE0002387F82F3010E097F82F303F4A13440022DA7197F82F303C4A134400221A7497F82F30013387F82F3097F82F30082BEAD901
:4023C000344B1B78DBB2184603F08AFD0346012B07D12F4B0D221A700120392105F0F2FC34E033E0002387F82F3010E097F82F30294A13440022DA7197F82F30264A134496
:4024000000221A7497F82F30013387F82F3097F82F30082BEAD9002387F82F300AE097F82F301D4A134400229A7097F82F30013387F82F3097F82F30042BF0D9144B0D22D1
:402440001A700120392105F0BDFC00BF03F046BB124B4D221A70114B55225A700F4B58229A700E4B3022DA70064B1B78DBB2012B40F031820A4B1B78012B52D1002387F8D7
:402480002F304AE04F86FF1F5886FF1FDC86FF1F5685FF1F5882FF1F5885FF1F6084FF1F0284FF1F97F82F305B08DBB21A46214B134493F823301B0987F82E3097F82F30C4
:4024C00003F00103DBB2002B0CD197F82F305B08DBB21A46174B134493F8233003F00F0387F82E3097F82F30043397F82E203032D1B2114AD15497F82E30092B08D997F8A1
:402500002F30043397F82E203732D1B20A4AD15497F82F30013387F82F3097F82F300F2BC0D9064B1B78002B49D1002387F82F3041E000BFDC86FF1F6084FF1F0284FF1FD2
:4025400097F82F305B08DBB21A46B54B134493F823301B0987F82E3097F82F3003F00103DBB2002B0CD197F82F305B08DBB21A46AB4B134493F8233003F00F0387F82E3022
:4025800097F82F30043397F82E203032D1B2A54AD15497F82E30092B08D997F82F30043397F82E203732D1B29E4AD15497F82F30013387F82F3097F82F300F2BC0D9984B7F
:4025C0009B7E013B984A134493F85930DBB23033DAB2944B1A75954B1B78002B13D1944B1B79DAB28F4B5A75914BDB78DAB28D4B9A758F4B9B78DAB28A4BDA758C4B5B783C
:40260000DAB2884B1A76894B1B78012B0BD1854B30225A75834B30229A75824B3022DA75804B30221A76834B1B78DBB2002B59D17B4B9B7E5A1E7C4913469B0013440B4408
:402640004C339B78DBB203F00F03DBB23033DAB2744B5A76724B9B7E5A1E734913469B0013440B444B339B78DBB203F00F03DBB23033DAB26B4B9A76694B9B7E5A1E6A492A
:4026800013469B0013440B444A339B78DBB203F00F03DBB23033DAB2624BDA76604B9B7E5A1E614913469B0013440B4449339B78DBB203F00F03DBB23033DAB2594B1A7793
:4026C000574B9B7E5A1E584913469B0013440B4448339B78DBB203F00F03DBB23033DAB2504B5A77534B1B78DBB2012B4AD14C4B9B7E5A1E4C4913469B0013440B444B338A
:402700009B78DBB203F00F03DBB23033DAB2454B5A76434B9B7E5A1E434913469B0013440B444A339B78DBB203F00F03DBB23033DAB23C4B9A763A4B9B7E5A1E3A491346AC
:402740009B0013440B4449339B78DBB203F00F03DBB23033DAB2334BDA76314B9B7E5A1E314913469B0013440B4448339B78DBB203F00F03DBB23033DAB22A4B1A77294B76
:4027800030225A77264BDB7E3033DAB2254B9A77234B93F82220234BDA77214B93F82230092B06D81E4B93F822303033DAB21D4BDA771B4B93F821201A4B83F82020184BC4
:4027C00093F82130092B07D8154B93F821303033DAB2144B83F82020114B93F82020114B83F821200E4B93F82030092B07D80C4B93F820303033DAB20A4B83F82120084B9A
:40280000DA7F084B83F82220054BDB7F092B13D8034BDB7F3033DAB2024B83F822200BE0DC86FF1F6084FF1F5886FF1F0284FF1F2C85FF1F3E85FF1F514B9A7F514B83F83C
:4028400023204F4B9B7F092B06D84D4B9B7F3033DAB24C4B83F82320494B5A7F494B83F82420474B5B7F092B06D8454B5B7F3033DAB2444B83F82420414B1A7F414B83F848
:4028800025203F4B1B7F092B06D83D4B1B7F3033DAB23C4B83F82520002387F82F3012E097F82F30263397F82F20013234490A4492F843203032D1B2324AD15497F82F30CE
:4028C000013387F82F3097F82F30062BE8D92D4B312283F82D202C4B1B78DBB2022B40F028822A4B1B78012B42D1002387F82F303AE097F82F305B08DBB21A46244B13444F
:4029000093F823301B0987F82E3097F82F3003F00103DBB2002B0CD197F82F305B08DBB21A461B4B134493F8233003F00F0387F82E3097F82F30043397F82E203032D1B29C
:40294000104AD15497F82E30092B08D997F82F30043397F82E203732D1B20A4AD15497F82F30013387F82F3097F82F300F2BC0D9064B1B78002B4CD1002387F82F3044E05D
:40298000DC86FF1F6084FF1F4F86FF1F0284FF1F5885FF1F97F82F305B08DBB21A46B54B134493F823301B0987F82E3097F82F3003F00103DBB2002B0CD197F82F305B08C4
:4029C000DBB21A46AB4B134493F8233003F00F0387F82E3097F82F30043397F82E203032D1B2A54AD15497F82E30092B08D997F82F30043397F82E203732D1B29E4AD154E5
:402A000097F82F30013387F82F3097F82F300F2BC0D9984B9B7E013B984A134493F85930DBB23033DAB2944B1A75954B1B78002B13D1944B1B79DAB28F4B5A75914BDB780D
:402A4000DAB28D4B9A758F4B9B78DAB28A4BDA758C4B5B78DAB2884B1A76894B1B78012B0BD1854B30225A75834B30229A75824B3022DA75804B30221A76834B1B78DBB215
:402A8000002B59D17B4B9B7E5A1E7C4913469B0013440B444C339B78DBB203F00F03DBB23033DAB2744B5A76724B9B7E5A1E734913469B0013440B444B339B78DBB203F027
:402AC0000F03DBB23033DAB26B4B9A76694B9B7E5A1E6A4913469B0013440B444A339B78DBB203F00F03DBB23033DAB2624BDA76604B9B7E5A1E614913469B0013440B44D5
:402B000049339B78DBB203F00F03DBB23033DAB2594B1A77574B9B7E5A1E584913469B0013440B4448339B78DBB203F00F03DBB23033DAB2504B5A77534B1B78DBB2012B63
:402B40004AD14C4B9B7E5A1E504913469B0013440B444B339B78DBB203F00F03DBB23033DAB2454B5A76434B9B7E5A1E474913469B0013440B444A339B78DBB203F00F0375
:402B8000DBB23033DAB23C4B9A763A4B9B7E5A1E3E4913469B0013440B4449339B78DBB203F00F03DBB23033DAB2334BDA76314B9B7E5A1E354913469B0013440B444833C0
:402BC0009B78DBB203F00F03DBB23033DAB22A4B1A77294B30225A77264BDB7E3033DAB2254B9A77234B93F82220234BDA77284B93F82230092B06D81E4B93F822303033D8
:402C0000DAB21D4BDA771B4B93F821201A4B83F820201F4B93F82130092B07D8154B93F821303033DAB2144B83F82020114B93F82020114B83F821200E4B93F82030092BB8
:402C400007D80C4B93F820303033DAB20A4B83F82120084BDA7F084B83F82220054BDB7F092B17D8034BDB7F3033DAB2024B83F822200FE05885FF1F6084FF1F5882FF1F35
:402C80000284FF1F2C85FF1F3E85FF1F5886FF1FDC86FF1F9F4B9A7F9F4B83F823209D4B9B7F092B06D89B4B9B7F3033DAB29A4B83F82320974B5A7F974B83F82420954BB7
:402CC0005B7F092B06D8934B5B7F3033DAB2924B83F824208F4B1A7F8F4B83F825208D4B1B7F092B06D88B4B1B7F3033DAB28A4B83F82520002387F82F3012E097F82F303F
:402D0000263397F82F20013282490A4492F843203032D1B2804AD15497F82F30013387F82F3097F82F30062BE8D97B4B322283F82D20794B2A2283F82E2006F085F800231E
:402D400087F82F300BE097F82F30734AD35C184606F0B8F897F82F30013387F82F3097F82F302E2BEFD94FF4AF7005F01DFD06F0C3F802F0B3BE694B1B78DBB2012B40F0E8
:402D80009480012005F0CEF80346012B40F08D800120332105F026F90346002B00F08580002387F82F300FE097F82F40012005F09FF903461A465A4B234483F8232097F8E1
:402DC0002F30013387F82F3097F82F30072BEBD9544B00221A70002387F82F3014E0514B197897F82F304E4A134493F823300846194605F0D7F903461A464A4B1A7097F88D
:402E00002F30013387F82F3097F82F30062BE6D9434B93F82A20434B1B789A4245D10120132104F0CFFF4FF4FA7005F0BDFC3E4B00221A703D4B0A221A703D4B02221A80A2
:402E40003C4B03221A803C4B01221A803B4B00221A703B4B1B78DBB20A2B06D10120132104F0B0FF374B13221A70354B1B78DBB2082B06D10120242104F0A4FF314B0C225A
:402E80001A702F4B1B78DBB2082B0ED02C4B1B78DBB20A2B09D02A4B02221A7001200E2104F090FF274B0C221A701C4B1B78DBB2022B40F0AC80012005F034F80346012B51
:402EC00040F0A5800120332105F08CF80346002B00F09D80002387F82F300FE097F82F40012005F005F903461A460A4B234483F8232097F82F30013387F82F3097F82F30FB
:402F0000072BEBD9074B00221A70002387F82F302FE000BF5885FF1F6084FF1F4F86FF1FDC86FF1F2583FF1F3F85FF1F0884FF1FB686FF1FDC82FF1F0084FF1F2885FF1FC9
:402F4000D782FF1F5685FF1F7F4B197897F82F307E4A134493F823300846194605F022F903461A46784B1A7097F82F30013387F82F3097F82F30062BE6D9744B93F82A2076
:402F8000714B1B789A4242D10120132104F01AFF4FF4FA7005F008FC6D4B00221A706D4B0A221A706C4B02221A806C4B03221A806B4B01221A806B4B1B78DBB20A2B06D1B9
:402FC0000120132104F0FEFE674B13221A70654B1B78DBB2082B06D10120242104F0F2FE614B0C221A705F4B1B78DBB2082B0ED05C4B1B78DBB20A2B09D05A4B02221A7090
:4030000001200E2104F0DEFE574B0C221A7006F031FB0346082B1ED1544B1B78DBB2AA2B12D1524B9B79DBB2C32B0DD14F4BDB79DBB23C2B08D14D4BDB78DBB23B2B03D19B
:40304000494B00221A7000BF642005F0ADFB06F059FB02F043BD02F041BD454B1B78DBB2012B40F0A88506F005FB0346082B40F0A2853E4B1B78DBB2AA2B40F09A853B4BAF
:403080009B79DBB2C32B40F09485384BDB79DBB23C2B40F08E85374B00221A702C4B1B78DAB22C4B1B78DBB29A4280F0D7802F4BDB78DBB2092B32D8254B1B78DBB20133D0
:4030C000DAB2234B1A70224B1B78DBB21A46274BDB78D9B2284B9954244BDB78DBB23033D9B21E4B1B889DB2194B1B78DBB29BB21B4A128892B2013292B202FB03F39AB24D
:40310000154B1B889BB213449CB2154B1B889BB2DBB2009301202A46234604F09FFE134BDB78DBB20A2B56D10E4B1B78DBB2012B24D1074B1B78DBB2012B1FD10E4B5B78B1
:40314000DBB2002B1AD146E02583FF1F5885FF1F3F85FF1F0884FF1FB686FF1FDC82FF1F0084FF1FD782FF1F5685FF1F788EFF1F4F86FF1F2885FF1F3086FF1FAF4B1B780E
:40318000DBB20133DAB2AD4B1A70AC4B1B78DBB21A46AB4B00219954AA4B1B889DB2A74B1B78DBB29BB2A84A128892B2013292B202FB03F39AB2A54B1B889BB213449CB274
:4031C000A14B1B889BB2DBB20093012030212A46234604F043FE9E4BDB78DBB2512B3DD1964B1B78DBB2002B38D09A4B1B78DBB2002B33D1914B1B78DBB20133DAB28F4B02
:403200001A708E4B1B78DBB21A46934B1B78D9B28B4B9954904B1B78D9B28A4B1B889DB2864B1B78DBB29BB2874A128892B2013292B202FB03F39AB2844B1B889BB2134473
:403240009CB2814B1B889BB2DBB2009301202A46234604F003FE7F4B01221A707C4BDB78DBB20B2B40F0A080744B1B78DBB2002B5ED17A4B1B78DBB2013B072B00F29480FF
:4032800001A252F823F000BFA9320000B9320000C1320000D7320000ED32000003330000A9330000193300000120052104F08AFD6B4B04221A703AE0694B00221A7036E058
:4032C0000120002104F07EFD654B00221A70654B01225A702BE00120002104F073FD604B00221A705F4B01225A7020E00120002104F068FD5A4B00221A705A4B01225A7007
:4033000015E00120002104F05DFD554B00221A70544B01225A700AE00120002104F052FD4F4B00221A704F4B01225A7000BF3BE0444B1B889DB2414B1B78DBB29BB2424A14
:40334000128892B2013292B202FB03F39AB23F4B1B889BB213449CB23B4B1B889BB2DBB20093012020212A46234604F077FD334B1B78DBB21A46324B9B5CDAB2364B1B784F
:40338000DBB29A4202D1334B00221A702B4B1B78DBB21A462A4B00219954284B1B78DBB2013BDAB2254B1A70294BDB78DBB20C2B40F0FF83294B1B78DBB2013B072B00F2A8
:4033C000F88301A252F823F0E93300007D35000059360000D13600002B370000193800004B380000F3390000002387F82F300CE097F82F3007F130021344002203F82C2CBB
:4034000097F82F30013387F82F3097F82F30072BEED90A4B1B78DBB2002B00F0AE80074B1B78DBB21A46064B9B5CDBB22C2B00F0A480012387F82F303FE000BF3F85FF1F13
:403440003086FF1FDC82FF1F0084FF1FB686FF1F788EFF1F5782FF1FB582FF1FD782FF1F5685FF1F5886FF1F97F82F30B14AD35CDBB22C2B0FD097F82F30013B97F82F2041
:40348000AC498A5CD2B23032D2B207F130010B4403F82C2C0CE097F82F30013B97F82F20A4498A5CD2B207F130010B4403F82C2C97F82F30013387F82F309F4B1B78DBB2DC
:4034C00097F82F209A42CFD93B1D184607F07CFAC7E90801994BDB7E012B09D1D7E908014FF00002964B07F05BFA0346002B1AD1924BDB7E022B40D1D7E908014FF0000237
:403500008F4B07F043FA0346002B00D151E3D7E908014FF000024FF0000307F04BFA0346002B00D145E3844B1B7887F82F3015E097F82F30804A1278D2B2114697F82F20DF
:403540008A1A01327B498A5CD1B27C4A13440A46DA7697F82F30013B87F82F3097F82F30002BE5D1774B05221A70774B02225A700120072104F026FC1BE31AE3002387F894
:403580002F300BE097F82F306C4A1344002283F8432097F82F30013387F82F3097F82F300A2BEFD9644B1B7887F82F3016E097F82F30614A1278D2B2114697F82F208A1A45
:4035C00001325C498A5CD1B25C4A13440A4683F8432097F82F30013B87F82F3097F82F30002BE4D1594B1B78DBB2012B33D1002387F82F300AE097F82F30504A13440022A9
:40360000DA7697F82F30013387F82F3097F82F30072BF0D9494B0322DA76052387F82F300AE097F82F30454A13440922DA7697F82F30013387F82F3097F82F30072BF0D920
:403640000120072104F0BEFB3F4B02225A703D4B06221A70ADE2ACE2374B1B7887F82F3018E097F82F30344A1278D2B2114697F82F208A1A01322F498A5CD2B23032D1B24D
:403680002E4A13440A4683F8592097F82F30013B87F82F3097F82F30002BE2D1294B02221A700120052104F08DFB234B00221A70274B04221A70274B0A221A70264B022245
:4036C0001A80264B03221A80254B01221A8070E2194B1B7887F82F3018E097F82F30164A1278D2B2114697F82F208A1A013211498A5CD2B23032D1B2104A13440A4683F827
:40370000642097F82F30013B87F82F3097F82F30002BE2D10B4B66221A700120392104F051FB094B10225A7043E2034B1B7887F82F3030E03086FF1F3F85FF1FDC86FF1F94
:40374000000014405685FF1F5886FF1F4F86FF1FD782FF1F0884FF1FB686FF1FDC82FF1F0084FF1F97F82F30AF4A1278D2B2114697F82F208A1A0132AC498A5CD2B23032B2
:40378000D1B2AB4A13440A4683F8712097F82F30013B87F82F3097F82F30002BE2D1A54B1A78A34B93F875309A4223D1A14B5A789F4B93F874309A421CD19E4B9A789C4B18
:4037C00093F873309A4215D19A4BDA78984B93F872309A420ED10120262104F0F3FAC82004F0E2FF0120462104F0ECFA924B10221A70DEE1904B00221A700120272104F033
:40380000E1FA8E4B01225A70C82004F0CDFF0120002104F0D7FACCE1834B1B78DBB21A46824B9B5CDBB218461E2106F0EBFC824B00221A7001203C2104F0C4FAC82004F0ED
:40384000B3FF7E4B01225A70B3E17B4B12221A700120582104F0B6FA794B1B78013B032B00F2988001A252F823F000BF7D380000C3380000093900004F3900006B4B5B78FD
:40388000DBB23033DAB26F4B1A706E4B1B78322B08D0332B0BD0312B0ED1684B012283F859200DE0654B012283F85A2008E0634B012283F85B2003E0634B00221A7000BF29
:4038C00068E05A4B5B78DBB23033DAB25D4B5A705C4B5B78322B08D0332B0BD0312B0ED1564B022283F859200DE0544B022283F85A2008E0514B022283F85B2003E0534B7A
:4039000000221A7000BF45E0484B5B78DBB23033DAB24C4B9A704B4B9B78322B08D0332B0BD0312B0ED1454B032283F859200DE0424B032283F85A2008E0404B032283F8D2
:403940005B2003E0424B00221A7000BF22E0374B5B78DBB23033DAB23A4BDA70394BDB78322B08D0332B0BD0312B0ED1334B042283F859200DE0314B042283F85A2008E0CB
:403980002E4B042283F85B2003E0324B00221A7000BF00BF2B4B1A78012300930120114607222C2304F05AFA264B5A7801230093012011460E222C2304F050FA214B9A7844
:4039C000012300930120114613222C2304F046FA1C4BDA78012300930120114619222C2304F03CFA154B01225A70C82004F0DCFEDFE0012387F82F3009E097F82F30164A49
:403A00000021D15497F82F30013387F82F3097F82F30042BF1D9104B04221A70024B1B7887F82F3030E000BF3F85FF1F3086FF1FDC86FF1F4481FF1F5685FF1F5886FF1FB3
:403A40008187FF1FBC82FF1F4881FF1F4981FF1F4A81FF1F4B81FF1F2C85FF1F97F82F30904A1278D2B2114697F82F208A1A01328D498A5CD2B23032D1B28C4AD15497F8C2
:403A80002F30013B87F82F3097F82F30002BE5D1864B5B78DBB22F2B17D9844B9B78DBB22F2B12D8814BDB78DBB22F2B0DD87F4B1B79DBB22F2B08D87C4B30229A707B4B97
:403AC0003022DA70794B30221A71784B5B78DBB22F2B14D9754B9B78DBB22F2B0FD9734BDB78DBB22F2B0AD8704B1B79DBB22F2B05D86E4B3022DA706C4B30221A716B4BF1
:403B00005B78DBB22F2B11D9684B9B78DBB22F2B0CD9664BDB78DBB22F2B07D9634B1B79DBB22F2B02D8614B30221A71082387F82F3011E097F82F30083B5C4AD35CDAB26C
:403B400097F82F309BB21046194606F05BFB97F82F30013387F82F3097F82F300C2BE9D9534B1B78DBB2012B12D1524B0C221A70514B02221A7001200E2104F023F9C8206E
:403B800004F012FE474B00221A704C4B01225A70474B1B78DBB2002B0AD1464B06221A700120072104F00EF9444B02225A70FFE700BF05F0A7FD424B1B78DBB2022B40F03B
:403BC000998505F057FD0346082B40F093853D4B1B78DBB2AA2B40F089853A4B9B79DBB2C32B40F08385374BDB79DBB23C2B40F07D85354B00221A702A4B1B78DAB2334B59
:403C00001B78DBB29A4280F0D9802E4BDB78DBB2092B32D8234B1B78DBB20133DAB2214B1A70204B1B78DBB21A46264BDB78D9B21D4B9954234BDB78DBB23033D9B2244BAA
:403C40001B889DB2174B1B78DBB29BB2214A128892B2013292B202FB03F39AB21E4B1B889BB213449CB21B4B1B889BB2DBB2009301202A46234604F0F1F8124BDB78DBB2FC
:403C80000A2B58D10C4B1B78DBB2012B26D1054B1B78DBB2012B21D1034B5B78DBB2002B1CD148E03F85FF1F3086FF1F2C85FF1F5585FF1F5685FF1FD782FF1F5886FF1FA7
:403CC0004F86FF1F788EFF1F2885FF1F0884FF1FDC82FF1F0084FF1FB686FF1FAF4B1B78DBB20133DAB2AD4B1A70AC4B1B78DBB21A46AB4B00219954AA4B1B889DB2A74B10
:403D00001B78DBB29BB2A84A128892B2013292B202FB03F39AB2A54B1B889BB213449CB2A14B1B889BB2DBB20093012030212A46234604F093F89E4BDB78DBB2512B3DD1F2
:403D4000964B1B78DBB2002B38D09A4B1B78DBB2002B33D1914B1B78DBB20133DAB28F4B1A708E4B1B78DBB21A46934B1B78D9B28B4B9954904B1B78D9B28A4B1B889DB2E3
:403D8000864B1B78DBB29BB2874A128892B2013292B202FB03F39AB2844B1B889BB213449CB2814B1B889BB2DBB2009301202A46234604F053F87F4B01221A707C4BDB7856
:403DC000DBB20B2B40F0A080744B1B78DBB2002B5ED17A4B1B78DBB2013B072B00F2948001A252F823F000BF093E0000193E0000213E0000373E00004D3E0000633E0000C1
:403E0000093F0000793E00000120052103F0DAFF6B4B04221A703AE0694B00221A7036E00120002103F0CEFF654B00221A70654B01225A702BE00120002103F0C3FF604BD2
:403E400000221A705F4B01225A7020E00120002103F0B8FF5A4B00221A705A4B01225A7015E00120002103F0ADFF554B00221A70544B01225A700AE00120002103F0A2FFC2
:403E80004F4B00221A704F4B01225A7000BF3BE0444B1B889DB2414B1B78DBB29BB2424A128892B2013292B202FB03F39AB23F4B1B889BB213449CB23B4B1B889BB2DBB29F
:403EC0000093012020212A46234603F0C7FF334B1B78DBB21A46324B9B5CDAB2364B1B78DBB29A4202D1334B00221A702B4B1B78DBB21A462A4B00219954284B1B78DBB2B7
:403F0000013BDAB2254B1A70294BDB78DBB20C2B40F0EC83294B1B78DBB2013B072B00F2E58301A252F823F0493F0000DD400000B9410000314200008B420000794300009E
:403F4000AB43000053450000002387F82F300CE097F82F3007F130021344002203F82C2C97F82F30013387F82F3097F82F30072BEED90A4B1B78DBB2002B00F0AE80074BF3
:403F80001B78DBB21A46064B9B5CDBB22C2B00F0A480012387F82F303FE000BF3F85FF1F3086FF1FDC82FF1F0084FF1FB686FF1F788EFF1F5782FF1FB582FF1FD782FF1F4C
:403FC0005685FF1F5882FF1F97F82F30B14AD35CDBB22C2B0FD097F82F30013B97F82F20AC498A5CD2B23032D2B207F130010B4403F82C2C0CE097F82F30013B97F82F20E9
:40400000A4498A5CD2B207F130010B4403F82C2C97F82F30013387F82F309F4B1B78DBB297F82F209A42CFD93B1D184606F0CCFCC7E90801994BDB7E012B09D1D7E90801B9
:404040004FF00002964B06F0ABFC0346002B1AD1924BDB7E022B40D1D7E908014FF000028F4B06F093FC0346002B00D13EE3D7E908014FF000024FF0000306F09BFC0346BD
:40408000002B00D132E3844B1B7887F82F3015E097F82F30804A1278D2B2114697F82F208A1A01327B498A5CD1B27C4A13440A46DA7697F82F30013B87F82F3097F82F3008
:4040C000002BE5D1774B05221A70774B02225A700120072103F076FE08E307E3002387F82F300BE097F82F306C4A1344002283F8432097F82F30013387F82F3097F82F3062
:404100000A2BEFD9644B1B7887F82F3016E097F82F30614A1278D2B2114697F82F208A1A01325C498A5CD1B25C4A13440A4683F8432097F82F30013B87F82F3097F82F308A
:40414000002BE4D1594B1B78DBB2022B33D1002387F82F300AE097F82F30504A13440022DA7697F82F30013387F82F3097F82F30072BF0D9494B0322DA76052387F82F3036
:404180000AE097F82F30454A13440922DA7697F82F30013387F82F3097F82F30072BF0D90120072103F00EFE3F4B02225A703D4B06221A709AE299E2374B1B7887F82F30F9
:4041C00018E097F82F30344A1278D2B2114697F82F208A1A01322F498A5CD2B23032D1B22E4A13440A4683F8592097F82F30013B87F82F3097F82F30002BE2D1294B0222FB
:404200001A700120052103F0DDFD234B00221A70274B04221A70274B0A221A70264B02221A80264B03221A80254B01221A805DE2194B1B7887F82F3018E097F82F30164A96
:404240001278D2B2114697F82F208A1A013211498A5CD2B23032D1B2104A13440A4683F8642097F82F30013B87F82F3097F82F30002BE2D10B4B66221A700120392103F0D1
:40428000A1FD094B10225A7030E2034B1B7887F82F3030E03086FF1F3F85FF1F5885FF1F000014405685FF1F5882FF1F4F86FF1FD782FF1F0884FF1FB686FF1FDC82FF1F4F
:4042C0000084FF1F97F82F30AF4A1278D2B2114697F82F208A1A0132AC498A5CD2B23032D1B2AB4A13440A4683F8712097F82F30013B87F82F3097F82F30002BE2D1A54B6B
:404300001A78A34B93F875309A4223D1A14B5A789F4B93F874309A421CD19E4B9A789C4B93F873309A4215D19A4BDA78984B93F872309A420ED10120262103F043FDC82006
:4043400004F032FA0120462103F03CFD924B10221A70CBE1904B00221A700120272103F031FD8E4B01225A70C82004F01DFA0120002103F027FDB9E1834B1B78DBB21A4619
:40438000824B9B5CDBB218461E2105F03BFF824B00221A7001203C2103F014FDC82004F003FA7E4B01225A70A0E17B4B12221A700120582103F006FD794B1B78013B032B00
:4043C00000F2988001A252F823F000BFDD4300002344000069440000AF4400006B4B5B78DBB23033DAB26F4B1A706E4B1B78322B08D0332B0BD0312B0ED1684B012283F83E
:4044000059200DE0654B012283F85A2008E0634B012283F85B2003E0634B00221A7000BF68E05A4B5B78DBB23033DAB25D4B5A705C4B5B78322B08D0332B0BD0312B0ED1D2
:40444000564B022283F859200DE0544B022283F85A2008E0514B022283F85B2003E0534B00221A7000BF45E0484B5B78DBB23033DAB24C4B9A704B4B9B78322B08D0332B70
:404480000BD0312B0ED1454B032283F859200DE0424B032283F85A2008E0404B032283F85B2003E0424B00221A7000BF22E0374B5B78DBB23033DAB23A4BDA70394BDB78C7
:4044C000322B08D0332B0BD0312B0ED1334B042283F859200DE0314B042283F85A2008E02E4B042283F85B2003E0324B00221A7000BF00BF2B4B1A780123009301201146B9
:4045000007222C2303F0AAFC264B5A7801230093012011460E222C2303F0A0FC214B9A78012300930120114613222C2303F096FC1C4BDA78012300930120114619222C23C2
:4045400003F08CFC1C4B01225A70C82004F02CF9CCE0012387F82F3009E097F82F30174A0021D15497F82F30013387F82F3097F82F30042BF1D9114B04221A70024B1B786C
:4045800087F82F3032E000BF3F85FF1F3086FF1FDC86FF1F4481FF1F5685FF1F5882FF1F8187FF1FBC82FF1F4881FF1F4981FF1F4A81FF1F4B81FF1F5886FF1F2C85FF1F53
:4045C00097F82F30884A1278D2B2114697F82F208A1A013285498A5CD2B23032D1B2844AD15497F82F30013B87F82F3097F82F30002BE5D17E4B5B78DBB22F2B17D97C4BC0
:404600009B78DBB22F2B12D8794BDB78DBB22F2B0DD8774B1B79DBB22F2B08D8744B30229A70734B3022DA70714B30221A71704B5B78DBB22F2B14D96D4B9B78DBB22F2B74
:404640000FD96B4BDB78DBB22F2B0AD8684B1B79DBB22F2B05D8664B3022DA70644B30221A71634B5B78DBB22F2B11D9604B9B78DBB22F2B0CD95E4BDB78DBB22F2B07D9FD
:404680005B4B1B79DBB22F2B02D8594B30221A71082387F82F3011E097F82F30083B544AD35CDAB297F82F309BB21046194605F0A9FD97F82F30013387F82F3097F82F3081
:4046C0000C2BE9D94B4B0C221A704B4B02221A7001200E2103F076FBC82004F065F8424B00221A70454B01225A7000BF05F00AF801F0F4B901F0F2B9414B1B78DBB2012BC4
:4047000040F0D1823F4B4D221A703E4B55225A703C4B58229A703B4B3122DA70394B31221A71394B5B7E013B384A134493F85930DBB23033DAB2334B5A71334B5B7D303315
:40474000DAB2304B9A71304B1B7D3033DAB22D4BDA712D4BDB7C3033DAB22A4B1A72294B2C225A72284B9B7C3033DAB2254B9A72254B5B7C3033DAB2224BDA72224B1B7C2D
:404780003033DAB21F4B1A73214B5B78DBB2072B40D11D4B9B7B3033DAB21A4B5A731A4B5B7B3033DAB2174B9A73174B1B7B3033DAB2144BDA73144BDB7A3033DAB2114B3A
:4047C0001A74114B9B7A3033DAB20E4B5A740E4B5B7A3033DAB20B4B9A740B4B1B7A3033DAB2084BDA743FE03F85FF1F3086FF1F2C85FF1F5685FF1FD782FF1F5882FF1F9C
:404800004F86FF1F6084FF1FDC86FF1F5886FF1FD882FF1F664B5B7B3033DAB2654B5A73634B1B7B3033DAB2624B9A73604BDB7A3033DAB25F4BDA735D4B9B7A3033DAB21D
:404840005C4B1A745A4B5B7A3033DAB2594B5A74574B1B7A3033DAB2564B9A74544BDB793033DAB2534BDA74534B1B78DBB2002B1DD14F4B9B793033DAB24E4B1A754C4B52
:404880005B793033DAB24B4B5A75494B1B793033DAB2484B9A75464BDB783033DAB2454BDA75434B9B783033DAB2424B1A76424B1B78DBB2012B1AD13D4B5B793033DAB2A9
:4048C0003C4B1A753A4B1B793033DAB2394B5A75374BDB783033DAB2364B9A75344B9B783033DAB2334BDA75324B30221A76334B1B79DAB22F4B5A76304BDB78DAB22D4B8C
:404900009A762E4B9B78DAB22A4BDA762B4B5B78DAB2284B1A772A4B1B78012B43D1002387F82F303AE097F82F305B08DBB21A461F4B134493F823301B0987F82E3097F8E1
:404940002F3003F00103DBB2002B0CD197F82F305B08DBB21A46164B134493F8233003F00F0387F82E3097F82F301D3397F82E203032D1B20F4AD15497F82E30092B08D916
:4049800097F82F301D3397F82E203732D1B2094AD15497F82F30013387F82F3097F82F300F2BC0D94DE0002387F82F3045E000BFDC86FF1F6084FF1F3E85FF1F2C85FF1F73
:4049C0000284FF1F97F82F305B08DBB21A467D4B134493F823301B0987F82E3097F82F3003F00103DBB2002B0CD197F82F305B08DBB21A46734B134493F8233003F00F0327
:404A000087F82E3097F82F301D3397F82E203032D1B26D4AD15497F82E30092B08D997F82F301D3397F82E203732D1B2664AD15497F82F30013387F82F3097F82F300F2BB7
:404A4000C0D9624B1B8801339AB2604B1A805F4B1B885F4AA2FB03239B099BB2DBB23033DAB25C4B1A71594B1B88594AA2FB031292094FF47A7101FB02F29B1A9BB2564A39
:404A8000A2FB03235B099BB2DBB23033DAB2514BDA704E4B1B884E4AA2FB031292094FF47A7101FB02F29B1A9BB24B4AA2FB03125209642101FB02F29B1A9BB2474AA2FB98
:404AC0000323DB089BB2DBB23033DAB2414B9A703E4B1B883E4AA2FB031292094FF47A7101FB02F29B1A9BB23B4AA2FB03125209642101FB02F29B1A9AB2384BA3FB0213EF
:404B0000D9080B469B000B445B00D31A9BB2DBB23033DAB22F4B5A70012387F82F300EE097F82F302C3397F82F202A498A5CD1B2254AD15497F82F30013387F82F3097F8EA
:404B40002F30072BECD9012387F82F3010E097F82F30204AD35CDAB297F82F309BB21046194605F04FFB97F82F30013387F82F3097F82F30042BEAD9002387F82F3012E0D8
:404B800097F82F30343397F82F2001320D490A4492F843203032D1B20B4AD15497F82F30013387F82F3097F82F30062BE8D9064B2A2283F83B2004F047F9002387F82F3017
:404BC0001AE000BFDC86FF1F6084FF1FBA82FF1FD34D62103485FF1F1F85EB51CDCCCCCC97F82F306C4AD35C184604F06BF997F82F30013387F82F3097F82F303B2BEFD901
:404C000004F022F94FF4967003F0CEFD04F074F9624B00221A70624B5B7E5A1E614913469B0013440B4448339B78DBB23B735C4B5B7E5A1E5B4913469B0013440B444933E7
:404C40009B78DBB27B73564B5B7E5A1E554913469B0013440B444A339B78DBB2BB73504B5B7E5A1E4F4913469B0013440B444B339B78DBB2FB734A4B5B7E5A1E49491346B6
:404C80009B0013440B444C339B78DBB23B74454B1B78D9B2424B5B7E07F10C02084611461A4601F007FF404B1B78DBB2022B40F0BF82394B4D221A70374B55225A70364BC5
:404CC00058229A70344B3122DA70334B32221A71364B5B7E013B364A134493F85930DBB23033DAB22C4B5A71304B5B7D3033DAB2294B9A712D4B1B7D3033DAB2264BDA71FC
:404D00002A4BDB7C3033DAB2234B1A72224B2C225A72264B9B7C3033DAB21F4B9A72234B5B7C3033DAB21C4BDA72204B1B7C3033DAB2194B1A731F4B5B78DBB2072B3BD179
:404D40001A4B9B7B3033DAB2134B5A73174B5B7B3033DAB2104B9A73144B1B7B3033DAB20D4BDA73114BDB7A3033DAB20A4B1A740E4B9B7A3033DAB2074B5A740B4B5B7A5B
:404D80003033DAB2044B9A74084B1B7A3033DAB2014BDA743AE000BF6084FF1F5686FF1FDC86FF1F5886FF1F4F86FF1F5885FF1F5882FF1FD882FF1F664B5B7B3033DAB211
:404DC000654B5A73634B1B7B3033DAB2624B9A73604BDB7A3033DAB25F4BDA735D4B9B7A3033DAB25C4B1A745A4B5B7A3033DAB2594B5A74574B1B7A3033DAB2564B9A74D2
:404E0000544BDB793033DAB2534BDA74534B1B78DBB2002B1DD14F4B9B793033DAB24E4B1A754C4B5B793033DAB24B4B5A75494B1B793033DAB2484B9A75464BDB78303349
:404E4000DAB2454BDA75434B9B783033DAB2424B1A76424B1B78DBB2012B1AD13D4B5B793033DAB23C4B1A753A4B1B793033DAB2394B5A75374BDB783033DAB2364B9A7546
:404E8000344B9B783033DAB2334BDA75324B30221A76334B1B79DAB22F4B5A76304BDB78DAB22D4B9A762E4B9B78DAB22A4BDA762B4B5B78DAB2284B1A772A4B1B78012B91
:404EC00043D1002387F82F303AE097F82F305B08DBB21A461F4B134493F823301B0987F82E3097F82F3003F00103DBB2002B0CD197F82F305B08DBB21A46164B134493F8AA
:404F0000233003F00F0387F82E3097F82F301D3397F82E203032D1B20F4AD15497F82E30092B08D997F82F301D3397F82E203732D1B2094AD15497F82F30013387F82F303D
:404F400097F82F300F2BC0D94DE0002387F82F3045E000BF5885FF1F6084FF1F3E85FF1F2C85FF1F0284FF1F97F82F305B08DBB21A46B04B134493F823301B0987F82E309E
:404F800097F82F3003F00103DBB2002B0CD197F82F305B08DBB21A46A64B134493F8233003F00F0387F82E3097F82F301D3397F82E203032D1B2A04AD15497F82E30092B01
:404FC00008D997F82F301D3397F82E203732D1B2994AD15497F82F30013387F82F3097F82F300F2BC0D9954B1B8801339AB2934B1A80924B1B88924AA2FB03239B099BB275
:40500000DBB23033DAB28F4B1A718C4B1B888C4AA2FB031292094FF47A7101FB02F29B1A9BB2894AA2FB03235B099BB2DBB23033DAB2844BDA70814B1B88814AA2FB03120A
:4050400092094FF47A7101FB02F29B1A9BB27E4AA2FB03125209642101FB02F29B1A9BB27A4AA2FB0323DB089BB2DBB23033DAB2744B9A70714B1B88714AA2FB03129209C6
:405080004FF47A7101FB02F29B1A9BB26E4AA2FB03125209642101FB02F29B1A9AB26B4BA3FB0213D9080B469B000B445B00D31A9BB2DBB23033DAB2624B5A70012387F8E5
:4050C0002F300EE097F82F302C3397F82F205D498A5CD1B2584AD15497F82F30013387F82F3097F82F30072BECD9012387F82F3010E097F82F30534AD35CDAB297F82F3057
:405100009BB21046194605F07DF897F82F30013387F82F3097F82F30042BEAD9002387F82F3012E097F82F30343397F82F20013240490A4492F843203032D1B23E4AD15474
:4051400097F82F30013387F82F3097F82F30062BE8D9394B2A2283F83B2003F075FE002387F82F300BE097F82F30334AD35C184603F0A8FE97F82F30013387F82F3097F837
:405180002F303B2BEFD903F05FFE4FF4967003F00BFB03F0B1FE2E4B00221A70254B5B7E5A1E2C4913469B0013440B4448339B78DBB23B731F4B5B7E5A1E264913469B0052
:4051C00013440B4449339B78DBB27B73194B5B7E5A1E204913469B0013440B444A339B78DBB2BB73134B5B7E5A1E1A4913469B0013440B444B339B78DBB2FB730D4B5B7E93
:405200005A1E144913469B0013440B444C339B78DBB23B74104B1B78D9B2064B5B7E07F10C02084611461A4601F044FC00F056BC00F054BC5885FF1F6084FF1FBA82FF1FF9
:40524000D34D62103485FF1F1F85EB51CDCCCCCC5686FF1F5886FF1F5882FF1F04F00AFA0346082B40F00A81A04B1B78DBB2AA2B40F0FE809D4B9B79DBB2C32B40F0F880EA
:405280009A4BDB79DBB23C2B40F0F280984B1B78DAB2984B1B78DBB29A426CD2934BDB78DBB2092B33D8924B1B78DBB201338F4AD278D2B23032D1B28F4A13440A4683F84B
:4052C00064208E4B1B889DB2894B1B78DBB29BB28B4A128892B2013292B202FB03F39AB2884B1B889BB213449CB2854B1B889BB2DBB2009301202A212A46234602F0AEFD8B
:405300007B4B1B78DBB20133DAB2794B1A70774BDB78DBB20A2B2ED1754B1B78DBB20133754A1344302283F86420744B1B889DB26F4B1B78DBB29BB2714A128892B2013284
:4053400092B202FB03F39AB26E4B1B889BB213449CB26B4B1B889BB2DBB2009301202A212A46234602F07AFD614B1B78DBB20133DAB25F4B1A705D4BDB78DBB20B2B2ED16B
:405380005C4B1B78DBB2002B03D15F4B00221A7025E0574B1B78DBB2013BDAB2544B1A70564B1B889DB2524B1B78DBB29BB2544A128892B2013292B202FB03F39AB2514BAE
:4053C0001B889BB213449CB24D4B1B889BB2DBB20093012020212A46234602F03FFD434BDB78DBB20C2B43D1414B1B78DBB2002B3ED03F4B1B78DAB23F4B83F86420002314
:4054000087F82E303C4B93F86430042B2DD1012387F82F3015E097F82F30374A134493F8642097F82F303949CB5C9A4204D197F82E30013387F82E3097F82F30013387F809
:405440002F3097F82F30042BE5D997F82E30042B07D12D4B0F221A7001205D2102F0B2FC06E0294B00221A7002E0274B00221A70642003F099F904F045F92FE32EE304F034
:40548000F9F80346082B40F09680184B1B78DBB2AA2B40F09080154B9B79DBB2C32B40F08A80124BDB79DBB23C2B40F084800F4BDB78DBB2B92B04D0BA2B57D07E2B72D0B6
:4054C0000CE3134B4D221A70114B55225A70104B58229A700E4B3322DA700D4B2A221A7103F0B2FC002387F82F301FE0788EFF1F3F85FF1F0884FF1FDC86FF1FDC82FF1F76
:405500000084FF1FB686FF1F5685FF1F2881FF1F6084FF1F97F82F30BF4AD35C184603F0D1FC97F82F30013387F82F3097F82F30042BEFD9962003F037F90120002102F077
:4055400041FCB64B00221A70B54B1B78DBB2012B02D1B44B01225A70B14B1B78DBB2022B03D1B14B01225A7025E024E001202F2102F028FCAD4B05221A70AD4B00221A7053
:40558000AC4B2C221A70AC4B04221A70AB4B04221A80AB4B03221A80AA4B01221A809F4B0C221A7007E001204A2102F00BFC9B4B00221A7000BF91E204F05CF80346082BC2
:4055C00040F04681A04B1B78DBB2AA2B40F01D819D4B9B79DBB2C32B40F017819A4BDB79DBB23C2B40F01181974BDB78DBB2802B59D0802B05DC7E2B00F0FF807F2B07D01D
:4056000003E1812B00F09A80C22B00F0E280FCE0814B4D221A70804B55225A707E4B58229A707D4B3622DA707B4B2A221A7103F00BFC002387F82F300BE097F82F30764AFC
:40564000D35C184603F03EFC97F82F30013387F82F3097F82F30042BEFD9962003F0A4F87A4B1B78DBB2012B04D101202E2102F0A9FB03E00120152102F0A4FB674B0022BB
:405680001A70674B1B78DBB2012B02D1654B01225A70634B1B78DBB2022B03D1624B01225A70B2E0B1E05C4B4D221A705A4B55225A70594B58229A70574B3622DA70564BD3
:4056C0002A221A7103F0C0FB002387F82F300BE097F82F30504AD35C184603F0F3FB97F82F30013387F82F3097F82F30042BEFD9962003F059F8554B1B78DBB2012B04D1A3
:4057000001202E2102F05EFB03E00120152102F059FB424B00221A70414B1B78DBB2012B02D1404B01225A703D4B1B78DBB2022B03D13D4B01225A7067E066E0364B4D2237
:405740001A70354B55225A70334B58229A70324B3622DA70304B2A221A7103F075FB002387F82F300BE097F82F302B4AD35C184603F0A8FB97F82F30013387F82F3097F807
:405780002F30042BEFD9962003F00EF82F4B1B78DBB2012B04D101202E2102F013FB03E00120152102F00EFB1C4B00221A701C4B1B78DBB2012B02D11A4B01225A70184B56
:4057C0001B78DBB2022B03D1174B01225A701CE01BE001206E2102F0F5FA184B04221A80174B03221A80174B01221A800B4B0B221A700E4B0A221A7007E001204A2102F0CD
:40580000E1FA064B00221A7000BF642002F0CCFF03F078FF62E100BF6084FF1F5685FF1F4F86FF1F5886FF1F5882FF1FD782FF1F3F85FF1FB582FF1F0884FF1FB686FF1F90
:40584000DC82FF1F0084FF1F788EFF1F8287FF1F44E103F00FFF0346082B4AD1A14B1B78DBB2AA2B3FD19F4B9B79DBB2C32B3AD19C4BDB79DBB23C2B35D19A4BDB78DBB293
:405880008F2B04D0902B14D07E2B24D02BE00020172104F0B7FC944B00221A7001203C2102F090FAC82002F07FFF904B01225A7019E00120172104F0A5FC8B4B00221A7006
:4058C00001203C2102F07EFAC82002F06DFF874B01225A7007E001204A2102F073FA824B00221A7000BF642002F05EFF03F00AFFF4E0F3E07E4B4D221A707D4B55225A7070
:405900007B4B58229A707A4B3522DA70794B1B78DBB2012B65D1002387F82F303AE097F82F305B08DBB21A46734B134493F823301B0987F82E3097F82F3003F00103DBB2B2
:40594000002B0CD197F82F305B08DBB21A466A4B134493F8233003F00F0387F82E3097F82F30043397F82E203032D1B2604AD15497F82E30092B08D997F82F30043397F8A9
:405980002E203732D1B25A4AD15497F82F30013387F82F3097F82F300F2BC0D9544B2A221A7503F051FA002387F82F300BE097F82F304F4AD35C184603F084FA97F82F300C
:4059C000013387F82F3097F82F30142BEFD90120002102F0F7F9444B00221A70434B01225A70444B1B78DBB2022B66D1002387F82F303AE097F82F305B08DBB21A463F4BD0
:405A0000134493F823301B0987F82E3097F82F3003F00103DBB2002B0CD197F82F305B08DBB21A46354B134493F8233003F00F0387F82E3097F82F30043397F82E2030327D
:405A4000D1B22B4AD15497F82E30092B08D997F82F30043397F82E203732D1B2244AD15497F82F30013387F82F3097F82F300F2BC0D91F4B2A221A7503F0E6F9002387F80C
:405A80002F300BE097F82F30194AD35C184603F019FA97F82F30013387F82F3097F82F30142BEFD90120002102F08CF90E4B00221A70134B01225A7010E00FE0114B1B78EC
:405AC000DBB2032B09D9084B00221A7004F070F804F036F90B4B00221A7000BF3037BD46B0BD00BF788EFF1F5685FF1F5886FF1F6084FF1F4F86FF1FDC86FF1F5885FF1FAB
:405B00005882FF1F2885FF1F80B500AF04F04CF9184B1B78DBB2012B24D1174B1B78DBB2062B11D8144B1B78DBB20133DAB2124B1A70114B1B78DBB29BB214339BB20120A1
:405B4000194602F03FF914E00B4B00221A700A4B1B78DBB29BB214339BB20120194602F031F906E0044B1B78DBB20133DAB2024B1A7080BD5685FF1F2885FF1F80B500AFE3
:405B800004F0D2F9184B1B78DBB2012B24D1174B1B78DBB2062B11D8144B1B78DBB20133DAB2124B1A70114B1B78DBB29BB214339BB20220194602F005F914E00B4B002286
:405BC0001A700A4B1B78DBB29BB214339BB20220194602F0F7F806E0044B1B78DBB20133DAB2024B1A7080BD0384FF1FC082FF1F80B500AFFAF746FAFAF786FB032000216A
:405C000002F006FE02F04AFEFBF7C4FA02F046FEFAF712FDF6E700BF80B500AF04F0B6FA014B01221A7080BD8387FF1F80B584B000AF0346FB7102F089FFFB79184602F0C1
:405C4000C3FF1E4803F034FC04F05CFA1C4B00221A700A2002F0A8FD0BE0194B1B78012B07D103F037FC04F05DFA02F06FFF002320E002F021FF0346002BEED002F0D2FEDB
:405C80000346FB73FB7B03F00F02FB799A420AD1FB7B1B09FB7302F059FF03F01BFC04F041FAFB7B06E002F051FF03F013FC04F039FA002318461037BD4680BD195C0000B9
:405CC0008387FF1F80B582B000AF244BFF221A70234BFF221A70052002F066FD0020FFF7A5FF0346002B02D01D4B00221A700123FB711FE0052002F057FDFB791846FFF7E3
:405D000095FF0346002B12D0144B1B78DBB2FF2B03D1124AFB79137009E0114B1B78DBB2FF2B04D10E4AFB791370012312E0FB790133FB71FB790F2BDCD9084B1B78DBB2F6
:405D4000FF2B06D0064B1B78DBB2FF2B01D0012300E0002318460837BD4680BD5886FF1F5882FF1F90B58BB000AF0346FB71594A07F108031068516803C3127A1A7002F036
:405D8000E5FEFB7943F02003DBB2184602F01CFF514803F08DFB04F0B5F9504B00221A700BE04E4B1B78012B07D103F093FB04F0B9F902F0CBFE002388E002F07DFE034603
:405DC000002BEED003F086FB04F0ACF902F02AFE03461A46FB7963F02F03DBB29A4274D102F0B4FE052002F0DFFC002387F827300EE097F8273007F12802134413F8203C00
:405E0000184602F0E1FE97F82730013387F8273097F82730082BECD92F4803F049FB04F071F92E4B00221A700BE02C4B1B78012B07D103F04FFB04F075F902F087FE002302
:405E400044E002F039FE0346132BEED103F042FB04F068F9002387F827300FE097F8274002F0E0FD03461A4607F12803234403F8142C97F82730013387F8273097F8273019
:405E8000122BEBD902F062FE3B7DBA2B1BD197F825308D2B17D197F826308A2B13D197F82030B12B0FD197F82230B22B05D0B32B05D0B12B05D1012308E0022306E0032334
:405EC00004E0002302E0002300E0002318462C37BD4690BD80CE0000195C00008387FF1F80B584B000AF0346FB7102F02FFEFB7943F04003DBB2184602F066FE4FF4967037
:405F000002F052FCAB4B5B78DBB2072B00F0BC8002F0D2FD0346212B40F0B680A64B1B78DBB2FF2B40F0AE80A34B9B78DBB2F82B40F0A880A04B93F82030DBB2F02B40F071
:405F4000A1809E4B1B78DBB2FA799A424CD19A4B5B7ADBB203F00F03DBB20133DAB2984B5A760023FB730FE0FB7BFA7B0C3292498A5CD2B202F00F02D1B2914A13440A4649
:405F80009A70FB7B0133FB73FB7B032BECD90023FB730FE0FB7BFA7B113287498A5CD2B202F00F02D1B2864A13440A461A74FB7B0133FB73FB7B052BECD90023FB730FE0E0
:405FC000FB7BFA7B18327C498A5CD2B202F00F02D1B27B4A13440A46DA71FB7B0133FB73FB7B052BECD94BE0734B5B7ADBB203F00F03DBB20133DAB2724B5A760023FB73C2
:406000000FE0FB7BFA7B0C326B498A5CD2B202F00F02D1B26B4A13440A469A70FB7B0133FB73FB7B032BECD90023FB730FE0FB7BFA7B113260498A5CD2B202F00F02D1B276
:40604000604A13440A461A74FB7B0133FB73FB7B052BECD90023FB730FE0FB7BFA7B183255498A5CD2B202F00F02D1B2554A13440A46DA71FB7B0133FB73FB7B052BECD967
:406080000123CFE00023CDE04A4B5B78DBB2072B40F0C78002F010FD0346272B40F0C180454B1B78DBB2FF2B40F0B980424B9B78DBB2F82B40F0B3803F4B93F82630DBB2A6
:4060C000F02B40F0AC803D4B1B78DBB2FA799A424CD1394B5B7ADBB203F00F03DBB20133DAB2374B5A760023FB730FE0FB7BFA7B0C3231498A5CD2B202F00F02D1B2304AFE
:4061000013440A469A70FB7B0133FB73FB7B052BECD90023FB730FE0FB7BFA7B133226498A5CD2B202F00F02D1B2254A13440A461A74FB7B0133FB73FB7B072BECD90023D0
:40614000FB730FE0FB7BFA7B1C321B498A5CD2B202F00F02D1B21A4A13440A46DA71FB7B0133FB73FB7B072BECD956E0124B5B7ADBB203F00F03DBB20133DAB2114B5A76E7
:406180000023FB730FE0FB7BFA7B0C320A498A5CD2B202F00F02D1B20A4A13440A469A70FB7B0133FB73FB7B052BECD90023FB731AE000BFD882FF1F8487FF1F5886FF1F84
:4061C000DC86FF1F5885FF1FFB7BFA7B133217498A5CD2B202F00F02D1B2154A13440A461A74FB7B0133FB73FB7B072BECD90023FB730FE0FB7BFA7B1C320C498A5CD2B213
:4062000002F00F02D1B20A4A13440A46DA71FB7B0133FB73FB7B072BECD9012302E0002300E0002318461037BD4680BD8487FF1F5885FF1F80B588B000AF3A601A46034679
:40624000FB710B46BB7113467B7107F1080300221A60043300221A60043300221A60043300221A60043300221A8002330423BB777B79032B01D102237B71B34B5B78DBB2F4
:40628000052B04D0B04B5B78DBB2062B04D17B79012B01D10323BB77AB4B5B78DBB2052B04D17B79022B01D10523BB77A64B5B78DBB2072B04D17B79012B01D10023BB77E8
:4062C000A14B5B78DBB2072B04D17B79022B01D10223BB7700233B7701237B770AE07B7F3A6813441B782C2B01D17B7F3B777B7F01337B777B7F072BF1D93B7F042B01D9F8
:406300000023CFE3904B5B78DBB2072B00F00582FF233B72BB7F63F01F03DBB27B727B7963F00F03DBB2BB72F423FB72F8233B733B6801331B7863F01F03DBB27B733B684F
:4063400002331B7863F01F03DBB2BB733B6803331B7863F01F03DBB2FB733B6804331B7863F01F03DBB23B743B6805331B7863F01F03DBB27B743B6806331B7863F01F03E8
:40638000DBB2BB74704B9B78DBB2022B40F0A5803B7F042B29D13B6802331B7863F01F03DBB27B733B6803331B7863F01F03DBB2BB733B6805331B7863F01F03DBB2FB738C
:4063C0003B6806331B7863F01F03DBB23B743B6807331B7863F01F03DBB27B743B6808331B7863F01F03DBB2BB743B7F032B29D13B6801331B7863F01F03DBB27B733B689B
:4064000002331B7863F01F03DBB2BB733B6804331B7863F01F03DBB2FB733B6805331B7863F01F03DBB23B743B6806331B7863F01F03DBB27B743B6807331B7863F01F0323
:40644000DBB2BB743B7F022B24D1E0237B733B6801331B7863F01F03DBB2BB733B6803331B7863F01F03DBB2FB733B6804331B7863F01F03DBB23B743B6805331B7863F03E
:406480001F03DBB27B743B6806331B7863F01F03DBB2BB743B7F002B1FD1E0237B73E023BB733B6801331B7863F01F03DBB2FB733B6802331B7863F01F03DBB23B743B680E
:4064C00003331B7863F01F03DBB27B743B6804331B7863F01F03DBB2BB74FB23FB7400233B7500237B770FE03A7D7B7F07F120010B4413F8183C03F00F03DBB21344DBB2F2
:406500003B757B7F01337B777B7F0B2BECD93B7D5B42DBB2DBB203F00F03DBB263F01F03DBB2DBB23B75F0237B750D23FB77064B5B78DBB2052B2CD1FB23BB740023FB74F4
:4065400000237B7712E000BFD882FF1FFA7C7B7F07F120010B4413F8183C03F00F03DBB21344DBB2FB747B7F01337B777B7F0A2BECD9FB7C5B42DBB2DBB203F00F03DBB2ED
:4065800063F01F03DBB2DBB2FB74F0233B750C23FB777B79012B40F0C080F6233B73BB79013BDBB2DBB263F01F03DBB2DBB27B73F823BB733B7F042B22D13B6802331B788B
:4065C00063F01F03DBB2FB733B6803331B7863F01F03DBB23B743B6805331B7863F01F03DBB27B743B6806331B7863F01F03DBB2BB743B6807331B7863F01F03DBB2FB742E
:406600003B7F032B22D13B6801331B7863F01F03DBB2FB733B6802331B7863F01F03DBB23B743B6804331B7863F01F03DBB27B743B6805331B7863F01F03DBB2BB743B68E9
:4066400006331B7863F01F03DBB2FB743B7F022B1DD1E023FB733B6801331B7863F01F03DBB23B743B6803331B7863F01F03DBB27B743B6804331B7863F01F03DBB2BB7481
:406680003B6805331B7863F01F03DBB2FB743B7F002B18D1E023FB73E0233B743B6801331B7863F01F03DBB27B743B6802331B7863F01F03DBB2BB743B6803331B7863F054
:4066C0001F03DBB2FB74FB233B7500237B7500237B770FE07A7D7B7F07F120010B4413F8183C03F00F03DBB21344DBB27B757B7F01337B777B7F0C2BECD97B7D5B42DBB241
:40670000DBB203F00F03DBB263F01F03DBB2DBB27B75F023BB750E23FB77A24B5B78DBB2072B40F06481FF233B72BB7F63F01F03DBB27B727B7963F00F03DBB2BB72F4231F
:40674000FB72F8233B733B6801331B7863F01F03DBB27B733B6802331B7863F01F03DBB2BB733B6803331B7863F01F03DBB2FB733B6804331B7863F01F03DBB23B743B6851
:4067800005331B7863F01F03DBB27B743B6806331B7863F01F03DBB2BB743B6807331B7863F01F03DBB2FB74E0233B75FB237B750023BB7500237B770FE0BA7D7B7F07F15B
:4067C00020010B4413F8183C03F00F03DBB21344DBB2BB757B7F01337B777B7F0D2BECD9BB7D5B42DBB2DBB203F00F03DBB263F01F03DBB2DBB2BB75F023FB750F23FB77A6
:406800007B79012B40F0F380F6233B73BB79013BDBB2DBB263F01F03DBB2DBB27B73F823BB733B7F042B2DD13B6801331B7863F01F03DBB2FB733B6802331B7863F01F03DD
:40684000DBB23B743B6803331B7863F01F03DBB27B743B6805331B7863F01F03DBB2BB743B6806331B7863F01F03DBB2FB743B6807331B7863F01F03DBB23B75E0237B75EB
:40688000E023BB753B7F032B2DD1E023FB733B6801331B7863F01F03DBB23B743B6802331B7863F01F03DBB27B743B6804331B7863F01F03DBB2BB743B6805331B7863F078
:4068C0001F03DBB2FB743B6806331B7863F01F03DBB23B753B6807331B7863F01F03DBB27B75E023BB753B7F022B2DD1E023FB73E0233B743B6801331B7863F01F03DBB250
:406900007B743B6803331B7863F01F03DBB2BB743B6804331B7863F01F03DBB2FB743B6805331B7863F01F03DBB23B753B6806331B7863F01F03DBB27B753B6807331B78FC
:4069400063F01F03DBB2BB753B7F002B23D1E023FB73E0233B74E0237B743B6801331B7863F01F03DBB2BB743B6802331B7863F01F03DBB2FB743B6803331B7863F01F039F
:40698000DBB23B753B6804331B7863F01F03DBB27B75E023BB75FB23FB7500233B7600237B7711E0D882FF1F3A7E7B7F07F120010B4413F8183C03F00F03DBB21344DBB239
:4069C0003B767B7F01337B777B7F0F2BECD93B7E5B42DBB2DBB203F00F03DBB263F01F03DBB2DBB23B76F0237B761123FB7702F0ADF8FB7943F02003DBB2184602F0E4F8C7
:406A00002A4802F055FD03F07DFB294B00221A700A2001F0C9FE0BE0254B1B78012B07D102F058FD03F07EFB02F090F8002339E002F042F80346002BEED002F04BFD03F04D
:406A400071FB01F0EFFF03461A46FB7963F02F03DBB29A4225D102F079F80A2001F0A4FE00237B770BE07B7F07F12002134413F8183C184602F0A8F87B7F01337B777A7FD7
:406A8000FB7F9A42EFD9322001F08EFEFB791846FFF7CCF80346002B01D1002302E0012300E0002318462037BD4680BD195C00008387FF1F80B588B000AF03463960FB71EF
:406AC0001346BB7100233B7300237B730023BB730023FB7300233B7400237B740023BB740023FB7400233B7500237B750023BB750023FB7500233B7600237B760023BB767D
:406B0000884B5B78DBB2072B56D0FF233B73E5237B73F423BB73F623FB73BB79013BDBB2DBB263F01F03DBB2DBB23B74F7237B740623BB7715E0BB7FBA7F063A39680A4475
:406B40001278D2B202F00F02D2B262F01F02D2B2D2B207F120010B4403F8142CBB7F0133BB77BB7F092BE6D9FB23BB750023BB770FE0FA7DBB7F07F120010B4413F8143C8F
:406B800003F00F03DBB21344DBB2FB75BB7F0133BB77BB7F0A2BECD9FB7D5B42DBB2DBB203F00F03DBB263F01F03DBB2DBB2FB75F0233B760C23FB775A4B5B78DBB2072BBF
:406BC00053D1FF233B73E3237B73F423BB73F623FB73BB79013BDBB2DBB263F01F03DBB2DBB23B74F7237B740623BB7710E0BB7FBA7F063A39680A44127862F01F02D2B2A2
:406C000007F120010B4403F8142CBB7F0133BB77BB7F0A2BEBD9E023FB75FB233B760023BB770FE07A7EBB7F07F120010B4413F8143C03F00F03DBB21344DBB27B76BB7FC2
:406C40000133BB77BB7F0C2BECD97B7E5B42DBB2DBB203F00F03DBB263F01F03DBB2DBB27B76F023BB760E23FB7701F06FFFFB7943F02003DBB2184601F0A6FF2A4802F0C1
:406C800017FC03F03FFA294B00221A700BE0274B1B78012B07D102F01DFC03F043FA01F055FF002339E001F007FF0346002BEED002F010FC03F036FA01F0B4FE03461A462F
:406CC000FB7963F02F03DBB29A4225D101F03EFF0A2001F069FD0023BB770BE0BB7F07F12002134413F8143C184601F06DFFBB7F0133BB77BA7FFB7F9A42EFD9322001F052
:406D000053FDFB791846FEF791FF0346002B01D1002302E0012300E0002318462037BD4680BD00BFD882FF1F195C00008387FF1F80B584B000AF03460A46FB711346BB71CF
:406D400001F004FFFB7943F05003DBB2184601F03BFFB04B00221A704FF4967001F024FD01F0AAFE0346002B01F02280AA4B1B78DBB2FA799A4240F01F84A84B5B78DBB2E3
:406D8000072B00F00C824FF4617001F00DFD01F093FE0346FB73FB7B222B06D0FB7B402B03D0FB7B5E2B40F0F5819D4B1B78DBB2FF2B40F0EA819A4B5B78DBB2F62B40F086
:406DC000E481974BDB78DBB2F92B40F0DE810023BB7316E00023FB730DE0BA7BF97B8E4813465B001344DB000B44034400229A70FB7B0133FB73FB7B172BEED9BB7B0133CC
:406E0000BB73BB7B022BE5D90023FB7321E0FB7BFA7B043282498A5CD1B27F4A13440A469A70FB7B7C4A13449B78DBB2002B08D0FB7B794A13449B78DBB203F0F003E02B4B
:406E400004D001F083FE002300F0B3BFFB7B0133FB73FB7B072BDAD90023FB7324E0FB7B0C33FA7B0D326E498A5CD1B26A4A13440A469A70FB7B0C33674A13449B78DBB2F4
:406E8000002B09D0FB7B0C33634A13449B78DBB203F0F003E02B04D001F058FE002300F088BFFB7B0133FB73FB7B072BD7D90023FB730DE0FB7BFA7B163259498A5CD1B2E3
:406EC000554A13440A4683F84A20FB7B0133FB73FB7B032BEED9BB79022B6BD10023FB7321E0FB7BFA7B22324D498A5CD1B24A4A13440A469A76FB7B474A13449B7EDBB228
:406F0000002B08D0FB7B444A13449B7EDBB203F0F003E02B04D001F019FE002300F049BFFB7B0133FB73FB7B072BDAD90023FB7324E0FB7B0C33FA7B2B3239498A5CD1B2EB
:406F4000354A13440A469A76FB7B0C33324A13449B7EDBB2002B09D0FB7B0C332E4A13449B7EDBB203F0F003E02B04D001F0EEFD002300F01EBFFB7B0133FB73FB7B072B2E
:406F8000D7D90023FB730DE0FB7BFA7B343224498A5CD1B2204A13440A4683F84F20FB7B0133FB73FB7B032BEED901F0CFFD022300F0FFBEBB79032B40F0E2800023FB73EA
:406FC00021E0FB7BFA7B223215498A5CD1B2124A13440A469A76FB7B0F4A13449B7EDBB2002B08D0FB7B0C4A13449B7EDBB203F0F003E02B04D001F0A9FD002300F0D9BED9
:40700000FB7B0133FB73FB7B072BDAD90023FB732DE000BF8387FF1F5886FF1FD882FF1F8487FF1FFB7B0C33FA7B2B32B3498A5CD1B2B34A13440A469A76FB7B0C33B04A6C
:4070400013449B7EDBB2002B09D0FB7B0C33AC4A13449B7EDBB203F0F003E02B04D001F075FD002300F0A5BEFB7B0133FB73FB7B072BD7D90023FB730DE0FB7BFA7B34328A
:407080009E498A5CD1B29E4A13440A4683F84F20FB7B0133FB73FB7B032BEED90023FB7324E0FB7BFA7B403294498A5CD1B2944A13440A4683F83220FB7B914A134493F8C7
:4070C0003230DBB2002B09D0FB7B8D4A134493F83230DBB203F0F003E02B04D001F036FD002300F066BEFB7B0133FB73FB7B072BD7D90023FB7327E0FB7B0C33FA7B4932B2
:407100007E498A5CD1B27E4A13440A4683F83220FB7B0C337A4A134493F83230DBB2002B0AD0FB7B0C33764A134493F83230DBB203F0F003E02B04D001F008FD002300F080
:4071400038BEFB7B0133FB73FB7B072BD4D90023FB730DE0FB7BFA7B523268498A5CD1B2674A13440A4683F85420FB7B0133FB73FB7B032BEED901F0E9FC032300F019BE18
:4071800001F0E4FC012300F014BE01F0DFFC002300F00FBE01F0DAFC002300F00ABE4FF4617001F001FB01F087FC0346FB73FB7B2E2B06D0FB7B582B03D0FB7B822B40F0DA
:4071C000F1814E4B1B78DBB2FF2B40F0E6814B4B5B78DBB2F62B40F0E081484BDB78DBB2F92B40F0DA810023BB7316E00023FB730DE0BA7BF97B424813465B001344DB00FB
:407200000B44034400229A70FB7B0133FB73FB7B172BEED9BB7B0133BB73BB7B022BE5D90023FB7321E0FB7BFA7B043233498A5CD1B2334A13440A469A70FB7B304A13442F
