:400000000080002011000000D1860000D186000080B500AF024A034B1B68136008F086FBBC760040FA46004010B5054C237833B9044B13B10448AFF300800123237010BDE0
:400040000082FF1F0000000050D30000084B10B51BB108480849AFF300800848036803B910BD074B002BFBD0BDE81040184700BF0000000050D300000482FF1F0881FF1F09
:400080000000000090B583B000AF764B00221A8062B609F08BF809F08BFA08F0C1FE09F0E5FC09F05FFE0AF013FB6F4B002283F859206D4B002283F85A206B4B002283F8A9
:4000C0005B206A4B002283F85920684B002283F85A20664B002283F85B200023FB7108E0FB79634A1344012283F83320FB790133FB71FB790F2BF3D9052008F0C1FD0D23AE
:40010000FB710EE0FB79A3F10D04FB799BB218460AF074FB03461A46564B1A55FB790133FB71FB790E2BEDD90F200AF067FB03461A464D4B83F85C2010200AF05FFB0346F4
:400140001A46494B83F8592011200AF057FB03461A46454B83F85A2012200AF04FFB03461A46414B83F85B2013200AF047FB03461A463E4B83F85C2014200AF03FFB034602
:400180001A463A4B83F8592015200AF037FB03461A46364B83F85A2016200AF02FFB03461A46324B83F85B2017200AF027FB03461A46314B1A701E200AF020FB03461A4672
:4001C0002E4B5A701F200AF019FB03461A462B4B9A7020200AF012FB03461A46274BDA701A200AF00BFB03461A461F4B1A701C200AF004FB03461A461C4B1A7021200AF0B9
:40020000FDFA03461A461E4B1A7022200AF0F6FA03461A461B4B1A7023200AF0EFFA03461A46194B1A7024200AF0E8FA03461A46164B1A700C4B01225A700C4B01225A706D
:40024000134B00221A700D4B00229A700B4B0322DA70104B00221A70052008F011FD0C37BD4690BD2883FF1F5886FF1F5882FF1FDC86FF1F3C85FF1F3E85FF1FD882FF1FF1
:400280008287FF1F5585FF1F5482FF1F0B84FF1F5686FF1F5685FF1F80B582B000AF03460A46FB711346BB80FB79012B13D1BB880120194607F0F0FF104B64221A70104BE9
:4002C00001221A700F4B01225A700F4809F0CAFE09F092FF0FE0BB880220194607F0DCFF0A4B64221A700A4B01221A7009480AF0B5F80AF065F80837BD4680BD5685FF1FB5
:400300002885FF1F5886FF1FDD5F00000384FF1FC082FF1F5160000080B582B000AF0023FB7180E10023FB71C24B1B78DBB2FF2B04D0C14B1B78DBB2FF2B58D100BF05F011
:400340002BFF0346002BFAD000BFBA4B1B78DAB2B84B93F85C30DBB21046194606F052FF0346002BF1D0322008F08AFC00BFB24B1B78DAB2B04B93F85C30DBB2104619465B
:4003800006F040FF0346002BF1D0322008F078FCA84B1B78DBB218461A210AF09FF90346002B04D101203C2107F076FF03E00120552107F071FFA04B1B78DBB218461C211D
:4003C0000AF08CF90346002B04D102203C2107F063FF03E00220552107F05EFF974B00221A70974B00221A700223FB711BE1914B1B78DBB2184605F083FE0346BB71BB796C
:400400000C2B7ED801A252F823F000BF4104000003050000030500000305000003050000030500004904000085040000AF040000C3040000DF040000D1040000ED0400000A
:400440007C4BFF221A705CE07A4B1B78DBB2184605F0B0FF322008F013FC764B1B78DAB2744B93F85C30DBB21046194606F0CAFE322008F005FC724B00221A70FB7901337C
:40048000FB713EE06B4B1B78DAB26A4B93F85C30DBB21046194606F0B5FE322008F0F0FB674B00221A70FB790133FB7129E0644B08221A70634B01221A70FB790133FB71A4
:4004C0001FE05F4B0B221A70FB790133FB7118E05B4B0C221A70FB790133FB7111E0584B0C221A70FB790133FB710AE0544B0B221A700120082107F0CFFEFB790133FB715C
:4005000000BF4D4B1B78DBB2184605F0F9FD0346BB71BB790C2B00F2868001A252F823F05505000027060000270600002706000027060000270600005D05000099050000E8
:40054000C3050000DF05000003060000F505000011060000384BFF221A7064E0364B1B78DBB2184605F026FF322008F089FB324B1B78DAB2304B93F85C30DBB210461946EC
:4005800006F040FE322008F07BFB2C4B00221A70FB790133FB7146E0274B1B78DAB2264B93F85C30DBB21046194606F02BFE322008F066FB214B00221A70FB790133FB7199
:4005C00031E01E4B08221A701E4B02221A700220082107F061FEFB790133FB7123E0174B0B221A700220082107F056FEFB790133FB7118E0114B0C221A70FB790133FB711B
:4006000011E00E4B0C221A70FB790133FB710AE00A4B0B221A700220082107F03DFEFB790133FB7100BFFB79012B7FF67BAE0837BD4680BD5886FF1F5882FF1F0384FF1F08
:400640005685FF1F4F86FF1F80B588B000AF08F01DFE0346052B40F29C8708F017FE0346FB820A2008F00CFB08F010FE0346BB82FA8ABB8A9A4240F08C87AE4B1B78DBB208
:40068000422B40F07E87AB4B5B78DBB2422B40F07887A84B9B78DBB2422B40F07287A64B00221A70A34BDB78DBB2303B152B00F2548701A252F823F011070000DB0E000099
:4006C0005B150000A10F00009D1100005B1500005B1500005B1500005B1500005B1500005B1500005B1500005B1500005B1500005B1500005B1500005B1500005B1500007C
:400700005B1500005B1500005B1500002D0F0000884B1B79DBB2312B40F0E381854B0022DA70844B5B79DBB24E2B0BD1814B1B79DBB203F00F03DBB218461C21FFF7ACFDCF
:4007400000F00BBF7D4B1B78DBB2002B40F00081784B9B7ADBB2462B7ED1794B9B7E5A1E784913469B0013440B4448339B78DBB203F00F03DBB23B73714B9B7E5A1E7149C4
:4007800013469B0013440B4449339B78DBB203F00F03DBB27B736A4B9B7E5A1E694913469B0013440B444A339B78DBB203F00F03DBB2BB73624B9B7E5A1E624913469B00B7
:4007C00013440B444B339B78DBB203F00F03DBB2FB735B4B9B7E5A1E5A4913469B0013440B444C339B78DBB203F00F03DBB23B74544B1B78DBB203F00F03D9B2504B9B7E5E
:4008000007F10C02084611461A4606F0BDFB0346002B40F09D804C4B4D221A704A4B55225A70494B58229A70474B4522DA70464B30221A713F4B1B79DAB2434B5A71424B7F
:4008400031229A71404B2A22DA710823FB833A4B01221A7000F081BE3A4B1B78DAB2394B93F85C30DBB21046194606F0CBFC374B1B78DBB2012B11D12E4B5B7ADBB23B7476
:400880002C4B1B7ADBB2FB732A4BDB79DBB2BB73284B9B79DBB27B7300233B732B4B1B78DBB2002B13D1234B9B7ADBB23B74214B5B7ADBB2FB731F4B1B7ADBB2BB731D4B18
:4008C000DB79DBB27B731B4B9B79DBB23B731D4B1B78DBB203F00F03D9B2194B9B7E07F10C02084611461A4606F04EFB0346002B2ED1154B4D221A70134B55225A70124BCD
:4009000058229A70104B4522DA700F4B30221A71084B1B79DAB20C4B5A710B4B31229A71094B2A22DA710823FB83034B01221A7000F013BE8488FF1F2A83FF1F0B84FF1FB5
:40094000DC86FF1F5886FF1F6084FF1F3E85FF1F734B5B7CDBB27B71714B5B7CDBB22C2B06D06F4B5B7CDBB203F00F03DBB27B716B4B1B7CDBB2BB71694B1B7CDBB22C2BEC
:4009800006D0674B1B7CDBB203F00F03DBB2BB71634BDB7BDBB2FB71614BDB7BDBB22C2B06D05F4BDB7BDBB203F00F03DBB2FB715B4B9B7BDBB23B72594B9B7BDBB22C2BF5
:4009C00006D0574B9B7BDBB203F00F03DBB23B72534B5B7BDBB27B72514B5B7BDBB22C2B06D04F4B5B7BDBB203F00F03DBB27B724B4B1B7BDBB2BB72494B1B7BDBB22C2B13
:400A000006D0474B1B7BDBB203F00F03DBB2BB72434BDB7ADBB2FB72414BDB7ADBB22C2B06D03F4BDB7ADBB203F00F03DBB2FB723B4B9B7CDBB27B837B8B312B02D1022307
:400A40007B8301E001237B83364B1B78DBB203F00F03D8B2344B997E7B8BDBB23A1D05F053FE0346012B1BD10A2008F009F92D4B1B78DBB2DBB203F00F03DBB243F01003FD
:400A8000DBB2DBB2184608F00BFB264B06225A70264B08221A700120082107F0FDFB1BE2234B4D221A70224B55225A70204B58229A701F4B4522DA701D4B30221A71184B3B
:400AC0001B79DAB21A4B5A71194B32229A71184B2A22DA710823FB83164B01221A7000F03CBD0F4B0022DA700D4B5B79DBB24E2B24D1114B1B78DBB2012B05D101201C2180
:400B0000FFF7CAFB00F029BD054B1B79DBB203F00F03DBB218461C21FFF7BEFB00F01DBD8488FF1F5886FF1FDC86FF1F5685FF1F6084FF1F2A83FF1F8287FF1F7B4B1B7821
:400B4000DBB2002B40F00081794B9B7ADBB2462B7ED1784B9B7E5A1E774913469B0013440B4448339B78DBB203F00F03DBB23B73704B9B7E5A1E704913469B0013440B443E
:400B800049339B78DBB203F00F03DBB27B73694B9B7E5A1E684913469B0013440B444A339B78DBB203F00F03DBB2BB73614B9B7E5A1E614913469B0013440B444B339B781A
:400BC000DBB203F00F03DBB2FB735A4B9B7E5A1E594913469B0013440B444C339B78DBB203F00F03DBB23B74534B1B78DBB203F00F03D9B24F4B9B7E07F10C0208461146EA
:400C00001A4606F0C1F90346002B40F09D804B4B4D221A70494B55225A70484B58229A70464B4522DA70454B30221A71404B1B79DAB2424B5A71414B31229A713F4B2A22F6
:400C4000DA710823FB833E4B01221A7000F085BC394B1B78DAB2384B93F85C30DBB21046194606F0CFFA374B1B78DBB2012B11D12F4B5B7ADBB23B742D4B1B7ADBB2FB7398
:400C80002B4BDB79DBB2BB73294B9B79DBB27B7300233B732B4B1B78DBB2002B13D1244B9B7ADBB23B74224B5B7ADBB2FB73204B1B7ADBB2BB731E4BDB79DBB27B731C4BDF
:400CC0009B79DBB23B731C4B1B78DBB203F00F03D9B2184B9B7E07F10C02084611461A4606F052F90346002B2ED1144B4D221A70124B55225A70114B58229A700F4B4522BC
:400D0000DA700E4B30221A71094B1B79DAB20B4B5A710A4B31229A71084B2A22DA710823FB83074B01221A7000F017BC0B84FF1F8488FF1F5885FF1F5882FF1F6084FF1FCA
:400D40002A83FF1F3E85FF1F8E4B5B7CDBB27B718C4B5B7CDBB22C2B06D08A4B5B7CDBB203F00F03DBB27B71864B1B7CDBB2BB71844B1B7CDBB22C2B06D0824B1B7CDBB24D
:400D800003F00F03DBB2BB717E4BDB7BDBB2FB717C4BDB7BDBB22C2B06D07A4BDB7BDBB203F00F03DBB2FB71764B9B7BDBB23B72744B9B7BDBB22C2B06D0724B9B7BDBB2E0
:400DC00003F00F03DBB23B726E4B5B7BDBB27B726C4B5B7BDBB22C2B06D06A4B5B7BDBB203F00F03DBB27B72664B1B7BDBB2BB72644B1B7BDBB22C2B06D0624B1B7BDBB2FD
:400E000003F00F03DBB2BB725E4BDB7ADBB2FB725C4BDB7ADBB22C2B06D05A4BDB7ADBB203F00F03DBB2FB72564B9B7CDBB27B837B8B312B02D102237B8301E001237B8321
:400E4000514B1B78DBB203F00F03D8B24F4B997E7B8BDBB23A1D05F057FC0346012B1BD10A2007F00DFF484B1B78DBB2DBB203F00F03DBB243F01003DBB2DBB2184608F02E
:400E80000FF9414B06225A70414B08221A700120082107F001FA1FE03E4B4D221A703D4B55225A703B4B58229A703A4B4522DA70384B30221A71334B1B79DAB2354B5A715D
:400EC000344B32229A71334B2A22DA710823FB83314B01221A7040E33FE30120372107F0DBF92E4B1B78DBB21A462C4B1B78DBB203F00F039A4206D1284B01225A70244B8D
:400F000000221A7011E0204B1B78DBB21A461D4B1B79DBB203F00F039A4206D11A4B01225A701B4B00221A7017E316E3154B5B79DBB2313B032B00F20F8301A252F823F0B2
:400F4000510F0000610F0000710F0000810F0000124B01225A7001201C21FFF79DF910E00E4B01225A7001200C21FFF795F908E00A4B01225A7001200C21FFF78DF900E081
:400F800000BFE9E28488FF1F5882FF1F5885FF1F5685FF1F6084FF1F2A83FF1F5886FF1FAA4B1B79DBB2303BDAB2A94B83F85C20A64B5B79DBB2303BDAB2A54B83F85920A3
:400FC000A24B9B79DBB2303BDAB2A14B83F85A209E4BDB79DBB2303BDAB29D4B83F85B209A4B1B7ADBB2303BDAB29A4B83F85C20964B5B7ADBB2303BDAB2964B83F8592003
:40100000924B9B7ADBB2303BDAB2924B83F85A208E4BDB7ADBB2303BDAB28E4B83F85B208A4B1B7BDBB2303BDAB28B4B5A70874B5B7BDBB2303BDAB2874B9A70834B9B7B6C
:40104000DBB2303BDAB2844BDA70804BDB7BDBB2303BDAB2814B1A707C4B1B7CDBB2303BDAB27F4B1A70794B5B7CDBB2303BDAB27C4B1A70754B9B7CDBB2303BDAB27A4B12
:401080001A70724BDB7CDBB2303BDAB2774B1A706F4B93F85C30DBB218460F2109F01EFB6B4B93F85930DBB21846102109F016FB674B93F85A30DBB21846112109F00EFBEE
:4010C000634B93F85B30DBB21846122109F006FB604B93F85C30DBB21846132109F0FEFA5C4B93F85930DBB21846142109F0F6FA584B93F85A30DBB21846152109F0EEFAC4
:40110000544B93F85B30DBB21846162109F0E6FA524B1B78DBB21846172109F0DFFA4E4B5B78DBB218461E2109F0D8FA4A4B9B78DBB218461F2109F0D1FA474BDB78DBB270
:401140001846202109F0CAFA454B1B78DBB21846212109F0C3FA434B1B78DBB21846222109F0BCFA404B1B78DBB21846232109F0B5FA3E4B1B78DBB21846242109F0AEFA2D
:4011800001203C2107F088F84FF4FA7007F078FDFEF778FF364B00221A70DEE1354B4D221A70344B55225A70324B58229A70314B3222DA70254B1B79DBB2312B40F0E880F0
:4011C000234B1B78DAB2224B93F85C30DBB21046194606F017F8322007F052FD04237B760023BB8312E07B7EBA8B19490A449278D2B202F00F02D2B23032D1B21D4AD15420
:401200007B7E01337B76BB8B0133BB83BB8B0B2BE9D90C23BB8312E07B7EBA8B0C490A449278D2B202F00F02D2B23032D1B2114AD1547B7E01337B76BB8B0133BB83BB8BC4
:40124000172BE9D90023BB8329E000BF8488FF1F5886FF1F5882FF1FD882FF1F3E85FF1F8287FF1F5585FF1F5482FF1F0B84FF1F5685FF1F6084FF1F7B7EBA8BA1490A4499
:40128000927ED2B202F00F02D2B23032D1B29E4AD1547B7E01337B76BB8B0133BB83BB8B0B2BE9D90C23BB8312E07B7EBA8B95490A44927ED2B202F00F02D2B23032D1B244
:4012C000914AD1547B7E01337B76BB8B0133BB83BB8B172BE9D90023BB8313E07B7EBA8B88490A4492F83220D2B202F00F02D2B23032D1B2844AD1547B7E01337B76BB8BFA
:401300000133BB83BB8B0B2BE8D90C23BB8313E07B7EBA8B7B490A4492F83220D2B202F00F02D2B23032D1B2774AD1547B7E01337B76BB8B0133BB83BB8B172BE8D9724BC0
:40134000312283F84B20704B2A2283F84C200023BB8308E0BB8B6C4AD35C184608F01EF8BB8B0133BB83BB8B4C2BF3D9FA2007F087FC07F08BFF0346012B09D901204A212D
:4013800006F08AFF614B00221A705E4B01225A705F4B1B79DBB2322B40F0DD805D4B1B78DAB25C4B93F85C30DBB21046194605F029FF322007F064FC04237B760023BB8305
:4013C00012E07B7EBA8B53490A449278D2B202F00F02D2B23032D1B24B4AD1547B7E01337B76BB8B0133BB83BB8B0B2BE9D90C23BB8312E07B7EBA8B46490A449278D2B203
:4014000002F00F02D2B23032D1B23F4AD1547B7E01337B76BB8B0133BB83BB8B172BE9D90023BB8312E07B7EBA8B3A490A44927ED2B202F00F02D2B23032D1B2324AD1546F
:401440007B7E01337B76BB8B0133BB83BB8B0B2BE9D90C23BB8312E07B7EBA8B2D490A44927ED2B202F00F02D2B23032D1B2264AD1547B7E01337B76BB8B0133BB83BB8B46
:40148000172BE9D90023BB8313E07B7EBA8B21490A4492F83220D2B202F00F02D2B23032D1B2194AD1547B7E01337B76BB8B0133BB83BB8B0B2BE8D90C23BB8313E07B7E1E
:4014C000BA8B14490A4492F83220D2B202F00F02D2B23032D1B20C4AD1547B7E01337B76BB8B0133BB83BB8B172BE8D9064B322283F84B20044B2A2283F84C200023BB8328
:4015000013E000BF5886FF1F6084FF1F5685FF1F8488FF1F5882FF1FBB8B1F4AD35C184607F03CFFBB8B0133BB83BB8B4C2BF3D9FA2007F0A5FB07F0A9FE0346012B0AD98A
:4015400001204A2106F0A8FE144B00221A70144B01225A7001E000E000BF124B1B78012B0FD10023BB8308E0BB8B0B4AD35C184607F014FFBB8B0133BB83BA8BFB8B9A4296
:40158000F2D307F0CDFE07F04DFD0023FB820023BB822037BD4680BD6084FF1F5685FF1F5882FF1F2A83FF1FB0B58EB002AFCD4B1B78DBB2662B04F2FB8401A252F823F07C
:4015C0005D170000B1180000B3190000AF1E0000811F00004D230000F1240000B15F0000FD2500008D280000B15F0000213200000B350000A94B0000295700004B5900004E
:40160000855A0000275D0000B15F0000C95D00001919000077170000B15F0000B15F0000B15F0000B15F0000B15F0000B15F0000B15F0000B15F0000B15F0000B15F0000B1
:40164000B15F0000B15F0000B15F0000B15F0000B15F0000B15F0000B15F0000B15F0000B15F0000B15F0000B15F0000B15F0000B15F0000B15F0000B15F0000B15F00006A
:40168000B15F0000B15F0000B15F0000B15F0000B15F0000B15F0000B15F0000B15F0000B15F0000B15F0000B15F0000B15F0000B15F0000B15F0000B15F0000B15F00002A
:4016C000B15F0000B15F0000B15F0000B15F0000B15F0000B15F0000B15F0000B15F0000B15F0000B15F0000B15F0000B15F0000B15F0000B15F0000B15F0000B15F0000EA
:40170000B15F0000B15F0000B15F0000B15F0000B15F0000B15F0000B15F0000B15F0000B15F0000B15F0000B15F0000B15F0000B15F0000B15F0000B15F0000B15F0000A9
:40174000B15F0000B15F0000B15F0000B15F0000915F0000B15F0000B15F0000624808F081FC08F049FD614B00221A705D4B15221A7004F01DBC012006F03EFE0346012B66
:4017800070D10120332106F097FE0346002B69D0002387F82F301CE097F82F40012006F011FF03461A46524B234483F8232097F82F3097F82F204E490A4492F823104D4AA9
:4017C00013440A4683F8232097F82F30013387F82F3097F82F30072BDED9474B00221A70002387F82F3014E0434B197897F82F303F4A134493F823300846194606F03CFFD1
:4018000003461A463C4B1A7097F82F30013387F82F3097F82F30062BE6D9354B93F82A20354B1B789A421DD10120132106F034FD4FF4FA7007F024FA304B00221A70304BFE
:401840000A221A702F4B02221A802F4B03221A802E4B01221A80234B14221A7001202E2106F01AFD08F072F90346082B1ED1284B1B78DBB2AA2B12D1254B9B79DBB2C32B48
:401880000DD1234BDB79DBB23C2B08D1204BDB78DBB23B2B03D1134B00221A7000BF642007F0EEF908F09AF904F082BB04F080BB08F04CF90346082B11D108F0E5FB08F0B5
:4018C000ABFC01202E2106F0E7FC064B14221A7008F084F90F4B00221A7004F069BB04F067BB00BF5685FF1FDD5F00002885FF1FDC86FF1F5885FF1F2583FF1F3F85FF1F5C
:401900000884FF1FB686FF1FDC82FF1F0084FF1F788EFF1F4F86FF1F08F018F90346082B45D1BC4B1B78DBB2AA2B39D1B94B9B79DBB2C32B34D1B74BDB79DBB23C2B2FD1EB
:40194000B44BDB78DBB2572B11D0942B1DD0562B26D10120242106F09FFCAF4B01221A70AE4B0C221A70AE4B08221A7018E00120242106F091FCA84B02221A70A74B0C2263
:401980001A70A74B08221A700AE00120722106F083FCA14B01221A70A04B0F221A7000BF642007F06DF908F019F904F001BB04F0FFBA08F0CBF80346082B40F07682954B5F
:4019C0001B78DBB2AA2B40F06982924B9B79DBB2C32B40F063828F4BDB79DBB23C2B40F05D828C4BDB78DBB2592B1AD0592B02DC452B0ED052E25C2B03D07E2B00F0468261
:401A00004CE20120492106F047FC844B03221A7044E20120722106F03FFC804B0F221A703CE20120392106F037FC7E4B4D221A707C4B55225A707B4B58229A70794B3222B7
:401A4000DA70754B1B78DBB2012B40F01181764B1B78DAB2744B93F85C30DBB21046194605F0D0FB322007F00BF9042387F82D30002387F82F3018E097F82D3097F82F2083
:401A800069490A449278D2B202F00F02D2B23032D1B2644AD15497F82D30013387F82D3097F82F30013387F82F3097F82F300B2BE2D90C2387F82F3018E097F82D3097F8FE
:401AC0002F2059490A449278D2B202F00F02D2B23032D1B2534AD15497F82D30013387F82D3097F82F30013387F82F3097F82F30172BE2D9002387F82F3018E097F82D301F
:401B000097F82F2048490A44927ED2B202F00F02D2B23032D1B2434AD15497F82D30013387F82D3097F82F30013387F82F3097F82F300B2BE2D90C2387F82F3018E097F8C7
:401B40002D3097F82F2038490A44927ED2B202F00F02D2B23032D1B2324AD15497F82D30013387F82D3097F82F30013387F82F3097F82F30172BE2D9002387F82F3019E0D9
:401B800097F82D3097F82F2027490A4492F83220D2B202F00F02D2B23032D1B2214AD15497F82D30013387F82D3097F82F30013387F82F3097F82F300B2BE1D90C2387F8B9
:401BC0002F3019E097F82D3097F82F2016490A4492F83220D2B202F00F02D2B23032D1B2104AD15497F82D30013387F82D3097F82F30013387F82F3097F82F30172BE1D9E5
:401C0000084B2A2283F84B2007F08AFB002387F82F3017E0788EFF1F4F86FF1F5685FF1FD782FF1F6084FF1F5886FF1F97F82F30CB4AD35C184607F0B1FB97F82F300133D1
:401C400087F82F3097F82F304B2BEFD9FA2007F017F807F01BFB0346012B09D901204A2106F01AFBBF4B00221A70BF4B01225A70BE4B1B78DBB2022B40F00581BC4B1B78EC
:401C8000DAB2BB4B93F85C30DBB21046194605F0B9FA322006F0F4FF042387F82D30002387F82F3018E097F82D3097F82F20B0490A449278D2B202F00F02D2B23032D1B24F
:401CC000A74AD15497F82D30013387F82D3097F82F30013387F82F3097F82F300B2BE2D90C2387F82F3018E097F82D3097F82F209F490A449278D2B202F00F02D2B2303277
:401D0000D1B2974AD15497F82D30013387F82D3097F82F30013387F82F3097F82F30172BE2D9002387F82F3018E097F82D3097F82F208F490A44927ED2B202F00F02D2B22F
:401D40003032D1B2864AD15497F82D30013387F82D3097F82F30013387F82F3097F82F300B2BE2D90C2387F82F3018E097F82D3097F82F207E490A44927ED2B202F00F0233
:401D8000D2B23032D1B2764AD15497F82D30013387F82D3097F82F30013387F82F3097F82F30172BE2D9002387F82F3019E097F82D3097F82F206E490A4492F83220D2B2C5
:401DC00002F00F02D2B23032D1B2654AD15497F82D30013387F82D3097F82F30013387F82F3097F82F300B2BE1D90C2387F82F3019E097F82D3097F82F205D490A4492F87B
:401E00003220D2B202F00F02D2B23032D1B2544AD15497F82D30013387F82D3097F82F30013387F82F3097F82F30172BE1D94C4B2A2283F84B2007F073FA002387F82F3089
:401E40000BE097F82F30464AD35C184607F0A6FA97F82F30013387F82F3097F82F304B2BEFD9FA2006F00CFF07F010FA0346012B09D901204A2106F00FFA3A4B00221A707A
:401E80003B4B01225A7007F04BFA07E001204A2106F002FA334B00221A7000BF642006F0EFFE07F09BFE04F083B804F081B807F04DFE0346082B50D12E4B1B78DBB2AA2B85
:401EC00044D12C4B9B79DBB2C32B3FD1294BDB79DBB23C2B3AD1274BDB78DBB25F2B09D05F2B02DC5E2B13D030E07E2B1ED0942B24D02BE00120122106F0CEF91E4B002266
:401F00001A701E4B08221A70164B0B221A701DE00120122106F0C0F9174B01221A70114B0B221A70154B00221A700FE001204A2106F0B2F90B4B00221A7007E0012063210A
:401F400006F0AAF9074B01221A7000BF642006F097FE07F043FE04F02BB804F029B800BF6084FF1F5685FF1F5886FF1F4F86FF1F5882FF1F788EFF1F0284FF1FD782FF1F37
:401F800007F0E4FD0346082B40F0DE81BD4B1B78DBB2AA2B40F0D181BA4B9B79DBB2C32B40F0CB81B74BDB79DBB23C2B40F0C581B44BDB78DBB23B2B00F0B3813B2B05DC3F
:401FC0000F2B0AD0102B00F09280B6E1432B00F018817E2B00F0A981AFE1AB4B1B78DBB2012B3ED1002387F82F300AE097F82F30A64A13440022DA7697F82F30013387F82B
:402000002F3097F82F30072BF0D9A14B00221A70A04B01221A70A04B2C221A709F4B5B78DAB29F4B1A70994B0122DA769D4B00221A700120062106F02FF99B4B04221A80B1
:402040009A4B03221A809A4B01221A8001230093012024210322042306F06AF9954B0C221A70894B1B78DBB2022B3FD1002387F82F300AE097F82F308F4A13440022DA7614
:4020800097F82F30013387F82F3097F82F30072BF0D97F4B00221A707E4B01221A707E4B2C221A707D4B5B78DAB27D4B1A70824B0122DA767B4B00221A700120062106F041
:4020C000EBF8794B04221A80784B03221A80784B01221A8001230093012024210322042306F026F9734B0C221A7026E125E1664B1B78DBB2012B3ED1002387F82F300AE07F
:4021000097F82F30614A13440022DA7697F82F30013387F82F3097F82F30072BF0D95C4B00221A705B4B01221A705B4B2C221A705A4B5B78DAB25A4B1A70544B0222DA76EA
:40214000584B00221A7001200D2106F0A5F8564B04221A80554B03221A80554B01221A800123009301204C210322042306F0E0F8504B0C221A70444B1B78DBB2022B3FD173
:40218000002387F82F300AE097F82F303F4A13440022DA7697F82F30013387F82F3097F82F30072BF0D93A4B00221A70394B01221A70394B2C221A70384B5B78DAB2384BE8
:4021C0001A703D4B0222DA76364B00221A7001200D2106F061F8344B04221A80334B03221A80334B01221A800123009301204C210322042306F09CF82E4B0C221A709CE00F
:402200009BE0214B1B78DBB2012B32D1002387F82F300AE097F82F301C4A13440022DA7697F82F30013387F82F3097F82F30072BF0D9164B0322DA76052387F82F300AE0B1
:4022400097F82F30114A13440922DA7697F82F30013387F82F3097F82F30072BF0D90120072106F019F8154B02225A70114B06221A70054B1B78DBB2022B51D1002387F84D
:402280002F3028E0788EFF1F4F86FF1FDC86FF1F3F85FF1FD782FF1FB582FF1FD882FF1F0884FF1F5782FF1FB686FF1FDC82FF1F0084FF1F5685FF1F5885FF1F5886FF1FF1
:4022C00097F82F30C34A13440022DA7697F82F30013387F82F3097F82F30072BF0D9BE4B0322DA76052387F82F300AE097F82F30B84A13440922DA7697F82F30013387F860
:402300002F3097F82F30072BF0D90120072105F0C3FFB24B02225A70B14B06221A700CE00BE0AF4B00221A7007E001204A2105F0B3FFAB4B00221A7000BF642006F0A0FCAE
:4023400007F04CFC03F034BE03F032BEA54B1B78DBB2012B61D1322006F092FC07F0F6FB0346082B1AD1A04B1B78DBB2AA2B11D19D4B9B79DBB2C32B0CD19B4BDB79DBB2E6
:402380003C2B07D1984BDB78DBB27E2B02D1944B00221A7007F022FC03F00ABE934B1B78DBB2184603F0ACFE034687F82F3097F82F30072B06D18A4B06221A70322006F05E
:4023C0005FFC2AE097F82F30002B0ED1322006F057FC864B1B78DAB207F11403104601211A46022304F090F917E097F82F300C2B04D101205521FDF74FFF0EE097F82F30C6
:402400000B2B03D1764B0D221A7006E097F82F300A2B02D1724B0D221A70724B1B78DBB2022B63D1322006F02BFC07F08FFB0346082B1AD16C4B1B78DBB2AA2B11D16A4BEE
:402440009B79DBB2C32B0CD1674BDB79DBB23C2B07D1654BDB78DBB27E2B02D1604B00221A7007F0BBFB03F0A3BD5C4B1B78DBB2184603F045FE034687F82F3097F82F304B
:40248000072B06D1564B06221A70322006F0F8FB2CE097F82F30002B0ED1322006F0F0FB4E4B1B78DAB207F11403104601211A46022304F029F919E097F82F300C2B04D181
:4024C00001205521FDF7E8FE10E097F82F300B2B03D1434B0D221A7008E097F82F300A2B04D13F4B0D221A7003F062BD03F060BD3C4B1B78DBB2012B31D10A2006F0C0FB47
:402500003A4B1B78DBB2184603F096FE03461A46314B9A76304B9B7E002B20D0142006F0AFFB324B1B78DBB2184603F0E9FD0346072B14D12E4807F095FD07F05DFE2D4B5C
:4025400000221A702C4B00221A80284B04225A700120392105F0A0FE214B09221A70214B1B78DBB2022B33D10A2006F089FB1B4B1B78DBB2184603F05FFE03461A46154B4C
:402580009A76144B9B7E002B22D0142006F078FB124B1B78DBB2184603F0B2FD0346072B16D1134807F05EFD07F026FE114B00221A70114B00221A80084B04225A700120AE
:4025C000392105F069FE064B09221A7003F0F0BC03F0EEBC5885FF1FDC86FF1F5882FF1F5685FF1F4F86FF1F788EFF1F5886FF1FDD5F00002885FF1F2883FF1F322006F04C
:402600003FFBAF4B1B78DBB2012B40F09B80AD4B1B78DBB2184603F073FD03460A2B32D00B2B02D0062B59D08CE0642006F028FB002387F82F3010E097F82F30A24A1344E9
:402640000022DA7197F82F309F4A134400221A7497F82F30013387F82F3097F82F30082BEAD9984B1B78DBB2184603F0A3FE0346012B07D1954B0D221A700120392105F0E0
:402680000BFE5FE05EE0002387F82F3010E097F82F308D4A13440022DA7197F82F308A4A134400221A7497F82F30013387F82F3097F82F30082BEAD9824B1B78DBB2184622
:4026C00003F078FE0346012B07D1804B0D221A700120392105F0E0FD34E033E0002387F82F3010E097F82F30774A13440022DA7197F82F30744A134400221A7497F82F3027
:40270000013387F82F3097F82F30082BEAD9002387F82F300AE097F82F306B4A134400229A7097F82F30013387F82F3097F82F30042BF0D9654B0D221A700120392105F0D3
:40274000ABFD00BF5E4B1B78DBB2022B40F09C805F4B1B78DBB2184603F0D2FC03460A2B33D00B2B03D0062B5AD003F021BC642006F086FA002387F82F3010E097F82F3039
:40278000544A13440022DA7197F82F30514A134400221A7497F82F30013387F82F3097F82F30082BEAD94A4B1B78DBB2184603F001FE0346012B07D1444B0D221A70012088
:4027C000392105F069FD5FE05EE0002387F82F3010E097F82F303F4A13440022DA7197F82F303C4A134400221A7497F82F30013387F82F3097F82F30082BEAD9344B1B780A
:40280000DBB2184603F0D6FD0346012B07D12F4B0D221A700120392105F03EFD34E033E0002387F82F3010E097F82F30294A13440022DA7197F82F30264A134400221A741A
:4028400097F82F30013387F82F3097F82F30082BEAD9002387F82F300AE097F82F301D4A134400229A7097F82F30013387F82F3097F82F30042BF0D9144B0D221A70012092
:40288000392105F009FD00BF03F092BB124B4D221A70114B55225A700F4B58229A700E4B3022DA70064B1B78DBB2012B40F031820A4B1B78012B52D1002387F82F304AE01C
:4028C0004F86FF1F5886FF1FDC86FF1F5685FF1F5882FF1F5885FF1F6084FF1F0284FF1F97F82F305B08DBB21A46214B134493F823301B0987F82E3097F82F3003F0010312
:40290000DBB2002B0CD197F82F305B08DBB21A46174B134493F8233003F00F0387F82E3097F82F30043397F82E203032D1B2114AD15497F82E30092B08D997F82F300433BD
:4029400097F82E203732D1B20A4AD15497F82F30013387F82F3097F82F300F2BC0D9064B1B78002B49D1002387F82F3041E000BFDC86FF1F6084FF1F0284FF1F97F82F3036
:402980005B08DBB21A46B54B134493F823301B0987F82E3097F82F3003F00103DBB2002B0CD197F82F305B08DBB21A46AB4B134493F8233003F00F0387F82E3097F82F30DE
:4029C000043397F82E203032D1B2A54AD15497F82E30092B08D997F82F30043397F82E203732D1B29E4AD15497F82F30013387F82F3097F82F300F2BC0D9984B9B7E013BD4
:402A0000984A134493F85930DBB23033DAB2944B1A75954B1B78002B13D1944B1B79DAB28F4B5A75914BDB78DAB28D4B9A758F4B9B78DAB28A4BDA758C4B5B78DAB2884BED
:402A40001A76894B1B78012B0BD1854B30225A75834B30229A75824B3022DA75804B30221A76834B1B78DBB2002B59D17B4B9B7E5A1E7C4913469B0013440B444C339B7891
:402A8000DBB203F00F03DBB23033DAB2744B5A76724B9B7E5A1E734913469B0013440B444B339B78DBB203F00F03DBB23033DAB26B4B9A76694B9B7E5A1E6A4913469B0084
:402AC00013440B444A339B78DBB203F00F03DBB23033DAB2624BDA76604B9B7E5A1E614913469B0013440B4449339B78DBB203F00F03DBB23033DAB2594B1A77574B9B7E88
:402B00005A1E584913469B0013440B4448339B78DBB203F00F03DBB23033DAB2504B5A77534B1B78DBB2012B4AD14C4B9B7E5A1E4C4913469B0013440B444B339B78DBB260
:402B400003F00F03DBB23033DAB2454B5A76434B9B7E5A1E434913469B0013440B444A339B78DBB203F00F03DBB23033DAB23C4B9A763A4B9B7E5A1E3A4913469B00134416
:402B80000B4449339B78DBB203F00F03DBB23033DAB2334BDA76314B9B7E5A1E314913469B0013440B4448339B78DBB203F00F03DBB23033DAB22A4B1A77294B30225A7701
:402BC000264BDB7E3033DAB2254B9A77234B93F82220234BDA77214B93F82230092B06D81E4B93F822303033DAB21D4BDA771B4B93F821201A4B83F82020184B93F82130C7
:402C0000092B07D8154B93F821303033DAB2144B83F82020114B93F82020114B83F821200E4B93F82030092B07D80C4B93F820303033DAB20A4B83F82120084BDA7F084B85
:402C400083F82220054BDB7F092B13D8034BDB7F3033DAB2024B83F822200BE0DC86FF1F6084FF1F5886FF1F0284FF1F2C85FF1F3E85FF1F514B9A7F514B83F823204F4BC7
:402C80009B7F092B06D84D4B9B7F3033DAB24C4B83F82320494B5A7F494B83F82420474B5B7F092B06D8454B5B7F3033DAB2444B83F82420414B1A7F414B83F825203F4B12
:402CC0001B7F092B06D83D4B1B7F3033DAB23C4B83F82520002387F82F3012E097F82F30263397F82F20013234490A4492F843203032D1B2324AD15497F82F30013387F8A6
:402D00002F3097F82F30062BE8D92D4B312283F82D202C4B1B78DBB2022B40F028822A4B1B78012B42D1002387F82F303AE097F82F305B08DBB21A46244B134493F82330DF
:402D40001B0987F82E3097F82F3003F00103DBB2002B0CD197F82F305B08DBB21A461B4B134493F8233003F00F0387F82E3097F82F30043397F82E203032D1B2104AD154B7
:402D800097F82E30092B08D997F82F30043397F82E203732D1B20A4AD15497F82F30013387F82F3097F82F300F2BC0D9064B1B78002B4CD1002387F82F3044E0DC86FF1F18
:402DC0006084FF1F4F86FF1F0284FF1F5885FF1F97F82F305B08DBB21A46B54B134493F823301B0987F82E3097F82F3003F00103DBB2002B0CD197F82F305B08DBB21A4613
:402E0000AB4B134493F8233003F00F0387F82E3097F82F30043397F82E203032D1B2A54AD15497F82E30092B08D997F82F30043397F82E203732D1B29E4AD15497F82F309F
:402E4000013387F82F3097F82F300F2BC0D9984B9B7E013B984A134493F85930DBB23033DAB2944B1A75954B1B78002B13D1944B1B79DAB28F4B5A75914BDB78DAB28D4B53
:402E80009A758F4B9B78DAB28A4BDA758C4B5B78DAB2884B1A76894B1B78012B0BD1854B30225A75834B30229A75824B3022DA75804B30221A76834B1B78DBB2002B59D1E0
:402EC0007B4B9B7E5A1E7C4913469B0013440B444C339B78DBB203F00F03DBB23033DAB2744B5A76724B9B7E5A1E734913469B0013440B444B339B78DBB203F00F03DBB299
:402F00003033DAB26B4B9A76694B9B7E5A1E6A4913469B0013440B444A339B78DBB203F00F03DBB23033DAB2624BDA76604B9B7E5A1E614913469B0013440B4449339B78A0
:402F4000DBB203F00F03DBB23033DAB2594B1A77574B9B7E5A1E584913469B0013440B4448339B78DBB203F00F03DBB23033DAB2504B5A77534B1B78DBB2012B4AD14C4BFC
:402F80009B7E5A1E504913469B0013440B444B339B78DBB203F00F03DBB23033DAB2454B5A76434B9B7E5A1E474913469B0013440B444A339B78DBB203F00F03DBB23033F3
:402FC000DAB23C4B9A763A4B9B7E5A1E3E4913469B0013440B4449339B78DBB203F00F03DBB23033DAB2334BDA76314B9B7E5A1E354913469B0013440B4448339B78DBB2CC
:4030000003F00F03DBB23033DAB22A4B1A77294B30225A77264BDB7E3033DAB2254B9A77234B93F82220234BDA77284B93F82230092B06D81E4B93F822303033DAB21D4B3F
:40304000DA771B4B93F821201A4B83F820201F4B93F82130092B07D8154B93F821303033DAB2144B83F82020114B93F82020114B83F821200E4B93F82030092B07D80C4B32
:4030800093F820303033DAB20A4B83F82120084BDA7F084B83F82220054BDB7F092B17D8034BDB7F3033DAB2024B83F822200FE05885FF1F6084FF1F5882FF1F0284FF1F83
:4030C0002C85FF1F3E85FF1F5886FF1FDC86FF1FBA4B9A7FBA4B83F82320B84B9B7F092B06D8B64B9B7F3033DAB2B54B83F82320B24B5A7FB24B83F82420B04B5B7F092B31
:4031000006D8AE4B5B7F3033DAB2AD4B83F82420AA4B1A7FAA4B83F82520A84B1B7F092B06D8A64B1B7F3033DAB2A54B83F82520002387F82F3012E097F82F30263397F863
:403140002F2001329D490A4492F843203032D1B29B4AD15497F82F30013387F82F3097F82F30062BE8D9964B322283F82D20944B2A2283F82E2006F0D3F8002387F82F302A
:403180000BE097F82F308E4AD35C184606F006F997F82F30013387F82F3097F82F302E2BEFD94FF4AF7005F06BFD06F011F9854B1B78DBB20F2B31D906F066FF07F02CF864
:4031C000804B00221A70804B00221A707F4B01225A707F4B1B78DBB2012B04D07C4B1B78DBB2042B0CD101202C2105F055F84FF4FA7005F045FD01202E2105F04DF80DE022
:403200000120152105F048F801202C2105F044F84FF4FA7005F034FD02F0CABE02F0C8BE6C4B1B78DBB2012B40F09480012005F0E3F80346012B40F08D800120332105F04A
:403240003BF90346002B00F08580002387F82F300FE097F82F40012005F0B4F903461A465D4B234483F8232097F82F30013387F82F3097F82F30072BEBD9584B00221A7057
:40328000002387F82F3014E0544B197897F82F30514A134493F823300846194605F0ECF903461A464D4B1A7097F82F30013387F82F3097F82F30062BE6D9474B93F82A2094
:4032C000464B1B789A4245D10120132104F0E4FF4FF4FA7005F0D4FC414B00221A70414B0A221A70404B02221A80404B03221A803F4B01221A80334B00221A703D4B1B7881
:40330000DBB20A2B06D10120132104F0C5FF2E4B13221A70374B1B78DBB2082B06D10120242104F0B9FF284B0C221A70314B1B78DBB2082B0ED02F4B1B78DBB20A2B09D071
:403340002C4B02221A7001200E2104F0A5FF1E4B0C221A701F4B1B78DBB2022B40F0AF80012005F049F80346012B40F0A8800120332105F0A1F80346002B00F0A08000233B
:4033800087F82F300FE097F82F40012005F01AF903461A46094B234483F8232097F82F30013387F82F3097F82F30072BEBD90B4B00221A70002387F82F3032E05885FF1F03
:4033C0006084FF1F2885FF1F5685FF1F5886FF1F8287FF1F4F86FF1FDC86FF1F2583FF1F3F85FF1F0884FF1FB686FF1FDC82FF1F0084FF1FD782FF1F7F4B197897F82F30E7
:403400007E4A134493F823300846194605F034F903461A46784B1A7097F82F30013387F82F3097F82F30062BE6D9744B93F82A20714B1B789A4242D10120132104F02CFFA6
:403440004FF4FA7005F01CFC6D4B00221A706D4B0A221A706C4B02221A806C4B03221A806B4B01221A806B4B1B78DBB20A2B06D10120132104F010FF674B13221A70654B07
:403480001B78DBB2082B06D10120242104F004FF614B0C221A705F4B1B78DBB2082B0ED05C4B1B78DBB20A2B09D05A4B02221A7001200E2104F0F0FE574B0C221A7006F09C
:4034C00045FB0346082B1ED1544B1B78DBB2AA2B12D1524B9B79DBB2C32B0DD14F4BDB79DBB23C2B08D14D4BDB78DBB23B2B03D1494B00221A7000BF642005F0C1FB06F009
:403500006DFB02F055BD02F053BD454B1B78DBB2012B40F0A88506F019FB0346082B40F0A2853E4B1B78DBB2AA2B40F09A853B4B9B79DBB2C32B40F09485384BDB79DBB278
:403540003C2B40F08E85374B00221A702C4B1B78DAB22C4B1B78DBB29A4280F0D7802F4BDB78DBB2092B32D8254B1B78DBB20133DAB2234B1A70224B1B78DBB21A46274B64
:40358000DB78D9B2284B9954244BDB78DBB23033D9B21E4B1B889DB2194B1B78DBB29BB21B4A128892B2013292B202FB03F39AB2154B1B889BB213449CB2154B1B889BB226
:4035C000DBB2009301202A46234604F0B1FE134BDB78DBB20A2B56D10E4B1B78DBB2012B24D1074B1B78DBB2012B1FD10E4B5B78DBB2002B1AD146E02583FF1F5885FF1F96
:403600003F85FF1F0884FF1FB686FF1FDC82FF1F0084FF1FD782FF1F5685FF1F788EFF1F4F86FF1F2885FF1F3086FF1FAF4B1B78DBB20133DAB2AD4B1A70AC4B1B78DBB2ED
:403640001A46AB4B00219954AA4B1B889DB2A74B1B78DBB29BB2A84A128892B2013292B202FB03F39AB2A54B1B889BB213449CB2A14B1B889BB2DBB20093012030212A46B7
:40368000234604F055FE9E4BDB78DBB2512B3DD1964B1B78DBB2002B38D09A4B1B78DBB2002B33D1914B1B78DBB20133DAB28F4B1A708E4B1B78DBB21A46934B1B78D9B22A
:4036C0008B4B9954904B1B78D9B28A4B1B889DB2864B1B78DBB29BB2874A128892B2013292B202FB03F39AB2844B1B889BB213449CB2814B1B889BB2DBB2009301202A46D3
:40370000234604F015FE7F4B01221A707C4BDB78DBB20B2B40F0A080744B1B78DBB2002B5ED17A4B1B78DBB2013B072B00F2948001A252F823F000BF5937000069370000F4
:4037400071370000873700009D370000B337000059380000C93700000120052104F09CFD6B4B04221A703AE0694B00221A7036E00120002104F090FD654B00221A70654BFB
:4037800001225A702BE00120002104F085FD604B00221A705F4B01225A7020E00120002104F07AFD5A4B00221A705A4B01225A7015E00120002104F06FFD554B00221A70F8
:4037C000544B01225A700AE00120002104F064FD4F4B00221A704F4B01225A7000BF3BE0444B1B889DB2414B1B78DBB29BB2424A128892B2013292B202FB03F39AB23F4BF1
:403800001B889BB213449CB23B4B1B889BB2DBB20093012020212A46234604F089FD334B1B78DBB21A46324B9B5CDAB2364B1B78DBB29A4202D1334B00221A702B4B1B7827
:40384000DBB21A462A4B00219954284B1B78DBB2013BDAB2254B1A70294BDB78DBB20C2B40F0FF83294B1B78DBB2013B072B00F2F88301A252F823F0993800002D3A00009F
:40388000093B0000813B0000DB3B0000C93C0000FB3C0000A33E0000002387F82F300CE097F82F3007F130021344002203F82C2C97F82F30013387F82F3097F82F30072BE4
:4038C000EED90A4B1B78DBB2002B00F0AE80074B1B78DBB21A46064B9B5CDBB22C2B00F0A480012387F82F303FE000BF3F85FF1F3086FF1FDC82FF1F0084FF1FB686FF1F23
:40390000788EFF1F5782FF1FB582FF1FD782FF1F5685FF1F5886FF1F97F82F30B14AD35CDBB22C2B0FD097F82F30013B97F82F20AC498A5CD2B23032D2B207F130010B440B
:4039400003F82C2C0CE097F82F30013B97F82F20A4498A5CD2B207F130010B4403F82C2C97F82F30013387F82F309F4B1B78DBB297F82F209A42CFD93B1D184607F090FA3B
:40398000C7E90801994BDB7E012B09D1D7E908014FF00002964B07F06FFA0346002B1AD1924BDB7E022B40D1D7E908014FF000028F4B07F057FA0346002B00D151E3D7E988
:4039C00008014FF000024FF0000307F05FFA0346002B00D145E3844B1B7887F82F3015E097F82F30804A1278D2B2114697F82F208A1A01327B498A5CD1B27C4A13440A46DD
:403A0000DA7697F82F30013B87F82F3097F82F30002BE5D1774B05221A70774B02225A700120072104F038FC1BE31AE3002387F82F300BE097F82F306C4A1344002283F84C
:403A4000432097F82F30013387F82F3097F82F300A2BEFD9644B1B7887F82F3016E097F82F30614A1278D2B2114697F82F208A1A01325C498A5CD1B25C4A13440A4683F859
:403A8000432097F82F30013B87F82F3097F82F30002BE4D1594B1B78DBB2012B33D1002387F82F300AE097F82F30504A13440022DA7697F82F30013387F82F3097F82F30AF
:403AC000072BF0D9494B0322DA76052387F82F300AE097F82F30454A13440922DA7697F82F30013387F82F3097F82F30072BF0D90120072104F0D0FB3F4B02225A703D4B92
:403B000006221A70ADE2ACE2374B1B7887F82F3018E097F82F30344A1278D2B2114697F82F208A1A01322F498A5CD2B23032D1B22E4A13440A4683F8592097F82F30013B41
:403B400087F82F3097F82F30002BE2D1294B02221A700120052104F09FFB234B00221A70274B04221A70274B0A221A70264B02221A80264B03221A80254B01221A8070E262
:403B8000194B1B7887F82F3018E097F82F30164A1278D2B2114697F82F208A1A013211498A5CD2B23032D1B2104A13440A4683F8642097F82F30013B87F82F3097F82F3031
:403BC000002BE2D10B4B66221A700120392104F063FB094B10225A7043E2034B1B7887F82F3030E03086FF1F3F85FF1FDC86FF1F000014405685FF1F5886FF1F4F86FF1FFC
:403C0000D782FF1F0884FF1FB686FF1FDC82FF1F0084FF1F97F82F30AF4A1278D2B2114697F82F208A1A0132AC498A5CD2B23032D1B2AB4A13440A4683F8712097F82F3010
:403C4000013B87F82F3097F82F30002BE2D1A54B1A78A34B93F875309A4223D1A14B5A789F4B93F874309A421CD19E4B9A789C4B93F873309A4215D19A4BDA78984B93F8D7
:403C800072309A420ED10120262104F005FBC82004F0F6FF0120462104F0FEFA924B10221A70DEE1904B00221A700120272104F0F3FA8E4B01225A70C82004F0E1FF01203A
:403CC000002104F0E9FACCE1834B1B78DBB21A46824B9B5CDBB218461E2106F0FFFC824B00221A7001203C2104F0D6FAC82004F0C7FF7E4B01225A70B3E17B4B12221A70C7
:403D00000120582104F0C8FA794B1B78013B032B00F2988001A252F823F000BF2D3D0000733D0000B93D0000FF3D00006B4B5B78DBB23033DAB26F4B1A706E4B1B78322B6B
:403D400008D0332B0BD0312B0ED1684B012283F859200DE0654B012283F85A2008E0634B012283F85B2003E0634B00221A7000BF68E05A4B5B78DBB23033DAB25D4B5A701F
:403D80005C4B5B78322B08D0332B0BD0312B0ED1564B022283F859200DE0544B022283F85A2008E0514B022283F85B2003E0534B00221A7000BF45E0484B5B78DBB230337D
:403DC000DAB24C4B9A704B4B9B78322B08D0332B0BD0312B0ED1454B032283F859200DE0424B032283F85A2008E0404B032283F85B2003E0424B00221A7000BF22E0374B1A
:403E00005B78DBB23033DAB23A4BDA70394BDB78322B08D0332B0BD0312B0ED1334B042283F859200DE0314B042283F85A2008E02E4B042283F85B2003E0324B00221A703F
:403E400000BF00BF2B4B1A78012300930120114607222C2304F06CFA264B5A7801230093012011460E222C2304F062FA214B9A78012300930120114613222C2304F058FA03
:403E80001C4BDA78012300930120114619222C2304F04EFA154B01225A70C82004F0F0FEDFE0012387F82F3009E097F82F30164A0021D15497F82F30013387F82F3097F870
:403EC0002F30042BF1D9104B04221A70024B1B7887F82F3030E000BF3F85FF1F3086FF1FDC86FF1F4481FF1F5685FF1F5886FF1F8187FF1FBC82FF1F4881FF1F4981FF1F73
:403F00004A81FF1F4B81FF1F2C85FF1F97F82F30904A1278D2B2114697F82F208A1A01328D498A5CD2B23032D1B28C4AD15497F82F30013B87F82F3097F82F30002BE5D106
:403F4000864B5B78DBB22F2B17D9844B9B78DBB22F2B12D8814BDB78DBB22F2B0DD87F4B1B79DBB22F2B08D87C4B30229A707B4B3022DA70794B30221A71784B5B78DBB2BA
:403F80002F2B14D9754B9B78DBB22F2B0FD9734BDB78DBB22F2B0AD8704B1B79DBB22F2B05D86E4B3022DA706C4B30221A716B4B5B78DBB22F2B11D9684B9B78DBB22F2B3B
:403FC0000CD9664BDB78DBB22F2B07D9634B1B79DBB22F2B02D8614B30221A71082387F82F3011E097F82F30083B5C4AD35CDAB297F82F309BB21046194606F06FFB97F81A
:404000002F30013387F82F3097F82F300C2BE9D9534B1B78DBB2012B12D1524B0C221A70514B02221A7001200E2104F035F9C82004F026FE474B00221A704C4B01225A7088
:40404000474B1B78DBB2002B0AD1464B06221A700120072104F020F9444B02225A70FFE700BF05F0BBFD424B1B78DBB2022B40F0998505F06BFD0346082B40F093853D4B4F
:404080001B78DBB2AA2B40F089853A4B9B79DBB2C32B40F08385374BDB79DBB23C2B40F07D85354B00221A702A4B1B78DAB2334B1B78DBB29A4280F0D9802E4BDB78DBB229
:4040C000092B32D8234B1B78DBB20133DAB2214B1A70204B1B78DBB21A46264BDB78D9B21D4B9954234BDB78DBB23033D9B2244B1B889DB2174B1B78DBB29BB2214A12883E
:4041000092B2013292B202FB03F39AB21E4B1B889BB213449CB21B4B1B889BB2DBB2009301202A46234604F003F9124BDB78DBB20A2B58D10C4B1B78DBB2012B26D1054BA2
:404140001B78DBB2012B21D1034B5B78DBB2002B1CD148E03F85FF1F3086FF1F2C85FF1F5585FF1F5685FF1FD782FF1F5886FF1F4F86FF1F788EFF1F2885FF1F0884FF1F9E
:40418000DC82FF1F0084FF1FB686FF1FAF4B1B78DBB20133DAB2AD4B1A70AC4B1B78DBB21A46AB4B00219954AA4B1B889DB2A74B1B78DBB29BB2A84A128892B2013292B223
:4041C00002FB03F39AB2A54B1B889BB213449CB2A14B1B889BB2DBB20093012030212A46234604F0A5F89E4BDB78DBB2512B3DD1964B1B78DBB2002B38D09A4B1B78DBB297
:40420000002B33D1914B1B78DBB20133DAB28F4B1A708E4B1B78DBB21A46934B1B78D9B28B4B9954904B1B78D9B28A4B1B889DB2864B1B78DBB29BB2874A128892B2013237
:4042400092B202FB03F39AB2844B1B889BB213449CB2814B1B889BB2DBB2009301202A46234604F065F87F4B01221A707C4BDB78DBB20B2B40F0A080744B1B78DBB2002B82
:404280005ED17A4B1B78DBB2013B072B00F2948001A252F823F000BFB9420000C9420000D1420000E7420000FD42000013430000B9430000294300000120052103F0ECFF53
:4042C0006B4B04221A703AE0694B00221A7036E00120002103F0E0FF654B00221A70654B01225A702BE00120002103F0D5FF604B00221A705F4B01225A7020E00120002177
:4043000003F0CAFF5A4B00221A705A4B01225A7015E00120002103F0BFFF554B00221A70544B01225A700AE00120002103F0B4FF4F4B00221A704F4B01225A7000BF3BE0A5
:40434000444B1B889DB2414B1B78DBB29BB2424A128892B2013292B202FB03F39AB23F4B1B889BB213449CB23B4B1B889BB2DBB20093012020212A46234603F0D9FF334B6A
:404380001B78DBB21A46324B9B5CDAB2364B1B78DBB29A4202D1334B00221A702B4B1B78DBB21A462A4B00219954284B1B78DBB2013BDAB2254B1A70294BDB78DBB20C2BAA
:4043C00040F0EC83294B1B78DBB2013B072B00F2E58301A252F823F0F94300008D45000069460000E14600003B470000294800005B480000034A0000002387F82F300CE00E
:4044000097F82F3007F130021344002203F82C2C97F82F30013387F82F3097F82F30072BEED90A4B1B78DBB2002B00F0AE80074B1B78DBB21A46064B9B5CDBB22C2B00F005
:40444000A480012387F82F303FE000BF3F85FF1F3086FF1FDC82FF1F0084FF1FB686FF1F788EFF1F5782FF1FB582FF1FD782FF1F5685FF1F5882FF1F97F82F30B14AD35C1A
:40448000DBB22C2B0FD097F82F30013B97F82F20AC498A5CD2B23032D2B207F130010B4403F82C2C0CE097F82F30013B97F82F20A4498A5CD2B207F130010B4403F82C2C0B
:4044C00097F82F30013387F82F309F4B1B78DBB297F82F209A42CFD93B1D184606F0E0FCC7E90801994BDB7E012B09D1D7E908014FF00002964B06F0BFFC0346002B1AD1D1
:40450000924BDB7E022B40D1D7E908014FF000028F4B06F0A7FC0346002B00D13EE3D7E908014FF000024FF0000306F0AFFC0346002B00D132E3844B1B7887F82F3015E0A8
:4045400097F82F30804A1278D2B2114697F82F208A1A01327B498A5CD1B27C4A13440A46DA7697F82F30013B87F82F3097F82F30002BE5D1774B05221A70774B02225A7085
:404580000120072103F088FE08E307E3002387F82F300BE097F82F306C4A1344002283F8432097F82F30013387F82F3097F82F300A2BEFD9644B1B7887F82F3016E097F8ED
:4045C0002F30614A1278D2B2114697F82F208A1A01325C498A5CD1B25C4A13440A4683F8432097F82F30013B87F82F3097F82F30002BE4D1594B1B78DBB2022B33D1002370
:4046000087F82F300AE097F82F30504A13440022DA7697F82F30013387F82F3097F82F30072BF0D9494B0322DA76052387F82F300AE097F82F30454A13440922DA7697F8A1
:404640002F30013387F82F3097F82F30072BF0D90120072103F020FE3F4B02225A703D4B06221A709AE299E2374B1B7887F82F3018E097F82F30344A1278D2B2114697F892
:404680002F208A1A01322F498A5CD2B23032D1B22E4A13440A4683F8592097F82F30013B87F82F3097F82F30002BE2D1294B02221A700120052103F0EFFD234B00221A70C4
:4046C000274B04221A70274B0A221A70264B02221A80264B03221A80254B01221A805DE2194B1B7887F82F3018E097F82F30164A1278D2B2114697F82F208A1A0132114916
:404700008A5CD2B23032D1B2104A13440A4683F8642097F82F30013B87F82F3097F82F30002BE2D10B4B66221A700120392103F0B3FD094B10225A7030E2034B1B7887F80E
:404740002F3030E03086FF1F3F85FF1F5885FF1F000014405685FF1F5882FF1F4F86FF1FD782FF1F0884FF1FB686FF1FDC82FF1F0084FF1F97F82F30AF4A1278D2B21146FC
:4047800097F82F208A1A0132AC498A5CD2B23032D1B2AB4A13440A4683F8712097F82F30013B87F82F3097F82F30002BE2D1A54B1A78A34B93F875309A4223D1A14B5A7856
:4047C0009F4B93F874309A421CD19E4B9A789C4B93F873309A4215D19A4BDA78984B93F872309A420ED10120262103F055FDC82004F046FA0120462103F04EFD924B102265
:404800001A70CBE1904B00221A700120272103F043FD8E4B01225A70C82004F031FA0120002103F039FDB9E1834B1B78DBB21A46824B9B5CDBB218461E2105F04FFF824B01
:4048400000221A7001203C2103F026FDC82004F017FA7E4B01225A70A0E17B4B12221A700120582103F018FD794B1B78013B032B00F2988001A252F823F000BF8D4800004F
:40488000D3480000194900005F4900006B4B5B78DBB23033DAB26F4B1A706E4B1B78322B08D0332B0BD0312B0ED1684B012283F859200DE0654B012283F85A2008E0634B80
:4048C000012283F85B2003E0634B00221A7000BF68E05A4B5B78DBB23033DAB25D4B5A705C4B5B78322B08D0332B0BD0312B0ED1564B022283F859200DE0544B022283F8EE
:404900005A2008E0514B022283F85B2003E0534B00221A7000BF45E0484B5B78DBB23033DAB24C4B9A704B4B9B78322B08D0332B0BD0312B0ED1454B032283F859200DE0E3
:40494000424B032283F85A2008E0404B032283F85B2003E0424B00221A7000BF22E0374B5B78DBB23033DAB23A4BDA70394BDB78322B08D0332B0BD0312B0ED1334B042261
:4049800083F859200DE0314B042283F85A2008E02E4B042283F85B2003E0324B00221A7000BF00BF2B4B1A78012300930120114607222C2303F0BCFC264B5A780123009324
:4049C000012011460E222C2303F0B2FC214B9A78012300930120114613222C2303F0A8FC1C4BDA78012300930120114619222C2303F09EFC1C4B01225A70C82004F040F9EF
:404A0000CCE0012387F82F3009E097F82F30174A0021D15497F82F30013387F82F3097F82F30042BF1D9114B04221A70024B1B7887F82F3032E000BF3F85FF1F3086FF1F12
:404A4000DC86FF1F4481FF1F5685FF1F5882FF1F8187FF1FBC82FF1F4881FF1F4981FF1F4A81FF1F4B81FF1F5886FF1F2C85FF1F97F82F30884A1278D2B2114697F82F20F0
:404A80008A1A013285498A5CD2B23032D1B2844AD15497F82F30013B87F82F3097F82F30002BE5D17E4B5B78DBB22F2B17D97C4B9B78DBB22F2B12D8794BDB78DBB22F2B1C
:404AC0000DD8774B1B79DBB22F2B08D8744B30229A70734B3022DA70714B30221A71704B5B78DBB22F2B14D96D4B9B78DBB22F2B0FD96B4BDB78DBB22F2B0AD8684B1B7991
:404B0000DBB22F2B05D8664B3022DA70644B30221A71634B5B78DBB22F2B11D9604B9B78DBB22F2B0CD95E4BDB78DBB22F2B07D95B4B1B79DBB22F2B02D8594B30221A71BD
:404B4000082387F82F3011E097F82F30083B544AD35CDAB297F82F309BB21046194605F0BDFD97F82F30013387F82F3097F82F300C2BE9D94B4B0C221A704B4B02221A7099
:404B800001200E2103F088FBC82004F079F8424B00221A70454B01225A7000BF05F01EF801F006BA01F004BA414B1B78DBB2012B40F0D6823F4B4D221A703E4B55225A7055
:404BC0003C4B58229A703B4B3122DA70394B31221A71394B5B7E013B384A134493F85930DBB23033DAB2334B5A71334B5B7D3033DAB2304B9A71304B1B7D3033DAB22D4B95
:404C0000DA712D4BDB7C3033DAB22A4B1A72294B2C225A72284B9B7C3033DAB2254B9A72254B5B7C3033DAB2224BDA72224B1B7C3033DAB21F4B1A73214B5B78DBB2072B10
:404C400040D11D4B9B7B3033DAB21A4B5A731A4B5B7B3033DAB2174B9A73174B1B7B3033DAB2144BDA73144BDB7A3033DAB2114B1A74114B9B7A3033DAB20E4B5A740E4BEB
:404C80005B7A3033DAB20B4B9A740B4B1B7A3033DAB2084BDA743FE03F85FF1F3086FF1F2C85FF1F5685FF1FD782FF1F5882FF1F4F86FF1F6084FF1FDC86FF1F5886FF1FD4
:404CC000D882FF1F664B5B7B3033DAB2654B5A73634B1B7B3033DAB2624B9A73604BDB7A3033DAB25F4BDA735D4B9B7A3033DAB25C4B1A745A4B5B7A3033DAB2594B5A74BA
:404D0000574B1B7A3033DAB2564B9A74544BDB793033DAB2534BDA74534B1B78DBB2002B1DD14F4B9B793033DAB24E4B1A754C4B5B793033DAB24B4B5A75494B1B793033EA
:404D4000DAB2484B9A75464BDB783033DAB2454BDA75434B9B783033DAB2424B1A76424B1B78DBB2012B1AD13D4B5B793033DAB23C4B1A753A4B1B793033DAB2394B5A7526
:404D8000374BDB783033DAB2364B9A75344B9B783033DAB2334BDA75324B30221A76334B1B79DAB22F4B5A76304BDB78DAB22D4B9A762E4B9B78DAB22A4BDA762B4B5B7802
:404DC000DAB2284B1A772A4B1B78012B43D1002387F82F303AE097F82F305B08DBB21A461F4B134493F823301B0987F82E3097F82F3003F00103DBB2002B0CD197F82F307A
:404E00005B08DBB21A46164B134493F8233003F00F0387F82E3097F82F301D3397F82E203032D1B20F4AD15497F82E30092B08D997F82F301D3397F82E203732D1B2094AD0
:404E4000D15497F82F30013387F82F3097F82F300F2BC0D94DE0002387F82F3045E000BFDC86FF1F6084FF1F3E85FF1F2C85FF1F0284FF1F97F82F305B08DBB21A467D4B5E
:404E8000134493F823301B0987F82E3097F82F3003F00103DBB2002B0CD197F82F305B08DBB21A46734B134493F8233003F00F0387F82E3097F82F301D3397F82E203032B2
:404EC000D1B26D4AD15497F82E30092B08D997F82F301D3397F82E203732D1B2664AD15497F82F30013387F82F3097F82F300F2BC0D9624B1B8801339AB2604B1A805F4BF5
:404F00001B885F4AA2FB03239B099BB2DBB23033DAB25C4B1A71594B1B88594AA2FB031292094FF47A7101FB02F29B1A9BB2564AA2FB03235B099BB2DBB23033DAB2514B40
:404F4000DA704E4B1B884E4AA2FB031292094FF47A7101FB02F29B1A9BB24B4AA2FB03125209642101FB02F29B1A9BB2474AA2FB0323DB089BB2DBB23033DAB2414B9A70F7
:404F80003E4B1B883E4AA2FB031292094FF47A7101FB02F29B1A9BB23B4AA2FB03125209642101FB02F29B1A9AB2384BA3FB0213D9080B469B000B445B00D31A9BB2DBB254
:404FC0003033DAB22F4B5A70012387F82F300EE097F82F302C3397F82F202A498A5CD1B2254AD15497F82F30013387F82F3097F82F30072BECD9012387F82F3010E097F88D
:405000002F30204AD35CDAB297F82F309BB21046194605F063FB97F82F30013387F82F3097F82F30042BEAD9002387F82F3012E097F82F30343397F82F2001320D490A44CC
:4050400092F843203032D1B20B4AD15497F82F30013387F82F3097F82F30062BE8D9064B2A2283F83B2004F05BF9002387F82F301AE000BFDC86FF1F6084FF1FBA82FF1FB3
:40508000D34D62103485FF1F1F85EB51CDCCCCCC97F82F306E4AD35C184604F07FF997F82F30013387F82F3097F82F303B2BEFD904F036F94FF4967003F0E2FD04F088F908
:4050C000644B00221A70644B5B7E5A1E634913469B0013440B4448339B78DBB23B735E4B5B7E5A1E5D4913469B0013440B4449339B78DBB27B73584B5B7E5A1E5749134615
:405100009B0013440B444A339B78DBB2BB73524B5B7E5A1E514913469B0013440B444B339B78DBB2FB734C4B5B7E5A1E4B4913469B0013440B444C339B78DBB23B74484BBE
:405140001B78DBB2002B0BD1444B1B78D9B2424B5B7E07F10C02084611461A4601F014FF404B1B78DBB2022B40F0C582384B4D221A70374B55225A70354B58229A70344BD5
:405180003122DA70324B32221A71374B5B7E013B364A134493F85930DBB23033DAB22C4B5A71314B5B7D3033DAB2294B9A712E4B1B7D3033DAB2264BDA712B4BDB7C303308
:4051C000DAB2234B1A72224B2C225A72264B9B7C3033DAB21E4B9A72234B5B7C3033DAB21B4BDA72204B1B7C3033DAB2184B1A731F4B5B78DBB2072B3CD11B4B9B7B303307
:40520000DAB2134B5A73184B5B7B3033DAB2104B9A73154B1B7B3033DAB20D4BDA73124BDB7A3033DAB20A4B1A740F4B9B7A3033DAB2074B5A740C4B5B7A3033DAB2044B31
:405240009A74094B1B7A3033DAB2014BDA743BE06084FF1F5686FF1FDC86FF1F5886FF1F0B84FF1F4F86FF1F5885FF1F5882FF1FD882FF1F664B5B7B3033DAB2654B5A731D
:40528000634B1B7B3033DAB2624B9A73604BDB7A3033DAB25F4BDA735D4B9B7A3033DAB25C4B1A745A4B5B7A3033DAB2594B5A74574B1B7A3033DAB2564B9A74544BDB7997
:4052C0003033DAB2534BDA74534B1B78DBB2002B1DD14F4B9B793033DAB24E4B1A754C4B5B793033DAB24B4B5A75494B1B793033DAB2484B9A75464BDB783033DAB2454B5C
:40530000DA75434B9B783033DAB2424B1A76424B1B78DBB2012B1AD13D4B5B793033DAB23C4B1A753A4B1B793033DAB2394B5A75374BDB783033DAB2364B9A75344B9B780B
:405340003033DAB2334BDA75324B30221A76334B1B79DAB22F4B5A76304BDB78DAB22D4B9A762E4B9B78DAB22A4BDA762B4B5B78DAB2284B1A772A4B1B78012B43D1002327
:4053800087F82F303AE097F82F305B08DBB21A461F4B134493F823301B0987F82E3097F82F3003F00103DBB2002B0CD197F82F305B08DBB21A46164B134493F8233003F0D6
:4053C0000F0387F82E3097F82F301D3397F82E203032D1B20F4AD15497F82E30092B08D997F82F301D3397F82E203732D1B2094AD15497F82F30013387F82F3097F82F30D1
:405400000F2BC0D94DE0002387F82F3045E000BF5885FF1F6084FF1F3E85FF1F2C85FF1F0284FF1F97F82F305B08DBB21A46B34B134493F823301B0987F82E3097F82F30D6
:4054400003F00103DBB2002B0CD197F82F305B08DBB21A46A94B134493F8233003F00F0387F82E3097F82F301D3397F82E203032D1B2A34AD15497F82E30092B08D997F8B4
:405480002F301D3397F82E203732D1B29C4AD15497F82F30013387F82F3097F82F300F2BC0D9984B1B8801339AB2964B1A80954B1B88954AA2FB03239B099BB2DBB2303321
:4054C000DAB2924B1A718F4B1B888F4AA2FB031292094FF47A7101FB02F29B1A9BB28C4AA2FB03235B099BB2DBB23033DAB2874BDA70844B1B88844AA2FB031292094FF443
:405500007A7101FB02F29B1A9BB2814AA2FB03125209642101FB02F29B1A9BB27D4AA2FB0323DB089BB2DBB23033DAB2774B9A70744B1B88744AA2FB031292094FF47A71A2
:4055400001FB02F29B1A9BB2714AA2FB03125209642101FB02F29B1A9AB26E4BA3FB0213D9080B469B000B445B00D31A9BB2DBB23033DAB2654B5A70012387F82F300EE0F8
:4055800097F82F302C3397F82F2060498A5CD1B25B4AD15497F82F30013387F82F3097F82F30072BECD9012387F82F3010E097F82F30564AD35CDAB297F82F309BB2104633
:4055C000194605F08BF897F82F30013387F82F3097F82F30042BEAD9002387F82F3012E097F82F30343397F82F20013243490A4492F843203032D1B2414AD15497F82F3051
:40560000013387F82F3097F82F30062BE8D93C4B2A2283F83B2003F083FE002387F82F300BE097F82F30364AD35C184603F0B6FE97F82F30013387F82F3097F82F303B2B79
:40564000EFD903F06DFE4FF4967003F019FB03F0BFFE314B00221A70284B5B7E5A1E2F4913469B0013440B4448339B78DBB23B73224B5B7E5A1E294913469B0013440B4473
:4056800049339B78DBB27B731C4B5B7E5A1E234913469B0013440B444A339B78DBB2BB73164B5B7E5A1E1D4913469B0013440B444B339B78DBB2FB73104B5B7E5A1E17498D
:4056C00013469B0013440B444C339B78DBB23B74134B1B78DBB2002B0DD1124B1B78D9B2064B5B7E07F10C02084611461A4601F04BFC00F05DBC00F05BBC00BF5885FF1F09
:405700006084FF1FBA82FF1FD34D62103485FF1F1F85EB51CDCCCCCC5686FF1F5886FF1F0B84FF1F5882FF1F04F010FA0346082B40F00A81A04B1B78DBB2AA2B40F0FE8035
:405740009D4B9B79DBB2C32B40F0F8809A4BDB79DBB23C2B40F0F280984B1B78DAB2984B1B78DBB29A426CD2934BDB78DBB2092B33D8924B1B78DBB201338F4AD278D2B247
:405780003032D1B28F4A13440A4683F864208E4B1B889DB2894B1B78DBB29BB28B4A128892B2013292B202FB03F39AB2884B1B889BB213449CB2854B1B889BB2DBB20093C8
:4057C00001202A212A46234602F0B2FD7B4B1B78DBB20133DAB2794B1A70774BDB78DBB20A2B2ED1754B1B78DBB20133754A1344302283F86420744B1B889DB26F4B1B7880
:40580000DBB29BB2714A128892B2013292B202FB03F39AB26E4B1B889BB213449CB26B4B1B889BB2DBB2009301202A212A46234602F07EFD614B1B78DBB20133DAB25F4B43
:405840001A705D4BDB78DBB20B2B2ED15C4B1B78DBB2002B03D15F4B00221A7025E0574B1B78DBB2013BDAB2544B1A70564B1B889DB2524B1B78DBB29BB2544A128892B2F4
:40588000013292B202FB03F39AB2514B1B889BB213449CB24D4B1B889BB2DBB20093012020212A46234602F043FD434BDB78DBB20C2B43D1414B1B78DBB2002B3ED03F4BC4
:4058C0001B78DAB23F4B83F86420002387F82E303C4B93F86430042B2DD1012387F82F3015E097F82F30374A134493F8642097F82F303949CB5C9A4204D197F82E300133F8
:4059000087F82E3097F82F30013387F82F3097F82F30042BE5D997F82E30042B07D12D4B0F221A7001205D2102F0B6FC06E0294B00221A7002E0274B00221A70642003F0C8
:405940009FF904F04BF933E332E304F0FFF80346082B40F09680184B1B78DBB2AA2B40F09080154B9B79DBB2C32B40F08A80124BDB79DBB23C2B40F084800F4BDB78DBB2AB
:40598000B92B04D0BA2B57D07E2B72D010E3134B4D221A70114B55225A70104B58229A700E4B3322DA700D4B2A221A7103F0B8FC002387F82F301FE0788EFF1F3F85FF1F9E
:4059C0000884FF1FDC86FF1FDC82FF1F0084FF1FB686FF1F5685FF1F2881FF1F6084FF1F97F82F30BA4AD35C184603F0D7FC97F82F30013387F82F3097F82F30042BEFD919
:405A0000962003F03DF90120002102F045FCB14B00221A70B04B1B78DBB2012B02D1AF4B01225A70AC4B1B78DBB2022B03D1AC4B01225A7025E024E001202F2102F02CFCD9
:405A4000A84B05221A70A84B00221A70A74B2C221A70A74B04221A70A64B04221A80A64B03221A80A54B01221A809A4B0C221A7007E001204A2102F00FFC964B00221A70CF
:405A800000BF95E204F062F80346082B40F04A819B4B1B78DBB2AA2B40F03E81984B9B79DBB2C32B40F03881954BDB79DBB23C2B40F03281924BDB78DBB2802B5ED0802B7A
:405AC00005DC7E2B00F020817F2B07D024E1812B00F09F80C22B00F0E7801DE17C4B4D221A707B4B55225A70794B58229A70784B3622DA70764B2A221A7103F011FC0023D9
:405B000087F82F300BE097F82F30714AD35C184603F044FC97F82F30013387F82F3097F82F30042BEFD9962003F0AAF8754B1B78DBB2012B04D0734B1B78DBB2042B04D141
:405B400001202E2102F0A8FB03E00120152102F0A3FB604B00221A705F4B1B78DBB2012B02D15E4B01225A705B4B1B78DBB2022B03D15B4B01225A70CEE0CDE0544B4D22DD
:405B80001A70534B55225A70514B58229A70504B3622DA704E4B2A221A7103F0C1FB002387F82F300BE097F82F30494AD35C184603F0F4FB97F82F30013387F82F3097F895
:405BC0002F30042BEFD9962003F05AF84D4B1B78DBB2012B04D101202E2102F05DFB03E00120152102F058FB3A4B00221A703A4B1B78DBB2012B02D1384B01225A70364B9C
:405C00001B78DBB2022B03D1354B01225A7083E082E02F4B4D221A702D4B55225A702C4B58229A702A4B3622DA70294B2A221A7103F076FB002387F82F300BE097F82F304A
:405C4000234AD35C184603F0A9FB97F82F30013387F82F3097F82F30042BEFD9962003F00FF8284B1B78DBB2012B04D101202E2102F012FB03E00120152102F00DFB154B67
:405C800000221A70144B1B78DBB2012B02D1134B01225A70104B1B78DBB2022B03D1104B01225A7038E037E001206E2102F0F4FA104B04221A80104B03221A800F4B01223A
:405CC0001A80044B0B221A70064B0A221A7023E06084FF1F5685FF1F4F86FF1F5886FF1F5882FF1FD782FF1F3F85FF1FB582FF1F0884FF1FB686FF1FDC82FF1F0084FF1F48
:405D0000788EFF1F8287FF1F01204A2102F0C4FAA94B00221A7000BF642002F0B1FF03F05DFF45E144E103F011FF0346082B4AD1A24B1B78DBB2AA2B3FD1A04B9B79DBB2A5
:405D4000C32B3AD19D4BDB79DBB23C2B35D19B4BDB78DBB28F2B04D0902B14D07E2B24D02BE00020172104F0B9FC934B00221A7001203C2102F090FAC82002F081FF904B9F
:405D800001225A7019E00120172104F0A7FC8A4B00221A7001203C2102F07EFAC82002F06FFF874B01225A7007E001204A2102F073FA814B00221A7000BF642002F060FFBF
:405DC00003F00CFFF4E0F3E07E4B4D221A707D4B55225A707B4B58229A707A4B3522DA70794B1B78DBB2012B65D1002387F82F303AE097F82F305B08DBB21A46734B1344CF
:405E000093F823301B0987F82E3097F82F3003F00103DBB2002B0CD197F82F305B08DBB21A466A4B134493F8233003F00F0387F82E3097F82F30043397F82E203032D1B218
:405E4000604AD15497F82E30092B08D997F82F30043397F82E203732D1B25A4AD15497F82F30013387F82F3097F82F300F2BC0D9544B2A221A7503F053FA002387F82F301E
:405E80000BE097F82F304F4AD35C184603F086FA97F82F30013387F82F3097F82F30142BEFD90120002102F0F7F9434B00221A70434B01225A70444B1B78DBB2022B66D18F
:405EC000002387F82F303AE097F82F305B08DBB21A463F4B134493F823301B0987F82E3097F82F3003F00103DBB2002B0CD197F82F305B08DBB21A46354B134493F823301C
:405F000003F00F0387F82E3097F82F30043397F82E203032D1B22B4AD15497F82E30092B08D997F82F30043397F82E203732D1B2244AD15497F82F30013387F82F3097F8EC
:405F40002F300F2BC0D91F4B2A221A7503F0E8F9002387F82F300BE097F82F30194AD35C184603F01BFA97F82F30013387F82F3097F82F30142BEFD90120002102F08CF956
:405F80000D4B00221A70134B01225A7010E00FE0114B1B78DBB2032B09D9074B00221A7004F072F804F038F90B4B00221A7000BF3037BD46B0BD00BF5685FF1F788EFF1F32
:405FC0005886FF1F6084FF1F4F86FF1FDC86FF1F5885FF1F5882FF1F2885FF1F80B500AF04F04EF9184B1B78DBB2012B24D1174B1B78DBB2062B11D8144B1B78DBB2013360
:40600000DAB2124B1A70114B1B78DBB29BB214339BB20120194602F03FF914E00B4B00221A700A4B1B78DBB29BB214339BB20120194602F031F906E0044B1B78DBB2013375
:40604000DAB2024B1A7080BD5685FF1F2885FF1F80B500AF04F0D4F9184B1B78DBB2012B24D1174B1B78DBB2062B11D8144B1B78DBB20133DAB2124B1A70114B1B78DBB235
:406080009BB214339BB20220194602F005F914E00B4B00221A700A4B1B78DBB29BB214339BB20220194602F0F7F806E0044B1B78DBB20133DAB2024B1A7080BD0384FF1F12
:4060C000C082FF1F80B500AFF9F7DCFFFAF724F90320002102F008FE02F04CFEFBF764FA02F048FEFAF7B0FAF6E700BF80B500AF04F0B8FA014B01221A7080BD8387FF1F64
:4061000080B584B000AF0346FB7102F08BFFFB79184602F0C5FF1E4803F036FC04F05EFA1C4B00221A700A2002F0AAFD0BE0194B1B78012B07D103F039FC04F05FFA02F094
:4061400071FF002320E002F023FF0346002BEED002F0D4FE0346FB73FB7B03F00F02FB799A420AD1FB7B1B09FB7302F05BFF03F01DFC04F043FAFB7B06E002F053FF03F002
:4061800015FC04F03BFA002318461037BD4680BDED6000008387FF1F80B582B000AF244BFF221A70234BFF221A70052002F068FD0020FFF7A5FF0346002B02D01D4B0022D9
:4061C0001A700123FB711FE0052002F059FDFB791846FFF795FF0346002B12D0144B1B78DBB2FF2B03D1124AFB79137009E0114B1B78DBB2FF2B04D10E4AFB7913700123C0
:4062000012E0FB790133FB71FB790F2BDCD9084B1B78DBB2FF2B06D0064B1B78DBB2FF2B01D0012300E0002318460837BD4680BD5886FF1F5882FF1F90B58BB000AF0346A6
:40624000FB71594A07F108031068516803C3127A1A7002F0E7FEFB7943F02003DBB2184602F01EFF514803F08FFB04F0B7F9504B00221A700BE04E4B1B78012B07D103F055
:4062800095FB04F0BBF902F0CDFE002388E002F07FFE0346002BEED003F088FB04F0AEF902F02CFE03461A46FB7963F02F03DBB29A4274D102F0B6FE052002F0E1FC002383
:4062C00087F827300EE097F8273007F12802134413F8203C184602F0E3FE97F82730013387F8273097F82730082BECD92F4803F04BFB04F073F92E4B00221A700BE02C4B7E
:406300001B78012B07D103F051FB04F077F902F089FE002344E002F03BFE0346132BEED103F044FB04F06AF9002387F827300FE097F8274002F0E2FD03461A4607F12803EE
:40634000234403F8142C97F82730013387F8273097F82730122BEBD902F064FE3B7DBA2B1BD197F825308D2B17D197F826308A2B13D197F82030B12B0FD197F82230B22B6C
:4063800005D0B32B05D0B12B05D1012308E0022306E0032304E0002302E0002300E0002318462C37BD4690BD58D30000ED6000008387FF1F80B584B000AF0346FB7102F0E7
:4063C00031FEFB7943F04003DBB2184602F068FE4FF4967002F054FCAB4B5B78DBB2072B00F0BC8002F0D4FD0346212B40F0B680A64B1B78DBB2FF2B40F0AE80A34B9B78AA
:40640000DBB2F82B40F0A880A04B93F82030DBB2F02B40F0A1809E4B1B78DBB2FA799A424CD19A4B5B7ADBB203F00F03DBB20133DAB2984B5A760023FB730FE0FB7BFA7B69
:406440000C3292498A5CD2B202F00F02D1B2914A13440A469A70FB7B0133FB73FB7B032BECD90023FB730FE0FB7BFA7B113287498A5CD2B202F00F02D1B2864A13440A4621
:406480001A74FB7B0133FB73FB7B052BECD90023FB730FE0FB7BFA7B18327C498A5CD2B202F00F02D1B27B4A13440A46DA71FB7B0133FB73FB7B052BECD94BE0734B5B7A69
:4064C000DBB203F00F03DBB20133DAB2724B5A760023FB730FE0FB7BFA7B0C326B498A5CD2B202F00F02D1B26B4A13440A469A70FB7B0133FB73FB7B032BECD90023FB736B
:406500000FE0FB7BFA7B113260498A5CD2B202F00F02D1B2604A13440A461A74FB7B0133FB73FB7B052BECD90023FB730FE0FB7BFA7B183255498A5CD2B202F00F02D1B200
:40654000554A13440A46DA71FB7B0133FB73FB7B052BECD90123CFE00023CDE04A4B5B78DBB2072B40F0C78002F012FD0346272B40F0C180454B1B78DBB2FF2B40F0B98076
:40658000424B9B78DBB2F82B40F0B3803F4B93F82630DBB2F02B40F0AC803D4B1B78DBB2FA799A424CD1394B5B7ADBB203F00F03DBB20133DAB2374B5A760023FB730FE09B
:4065C000FB7BFA7B0C3231498A5CD2B202F00F02D1B2304A13440A469A70FB7B0133FB73FB7B052BECD90023FB730FE0FB7BFA7B133226498A5CD2B202F00F02D1B2254ADC
:4066000013440A461A74FB7B0133FB73FB7B072BECD90023FB730FE0FB7BFA7B1C321B498A5CD2B202F00F02D1B21A4A13440A46DA71FB7B0133FB73FB7B072BECD956E082
:40664000124B5B7ADBB203F00F03DBB20133DAB2114B5A760023FB730FE0FB7BFA7B0C320A498A5CD2B202F00F02D1B20A4A13440A469A70FB7B0133FB73FB7B052BECD969
:406680000023FB731AE000BFD882FF1F8487FF1F5886FF1FDC86FF1F5885FF1FFB7BFA7B133217498A5CD2B202F00F02D1B2154A13440A461A74FB7B0133FB73FB7B072BA4
:4066C000ECD90023FB730FE0FB7BFA7B1C320C498A5CD2B202F00F02D1B20A4A13440A46DA71FB7B0133FB73FB7B072BECD9012302E0002300E0002318461037BD4680BDFB
:406700008487FF1F5885FF1F80B588B000AF3A601A460346FB710B46BB7113467B7107F1080300221A60043300221A60043300221A60043300221A60043300221A80023368
:406740000423BB777B79032B01D102237B71B34B5B78DBB2052B04D0B04B5B78DBB2062B04D17B79012B01D10323BB77AB4B5B78DBB2052B04D17B79022B01D10523BB7706
:40678000A64B5B78DBB2072B04D17B79012B01D10023BB77A14B5B78DBB2072B04D17B79022B01D10223BB7700233B7701237B770AE07B7F3A6813441B782C2B01D17B7F1F
:4067C0003B777B7F01337B777B7F072BF1D93B7F042B01D90023CFE3904B5B78DBB2072B00F00582FF233B72BB7F63F01F03DBB27B727B7963F00F03DBB2BB72F423FB72C6
:40680000F8233B733B6801331B7863F01F03DBB27B733B6802331B7863F01F03DBB2BB733B6803331B7863F01F03DBB2FB733B6804331B7863F01F03DBB23B743B680533C5
:406840001B7863F01F03DBB27B743B6806331B7863F01F03DBB2BB74704B9B78DBB2022B40F0A5803B7F042B29D13B6802331B7863F01F03DBB27B733B6803331B7863F01A
:406880001F03DBB2BB733B6805331B7863F01F03DBB2FB733B6806331B7863F01F03DBB23B743B6807331B7863F01F03DBB27B743B6808331B7863F01F03DBB2BB743B7F40
:4068C000032B29D13B6801331B7863F01F03DBB27B733B6802331B7863F01F03DBB2BB733B6804331B7863F01F03DBB2FB733B6805331B7863F01F03DBB23B743B680633A3
:406900001B7863F01F03DBB27B743B6807331B7863F01F03DBB2BB743B7F022B24D1E0237B733B6801331B7863F01F03DBB2BB733B6803331B7863F01F03DBB2FB733B684C
:4069400004331B7863F01F03DBB23B743B6805331B7863F01F03DBB27B743B6806331B7863F01F03DBB2BB743B7F002B1FD1E0237B73E023BB733B6801331B7863F01F03C7
:40698000DBB2FB733B6802331B7863F01F03DBB23B743B6803331B7863F01F03DBB27B743B6804331B7863F01F03DBB2BB74FB23FB7400233B7500237B770FE03A7D7B7FB0
:4069C00007F120010B4413F8183C03F00F03DBB21344DBB23B757B7F01337B777B7F0B2BECD93B7D5B42DBB2DBB203F00F03DBB263F01F03DBB2DBB23B75F0237B750D2322
:406A0000FB77064B5B78DBB2052B2CD1FB23BB740023FB7400237B7712E000BFD882FF1FFA7C7B7F07F120010B4413F8183C03F00F03DBB21344DBB2FB747B7F01337B77AD
:406A40007B7F0A2BECD9FB7C5B42DBB2DBB203F00F03DBB263F01F03DBB2DBB2FB74F0233B750C23FB777B79012B40F0C080F6233B73BB79013BDBB2DBB263F01F03DBB21D
:406A8000DBB27B73F823BB733B7F042B22D13B6802331B7863F01F03DBB2FB733B6803331B7863F01F03DBB23B743B6805331B7863F01F03DBB27B743B6806331B7863F01D
:406AC0001F03DBB2BB743B6807331B7863F01F03DBB2FB743B7F032B22D13B6801331B7863F01F03DBB2FB733B6802331B7863F01F03DBB23B743B6804331B7863F01F0324
:406B0000DBB27B743B6805331B7863F01F03DBB2BB743B6806331B7863F01F03DBB2FB743B7F022B1DD1E023FB733B6801331B7863F01F03DBB23B743B6803331B7863F03A
:406B40001F03DBB27B743B6804331B7863F01F03DBB2BB743B6805331B7863F01F03DBB2FB743B7F002B18D1E023FB73E0233B743B6801331B7863F01F03DBB27B743B680B
:406B800002331B7863F01F03DBB2BB743B6803331B7863F01F03DBB2FB74FB233B7500237B7500237B770FE07A7D7B7F07F120010B4413F8183C03F00F03DBB21344DBB2EC
:406BC0007B757B7F01337B777B7F0C2BECD97B7D5B42DBB2DBB203F00F03DBB263F01F03DBB2DBB27B75F023BB750E23FB77A24B5B78DBB2072B40F06481FF233B72BB7F4C
:406C000063F01F03DBB27B727B7963F00F03DBB2BB72F423FB72F8233B733B6801331B7863F01F03DBB27B733B6802331B7863F01F03DBB2BB733B6803331B7863F01F032F
:406C4000DBB2FB733B6804331B7863F01F03DBB23B743B6805331B7863F01F03DBB27B743B6806331B7863F01F03DBB2BB743B6807331B7863F01F03DBB2FB74E0233B7568
:406C8000FB237B750023BB7500237B770FE0BA7D7B7F07F120010B4413F8183C03F00F03DBB21344DBB2BB757B7F01337B777B7F0D2BECD9BB7D5B42DBB2DBB203F00F03C6
:406CC000DBB263F01F03DBB2DBB2BB75F023FB750F23FB777B79012B40F0F380F6233B73BB79013BDBB2DBB263F01F03DBB2DBB27B73F823BB733B7F042B2DD13B68013389
:406D00001B7863F01F03DBB2FB733B6802331B7863F01F03DBB23B743B6803331B7863F01F03DBB27B743B6805331B7863F01F03DBB2BB743B6806331B7863F01F03DBB2C7
:406D4000FB743B6807331B7863F01F03DBB23B75E0237B75E023BB753B7F032B2DD1E023FB733B6801331B7863F01F03DBB23B743B6802331B7863F01F03DBB27B743B68EB
:406D800004331B7863F01F03DBB2BB743B6805331B7863F01F03DBB2FB743B6806331B7863F01F03DBB23B753B6807331B7863F01F03DBB27B75E023BB753B7F022B2DD15E
:406DC000E023FB73E0233B743B6801331B7863F01F03DBB27B743B6803331B7863F01F03DBB2BB743B6804331B7863F01F03DBB2FB743B6805331B7863F01F03DBB23B757A
:406E00003B6806331B7863F01F03DBB27B753B6807331B7863F01F03DBB2BB753B7F002B23D1E023FB73E0233B74E0237B743B6801331B7863F01F03DBB2BB743B680233EE
:406E40001B7863F01F03DBB2FB743B6803331B7863F01F03DBB23B753B6804331B7863F01F03DBB27B75E023BB75FB23FB7500233B7600237B7711E0D882FF1F3A7E7B7FCC
:406E800007F120010B4413F8183C03F00F03DBB21344DBB23B767B7F01337B777B7F0F2BECD93B7E5B42DBB2DBB203F00F03DBB263F01F03DBB2DBB23B76F0237B76112351
:406EC000FB7702F0AFF8FB7943F02003DBB2184602F0E6F82A4802F057FD03F07FFB294B00221A700A2001F0CBFE0BE0254B1B78012B07D102F05AFD03F080FB02F092F8B4
:406F0000002339E002F044F80346002BEED002F04DFD03F073FB01F0F1FF03461A46FB7963F02F03DBB29A4225D102F07BF80A2001F0A6FE00237B770BE07B7F07F12002FE
:406F4000134413F8183C184602F0AAF87B7F01337B777A7FFB7F9A42EFD9322001F090FEFB791846FFF7CCF80346002B01D1002302E0012300E0002318462037BD4680BD6E
:406F8000ED6000008387FF1F80B588B000AF03463960FB711346BB7100233B7300237B730023BB730023FB7300233B7400237B740023BB740023FB7400233B7500237B75FB
:406FC0000023BB750023FB7500233B7600237B760023BB76884B5B78DBB2072B56D0FF233B73E5237B73F423BB73F623FB73BB79013BDBB2DBB263F01F03DBB2DBB23B748A
:40700000F7237B740623BB7715E0BB7FBA7F063A39680A441278D2B202F00F02D2B262F01F02D2B2D2B207F120010B4403F8142CBB7F0133BB77BB7F092BE6D9FB23BB7587
:407040000023BB770FE0FA7DBB7F07F120010B4413F8143C03F00F03DBB21344DBB2FB75BB7F0133BB77BB7F0A2BECD9FB7D5B42DBB2DBB203F00F03DBB263F01F03DBB2DB
:40708000DBB2FB75F0233B760C23FB775A4B5B78DBB2072B53D1FF233B73E3237B73F423BB73F623FB73BB79013BDBB2DBB263F01F03DBB2DBB23B74F7237B740623BB7757
:4070C00010E0BB7FBA7F063A39680A44127862F01F02D2B207F120010B4403F8142CBB7F0133BB77BB7F0A2BEBD9E023FB75FB233B760023BB770FE07A7EBB7F07F1200136
:407100000B4413F8143C03F00F03DBB21344DBB27B76BB7F0133BB77BB7F0C2BECD97B7E5B42DBB2DBB203F00F03DBB263F01F03DBB2DBB27B76F023BB760E23FB7701F0CE
:4071400071FFFB7943F02003DBB2184601F0A8FF2A4802F019FC03F041FA294B00221A700BE0274B1B78012B07D102F01FFC03F045FA01F057FF002339E001F009FF034693
:40718000002BEED002F012FC03F038FA01F0B6FE03461A46FB7963F02F03DBB29A4225D101F040FF0A2001F06BFD0023BB770BE0BB7F07F12002134413F8143C184601F0D3
:4071C0006FFFBB7F0133BB77BA7FFB7F9A42EFD9322001F055FDFB791846FEF791FF0346002B01D1002302E0012300E0002318462037BD4680BD00BFD882FF1FED60000053
:407200008387FF1F80B584B000AF03460A46FB711346BB7101F006FFFB7943F05003DBB2184601F03DFFB04B00221A704FF4967001F026FD01F0ACFE0346002B01F02280D6
