:400000000080002011000000D5820000D582000080B500AF024A034B1B68136008F088F9BC760040FA46004010B5054C237833B9044B13B10448AFF300800123237010BDE0
:400040000082FF1F0000000050CF0000084B10B51BB108480849AFF300800848036803B910BD074B002BFBD0BDE81040184700BF0000000050CF00000482FF1F0881FF1F11
:400080000000000090B583B000AF7A4B00221A8062B608F08BFE09F08BF808F0C1FC09F0E5FA09F05FFC0AF013F9734B002283F85920714B002283F85A206F4B002283F89E
:4000C0005B206E4B002283F859206C4B002283F85A206A4B002283F85B200023FB7108E0FB79674A1344012283F83320FB790133FB71FB790F2BF3D9052008F0C1FB0D23A0
:40010000FB710EE0FB79A3F10D04FB799BB218460AF074F903461A465A4B1A55FB790133FB71FB790E2BEDD90F200AF067F903461A46514B83F85C2010200AF05FF90346F2
:400140001A464D4B83F8592011200AF057F903461A46494B83F85A2012200AF04FF903461A46454B83F85B2013200AF047F903461A46424B83F85C2014200AF03FF90346FA
:400180001A463E4B83F8592015200AF037F903461A463A4B83F85A2016200AF02FF903461A46364B83F85B2017200AF027F903461A46354B1A701A200AF020F903461A466E
:4001C0002D4B1A701C200AF019F903461A462B4B1A701B200AF012F903461A462B4B1A701D200AF00BF903461A46294B1A701E200AF004F903461A46264B5A701F200AF0EF
:40020000FDF803461A46234B9A7020200AF0F6F803461A461F4BDA7021200AF0EFF803461A461D4B1A7022200AF0E8F803461A461A4B1A7023200AF0E1F803461A46184B90
:400240001A700D4B01225A700C4B01225A70154B00221A700F4B00229A700E4B0322DA70114B00221A70052008F00AFB0C37BD4690BD00BF8883FF1F1887FF1FB882FF1F57
:400280009C87FF1F9C85FF1F9E85FF1FA085FF1F5882FF1F3883FF1F4288FF1F1586FF1F5482FF1F1687FF1F1686FF1F80B582B000AF03460A46FB711346BB80FB79012B10
:4002C00002D0FB79032B12D1BB880120194607F0E5FD134B64221A70124B01221A70124B01225A70114809F0BDFC09F085FDFB79022B02D0FB79042B0FD1BB880220194609
:4003000007F0CCFD0A4B64221A700A4B01221A70094809F0A3FE09F053FE0837BD4680BD1686FF1F8885FF1F1887FF1FE15B00006384FF1F2083FF1F555C000080B582B026
:4003400000AF0023FB7180E10023FB71C24B1B78DBB2FF2B04D0C14B1B78DBB2FF2B58D100BF05F01BFD0346002BFAD000BFBA4B1B78DAB2B84B93F85C30DBB2104619465C
:4003800006F042FD0346002BF1D0322008F078FA00BFB24B1B78DAB2B04B93F85C30DBB21046194606F030FD0346002BF1D0322008F066FAA84B1B78DBB218461A2109F041
:4003C0008DFF0346002B04D101203C2107F066FD03E00120552107F061FDA04B1B78DBB218461C2109F07AFF0346002B04D102203C2107F053FD03E00220552107F04EFD9D
:40040000974B00221A70974B00221A700123FB711BE1914B1B78DBB2184605F073FC0346BB71BB790C2B7ED801A252F823F000BF6504000027050000270500002705000074
:4004400027050000270500006D040000A9040000D3040000E704000003050000F5040000110500007C4BFF221A705CE07A4B1B78DBB2184605F0A0FD322008F001FA764BA4
:400480001B78DAB2744B93F85C30DBB21046194606F0BAFC322008F0F3F9724B00221A70FB790133FB713EE06B4B1B78DAB26A4B93F85C30DBB21046194606F0A5FC3220BC
:4004C00008F0DEF9674B00221A70FB790133FB7129E0644B08221A70634B01221A70FB790133FB711FE05F4B0B221A70FB790133FB7118E05B4B0C221A70FB790133FB7102
:4005000011E0584B0C221A70FB790133FB710AE0544B0B221A700120082107F0BFFCFB790133FB7100BF4D4B1B78DBB2184605F0E9FB0346BB71BB790C2B00F2868001A2E2
:4005400052F823F0790500004B0600004B0600004B0600004B0600004B06000081050000BD050000E705000003060000270600001906000035060000384BFF221A7064E0D5
:40058000364B1B78DBB2184605F016FD322008F077F9324B1B78DAB2304B93F85C30DBB21046194606F030FC322008F069F92C4B00221A70FB790133FB7146E0274B1B78DA
:4005C000DAB2264B93F85C30DBB21046194606F01BFC322008F054F9214B00221A70FB790133FB7131E01E4B08221A701E4B02221A700220082107F051FCFB790133FB71ED
:4006000023E0174B0B221A700220082107F046FCFB790133FB7118E0114B0C221A70FB790133FB7111E00E4B0C221A70FB790133FB710AE00A4B0B221A700220082107F098
:400640002DFCFB790133FB7100BFFB79012B7FF67BAE0837BD4680BD1887FF1FB882FF1F6384FF1F1686FF1F0F87FF1F80B586B000AF08F00BFC0346052B40F28C8508F06C
:4006800005FC03463B820A2008F0FAF808F0FEFB0346FB813A8AFB899A4240F07C85AB4B1B78DBB2422B40F06E85A84B5B78DBB2422B40F06885A54B9B78DBB2422B40F064
:4006C0006285A34B00221A70A04BDB78DBB2303B152B00F2448501A252F823F035070000B10E00005F1100007D0F00005F1100005F1100005F1100005F1100005F11000021
:400700005F1100005F1100005F1100005F1100005F1100005F1100005F1100005F1100005F1100005F1100005F1100005F110000230F0000854B1B79DBB2312B40F0DA816F
:40074000824B0022DA70814B5B79DBB24E2B0BD17E4B1B79DBB203F00F03DBB218461C21FFF7A4FD00F0FBBC784B9B7ADBB2462B7ED1784B9B7E5A1E774913469B001344E5
:400780000B4448339B78DBB203F00F03DBB23B72704B9B7E5A1E704913469B0013440B4449339B78DBB203F00F03DBB27B72694B9B7E5A1E684913469B0013440B444A3349
:4007C0009B78DBB203F00F03DBB2BB72614B9B7E5A1E614913469B0013440B444B339B78DBB203F00F03DBB2FB725A4B9B7E5A1E594913469B0013440B444C339B78DBB26B
:4008000003F00F03DBB23B73534B1B78DBB203F00F03D9B24F4B9B7E07F10802084611461A4606F0B3F90346002B40F09B804B4B4D221A70494B55225A70484B58229A7094
:40084000464B4522DA70454B30221A713F4B1B79DAB2424B5A71414B31229A713F4B2A22DA710823FB823A4B01221A7000F077BC394B1B78DAB2384B93F85C30DBB210469F
:40088000194606F0C1FA364B1B78DBB2012B11D12E4B5B7ADBB23B732C4B1B7ADBB2FB722A4BDB79DBB2BB72284B9B79DBB27B7200233B722A4B1B78DBB2002B13D1234B84
:4008C0009B7ADBB23B73214B5B7ADBB2FB721F4B1B7ADBB2BB721D4BDB79DBB27B721B4B9B79DBB23B721C4B1B78DBB203F00F03D9B2184B9B7E07F10802084611461A4630
:4009000006F044F90346002B2CD1144B4D221A70124B55225A70114B58229A700F4B4522DA700E4B30221A71084B1B79DAB20B4B5A710A4B31229A71084B2A22DA710823A0
:40094000FB82034B01221A7000F009BC4489FF1F8A83FF1F9C87FF1F1887FF1FC084FF1F9E85FF1FAF4B5B7CDBB27B70AD4B5B7CDBB22C2B06D0AB4B5B7CDBB203F00F0362
:40098000DBB27B70A74B1B7CDBB2BB70A54B1B7CDBB22C2B06D0A34B1B7CDBB203F00F03DBB2BB709F4BDB7BDBB2FB709D4BDB7BDBB22C2B06D09B4BDB7BDBB203F00F0370
:4009C000DBB2FB70974B9B7BDBB23B71954B9B7BDBB22C2B06D0934B9B7BDBB203F00F03DBB23B718F4B5B7BDBB27B718D4B5B7BDBB22C2B06D08B4B5B7BDBB203F00F0390
:400A0000DBB27B71874B1B7BDBB2BB71854B1B7BDBB22C2B06D0834B1B7BDBB203F00F03DBB2BB717F4BDB7ADBB2FB717D4BDB7ADBB22C2B06D07B4BDB7ADBB203F00F03B1
:400A4000DBB2FB71774B9B7CDBB27B827B8A312B02D102237B8201E001237B82724B1B78DBB203F00F03D8B2704B997E7B8ADBB23A4605F04BFC0346012B1BD10A2007F0B4
:400A8000FFFE694B1B78DBB2DBB203F00F03DBB243F01003DBB2DBB2184608F001F9624B06225A70624B08221A700120082107F0F5F9FCE15F4B4D221A705E4B55225A70FD
:400AC0005C4B58229A705B4B4522DA70594B30221A71544B1B79DAB2564B5A71554B32229A71544B2A22DA710823FB82524B01221A7034E34B4B0022DA704A4B5B79DBB292
:400B00004E2B0AD1474B1B79DBB203F00F03DBB218461C21FFF7CAFB21E3424B9B7ADBB2462B40F08F80454B9B7E5A1E444913469B0013440B4448339B78DBB203F00F037B
:400B4000DBB23B723D4B9B7E5A1E3D4913469B0013440B4449339B78DBB203F00F03DBB27B72364B9B7E5A1E354913469B0013440B444A339B78DBB203F00F03DBB2BB7261
:400B80002E4B9B7E5A1E2E4913469B0013440B444B339B78DBB203F00F03DBB2FB72274B9B7E5A1E264913469B0013440B444C339B78DBB203F00F03DBB23B73204B1B7894
:400BC000DBB203F00F03D9B21C4B9B7E07F10802084611461A4605F0D9FF0346002B40F09E80144B4D221A70124B55225A70114B58229A700F4B4522DA700E4B30221A71AB
:400C0000084B1B79DAB20B4B5A710A4B31229A71084B2A22DA710823FB82074B01221A709DE200BF4489FF1F1887FF1F9C87FF1F1686FF1FC084FF1F8A83FF1F1886FF1FB2
:400C4000B882FF1FAE4B1B78DAB2AD4B93F85C30DBB21046194606F0D7F8AA4B1B78DBB2012B11D1A84B5B7ADBB23B73A64B1B7ADBB2FB72A44BDB79DBB2BB72A24B9B794A
:400C8000DBB27B7200233B729E4B1B78DBB2002B13D19D4B9B7ADBB23B739B4B5B7ADBB2FB72994B1B7ADBB2BB72974BDB79DBB27B72954B9B79DBB23B72914B1B78DBB2D8
:400CC00003F00F03D9B2914B9B7E07F10802084611461A4605F05AFF0346002B1FD18C4B4D221A708A4B55225A70894B58229A70874B4522DA70864B30221A71824B1B79E6
:400D0000DAB2834B5A71824B31229A71804B2A22DA710823FB827F4B01221A701FE27A4B5B7CDBB27B70784B5B7CDBB22C2B06D0754B5B7CDBB203F00F03DBB27B70724B1B
:400D40001B7CDBB2BB70704B1B7CDBB22C2B06D06D4B1B7CDBB203F00F03DBB2BB706A4BDB7BDBB2FB70684BDB7BDBB22C2B06D0654BDB7BDBB203F00F03DBB2FB70624B7C
:400D80009B7BDBB23B71604B9B7BDBB22C2B06D05D4B9B7BDBB203F00F03DBB23B715A4B5B7BDBB27B71584B5B7BDBB22C2B06D0554B5B7BDBB203F00F03DBB27B71524B9B
:400DC0001B7BDBB2BB71504B1B7BDBB22C2B06D04D4B1B7BDBB203F00F03DBB2BB714A4BDB7ADBB2FB71484BDB7ADBB22C2B06D0454BDB7ADBB203F00F03DBB2FB71424BBE
:400E00009B7CDBB27B827B8A312B02D102237B8201E001237B823A4B1B78DBB203F00F03D8B23A4B997E7B8ADBB23A4605F06EFA0346012B1BD10A2007F022FD304B1B78CB
:400E4000DBB2DBB203F00F03DBB243F01003DBB2DBB2184607F024FF294B06225A702E4B08221A700120082107F018F81FE0284B4D221A70264B55225A70254B58229A70F9
:400E8000234B4522DA70224B30221A711E4B1B79DAB21F4B5A711E4B32229A711C4B2A22DA710823FB821B4B01221A7057E156E10120372106F0F2FF184B1B78DBB21A46D8
:400EC000164B1B78DBB203F00F039A4206D1134B01225A70104B00221A7021E0084B1B78DBB21A46084B1B79DBB203F00F039A4216D1034B01225A70074B00221A702EE10F
:400F0000B882FF1F9E85FF1F4489FF1F1886FF1FC084FF1F8A83FF1F1686FF1F1887FF1F1DE19E4B5B79DBB2313B032B00F2168101A252F823F000BF490F0000590F000083
:400F4000690F0000790F0000954B01225A7001201C21FFF7ABF910E0914B01225A7001200C21FFF7A3F908E08D4B01225A7001200C21FFF79BF900E000BFEFE0874B1B79BA
:400F8000DBB2303BDAB2864B83F85C20834B5B79DBB2303BDAB2824B83F859207F4B9B79DBB2303BDAB27E4B83F85A207B4BDB79DBB2303BDAB27A4B83F85B20774B1B7A2E
:400FC000DBB2303BDAB2774B83F85C20734B5B7ADBB2303BDAB2734B83F859206F4B9B7ADBB2303BDAB26F4B83F85A206B4BDB7ADBB2303BDAB26B4B83F85B20674B1B7B66
:40100000DBB2303BDAB2684B5A70644B5B7BDBB2303BDAB2644B9A70604B9B7BDBB2303BDAB2614BDA705D4BDB7BDBB2303BDAB25E4B1A70594B1B7CDBB2303BDAB25C4B97
:401040001A70564B5B7CDBB2303BDAB2594B1A70524B9B7CDBB2303BDAB2574B1A70504B93F85C30DBB218460F2109F037F94C4B93F85930DBB21846102109F02FF9484BE7
:4010800093F85A30DBB21846112109F027F9444B93F85B30DBB21846122109F01FF9414B93F85C30DBB21846132109F017F93D4B93F85930DBB21846142109F00FF9394B05
:4010C00093F85A30DBB21846152109F007F9354B93F85B30DBB21846162109F0FFF8334B1B78DBB21846172109F0F8F82E4B5B78DBB218461E2109F0F1F82B4B9B78DBB28E
:4011000018461F2109F0EAF8274BDB78DBB21846202109F0E3F8264B1B78DBB21846212109F0DCF8234B1B78DBB21846222109F0D5F8214B1B78DBB21846232109F0CEF891
:4011400001203C2106F0AAFE4FF4FA7007F098FBFEF798FF194B00221A7000E000BF184B1B78012B0FD10023BB8208E0BB8A154AD35C184607F012FFBB8A0133BB82BA8A64
:40118000FB8A9A42F2D307F0CBFE07F04BFD00233B820023FB811837BD4680BD4489FF1F1887FF1FB882FF1F3883FF1F9E85FF1F4288FF1F1586FF1F5482FF1F1686FF1F93
:4011C0008A83FF1FC084FF1FB0B58EB002AFCD4B1B78DBB2662B04F2ED8401A252F823F07D130000D1140000D3150000CF1A0000A11B00006D1F000011210000B55B00000E
:401200001D220000AD240000B55B0000412E00002B310000C94700002D5300004F550000895600002B590000B55B0000CD5900003915000097130000B55B0000B55B0000DE
:40124000B55B0000B55B0000B55B0000B55B0000B55B0000B55B0000B55B0000B55B0000B55B0000B55B0000B55B0000B55B0000B55B0000B55B0000B55B0000B55B00006E
:40128000B55B0000B55B0000B55B0000B55B0000B55B0000B55B0000B55B0000B55B0000B55B0000B55B0000B55B0000B55B0000B55B0000B55B0000B55B0000B55B00002E
:4012C000B55B0000B55B0000B55B0000B55B0000B55B0000B55B0000B55B0000B55B0000B55B0000B55B0000B55B0000B55B0000B55B0000B55B0000B55B0000B55B0000EE
:40130000B55B0000B55B0000B55B0000B55B0000B55B0000B55B0000B55B0000B55B0000B55B0000B55B0000B55B0000B55B0000B55B0000B55B0000B55B0000B55B0000AD
:40134000B55B0000B55B0000B55B0000B55B0000B55B0000B55B0000B55B0000B55B0000B55B0000B55B0000B55B0000B55B0000955B0000B55B0000B55B0000624808F0FB
:4013800071FC08F039FD614B00221A705D4B15221A7004F00FBC012006F030FE0346012B70D10120332106F089FE0346002B69D0002387F82F301CE097F82F40012006F066
:4013C00003FF03461A46524B234483F8232097F82F3097F82F204E490A4492F823104D4A13440A4683F8232097F82F30013387F82F3097F82F30072BDED9474B00221A7001
:40140000002387F82F3014E0434B197897F82F303F4A134493F823300846194606F02EFF03461A463C4B1A7097F82F30013387F82F3097F82F30062BE6D9354B93F82A202F
:40144000354B1B789A421DD10120132106F026FD4FF4FA7007F014FA304B00221A70304B0A221A702F4B02221A802F4B03221A802E4B01221A80234B14221A7001202E21D2
:4014800006F00CFD08F062F90346082B1ED1284B1B78DBB2AA2B12D1254B9B79DBB2C32B0DD1234BDB79DBB23C2B08D1204BDB78DBB23B2B03D1134B00221A7000BF6420E6
:4014C00007F0DEF908F08AF904F074BB04F072BB08F03CF90346082B11D108F0D5FB08F09BFC01202E2106F0D9FC064B14221A7008F074F90F4B00221A7004F05BBB04F0C8
:4015000059BB00BF1686FF1FE15B00008885FF1F9C87FF1F1886FF1F8583FF1FFD85FF1F6884FF1F7687FF1F3C83FF1F6084FF1F388FFF1F0F87FF1F08F008F90346082BE2
:4015400045D1BC4B1B78DBB2AA2B39D1B94B9B79DBB2C32B34D1B74BDB79DBB23C2B2FD1B44BDB78DBB2572B11D0942B1DD0562B26D10120242106F091FCAF4B01221A7077
:40158000AE4B0C221A70AE4B08221A7018E00120242106F083FCA84B02221A70A74B0C221A70A74B08221A700AE00120722106F075FCA14B01221A70A04B0F221A7000BF06
:4015C000642007F05DF908F009F904F0F3BA04F0F1BA08F0BBF80346082B40F07682954B1B78DBB2AA2B40F06982924B9B79DBB2C32B40F063828F4BDB79DBB23C2B40F0CE
:401600005D828C4BDB78DBB2592B1AD0592B02DC452B0ED052E25C2B03D07E2B00F046824CE20120492106F039FC844B03221A7044E20120722106F031FC804B0F221A7022
:401640003CE20120392106F029FC7E4B4D221A707C4B55225A707B4B58229A70794B3222DA70754B1B78DBB2012B40F01181764B1B78DAB2744B93F85C30DBB2104619467A
:4016800005F0C2FB322007F0FBF8042387F82D30002387F82F3018E097F82D3097F82F2069490A449278D2B202F00F02D2B23032D1B2644AD15497F82D30013387F82D30AD
:4016C00097F82F30013387F82F3097F82F300B2BE2D90C2387F82F3018E097F82D3097F82F2059490A449278D2B202F00F02D2B23032D1B2534AD15497F82D30013387F8F1
:401700002D3097F82F30013387F82F3097F82F30172BE2D9002387F82F3018E097F82D3097F82F2048490A44927ED2B202F00F02D2B23032D1B2434AD15497F82D300133ED
:4017400087F82D3097F82F30013387F82F3097F82F300B2BE2D90C2387F82F3018E097F82D3097F82F2038490A44927ED2B202F00F02D2B23032D1B2324AD15497F82D3083
:40178000013387F82D3097F82F30013387F82F3097F82F30172BE2D9002387F82F3019E097F82D3097F82F2027490A4492F83220D2B202F00F02D2B23032D1B2214AD15450
:4017C00097F82D30013387F82D3097F82F30013387F82F3097F82F300B2BE1D90C2387F82F3019E097F82D3097F82F2016490A4492F83220D2B202F00F02D2B23032D1B2C6
:40180000104AD15497F82D30013387F82D3097F82F30013387F82F3097F82F30172BE1D9084B2A2283F84B2007F07AFB002387F82F3017E0388FFF1F0F87FF1F1686FF1F07
:401840003783FF1FC084FF1F1887FF1F97F82F30CB4AD35C184607F0A1FB97F82F30013387F82F3097F82F304B2BEFD9FA2007F007F807F00BFB0346012B09D901204A2132
:4018800006F00CFBBF4B00221A70BF4B01225A70BE4B1B78DBB2022B40F00581BC4B1B78DAB2BB4B93F85C30DBB21046194605F0ABFA322006F0E4FF042387F82D30002302
:4018C00087F82F3018E097F82D3097F82F20B0490A449278D2B202F00F02D2B23032D1B2A74AD15497F82D30013387F82D3097F82F30013387F82F3097F82F300B2BE2D916
:401900000C2387F82F3018E097F82D3097F82F209F490A449278D2B202F00F02D2B23032D1B2974AD15497F82D30013387F82D3097F82F30013387F82F3097F82F30172B76
:40194000E2D9002387F82F3018E097F82D3097F82F208F490A44927ED2B202F00F02D2B23032D1B2864AD15497F82D30013387F82D3097F82F30013387F82F3097F82F30E4
:401980000B2BE2D90C2387F82F3018E097F82D3097F82F207E490A44927ED2B202F00F02D2B23032D1B2764AD15497F82D30013387F82D3097F82F30013387F82F3097F8E2
:4019C0002F30172BE2D9002387F82F3019E097F82D3097F82F206E490A4492F83220D2B202F00F02D2B23032D1B2654AD15497F82D30013387F82D3097F82F30013387F885
:401A00002F3097F82F300B2BE1D90C2387F82F3019E097F82D3097F82F205D490A4492F83220D2B202F00F02D2B23032D1B2544AD15497F82D30013387F82D3097F82F302C
:401A4000013387F82F3097F82F30172BE1D94C4B2A2283F84B2007F063FA002387F82F300BE097F82F30464AD35C184607F096FA97F82F30013387F82F3097F82F304B2B6B
:401A8000EFD9FA2006F0FCFE07F000FA0346012B09D901204A2106F001FA3A4B00221A703B4B01225A7007F03BFA07E001204A2106F0F4F9334B00221A7000BF642006F006
:401AC000DFFE07F08BFE04F075B804F073B807F03DFE0346082B50D12E4B1B78DBB2AA2B44D12C4B9B79DBB2C32B3FD1294BDB79DBB23C2B3AD1274BDB78DBB25F2B09D065
:401B00005F2B02DC5E2B13D030E07E2B1ED0942B24D02BE00120122106F0C0F91E4B00221A701E4B08221A70164B0B221A701DE00120122106F0B2F9174B01221A70114BC2
:401B40000B221A70154B00221A700FE001204A2106F0A4F90B4B00221A7007E00120632106F09CF9074B01221A7000BF642006F087FE07F033FE04F01DB804F01BB800BF47
:401B8000C084FF1F1686FF1F1887FF1F0F87FF1FB882FF1F388FFF1F6284FF1F3783FF1F07F0D4FD0346082B40F0DE81BD4B1B78DBB2AA2B40F0D181BA4B9B79DBB2C32B99
:401BC00040F0CB81B74BDB79DBB23C2B40F0C581B44BDB78DBB23B2B00F0B3813B2B05DC0F2B0AD0102B00F09280B6E1432B00F018817E2B00F0A981AFE1AB4B1B78DBB2B1
:401C0000012B3ED1002387F82F300AE097F82F30A64A13440022DA7697F82F30013387F82F3097F82F30072BF0D9A14B00221A70A04B01221A70A04B2C221A709F4B5B783E
:401C4000DAB29F4B1A70994B0122DA769D4B00221A700120062106F021F99B4B04221A809A4B03221A809A4B01221A8001230093012024210322042306F05CF9954B0C2273
:401C80001A70894B1B78DBB2022B3FD1002387F82F300AE097F82F308F4A13440022DA7697F82F30013387F82F3097F82F30072BF0D97F4B00221A707E4B01221A707E4B50
:401CC0002C221A707D4B5B78DAB27D4B1A70824B0122DA767B4B00221A700120062106F0DDF8794B04221A80784B03221A80784B01221A80012300930120242103220423DF
:401D000006F018F9734B0C221A7026E125E1664B1B78DBB2012B3ED1002387F82F300AE097F82F30614A13440022DA7697F82F30013387F82F3097F82F30072BF0D95C4B30
:401D400000221A705B4B01221A705B4B2C221A705A4B5B78DAB25A4B1A70544B0222DA76584B00221A7001200D2106F097F8564B04221A80554B03221A80554B01221A8060
:401D80000123009301204C210322042306F0D2F8504B0C221A70444B1B78DBB2022B3FD1002387F82F300AE097F82F303F4A13440022DA7697F82F30013387F82F3097F8D9
:401DC0002F30072BF0D93A4B00221A70394B01221A70394B2C221A70384B5B78DAB2384B1A703D4B0222DA76364B00221A7001200D2106F053F8344B04221A80334B032241
:401E00001A80334B01221A800123009301204C210322042306F08EF82E4B0C221A709CE09BE0214B1B78DBB2012B32D1002387F82F300AE097F82F301C4A13440022DA76D5
:401E400097F82F30013387F82F3097F82F30072BF0D9164B0322DA76052387F82F300AE097F82F30114A13440922DA7697F82F30013387F82F3097F82F30072BF0D901208E
:401E8000072106F00BF8154B02225A70114B06221A70054B1B78DBB2022B51D1002387F82F3028E0388FFF1F0F87FF1F9C87FF1FFD85FF1F3783FF1F1583FF1F3883FF1FFC
:401EC0006884FF1FB682FF1F7687FF1F3C83FF1F6084FF1F1686FF1F1886FF1F1887FF1F97F82F30C34A13440022DA7697F82F30013387F82F3097F82F30072BF0D9BE4B9F
:401F00000322DA76052387F82F300AE097F82F30B84A13440922DA7697F82F30013387F82F3097F82F30072BF0D90120072105F0B5FFB24B02225A70B14B06221A700CE01A
:401F40000BE0AF4B00221A7007E001204A2105F0A5FFAB4B00221A7000BF642006F090FC07F03CFC03F026BE03F024BEA54B1B78DBB2012B61D1322006F082FC07F0E6FB76
:401F80000346082B1AD1A04B1B78DBB2AA2B11D19D4B9B79DBB2C32B0CD19B4BDB79DBB23C2B07D1984BDB78DBB27E2B02D1944B00221A7007F012FC03F0FCBD934B1B78B2
:401FC000DBB2184603F09EFE034687F82F3097F82F30072B06D18A4B06221A70322006F04FFC2AE097F82F30002B0ED1322006F047FC864B1B78DAB207F11403104601212B
:402000001A46022304F082F917E097F82F300C2B04D101205521FEF749F90EE097F82F300B2B03D1764B0D221A7006E097F82F300A2B02D1724B0D221A70724B1B78DBB25E
:40204000022B63D1322006F01BFC07F07FFB0346082B1AD16C4B1B78DBB2AA2B11D16A4B9B79DBB2C32B0CD1674BDB79DBB23C2B07D1654BDB78DBB27E2B02D1604B00226E
:402080001A7007F0ABFB03F095BD5C4B1B78DBB2184603F037FE034687F82F3097F82F30072B06D1564B06221A70322006F0E8FB2CE097F82F30002B0ED1322006F0E0FBA4
:4020C0004E4B1B78DAB207F11403104601211A46022304F01BF919E097F82F300C2B04D101205521FEF7E2F810E097F82F300B2B03D1434B0D221A7008E097F82F300A2B81
:4021000004D13F4B0D221A7003F054BD03F052BD3C4B1B78DBB2012B31D10A2006F0B0FB3A4B1B78DBB2184603F088FE03461A46314B9A76304B9B7E002B20D0142006F057
:402140009FFB324B1B78DBB2184603F0DBFD0346072B14D12E4807F085FD07F04DFE2D4B00221A702C4B00221A80284B04225A700120392105F092FE214B09221A70214B27
:402180001B78DBB2022B33D10A2006F079FB1B4B1B78DBB2184603F051FE03461A46154B9A76144B9B7E002B22D0142006F068FB124B1B78DBB2184603F0A4FD0346072BEF
:4021C00016D1134807F04EFD07F016FE114B00221A70114B00221A80084B04225A700120392105F05BFE064B09221A7003F0E2BC03F0E0BC1886FF1F9C87FF1FB882FF1FA9
:402200001686FF1F0F87FF1F388FFF1F1887FF1FE15B00008885FF1F8883FF1F322006F02FFBAF4B1B78DBB2012B40F09B80AD4B1B78DBB2184603F065FD03460A2B32D0B0
:402240000B2B02D0062B59D08CE0642006F018FB002387F82F3010E097F82F30A24A13440022DA7197F82F309F4A134400221A7497F82F30013387F82F3097F82F30082B75
:40228000EAD9984B1B78DBB2184603F095FE0346012B07D1954B0D221A700120392105F0FDFD5FE05EE0002387F82F3010E097F82F308D4A13440022DA7197F82F308A4A6B
:4022C000134400221A7497F82F30013387F82F3097F82F30082BEAD9824B1B78DBB2184603F06AFE0346012B07D1804B0D221A700120392105F0D2FD34E033E0002387F874
:402300002F3010E097F82F30774A13440022DA7197F82F30744A134400221A7497F82F30013387F82F3097F82F30082BEAD9002387F82F300AE097F82F306B4A134400223D
:402340009A7097F82F30013387F82F3097F82F30042BF0D9654B0D221A700120392105F09DFD00BF5E4B1B78DBB2022B40F09C805F4B1B78DBB2184603F0C4FC03460A2BA0
:4023800033D00B2B03D0062B5AD003F013BC642006F076FA002387F82F3010E097F82F30544A13440022DA7197F82F30514A134400221A7497F82F30013387F82F3097F8AA
:4023C0002F30082BEAD94A4B1B78DBB2184603F0F3FD0346012B07D1444B0D221A700120392105F05BFD5FE05EE0002387F82F3010E097F82F303F4A13440022DA7197F8FD
:402400002F303C4A134400221A7497F82F30013387F82F3097F82F30082BEAD9344B1B78DBB2184603F0C8FD0346012B07D12F4B0D221A700120392105F030FD34E033E0D3
:40244000002387F82F3010E097F82F30294A13440022DA7197F82F30264A134400221A7497F82F30013387F82F3097F82F30082BEAD9002387F82F300AE097F82F301D4ABD
:40248000134400229A7097F82F30013387F82F3097F82F30042BF0D9144B0D221A700120392105F0FBFC00BF03F084BB124B4D221A70114B55225A700F4B58229A700E4B19
:4024C0003022DA70064B1B78DBB2012B40F031820A4B1B78012B52D1002387F82F304AE00F87FF1F1887FF1F9C87FF1F1686FF1FB882FF1F1886FF1FC084FF1F6284FF1F78
:4025000097F82F305B08DBB21A46214B134493F823301B0987F82E3097F82F3003F00103DBB2002B0CD197F82F305B08DBB21A46174B134493F8233003F00F0387F82E308A
:4025400097F82F30043397F82E203032D1B2114AD15497F82E30092B08D997F82F30043397F82E203732D1B20A4AD15497F82F30013387F82F3097F82F300F2BC0D9064B79
:402580001B78002B49D1002387F82F3041E000BF9C87FF1FC084FF1F6284FF1F97F82F305B08DBB21A46B54B134493F823301B0987F82E3097F82F3003F00103DBB2002BAA
:4025C0000CD197F82F305B08DBB21A46AB4B134493F8233003F00F0387F82E3097F82F30043397F82E203032D1B2A54AD15497F82E30092B08D997F82F30043397F82E20B4
:402600003732D1B29E4AD15497F82F30013387F82F3097F82F300F2BC0D9984B9B7E013B984A134493F85930DBB23033DAB2944B1A75954B1B78002B13D1944B1B79DAB2F0
:402640008F4B5A75914BDB78DAB28D4B9A758F4B9B78DAB28A4BDA758C4B5B78DAB2884B1A76894B1B78012B0BD1854B30225A75834B30229A75824B3022DA75804B3022BF
:402680001A76834B1B78DBB2002B59D17B4B9B7E5A1E7C4913469B0013440B444C339B78DBB203F00F03DBB23033DAB2744B5A76724B9B7E5A1E734913469B0013440B44BE
:4026C0004B339B78DBB203F00F03DBB23033DAB26B4B9A76694B9B7E5A1E6A4913469B0013440B444A339B78DBB203F00F03DBB23033DAB2624BDA76604B9B7E5A1E614962
:4027000013469B0013440B4449339B78DBB203F00F03DBB23033DAB2594B1A77574B9B7E5A1E584913469B0013440B4448339B78DBB203F00F03DBB23033DAB2504B5A77B7
:40274000534B1B78DBB2012B4AD14C4B9B7E5A1E4C4913469B0013440B444B339B78DBB203F00F03DBB23033DAB2454B5A76434B9B7E5A1E434913469B0013440B444A333C
:402780009B78DBB203F00F03DBB23033DAB23C4B9A763A4B9B7E5A1E3A4913469B0013440B4449339B78DBB203F00F03DBB23033DAB2334BDA76314B9B7E5A1E31491346E3
:4027C0009B0013440B4448339B78DBB203F00F03DBB23033DAB22A4B1A77294B30225A77264BDB7E3033DAB2254B9A77234B93F82220234BDA77214B93F82230092B06D8D0
:402800001E4B93F822303033DAB21D4BDA771B4B93F821201A4B83F82020184B93F82130092B07D8154B93F821303033DAB2144B83F82020114B93F82020114B83F8212082
:402840000E4B93F82030092B07D80C4B93F820303033DAB20A4B83F82120084BDA7F084B83F82220054BDB7F092B13D8034BDB7F3033DAB2024B83F822200BE09C87FF1F8D
:40288000C084FF1F1887FF1F6284FF1F8C85FF1F9E85FF1F514B9A7F514B83F823204F4B9B7F092B06D84D4B9B7F3033DAB24C4B83F82320494B5A7F494B83F82420474B68
:4028C0005B7F092B06D8454B5B7F3033DAB2444B83F82420414B1A7F414B83F825203F4B1B7F092B06D83D4B1B7F3033DAB23C4B83F82520002387F82F3012E097F82F3065
:40290000263397F82F20013234490A4492F843203032D1B2324AD15497F82F30013387F82F3097F82F30062BE8D92D4B312283F82D202C4B1B78DBB2022B40F028822A4B69
:402940001B78012B42D1002387F82F303AE097F82F305B08DBB21A46244B134493F823301B0987F82E3097F82F3003F00103DBB2002B0CD197F82F305B08DBB21A461B4B69
:40298000134493F8233003F00F0387F82E3097F82F30043397F82E203032D1B2104AD15497F82E30092B08D997F82F30043397F82E203732D1B20A4AD15497F82F3001330F
:4029C00087F82F3097F82F300F2BC0D9064B1B78002B4CD1002387F82F3044E09C87FF1FC084FF1F0F87FF1F6284FF1F1886FF1F97F82F305B08DBB21A46B54B134493F8B0
:402A000023301B0987F82E3097F82F3003F00103DBB2002B0CD197F82F305B08DBB21A46AB4B134493F8233003F00F0387F82E3097F82F30043397F82E203032D1B2A54AA7
:402A4000D15497F82E30092B08D997F82F30043397F82E203732D1B29E4AD15497F82F30013387F82F3097F82F300F2BC0D9984B9B7E013B984A134493F85930DBB23033FE
:402A8000DAB2944B1A75954B1B78002B13D1944B1B79DAB28F4B5A75914BDB78DAB28D4B9A758F4B9B78DAB28A4BDA758C4B5B78DAB2884B1A76894B1B78012B0BD1854BDB
:402AC00030225A75834B30229A75824B3022DA75804B30221A76834B1B78DBB2002B59D17B4B9B7E5A1E7C4913469B0013440B444C339B78DBB203F00F03DBB23033DAB2D2
:402B0000744B5A76724B9B7E5A1E734913469B0013440B444B339B78DBB203F00F03DBB23033DAB26B4B9A76694B9B7E5A1E6A4913469B0013440B444A339B78DBB203F05B
:402B40000F03DBB23033DAB2624BDA76604B9B7E5A1E614913469B0013440B4449339B78DBB203F00F03DBB23033DAB2594B1A77574B9B7E5A1E584913469B0013440B440A
:402B800048339B78DBB203F00F03DBB23033DAB2504B5A77534B1B78DBB2012B4AD14C4B9B7E5A1E504913469B0013440B444B339B78DBB203F00F03DBB23033DAB2454B7E
:402BC0005A76434B9B7E5A1E474913469B0013440B444A339B78DBB203F00F03DBB23033DAB23C4B9A763A4B9B7E5A1E3E4913469B0013440B4449339B78DBB203F00F032F
:402C0000DBB23033DAB2334BDA76314B9B7E5A1E354913469B0013440B4448339B78DBB203F00F03DBB23033DAB22A4B1A77294B30225A77264BDB7E3033DAB2254B9A77B2
:402C4000234B93F82220234BDA77284B93F82230092B06D81E4B93F822303033DAB21D4BDA771B4B93F821201A4B83F820201F4B93F82130092B07D8154B93F821303033C0
:402C8000DAB2144B83F82020114B93F82020114B83F821200E4B93F82030092B07D80C4B93F820303033DAB20A4B83F82120084BDA7F084B83F82220054BDB7F092B17D82D
:402CC000034BDB7F3033DAB2024B83F822200FE01886FF1FC084FF1FB882FF1F6284FF1F8C85FF1F9E85FF1F1887FF1F9C87FF1FBA4B9A7FBA4B83F82320B84B9B7F092B2A
:402D000006D8B64B9B7F3033DAB2B54B83F82320B24B5A7FB24B83F82420B04B5B7F092B06D8AE4B5B7F3033DAB2AD4B83F82420AA4B1A7FAA4B83F82520A84B1B7F092BF7
:402D400006D8A64B1B7F3033DAB2A54B83F82520002387F82F3012E097F82F30263397F82F2001329D490A4492F843203032D1B29B4AD15497F82F30013387F82F3097F861
:402D80002F30062BE8D9964B322283F82D20944B2A2283F82E2006F0C3F8002387F82F300BE097F82F308E4AD35C184606F0F6F897F82F30013387F82F3097F82F302E2BB6
:402DC000EFD94FF4AF7005F05BFD06F001F9854B1B78DBB20F2B31D906F056FF07F01CF8804B00221A70804B00221A707F4B01225A707F4B1B78DBB2012B04D07C4B1B78F9
:402E0000DBB2042B0CD101202C2105F047F84FF4FA7005F035FD01202E2105F03FF80DE001202C2105F03AF84FF4FA7005F028FD0120152105F032F802F0BCBE02F0BABE52
:402E40006C4B1B78DBB2012B40F09480012005F0D5F80346012B40F08D800120332105F02DF90346002B00F08580002387F82F300FE097F82F40012005F0A6F903461A4631
:402E80005D4B234483F8232097F82F30013387F82F3097F82F30072BEBD9584B00221A70002387F82F3014E0544B197897F82F30514A134493F823300846194605F0DEF9B6
:402EC00003461A464D4B1A7097F82F30013387F82F3097F82F30062BE6D9474B93F82A20464B1B789A4245D10120132104F0D6FF4FF4FA7005F0C4FC414B00221A70414B68
:402F00000A221A70404B02221A80404B03221A803F4B01221A80334B00221A703D4B1B78DBB20A2B06D10120132104F0B7FF2E4B13221A70374B1B78DBB2082B06D101201F
:402F4000242104F0ABFF284B0C221A70314B1B78DBB2082B0ED02F4B1B78DBB20A2B09D02C4B02221A7001200E2104F097FF1E4B0C221A701F4B1B78DBB2022B40F0AF80B8
:402F8000012005F03BF80346012B40F0A8800120332105F093F80346002B00F0A080002387F82F300FE097F82F40012005F00CF903461A46094B234483F8232097F82F3069
:402FC000013387F82F3097F82F30072BEBD90B4B00221A70002387F82F3032E01886FF1FC084FF1F8885FF1F1686FF1F1887FF1F4288FF1F0F87FF1F9C87FF1F8583FF1F03
:40300000FD85FF1F6884FF1F7687FF1F3C83FF1F6084FF1F3783FF1F7F4B197897F82F307E4A134493F823300846194605F026F903461A46784B1A7097F82F30013387F876
:403040002F3097F82F30062BE6D9744B93F82A20714B1B789A4242D10120132104F01EFF4FF4FA7005F00CFC6D4B00221A706D4B0A221A706C4B02221A806C4B03221A8074
:403080006B4B01221A806B4B1B78DBB20A2B06D10120132104F002FF674B13221A70654B1B78DBB2082B06D10120242104F0F6FE614B0C221A705F4B1B78DBB2082B0ED099
:4030C0005C4B1B78DBB20A2B09D05A4B02221A7001200E2104F0E2FE574B0C221A7006F035FB0346082B1ED1544B1B78DBB2AA2B12D1524B9B79DBB2C32B0DD14F4BDB792A
:40310000DBB23C2B08D14D4BDB78DBB23B2B03D1494B00221A7000BF642005F0B1FB06F05DFB02F047BD02F045BD454B1B78DBB2012B40F0A88506F009FB0346082B40F0D5
:40314000A2853E4B1B78DBB2AA2B40F09A853B4B9B79DBB2C32B40F09485384BDB79DBB23C2B40F08E85374B00221A702C4B1B78DAB22C4B1B78DBB29A4280F0D7802F4B77
:40318000DB78DBB2092B32D8254B1B78DBB20133DAB2234B1A70224B1B78DBB21A46274BDB78D9B2284B9954244BDB78DBB23033D9B21E4B1B889DB2194B1B78DBB29BB2A3
:4031C0001B4A128892B2013292B202FB03F39AB2154B1B889BB213449CB2154B1B889BB2DBB2009301202A46234604F0A3FE134BDB78DBB20A2B56D10E4B1B78DBB2012BA3
:4032000024D1074B1B78DBB2012B1FD10E4B5B78DBB2002B1AD146E08583FF1F1886FF1FFD85FF1F6884FF1F7687FF1F3C83FF1F6084FF1F3783FF1F1686FF1F388FFF1F19
:403240000F87FF1F8885FF1FF086FF1FAF4B1B78DBB20133DAB2AD4B1A70AC4B1B78DBB21A46AB4B00219954AA4B1B889DB2A74B1B78DBB29BB2A84A128892B2013292B277
:4032800002FB03F39AB2A54B1B889BB213449CB2A14B1B889BB2DBB20093012030212A46234604F047FE9E4BDB78DBB2512B3DD1964B1B78DBB2002B38D09A4B1B78DBB23E
:4032C000002B33D1914B1B78DBB20133DAB28F4B1A708E4B1B78DBB21A46934B1B78D9B28B4B9954904B1B78D9B28A4B1B889DB2864B1B78DBB29BB2874A128892B2013287
:4033000092B202FB03F39AB2844B1B889BB213449CB2814B1B889BB2DBB2009301202A46234604F007FE7F4B01221A707C4BDB78DBB20B2B40F0A080744B1B78DBB2002B29
:403340005ED17A4B1B78DBB2013B072B00F2948001A252F823F000BF793300008933000091330000A7330000BD330000D333000079340000E93300000120052104F08EFD7B
:403380006B4B04221A703AE0694B00221A7036E00120002104F082FD654B00221A70654B01225A702BE00120002104F077FD604B00221A705F4B01225A7020E00120002184
:4033C00004F06CFD5A4B00221A705A4B01225A7015E00120002104F061FD554B00221A70544B01225A700AE00120002104F056FD4F4B00221A704F4B01225A7000BF3BE012
:40340000444B1B889DB2414B1B78DBB29BB2424A128892B2013292B202FB03F39AB23F4B1B889BB213449CB23B4B1B889BB2DBB20093012020212A46234604F07BFD334B18
:403440001B78DBB21A46324B9B5CDAB2364B1B78DBB29A4202D1334B00221A702B4B1B78DBB21A462A4B00219954284B1B78DBB2013BDAB2254B1A70294BDB78DBB20C2BF9
:4034800040F0FF83294B1B78DBB2013B072B00F2F88301A252F823F0B93400004D36000029370000A1370000FB370000E93800001B390000C33A0000002387F82F300CE0B2
:4034C00097F82F3007F130021344002203F82C2C97F82F30013387F82F3097F82F30072BEED90A4B1B78DBB2002B00F0AE80074B1B78DBB21A46064B9B5CDBB22C2B00F055
:40350000A480012387F82F303FE000BFFD85FF1FF086FF1F3C83FF1F6084FF1F7687FF1F388FFF1FB682FF1F1583FF1F3783FF1F1686FF1F1887FF1F97F82F30B14AD35C01
:40354000DBB22C2B0FD097F82F30013B97F82F20AC498A5CD2B23032D2B207F130010B4403F82C2C0CE097F82F30013B97F82F20A4498A5CD2B207F130010B4403F82C2C5A
:4035800097F82F30013387F82F309F4B1B78DBB297F82F209A42CFD93B1D184607F080FAC7E90801994BDB7E012B09D1D7E908014FF00002964B07F05FFA0346002B1AD1E2
:4035C000924BDB7E022B40D1D7E908014FF000028F4B07F047FA0346002B00D151E3D7E908014FF000024FF0000307F04FFA0346002B00D145E3844B1B7887F82F3015E094
:4036000097F82F30804A1278D2B2114697F82F208A1A01327B498A5CD1B27C4A13440A46DA7697F82F30013B87F82F3097F82F30002BE5D1774B05221A70774B02225A70D4
:403640000120072104F02AFC1BE31AE3002387F82F300BE097F82F306C4A1344002283F8432097F82F30013387F82F3097F82F300A2BEFD9644B1B7887F82F3016E097F875
:403680002F30614A1278D2B2114697F82F208A1A01325C498A5CD1B25C4A13440A4683F8432097F82F30013B87F82F3097F82F30002BE4D1594B1B78DBB2012B33D10023C0
:4036C00087F82F300AE097F82F30504A13440022DA7697F82F30013387F82F3097F82F30072BF0D9494B0322DA76052387F82F300AE097F82F30454A13440922DA7697F8F1
:403700002F30013387F82F3097F82F30072BF0D90120072104F0C2FB3F4B02225A703D4B06221A70ADE2ACE2374B1B7887F82F3018E097F82F30344A1278D2B2114697F81B
:403740002F208A1A01322F498A5CD2B23032D1B22E4A13440A4683F8592097F82F30013B87F82F3097F82F30002BE2D1294B02221A700120052104F091FB234B00221A7072
:40378000274B04221A70274B0A221A70264B02221A80264B03221A80254B01221A8070E2194B1B7887F82F3018E097F82F30164A1278D2B2114697F82F208A1A0132114952
:4037C0008A5CD2B23032D1B2104A13440A4683F8642097F82F30013B87F82F3097F82F30002BE2D10B4B66221A700120392104F055FB094B10225A7043E2034B1B7887F8AA
:403800002F3030E0F086FF1FFD85FF1F9C87FF1F000014401686FF1F1887FF1F0F87FF1F3783FF1F6884FF1F7687FF1F3C83FF1F6084FF1F97F82F30AF4A1278D2B21146FD
:4038400097F82F208A1A0132AC498A5CD2B23032D1B2AB4A13440A4683F8712097F82F30013B87F82F3097F82F30002BE2D1A54B1A78A34B93F875309A4223D1A14B5A78A5
:403880009F4B93F874309A421CD19E4B9A789C4B93F873309A4215D19A4BDA78984B93F872309A420ED10120262104F0F7FAC82004F0E6FF0120462104F0F0FA924B1022CF
:4038C0001A70DEE1904B00221A700120272104F0E5FA8E4B01225A70C82004F0D1FF0120002104F0DBFACCE1834B1B78DBB21A46824B9B5CDBB218461E2106F0EFFC824BA8
:4039000000221A7001203C2104F0C8FAC82004F0B7FF7E4B01225A70B3E17B4B12221A700120582104F0BAFA794B1B78013B032B00F2988001A252F823F000BF4D390000F5
:4039400093390000D93900001F3A00006B4B5B78DBB23033DAB26F4B1A706E4B1B78322B08D0332B0BD0312B0ED1684B012283F859200DE0654B012283F85A2008E0634BBD
:40398000012283F85B2003E0634B00221A7000BF68E05A4B5B78DBB23033DAB25D4B5A705C4B5B78322B08D0332B0BD0312B0ED1564B022283F859200DE0544B022283F83D
:4039C0005A2008E0514B022283F85B2003E0534B00221A7000BF45E0484B5B78DBB23033DAB24C4B9A704B4B9B78322B08D0332B0BD0312B0ED1454B032283F859200DE033
:403A0000424B032283F85A2008E0404B032283F85B2003E0424B00221A7000BF22E0374B5B78DBB23033DAB23A4BDA70394BDB78322B08D0332B0BD0312B0ED1334B0422B0
:403A400083F859200DE0314B042283F85A2008E02E4B042283F85B2003E0324B00221A7000BF00BF2B4B1A78012300930120114607222C2304F05EFA264B5A7801230093D2
:403A8000012011460E222C2304F054FA214B9A78012300930120114613222C2304F04AFA1C4BDA78012300930120114619222C2304F040FA154B01225A70C82004F0E0FEBD
:403AC000DFE0012387F82F3009E097F82F30164A0021D15497F82F30013387F82F3097F82F30042BF1D9104B04221A70024B1B7887F82F3030E000BFFD85FF1FF086FF1FD5
:403B00009C87FF1F4481FF1F1686FF1F1887FF1F4188FF1F1C83FF1F4881FF1F4981FF1F4A81FF1F4B81FF1F8C85FF1F97F82F30904A1278D2B2114697F82F208A1A013293
:403B40008D498A5CD2B23032D1B28C4AD15497F82F30013B87F82F3097F82F30002BE5D1864B5B78DBB22F2B17D9844B9B78DBB22F2B12D8814BDB78DBB22F2B0DD87F4B6B
:403B80001B79DBB22F2B08D87C4B30229A707B4B3022DA70794B30221A71784B5B78DBB22F2B14D9754B9B78DBB22F2B0FD9734BDB78DBB22F2B0AD8704B1B79DBB22F2B68
:403BC00005D86E4B3022DA706C4B30221A716B4B5B78DBB22F2B11D9684B9B78DBB22F2B0CD9664BDB78DBB22F2B07D9634B1B79DBB22F2B02D8614B30221A71082387F812
:403C00002F3011E097F82F30083B5C4AD35CDAB297F82F309BB21046194606F05FFB97F82F30013387F82F3097F82F300C2BE9D9534B1B78DBB2012B12D1524B0C221A7059
:403C4000514B02221A7001200E2104F027F9C82004F016FE474B00221A704C4B01225A70474B1B78DBB2002B0AD1464B06221A700120072104F012F9444B02225A70FFE73E
:403C800000BF05F0ABFD424B1B78DBB2022B40F0998505F05BFD0346082B40F093853D4B1B78DBB2AA2B40F089853A4B9B79DBB2C32B40F08385374BDB79DBB23C2B40F06E
:403CC0007D85354B00221A702A4B1B78DAB2334B1B78DBB29A4280F0D9802E4BDB78DBB2092B32D8234B1B78DBB20133DAB2214B1A70204B1B78DBB21A46264BDB78D9B2AA
:403D00001D4B9954234BDB78DBB23033D9B2244B1B889DB2174B1B78DBB29BB2214A128892B2013292B202FB03F39AB21E4B1B889BB213449CB21B4B1B889BB2DBB200934F
:403D400001202A46234604F0F5F8124BDB78DBB20A2B58D10C4B1B78DBB2012B26D1054B1B78DBB2012B21D1034B5B78DBB2002B1CD148E0FD85FF1FF086FF1F8C85FF1F54
:403D80001586FF1F1686FF1F3783FF1F1887FF1F0F87FF1F388FFF1F8885FF1F6884FF1F3C83FF1F6084FF1F7687FF1FAF4B1B78DBB20133DAB2AD4B1A70AC4B1B78DBB2C0
:403DC0001A46AB4B00219954AA4B1B889DB2A74B1B78DBB29BB2A84A128892B2013292B202FB03F39AB2A54B1B889BB213449CB2A14B1B889BB2DBB20093012030212A4630
:403E0000234604F097F89E4BDB78DBB2512B3DD1964B1B78DBB2002B38D09A4B1B78DBB2002B33D1914B1B78DBB20133DAB28F4B1A708E4B1B78DBB21A46934B1B78D9B266
:403E40008B4B9954904B1B78D9B28A4B1B889DB2864B1B78DBB29BB2874A128892B2013292B202FB03F39AB2844B1B889BB213449CB2814B1B889BB2DBB2009301202A464B
:403E8000234604F057F87F4B01221A707C4BDB78DBB20B2B40F0A080744B1B78DBB2002B5ED17A4B1B78DBB2013B072B00F2948001A252F823F000BFD93E0000E93E000023
:403EC000F13E0000073F00001D3F0000333F0000D93F0000493F00000120052103F0DEFF6B4B04221A703AE0694B00221A7036E00120002103F0D2FF654B00221A70654BC0
:403F000001225A702BE00120002103F0C7FF604B00221A705F4B01225A7020E00120002103F0BCFF5A4B00221A705A4B01225A7015E00120002103F0B1FF554B00221A70A7
:403F4000544B01225A700AE00120002103F0A6FF4F4B00221A704F4B01225A7000BF3BE0444B1B889DB2414B1B78DBB29BB2424A128892B2013292B202FB03F39AB23F4B26
:403F80001B889BB213449CB23B4B1B889BB2DBB20093012020212A46234603F0CBFF334B1B78DBB21A46324B9B5CDAB2364B1B78DBB29A4202D1334B00221A702B4B1B785D
:403FC000DBB21A462A4B00219954284B1B78DBB2013BDAB2254B1A70294BDB78DBB20C2B40F0EC83294B1B78DBB2013B072B00F2E58301A252F823F019400000AD4100002F
:4040000089420000014300005B430000494400007B44000023460000002387F82F300CE097F82F3007F130021344002203F82C2C97F82F30013387F82F3097F82F30072B2D
:40404000EED90A4B1B78DBB2002B00F0AE80074B1B78DBB21A46064B9B5CDBB22C2B00F0A480012387F82F303FE000BFFD85FF1FF086FF1F3C83FF1F6084FF1F7687FF1F9B
:40408000388FFF1FB682FF1F1583FF1F3783FF1F1686FF1FB882FF1F97F82F30B14AD35CDBB22C2B0FD097F82F30013B97F82F20AC498A5CD2B23032D2B207F130010B4485
:4040C00003F82C2C0CE097F82F30013B97F82F20A4498A5CD2B207F130010B4403F82C2C97F82F30013387F82F309F4B1B78DBB297F82F209A42CFD93B1D184606F0D0FC73
:40410000C7E90801994BDB7E012B09D1D7E908014FF00002964B06F0AFFC0346002B1AD1924BDB7E022B40D1D7E908014FF000028F4B06F097FC0346002B00D13EE3D7E991
:4041400008014FF000024FF0000306F09FFC0346002B00D132E3844B1B7887F82F3015E097F82F30804A1278D2B2114697F82F208A1A01327B498A5CD1B27C4A13440A4627
:40418000DA7697F82F30013B87F82F3097F82F30002BE5D1774B05221A70774B02225A700120072103F07AFE08E307E3002387F82F300BE097F82F306C4A1344002283F8A8
:4041C000432097F82F30013387F82F3097F82F300A2BEFD9644B1B7887F82F3016E097F82F30614A1278D2B2114697F82F208A1A01325C498A5CD1B25C4A13440A4683F8D2
:40420000432097F82F30013B87F82F3097F82F30002BE4D1594B1B78DBB2022B33D1002387F82F300AE097F82F30504A13440022DA7697F82F30013387F82F3097F82F3026
:40424000072BF0D9494B0322DA76052387F82F300AE097F82F30454A13440922DA7697F82F30013387F82F3097F82F30072BF0D90120072103F012FE3F4B02225A703D4BC6
:4042800006221A709AE299E2374B1B7887F82F3018E097F82F30344A1278D2B2114697F82F208A1A01322F498A5CD2B23032D1B22E4A13440A4683F8592097F82F30013BE0
:4042C00087F82F3097F82F30002BE2D1294B02221A700120052103F0E1FD234B00221A70274B04221A70274B0A221A70264B02221A80264B03221A80254B01221A805DE2AB
:40430000194B1B7887F82F3018E097F82F30164A1278D2B2114697F82F208A1A013211498A5CD2B23032D1B2104A13440A4683F8642097F82F30013B87F82F3097F82F30A9
:40434000002BE2D10B4B66221A700120392103F0A5FD094B10225A7030E2034B1B7887F82F3030E0F086FF1FFD85FF1F1886FF1F000014401686FF1FB882FF1F0F87FF1FAC
:404380003783FF1F6884FF1F7687FF1F3C83FF1F6084FF1F97F82F30AF4A1278D2B2114697F82F208A1A0132AC498A5CD2B23032D1B2AB4A13440A4683F8712097F82F3046
:4043C000013B87F82F3097F82F30002BE2D1A54B1A78A34B93F875309A4223D1A14B5A789F4B93F874309A421CD19E4B9A789C4B93F873309A4215D19A4BDA78984B93F850
:4044000072309A420ED10120262103F047FDC82004F036FA0120462103F040FD924B10221A70CBE1904B00221A700120272103F035FD8E4B01225A70C82004F021FA012084
:40444000002103F02BFDB9E1834B1B78DBB21A46824B9B5CDBB218461E2105F03FFF824B00221A7001203C2103F018FDC82004F007FA7E4B01225A70A0E17B4B12221A7060
:404480000120582103F00AFD794B1B78013B032B00F2988001A252F823F000BFAD440000F3440000394500007F4500006B4B5B78DBB23033DAB26F4B1A706E4B1B78322B82
:4044C00008D0332B0BD0312B0ED1684B012283F859200DE0654B012283F85A2008E0634B012283F85B2003E0634B00221A7000BF68E05A4B5B78DBB23033DAB25D4B5A7098
:404500005C4B5B78322B08D0332B0BD0312B0ED1564B022283F859200DE0544B022283F85A2008E0514B022283F85B2003E0534B00221A7000BF45E0484B5B78DBB23033F5
:40454000DAB24C4B9A704B4B9B78322B08D0332B0BD0312B0ED1454B032283F859200DE0424B032283F85A2008E0404B032283F85B2003E0424B00221A7000BF22E0374B92
:404580005B78DBB23033DAB23A4BDA70394BDB78322B08D0332B0BD0312B0ED1334B042283F859200DE0314B042283F85A2008E02E4B042283F85B2003E0324B00221A70B8
:4045C00000BF00BF2B4B1A78012300930120114607222C2303F0AEFC264B5A7801230093012011460E222C2303F0A4FC214B9A78012300930120114613222C2303F09AFCB3
:404600001C4BDA78012300930120114619222C2303F090FC1C4B01225A70C82004F030F9CCE0012387F82F3009E097F82F30174A0021D15497F82F30013387F82F3097F875
:404640002F30042BF1D9114B04221A70024B1B7887F82F3032E000BFFD85FF1FF086FF1F9C87FF1F4481FF1F1686FF1FB882FF1F4188FF1F1C83FF1F4881FF1F4981FF1F6A
:404680004A81FF1F4B81FF1F1887FF1F8C85FF1F97F82F30884A1278D2B2114697F82F208A1A013285498A5CD2B23032D1B2844AD15497F82F30013B87F82F3097F82F305B
:4046C000002BE5D17E4B5B78DBB22F2B17D97C4B9B78DBB22F2B12D8794BDB78DBB22F2B0DD8774B1B79DBB22F2B08D8744B30229A70734B3022DA70714B30221A71704BF2
:404700005B78DBB22F2B14D96D4B9B78DBB22F2B0FD96B4BDB78DBB22F2B0AD8684B1B79DBB22F2B05D8664B3022DA70644B30221A71634B5B78DBB22F2B11D9604B9B7872
:40474000DBB22F2B0CD95E4BDB78DBB22F2B07D95B4B1B79DBB22F2B02D8594B30221A71082387F82F3011E097F82F30083B544AD35CDAB297F82F309BB21046194605F0C5
:40478000ADFD97F82F30013387F82F3097F82F300C2BE9D94B4B0C221A704B4B02221A7001200E2103F07AFBC82004F069F8424B00221A70454B01225A7000BF05F00EF871
:4047C00001F0F8B901F0F6B9414B1B78DBB2012B40F0D1823F4B4D221A703E4B55225A703C4B58229A703B4B3122DA70394B31221A71394B5B7E013B384A134493F85930B9
:40480000DBB23033DAB2334B5A71334B5B7D3033DAB2304B9A71304B1B7D3033DAB22D4BDA712D4BDB7C3033DAB22A4B1A72294B2C225A72284B9B7C3033DAB2254B9A72E1
:40484000254B5B7C3033DAB2224BDA72224B1B7C3033DAB21F4B1A73214B5B78DBB2072B40D11D4B9B7B3033DAB21A4B5A731A4B5B7B3033DAB2174B9A73174B1B7B3033BD
:40488000DAB2144BDA73144BDB7A3033DAB2114B1A74114B9B7A3033DAB20E4B5A740E4B5B7A3033DAB20B4B9A740B4B1B7A3033DAB2084BDA743FE0FD85FF1FF086FF1F5D
:4048C0008C85FF1F1686FF1F3783FF1FB882FF1F0F87FF1FC084FF1F9C87FF1F1887FF1F3883FF1F664B5B7B3033DAB2654B5A73634B1B7B3033DAB2624B9A73604BDB7AD2
:404900003033DAB25F4BDA735D4B9B7A3033DAB25C4B1A745A4B5B7A3033DAB2594B5A74574B1B7A3033DAB2564B9A74544BDB793033DAB2534BDA74534B1B78DBB2002B49
:404940001DD14F4B9B793033DAB24E4B1A754C4B5B793033DAB24B4B5A75494B1B793033DAB2484B9A75464BDB783033DAB2454BDA75434B9B783033DAB2424B1A76424B20
:404980001B78DBB2012B1AD13D4B5B793033DAB23C4B1A753A4B1B793033DAB2394B5A75374BDB783033DAB2364B9A75344B9B783033DAB2334BDA75324B30221A76334B85
:4049C0001B79DAB22F4B5A76304BDB78DAB22D4B9A762E4B9B78DAB22A4BDA762B4B5B78DAB2284B1A772A4B1B78012B43D1002387F82F303AE097F82F305B08DBB21A4614
:404A00001F4B134493F823301B0987F82E3097F82F3003F00103DBB2002B0CD197F82F305B08DBB21A46164B134493F8233003F00F0387F82E3097F82F301D3397F82E208B
:404A40003032D1B20F4AD15497F82E30092B08D997F82F301D3397F82E203732D1B2094AD15497F82F30013387F82F3097F82F300F2BC0D94DE0002387F82F3045E000BF7F
:404A80009C87FF1FC084FF1F9E85FF1F8C85FF1F6284FF1F97F82F305B08DBB21A467D4B134493F823301B0987F82E3097F82F3003F00103DBB2002B0CD197F82F305B08D8
:404AC000DBB21A46734B134493F8233003F00F0387F82E3097F82F301D3397F82E203032D1B26D4AD15497F82E30092B08D997F82F301D3397F82E203732D1B2664AD1543A
:404B000097F82F30013387F82F3097F82F300F2BC0D9624B1B8801339AB2604B1A805F4B1B885F4AA2FB03239B099BB2DBB23033DAB25C4B1A71594B1B88594AA2FB0312AB
:404B400092094FF47A7101FB02F29B1A9BB2564AA2FB03235B099BB2DBB23033DAB2514BDA704E4B1B884E4AA2FB031292094FF47A7101FB02F29B1A9BB24B4AA2FB03127C
:404B80005209642101FB02F29B1A9BB2474AA2FB0323DB089BB2DBB23033DAB2414B9A703E4B1B883E4AA2FB031292094FF47A7101FB02F29B1A9BB23B4AA2FB03125209DA
:404BC000642101FB02F29B1A9AB2384BA3FB0213D9080B469B000B445B00D31A9BB2DBB23033DAB22F4B5A70012387F82F300EE097F82F302C3397F82F202A498A5CD1B2A1
:404C0000254AD15497F82F30013387F82F3097F82F30072BECD9012387F82F3010E097F82F30204AD35CDAB297F82F309BB21046194605F053FB97F82F30013387F82F30C3
:404C400097F82F30042BEAD9002387F82F3012E097F82F30343397F82F2001320D490A4492F843203032D1B20B4AD15497F82F30013387F82F3097F82F30062BE8D9064BDA
:404C80002A2283F83B2004F04BF9002387F82F301AE000BF9C87FF1FC084FF1F1A83FF1FD34D62109485FF1F1F85EB51CDCCCCCC97F82F306C4AD35C184604F06FF997F88C
:404CC0002F30013387F82F3097F82F303B2BEFD904F026F94FF4967003F0D2FD04F078F9624B00221A70624B5B7E5A1E614913469B0013440B4448339B78DBB23B735C4B99
:404D00005B7E5A1E5B4913469B0013440B4449339B78DBB27B73564B5B7E5A1E554913469B0013440B444A339B78DBB2BB73504B5B7E5A1E4F4913469B0013440B444B33C9
:404D40009B78DBB2FB734A4B5B7E5A1E494913469B0013440B444C339B78DBB23B74454B1B78D9B2424B5B7E07F10C02084611461A4601F00BFF404B1B78DBB2022B40F023
:404D8000BF82394B4D221A70374B55225A70364B58229A70344B3122DA70334B32221A71364B5B7E013B364A134493F85930DBB23033DAB22C4B5A71304B5B7D3033DAB273
:404DC000294B9A712D4B1B7D3033DAB2264BDA712A4BDB7C3033DAB2234B1A72224B2C225A72264B9B7C3033DAB21F4B9A72234B5B7C3033DAB21C4BDA72204B1B7C303304
:404E0000DAB2194B1A731F4B5B78DBB2072B3BD11A4B9B7B3033DAB2134B5A73174B5B7B3033DAB2104B9A73144B1B7B3033DAB20D4BDA73114BDB7A3033DAB20A4B1A74BD
:404E40000E4B9B7A3033DAB2074B5A740B4B5B7A3033DAB2044B9A74084B1B7A3033DAB2014BDA743AE000BFC084FF1F1687FF1F9C87FF1F1887FF1F0F87FF1F1886FF1F69
:404E8000B882FF1F3883FF1F664B5B7B3033DAB2654B5A73634B1B7B3033DAB2624B9A73604BDB7A3033DAB25F4BDA735D4B9B7A3033DAB25C4B1A745A4B5B7A3033DAB2B1
:404EC000594B5A74574B1B7A3033DAB2564B9A74544BDB793033DAB2534BDA74534B1B78DBB2002B1DD14F4B9B793033DAB24E4B1A754C4B5B793033DAB24B4B5A75494BAE
:404F00001B793033DAB2484B9A75464BDB783033DAB2454BDA75434B9B783033DAB2424B1A76424B1B78DBB2012B1AD13D4B5B793033DAB23C4B1A753A4B1B793033DAB2C0
:404F4000394B5A75374BDB783033DAB2364B9A75344B9B783033DAB2334BDA75324B30221A76334B1B79DAB22F4B5A76304BDB78DAB22D4B9A762E4B9B78DAB22A4BDA7636
:404F80002B4B5B78DAB2284B1A772A4B1B78012B43D1002387F82F303AE097F82F305B08DBB21A461F4B134493F823301B0987F82E3097F82F3003F00103DBB2002B0CD15D
:404FC00097F82F305B08DBB21A46164B134493F8233003F00F0387F82E3097F82F301D3397F82E203032D1B20F4AD15497F82E30092B08D997F82F301D3397F82E203732F7
:40500000D1B2094AD15497F82F30013387F82F3097F82F300F2BC0D94DE0002387F82F3045E000BF1886FF1FC084FF1F9E85FF1F8C85FF1F6284FF1F97F82F305B08DBB232
:405040001A46B04B134493F823301B0987F82E3097F82F3003F00103DBB2002B0CD197F82F305B08DBB21A46A64B134493F8233003F00F0387F82E3097F82F301D3397F812
:405080002E203032D1B2A04AD15497F82E30092B08D997F82F301D3397F82E203732D1B2994AD15497F82F30013387F82F3097F82F300F2BC0D9954B1B8801339AB2934BFB
:4050C0001A80924B1B88924AA2FB03239B099BB2DBB23033DAB28F4B1A718C4B1B888C4AA2FB031292094FF47A7101FB02F29B1A9BB2894AA2FB03235B099BB2DBB2303331
:40510000DAB2844BDA70814B1B88814AA2FB031292094FF47A7101FB02F29B1A9BB27E4AA2FB03125209642101FB02F29B1A9BB27A4AA2FB0323DB089BB2DBB23033DAB2A4
:40514000744B9A70714B1B88714AA2FB031292094FF47A7101FB02F29B1A9BB26E4AA2FB03125209642101FB02F29B1A9AB26B4BA3FB0213D9080B469B000B445B00D31AD7
:405180009BB2DBB23033DAB2624B5A70012387F82F300EE097F82F302C3397F82F205D498A5CD1B2584AD15497F82F30013387F82F3097F82F30072BECD9012387F82F30D7
:4051C00010E097F82F30534AD35CDAB297F82F309BB21046194605F081F897F82F30013387F82F3097F82F30042BEAD9002387F82F3012E097F82F30343397F82F200132E2
:4052000040490A4492F843203032D1B23E4AD15497F82F30013387F82F3097F82F30062BE8D9394B2A2283F83B2003F079FE002387F82F300BE097F82F30334AD35C184644
:4052400003F0ACFE97F82F30013387F82F3097F82F303B2BEFD903F063FE4FF4967003F00FFB03F0B5FE2E4B00221A70254B5B7E5A1E2C4913469B0013440B4448339B78B2
:40528000DBB23B731F4B5B7E5A1E264913469B0013440B4449339B78DBB27B73194B5B7E5A1E204913469B0013440B444A339B78DBB2BB73134B5B7E5A1E1A4913469B00DC
:4052C00013440B444B339B78DBB2FB730D4B5B7E5A1E144913469B0013440B444C339B78DBB23B74104B1B78D9B2064B5B7E07F10C02084611461A4601F048FC00F05ABC25
:4053000000F058BC1886FF1FC084FF1F1A83FF1FD34D62109485FF1F1F85EB51CDCCCCCC1687FF1F1887FF1FB882FF1F04F00EFA0346082B40F00A81A04B1B78DBB2AA2BD3
:4053400040F0FE809D4B9B79DBB2C32B40F0F8809A4BDB79DBB23C2B40F0F280984B1B78DAB2984B1B78DBB29A426CD2934BDB78DBB2092B33D8924B1B78DBB201338F4A6B
:40538000D278D2B23032D1B28F4A13440A4683F864208E4B1B889DB2894B1B78DBB29BB28B4A128892B2013292B202FB03F39AB2884B1B889BB213449CB2854B1B889BB21E
:4053C000DBB2009301202A212A46234602F0B2FD7B4B1B78DBB20133DAB2794B1A70774BDB78DBB20A2B2ED1754B1B78DBB20133754A1344302283F86420744B1B889DB2B1
:405400006F4B1B78DBB29BB2714A128892B2013292B202FB03F39AB26E4B1B889BB213449CB26B4B1B889BB2DBB2009301202A212A46234602F07EFD614B1B78DBB2013330
:40544000DAB25F4B1A705D4BDB78DBB20B2B2ED15C4B1B78DBB2002B03D15F4B00221A7025E0574B1B78DBB2013BDAB2544B1A70564B1B889DB2524B1B78DBB29BB2544AA0
:40548000128892B2013292B202FB03F39AB2514B1B889BB213449CB24D4B1B889BB2DBB20093012020212A46234602F043FD434BDB78DBB20C2B43D1414B1B78DBB2002B82
:4054C0003ED03F4B1B78DAB23F4B83F86420002387F82E303C4B93F86430042B2DD1012387F82F3015E097F82F30374A134493F8642097F82F303949CB5C9A4204D197F8F6
:405500002E30013387F82E3097F82F30013387F82F3097F82F30042BE5D997F82E30042B07D12D4B0F221A7001205D2102F0B6FC06E0294B00221A7002E0274B00221A70B1
:40554000642003F09DF904F049F933E332E304F0FDF80346082B40F09680184B1B78DBB2AA2B40F09080154B9B79DBB2C32B40F08A80124BDB79DBB23C2B40F084800F4B1E
:40558000DB78DBB2B92B04D0BA2B57D07E2B72D010E3134B4D221A70114B55225A70104B58229A700E4B3322DA700D4B2A221A7103F0B6FC002387F82F301FE0388FFF1FE5
:4055C000FD85FF1F6884FF1F9C87FF1F3C83FF1F6084FF1F7687FF1F1686FF1F2881FF1FC084FF1F97F82F30BA4AD35C184603F0D5FC97F82F30013387F82F3097F82F30B2
:40560000042BEFD9962003F03BF90120002102F045FCB14B00221A70B04B1B78DBB2012B02D1AF4B01225A70AC4B1B78DBB2022B03D1AC4B01225A7025E024E001202F2102
:4056400002F02CFCA84B05221A70A84B00221A70A74B2C221A70A74B04221A70A64B04221A80A64B03221A80A54B01221A809A4B0C221A7007E001204A2102F00FFC964B65
:4056800000221A7000BF95E204F060F80346082B40F04A819B4B1B78DBB2AA2B40F03E81984B9B79DBB2C32B40F03881954BDB79DBB23C2B40F03281924BDB78DBB2802BAD
:4056C0005ED0802B05DC7E2B00F020817F2B07D024E1812B00F09F80C22B00F0E7801DE17C4B4D221A707B4B55225A70794B58229A70784B3622DA70764B2A221A7103F034
:405700000FFC002387F82F300BE097F82F30714AD35C184603F042FC97F82F30013387F82F3097F82F30042BEFD9962003F0A8F8754B1B78DBB2012B04D0734B1B78DBB21F
:40574000042B04D101202E2102F0A8FB03E00120152102F0A3FB604B00221A705F4B1B78DBB2012B02D15E4B01225A705B4B1B78DBB2022B03D15B4B01225A70CEE0CDE0EB
:40578000544B4D221A70534B55225A70514B58229A70504B3622DA704E4B2A221A7103F0BFFB002387F82F300BE097F82F30494AD35C184603F0F2FB97F82F30013387F87D
:4057C0002F3097F82F30042BEFD9962003F058F84D4B1B78DBB2012B04D101202E2102F05DFB03E00120152102F058FB3A4B00221A703A4B1B78DBB2012B02D1384B0122FF
:405800005A70364B1B78DBB2022B03D1354B01225A7083E082E02F4B4D221A702D4B55225A702C4B58229A702A4B3622DA70294B2A221A7103F074FB002387F82F300BE0F3
:4058400097F82F30234AD35C184603F0A7FB97F82F30013387F82F3097F82F30042BEFD9962003F00DF8284B1B78DBB2012B04D101202E2102F012FB03E00120152102F0E9
:405880000DFB154B00221A70144B1B78DBB2012B02D1134B01225A70104B1B78DBB2022B03D1104B01225A7038E037E001206E2102F0F4FA104B04221A80104B03221A8053
:4058C0000F4B01221A80044B0B221A70064B0A221A7023E0C084FF1F1686FF1F0F87FF1F1887FF1FB882FF1F3783FF1FFD85FF1F1583FF1F6884FF1F7687FF1F3C83FF1F6C
:405900006084FF1F388FFF1F4288FF1F01204A2102F0C4FAA94B00221A7000BF642002F0AFFF03F05BFF45E144E103F00FFF0346082B4AD1A24B1B78DBB2AA2B3FD1A04BCC
:405940009B79DBB2C32B3AD19D4BDB79DBB23C2B35D19B4BDB78DBB28F2B04D0902B14D07E2B24D02BE00020172104F0B7FC934B00221A7001203C2102F090FAC82002F05F
:405980007FFF904B01225A7019E00120172104F0A5FC8A4B00221A7001203C2102F07EFAC82002F06DFF874B01225A7007E001204A2102F073FA814B00221A7000BF6420BF
:4059C00002F05EFF03F00AFFF4E0F3E07E4B4D221A707D4B55225A707B4B58229A707A4B3522DA70794B1B78DBB2012B65D1002387F82F303AE097F82F305B08DBB21A469B
:405A0000734B134493F823301B0987F82E3097F82F3003F00103DBB2002B0CD197F82F305B08DBB21A466A4B134493F8233003F00F0387F82E3097F82F30043397F82E20EC
:405A40003032D1B2604AD15497F82E30092B08D997F82F30043397F82E203732D1B25A4AD15497F82F30013387F82F3097F82F300F2BC0D9544B2A221A7503F051FA00231D
:405A800087F82F300BE097F82F304F4AD35C184603F084FA97F82F30013387F82F3097F82F30142BEFD90120002102F0F7F9434B00221A70434B01225A70444B1B78DBB21B
:405AC000022B66D1002387F82F303AE097F82F305B08DBB21A463F4B134493F823301B0987F82E3097F82F3003F00103DBB2002B0CD197F82F305B08DBB21A46354B13449A
:405B000093F8233003F00F0387F82E3097F82F30043397F82E203032D1B22B4AD15497F82E30092B08D997F82F30043397F82E203732D1B2244AD15497F82F30013387F800
:405B40002F3097F82F300F2BC0D91F4B2A221A7503F0E6F9002387F82F300BE097F82F30194AD35C184603F019FA97F82F30013387F82F3097F82F30142BEFD901200021E7
:405B800002F08CF90D4B00221A70134B01225A7010E00FE0114B1B78DBB2032B09D9074B00221A7004F070F804F036F90B4B00221A7000BF3037BD46B0BD00BF1686FF1F26
:405BC000388FFF1F1887FF1FC084FF1F0F87FF1F9C87FF1F1886FF1FB882FF1F8885FF1F80B500AF04F04CF9184B1B78DBB2012B24D1174B1B78DBB2062B11D8144B1B781E
:405C0000DBB20133DAB2124B1A70114B1B78DBB29BB214339BB20120194602F03FF914E00B4B00221A700A4B1B78DBB29BB214339BB20120194602F031F906E0044B1B7879
:405C4000DBB20133DAB2024B1A7080BD1686FF1F8885FF1F80B500AF04F0D2F9184B1B78DBB2012B24D1174B1B78DBB2062B11D8144B1B78DBB20133DAB2124B1A70114B79
:405C80001B78DBB29BB214339BB20220194602F005F914E00B4B00221A700A4B1B78DBB29BB214339BB20220194602F0F7F806E0044B1B78DBB20133DAB2024B1A7080BD9B
:405CC0006384FF1F2083FF1F80B500AFFAF7DAF9FAF734FB0320002102F006FE02F04AFEFBF772FA02F046FEFAF7C0FCF6E700BF80B500AF04F0B6FA014B01221A7080BD07
:405D00004388FF1F80B584B000AF0346FB7102F089FFFB79184602F0C3FF1E4803F034FC04F05CFA1C4B00221A700A2002F0A8FD0BE0194B1B78012B07D103F037FC04F006
:405D40005DFA02F06FFF002320E002F021FF0346002BEED002F0D2FE0346FB73FB7B03F00F02FB799A420AD1FB7B1B09FB7302F059FF03F01BFC04F041FAFB7B06E002F00E
:405D800051FF03F013FC04F039FA002318461037BD4680BDF15C00004388FF1F80B582B000AF244BFF221A70234BFF221A70052002F066FD0020FFF7A5FF0346002B02D069
:405DC0001D4B00221A700123FB711FE0052002F057FDFB791846FFF795FF0346002B12D0144B1B78DBB2FF2B03D1124AFB79137009E0114B1B78DBB2FF2B04D10E4AFB79E3
:405E00001370012312E0FB790133FB71FB790F2BDCD9084B1B78DBB2FF2B06D0064B1B78DBB2FF2B01D0012300E0002318460837BD4680BD1887FF1FB882FF1F90B58BB0DA
:405E400000AF0346FB71594A07F108031068516803C3127A1A7002F0E5FEFB7943F02003DBB2184602F01CFF514803F08DFB04F0B5F9504B00221A700BE04E4B1B78012B34
:405E800007D103F093FB04F0B9F902F0CBFE002388E002F07DFE0346002BEED003F086FB04F0ACF902F02AFE03461A46FB7963F02F03DBB29A4274D102F0B4FE052002F0CC
:405EC000DFFC002387F827300EE097F8273007F12802134413F8203C184602F0E1FE97F82730013387F8273097F82730082BECD92F4803F049FB04F071F92E4B00221A70EC
:405F00000BE02C4B1B78012B07D103F04FFB04F075F902F087FE002344E002F039FE0346132BEED103F042FB04F068F9002387F827300FE097F8274002F0E0FD03461A46C1
:405F400007F12803234403F8142C97F82730013387F8273097F82730122BEBD902F062FE3B7DBA2B1BD197F825308D2B17D197F826308A2B13D197F82030B12B0FD197F87E
:405F80002230B22B05D0B32B05D0B12B05D1012308E0022306E0032304E0002302E0002300E0002318462C37BD4690BD58CF0000F15C00004388FF1F80B584B000AF03465D
:405FC000FB7102F02FFEFB7943F04003DBB2184602F066FE4FF4967002F052FCAB4B5B78DBB2072B00F0BC8002F0D2FD0346212B40F0B680A64B1B78DBB2FF2B40F0AE8059
:40600000A34B9B78DBB2F82B40F0A880A04B93F82030DBB2F02B40F0A1809E4B1B78DBB2FA799A424CD19A4B5B7ADBB203F00F03DBB20133DAB2984B5A760023FB730FE057
:40604000FB7BFA7B0C3292498A5CD2B202F00F02D1B2914A13440A469A70FB7B0133FB73FB7B032BECD90023FB730FE0FB7BFA7B113287498A5CD2B202F00F02D1B2864AE1
:4060800013440A461A74FB7B0133FB73FB7B052BECD90023FB730FE0FB7BFA7B18327C498A5CD2B202F00F02D1B27B4A13440A46DA71FB7B0133FB73FB7B052BECD94BE059
:4060C000734B5B7ADBB203F00F03DBB20133DAB2724B5A760023FB730FE0FB7BFA7B0C326B498A5CD2B202F00F02D1B26B4A13440A469A70FB7B0133FB73FB7B032BECD96D
:406100000023FB730FE0FB7BFA7B113260498A5CD2B202F00F02D1B2604A13440A461A74FB7B0133FB73FB7B052BECD90023FB730FE0FB7BFA7B183255498A5CD2B202F007
:406140000F02D1B2554A13440A46DA71FB7B0133FB73FB7B052BECD90123CFE00023CDE04A4B5B78DBB2072B40F0C78002F010FD0346272B40F0C180454B1B78DBB2FF2B51
:4061800040F0B980424B9B78DBB2F82B40F0B3803F4B93F82630DBB2F02B40F0AC803D4B1B78DBB2FA799A424CD1394B5B7ADBB203F00F03DBB20133DAB2374B5A76002393
:4061C000FB730FE0FB7BFA7B0C3231498A5CD2B202F00F02D1B2304A13440A469A70FB7B0133FB73FB7B052BECD90023FB730FE0FB7BFA7B133226498A5CD2B202F00F0275
:40620000D1B2254A13440A461A74FB7B0133FB73FB7B072BECD90023FB730FE0FB7BFA7B1C321B498A5CD2B202F00F02D1B21A4A13440A46DA71FB7B0133FB73FB7B072B8F
:40624000ECD956E0124B5B7ADBB203F00F03DBB20133DAB2114B5A760023FB730FE0FB7BFA7B0C320A498A5CD2B202F00F02D1B20A4A13440A469A70FB7B0133FB73FB7B67
:40628000052BECD90023FB731AE000BF3883FF1F4488FF1F1887FF1F9C87FF1F1886FF1FFB7BFA7B133217498A5CD2B202F00F02D1B2154A13440A461A74FB7B0133FB73F6
:4062C000FB7B072BECD90023FB730FE0FB7BFA7B1C320C498A5CD2B202F00F02D1B20A4A13440A46DA71FB7B0133FB73FB7B072BECD9012302E0002300E000231846103797
:40630000BD4680BD4488FF1F1886FF1F80B588B000AF3A601A460346FB710B46BB7113467B7107F1080300221A60043300221A60043300221A60043300221A600433002279
:406340001A8002330423BB777B79032B01D102237B71B34B5B78DBB2052B04D0B04B5B78DBB2062B04D17B79012B01D10323BB77AB4B5B78DBB2052B04D17B79022B01D195
:406380000523BB77A64B5B78DBB2072B04D17B79012B01D10023BB77A14B5B78DBB2072B04D17B79022B01D10223BB7700233B7701237B770AE07B7F3A6813441B782C2B95
:4063C00001D17B7F3B777B7F01337B777B7F072BF1D93B7F042B01D90023CFE3904B5B78DBB2072B00F00582FF233B72BB7F63F01F03DBB27B727B7963F00F03DBB2BB7282
:40640000F423FB72F8233B733B6801331B7863F01F03DBB27B733B6802331B7863F01F03DBB2BB733B6803331B7863F01F03DBB2FB733B6804331B7863F01F03DBB23B7420
:406440003B6805331B7863F01F03DBB27B743B6806331B7863F01F03DBB2BB74704B9B78DBB2022B40F0A5803B7F042B29D13B6802331B7863F01F03DBB27B733B68033329
:406480001B7863F01F03DBB2BB733B6805331B7863F01F03DBB2FB733B6806331B7863F01F03DBB23B743B6807331B7863F01F03DBB27B743B6808331B7863F01F03DBB247
:4064C000BB743B7F032B29D13B6801331B7863F01F03DBB27B733B6802331B7863F01F03DBB2BB733B6804331B7863F01F03DBB2FB733B6805331B7863F01F03DBB23B749A
:406500003B6806331B7863F01F03DBB27B743B6807331B7863F01F03DBB2BB743B7F022B24D1E0237B733B6801331B7863F01F03DBB2BB733B6803331B7863F01F03DBB285
:40654000FB733B6804331B7863F01F03DBB23B743B6805331B7863F01F03DBB27B743B6806331B7863F01F03DBB2BB743B7F002B1FD1E0237B73E023BB733B6801331B782F
:4065800063F01F03DBB2FB733B6802331B7863F01F03DBB23B743B6803331B7863F01F03DBB27B743B6804331B7863F01F03DBB2BB74FB23FB7400233B7500237B770FE0F0
:4065C0003A7D7B7F07F120010B4413F8183C03F00F03DBB21344DBB23B757B7F01337B777B7F0B2BECD93B7D5B42DBB2DBB203F00F03DBB263F01F03DBB2DBB23B75F02395
:406600007B750D23FB77064B5B78DBB2052B2CD1FB23BB740023FB7400237B7712E000BF3883FF1FFA7C7B7F07F120010B4413F8183C03F00F03DBB21344DBB2FB747B7F56
:4066400001337B777B7F0A2BECD9FB7C5B42DBB2DBB203F00F03DBB263F01F03DBB2DBB2FB74F0233B750C23FB777B79012B40F0C080F6233B73BB79013BDBB2DBB263F0AA
:406680001F03DBB2DBB27B73F823BB733B7F042B22D13B6802331B7863F01F03DBB2FB733B6803331B7863F01F03DBB23B743B6805331B7863F01F03DBB27B743B68063358
:4066C0001B7863F01F03DBB2BB743B6807331B7863F01F03DBB2FB743B7F032B22D13B6801331B7863F01F03DBB2FB733B6802331B7863F01F03DBB23B743B6804331B78B7
:4067000063F01F03DBB27B743B6805331B7863F01F03DBB2BB743B6806331B7863F01F03DBB2FB743B7F022B1DD1E023FB733B6801331B7863F01F03DBB23B743B680333AF
:406740001B7863F01F03DBB27B743B6804331B7863F01F03DBB2BB743B6805331B7863F01F03DBB2FB743B7F002B18D1E023FB73E0233B743B6801331B7863F01F03DBB2BB
:406780007B743B6802331B7863F01F03DBB2BB743B6803331B7863F01F03DBB2FB74FB233B7500237B7500237B770FE07A7D7B7F07F120010B4413F8183C03F00F03DBB242
:4067C0001344DBB27B757B7F01337B777B7F0C2BECD97B7D5B42DBB2DBB203F00F03DBB263F01F03DBB2DBB27B75F023BB750E23FB77A24B5B78DBB2072B40F06481FF2353
:406800003B72BB7F63F01F03DBB27B727B7963F00F03DBB2BB72F423FB72F8233B733B6801331B7863F01F03DBB27B733B6802331B7863F01F03DBB2BB733B6803331B78C1
:4068400063F01F03DBB2FB733B6804331B7863F01F03DBB23B743B6805331B7863F01F03DBB27B743B6806331B7863F01F03DBB2BB743B6807331B7863F01F03DBB2FB74AA
:40688000E0233B75FB237B750023BB7500237B770FE0BA7D7B7F07F120010B4413F8183C03F00F03DBB21344DBB2BB757B7F01337B777B7F0D2BECD9BB7D5B42DBB2DBB21C
:4068C00003F00F03DBB263F01F03DBB2DBB2BB75F023FB750F23FB777B79012B40F0F380F6233B73BB79013BDBB2DBB263F01F03DBB2DBB27B73F823BB733B7F042B2DD15F
:406900003B6801331B7863F01F03DBB2FB733B6802331B7863F01F03DBB23B743B6803331B7863F01F03DBB27B743B6805331B7863F01F03DBB2BB743B6806331B7863F0A3
:406940001F03DBB2FB743B6807331B7863F01F03DBB23B75E0237B75E023BB753B7F032B2DD1E023FB733B6801331B7863F01F03DBB23B743B6802331B7863F01F03DBB2D2
:406980007B743B6804331B7863F01F03DBB2BB743B6805331B7863F01F03DBB2FB743B6806331B7863F01F03DBB23B753B6807331B7863F01F03DBB27B75E023BB753B7FFB
:4069C000022B2DD1E023FB73E0233B743B6801331B7863F01F03DBB27B743B6803331B7863F01F03DBB2BB743B6804331B7863F01F03DBB2FB743B6805331B7863F01F0390
:406A0000DBB23B753B6806331B7863F01F03DBB27B753B6807331B7863F01F03DBB2BB753B7F002B23D1E023FB73E0233B74E0237B743B6801331B7863F01F03DBB2BB748D
:406A40003B6802331B7863F01F03DBB2FB743B6803331B7863F01F03DBB23B753B6804331B7863F01F03DBB27B75E023BB75FB23FB7500233B7600237B7711E03883FF1F49
:406A80003A7E7B7F07F120010B4413F8183C03F00F03DBB21344DBB23B767B7F01337B777B7F0F2BECD93B7E5B42DBB2DBB203F00F03DBB263F01F03DBB2DBB23B76F023C8
:406AC0007B761123FB7702F0ADF8FB7943F02003DBB2184602F0E4F82A4802F055FD03F07DFB294B00221A700A2001F0C9FE0BE0254B1B78012B07D102F058FD03F07EFB1D
:406B000002F090F8002339E002F042F80346002BEED002F04BFD03F071FB01F0EFFF03461A46FB7963F02F03DBB29A4225D102F079F80A2001F0A4FE00237B770BE07B7FAE
:406B400007F12002134413F8183C184602F0A8F87B7F01337B777A7FFB7F9A42EFD9322001F08EFEFB791846FFF7CCF80346002B01D1002302E0012300E00023184620379C
:406B8000BD4680BDF15C00004388FF1F80B588B000AF03463960FB711346BB7100233B7300237B730023BB730023FB7300233B7400237B740023BB740023FB7400233B7511
:406BC00000237B750023BB750023FB7500233B7600237B760023BB76884B5B78DBB2072B56D0FF233B73E5237B73F423BB73F623FB73BB79013BDBB2DBB263F01F03DBB2B7
:406C0000DBB23B74F7237B740623BB7715E0BB7FBA7F063A39680A441278D2B202F00F02D2B262F01F02D2B2D2B207F120010B4403F8142CBB7F0133BB77BB7F092BE6D99D
:406C4000FB23BB750023BB770FE0FA7DBB7F07F120010B4413F8143C03F00F03DBB21344DBB2FB75BB7F0133BB77BB7F0A2BECD9FB7D5B42DBB2DBB203F00F03DBB263F040
:406C80001F03DBB2DBB2FB75F0233B760C23FB775A4B5B78DBB2072B53D1FF233B73E3237B73F423BB73F623FB73BB79013BDBB2DBB263F01F03DBB2DBB23B74F7237B7407
:406CC0000623BB7710E0BB7FBA7F063A39680A44127862F01F02D2B207F120010B4403F8142CBB7F0133BB77BB7F0A2BEBD9E023FB75FB233B760023BB770FE07A7EBB7FF8
:406D000007F120010B4413F8143C03F00F03DBB21344DBB27B76BB7F0133BB77BB7F0C2BECD97B7E5B42DBB2DBB203F00F03DBB263F01F03DBB2DBB27B76F023BB760E231C
:406D4000FB7701F06FFFFB7943F02003DBB2184601F0A6FF2A4802F017FC03F03FFA294B00221A700BE0274B1B78012B07D102F01DFC03F043FA01F055FF002339E001F093
:406D800007FF0346002BEED002F010FC03F036FA01F0B4FE03461A46FB7963F02F03DBB29A4225D101F03EFF0A2001F069FD0023BB770BE0BB7F07F12002134413F8143CE1
:406DC000184601F06DFFBB7F0133BB77BA7FFB7F9A42EFD9322001F053FDFB791846FEF791FF0346002B01D1002302E0012300E0002318462037BD4680BD00BF3883FF1FF8
:406E0000F15C00004388FF1F80B584B000AF03460A46FB711346BB7101F004FFFB7943F05003DBB2184601F03BFFB04B00221A704FF4967001F024FD01F0AAFE0346002B67
:406E400001F02280AA4B1B78DBB2FA799A4240F01F84A84B5B78DBB2072B00F00C824FF4617001F00DFD01F093FE0346FB73FB7B222B06D0FB7B402B03D0FB7B5E2B40F081
:406E8000F5819D4B1B78DBB2FF2B40F0EA819A4B5B78DBB2F62B40F0E481974BDB78DBB2F92B40F0DE810023BB7316E00023FB730DE0BA7BF97B8E4813465B001344DB00F5
:406EC0000B44034400229A70FB7B0133FB73FB7B172BEED9BB7B0133BB73BB7B022BE5D90023FB7321E0FB7BFA7B043282498A5CD1B27F4A13440A469A70FB7B7C4A13448C
:406F00009B78DBB2002B08D0FB7B794A13449B78DBB203F0F003E02B04D001F083FE002300F0B3BFFB7B0133FB73FB7B072BDAD90023FB7324E0FB7B0C33FA7B0D326E499A
:406F40008A5CD1B26A4A13440A469A70FB7B0C33674A13449B78DBB2002B09D0FB7B0C33634A13449B78DBB203F0F003E02B04D001F058FE002300F088BFFB7B0133FB730B
:406F8000FB7B072BD7D90023FB730DE0FB7BFA7B163259498A5CD1B2554A13440A4683F84A20FB7B0133FB73FB7B032BEED9BB79022B6BD10023FB7321E0FB7BFA7B2232A1
:406FC0004D498A5CD1B24A4A13440A469A76FB7B474A13449B7EDBB2002B08D0FB7B444A13449B7EDBB203F0F003E02B04D001F019FE002300F049BFFB7B0133FB73FB7BC9
:40700000072BDAD90023FB7324E0FB7B0C33FA7B2B3239498A5CD1B2354A13440A469A76FB7B0C33324A13449B7EDBB2002B09D0FB7B0C332E4A13449B7EDBB203F0F003EC
:40704000E02B04D001F0EEFD002300F01EBFFB7B0133FB73FB7B072BD7D90023FB730DE0FB7BFA7B343224498A5CD1B2204A13440A4683F84F20FB7B0133FB73FB7B032B99
:40708000EED901F0CFFD022300F0FFBEBB79032B40F0E2800023FB7321E0FB7BFA7B223215498A5CD1B2124A13440A469A76FB7B0F4A13449B7EDBB2002B08D0FB7B0C4A40
:4070C00013449B7EDBB203F0F003E02B04D001F0A9FD002300F0D9BEFB7B0133FB73FB7B072BDAD90023FB732DE000BF4388FF1F1887FF1F3883FF1F4488FF1FFB7B0C339F
:40710000FA7B2B32B3498A5CD1B2B34A13440A469A76FB7B0C33B04A13449B7EDBB2002B09D0FB7B0C33AC4A13449B7EDBB203F0F003E02B04D001F075FD002300F0A5BE6E
:40714000FB7B0133FB73FB7B072BD7D90023FB730DE0FB7BFA7B34329E498A5CD1B29E4A13440A4683F84F20FB7B0133FB73FB7B032BEED90023FB7324E0FB7BFA7B403292
:4071800094498A5CD1B2944A13440A4683F83220FB7B914A134493F83230DBB2002B09D0FB7B8D4A134493F83230DBB203F0F003E02B04D001F036FD002300F066BEFB7B5D
:4071C0000133FB73FB7B072BD7D90023FB7327E0FB7B0C33FA7B49327E498A5CD1B27E4A13440A4683F83220FB7B0C337A4A134493F83230DBB2002B0AD0FB7B0C33764A28
:40720000134493F83230DBB203F0F003E02B04D001F008FD002300F038BEFB7B0133FB73FB7B072BD4D90023FB730DE0FB7BFA7B523268498A5CD1B2674A13440A4683F872
