:400000000080002011000000FD5C0000FD5C000080B500AF024A034B1B68136005F09CFEBC760040FA46004010B5054C237833B9044B13B10448AFF300800123237010BDC6
:400040000082FF1F0000000038A90000084B10B51BB108480849AFF300800848036803B910BD074B002BFBD0BDE81040184700BF0000000038A900000482FF1F0881FF1F8D
:400080000000000090B583B000AF694B00221A8062B606F09FFB06F07FFD06F0D5F906F0D9FF07F053F907F007FE624B002283F85920604B002283F85A205E4B002283F8F3
:4000C0005B205D4B002283F859205B4B002283F85A20594B002283F85B200023FB7108E0FB79564A1344012283F83320FB790133FB71FB790F2BF3D9052006F0D5F80D23D5
:40010000FB710EE0FB79A3F10D04FB799BB2184607F068FE03461A46494B1A55FB790133FB71FB790E2BEDD90F2007F05BFE03461A46404B83F85C20102007F053FE034632
:400140001A463C4B83F85920112007F04BFE03461A46384B83F85A20122007F043FE03461A46344B83F85B20132007F03BFE03461A46314B83F85C20142007F033FE034666
:400180001A462D4B83F85920152007F02BFE03461A46294B83F85A20162007F023FE03461A46254B83F85B20172007F01BFE03461A46244B1A701E2007F014FE03461A46D6
:4001C000214B5A701F2007F00DFE03461A461E4B9A70202007F006FE03461A461A4BDA701A2007F0FFFD03461A46124B1A701C2007F0F8FD03461A460F4B1A700D4B0122EC
:400200005A700D4B01225A70104B00221A70094B032283F85C200C4B00229A700A4B0322DA70052006F040F80C37BD4690BD00BF2883FF1F5486FF1F5882FF1FD886FF1F17
:400240003C85FF1F3E85FF1FD882FF1F5286FF1F80B582B000AF03460A46FB711346BB80FB79012B13D1BB880120194605F02AFB104B64221A70104B01221A700F4B012250
:400280005A700F4807F0E2F907F0AAFA0FE0BB880220194605F016FB0A4B64221A700A4B01221A70094807F0CDFB07F07DFB0837BD4680BD5585FF1F2885FF1F5486FF1FD7
:4002C000093600000384FF1FC082FF1F7D36000080B582B000AF0023FB717BE10023FB71C04B1B78DBB2FF2B04D0BF4B1B78DBB2FF2B58D100BF03F065FA0346002BFAD082
:4003000000BFB84B1B78DAB2B64B93F85C30DBB21046194604F08CFA0346002BF1D0322005F0C2FF00BFB04B1B78DAB2AE4B93F85C30DBB21046194604F07AFA0346002BC4
:40034000F1D0322005F0B0FFA64B1B78DBB218461A2107F0B7FC0346002B04D101203C2105F0B0FA03E00120552105F0ABFA9E4B1B78DBB218461C2107F0A4FC0346002B49
:4003800004D102203C2105F09DFA03E00220552105F098FA954B00221A70954B00221A700223FB7116E18F4B1B78DBB2184603F0BDF90346BB71BB790C2B7BD801A252F89A
:4003C00023F000BFF9030000B5040000B5040000B5040000B5040000B5040000010400003D040000670400007504000091040000830400009F0400007A4BFF221A7059E000
:40040000784B1B78DBB2184603F0EAFA322005F04BFF744B1B78DAB2724B93F85C30DBB21046194604F004FA322005F03DFF704B00221A70FB790133FB713BE0694B1B78CD
:40044000DAB2684B93F85C30DBB21046194604F0EFF9322005F028FF654B00221A70FB790133FB7126E0624B0B221A70FB790133FB711FE05E4B0B221A70FB790133FB7139
:4004800018E05B4B0C221A70FB790133FB7111E0574B0C221A70FB790133FB710AE0544B0B221A700120082105F00CFAFB790133FB7100BF4C4B1B78DBB2184603F036F9E4
:4004C0000346BB71BB790C2B00F2848001A252F823F000BF09050000D5050000D5050000D5050000D5050000D5050000110500004D050000770500008D050000B1050000EB
:40050000A3050000BF050000374BFF221A7061E0354B1B78DBB2184603F062FA322005F0C3FE314B1B78DAB22F4B93F85C30DBB21046194604F07CF9322005F0B5FE2B4B45
:4005400000221A70FB790133FB7143E0264B1B78DAB2254B93F85C30DBB21046194604F067F9322005F0A0FE204B00221A70FB790133FB712EE01D4B0B221A700220082163
:4005800005F0A0F9FB790133FB7123E0174B0B221A700220082105F095F9FB790133FB7118E0124B0C221A70FB790133FB7111E00E4B0C221A70FB790133FB710AE00B4B24
:4005C0000B221A700220082105F07CF9FB790133FB7100BFFB79022B7FF480AE0837BD4680BD00BF5486FF1F5882FF1F0384FF1F5585FF1F80B586B000AF06F05BF9034602
:40060000022B40F2EF8206F055F903463B820A2005F04AFE06F04EF90346FB813A8AFB899A4240F0DF82924B1B78DBB2422B40F0D1828F4B5B78DBB2422B40F0CB828C4B9A
:400640009B78DBB2422B40F0C5828A4B00221A70874BDB78DBB2312B00F03F82452B00F07582302B40F0A282814B0022DA70804B5B79DBB24E2B0AD17D4B1B79DBB203F01C
:400680000F03DBB218461C21FFF7E2FD8EE2784B9B7ADBB2462B7DD1774B9B7E5A1E774913469B0013440B4448339B78DBB203F00F03DBB23B72704B9B7E5A1E6F49134633
:4006C0009B0013440B4449339B78DBB203F00F03DBB27B72684B9B7E5A1E684913469B0013440B444A339B78DBB203F00F03DBB2BB72614B9B7E5A1E604913469B00134482
:400700000B444B339B78DBB203F00F03DBB2FB72594B9B7E5A1E594913469B0013440B444C339B78DBB203F00F03DBB23B73534B1B78DBB203F00F03D9B24F4B9B7E07F184
:400740000802084611461A4603F034FF0346002B40F09A804A4B4D221A70494B55225A70474B58229A70464B4522DA70444B30221A713F4B1B79DAB2414B5A71404B312280
:400780009A713F4B2A22DA710823FB82394B01221A700BE2394B1B78DAB2384B93F85C30DBB21046194604F043F8364B1B78DBB2012B11D12E4B5B7ADBB23B722C4B1B7A56
:4007C000DBB27B722A4BDB79DBB2BB72284B9B79DBB2FB7200233B732A4B1B78DBB2002B13D1234B9B7ADBB23B72214B5B7ADBB27B721F4B1B7ADBB2BB721D4BDB79DBB28C
:40080000FB721B4B9B79DBB23B731C4B1B78DBB203F00F03D9B2184B9B7E07F10802084611461A4603F0C6FE0346002B2CD1144B4D221A70124B55225A70114B58229A70FE
:400840000F4B4522DA700E4B30221A71084B1B79DAB20B4B5A710A4B31229A71084B2A22DA710823FB82034B01221A709EE100BF8088FF1F2A83FF1FD886FF1F5486FF1FC0
:400880006084FF1F3E85FF1FA84B5B7CDBB27B70A64B5B7CDBB22C2B06D0A44B5B7CDBB203F00F03DBB27B70A04B1B7CDBB2BB709E4B1B7CDBB22C2B06D09C4B1B7CDBB242
:4008C00003F00F03DBB2BB70984BDB7BDBB2FB70964BDB7BDBB22C2B06D0944BDB7BDBB203F00F03DBB2FB70904B9B7BDBB23B718E4B9B7BDBB22C2B06D08C4B9B7BDBB20D
:4009000003F00F03DBB23B71884B5B7BDBB27B71864B5B7BDBB22C2B06D0844B5B7BDBB203F00F03DBB27B71804B1B7BDBB2BB717E4B1B7BDBB22C2B06D07C4B1B7BDBB229
:4009400003F00F03DBB2BB71784BDB7ADBB2FB71764BDB7ADBB22C2B06D0744BDB7ADBB203F00F03DBB2FB71704B9B7CDBB27B827B8A312B02D102237B8201E001237B8285
:400980006B4B1B78DBB203F00F03D8B2694B997E7B8ADBB23A4603F0CDF90346012B7CD1654B1B78002B5CD10023BB820EE0BB8ABA8A5F490A4492F84A20D2B207F1180189
:4009C0000B4403F8102CBB8A0133BB82BB8A042BEDD9574B1B78DAB207F1080310461946012203F0E7FD0023BB820EE0BB8ABA8A4F490A4492F84F20D2B207F118010B4474
:400A000003F8102CBB8A0133BB82BB8A042BEDD9474B1B78DAB207F1080310461946022203F0C8FD0023BB820EE0BB8ABA8A40490A4492F85420D2B207F118010B4403F8BF
:400A4000102CBB8A0133BB82BB8A042BEDD9384B1B78DAB207F1080310461946032203F0A9FD0A2005F020FC314B1B78DBB2DBB203F00F03DBB243F01003DBB2DBB218467E
:400A800005F022FE2A4B06225A702C4B08221A700120082104F016FF88E0294B4D221A70274B55225A70264B58229A70244B4522DA70234B30221A711C4B1B79DAB2204B62
:400AC0005A711F4B32229A711D4B2A22DA710823FB821C4B01221A7068E00120372104F0F1FE134B1B78DBB21A46114B1B78DBB203F00F039A4206D10D4B01225A700F4B52
:400B000000221A7011E0104B1B78DBB21A46074B1B79DBB203F00F039A4206D10A4B01225A70064B00221A7040E03FE08088FF1F5486FF1FD886FF1F1C82FF1F5585FF1F46
:400B40006084FF1F2A83FF1F5882FF1F274B1B78002B2AD1264B5B79DBB2313B032B24D801A252F823F000BF790B0000890B0000990B0000A90B00001E4B01225A70012077
:400B80001C21FFF765FB10E01A4B01225A7001200C21FFF75DFB08E0164B01225A7001205521FFF755FB00E000BF00BF124B1B78012B0FD10023BB8208E0BB8A0F4AD35C42
:400BC000184605F0FFFEBB8A0133BB82BA8AFB8A9A42F2D305F0B8FE05F038FD00233B820023FB811837BD4680BD00BF5286FF1F8088FF1F5486FF1F2A83FF1F6084FF1F02
:400C0000B0B58EB002AFDD4B1B78DBB2662B02F2F38401A252F823F0B50D0000CF0D0000FB0D0000D71000007B1100009B13000067140000F9350000C31400003D16000082
:400C4000D71A0000111B0000711C000011270000A92C0000CB2E0000E92F0000D93000007B310000F9350000F9350000F9350000F9350000F9350000F9350000F9350000B5
:400C8000F9350000F9350000F9350000F9350000F9350000F9350000F9350000F9350000F9350000F9350000F9350000F9350000F9350000F9350000F9350000F935000054
:400CC000F9350000F9350000F9350000F9350000F9350000F9350000F9350000F9350000F9350000F9350000F9350000F9350000F9350000F9350000F9350000F935000014
:400D0000F9350000F9350000F9350000F9350000F9350000F9350000F9350000F9350000F9350000F9350000F9350000F9350000F9350000F9350000F9350000F9350000D3
:400D4000F9350000F9350000F9350000F9350000F9350000F9350000F9350000F9350000F9350000F9350000F9350000F9350000F9350000F9350000F9350000F935000093
:400D8000F9350000F9350000F9350000F9350000F9350000F9350000F9350000F9350000F9350000F9350000D9350000F9350000F9350000724806F049FC06F011FD714B48
:400DC00000221A706D4B01221A7002F015BC06F0B1F90346082B0ED106F04AFC06F010FD664B02221A700120632104F06BFD06F0E9F902F001BC02F0FFBB06F09BF903467F
:400E0000082B40F06681604B1B78DBB2AA2B40F059815D4B9B79DBB2C32B40F053815A4BDB79DBB23C2B40F04D81574BDB78DBB2592B1AD0592B02DC452B0ED042E15C2B4E
:400E400003D07E2B00F036813CE10120492104F039FD4A4B03221A7034E10120722104F031FD464B0F221A702CE10120392104F029FD464B4D221A70444B55225A70434B78
:400E800058229A70414B3222DA70414B1B78DAB23F4B93F85C30DBB21046194603F0C8FC322005F001FA042387F82D30002387F82F3018E097F82D3097F82F2034490A446C
:400EC0009278D2B202F00F02D2B23032D1B22F4AD15497F82D30013387F82D3097F82F30013387F82F3097F82F300B2BE2D90C2387F82F3018E097F82D3097F82F20244943
:400F00000A449278D2B202F00F02D2B23032D1B21E4AD15497F82D30013387F82D3097F82F30013387F82F3097F82F30172BE2D9002387F82F3018E097F82D3097F82F2032
:400F400013490A44927ED2B202F00F02D2B23032D1B20E4AD15497F82D30013387F82D3097F82F30013387F82F3097F82F300B2BE2D90C2387F82F3025E000BF5585FF1FA6
:400F8000093600002885FF1F748EFF1F6084FF1F5486FF1F97F82D3097F82F20AF490A44927ED2B202F00F02D2B23032D1B2AC4AD15497F82D30013387F82D3097F82F30F8
:400FC000013387F82F3097F82F30172BE2D9002387F82F3019E097F82D3097F82F209F490A4492F83220D2B202F00F02D2B23032D1B29B4AD15497F82D30013387F82D3028
:4010000097F82F30013387F82F3097F82F300B2BE1D90C2387F82F3019E097F82D3097F82F208E490A4492F83220D2B202F00F02D2B23032D1B28A4AD15497F82D300133F8
:4010400087F82D3097F82F30013387F82F3097F82F30172BE1D9824B2A2283F84B2005F073FC002387F82F300BE097F82F307C4AD35C184605F0A6FC97F82F30013387F8E2
:401080002F3097F82F304B2BEFD9FA2005F00CF905F010FC0346012B09D90120002104F011FC704B00221A706C4B01225A7005F04BFC07E00120002104F004FC694B0022BC
:4010C0001A7000BF642005F0EFF806F07BF802F093BA02F091BA06F02DF80346082B4AD1614B1B78DBB2AA2B3ED15F4B9B79DBB2C32B39D15C4BDB79DBB23C2B34D15A4B24
:40110000DB78DBB25F2B09D05F2B02DC5E2B10D02AE07E2B18D0942B1ED025E00120052104F0D0FB514B00221A704E4B04221A701AE001201D2104F0C5FB4C4B01221A7066
:40114000484B0B221A700FE00120142104F0BAFB444B00221A7007E00120632104F0B2FB404B01221A7000BF642005F09DF806F029F802F041BA02F03FBA05F0DBFF0346C3
:40118000082B40F00881384B1B78DBB2AA2B40F0FB80354B9B79DBB2C32B40F0F580324BDB79DBB23C2B40F0EF802F4BDB78DBB23B2B00F0E1803B2B04DC0F2B09D0102B63
:4011C00047D0E1E0432B00F0A3807E2B00F0D880DAE0002387F82F300AE097F82F30244A13440022DA7697F82F30013387F82F3097F82F30072BF0D91E4B00221A701E4B74
:4012000001221A701D4B2C221A701D4B5B78DAB21C4B1A70164B0122DA761B4B00221A700120062104F04EFB184B04221A80184B03221A80174B01221A8001230093012062
:4012400024210322042304F089FB064B0C221A709AE0002387F82F3029E000BF5486FF1F6084FF1F5585FF1F748EFF1F0284FF1FD886FF1F3F85FF1FD782FF1FB582FF1F39
:40128000D882FF1F0684FF1F5582FF1FB286FF1FDC82FF1F0084FF1F97F82F30C04A13440022DA7697F82F30013387F82F3097F82F30072BF0D9BB4B00221A70BA4B012221
:4012C0001A70BA4B2C221A70B94B5B78DAB2B94B1A70B34B0222DA76B74B00221A7001200D2104F0EFFAB54B04221A80B44B03221A80B44B01221A800123009301204721D0
:401300000322042304F02AFBAF4B0C221A703BE0002387F82F300AE097F82F30A04A13440022DA7697F82F30013387F82F3097F82F30072BF0D99A4B0322DA76052387F805
:401340002F300AE097F82F30954A13440922DA7697F82F30013387F82F3097F82F30072BF0D90120072104F0ADFA984B02225A70954B06221A7007E0934B00221A7003E001
:40138000914B00221A7000BF642004F08DFF05F019FF02F031B902F02FB9322004F084FF05F0C8FE0346082B1AD1894B1B78DBB2AA2B11D1864B9B79DBB2C32B0CD1844B7D
:4013C000DB79DBB23C2B07D1814BDB78DBB27E2B02D17D4B00221A7005F0F4FE02F00CB97A4B1B78DBB2184602F0A0F9034687F82F3097F82F30072B06D1734B06221A7037
:40140000322004F051FF2CE097F82F30002B0ED1322004F049FF6D4B1B78DAB207F11403104601211A46022302F084FC19E097F82F300C2B04D101205521FEF709FF10E0B8
:4014400097F82F300B2B03D15F4B0D221A7008E097F82F300A2B04D15B4B0D221A7002F0CBB802F0C9B80A2004F01EFF574B1B78DBB2184602F0F6F903461A46484B9A7662
:40148000474B9B7E002B1AD0142004F00DFF4F4B1B78DBB2184602F049F90346072B0ED1494B09221A704B4B00221A80474B04225A700120392104F005FA02F09DB802F0CE
:4014C0009BB8322004F0F0FE404B1B78DBB2184602F02CF903460A2B33D00B2B03D0062B5AD002F089B8642004F0DEFE002387F82F3010E097F82F30294A13440022DA71C3
:4015000097F82F30264A134400221A7497F82F30013387F82F3097F82F30082BEAD92B4B1B78DBB2184602F05BFA0346012B07D1254B0D221A700120392104F0C3F97BE02B
:401540007AE0002387F82F3010E097F82F30144A13440022DA7197F82F30114A134400221A7497F82F30013387F82F3097F82F30082BEAD9154B1B78DBB2184602F030FAE2
:401580000346012B07D1104B0D221A700120392104F098F950E04FE0002387F82F302CE0D886FF1F3F85FF1FD782FF1FB582FF1FD882FF1F0684FF1F5582FF1FB286FF1FC9
:4015C000DC82FF1F0084FF1F5585FF1F5486FF1F748EFF1F2883FF1F97F82F30444A13440022DA7197F82F30414A134400221A7497F82F30013387F82F3097F82F30082B13
:40160000EAD9002387F82F300AE097F82F30384A134400229A7097F82F30013387F82F3097F82F30042BF0D9324B0D221A700120392104F047F900BF01F0DEBF2E4B4D2209
:401640001A702D4B55225A702B4B58229A702A4B3022DA70294B1B78012B44D1002387F82F303AE097F82F305B08DBB21A46204B134493F823301B0987F82E3097F82F30EC
:4016800003F00103DBB2002B0CD197F82F305B08DBB21A46164B134493F8233003F00F0387F82E3097F82F30043397F82E203032D1B2114AD15497F82E30092B08D997F8F0
:4016C0002F30043397F82E203732D1B20A4AD15497F82F30013387F82F3097F82F300F2BC0D901F089BF002387F82F303EE000BFD886FF1F5585FF1F6084FF1F0284FF1F20
:4017000097F82F30B44A134493F8333003F00F0387F82E3097F82F3003F00103DBB2002B09D197F82F30AC4A134493F8333003F00F0387F82E3097F82F30043397F82E2012
:401740003032D1B2A54AD15497F82E30092B08D997F82F30043397F82E203732D1B29F4AD15497F82F30013387F82F3097F82F300F2BC5D9984B9B7E013B994A134493F8AF
:401780005930DBB23033DAB2944B1A75954B1B79DAB2924B5A75934BDB78DAB28F4B9A75904B9B78DAB28D4BDA758E4B5B78DAB28A4B1A768C4B1B78DBB2002B59D1864B09
:4017C0009B7E5A1E864913469B0013440B444C339B78DBB203F00F03DBB23033DAB27F4B5A767D4B9B7E5A1E7D4913469B0013440B444B339B78DBB203F00F03DBB23033E9
:40180000DAB2764B9A76744B9B7E5A1E744913469B0013440B444A339B78DBB203F00F03DBB23033DAB26D4BDA766B4B9B7E5A1E6B4913469B0013440B4449339B78DBB24D
:4018400003F00F03DBB23033DAB2644B1A77624B9B7E5A1E624913469B0013440B4448339B78DBB203F00F03DBB23033DAB25B4B5A775D4B1B78DBB2012B4AD1564B9B7E48
:401880005A1E574913469B0013440B444B339B78DBB203F00F03DBB23033DAB24F4B5A764D4B9B7E5A1E4E4913469B0013440B444A339B78DBB203F00F03DBB23033DAB275
:4018C000464B9A76444B9B7E5A1E454913469B0013440B4449339B78DBB203F00F03DBB23033DAB23D4BDA763B4B9B7E5A1E3C4913469B0013440B4448339B78DBB203F046
:401900000F03DBB23033DAB2344B1A77334B30225A77314BDB7E3033DAB2304B9A772E4B93F822202D4BDA772B4B93F82230092B06D8294B93F822303033DAB2274BDA77A1
:40194000254B93F82120254B83F82020224B93F82130092B07D8204B93F821303033DAB21E4B83F820201C4B93F820201B4B83F82120194B93F82030092B07D8164B93F8B8
:4019800020303033DAB2154B83F82120124BDA7F124B83F82220104BDB7F092B06D80E4BDB7F3033DAB20D4B83F822200A4B9A7F0A4B83F82320084B9B7F092B06D8064B2D
:4019C0009B7F3033DAB2054B83F82320024B5A7F024B83F8242009E0D886FF1F6084FF1F5486FF1F2C85FF1F3E85FF1F924B5B7F092B06D8904B5B7F3033DAB28F4B83F8CD
:401A000024208D4B1A7F8D4B83F825208A4B1B7F092B06D8884B1B7F3033DAB2874B83F82520002387F82F3012E097F82F30263397F82F20013280490A4492F84320303239
:401A4000D1B27E4AD15497F82F30013387F82F3097F82F30062BE8D9784B312283F82D20764B2A2283F82E2004F06EFF002387F82F300BE097F82F30704AD35C184604F0EC
:401A8000A1FF97F82F30013387F82F3097F82F302E2BEFD9FA2004F007FC04F00BFF0346022B16D1664B1B78DBB24F2B11D1644B5B78DBB24B2B0CD1624B02221A80624B64
:401AC00002225A70614B0A221A7004F03DFF01F093BD01F091BD5B4B1B88012B16D9594B1B8801339AB2574B1A80012004F0DCFB544B1B8844F61F62934207D9514B002223
:401B00001A80524B09221A7001F076BD01F074BD012003F087FF0346012B66D10120332103F0E0FF0346002B5FD0002387F82F300FE097F82F40012004F05AF803461A4645
:401B40003D4B234483F8232097F82F30013387F82F3097F82F30072BEBD93D4B00221A70002387F82F3014E0394B197897F82F30314A134493F823300846194604F092F8CD
:401B800003461A46324B1A7097F82F30013387F82F3097F82F30062BE6D9274B93F82A202B4B1B789A4220D10120132103F08AFE4FF4FA7004F078FB264B00221A70264B08
:401BC00002221A70254B0A221A70254B02221A80244B03221A80244B01221A8001200E2103F070FE194B0C221A7005F0A3FA0346082B1ED11D4B1B78DBB2AA2B12D11B4B19
:401C00009B79DBB2C32B0DD1184BDB79DBB23C2B08D1164BDB78DBB23B2B03D10B4B00221A7000BF642004F03FFB05F0CBFA01F0E3BC01F0E1BC00BFD886FF1F6084FF1FB0
:401C40008088FF1F2883FF1F5486FF1F5585FF1F2583FF1F3F85FF1FD782FF1F0684FF1FB286FF1FDC82FF1F0084FF1F748EFF1F05F060FA0346082B40F04885A14B1B78E3
:401C8000DBB2AA2B40F03E859E4B9B79DBB2C32B40F038859B4BDB79DBB23C2B40F03285994B00221A70994B1B78DAB2984B1B78DBB29A4280F0BD80924BDB78DBB2092B45
:401CC00032D8924B1B78DBB20133DAB28F4B1A708E4B1B78DBB21A468A4BDB78D9B28D4B9954884BDB78DBB23033D9B28A4B1B889DB2864B1B78DBB29BB2884A128892B292
:401D0000013292B202FB03F39AB2854B1B889BB213449CB2814B1B889BB2DBB2009301202A46234603F01AFE764BDB78DBB20A2B3CD17C4B1B78DBB2012B0AD1734B1B7885
:401D4000DBB2012B05D1734B5B78DBB2002B00D12CE06E4B1B78DBB20133DAB26B4B1A706A4B1B78DBB21A466A4B002199546A4B1B889DB2654B1B78DBB29BB2674A1288CE
:401D800092B2013292B202FB03F39AB2644B1B889BB213449CB2614B1B889BB2DBB20093012030212A46234603F0D8FD554BDB78DBB2512B3DD1554B1B78DBB2002B38D019
:401DC000594B1B78DBB2002B33D1504B1B78DBB20133DAB24D4B1A704C4B1B78DBB21A46524B1B78D9B24B4B9954504B1B78D9B2494B1B889DB2454B1B78DBB29BB2474A31
:401E0000128892B2013292B202FB03F39AB2444B1B889BB213449CB2404B1B889BB2DBB2009301202A46234603F098FD3E4B01221A70344BDB78DBB20B2B40F0B980334B1B
:401E40001B78DBB2002B77D1364B1B78DBB2013B072B00F2AD8001A252F823F07D1E00008D1E0000951E0000AB1E0000C11E0000D71E0000B11F0000ED1E000001200521E9
:401E800003F020FD2A4B04221A703AE0284B00221A7036E00120002103F014FD244B00221A70244B01225A702BE00120002103F009FD1F4B00221A701E4B01225A7020E02F
:401EC0000120002103F0FEFC194B00221A70194B01225A7015E00120002103F0F3FC144B00221A70134B01225A700AE00120002103F0E8FC0E4B00221A700E4B01225A7095
:401F000000BF55E0748EFF1F2885FF1F3F85FF1F0684FF1F3086FF1FDC82FF1F0084FF1FB286FF1FD782FF1F5582FF1FB582FF1F5585FF1F5486FF1FA74B1B889DB2A74B69
:401F40001B78DBB29BB2A64A128892B2013292B202FB03F39AB2A34B1B889BB213449CB29F4B1B889BB2DBB20093012020212A46234603F0F3FC994B1B78DBB21A469A4B8D
:401F80009B5CDAB2994B1B78DBB29A4202D1984B00221A70914B1B78DBB21A46924B002199548E4B1B78DBB2013BDAB28B4B1A70904BDB78DBB20C2B40F0A4838E4B1B783F
:401FC000DBB2013B072B00F29D8301A252F823F0F11F000057210000CF2100007F220000D922000097230000C9230000B1250000002387F82F300CE097F82F3007F130023F
:402000001344002203F82C2C97F82F30013387F82F3097F82F30072BEED9704B1B78DBB2002B00F097806D4B1B78DBB21A466E4B9B5CDBB22C2B00F08D80012387F82F3015
:4020400028E097F82F30684AD35CDBB22C2B0FD097F82F30013B97F82F2063498A5CD2B23032D2B207F130010B4403F82C2C0CE097F82F30013B97F82F205B498A5CD2B2F5
:4020800007F130010B4403F82C2C97F82F30013387F82F30514B1B78DBB297F82F209A42CFD93B1D184606F0EFF9C7E90801534BDB7E012B09D1D7E908014FF00002504B48
:4020C00006F0CEF90346002B1AD14C4BDB7E022B40D1D7E908014FF000024A4B06F0B6F90346002B00D10DE3D7E908014FF000024FF0000306F0BEF90346002B00D101E3FB
:40210000364B1B7887F82F3015E097F82F30334A1278D2B2114697F82F208A1A013232498A5CD1B2354A13440A46DA7697F82F30013B87F82F3097F82F30002BE5D1324B85
:4021400005221A70314B02225A700120072103F0B9FBD7E2D6E2002387F82F300BE097F82F30264A1344002283F8432097F82F30013387F82F3097F82F300A2BEFD9174BF5
:402180001B7887F82F3016E097F82F30134A1278D2B2114697F82F208A1A013212498A5CD1B2164A13440A4683F8432097F82F30013B87F82F3097F82F30002BE4D1124B77
:4021C00004221A700120052103F07CFB9AE2034B1B7887F82F3034E0DC82FF1F3F85FF1F0084FF1FB286FF1F3086FF1FB582FF1F5582FF1F748EFF1FD782FF1FD886FF1FA8
:402200000000894000208C405585FF1F5486FF1F97F82F30B74A1278D2B2114697F82F208A1A0132B4498A5CD2B23032D1B2B34A13440A4683F8592097F82F30013B87F863
:402240002F3097F82F30002BE2D1AD4B02221A700120052103F036FBA64B00221A70A94B04221A70A84B0A221A70A84B02221A80A74B03221A80A74B01221A8042E29D4B1B
:402280001B7887F82F3018E097F82F30994A1278D2B2114697F82F208A1A013296498A5CD2B23032D1B2954A13440A4683F8642097F82F30013B87F82F3097F82F30002BF6
:4022C000E2D18F4B66221A700120392103F0FAFA914B10225A7015E2864B1B7887F82F3018E097F82F30834A1278D2B2114697F82F208A1A013280498A5CD2B23032D1B2E7
:402300007E4A13440A4683F8712097F82F30013B87F82F3097F82F30002BE2D17F4B1A78764B93F875309A4223D17C4B5A78734B93F874309A421CD1784B9A786F4B93F8C8
:4023400073309A4215D1754BDA786C4B93F872309A420ED10120262103F0B4FAC82003F0A3FF01205F2103F0ADFA654B10221A70C8E1634B00221A700120272103F0A2FA1F
:40238000654B01225A70C82003F08EFF0120002103F098FAB6E1574B1B78DBB21A46564B9B5CDBB218461E2105F08CFC544B00221A7001203C2103F085FAC82003F074FFD0
:4023C000554B01225A709DE14D4B12221A700120732103F077FA524B1B78013B032B00F2B88001A252F823F0F92300003F24000085240000CB2400003F4B5B78DBB230333B
:40240000DAB2484B1A70474B1B78322B08D0332B0BD0312B0ED1404B012283F859200DE03D4B012283F85A2008E03B4B012283F85B2003E03C4B00221A7000BF89E02E4BB8
:402440005B78DBB23033DAB2364B5A70354B5B78322B08D0332B0BD0312B0ED12E4B022283F859200DE02C4B022283F85A2008E0294B022283F85B2003E02C4B00221A703C
:4024800000BF66E01C4B5B78DBB23033DAB2254B9A70244B9B78322B08D0332B0BD0312B0ED11D4B032283F859200DE01A4B032283F85A2008E0184B032283F85B2003E086
:4024C0001B4B00221A7000BF43E00B4B5B78DBB23033DAB2134BDA70124BDB78322B29D0332B2CD0312B2FD10B4B042283F859202EE000BF3F85FF1F3086FF1FD886FF1F70
:402500005585FF1FD782FF1F0684FF1FB286FF1FDC82FF1F0084FF1F5486FF1F4481FF1F7D87FF1FBC82FF1F4881FF1F4981FF1F4A81FF1FAF4B042283F85A2008E0AD4B0A
:40254000042283F85B2003E0AB4B00221A7000BF00BFAA4B1A7801230093012011460B222C2303F0FBF9A54B5A78012300930120114610222C2303F0F1F9A04B9A780123B3
:4025800000930120114614222C2303F0E7F99B4BDA78012300930120114619222C2303F0DDF9944B01225A70C82003F07DFEA9E0012387F82F3009E097F82F30904A00217F
:4025C000D15497F82F30013387F82F3097F82F30042BF1D98A4B04221A708A4B1B7887F82F3015E097F82F30864A1278D2B2114697F82F208A1A013283498A5CD2B230329F
:40260000D1B27F4AD15497F82F30013B87F82F3097F82F30002BE5D1794B5B78DBB22F2B17D9774B9B78DBB22F2B12D8744BDB78DBB22F2B0DD8724B1B79DBB22F2B08D848
:402640006F4B30229A706E4B3022DA706C4B30221A716B4B5B78DBB22F2B14D9684B9B78DBB22F2B0FD9664BDB78DBB22F2B0AD8634B1B79DBB22F2B05D8614B3022DA704E
:402680005F4B30221A715E4B5B78DBB22F2B11D95B4B9B78DBB22F2B0CD9594BDB78DBB22F2B07D9564B1B79DBB22F2B02D8544B30221A71082387F82F3011E097F82F30A9
:4026C000083B4F4AD35CDAB297F82F309BB21046194605F0F7FA97F82F30013387F82F3097F82F300C2BE9D9484B00221A7001203C2103F0E7F8C82003F0D6FD3D4B01229E
:402700005A7000BF04F05EFD00F076BF00F074BF3F4B4D221A703E4B55225A703C4B58229A703B4B3122DA70394B31221A71394B5B7E013B2F4A134493F85930DBB230332F
:40274000DAB2334B5A71334B5B7D3033DAB2304B9A71304B1B7D3033DAB22D4BDA712D4BDB7C3033DAB22A4B1A72294B2C225A72284B9B7C3033DAB2254B9A72254B5B7C6B
:402780003033DAB2224BDA72224B1B7C3033DAB21F4B1A73204B5B78DBB2072B3ED11D4B9B7B3033DAB21A4B5A731A4B5B7B3033DAB2174B9A73174B1B7B3033DAB2144BFD
:4027C000DA73144BDB7A3033DAB2114B1A74114B9B7A3033DAB20E4B5A740E4B5B7A3033DAB20B4B9A740B4B1B7A3033DAB2084BDA743DE05486FF1F4B81FF1FBC82FF1F21
:402800002C85FF1F3F85FF1F3086FF1F5585FF1F6084FF1FD886FF1FD882FF1F664B5B7B3033DAB2654B5A73634B1B7B3033DAB2624B9A73604BDB7A3033DAB25F4BDA735F
:402840005D4B9B7A3033DAB25C4B1A745A4B5B7A3033DAB2594B5A74574B1B7A3033DAB2564B9A74544BDB793033DAB2534BDA74534B1B78DBB2002B1DD14F4B9B79303311
:40288000DAB24E4B1A754C4B5B793033DAB24B4B5A75494B1B793033DAB2484B9A75464BDB783033DAB2454BDA75434B9B783033DAB2424B1A76424B1B78DBB2012B1AD1C9
:4028C0003D4B5B793033DAB23C4B1A753A4B1B793033DAB2394B5A75374BDB783033DAB2364B9A75344B9B783033DAB2334BDA75324B30221A76334B1B79DAB22F4B5A7633
:40290000304BDB78DAB22D4B9A762E4B9B78DAB22A4BDA762B4B5B78DAB2284B1A772A4B1B78012B43D1002387F82F303AE097F82F305B08DBB21A461F4B134493F82330BF
:402940001B0987F82E3097F82F3003F00103DBB2002B0CD197F82F305B08DBB21A46164B134493F8233003F00F0387F82E3097F82F301D3397F82E203032D1B20F4AD154A8
:4029800097F82E30092B08D997F82F301D3397F82E203732D1B2094AD15497F82F30013387F82F3097F82F300F2BC0D948E0002387F82F3040E000BFD886FF1F6084FF1F4F
:4029C0003E85FF1F2C85FF1F0284FF1F97F82F30AC4A134493F8233003F00F0387F82E3097F82F3003F00103DBB2002B09D197F82F30A44A134493F8233003F00F0387F87C
:402A00002E3097F82F301D3397F82E203032D1B29D4AD15497F82E30092B08D997F82F301D3397F82E203732D1B2974AD15497F82F30013387F82F3097F82F300F2BC5D957
:402A4000924B1B8801339AB2904B1A808F4B1B888F4AA2FB03239B099BB2DBB23033DAB28C4B1A71894B1B88894AA2FB031292094FF47A7101FB02F29B1A9BB2864AA2FBD5
:402A800003235B099BB2DBB23033DAB2814BDA707E4B1B887E4AA2FB031292094FF47A7101FB02F29B1A9BB27B4AA2FB03125209642101FB02F29B1A9BB2784AA2FB03233E
:402AC000DB089BB2DBB23033DAB2724B9A706F4B1B886F4AA2FB031292094FF47A7101FB02F29B1A9BB26C4AA2FB03125209642101FB02F29B1A9AB2684BA3FB0213D90860
:402B00000B469B000B445B00D31A9BB2DBB23033DAB2604B5A70012387F82F300EE097F82F302C3397F82F205A498A5CD1B2564AD15497F82F30013387F82F3097F82F30FA
:402B4000072BECD9012387F82F3010E097F82F30504AD35CDAB297F82F309BB21046194605F0B0F897F82F30013387F82F3097F82F30042BEAD9002387F82F3012E097F83A
:402B80002F30343397F82F2001323E490A4492F843203032D1B23C4AD15497F82F30013387F82F3097F82F30062BE8D9364B2A2283F83B2003F0C8FE002387F82F300BE0C4
:402BC00097F82F30304AD35C184603F0FBFE97F82F30013387F82F3097F82F303B2BEFD903F0B2FE962003F05FFB2D4B00221A70244B5B7E5A1E2B4913469B0013440B4440
:402C000048339B78DBB23B731E4B5B7E5A1E254913469B0013440B4449339B78DBB27B73184B5B7E5A1E1F4913469B0013440B444A339B78DBB2BB73124B5B7E5A1E1949EE
:402C400013469B0013440B444B339B78DBB2FB730C4B5B7E5A1E134913469B0013440B444C339B78DBB23B740E4B1B78D9B2054B5B7E07F10C02084611461A4601F09AFC90
:402C800000F0BABCD886FF1F6084FF1FBA82FF1FD34D62103485FF1F1F85EB51CDCCCCCC5286FF1F5486FF1F04F044FA0346082B40F00A81AE4B1B78DBB2AA2B40F0FE8069
:402CC000AB4B9B79DBB2C32B40F0F880A84BDB79DBB23C2B40F0F280A64B1B78DAB2A64B1B78DBB29A426CD2A14BDB78DBB2092B33D8A04B1B78DBB201339D4AD278D2B290
:402D00003032D1B29D4A13440A4683F864209C4B1B889DB2974B1B78DBB29BB2994A128892B2013292B202FB03F39AB2964B1B889BB213449CB2934B1B889BB2DBB200931E
:402D400001202A212A46234602F008FE894B1B78DBB20133DAB2874B1A70854BDB78DBB20A2B2ED1834B1B78DBB20133834A1344302283F86420824B1B889DB27D4B1B7871
:402D8000DBB29BB27F4A128892B2013292B202FB03F39AB27C4B1B889BB213449CB2794B1B889BB2DBB2009301202A212A46234602F0D4FD6F4B1B78DBB20133DAB26D4B52
:402DC0001A706B4BDB78DBB20B2B2ED16A4B1B78DBB2002B03D16D4B00221A7025E0654B1B78DBB2013BDAB2624B1A70644B1B889DB2604B1B78DBB29BB2624A128892B22F
:402E0000013292B202FB03F39AB25F4B1B889BB213449CB25B4B1B889BB2DBB20093012020212A46234602F099FD514BDB78DBB20C2B43D14F4B1B78DBB2002B3ED04D4BD2
:402E40001B78DAB24D4B83F86420002387F82E304A4B93F86430042B2DD1012387F82F3015E097F82F30454A134493F8642097F82F304749CB5C9A4204D197F82E3001336A
:402E800087F82E3097F82F30013387F82F3097F82F30042BE5D997F82E30042B07D13B4B0F221A7001205D2102F00CFD06E0374B00221A7002E0354B00221A70642003F0F2
:402EC000F3F904F07FF997E396E304F033F90346082B40F08880264B1B78DBB2AA2B40F08280234B9B79DBB2C32B7CD1204BDB79DBB23C2B77D11E4BDB78DBB2B92B04D0D5
:402F0000BA2B4BD07E2B66D076E3224B4D221A70204B55225A701F4B58229A701D4B3322DA701C4B2A221A7103F00EFD002387F82F300BE097F82F30164AD35C184603F05C
:402F400041FD97F82F30013387F82F3097F82F30042BEFD9962003F0A7F90120002102F0B1FC0A4B00221A700B4B01225A703AE0748EFF1F3F85FF1F0684FF1FD886FF1F80
:402F8000DC82FF1F0084FF1FB286FF1F5585FF1F2881FF1F6084FF1F5486FF1F0120252102F090FCAA4B05221A70AA4B00221A70A94B2C221A70A94B04221A70A84B04222F
:402FC0001A80A84B03221A80A74B01221A80A74B0C221A7007E00120002102F073FCA34B00221A7000BF07E304F0A4F80346082B71D19F4B1B78DBB2AA2B6CD19C4B9B79FA
:40300000DBB2C32B67D19A4BDB79DBB23C2B62D1974BDB78DBB2802B13D0802B04DC7E2B51D07F2B05D0E7E2812B27D0C22B2DD0E2E20120732102F045FC8C4B12221A70C2
:4030400049E00120642102F03DFC814B06221A70804B00221A70804B2C221A707F4B01221A707F4B04221A807E4B03221A807E4B01221A807D4B0C221A702CE07B4B11222A
:403080001A7001206D2102F01DFC24E00120842102F018FC6E4B08221A706E4B00221A706D4B2C221A706D4B04221A706C4B04221A806C4B03221A806B4B01221A806B4B1C
:4030C0000C221A7007E00120002102F0FBFB674B00221A7000BF8FE204F02CF80346082B4AD1634B1B78DBB2AA2B3FD1604B9B79DBB2C32B3AD15E4BDB79DBB23C2B35D1DB
:403100005B4BDB78DBB28F2B04D0902B14D07E2B24D02BE00020172104F0D4FD534B00221A7001203C2102F0CDFBC82003F0BCF8504B01225A7019E00120172104F0C2FD79
:403140004A4B00221A7001203C2102F0BBFBC82003F0AAF8474B01225A7007E00120002102F0B0FB414B00221A7000BF642003F09BF804F027F83FE23EE203F0DBFF0346BB
:40318000082B40F009823A4B1B78DBB2AA2B40F0FD81374B9B79DBB2C32B40F0F781344BDB79DBB23C2B40F0F181314BDB78DBB2BC2B2CD0BC2B05DC7E2B00F09F80BB2B32
:4031C00005D0E3E1BD2B59D0BE2B77D0DEE12A4B01221A700120842102F074FB1C4B07221A701C4B00221A701B4B2C221A701B4B01221A701A4B04221A801A4B03221A8026
:40320000194B01221A80194B0C221A70BEE11A4B02221A700120842102F054FB0C4B07221A700C4B00221A700B4B2C221A700B4B01221A700A4B04221A800A4B03221A8031
:40324000094B01221A80094B0C221A709EE100BFD782FF1F3F85FF1FB582FF1F0684FF1FB286FF1FDC82FF1F0084FF1F5585FF1F748EFF1F5486FF1F7D87FF1FC74B0322C0
:403280001A700120842102F01DFBC54B07221A70C44B00221A70C44B2C221A70C34B01221A70C34B04221A80C24B03221A80C24B01221A80C14B0C221A7067E1B74B0422FC
:4032C0001A700120842102F0FDFAB54B07221A70B44B00221A70B44B2C221A70B34B01221A70B34B04221A80B24B03221A80B24B01221A80B14B0C221A7047E1B04B4D223B
:403300001A70AF4B55225A70AD4B58229A70AC4B3422DA70042387F82E30002387F82F303CE097F82F30A74A134493F85930DBB2013B032B22D801A252F823F04D330000D9
:4033400059330000653300007133000097F82E309B4A3121D15417E097F82E30984A3221D15411E097F82E30954A3321D1540BE097F82E30924A3421D15405E097F82E30C8
:403380008F4A3021D15400BF97F82E30013387F82E3097F82F30013387F82F3097F82F30022BBED9884B1B78002B26D1002387F82E30042387F82F301BE097F82F30804A0F
:4033C000D35C312B0BD197F82F307D4A3021D15497F82E307B4A1344002283F8592097F82E30013387F82E3097F82F30013387F82F3097F82F30062BDFD9744B1B78002BCA
:4034000026D1002387F82E30042387F82F301BE097F82F306A4AD35C322B0BD197F82F30674A3021D15497F82E30664A1344002283F8592097F82E30013387F82E3097F8DF
:403440002F30013387F82F3097F82F30062BDFD95F4B1B78002B26D1002387F82E30042387F82F301BE097F82F30554AD35C332B0BD197F82F30524A3021D15497F82E30C2
:40348000504A1344002283F8592097F82E30013387F82E3097F82F30013387F82F3097F82F30062BDFD94B4B1B78002B26D1002387F82E30042387F82F301BE097F82F30F7
:4034C0003F4AD35C342B0BD197F82F303C4A3021D15497F82E303B4A1344002283F8592097F82E30013387F82E3097F82F30013387F82F3097F82F30062BDFD9304B2A2274
:40350000DA7103F021FA002387F82F300BE097F82F302B4AD35C184603F054FA97F82F30013387F82F3097F82F30072BEFD9264B01221A70254B01221A70254B01221A70D5
:40354000244B01221A701F4B93F85930DBB21846102104F0B7FB1B4B93F85A30DBB21846112104F0AFFB174B93F85B30DBB21846122104F0A7FB0120002102F0A3F90F4B63
:4035800000221A700F4B01225A7000BF642002F08BFE03F017FE2FE02EE000BF7D87FF1FD782FF1F3F85FF1FB582FF1F0684FF1FB286FF1FDC82FF1F0084FF1F5585FF1F92
:4035C0006084FF1F5486FF1F4881FF1F4981FF1F4A81FF1F4B81FF1F094B1B78DBB2032B09D9084B00221A7004F042F804F008F9034B00221A7000BF3037BD46B0BD00BF3A
:403600002885FF1F5585FF1F80B500AF04F02CF9184B1B78DBB2012B24D1174B1B78DBB2062B11D8144B1B78DBB20133DAB2124B1A70114B1B78DBB29BB214339BB20120E6
:40364000194602F03FF914E00B4B00221A700A4B1B78DBB29BB214339BB20120194602F031F906E0044B1B78DBB20133DAB2024B1A7080BD5585FF1F2885FF1F80B500AF09
:4036800004F0B2F9184B1B78DBB2012B24D1174B1B78DBB2062B11D8144B1B78DBB20133DAB2124B1A70114B1B78DBB29BB214339BB20220194602F005F914E00B4B0022CB
:4036C0001A700A4B1B78DBB29BB214339BB20220194602F0F7F806E0044B1B78DBB20133DAB2024B1A7080BD0384FF1FC082FF1F80B500AFFCF7C6FCFCF7EAFD03200021A3
:4037000002F006FE02F04AFEFDF77AFA02F046FEFCF770FFF6E700BF80B500AF04F096FA014B01221A7080BD7E87FF1F80B584B000AF0346FB7102F089FFFB79184602F0F1
:40374000C3FF1E4803F014FC04F03CFA1C4B00221A700A2002F0A8FD0BE0194B1B78012B07D103F017FC04F03DFA02F06FFF002320E002F021FF0346002BEED002F0D2FE80
:403780000346FB73FB7B03F00F02FB799A420AD1FB7B1B09FB7302F059FF03F0FBFB04F021FAFB7B06E002F051FF03F0F3FB04F019FA002318461037BD4680BD1937000085
:4037C0007E87FF1F80B582B000AF244BFF221A70234BFF221A70052002F066FD0020FFF7A5FF0346002B02D01D4B00221A700123FB711FE0052002F057FDFB791846FFF70D
:4038000095FF0346002B12D0144B1B78DBB2FF2B03D1124AFB79137009E0114B1B78DBB2FF2B04D10E4AFB791370012312E0FB790133FB71FB790F2BDCD9084B1B78DBB21B
:40384000FF2B06D0064B1B78DBB2FF2B01D0012300E0002318460837BD4680BD5486FF1F5882FF1F90B58BB000AF0346FB71594A07F108031068516803C3127A1A7002F05F
:40388000E5FEFB7943F02003DBB2184602F01CFF514803F06DFB04F095F9504B00221A700BE04E4B1B78012B07D103F073FB04F099F902F0CBFE002388E002F07DFE0346A8
:4038C000002BEED003F066FB04F08CF902F02AFE03461A46FB7963F02F03DBB29A4274D102F0B4FE052002F0DFFC002387F827300EE097F8273007F12802134413F8203C65
:40390000184602F0E1FE97F82730013387F8273097F82730082BECD92F4803F029FB04F051F92E4B00221A700BE02C4B1B78012B07D103F02FFB04F055F902F087FE0023A7
:4039400044E002F039FE0346132BEED103F022FB04F048F9002387F827300FE097F8274002F0E0FD03461A4607F12803234403F8142C97F82730013387F8273097F827307E
:40398000122BEBD902F062FE3B7DBA2B1BD197F825308D2B17D197F826308A2B13D197F82030B12B0FD197F82230B22B05D0B32B05D0B12B05D1012308E0022306E0032359
:4039C00004E0002302E0002300E0002318462C37BD4690BD40A90000193700007E87FF1F80B584B000AF0346FB7102F02FFEFB7943F04003DBB2184602F066FE4FF49670EB
:403A000002F052FCAB4B5B78DBB2072B00F0BC8002F0D2FD0346212B40F0B680A64B1B78DBB2FF2B40F0AE80A34B9B78DBB2F82B40F0A880A04B93F82030DBB2F02B40F096
:403A4000A1809E4B1B78DBB2FA799A424CD19A4B5B7ADBB203F00F03DBB20133DAB2984B5A760023FB730FE0FB7BFA7B0C3292498A5CD2B202F00F02D1B2914A13440A466E
:403A80009A70FB7B0133FB73FB7B032BECD90023FB730FE0FB7BFA7B113287498A5CD2B202F00F02D1B2864A13440A461A74FB7B0133FB73FB7B052BECD90023FB730FE005
:403AC000FB7BFA7B18327C498A5CD2B202F00F02D1B27B4A13440A46DA71FB7B0133FB73FB7B052BECD94BE0734B5B7ADBB203F00F03DBB20133DAB2724B5A760023FB73E7
:403B00000FE0FB7BFA7B0C326B498A5CD2B202F00F02D1B26B4A13440A469A70FB7B0133FB73FB7B032BECD90023FB730FE0FB7BFA7B113260498A5CD2B202F00F02D1B29B
:403B4000604A13440A461A74FB7B0133FB73FB7B052BECD90023FB730FE0FB7BFA7B183255498A5CD2B202F00F02D1B2554A13440A46DA71FB7B0133FB73FB7B052BECD98C
:403B80000123CFE00023CDE04A4B5B78DBB2072B40F0C78002F010FD0346272B40F0C180454B1B78DBB2FF2B40F0B980424B9B78DBB2F82B40F0B3803F4B93F82630DBB2CB
:403BC000F02B40F0AC803D4B1B78DBB2FA799A424CD1394B5B7ADBB203F00F03DBB20133DAB2374B5A760023FB730FE0FB7BFA7B0C3231498A5CD2B202F00F02D1B2304A23
:403C000013440A469A70FB7B0133FB73FB7B052BECD90023FB730FE0FB7BFA7B133226498A5CD2B202F00F02D1B2254A13440A461A74FB7B0133FB73FB7B072BECD90023F5
:403C4000FB730FE0FB7BFA7B1C321B498A5CD2B202F00F02D1B21A4A13440A46DA71FB7B0133FB73FB7B072BECD956E0124B5B7ADBB203F00F03DBB20133DAB2114B5A760C
:403C80000023FB730FE0FB7BFA7B0C320A498A5CD2B202F00F02D1B20A4A13440A469A70FB7B0133FB73FB7B052BECD90023FB731AE000BFD882FF1F8087FF1F5486FF1FB1
:403CC000D886FF1F5885FF1FFB7BFA7B133217498A5CD2B202F00F02D1B2154A13440A461A74FB7B0133FB73FB7B072BECD90023FB730FE0FB7BFA7B1C320C498A5CD2B23C
:403D000002F00F02D1B20A4A13440A46DA71FB7B0133FB73FB7B072BECD9012302E0002300E0002318461037BD4680BD8087FF1F5885FF1F80B588B000AF3A601A460346A2
:403D4000FB710B46BB7113467B7107F1080300221A60043300221A60043300221A60043300221A60043300221A8002330423BB777B79032B01D102237B71B34B5B78DBB219
:403D8000052B04D0B04B5B78DBB2062B04D17B79012B01D10323BB77AB4B5B78DBB2052B04D17B79022B01D10523BB77A64B5B78DBB2072B04D17B79012B01D10023BB770D
:403DC000A14B5B78DBB2072B04D17B79022B01D10223BB7700233B7701237B770AE07B7F3A6813441B782C2B01D17B7F3B777B7F01337B777B7F072BF1D93B7F042B01D91D
:403E00000023CFE3904B5B78DBB2072B00F00582FF233B72BB7F63F01F03DBB27B727B7963F00F03DBB2BB72F423FB72F8233B733B6801331B7863F01F03DBB27B733B6874
:403E400002331B7863F01F03DBB2BB733B6803331B7863F01F03DBB2FB733B6804331B7863F01F03DBB23B743B6805331B7863F01F03DBB27B743B6806331B7863F01F030D
:403E8000DBB2BB74704B9B78DBB2022B40F0A5803B7F042B29D13B6802331B7863F01F03DBB27B733B6803331B7863F01F03DBB2BB733B6805331B7863F01F03DBB2FB73B1
:403EC0003B6806331B7863F01F03DBB23B743B6807331B7863F01F03DBB27B743B6808331B7863F01F03DBB2BB743B7F032B29D13B6801331B7863F01F03DBB27B733B68C0
:403F000002331B7863F01F03DBB2BB733B6804331B7863F01F03DBB2FB733B6805331B7863F01F03DBB23B743B6806331B7863F01F03DBB27B743B6807331B7863F01F0348
:403F4000DBB2BB743B7F022B24D1E0237B733B6801331B7863F01F03DBB2BB733B6803331B7863F01F03DBB2FB733B6804331B7863F01F03DBB23B743B6805331B7863F063
:403F80001F03DBB27B743B6806331B7863F01F03DBB2BB743B7F002B1FD1E0237B73E023BB733B6801331B7863F01F03DBB2FB733B6802331B7863F01F03DBB23B743B6833
:403FC00003331B7863F01F03DBB27B743B6804331B7863F01F03DBB2BB74FB23FB7400233B7500237B770FE03A7D7B7F07F120010B4413F8183C03F00F03DBB21344DBB217
:404000003B757B7F01337B777B7F0B2BECD93B7D5B42DBB2DBB203F00F03DBB263F01F03DBB2DBB23B75F0237B750D23FB77064B5B78DBB2052B2CD1FB23BB740023FB7419
:4040400000237B7712E000BFD882FF1FFA7C7B7F07F120010B4413F8183C03F00F03DBB21344DBB2FB747B7F01337B777B7F0A2BECD9FB7C5B42DBB2DBB203F00F03DBB212
:4040800063F01F03DBB2DBB2FB74F0233B750C23FB777B79012B40F0C080F6233B73BB79013BDBB2DBB263F01F03DBB2DBB27B73F823BB733B7F042B22D13B6802331B78B0
:4040C00063F01F03DBB2FB733B6803331B7863F01F03DBB23B743B6805331B7863F01F03DBB27B743B6806331B7863F01F03DBB2BB743B6807331B7863F01F03DBB2FB7453
:404100003B7F032B22D13B6801331B7863F01F03DBB2FB733B6802331B7863F01F03DBB23B743B6804331B7863F01F03DBB27B743B6805331B7863F01F03DBB2BB743B680E
:4041400006331B7863F01F03DBB2FB743B7F022B1DD1E023FB733B6801331B7863F01F03DBB23B743B6803331B7863F01F03DBB27B743B6804331B7863F01F03DBB2BB74A6
:404180003B6805331B7863F01F03DBB2FB743B7F002B18D1E023FB73E0233B743B6801331B7863F01F03DBB27B743B6802331B7863F01F03DBB2BB743B6803331B7863F079
:4041C0001F03DBB2FB74FB233B7500237B7500237B770FE07A7D7B7F07F120010B4413F8183C03F00F03DBB21344DBB27B757B7F01337B777B7F0C2BECD97B7D5B42DBB266
:40420000DBB203F00F03DBB263F01F03DBB2DBB27B75F023BB750E23FB77A24B5B78DBB2072B40F06481FF233B72BB7F63F01F03DBB27B727B7963F00F03DBB2BB72F42344
:40424000FB72F8233B733B6801331B7863F01F03DBB27B733B6802331B7863F01F03DBB2BB733B6803331B7863F01F03DBB2FB733B6804331B7863F01F03DBB23B743B6876
:4042800005331B7863F01F03DBB27B743B6806331B7863F01F03DBB2BB743B6807331B7863F01F03DBB2FB74E0233B75FB237B750023BB7500237B770FE0BA7D7B7F07F180
:4042C00020010B4413F8183C03F00F03DBB21344DBB2BB757B7F01337B777B7F0D2BECD9BB7D5B42DBB2DBB203F00F03DBB263F01F03DBB2DBB2BB75F023FB750F23FB77CB
:404300007B79012B40F0F380F6233B73BB79013BDBB2DBB263F01F03DBB2DBB27B73F823BB733B7F042B2DD13B6801331B7863F01F03DBB2FB733B6802331B7863F01F0302
:40434000DBB23B743B6803331B7863F01F03DBB27B743B6805331B7863F01F03DBB2BB743B6806331B7863F01F03DBB2FB743B6807331B7863F01F03DBB23B75E0237B7510
:40438000E023BB753B7F032B2DD1E023FB733B6801331B7863F01F03DBB23B743B6802331B7863F01F03DBB27B743B6804331B7863F01F03DBB2BB743B6805331B7863F09D
:4043C0001F03DBB2FB743B6806331B7863F01F03DBB23B753B6807331B7863F01F03DBB27B75E023BB753B7F022B2DD1E023FB73E0233B743B6801331B7863F01F03DBB275
:404400007B743B6803331B7863F01F03DBB2BB743B6804331B7863F01F03DBB2FB743B6805331B7863F01F03DBB23B753B6806331B7863F01F03DBB27B753B6807331B7821
:4044400063F01F03DBB2BB753B7F002B23D1E023FB73E0233B74E0237B743B6801331B7863F01F03DBB2BB743B6802331B7863F01F03DBB2FB743B6803331B7863F01F03C4
:40448000DBB23B753B6804331B7863F01F03DBB27B75E023BB75FB23FB7500233B7600237B7711E0D882FF1F3A7E7B7F07F120010B4413F8183C03F00F03DBB21344DBB25E
:4044C0003B767B7F01337B777B7F0F2BECD93B7E5B42DBB2DBB203F00F03DBB263F01F03DBB2DBB23B76F0237B761123FB7702F0ADF8FB7943F02003DBB2184602F0E4F8EC
:404500002A4802F035FD03F05DFB294B00221A700A2001F0C9FE0BE0254B1B78012B07D102F038FD03F05EFB02F090F8002339E002F042F80346002BEED002F02BFD03F012
:4045400051FB01F0EFFF03461A46FB7963F02F03DBB29A4225D102F079F80A2001F0A4FE00237B770BE07B7F07F12002134413F8183C184602F0A8F87B7F01337B777A7F1C
:40458000FB7F9A42EFD9322001F08EFEFB791846FFF7CCF80346002B01D1002302E0012300E0002318462037BD4680BD193700007E87FF1F80B588B000AF03463960FB713E
:4045C0001346BB7100233B7300237B730023BB730023FB7300233B7400237B740023BB740023FB7400233B7500237B750023BB750023FB7500233B7600237B760023BB76A2
:40460000884B5B78DBB2072B56D0FF233B73E5237B73F423BB73F623FB73BB79013BDBB2DBB263F01F03DBB2DBB23B74F7237B740623BB7715E0BB7FBA7F063A39680A449A
:404640001278D2B202F00F02D2B262F01F02D2B2D2B207F120010B4403F8142CBB7F0133BB77BB7F092BE6D9FB23BB750023BB770FE0FA7DBB7F07F120010B4413F8143CB4
:4046800003F00F03DBB21344DBB2FB75BB7F0133BB77BB7F0A2BECD9FB7D5B42DBB2DBB203F00F03DBB263F01F03DBB2DBB2FB75F0233B760C23FB775A4B5B78DBB2072BE4
:4046C00053D1FF233B73E3237B73F423BB73F623FB73BB79013BDBB2DBB263F01F03DBB2DBB23B74F7237B740623BB7710E0BB7FBA7F063A39680A44127862F01F02D2B2C7
:4047000007F120010B4403F8142CBB7F0133BB77BB7F0A2BEBD9E023FB75FB233B760023BB770FE07A7EBB7F07F120010B4413F8143C03F00F03DBB21344DBB27B76BB7FE7
:404740000133BB77BB7F0C2BECD97B7E5B42DBB2DBB203F00F03DBB263F01F03DBB2DBB27B76F023BB760E23FB7701F06FFFFB7943F02003DBB2184601F0A6FF2A4802F0E6
:40478000F7FB03F01FFA294B00221A700BE0274B1B78012B07D102F0FDFB03F023FA01F055FF002339E001F007FF0346002BEED002F0F0FB03F016FA01F0B4FE03461A4617
:4047C000FB7963F02F03DBB29A4225D101F03EFF0A2001F069FD0023BB770BE0BB7F07F12002134413F8143C184601F06DFFBB7F0133BB77BA7FFB7F9A42EFD9322001F077
:4048000053FDFB791846FEF791FF0346002B01D1002302E0012300E0002318462037BD4680BD00BFD882FF1F193700007E87FF1F80B584B000AF03460A46FB711346BB711E
:4048400001F004FFFB7943F05003DBB2184601F03BFFB04B00221A704FF4967001F024FD01F0AAFE0346002B01F02280AA4B1B78DBB2FA799A4240F01F84A84B5B78DBB208
:40488000072B00F00C824FF4617001F00DFD01F093FE0346FB73FB7B222B06D0FB7B402B03D0FB7B5E2B40F0F5819D4B1B78DBB2FF2B40F0EA819A4B5B78DBB2F62B40F0AB
:4048C000E481974BDB78DBB2F92B40F0DE810023BB7316E00023FB730DE0BA7BF97B8E4813465B001344DB000B44034400229A70FB7B0133FB73FB7B172BEED9BB7B0133F1
:40490000BB73BB7B022BE5D90023FB7321E0FB7BFA7B043282498A5CD1B27F4A13440A469A70FB7B7C4A13449B78DBB2002B08D0FB7B794A13449B78DBB203F0F003E02B70
:4049400004D001F083FE002300F0B3BFFB7B0133FB73FB7B072BDAD90023FB7324E0FB7B0C33FA7B0D326E498A5CD1B26A4A13440A469A70FB7B0C33674A13449B78DBB219
:40498000002B09D0FB7B0C33634A13449B78DBB203F0F003E02B04D001F058FE002300F088BFFB7B0133FB73FB7B072BD7D90023FB730DE0FB7BFA7B163259498A5CD1B208
:4049C000554A13440A4683F84A20FB7B0133FB73FB7B032BEED9BB79022B6BD10023FB7321E0FB7BFA7B22324D498A5CD1B24A4A13440A469A76FB7B474A13449B7EDBB24D
:404A0000002B08D0FB7B444A13449B7EDBB203F0F003E02B04D001F019FE002300F049BFFB7B0133FB73FB7B072BDAD90023FB7324E0FB7B0C33FA7B2B3239498A5CD1B210
:404A4000354A13440A469A76FB7B0C33324A13449B7EDBB2002B09D0FB7B0C332E4A13449B7EDBB203F0F003E02B04D001F0EEFD002300F01EBFFB7B0133FB73FB7B072B53
:404A8000D7D90023FB730DE0FB7BFA7B343224498A5CD1B2204A13440A4683F84F20FB7B0133FB73FB7B032BEED901F0CFFD022300F0FFBEBB79032B40F0E2800023FB730F
:404AC00021E0FB7BFA7B223215498A5CD1B2124A13440A469A76FB7B0F4A13449B7EDBB2002B08D0FB7B0C4A13449B7EDBB203F0F003E02B04D001F0A9FD002300F0D9BEFE
:404B0000FB7B0133FB73FB7B072BDAD90023FB732DE000BF7E87FF1F5486FF1FD882FF1F8087FF1FFB7B0C33FA7B2B32B3498A5CD1B2B34A13440A469A76FB7B0C33B04A9E
:404B400013449B7EDBB2002B09D0FB7B0C33AC4A13449B7EDBB203F0F003E02B04D001F075FD002300F0A5BEFB7B0133FB73FB7B072BD7D90023FB730DE0FB7BFA7B3432AF
:404B80009E498A5CD1B29E4A13440A4683F84F20FB7B0133FB73FB7B032BEED90023FB7324E0FB7BFA7B403294498A5CD1B2944A13440A4683F83220FB7B914A134493F8EC
:404BC0003230DBB2002B09D0FB7B8D4A134493F83230DBB203F0F003E02B04D001F036FD002300F066BEFB7B0133FB73FB7B072BD7D90023FB7327E0FB7B0C33FA7B4932D7
:404C00007E498A5CD1B27E4A13440A4683F83220FB7B0C337A4A134493F83230DBB2002B0AD0FB7B0C33764A134493F83230DBB203F0F003E02B04D001F008FD002300F0A5
:404C400038BEFB7B0133FB73FB7B072BD4D90023FB730DE0FB7BFA7B523268498A5CD1B2674A13440A4683F85420FB7B0133FB73FB7B032BEED901F0E9FC032300F019BE3D
:404C800001F0E4FC012300F014BE01F0DFFC002300F00FBE01F0DAFC002300F00ABE4FF4617001F001FB01F087FC0346FB73FB7B2E2B06D0FB7B582B03D0FB7B822B40F0FF
:404CC000F1814E4B1B78DBB2FF2B40F0E6814B4B5B78DBB2F62B40F0E081484BDB78DBB2F92B40F0DA810023BB7316E00023FB730DE0BA7BF97B424813465B001344DB0020
:404D00000B44034400229A70FB7B0133FB73FB7B172BEED9BB7B0133BB73BB7B022BE5D90023FB7321E0FB7BFA7B043233498A5CD1B2334A13440A469A70FB7B304A134454
:404D40009B78DBB2002B08D0FB7B2D4A13449B78DBB203F0F003E02B04D001F077FC002300F0A7BDFB7B0133FB73FB7B0B2BDAD90023FB7324E0FB7B0C33FA7B11321F492B
:404D80008A5CD1B21E4A13440A469A70FB7B0C331B4A13449B78DBB2002B09D0FB7B0C33174A13449B78DBB203F0F003E02B04D001F04CFC002300F07CBDFB7B0133FB73ED
:404DC000FB7B0B2BD7D90023FB730DE0FB7BFA7B1E320A498A5CD1B2094A13440A4683F84A20FB7B0133FB73FB7B042BEED9BB79022B70D10023FB7326E000BF8087FF1F62
:404E00005486FF1FFB7BFA7B2E32A9498A5CD1B2A84A13440A469A76FB7BA64A13449B7EDBB2002B08D0FB7BA24A13449B7EDBB203F0F003E02B04D001F008FC002300F099
:404E400038BDFB7B0133FB73FB7B0B2BDAD90023FB7324E0FB7B0C33FA7B3B3294498A5CD1B2944A13440A469A76FB7B0C33914A13449B7EDBB2002B09D0FB7B0C338D4AA2
:404E800013449B7EDBB203F0F003E02B04D001F0DDFB002300F00DBDFB7B0133FB73FB7B0B2BD7D90023FB730DE0FB7BFA7B48327F498A5CD1B27F4A13440A4683F84F20A8
:404EC000FB7B0133FB73FB7B042BEED901F0BEFB022300F0EEBCBB79032B40F0D9800023FB7321E0FB7BFA7B2E3271498A5CD1B2704A13440A469A76FB7B6E4A13449B7ECB
:404F0000DBB2002B08D0FB7B6A4A13449B7EDBB203F0F003E02B04D001F098FB002300F0C8BCFB7B0133FB73FB7B0B2BDAD90023FB7324E0FB7B0C33FA7B3B325C498A5CAC
:404F4000D1B25C4A13440A469A76FB7B0C33594A13449B7EDBB2002B09D0FB7B0C33554A13449B7EDBB203F0F003E02B04D001F06DFB002300F09DBCFB7B0133FB73FB7B8F
:404F80000B2BD7D90023FB730DE0FB7BFA7B483247498A5CD1B2474A13440A4683F84F20FB7B0133FB73FB7B042BEED90023FB7324E0FB7BFA7B58323D498A5CD1B23D4A09
:404FC00013440A4683F83220FB7B3A4A134493F83230DBB2002B09D0FB7B364A134493F83230DBB203F0F003E02B04D001F02EFB002300F05EBCFB7B0133FB73FB7B0B2BD7
:40500000D7D90023FB7327E0FB7B0C33FA7B653227498A5CD1B2274A13440A4683F83220FB7B0C33234A134493F83230DBB2002B0AD0FB7B0C331F4A134493F83230DBB2C2
:4050400003F0F003E02B04D001F000FB002300F030BCFB7B0133FB73FB7B0B2BD4D90023FB730DE0FB7BFA7B723211498A5CD1B2104A13440A4683F85420FB7B0133FB7337
:40508000FB7B042BEED901F0E1FA032300F011BC01F0DCFA012300F00CBC01F0D7FA002300F007BC01F0D2FA002300F002BC00BF8087FF1F5486FF1FA24B5B78DBB2072BB1
:4050C00000F0FC814FF4617001F0EEF801F074FA0346FB73FB7B222B06D0FB7B402B03D0FB7B5E2B40F0E681974B1B78DBB2FF2B40F0DC81944B5B78DBB2F62B40F0D681BF
:40510000914BDB78DBB2F92B40F0D0810023BB7316E00023FB730DE0BA7BF97B8B4813465B001344DB000B44034400229A70FB7B0133FB73FB7B172BEED9BB7B0133BB73F6
:40514000BB7B022BE5D90023FB7320E0FB7BFA7B04327D498A5CD1B27C4A13440A469A70FB7B7A4A13449B78DBB2002B08D0FB7B764A13449B78DBB203F0F003E02B03D091
:4051800001F064FA002394E3FB7B0133FB73FB7B072BDBD90023FB7323E0FB7B0C33FA7B0D3269498A5CD1B2684A13440A469A70FB7B0C33654A13449B78DBB2002B09D0B8
:4051C000FB7B0C33614A13449B78DBB203F0F003E02B03D001F03AFA00236AE3FB7B0133FB73FB7B072BD8D90023FB730DE0FB7BFA7B163254498A5CD1B2544A13440A4692
:4052000083F84A20FB7B0133FB73FB7B032BEED9BB79022B68D10023FB7320E0FB7BFA7B223249498A5CD1B2484A13440A469A76FB7B464A13449B7EDBB2002B08D0FB7BDC
:40524000424A13449B7EDBB203F0F003E02B03D001F0FCF900232CE3FB7B0133FB73FB7B072BDBD90023FB7323E0FB7B0C33FA7B2B3235498A5CD1B2344A13440A469A761E
:40528000FB7B0C33314A13449B7EDBB2002B09D0FB7B0C332D4A13449B7EDBB203F0F003E02B03D001F0D2F9002302E3FB7B0133FB73FB7B072BD8D90023FB730DE0FB7BA7
:4052C000FA7B343220498A5CD1B2204A13440A4683F84F20FB7B0133FB73FB7B032BEED901F0B4F90223E4E2BB79032B40F0DA800023FB7320E0FB7BFA7B223212498A5CFD
:40530000D1B2124A13440A469A76FB7B0F4A13449B7EDBB2002B08D0FB7B0C4A13449B7EDBB203F0F003E02B03D001F08FF90023BFE2FB7B0133FB73FB7B072BDBD90023A7
:40534000FB7329E0D882FF1F8087FF1F5882FF1FFB7B0C33FA7B2B32AE498A5CD1B2AE4A13440A469A76FB7B0C33AB4A13449B7EDBB2002B09D0FB7B0C33A74A13449B7ECA
:40538000DBB203F0F003E02B03D001F05FF900238FE2FB7B0133FB73FB7B072BD8D90023FB730DE0FB7BFA7B34329A498A5CD1B2994A13440A4683F84F20FB7B0133FB73A7
:4053C000FB7B032BEED90023FB7323E0FB7BFA7B403290498A5CD1B28F4A13440A4683F83220FB7B8C4A134493F83230DBB2002B09D0FB7B884A134493F83230DBB203F095
:40540000F003E02B03D001F021F9002351E2FB7B0133FB73FB7B072BD8D90023FB7326E0FB7B0C33FA7B49327A498A5CD1B27A4A13440A4683F83220FB7B0C33764A13445D
:4054400093F83230DBB2002B0AD0FB7B0C33724A134493F83230DBB203F0F003E02B03D001F0F4F8002324E2FB7B0133FB73FB7B072BD5D90023FB730DE0FB7BFA7B523246
:4054800064498A5CD1B2644A13440A4683F85420FB7B0133FB73FB7B032BEED901F0D6F8032306E201F0D2F8012302E201F0CEF80023FEE101F0CAF80023FAE14FF4617001
:4054C00000F0F2FE01F078F80346FB73FB7B2E2B06D0FB7B582B03D0FB7B822B40F0E4814C4B1B78DBB2FF2B40F0DA81494B5B78DBB2F62B40F0D481464BDB78DBB2F92BF0
:4055000040F0CE810023BB7316E00023FB730DE0BA7BF97B404813465B001344DB000B44034400229A70FB7B0133FB73FB7B172BEED9BB7B0133BB73BB7B022BE5D90023DB
:40554000FB7320E0FB7BFA7B043232498A5CD1B2314A13440A469A70FB7B2F4A13449B78DBB2002B08D0FB7B2B4A13449B78DBB203F0F003E02B03D001F068F8002398E110
:40558000FB7B0133FB73FB7B0B2BDBD90023FB7323E0FB7B0C33FA7B11321E498A5CD1B21D4A13440A469A70FB7B0C331A4A13449B78DBB2002B09D0FB7B0C33164A13440A
:4055C0009B78DBB203F0F003E02B03D001F03EF800236EE1FB7B0133FB73FB7B0B2BD8D90023FB730DE0FB7BFA7B1E3209498A5CD1B2094A13440A4683F84A20FB7B01333C
:40560000FB73FB7B042BEED9BB79022B6CD10023FB7324E08087FF1F5882FF1FFB7BFA7B2E32A6498A5CD1B2A54A13440A469A76FB7BA34A13449B7EDBB2002B08D0FB7B1E
:405640009F4A13449B7EDBB203F0F003E02B03D000F0FCFF00232CE1FB7B0133FB73FB7B0B2BDBD90023FB7323E0FB7B0C33FA7B3B3292498A5CD1B2914A13440A469A76EC
:40568000FB7B0C338E4A13449B7EDBB2002B09D0FB7B0C338A4A13449B7EDBB203F0F003E02B03D000F0D2FF002302E1FB7B0133FB73FB7B0B2BD8D90023FB730DE0FB7BE2
:4056C000FA7B48327D498A5CD1B27D4A13440A4683F84F20FB7B0133FB73FB7B042BEED900F0B4FF0223E4E0BB79032B40F0D4800023FB7320E0FB7BFA7B2E326F498A5CC4
:40570000D1B26F4A13440A469A76FB7B6C4A13449B7EDBB2002B08D0FB7B694A13449B7EDBB203F0F003E02B03D000F08FFF0023BFE0FB7B0133FB73FB7B0B2BDBD9002385
:40574000FB7323E0FB7B0C33FA7B3B325B498A5CD1B25B4A13440A469A76FB7B0C33584A13449B7EDBB2002B09D0FB7B0C33544A13449B7EDBB203F0F003E02B03D000F05C
:4057800065FF002395E0FB7B0133FB73FB7B0B2BD8D90023FB730DE0FB7BFA7B483247498A5CD1B2464A13440A4683F84F20FB7B0133FB73FB7B042BEED90023FB7323E063
:4057C000FB7BFA7B58323D498A5CD1B23C4A13440A4683F83220FB7B394A134493F83230DBB2002B09D0FB7B354A134493F83230DBB203F0F003E02B03D000F027FF0023BA
:4058000057E0FB7B0133FB73FB7B0B2BD8D90023FB7326E0FB7B0C33FA7B653227498A5CD1B2274A13440A4683F83220FB7B0C33234A134493F83230DBB2002B0AD0FB7B38
:405840000C331F4A134493F83230DBB203F0F003E02B03D000F0FAFE00232AE0FB7B0133FB73FB7B0B2BD5D90023FB730DE0FB7BFA7B723211498A5CD1B2114A13440A4692
:4058800083F85420FB7B0133FB73FB7B042BEED900F0DCFE03230CE000F0D8FE012308E000F0D4FE002304E000F0D0FE002300E0002318461037BD4680BD00BF8087FF1F51
:4058C0005882FF1F80B582B000AF03460A46FB711346BB80FB79012B1ED1AA2001F0B0FC702001F0ADFCBB881B0A9BB2DBB2184601F0A6FCBB88DBB2184601F0A1FCCC2006
:4059000001F09EFC332001F09BFCC32001F098FC3C2001F095FC1DE0AA2001F087FD702001F084FDBB881B0A9BB2DBB2184601F07DFDBB88DBB2184601F078FDCC2001F001
:4059400075FD332001F072FDC32001F06FFD3C2001F06CFD0837BD4680BD00BFB0B588B000AF0446084611461A462346FB710346BB710B46BB8013467B80294B07F10C048D
:405980001D4628686968AA68EB680FC42B8A23807A8813465B0013449B001B12DBB2BB737B88DBB21A46520013449B00DBB2FB73BA8813461B019B1A1B12DBB23B74BB88BC
:4059C000DBB21A461201D31ADBB27B7497F830302333DBB2BB74BB797B760023FB7718E0FB79012B09D1FB7F07F12002134413F8143C184601F024FC08E0FB7F07F12002E0
:405A0000134413F8143C184601F010FDFB7F0133FB77FB7F112BE3D92037BD46B0BD00BF4CA9000080B584B000AF0346FB71FB79012B29D1002001F0B3FD4FF4FA7000F086
:405A400055FC012001F0ACFD052000F04FFC01F0C1FD0346002B01D100233EE0412000F045FC01F0B7FD0346002B0CBF01230023DBB2FB73F02000F039FCFB7B002B01D025
:405A800001232AE0002328E0002001F0B1FD4FF4FA7000F02BFC012001F0AAFD052000F025FC01F0C3FD0346002B01D1002314E0412000F01BFC01F0B9FD0346002B0CBFBF
:405AC00001230023DBB2FB73F02000F00FFCFB7B002B01D0012300E0002318461037BD4680BD00BF80B584B000AF03460A46FB711346BB71FB79012B3BD10023FB7333E02A
:405B0000002001F04DFD0A2000F0F0FBBA79FB7B42FA03F303F00103002B0CD0012001F03FFD0A2000F0E2FB01F054FD0346002B0ED1002358E0002001F032FD0A2000F09D
:405B4000D5FB01F047FD0346002B01D000234BE0322000F0CBFB012001F022FD322000F0C5FBFB7B0133FB73FB7B072BC8D901233AE00023FB7333E0002001F039FD0A209E
:405B800000F0B4FBBA79FB7B42FA03F303F00103002B0CD0012001F02BFD0A2000F0A6FB01F044FD0346002B0ED100231CE0002001F01EFD0A2000F099FB01F037FD03468C
:405BC000002B01D000230FE0322000F08FFB012001F00EFD322000F089FBFB7B0133FB73FB7B072BC8D9012318461037BD4680BD80B584B000AF0346FB710023BB73FB79EC
:405C0000012B25D10023FB731DE0002001F0C8FC0E2000F06BFB012001F0C2FC072000F065FB01F0D7FC03461A46FB7B02FA03F3DAB2BB7B1343DBB2BB73642000F056FBA7
:405C4000FB7B0133FB73FB7B072BDED9BB7B24E00023FB731DE0002001F0CAFC0E2000F045FB012001F0C4FC072000F03FFB01F0DDFC03461A46FB7B02FA03F3DAB2BB7BF0
:405C80001343DBB2BB73642000F030FBFB7B0133FB73FB7B072BDED9BB7B18461037BD4680BD00BF80B485B000AF03460A46FB711346BB71FA79BB795340FB710023FB730A
:405CC00012E0FB7903F00103002B07D0FB795B08DBB283F07303DB43FB7102E0FB795B08FB71FB7B0133FB73FB7B072BE9D9FB7918461437BD465DF8047B704780B400AF39
:405D0000FEE700BF80B584B000AF7860104B1A687B6813441A460F4BD31AB3F5805F09DC0B4B1B68FB600A4B1A687B681344084A136007E002F0ACFB02460C2313604FF0F2
:405D4000FF33FB60FB6818461037BD4680BD00BF4C81FF1F508FFF1F80B586B000AF224B7B61224B3B61204B7B6135E03B691B68FB603B695B68BB603B699B683B60002376
:405D80007B600CE0FB681A68BB681A60BB680433BB60FB680433FB607B6804337B607A683B689A42EED13B69DB683B6000237B6008E0BB6800221A60BB680433BB607B689C
:405DC00004337B607A683B689A42F2D13B6910333B617B69013B7B617B69002BC6D102F05DFBFDF785FCFEE70100000098AB000080B582B000AF174B174A1A60174A174B4A
:405E00001B6843F40073136000237B600FE07B68032B04D8124A7B6852F8233000E0114B11497A6841F822307B6801337B607B682F2BECD90D4B1B78DAB20D4B1A700D4B64
:405E4000094A1A6000F042F90B4B00221A600837BD4680BD0CED00E00004FA0514ED00E000000000FD5C00000080FF1FBC7600400481FF1F08ED00E00081FF1F80B582B015
:405E800000AF78603960786800213A6802F037FB0837BD4680BD00BF80B584B000AFF860B9607A60F868B9687A6802F01DFB1037BD4680BD80B483B000AF0346FB71FEE7B6
:405EC00080B487B000AF7860396000233B6100237B6127E07B699B007A6813441B68BB60BB68FB73BB6823F0FF03BB6014E03B695B003A6813441B781A46BB681344194660
:405F00003B695B003A6813445B780B703B6901333B61FB7B013BFB73FB7B002BE7D17B6901337B617B69262BD4D91C37BD465DF8047B704780B582B000AF3D4B81221A809C
:405F40003C4B18221A703C4B81221A803B4B18221A703B4B4FF443721A803A4B18221A70394B40F217521A80384B18221A70384B4EF65F221A80374B18221A70364B02229A
:405F80001A704FF0402308221A70344B03221A70334B344A1278D2B21A70334B14221A80324B41F251221A800023FB7019237B6014E0FB785B00DAB22D4B1B78DBB203F0B6
:405FC0000103DBB21343DBB203F00303FB704FF4F07000F04DF97B68013B7B607B68002B02D0FB78032BE4D17B68002B02D10320FFF760FF1F4B4FF480721A801D4B07229D
:406000001A701D4B00221A701C4B48221A70194B00221A701A4B02221A701A4A194B1B78DBB243F01F03DBB213700837BD4680BD804000408240004084400040864000406C
:40604000884000408A4000408C4000408E40004090400040924000400043004000420040A146004008010049224200402042004025420040044000400640004008400040D5
:4060800001400040A243004080B483B000AF0B4B1B78FB710A4AFB7903F00703DBB21370084AFB791B09DBB21370074B44221A700C37BD465DF8047B704700BFCF01004915
:4060C0006E5800406F5800407658004080B586B000AF72B64F4B01221A70FFF72BFF4E4A4D4B1B78DBB243F00403DBB213700023FB7513E0FA7D13465B0013445B00474A4E
:4061000013443B613B691A683B699B889BB210461946FFF7B3FEFB7D0133FB75FB7D0C2BE8D90023FB751CE0FA7D13469B0013445B003B4A1344FB60FB681B68BB60FB6803
:406140005B687B60FB681A7A5B7A1B0213437B807B88B86879681A46FFF79EFEFB7D0133FB75FB7D032BDFD94FF090402D49FFF7A7FE2D4A2C4B1B78DBB243F00203DBB2E4
:4061800013702A4A294B1B78DBB243F00203DBB21370274A264B1B78DBB243F04003DBB21370244A234B1B78DBB243F01003DBB21370214821490A22FFF76EFE20482149FF
:4061C0000A22FFF769FE204820490A22FFF764FE1F4820490A22FFF75FFE1F481F490A22FFF75AFE1E481F490A22FFF755FE1E4A1D4B1B78DBB243F00803DBB21370FFF7B2
:4062000043FF1A480A490E22FFF746FE1837BD4680BD00BF00480040E846004094A90000E4A900009C0000480350014013500140A0430040C2430040F05100407C0C00481A
:4062400010510040880C004820510040940C004840510040A00C004850510040AC0C004860510040B80C004822430040B04300400230800803D000BF01380046FCD170473E
:40628000EFF3108072B6704780F31088704700BF80B483B000AF0346FB7101BE0C37BD465DF8047B704700BF80B582B000AF786008E00C4B1B681846FFF7DAFF7B68A3F59A
:4062C00000437B607B68B3F5004FF2D8064B1B687A6802FB03F31846FFF7CAFF0837BD4680BD00BF5C81FF1F5481FF1F80B582B000AF0346FB80FB88044A127802FB03F3C2
:406300001846FFF7B5FF0837BD4680BD5881FF1F80B483B000AF03460A46FB711346BB711D491D4B1B78DBB223F00303DAB2FB7903F00303DBB21343DBB20B70164A164B93
:406340001B78DBB263F07F03DBB21370124A124B1B78DBB203F07F03DBB213700E49BB795B01DBB203F06003DAB20B4B1B78DBB223F06003DBB21343DBB20B70064A064BEC
:406380001B78DBB243F01003DBB213700C37BD465DF8047B704700BF8343004080B400AF034B01221A70BD465DF8047B704700BF8443004080B584B000AF03463960FB7139
:4063C0000F4B1B68FB60FB791F2B02D90020FFF75FFFFB7903F01F0310339B00FA6813441B68BB60FB7903F01F0310339B00FA6813443A681A60BB6818461037BD4680BD56
:4064000008ED00E080B582B000AF03460A46FB711346BB71BB79072B02D90020FFF738FFFB791F2B02D90020FFF732FFFB7903F01F0303F1604303F56443BA795201D2B2B0
:406440001A700837BD4680BD80B500AF054B1B78002B04D100F008F8024B01221A7000F02FF880BD1E82FF1F80B500AF03200D49FFF7A0FF03200121FFF7C4FF0A4B0022E9
:406480001A700A4B72221A70094B20221A70094B06221A70084B47221A70084B00221A7080BD00BFFD6600001F82FF1F8E6400408A6400402B6500403B6500408A65004017
:4064C00080B582B000AFFFF7DBFE0346FB71114A104B1B78DBB243F02003DBB213700E4A0D4B1B78DBB243F01003DBB213700B4B08221A600A4A0A4B1B78DBB243F0100397
:40650000DBB21370FB791846FFF7BEFE0837BD4680BD00BF9E6400409A64004000E100E09A65004080B483B000AF1C4B08221A601B4B1B88BB801B4B1B887B801A4B1B78A8
:40654000DBB2002B03D1BA887B889A4218D0BB88164AD35CFB71BB880133BB80BB88FF2B01D90023BB800E4ABB8813800E4B1B78DBB2002B03D00C4B00221A7003E002E084
:406580000B4B1B78FB710B4B08221A60FB7918460C37BD465DF8047B704700BF80E100E02082FF1F2282FF1F2482FF1F8087FF1F4E64004000E100E080B483B000AF1E4B4C
:4065C00008221A601D4B1B889AB21D4B1B889BB29A420BD11B4B1B78DBB2002B03D04FF48073FB801EE00023FB801BE0134B1B889AB2134B1B889BB29A4208D2104B1B8875
:406600009AB20E4B1B889BB2D31AFB800AE00C4B1B889AB2094B1B889BB2D31A9BB203F58073FB80084B08221A60FB8818460C37BD465DF8047B704780E100E02082FF1F9F
:406640002282FF1F2482FF1F00E100E080B582B000AFFFF715FE0346FB71144A134B1B78DBB243F00103DBB21370104A0F4B1B78DBB223F00103DBB21370FB791846FFF719
:4066800003FE0B4B08221A600A4B00221A800A4B00221A80094B00221A70094B00221A70084B08221A600837BD4680BD9E64004080E100E02082FF1F2282FF1F2482FF1F7E
:4066C0002582FF1F00E100E080B483B000AF0346FB7100BF074B1B78DBB203F00403002BF8D1054AFB7913700C37BD465DF8047B704700BF6A6500404A65004080B483B0EF
:4067000000AF0023FB712B4B1B78BB71BB797B71BB7903F01E03002B0BD0BB7903F01E03DAB2254B1B78DBB21343DBB2DAB2224B1A70BB7903F02003002B30D01F4B1B783C
:406740007B711F4B1B889BB219461E4A7B7953540123FB71FB79002B21D01B4B1B78DBB2002B02D0194B01221A70154B1B889BB201339AB2124B1A80114B1B889BB2FF2B80
:4067800002D90F4B00221A800D4B1B889AB2104B1B889BB29A4202D10B4B01221A70BB7903F02003002BAED10C37BD465DF8047B704700BF6A6400401F82FF1F4E64004061
:4067C0002282FF1F8087FF1F2482FF1F2582FF1F2082FF1F80B500AF054B1B78002B04D100F008F8024B01221A7000F02FF880BD2882FF1F80B500AF02200D49FFF7DAFD73
:4068000002200021FFF7FEFD0A4B00221A700A4B72221A70094B20221A70094B06221A70084B47221A70084B00221A7080BD00BFF96900002982FF1F8B6400408B650040BF
:4068400024640040346400408564004080B582B000AFFFF715FD0346FB71124A114B1B78DBB243F02003DBB213700F4A0E4B1B78DBB243F01003DBB213700C4B04221A601F
:406880000B4A0B4B1B78DBB243F01003DBB2137000F0C6FBFB791846FFF7F6FC0837BD4680BD00BF9B6400409B65004000E100E09564004080B483B000AF1E4B04221A6076
:4068C0001D4B1B889AB21D4B1B889BB29A420BD11B4B1B78DBB2002B03D040F2DC53FB801EE00023FB801BE0134B1B889AB2134B1B889BB29A4208D2104B1B889AB20E4B46
:406900001B889BB2D31AFB800AE00C4B1B889AB2094B1B889BB2D31A9BB203F2DC53FB80084B04221A60FB8818460C37BD465DF8047B704780E100E02A82FF1F2C82FF1F36
:406940002E82FF1F00E100E080B582B000AFFFF797FC0346FB71144A134B1B78DBB243F00103DBB21370104A0F4B1B78DBB223F00103DBB21370FB791846FFF785FC0B4B77
:4069800004221A600A4B00221A800A4B00221A80094B00221A70094B00221A70084B04221A600837BD4680BD9864004080E100E02A82FF1F2C82FF1F2E82FF1F2F82FF1FF3
:4069C00000E100E080B483B000AF0346FB7100BF074B1B78DBB203F00403002BF8D1054AFB7913700C37BD465DF8047B704700BF656400404564004080B483B000AF0023EB
:406A0000FB712C4B1B78BB71BB797B71BB7903F01E03002B0BD0BB7903F01E03DAB2264B1B78DBB21343DBB2DAB2234B1A70BB7903F02003002B32D0204B1B787B71204BAE
:406A40001B889BB219461F4A7B7953540123FB71FB79002B23D01C4B1B78DBB2002B02D01A4B01221A70164B1B889BB201339AB2134B1A80124B1B889BB240F2DB529342C1
:406A800002D90F4B00221A800D4B1B889AB2104B1B889BB29A4202D10B4B01221A70BB7903F02003002BACD10C37BD465DF8047B704700BF6B6500402982FF1F486400405A
:406AC0002C82FF1F8088FF1F2E82FF1F2F82FF1F2A82FF1F80B500AF134B02221A70134B81221A70124B08221A70124B26221A70114B00221A70114B4FF400421A600F20F0
:406B00000521FFF77FFC0F200D49FFF753FC0D4B10221A700C4B00221A700C4B00221A700B4B00221A7080BDD6490040C8490040CA490040DB490040DC49004080E100E08E
:406B4000C56B00005C8EFF1F628EFF1F648EFF1F608EFF1F80B582B000AFFFF791FB0346FB710B4A0A4B1B78DBB243F00403DBB21370084A074B1B78DBB243F00403DBB2C7
:406B80001370FB791846FFF77FFB0837BD4680BDA5430040B543004080B500AF074B1B78002B04D1FFF796FF044B01221A70FFF7D1FF034B4FF400421A6080BD3282FF1FBF
:406BC00000E100E080B582B000AFA84B1B78FB71A74B1B78DBB203F04003DBB2002B00F0AC81FB7903F00103002B00F08381A04B1B78DBB2453B052B00F2788101A252F892
:406C000023F000BF1D6C0000456D0000ED6E0000ED6E00001D6C0000336E0000FB7923F02003FB71FB7903F00A03DBB2082B46D18F4B1B78DBB2452B3AD18E4B1B78DBB298
:406C4000002B0FD08C4A8D4B1B681B78DBB21370864B04221A708A4B01221A70844B46221A706EE0874B1B78DBB203F00203002B0FD0854B1B78DBB243F00A03DAB2824BA7
:406C80001A707B4B60221A70804B4FF400421A6057E07F4A7E4B1B78DBB243F01003DBB213707C4B10221A70704B04221A7048E06E4B00221A706E4B4A221A701AE1FB79D6
:406CC00003F00A03DBB20A2B37D16F4B1B78DBB263F05F03DAB26C4B1A706A4B1B78DBB203F00203002B19D0614B1B78DBB203F00803002B01D0092300E00A23DAB2624B55
:406D00001B78DBB21343DAB25F4B1A70584B60221A705E4B4FF400421A6012E05C4A5C4B1B78DBB243F01003DBB21370594B10221A704E4B04221A70DCE00020FFF7A8FAF4
:406D4000D8E0D7E0FB7903F00203002B42D14C4B1B78DAB2474B1B78DBB29A4214D2464A464B1B6846490978C9B20B441B78DBB213703E4B04221A70414B1B78DBB2013396
:406D8000DAB23F4B1A7053E03E4B1B78DBB203F00203002B0FD03C4B1B78DBB243F00A03DAB2394B1A70324B60221A70374B4FF400421A603CE0364A354B1B78DBB243F05B
:406DC0001003DBB21370334B10221A70274B04221A708FE02B4B1B78DBB203F00203002B0FD0294B1B78DBB263F06503DAB2264B1A701F4B60221A70244B4FF400421A6053
:406E000016E0234A224B1B78DBB243F01003DBB21370204B10221A70144B04221A701A4B1B78DBB263F06F03DAB2174B1A7061E060E0194B1B68194A1278D2B213440E4A8C
:406E40001278D2B21A70154B1B78DBB20133DAB2124B1A70114B1B78DAB2114B1B78DBB29A421FD2014B10221A703EE0D74900405C8EFF1F638EFF1FD8490040688EFF1F7D
:406E8000608EFF1F618EFF1F628EFF1F80E100E0D6490040D94900406C8EFF1F648EFF1F708EFF1F2C4B1B78DBB203F00203002B0FD02A4B1B78DBB243F00903DAB2274BFA
:406EC0001A70274B60221A70264B4FF400421A600BE0254A244B1B78DBB243F01003DBB21370224B00221A7004E003E00020FFF7CFF900BFFB7903F02003002B28D0184B4E
:406F00001B78DBB203F00803002B01D0012300E00223DAB2114B1B78DBB21343DAB20F4B1A70114A104B1B78DBB223F01003DBB213700B4B10221A700AE0094B1B78DBB2C4
:406F400003F01003DBB2002B02D1054B10221A700837BD4680BD00BF618EFF1F628EFF1F5C8EFF1F80E100E0D6490040D749004080B582B000AF786000F046F8786800F027
:406F800013F8072000F022F800F032F80837BD4680BD00BF80B500AF00F036F8014800F003F880BDFD5C000080B485B000AF7860054B1B68FB60FB6890337A681A60143786
:406FC000BD465DF8047B704708ED00E080B483B000AF0346FB71054AFB795B01DBB213700C37BD465DF8047B704700BF14E400E080B400AF034B4FF480121A60BD465DF8F4
:40700000047B704700E100E080B400AF034B4FF480121A60BD465DF8047B704780E100E080B400AF094A094B1B78DBB243F00403DBB21370064A064B1B78DBB243F004031B
:40704000DBB21370BD465DF8047B7047A2430040B243004080B500AF054B1B78002B04D100F008F8024B01221A7000F02FF880BD3382FF1F80B500AF00200D49FFF79AF95D
:4070800000200221FFF7BEF90A4B00221A700A4B72221A70094B20221A70094B06221A70084B47221A70084B00221A7080BD00BF757200003482FF1F8865004084640040F5
:4070C00023640040336400408264004080B582B000AFFFF7D5F80346FB71124A114B1B78DBB243F02003DBB213700F4A0E4B1B78DBB243F01003DBB213700C4B01221A60E4
:407100000B4A0B4B1B78DBB243F01003DBB2137000F012FAFB791846FFF7B6F80837BD4680BD00BF986500409464004000E100E09264004080B483B000AF1D4B01221A60F7
:407140001C4B1B78DAB21C4B1B78DBB29A420AD11A4B1B78DBB2002B02D00823FB711DE00023FB711AE0134B1B78DAB2124B1B78DBB29A4208D2104B1B78DAB20D4B1B7897
:40718000DBB2D31AFB7109E00B4B1B78DAB2094B1B78DBB2D31ADBB20833FB71084B01221A60FB7918460C37BD465DF8047B704780E100E03582FF1F3682FF1F3782FF1FA0
:4071C00000E100E080B582B000AFFFF759F80346FB71144A134B1B78DBB243F00103DBB21370104A0F4B1B78DBB223F00103DBB21370FB791846FFF747F80B4B01221A60A4
:407200000A4B00221A700A4B00221A70094B00221A70094B00221A70084B01221A600837BD4680BD9865004080E100E03582FF1F3682FF1F3782FF1F3882FF1F00E100E044
