:4000000000800020110000003D5D00003D5D000080B500AF024A034B1B68136005F0BCFEBC760040FA46004010B5054C237833B9044B13B10448AFF300800123237010BD24
:400040000082FF1F00000000B8A90000084B10B51BB108480849AFF300800848036803B910BD074B002BFBD0BDE81040184700BF00000000B8A900000482FF1F0881FF1F8D
:400080000000000090B583B000AF694B00221A8062B606F0BFFB06F0BFFD06F0F5F907F019F807F093F907F047FE624B002283F85920604B002283F85A205E4B002283F8B9
:4000C0005B205D4B002283F859205B4B002283F85A20594B002283F85B200023FB7108E0FB79564A1344012283F83320FB790133FB71FB790F2BF3D9052006F0F5F80D23B5
:40010000FB710EE0FB79A3F10D04FB799BB2184607F0A8FE03461A46494B1A55FB790133FB71FB790E2BEDD90F2007F09BFE03461A46404B83F85C20102007F093FE034672
:400140001A463C4B83F85920112007F08BFE03461A46384B83F85A20122007F083FE03461A46344B83F85B20132007F07BFE03461A46314B83F85C20142007F073FE034666
:400180001A462D4B83F85920152007F06BFE03461A46294B83F85A20162007F063FE03461A46254B83F85B20172007F05BFE03461A46244B1A701E2007F054FE03461A46D6
:4001C000214B5A701F2007F04DFE03461A461E4B9A70202007F046FE03461A461A4BDA701A2007F03FFE03461A46124B1A701C2007F038FE03461A460F4B1A700D4B0122EA
:400200005A700D4B01225A70104B00221A70094B032283F85C200C4B02229A700A4B0322DA70052006F060F80C37BD4690BD00BF2883FF1F5486FF1F5882FF1FD886FF1FF5
:400240003C85FF1F3E85FF1FD882FF1F5286FF1F80B582B000AF03460A46FB711346BB80FB79012B13D1BB880120194605F04AFB104B64221A70104B01221A700F4B012230
:400280005A700F4807F022FA07F0EAFA0FE0BB880220194605F036FB0A4B64221A700A4B01221A70094807F00DFC07F0BDFB0837BD4680BD5585FF1F2885FF1F5486FF1FB5
:4002C000493600000384FF1FC082FF1FBD36000080B582B000AF0023FB717BE10023FB71C04B1B78DBB2FF2B04D0BF4B1B78DBB2FF2B58D100BF03F085FA0346002BFAD0E2
:4003000000BFB84B1B78DAB2B64B93F85C30DBB21046194604F0ACFA0346002BF1D0322005F0E2FF00BFB04B1B78DAB2AE4B93F85C30DBB21046194604F09AFA0346002B64
:40034000F1D0322005F0D0FFA64B1B78DBB218461A2107F0F7FC0346002B04D101203C2105F0D0FA03E00120552105F0CBFA9E4B1B78DBB218461C2107F0E4FC0346002B69
:4003800004D102203C2105F0BDFA03E00220552105F0B8FA954B00221A70954B00221A700223FB7116E18F4B1B78DBB2184603F0DDF90346BB71BB790C2B7BD801A252F83A
:4003C00023F000BFF9030000B5040000B5040000B5040000B5040000B5040000010400003D040000670400007504000091040000830400009F0400007A4BFF221A7059E000
:40040000784B1B78DBB2184603F00AFB322005F06BFF744B1B78DAB2724B93F85C30DBB21046194604F024FA322005F05DFF704B00221A70FB790133FB713BE0694B1B784C
:40044000DAB2684B93F85C30DBB21046194604F00FFA322005F048FF654B00221A70FB790133FB7126E0624B0B221A70FB790133FB711FE05E4B0B221A70FB790133FB71F8
:4004800018E05B4B0C221A70FB790133FB7111E0574B0C221A70FB790133FB710AE0544B0B221A700120082105F02CFAFB790133FB7100BF4C4B1B78DBB2184603F056F9A4
:4004C0000346BB71BB790C2B00F2848001A252F823F000BF09050000D5050000D5050000D5050000D5050000D5050000110500004D050000770500008D050000B1050000EB
:40050000A3050000BF050000374BFF221A7061E0354B1B78DBB2184603F082FA322005F0E3FE314B1B78DAB22F4B93F85C30DBB21046194604F09CF9322005F0D5FE2B4BC5
:4005400000221A70FB790133FB7143E0264B1B78DAB2254B93F85C30DBB21046194604F087F9322005F0C0FE204B00221A70FB790133FB712EE01D4B0B221A700220082123
:4005800005F0C0F9FB790133FB7123E0174B0B221A700220082105F0B5F9FB790133FB7118E0124B0C221A70FB790133FB7111E00E4B0C221A70FB790133FB710AE00B4BE4
:4005C0000B221A700220082105F09CF9FB790133FB7100BFFB79012B7FF680AE0837BD4680BD00BF5486FF1F5882FF1F0384FF1F5585FF1F80B586B000AF06F07BF90346C1
:40060000052B40F2798206F075F903463B820A2005F06AFE06F06EF90346FB813A8AFB899A4240F06982924B1B78DBB2422B40F05B828F4B5B78DBB2422B40F055828C4B0F
:400640009B78DBB2422B40F04F828A4B00221A70874BDB78DBB2312B00F0DE81452B00F00482302B40F02C82814B0022DA70804B5B79DBB24E2B0AD17D4B1B79DBB203F0DB
:400680000F03DBB218461C21FFF7E2FD18E2784B9B7ADBB2462B7DD1774B9B7E5A1E774913469B0013440B4448339B78DBB203F00F03DBB23B72704B9B7E5A1E6F491346A9
:4006C0009B0013440B4449339B78DBB203F00F03DBB27B72684B9B7E5A1E684913469B0013440B444A339B78DBB203F00F03DBB2BB72614B9B7E5A1E604913469B00134482
:400700000B444B339B78DBB203F00F03DBB2FB72594B9B7E5A1E594913469B0013440B444C339B78DBB203F00F03DBB23B73534B1B78DBB203F00F03D9B24F4B9B7E07F184
:400740000802084611461A4603F054FF0346002B40F09A804A4B4D221A70494B55225A70474B58229A70464B4522DA70444B30221A713F4B1B79DAB2414B5A71404B312260
:400780009A713F4B2A22DA710823FB82394B01221A7095E1394B1B78DAB2384B93F85C30DBB21046194604F063F8364B1B78DBB2012B11D12E4B5B7ADBB23B732C4B1B7AAC
:4007C000DBB2FB722A4BDB79DBB2BB72284B9B79DBB27B7200233B722A4B1B78DBB2002B13D1234B9B7ADBB23B73214B5B7ADBB2FB721F4B1B7ADBB2BB721D4BDB79DBB20C
:400800007B721B4B9B79DBB23B721C4B1B78DBB203F00F03D9B2184B9B7E07F10802084611461A4603F0E6FE0346002B2CD1144B4D221A70124B55225A70114B58229A705F
:400840000F4B4522DA700E4B30221A71084B1B79DAB20B4B5A710A4B31229A71084B2A22DA710823FB82034B01221A7028E100BF8088FF1F2A83FF1FD886FF1F5486FF1F36
:400880006084FF1F3E85FF1F9D4B5B7CDBB27B709B4B5B7CDBB22C2B06D0994B5B7CDBB203F00F03DBB27B70954B1B7CDBB2BB70934B1B7CDBB22C2B06D0914B1B7CDBB284
:4008C00003F00F03DBB2BB708D4BDB7BDBB2FB708B4BDB7BDBB22C2B06D0894BDB7BDBB203F00F03DBB2FB70854B9B7BDBB23B71834B9B7BDBB22C2B06D0814B9B7BDBB24F
:4009000003F00F03DBB23B717D4B5B7BDBB27B717B4B5B7BDBB22C2B06D0794B5B7BDBB203F00F03DBB27B71754B1B7BDBB2BB71734B1B7BDBB22C2B06D0714B1B7BDBB26B
:4009400003F00F03DBB2BB716D4BDB7ADBB2FB716B4BDB7ADBB22C2B06D0694BDB7ADBB203F00F03DBB2FB71654B9B7CDBB27B827B8A312B02D102237B8201E001237B82B1
:40098000604B1B78DBB203F00F03D8B25E4B997E7B8ADBB23A4603F0EDF90346012B1BD10A2005F0A1FC574B1B78DBB2DBB203F00F03DBB243F01003DBB2DBB2184605F081
:4009C000A3FE504B06225A70504B08221A700120082104F097FF73E04D4B4D221A704C4B55225A704A4B58229A70494B4522DA70474B30221A71424B1B79DAB2444B5A7116
:400A0000434B32229A71424B2A22DA710823FB82404B01221A7053E00120372104F072FF384B1B78DBB21A46364B1B78DBB203F00F039A4206D1334B01225A70334B00224D
:400A40001A7011E0344B1B78DBB21A462C4B1B79DBB203F00F039A4206D12F4B01225A702A4B00221A702BE02AE0254B5B79DBB2313B032B23D801A252F823F08D0A000012
:400A80009D0A0000AD0A0000BD0A00001D4B01225A7001201C21FFF7DBFB10E0194B01225A7001200C21FFF7D3FB08E0154B01225A7001200C21FFF7CBFB00E000BF00BFA2
:400AC000144B1B78012B0FD10023BB8208E0BB8A0F4AD35C184605F095FFBB8A0133BB82BA8AFB8A9A42F2D305F04EFF05F0CEFD00233B820023FB811837BD4680BD00BF0D
:400B00008088FF1F5486FF1FD886FF1F5585FF1F6084FF1F2A83FF1F5882FF1FB0B58EB002AFDD4B1B78DBB2662B02F2808501A252F823F0D10C0000EB0C0000170D000040
:400B4000F30F0000A3100000CB120000971300002F360000F31300006D1500002F3600000F1A0000A91B000071260000F92B00001F2E00003D2F000027300000C930000036
:400B8000293500002F3600002F3600002F3600002F3600002F3600002F3600002F3600002F3600002F3600002F3600002F3600002F3600002F3600002F3600002F360000EC
:400BC0002F3600002F3600002F3600002F3600002F3600002F3600002F3600002F3600002F3600002F3600002F3600002F3600002F3600002F3600002F3600002F360000A5
:400C00002F3600002F3600002F3600002F3600002F3600002F3600002F3600002F3600002F3600002F3600002F3600002F3600002F3600002F3600002F3600002F36000064
:400C40002F3600002F3600002F3600002F3600002F3600002F3600002F3600002F3600002F3600002F3600002F3600002F3600002F3600002F3600002F3600002F36000024
:400C80002F3600002F3600002F3600002F3600002F3600002F3600002F3600002F3600002F3600002F3600002F3600002F3600002F3600002F3600002F3600002F360000E4
:400CC0002F3600000F3600002F3600002F360000724806F0FBFC06F0C3FD714B00221A706D4B01221A7002F0A2BC06F063FA0346082B0ED106F0FCFC06F0C2FD664B0222E0
:400D00001A700120632104F0FDFD06F09BFA02F08EBC02F08CBC06F04DFA0346082B40F06681604B1B78DBB2AA2B40F059815D4B9B79DBB2C32B40F053815A4BDB79DBB25A
:400D40003C2B40F04D81574BDB78DBB2592B1AD0592B02DC452B0ED042E15C2B03D07E2B00F036813CE10120492104F0CBFD4A4B03221A7034E10120722104F0C3FD464BEB
:400D80000F221A702CE10120392104F0BBFD464B4D221A70444B55225A70434B58229A70414B3222DA70414B1B78DAB23F4B93F85C30DBB21046194603F05AFD322005F08F
:400DC00093FA042387F82D30002387F82F3018E097F82D3097F82F2034490A449278D2B202F00F02D2B23032D1B22F4AD15497F82D30013387F82D3097F82F30013387F8A0
:400E00002F3097F82F300B2BE2D90C2387F82F3018E097F82D3097F82F2024490A449278D2B202F00F02D2B23032D1B21E4AD15497F82D30013387F82D3097F82F30013345
:400E400087F82F3097F82F30172BE2D9002387F82F3018E097F82D3097F82F2013490A44927ED2B202F00F02D2B23032D1B20E4AD15497F82D30013387F82D3097F82F30D5
:400E8000013387F82F3097F82F300B2BE2D90C2387F82F3025E000BF5585FF1F493600002885FF1F748EFF1F6084FF1F5486FF1F97F82D3097F82F20B2490A44927ED2B26D
:400EC00002F00F02D2B23032D1B2AF4AD15497F82D30013387F82D3097F82F30013387F82F3097F82F30172BE2D9002387F82F3019E097F82D3097F82F20A2490A4492F8FA
:400F00003220D2B202F00F02D2B23032D1B29E4AD15497F82D30013387F82D3097F82F30013387F82F3097F82F300B2BE1D90C2387F82F3019E097F82D3097F82F209149DE
:400F40000A4492F83220D2B202F00F02D2B23032D1B28D4AD15497F82D30013387F82D3097F82F30013387F82F3097F82F30172BE1D9854B2A2283F84B2005F005FD002359
:400F800087F82F300BE097F82F307F4AD35C184605F038FD97F82F30013387F82F3097F82F304B2BEFD9FA2005F09EF905F0A2FC0346012B09D901204A2104F0A3FC734B61
:400FC00000221A706F4B01225A7005F0DDFC07E001204A2104F096FC6C4B00221A7000BF642005F081F906F02DF902F020BB02F01EBB06F0DFF80346082B50D1644B1B7862
:40100000DBB2AA2B44D1624B9B79DBB2C32B3FD15F4BDB79DBB23C2B3AD15D4BDB78DBB25F2B09D05F2B02DC5E2B13D030E07E2B1ED0942B24D02BE00120122104F062FC26
:40104000544B00221A70544B08221A704F4B0B221A701DE00120122104F054FC4D4B01221A704A4B0B221A704B4B00221A700FE001204A2104F046FC444B00221A7007E046
:401080000120632104F03EFC404B01221A7000BF642005F029F906F0D5F802F0C8BA02F0C6BA06F087F80346082B40F00C81384B1B78DBB2AA2B40F0FF80354B9B79DBB22C
:4010C000C32B40F0F980324BDB79DBB23C2B40F0F3802F4BDB78DBB23B2B00F0E1803B2B04DC0F2B09D0102B47D0E5E0432B00F0A3807E2B00F0D880DEE0002387F82F303F
:401100000AE097F82F30254A13440022DA7697F82F30013387F82F3097F82F30072BF0D91F4B00221A701C4B01221A701D4B2C221A701D4B5B78DAB21C4B1A70174B01220F
:40114000DA761B4B00221A700120062104F0DAFB184B04221A80184B03221A80174B01221A8001230093012024210322042304F015FC064B0C221A709EE0002387F82F30A2
:4011800029E000BF5486FF1F6084FF1F5585FF1F748EFF1F0284FF1FD782FF1FD886FF1F3F85FF1FB582FF1FD882FF1F0684FF1F5582FF1FB286FF1FDC82FF1F0084FF1FFE
:4011C00097F82F30C24A13440022DA7697F82F30013387F82F3097F82F30072BF0D9BD4B00221A70BC4B01221A70BC4B2C221A70BB4B5B78DAB2BB4B1A70B54B0222DA7693
:40120000B94B00221A7001200D2104F07BFBB74B04221A80B64B03221A80B64B01221A800123009301204C210322042304F0B6FBB14B0C221A703FE0002387F82F300AE011
:4012400097F82F30A24A13440022DA7697F82F30013387F82F3097F82F30072BF0D99C4B0322DA76052387F82F300AE097F82F30974A13440922DA7697F82F30013387F854
:401280002F3097F82F30072BF0D90120072104F039FB9A4B02225A70974B06221A700BE0954B00221A7007E001204A2104F02AFB914B00221A7000BF642005F015F805F049
:4012C000C1FF02F0B4B902F0B2B9322005F00CF805F070FF0346082B1AD1894B1B78DBB2AA2B11D1864B9B79DBB2C32B0CD1844BDB79DBB23C2B07D1814BDB78DBB27E2B30
:4013000002D17D4B00221A7005F09CFF02F08FB97A4B1B78DBB2184602F028FA034687F82F3097F82F30072B06D1734B06221A70322004F0D9FF2CE097F82F30002B0ED195
:40134000322004F0D1FF6D4B1B78DAB207F11403104601211A46022302F00CFD19E097F82F300C2B04D101205521FEF771FF10E097F82F300B2B03D15F4B0D221A7008E057
:4013800097F82F300A2B04D15B4B0D221A7002F04EB902F04CB90A2004F0A6FF574B1B78DBB2184602F07EFA03461A46484B9A76474B9B7E002B1AD0142004F095FF4F4B37
:4013C0001B78DBB2184602F0D1F90346072B0ED14C4B00221A80494B04225A700120392104F090FA444B09221A7002F020B902F01EB9322004F078FF404B1B78DBB21846EB
:4014000002F0B4F903460A2B33D00B2B03D0062B5AD002F00CB9642004F066FF002387F82F3010E097F82F30294A13440022DA7197F82F30264A134400221A7497F82F302B
:40144000013387F82F3097F82F30082BEAD92B4B1B78DBB2184602F0E3FA0346012B07D1254B0D221A700120392104F04BFA7BE07AE0002387F82F3010E097F82F30144A97
:4014800013440022DA7197F82F30114A134400221A7497F82F30013387F82F3097F82F30082BEAD9154B1B78DBB2184602F0B8FA0346012B07D1104B0D221A7001203921D6
:4014C00004F020FA50E04FE0002387F82F302CE0D886FF1F3F85FF1FD782FF1FB582FF1FD882FF1F0684FF1F5582FF1FB286FF1FDC82FF1F0084FF1F5585FF1F5486FF1FCF
:40150000748EFF1F2883FF1F97F82F30454A13440022DA7197F82F30424A134400221A7497F82F30013387F82F3097F82F30082BEAD9002387F82F300AE097F82F30394AC0
:40154000134400229A7097F82F30013387F82F3097F82F30042BF0D9334B0D221A700120392104F0CFF900BF02F061B82F4B4D221A702E4B55225A702C4B58229A702B4B2C
:401580003022DA702A4B1B78012B42D1002387F82F303AE097F82F305B08DBB21A46214B134493F823301B0987F82E3097F82F3003F00103DBB2002B0CD197F82F305B0882
:4015C000DBB21A46174B134493F8233003F00F0387F82E3097F82F30043397F82E203032D1B2124AD15497F82E30092B08D997F82F30043397F82E203732D1B20B4AD154B3
:4016000097F82F30013387F82F3097F82F300F2BC0D9074B1B78002B4BD1002387F82F3043E000BFD886FF1F5585FF1F6084FF1F0284FF1F97F82F305B08DBB21A46B54B82
:40164000134493F823301B0987F82E3097F82F3003F00103DBB2002B0CD197F82F305B08DBB21A46AB4B134493F8233003F00F0387F82E3097F82F30043397F82E2030320B
:40168000D1B2A54AD15497F82E30092B08D997F82F30043397F82E203732D1B29E4AD15497F82F30013387F82F3097F82F300F2BC0D9984B9B7E013B984A134493F8593050
:4016C000DBB23033DAB2944B1A75954B1B78002B13D1944B1B79DAB28F4B5A75914BDB78DAB28D4B9A758F4B9B78DAB28A4BDA758C4B5B78DAB2884B1A76894B1B78012B6B
:401700000BD1854B30225A75834B30229A75824B3022DA75804B30221A76834B1B78DBB2002B59D17B4B9B7E5A1E7C4913469B0013440B444C339B78DBB203F00F03DBB2E8
:401740003033DAB2744B5A76724B9B7E5A1E734913469B0013440B444B339B78DBB203F00F03DBB23033DAB26B4B9A76694B9B7E5A1E6A4913469B0013440B444A339B78C0
:40178000DBB203F00F03DBB23033DAB2624BDA76604B9B7E5A1E614913469B0013440B4449339B78DBB203F00F03DBB23033DAB2594B1A77574B9B7E5A1E584913469B0004
:4017C00013440B4448339B78DBB203F00F03DBB23033DAB2504B5A77534B1B78DBB2012B4AD14C4B9B7E5A1E4C4913469B0013440B444B339B78DBB203F00F03DBB23033CC
:40180000DAB2454B5A76434B9B7E5A1E434913469B0013440B444A339B78DBB203F00F03DBB23033DAB23C4B9A763A4B9B7E5A1E3A4913469B0013440B4449339B78DBB2F3
:4018400003F00F03DBB23033DAB2334BDA76314B9B7E5A1E314913469B0013440B4448339B78DBB203F00F03DBB23033DAB22A4B1A77294B30225A77264BDB7E3033DAB206
:40188000254B9A77234B93F82220234BDA77214B93F82230092B06D81E4B93F822303033DAB21D4BDA771B4B93F821201A4B83F82020184B93F82130092B07D8154B93F8D5
:4018C00021303033DAB2144B83F82020114B93F82020114B83F821200E4B93F82030092B07D80C4B93F820303033DAB20A4B83F82120084BDA7F084B83F82220054BDB7F70
:40190000092B13D8034BDB7F3033DAB2024B83F822200BE0D886FF1F6084FF1F5486FF1F0284FF1F2C85FF1F3E85FF1F934B9A7F934B83F82320914B9B7F092B06D88F4BBD
:401940009B7F3033DAB28E4B83F823208B4B5A7F8B4B83F82420894B5B7F092B06D8874B5B7F3033DAB2864B83F82420834B1A7F834B83F82520814B1B7F092B06D87F4B61
:401980001B7F3033DAB27E4B83F82520002387F82F3012E097F82F30263397F82F20013276490A4492F843203032D1B2744AD15497F82F30013387F82F3097F82F30062BE9
:4019C000E8D96F4B312283F82D206D4B2A2283F82E2004F0D9FF002387F82F300BE097F82F30674AD35C184605F00CF897F82F30013387F82F3097F82F302E2BEFD94FF455
:401A0000AF7004F071FC05F017F801F010BE012004F028F80346012B40F08A800120332104F080F80346002B00F08280002387F82F300FE097F82F40012004F0F9F80346FB
:401A40001A464E4B234483F8232097F82F30013387F82F3097F82F30072BEBD9494B00221A70002387F82F3014E0464B197897F82F30424A134493F823300846194604F0BD
:401A800031F903461A463F4B1A7097F82F30013387F82F3097F82F30062BE6D9374B93F82A20384B1B789A4242D10120132103F029FF4FF4FA7004F017FC334B00221A70B7
:401AC000324B0A221A70324B02221A80314B03221A80314B01221A80304B1B78DBB20A2B06D10120132103F00DFF2D4B13221A702A4B1B78DBB2082B06D10120242103F0DA
:401B000001FF274B0C221A70244B1B78DBB2082B0ED0224B1B78DBB20A2B09D01F4B02221A7001200E2103F0EDFE1D4B0C221A7005F040FB0346082B1ED11A4B1B78DBB2BA
:401B4000AA2B12D1174B9B79DBB2C32B0DD1154BDB79DBB23C2B08D1124BDB78DBB23B2B03D10F4B00221A7000BF642004F0BCFB05F068FB01F05BBD01F059BDD886FF1F0E
:401B80006084FF1F2583FF1F3F85FF1F0684FF1FB286FF1FDC82FF1F0084FF1FD782FF1F5585FF1F748EFF1F05F004FB0346082B40F04C85A14B1B78DBB2AA2B40F0428587
:401BC0009E4B9B79DBB2C32B40F03C859B4BDB79DBB23C2B40F03685994B00221A70994B1B78DAB2984B1B78DBB29A4280F0BD80924BDB78DBB2092B32D8924B1B78DBB24C
:401C00000133DAB28F4B1A708E4B1B78DBB21A468A4BDB78D9B28D4B9954884BDB78DBB23033D9B28A4B1B889DB2864B1B78DBB29BB2884A128892B2013292B202FB03F3EF
:401C40009AB2854B1B889BB213449CB2814B1B889BB2DBB2009301202A46234603F09EFE764BDB78DBB20A2B3CD17C4B1B78DBB2012B0AD1734B1B78DBB2012B05D1734BDF
:401C80005B78DBB2002B00D12CE06E4B1B78DBB20133DAB26B4B1A706A4B1B78DBB21A466A4B002199546A4B1B889DB2654B1B78DBB29BB2674A128892B2013292B202FB24
:401CC00003F39AB2644B1B889BB213449CB2614B1B889BB2DBB20093012030212A46234603F05CFE554BDB78DBB2512B3DD1554B1B78DBB2002B38D0594B1B78DBB2002B1E
:401D000033D1504B1B78DBB20133DAB24D4B1A704C4B1B78DBB21A46524B1B78D9B24B4B9954504B1B78D9B2494B1B889DB2454B1B78DBB29BB2474A128892B2013292B28B
:401D400002FB03F39AB2444B1B889BB213449CB2404B1B889BB2DBB2009301202A46234603F01CFE3E4B01221A70344BDB78DBB20B2B40F0B980334B1B78DBB2002B77D119
:401D8000364B1B78DBB2013B072B00F2AD8001A252F823F0B51D0000C51D0000CD1D0000E31D0000F91D00000F1E0000E91E0000251E00000120052103F0A4FD2A4B042254
:401DC0001A703AE0284B00221A7036E00120002103F098FD244B00221A70244B01225A702BE00120002103F08DFD1F4B00221A701E4B01225A7020E00120002103F082FDDF
:401E0000194B00221A70194B01225A7015E00120002103F077FD144B00221A70134B01225A700AE00120002103F06CFD0E4B00221A700E4B01225A7000BF55E0748EFF1F66
:401E40002885FF1F3F85FF1F0684FF1F3086FF1FDC82FF1F0084FF1FB286FF1FD782FF1F5582FF1FB582FF1F5585FF1F5486FF1FA74B1B889DB2A74B1B78DBB29BB2A64AE1
:401E8000128892B2013292B202FB03F39AB2A34B1B889BB213449CB29F4B1B889BB2DBB20093012020212A46234603F077FD994B1B78DBB21A469A4B9B5CDAB2994B1B782C
:401EC000DBB29A4202D1984B00221A70914B1B78DBB21A46924B002199548E4B1B78DBB2013BDAB28B4B1A70904BDB78DBB20C2B40F0A8838E4B1B78DBB2013B072B00F209
:401F0000A18301A252F823F0291F00008F20000007210000B32100000D220000CB220000FD220000E5240000002387F82F300CE097F82F3007F130021344002203F82C2C75
:401F400097F82F30013387F82F3097F82F30072BEED9704B1B78DBB2002B00F097806D4B1B78DBB21A466E4B9B5CDBB22C2B00F08D80012387F82F3028E097F82F30684AFA
:401F8000D35CDBB22C2B0FD097F82F30013B97F82F2063498A5CD2B23032D2B207F130010B4403F82C2C0CE097F82F30013B97F82F205B498A5CD2B207F130010B4403F8EB
:401FC0002C2C97F82F30013387F82F30514B1B78DBB297F82F209A42CFD93B1D184606F093FAC7E90801534BDB7E012B09D1D7E908014FF00002504B06F072FA0346002B01
:402000001AD14C4BDB7E022B40D1D7E908014FF00002494B06F05AFA0346002B00D111E3D7E908014FF000024FF0000306F062FA0346002B00D105E3364B1B7887F82F30A9
:4020400015E097F82F30334A1278D2B2114697F82F208A1A013232498A5CD1B2354A13440A46DA7697F82F30013B87F82F3097F82F30002BE5D1314B05221A70304B0222E9
:402080005A700120072103F03DFCDBE2DAE20120052103F037FC002387F82F300BE097F82F30244A1344002283F8432097F82F30013387F82F3097F82F300A2BEFD9154B11
:4020C0001B7887F82F3016E097F82F30114A1278D2B2114697F82F208A1A013210498A5CD1B2144A13440A4683F8432097F82F30013B87F82F3097F82F30002BE4D10F4B41
:4021000004221A709EE2034B1B7887F82F3032E0DC82FF1F3F85FF1F0084FF1FB286FF1F3086FF1FB582FF1F5582FF1F748EFF1FD782FF1FD886FF1F000014405585FF1FCB
:402140005486FF1F97F82F30B74A1278D2B2114697F82F208A1A0132B4498A5CD2B23032D1B2B34A13440A4683F8592097F82F30013B87F82F3097F82F30002BE2D1AD4BAE
:4021800002221A700120052103F0BCFBA64B00221A70A94B04221A70A84B0A221A70A84B02221A80A74B03221A80A74B01221A8048E29D4B1B7887F82F3018E097F82F301C
:4021C000994A1278D2B2114697F82F208A1A013296498A5CD2B23032D1B2954A13440A4683F8642097F82F30013B87F82F3097F82F30002BE2D18F4B66221A7001203921F4
:4022000003F080FB914B10225A701BE2864B1B7887F82F3018E097F82F30834A1278D2B2114697F82F208A1A013280498A5CD2B23032D1B27E4A13440A4683F8712097F82A
:402240002F30013B87F82F3097F82F30002BE2D17F4B1A78764B93F875309A4223D17C4B5A78734B93F874309A421CD1784B9A786F4B93F873309A4215D1754BDA786C4B65
:4022800093F872309A420ED10120262103F03AFBC82004F029F80120462103F033FB654B10221A70CEE1634B00221A700120272103F028FB654B01225A70C82004F014F887
:4022C0000120002103F01EFBBCE1574B1B78DBB21A46564B9B5CDBB218461E2105F032FD544B00221A7001203C2103F00BFBC82003F0FAFF554B01225A70A3E14D4B122278
:402300001A700120582103F0FDFA524B1B78013B032B00F2B88001A252F823F02D23000073230000B9230000FF2300003F4B5B78DBB23033DAB2484B1A70474B1B78322B6F
:4023400008D0332B0BD0312B0ED1404B012283F859200DE03D4B012283F85A2008E03B4B012283F85B2003E03C4B00221A7000BF89E02E4B5B78DBB23033DAB2364B5A700A
:40238000354B5B78322B08D0332B0BD0312B0ED12E4B022283F859200DE02C4B022283F85A2008E0294B022283F85B2003E02C4B00221A7000BF66E01C4B5B78DBB2303368
:4023C000DAB2254B9A70244B9B78322B08D0332B0BD0312B0ED11D4B032283F859200DE01A4B032283F85A2008E0184B032283F85B2003E01B4B00221A7000BF43E00B4B2C
:402400005B78DBB23033DAB2134BDA70124BDB78322B29D0332B2CD0312B2FD10B4B042283F859202EE000BF3F85FF1F3086FF1FD886FF1F5585FF1FD782FF1F0684FF1F63
:40244000B286FF1FDC82FF1F0084FF1F5486FF1F4481FF1F7D87FF1FBC82FF1F4881FF1F4981FF1F4A81FF1F794B042283F85A2008E0774B042283F85B2003E0754B00226D
:402480001A7000BF00BF744B1A78012300930120114607222C2303F081FA6F4B5A7801230093012011460E222C2303F077FA6A4B9A78012300930120114613222C2303F0A3
:4024C0006DFA654BDA78012300930120114619222C2303F063FA5E4B01225A70C82003F003FFAFE0012387F82F3009E097F82F305A4A0021D15497F82F30013387F82F30A5
:4025000097F82F30042BF1D9544B04221A70544B1B7887F82F3015E097F82F30504A1278D2B2114697F82F208A1A01324D498A5CD2B23032D1B2494AD15497F82F30013BF7
:4025400087F82F3097F82F30002BE5D1434B5B78DBB22F2B17D9414B9B78DBB22F2B12D83E4BDB78DBB22F2B0DD83C4B1B79DBB22F2B08D8394B30229A70384B3022DA707D
:40258000364B30221A71354B5B78DBB22F2B14D9324B9B78DBB22F2B0FD9304BDB78DBB22F2B0AD82D4B1B79DBB22F2B05D82B4B3022DA70294B30221A71284B5B78DBB29A
:4025C0002F2B11D9254B9B78DBB22F2B0CD9234BDB78DBB22F2B07D9204B1B79DBB22F2B02D81E4B30221A71082387F82F3011E097F82F30083B194AD35CDAB297F82F3083
:402600009BB21046194605F09DFB97F82F30013387F82F3097F82F300C2BE9D9124B0C221A70124B02221A7001200E2103F06AF9C82003F059FE0A4B00221A70044B0122B9
:402640005A7000BF04F0FEFD00F0F1BF00F0EFBF5486FF1F4B81FF1FBC82FF1F2C85FF1F3F85FF1F3086FF1F5585FF1FD782FF1F9F4B4D221A709E4B55225A709C4B582204
:402680009A709B4B3122DA70994B31221A71994B5B7E013B984A134493F85930DBB23033DAB2934B5A71934B5B7D3033DAB2904B9A71904B1B7D3033DAB28D4BDA718D4B78
:4026C000DB7C3033DAB28A4B1A72894B2C225A72884B9B7C3033DAB2854B9A72854B5B7C3033DAB2824BDA72824B1B7C3033DAB27F4B1A73814B5B78DBB2072B2AD17D4B16
:402700009B7B3033DAB27A4B5A737A4B5B7B3033DAB2774B9A73774B1B7B3033DAB2744BDA73744BDB7A3033DAB2714B1A74714B9B7A3033DAB26E4B5A746E4B5B7A3033D1
:40274000DAB26B4B9A746B4B1B7A3033DAB2684BDA7429E0674B5B7B3033DAB2644B5A73644B1B7B3033DAB2614B9A73614BDB7A3033DAB25E4BDA735E4B9B7A3033DAB252
:402780005B4B1A745B4B5B7A3033DAB2584B5A74584B1B7A3033DAB2554B9A74554BDB793033DAB2524BDA74554B1B78DBB2002B1DD1504B9B793033DAB24D4B1A754D4B31
:4027C0005B793033DAB24A4B5A754A4B1B793033DAB2474B9A75474BDB783033DAB2444BDA75444B9B783033DAB2414B1A76444B1B78DBB2012B1AD13E4B5B793033DAB288
:402800003B4B1A753B4B1B793033DAB2384B5A75384BDB783033DAB2354B9A75354B9B783033DAB2324BDA75314B30221A76354B1B79DAB22E4B5A76324BDB78DAB22C4B6C
:402840009A76304B9B78DAB2294BDA762D4B5B78DAB2274B1A772C4B1B78012B43D1002387F82F303AE097F82F305B08DBB21A46204B134493F823301B0987F82E3097F8BD
:402880002F3003F00103DBB2002B0CD197F82F305B08DBB21A46174B134493F8233003F00F0387F82E3097F82F301D3397F82E203032D1B20E4AD15497F82E30092B08D9F7
:4028C00097F82F301D3397F82E203732D1B2084AD15497F82F30013387F82F3097F82F300F2BC0D951E0002387F82F3049E000BF6084FF1FD886FF1F5486FF1FD882FF1F91
:402900003E85FF1F2C85FF1F0284FF1F97F82F305B08DBB21A46AF4B134493F823301B0987F82E3097F82F3003F00103DBB2002B0CD197F82F305B08DBB21A46A54B1344D6
:4029400093F8233003F00F0387F82E3097F82F301D3397F82E203032D1B29F4AD15497F82E30092B08D997F82F301D3397F82E203732D1B2984AD15497F82F30013387F8D8
:402980002F3097F82F300F2BC0D9944B1B8801339AB2924B1A80914B1B88914AA2FB03239B099BB2DBB23033DAB28E4B1A718B4B1B888B4AA2FB031292094FF47A7101FBCB
:4029C00002F29B1A9BB2884AA2FB03235B099BB2DBB23033DAB2834BDA70804B1B88804AA2FB031292094FF47A7101FB02F29B1A9BB27D4AA2FB03125209642101FB02F219
:402A00009B1A9BB2794AA2FB0323DB089BB2DBB23033DAB2734B9A70704B1B88704AA2FB031292094FF47A7101FB02F29B1A9BB26D4AA2FB03125209642101FB02F29B1A27
:402A40009AB26A4BA3FB0213D9080B469B000B445B00D31A9BB2DBB23033DAB2614B5A70012387F82F300EE097F82F302C3397F82F205C498A5CD1B2574AD15497F82F3022
:402A8000013387F82F3097F82F30072BECD9012387F82F3010E097F82F30524AD35CDAB297F82F309BB21046194605F04BF997F82F30013387F82F3097F82F30042BEAD9DF
:402AC000002387F82F3012E097F82F30343397F82F2001323F490A4492F843203032D1B23D4AD15497F82F30013387F82F3097F82F30062BE8D9384B2A2283F83B2003F0B1
:402B000043FF002387F82F300BE097F82F30324AD35C184603F076FF97F82F30013387F82F3097F82F303B2BEFD903F02DFF4FF4967003F0D9FB03F07FFF2D4B00221A7028
:402B4000244B5B7E5A1E2B4913469B0013440B4448339B78DBB23B731E4B5B7E5A1E254913469B0013440B4449339B78DBB27B73184B5B7E5A1E1F4913469B0013440B443C
:402B80004A339B78DBB2BB73124B5B7E5A1E194913469B0013440B444B339B78DBB2FB730C4B5B7E5A1E134913469B0013440B444C339B78DBB23B740E4B1B78D9B2054B61
:402BC0005B7E07F10C02084611461A4601F012FD00F02DBDD886FF1F6084FF1FBA82FF1FD34D62103485FF1F1F85EB51CDCCCCCC5286FF1F5486FF1F04F0DCFA0346082B91
:402C000040F00B81AF4B1B78DBB2AA2B40F0FE80AC4B9B79DBB2C32B40F0F880A94BDB79DBB23C2B40F0F280A74B1B78DAB2A74B1B78DBB29A426CD2A24BDB78DBB2092BF1
:402C400033D8A14B1B78DBB201339E4AD278D2B23032D1B29E4A13440A4683F864209D4B1B889DB2984B1B78DBB29BB29A4A128892B2013292B202FB03F39AB2974B1B88B9
:402C80009BB213449CB2944B1B889BB2DBB2009301202A212A46234602F080FE8A4B1B78DBB20133DAB2884B1A70864BDB78DBB20A2B2ED1844B1B78DBB20133844A13443F
:402CC000302283F86420834B1B889DB27E4B1B78DBB29BB2804A128892B2013292B202FB03F39AB27D4B1B889BB213449CB27A4B1B889BB2DBB2009301202A212A462346B8
:402D000002F04CFE704B1B78DBB20133DAB26E4B1A706C4BDB78DBB20B2B2ED16B4B1B78DBB2002B03D16E4B00221A7025E0664B1B78DBB2013BDAB2634B1A70654B1B884A
:402D40009DB2614B1B78DBB29BB2634A128892B2013292B202FB03F39AB2604B1B889BB213449CB25C4B1B889BB2DBB20093012020212A46234602F011FE524BDB78DBB2FA
:402D80000C2B43D1504B1B78DBB2002B3ED04E4B1B78DAB24E4B83F86420002387F82E304B4B93F86430042B2DD1012387F82F3015E097F82F30464A134493F8642097F838
:402DC0002F304849CB5C9A4204D197F82E30013387F82E3097F82F30013387F82F3097F82F30042BE5D997F82E30042B07D13C4B0F221A7001205D2102F084FD06E0384B81
:402E000000221A7002E0364B00221A70642003F06BFA04F017FA00F00ABC00F008BC04F0C9F90346082B40F08880264B1B78DBB2AA2B40F08280234B9B79DBB2C32B7CD140
:402E4000204BDB79DBB23C2B77D11E4BDB78DBB2B92B04D0BA2B4BD07E2B66D0E7E3224B4D221A70204B55225A701F4B58229A701D4B3322DA701C4B2A221A7103F084FDF4
:402E8000002387F82F300BE097F82F30164AD35C184603F0B7FD97F82F30013387F82F3097F82F30042BEFD9962003F01DFA0120002102F027FD0A4B00221A700B4B01222D
:402EC0005A703AE0748EFF1F3F85FF1F0684FF1FD886FF1FDC82FF1F0084FF1FB286FF1F5585FF1F2881FF1F6084FF1F5486FF1F01202F2102F006FDA94B05221A70A94B9C
:402F000000221A70A84B2C221A70A84B04221A70A74B04221A80A74B03221A80A64B01221A80A64B0C221A7007E001204A2102F0E9FCA24B00221A7000BF78E304F03AF999
:402F40000346082B6ED19E4B1B78DBB2AA2B63D19B4B9B79DBB2C32B5ED1994BDB79DBB23C2B59D1964BDB78DBB2802B13D0802B04DC7E2B48D07F2B05D04DE0812B27D0A0
:402F8000C22B2DD048E00120582102F0BBFC8B4B12221A7040E00120642102F0B3FC804B06221A707F4B00221A707F4B2C221A707E4B01221A707E4B04221A807D4B032240
:402FC0001A807D4B01221A807C4B0C221A7023E07A4B11221A7001206D2102F093FC1BE001206E2102F08EFC714B04221A80714B03221A80704B01221A80704B0B221A7076
:40300000674B0A221A7007E001204A2102F07AFC6A4B00221A7000BF642003F065F904F011F904E303E304F0C5F80346082B4AD1634B1B78DBB2AA2B3FD1614B9B79DBB245
:40304000C32B3AD15E4BDB79DBB23C2B35D15C4BDB78DBB28F2B04D0902B14D07E2B24D02BE00020172104F06DFE544B00221A7001203C2102F046FCC82003F035F9514BAB
:4030800001225A7019E00120172104F05BFE4B4B00221A7001203C2102F034FCC82003F023F9484B01225A7007E001204A2102F029FC424B00221A7000BF642003F014F925
:4030C00004F0C0F8B3E2B2E204F074F80346082B40F00A823A4B1B78DBB2AA2B40F0FE81374B9B79DBB2C32B40F0F881344BDB79DBB23C2B40F0F281314BDB78DBB27E3B01
:40310000042B00F2EB8101A252F823F04D320000CD31000021310000613100000D320000294B01221A700120062102F0EBFB1C4B07221A701B4B00221A701B4B2C221A70B7
:403140001A4B01221A701A4B04221A80194B03221A80194B01221A80184B0C221A70BDE1194B02221A700120062102F0CBFB0C4B07221A700B4B00221A700B4B2C221A70CF
:403180000A4B01221A700A4B04221A80094B03221A80094B01221A80084B0C221A709DE1D782FF1F3F85FF1FB582FF1F0684FF1FB286FF1FDC82FF1F0084FF1F5585FF1F89
:4031C000748EFF1F5486FF1F7D87FF1FC74B03221A700120062102F095FBC54B07221A70C44B00221A70C44B2C221A70C34B01221A70C34B04221A80C24B03221A80C24B43
:4032000001221A80C14B0C221A7067E1B74B04221A700120062102F075FBB54B07221A70B44B00221A70B44B2C221A70B34B01221A70B34B04221A80B24B03221A80B24B12
:4032400001221A80B14B0C221A7047E1B04B4D221A70AF4B55225A70AD4B58229A70AC4B3422DA70042387F82E30002387F82F303CE097F82F30A74A134493F85930DBB27B
:40328000013B032B22D801A252F823F09D320000A9320000B5320000C132000097F82E309B4A3121D15417E097F82E30984A3221D15411E097F82E30954A3321D1540BE07E
:4032C00097F82E30924A3421D15405E097F82E308F4A3021D15400BF97F82E30013387F82E3097F82F30013387F82F3097F82F30022BBED9884B1B78002B26D1002387F8D1
:403300002E30042387F82F301BE097F82F30804AD35C312B0BD197F82F307D4A3021D15497F82E307B4A1344002283F8592097F82E30013387F82E3097F82F30013387F827
:403340002F3097F82F30062BDFD9744B1B78002B26D1002387F82E30042387F82F301BE097F82F306A4AD35C322B0BD197F82F30674A3021D15497F82E30664A134400226E
:4033800083F8592097F82E30013387F82E3097F82F30013387F82F3097F82F30062BDFD95F4B1B78002B26D1002387F82E30042387F82F301BE097F82F30554AD35C332BCB
:4033C0000BD197F82F30524A3021D15497F82E30504A1344002283F8592097F82E30013387F82E3097F82F30013387F82F3097F82F30062BDFD94B4B1B78002B26D10023BA
:4034000087F82E30042387F82F301BE097F82F303F4AD35C342B0BD197F82F303C4A3021D15497F82E303B4A1344002283F8592097F82E30013387F82E3097F82F300133E5
:4034400087F82F3097F82F30062BDFD9304B2A22DA7103F099FA002387F82F300BE097F82F302B4AD35C184603F0CCFA97F82F30013387F82F3097F82F30072BEFD9264B11
:4034800001221A70254B01221A70254B01221A70244B01221A701F4B93F85930DBB21846102104F04FFC1B4B93F85A30DBB21846112104F047FC174B93F85B30DBB21846FE
:4034C000122104F03FFC01204A2102F01BFA0F4B00221A700F4B01225A7000BF642002F003FF03F0AFFEA2E0A1E000BF7D87FF1FD782FF1F3F85FF1FB582FF1F0684FF1F79
:40350000B286FF1FDC82FF1F0084FF1F5585FF1F6084FF1F5486FF1F4881FF1F4981FF1F4A81FF1F4B81FF1F424B4D221A70414B55225A703F4B58229A703E4B3522DA70F8
:40354000002387F82F303AE097F82F305B08DBB21A46394B134493F823301B0987F82E3097F82F3003F00103DBB2002B0CD197F82F305B08DBB21A462F4B134493F82330D1
:4035800003F00F0387F82E3097F82F30043397F82E203032D1B2274AD15497F82E30092B08D997F82F30043397F82E203732D1B2204AD15497F82F30013387F82F3097F89E
:4035C0002F300F2BC0D91B4B2A221A7503F0DCF9002387F82F300BE097F82F30154AD35C184603F00FFA97F82F30013387F82F3097F82F30142BEFD90120002102F082F92A
:403600000E4B00221A700E4B01225A700FE00D4B1B78DBB2032B09D9084B00221A7004F067F804F02DF9074B00221A7000BF3037BD46B0BD6084FF1FD886FF1F5585FF1F52
:403640005486FF1F2885FF1F80B500AF04F04CF9184B1B78DBB2012B24D1174B1B78DBB2062B11D8144B1B78DBB20133DAB2124B1A70114B1B78DBB29BB214339BB2012086
:40368000194602F03FF914E00B4B00221A700A4B1B78DBB29BB214339BB20120194602F031F906E0044B1B78DBB20133DAB2024B1A7080BD5585FF1F2885FF1F80B500AFC9
:4036C00004F0D2F9184B1B78DBB2012B24D1174B1B78DBB2062B11D8144B1B78DBB20133DAB2124B1A70114B1B78DBB29BB214339BB20220194602F005F914E00B4B00226B
:403700001A700A4B1B78DBB29BB214339BB20220194602F0F7F806E0044B1B78DBB20133DAB2024B1A7080BD0384FF1FC082FF1F80B500AFFCF7A6FCFCF7CAFD03200021A2
:4037400002F006FE02F04AFEFDF7E8F902F046FEFCF750FFF6E700BF80B500AF04F0B6FA014B01221A7080BD7E87FF1F80B584B000AF0346FB7102F089FFFB79184602F044
:40378000C3FF1E4803F034FC04F05CFA1C4B00221A700A2002F0A8FD0BE0194B1B78012B07D103F037FC04F05DFA02F06FFF002320E002F021FF0346002BEED002F0D2FEC0
:4037C0000346FB73FB7B03F00F02FB799A420AD1FB7B1B09FB7302F059FF03F01BFC04F041FAFB7B06E002F051FF03F013FC04F039FA002318461037BD4680BD5937000083
:403800007E87FF1F80B582B000AF244BFF221A70234BFF221A70052002F066FD0020FFF7A5FF0346002B02D01D4B00221A700123FB711FE0052002F057FDFB791846FFF7CC
:4038400095FF0346002B12D0144B1B78DBB2FF2B03D1124AFB79137009E0114B1B78DBB2FF2B04D10E4AFB791370012312E0FB790133FB71FB790F2BDCD9084B1B78DBB2DB
:40388000FF2B06D0064B1B78DBB2FF2B01D0012300E0002318460837BD4680BD5486FF1F5882FF1F90B58BB000AF0346FB71594A07F108031068516803C3127A1A7002F01F
:4038C000E5FEFB7943F02003DBB2184602F01CFF514803F08DFB04F0B5F9504B00221A700BE04E4B1B78012B07D103F093FB04F0B9F902F0CBFE002388E002F07DFE0346E8
:40390000002BEED003F086FB04F0ACF902F02AFE03461A46FB7963F02F03DBB29A4274D102F0B4FE052002F0DFFC002387F827300EE097F8273007F12802134413F8203CE4
:40394000184602F0E1FE97F82730013387F8273097F82730082BECD92F4803F049FB04F071F92E4B00221A700BE02C4B1B78012B07D103F04FFB04F075F902F087FE0023E7
:4039800044E002F039FE0346132BEED103F042FB04F068F9002387F827300FE097F8274002F0E0FD03461A4607F12803234403F8142C97F82730013387F8273097F82730FE
:4039C000122BEBD902F062FE3B7DBA2B1BD197F825308D2B17D197F826308A2B13D197F82030B12B0FD197F82230B22B05D0B32B05D0B12B05D1012308E0022306E0032319
:403A000004E0002302E0002300E0002318462C37BD4690BDC0A90000593700007E87FF1F80B584B000AF0346FB7102F02FFEFB7943F04003DBB2184602F066FE4FF49670EA
:403A400002F052FCAB4B5B78DBB2072B00F0BC8002F0D2FD0346212B40F0B680A64B1B78DBB2FF2B40F0AE80A34B9B78DBB2F82B40F0A880A04B93F82030DBB2F02B40F056
:403A8000A1809E4B1B78DBB2FA799A424CD19A4B5B7ADBB203F00F03DBB20133DAB2984B5A760023FB730FE0FB7BFA7B0C3292498A5CD2B202F00F02D1B2914A13440A462E
:403AC0009A70FB7B0133FB73FB7B032BECD90023FB730FE0FB7BFA7B113287498A5CD2B202F00F02D1B2864A13440A461A74FB7B0133FB73FB7B052BECD90023FB730FE0C5
:403B0000FB7BFA7B18327C498A5CD2B202F00F02D1B27B4A13440A46DA71FB7B0133FB73FB7B052BECD94BE0734B5B7ADBB203F00F03DBB20133DAB2724B5A760023FB73A6
:403B40000FE0FB7BFA7B0C326B498A5CD2B202F00F02D1B26B4A13440A469A70FB7B0133FB73FB7B032BECD90023FB730FE0FB7BFA7B113260498A5CD2B202F00F02D1B25B
:403B8000604A13440A461A74FB7B0133FB73FB7B052BECD90023FB730FE0FB7BFA7B183255498A5CD2B202F00F02D1B2554A13440A46DA71FB7B0133FB73FB7B052BECD94C
:403BC0000123CFE00023CDE04A4B5B78DBB2072B40F0C78002F010FD0346272B40F0C180454B1B78DBB2FF2B40F0B980424B9B78DBB2F82B40F0B3803F4B93F82630DBB28B
:403C0000F02B40F0AC803D4B1B78DBB2FA799A424CD1394B5B7ADBB203F00F03DBB20133DAB2374B5A760023FB730FE0FB7BFA7B0C3231498A5CD2B202F00F02D1B2304AE2
:403C400013440A469A70FB7B0133FB73FB7B052BECD90023FB730FE0FB7BFA7B133226498A5CD2B202F00F02D1B2254A13440A461A74FB7B0133FB73FB7B072BECD90023B5
:403C8000FB730FE0FB7BFA7B1C321B498A5CD2B202F00F02D1B21A4A13440A46DA71FB7B0133FB73FB7B072BECD956E0124B5B7ADBB203F00F03DBB20133DAB2114B5A76CC
:403CC0000023FB730FE0FB7BFA7B0C320A498A5CD2B202F00F02D1B20A4A13440A469A70FB7B0133FB73FB7B052BECD90023FB731AE000BFD882FF1F8087FF1F5486FF1F71
:403D0000D886FF1F5885FF1FFB7BFA7B133217498A5CD2B202F00F02D1B2154A13440A461A74FB7B0133FB73FB7B072BECD90023FB730FE0FB7BFA7B1C320C498A5CD2B2FB
:403D400002F00F02D1B20A4A13440A46DA71FB7B0133FB73FB7B072BECD9012302E0002300E0002318461037BD4680BD8087FF1F5885FF1F80B588B000AF3A601A46034662
:403D8000FB710B46BB7113467B7107F1080300221A60043300221A60043300221A60043300221A60043300221A8002330423BB777B79032B01D102237B71B34B5B78DBB2D9
:403DC000052B04D0B04B5B78DBB2062B04D17B79012B01D10323BB77AB4B5B78DBB2052B04D17B79022B01D10523BB77A64B5B78DBB2072B04D17B79012B01D10023BB77CD
:403E0000A14B5B78DBB2072B04D17B79022B01D10223BB7700233B7701237B770AE07B7F3A6813441B782C2B01D17B7F3B777B7F01337B777B7F072BF1D93B7F042B01D9DC
:403E40000023CFE3904B5B78DBB2072B00F00582FF233B72BB7F63F01F03DBB27B727B7963F00F03DBB2BB72F423FB72F8233B733B6801331B7863F01F03DBB27B733B6834
:403E800002331B7863F01F03DBB2BB733B6803331B7863F01F03DBB2FB733B6804331B7863F01F03DBB23B743B6805331B7863F01F03DBB27B743B6806331B7863F01F03CD
:403EC000DBB2BB74704B9B78DBB2022B40F0A5803B7F042B29D13B6802331B7863F01F03DBB27B733B6803331B7863F01F03DBB2BB733B6805331B7863F01F03DBB2FB7371
:403F00003B6806331B7863F01F03DBB23B743B6807331B7863F01F03DBB27B743B6808331B7863F01F03DBB2BB743B7F032B29D13B6801331B7863F01F03DBB27B733B687F
:403F400002331B7863F01F03DBB2BB733B6804331B7863F01F03DBB2FB733B6805331B7863F01F03DBB23B743B6806331B7863F01F03DBB27B743B6807331B7863F01F0308
:403F8000DBB2BB743B7F022B24D1E0237B733B6801331B7863F01F03DBB2BB733B6803331B7863F01F03DBB2FB733B6804331B7863F01F03DBB23B743B6805331B7863F023
:403FC0001F03DBB27B743B6806331B7863F01F03DBB2BB743B7F002B1FD1E0237B73E023BB733B6801331B7863F01F03DBB2FB733B6802331B7863F01F03DBB23B743B68F3
:4040000003331B7863F01F03DBB27B743B6804331B7863F01F03DBB2BB74FB23FB7400233B7500237B770FE03A7D7B7F07F120010B4413F8183C03F00F03DBB21344DBB2D6
:404040003B757B7F01337B777B7F0B2BECD93B7D5B42DBB2DBB203F00F03DBB263F01F03DBB2DBB23B75F0237B750D23FB77064B5B78DBB2052B2CD1FB23BB740023FB74D9
:4040800000237B7712E000BFD882FF1FFA7C7B7F07F120010B4413F8183C03F00F03DBB21344DBB2FB747B7F01337B777B7F0A2BECD9FB7C5B42DBB2DBB203F00F03DBB2D2
:4040C00063F01F03DBB2DBB2FB74F0233B750C23FB777B79012B40F0C080F6233B73BB79013BDBB2DBB263F01F03DBB2DBB27B73F823BB733B7F042B22D13B6802331B7870
:4041000063F01F03DBB2FB733B6803331B7863F01F03DBB23B743B6805331B7863F01F03DBB27B743B6806331B7863F01F03DBB2BB743B6807331B7863F01F03DBB2FB7412
:404140003B7F032B22D13B6801331B7863F01F03DBB2FB733B6802331B7863F01F03DBB23B743B6804331B7863F01F03DBB27B743B6805331B7863F01F03DBB2BB743B68CE
:4041800006331B7863F01F03DBB2FB743B7F022B1DD1E023FB733B6801331B7863F01F03DBB23B743B6803331B7863F01F03DBB27B743B6804331B7863F01F03DBB2BB7466
:4041C0003B6805331B7863F01F03DBB2FB743B7F002B18D1E023FB73E0233B743B6801331B7863F01F03DBB27B743B6802331B7863F01F03DBB2BB743B6803331B7863F039
:404200001F03DBB2FB74FB233B7500237B7500237B770FE07A7D7B7F07F120010B4413F8183C03F00F03DBB21344DBB27B757B7F01337B777B7F0C2BECD97B7D5B42DBB225
:40424000DBB203F00F03DBB263F01F03DBB2DBB27B75F023BB750E23FB77A24B5B78DBB2072B40F06481FF233B72BB7F63F01F03DBB27B727B7963F00F03DBB2BB72F42304
:40428000FB72F8233B733B6801331B7863F01F03DBB27B733B6802331B7863F01F03DBB2BB733B6803331B7863F01F03DBB2FB733B6804331B7863F01F03DBB23B743B6836
:4042C00005331B7863F01F03DBB27B743B6806331B7863F01F03DBB2BB743B6807331B7863F01F03DBB2FB74E0233B75FB237B750023BB7500237B770FE0BA7D7B7F07F140
:4043000020010B4413F8183C03F00F03DBB21344DBB2BB757B7F01337B777B7F0D2BECD9BB7D5B42DBB2DBB203F00F03DBB263F01F03DBB2DBB2BB75F023FB750F23FB778A
:404340007B79012B40F0F380F6233B73BB79013BDBB2DBB263F01F03DBB2DBB27B73F823BB733B7F042B2DD13B6801331B7863F01F03DBB2FB733B6802331B7863F01F03C2
:40438000DBB23B743B6803331B7863F01F03DBB27B743B6805331B7863F01F03DBB2BB743B6806331B7863F01F03DBB2FB743B6807331B7863F01F03DBB23B75E0237B75D0
:4043C000E023BB753B7F032B2DD1E023FB733B6801331B7863F01F03DBB23B743B6802331B7863F01F03DBB27B743B6804331B7863F01F03DBB2BB743B6805331B7863F05D
:404400001F03DBB2FB743B6806331B7863F01F03DBB23B753B6807331B7863F01F03DBB27B75E023BB753B7F022B2DD1E023FB73E0233B743B6801331B7863F01F03DBB234
:404440007B743B6803331B7863F01F03DBB2BB743B6804331B7863F01F03DBB2FB743B6805331B7863F01F03DBB23B753B6806331B7863F01F03DBB27B753B6807331B78E1
:4044800063F01F03DBB2BB753B7F002B23D1E023FB73E0233B74E0237B743B6801331B7863F01F03DBB2BB743B6802331B7863F01F03DBB2FB743B6803331B7863F01F0384
:4044C000DBB23B753B6804331B7863F01F03DBB27B75E023BB75FB23FB7500233B7600237B7711E0D882FF1F3A7E7B7F07F120010B4413F8183C03F00F03DBB21344DBB21E
:404500003B767B7F01337B777B7F0F2BECD93B7E5B42DBB2DBB203F00F03DBB263F01F03DBB2DBB23B76F0237B761123FB7702F0ADF8FB7943F02003DBB2184602F0E4F8AB
:404540002A4802F055FD03F07DFB294B00221A700A2001F0C9FE0BE0254B1B78012B07D102F058FD03F07EFB02F090F8002339E002F042F80346002BEED002F04BFD03F032
:4045800071FB01F0EFFF03461A46FB7963F02F03DBB29A4225D102F079F80A2001F0A4FE00237B770BE07B7F07F12002134413F8183C184602F0A8F87B7F01337B777A7FBC
:4045C000FB7F9A42EFD9322001F08EFEFB791846FFF7CCF80346002B01D1002302E0012300E0002318462037BD4680BD593700007E87FF1F80B588B000AF03463960FB71BE
:404600001346BB7100233B7300237B730023BB730023FB7300233B7400237B740023BB740023FB7400233B7500237B750023BB750023FB7500233B7600237B760023BB7661
:40464000884B5B78DBB2072B56D0FF233B73E5237B73F423BB73F623FB73BB79013BDBB2DBB263F01F03DBB2DBB23B74F7237B740623BB7715E0BB7FBA7F063A39680A445A
:404680001278D2B202F00F02D2B262F01F02D2B2D2B207F120010B4403F8142CBB7F0133BB77BB7F092BE6D9FB23BB750023BB770FE0FA7DBB7F07F120010B4413F8143C74
:4046C00003F00F03DBB21344DBB2FB75BB7F0133BB77BB7F0A2BECD9FB7D5B42DBB2DBB203F00F03DBB263F01F03DBB2DBB2FB75F0233B760C23FB775A4B5B78DBB2072BA4
:4047000053D1FF233B73E3237B73F423BB73F623FB73BB79013BDBB2DBB263F01F03DBB2DBB23B74F7237B740623BB7710E0BB7FBA7F063A39680A44127862F01F02D2B286
:4047400007F120010B4403F8142CBB7F0133BB77BB7F0A2BEBD9E023FB75FB233B760023BB770FE07A7EBB7F07F120010B4413F8143C03F00F03DBB21344DBB27B76BB7FA7
:404780000133BB77BB7F0C2BECD97B7E5B42DBB2DBB203F00F03DBB263F01F03DBB2DBB27B76F023BB760E23FB7701F06FFFFB7943F02003DBB2184601F0A6FF2A4802F0A6
:4047C00017FC03F03FFA294B00221A700BE0274B1B78012B07D102F01DFC03F043FA01F055FF002339E001F007FF0346002BEED002F010FC03F036FA01F0B4FE03461A4614
:40480000FB7963F02F03DBB29A4225D101F03EFF0A2001F069FD0023BB770BE0BB7F07F12002134413F8143C184601F06DFFBB7F0133BB77BA7FFB7F9A42EFD9322001F036
:4048400053FDFB791846FEF791FF0346002B01D1002302E0012300E0002318462037BD4680BD00BFD882FF1F593700007E87FF1F80B584B000AF03460A46FB711346BB719E
:4048800001F004FFFB7943F05003DBB2184601F03BFFB04B00221A704FF4967001F024FD01F0AAFE0346002B01F02280AA4B1B78DBB2FA799A4240F01F84A84B5B78DBB2C8
:4048C000072B00F00C824FF4617001F00DFD01F093FE0346FB73FB7B222B06D0FB7B402B03D0FB7B5E2B40F0F5819D4B1B78DBB2FF2B40F0EA819A4B5B78DBB2F62B40F06B
:40490000E481974BDB78DBB2F92B40F0DE810023BB7316E00023FB730DE0BA7BF97B8E4813465B001344DB000B44034400229A70FB7B0133FB73FB7B172BEED9BB7B0133B0
:40494000BB73BB7B022BE5D90023FB7321E0FB7BFA7B043282498A5CD1B27F4A13440A469A70FB7B7C4A13449B78DBB2002B08D0FB7B794A13449B78DBB203F0F003E02B30
:4049800004D001F083FE002300F0B3BFFB7B0133FB73FB7B072BDAD90023FB7324E0FB7B0C33FA7B0D326E498A5CD1B26A4A13440A469A70FB7B0C33674A13449B78DBB2D9
:4049C000002B09D0FB7B0C33634A13449B78DBB203F0F003E02B04D001F058FE002300F088BFFB7B0133FB73FB7B072BD7D90023FB730DE0FB7BFA7B163259498A5CD1B2C8
:404A0000554A13440A4683F84A20FB7B0133FB73FB7B032BEED9BB79022B6BD10023FB7321E0FB7BFA7B22324D498A5CD1B24A4A13440A469A76FB7B474A13449B7EDBB20C
:404A4000002B08D0FB7B444A13449B7EDBB203F0F003E02B04D001F019FE002300F049BFFB7B0133FB73FB7B072BDAD90023FB7324E0FB7B0C33FA7B2B3239498A5CD1B2D0
:404A8000354A13440A469A76FB7B0C33324A13449B7EDBB2002B09D0FB7B0C332E4A13449B7EDBB203F0F003E02B04D001F0EEFD002300F01EBFFB7B0133FB73FB7B072B13
:404AC000D7D90023FB730DE0FB7BFA7B343224498A5CD1B2204A13440A4683F84F20FB7B0133FB73FB7B032BEED901F0CFFD022300F0FFBEBB79032B40F0E2800023FB73CF
:404B000021E0FB7BFA7B223215498A5CD1B2124A13440A469A76FB7B0F4A13449B7EDBB2002B08D0FB7B0C4A13449B7EDBB203F0F003E02B04D001F0A9FD002300F0D9BEBD
:404B4000FB7B0133FB73FB7B072BDAD90023FB732DE000BF7E87FF1F5486FF1FD882FF1F8087FF1FFB7B0C33FA7B2B32B3498A5CD1B2B34A13440A469A76FB7B0C33B04A5E
:404B800013449B7EDBB2002B09D0FB7B0C33AC4A13449B7EDBB203F0F003E02B04D001F075FD002300F0A5BEFB7B0133FB73FB7B072BD7D90023FB730DE0FB7BFA7B34326F
:404BC0009E498A5CD1B29E4A13440A4683F84F20FB7B0133FB73FB7B032BEED90023FB7324E0FB7BFA7B403294498A5CD1B2944A13440A4683F83220FB7B914A134493F8AC
:404C00003230DBB2002B09D0FB7B8D4A134493F83230DBB203F0F003E02B04D001F036FD002300F066BEFB7B0133FB73FB7B072BD7D90023FB7327E0FB7B0C33FA7B493296
:404C40007E498A5CD1B27E4A13440A4683F83220FB7B0C337A4A134493F83230DBB2002B0AD0FB7B0C33764A134493F83230DBB203F0F003E02B04D001F008FD002300F065
:404C800038BEFB7B0133FB73FB7B072BD4D90023FB730DE0FB7BFA7B523268498A5CD1B2674A13440A4683F85420FB7B0133FB73FB7B032BEED901F0E9FC032300F019BEFD
:404CC00001F0E4FC012300F014BE01F0DFFC002300F00FBE01F0DAFC002300F00ABE4FF4617001F001FB01F087FC0346FB73FB7B2E2B06D0FB7B582B03D0FB7B822B40F0BF
:404D0000F1814E4B1B78DBB2FF2B40F0E6814B4B5B78DBB2F62B40F0E081484BDB78DBB2F92B40F0DA810023BB7316E00023FB730DE0BA7BF97B424813465B001344DB00DF
:404D40000B44034400229A70FB7B0133FB73FB7B172BEED9BB7B0133BB73BB7B022BE5D90023FB7321E0FB7BFA7B043233498A5CD1B2334A13440A469A70FB7B304A134414
:404D80009B78DBB2002B08D0FB7B2D4A13449B78DBB203F0F003E02B04D001F077FC002300F0A7BDFB7B0133FB73FB7B0B2BDAD90023FB7324E0FB7B0C33FA7B11321F49EB
:404DC0008A5CD1B21E4A13440A469A70FB7B0C331B4A13449B78DBB2002B09D0FB7B0C33174A13449B78DBB203F0F003E02B04D001F04CFC002300F07CBDFB7B0133FB73AD
:404E0000FB7B0B2BD7D90023FB730DE0FB7BFA7B1E320A498A5CD1B2094A13440A4683F84A20FB7B0133FB73FB7B042BEED9BB79022B70D10023FB7326E000BF8087FF1F21
:404E40005486FF1FFB7BFA7B2E32A9498A5CD1B2A84A13440A469A76FB7BA64A13449B7EDBB2002B08D0FB7BA24A13449B7EDBB203F0F003E02B04D001F008FC002300F059
:404E800038BDFB7B0133FB73FB7B0B2BDAD90023FB7324E0FB7B0C33FA7B3B3294498A5CD1B2944A13440A469A76FB7B0C33914A13449B7EDBB2002B09D0FB7B0C338D4A62
:404EC00013449B7EDBB203F0F003E02B04D001F0DDFB002300F00DBDFB7B0133FB73FB7B0B2BD7D90023FB730DE0FB7BFA7B48327F498A5CD1B27F4A13440A4683F84F2068
:404F0000FB7B0133FB73FB7B042BEED901F0BEFB022300F0EEBCBB79032B40F0D9800023FB7321E0FB7BFA7B2E3271498A5CD1B2704A13440A469A76FB7B6E4A13449B7E8A
:404F4000DBB2002B08D0FB7B6A4A13449B7EDBB203F0F003E02B04D001F098FB002300F0C8BCFB7B0133FB73FB7B0B2BDAD90023FB7324E0FB7B0C33FA7B3B325C498A5C6C
:404F8000D1B25C4A13440A469A76FB7B0C33594A13449B7EDBB2002B09D0FB7B0C33554A13449B7EDBB203F0F003E02B04D001F06DFB002300F09DBCFB7B0133FB73FB7B4F
:404FC0000B2BD7D90023FB730DE0FB7BFA7B483247498A5CD1B2474A13440A4683F84F20FB7B0133FB73FB7B042BEED90023FB7324E0FB7BFA7B58323D498A5CD1B23D4AC9
:4050000013440A4683F83220FB7B3A4A134493F83230DBB2002B09D0FB7B364A134493F83230DBB203F0F003E02B04D001F02EFB002300F05EBCFB7B0133FB73FB7B0B2B96
:40504000D7D90023FB7327E0FB7B0C33FA7B653227498A5CD1B2274A13440A4683F83220FB7B0C33234A134493F83230DBB2002B0AD0FB7B0C331F4A134493F83230DBB282
:4050800003F0F003E02B04D001F000FB002300F030BCFB7B0133FB73FB7B0B2BD4D90023FB730DE0FB7BFA7B723211498A5CD1B2104A13440A4683F85420FB7B0133FB73F7
:4050C000FB7B042BEED901F0E1FA032300F011BC01F0DCFA012300F00CBC01F0D7FA002300F007BC01F0D2FA002300F002BC00BF8087FF1F5486FF1FA24B5B78DBB2072B71
:4051000000F0FC814FF4617001F0EEF801F074FA0346FB73FB7B222B06D0FB7B402B03D0FB7B5E2B40F0E681974B1B78DBB2FF2B40F0DC81944B5B78DBB2F62B40F0D6817E
:40514000914BDB78DBB2F92B40F0D0810023BB7316E00023FB730DE0BA7BF97B8B4813465B001344DB000B44034400229A70FB7B0133FB73FB7B172BEED9BB7B0133BB73B6
:40518000BB7B022BE5D90023FB7320E0FB7BFA7B04327D498A5CD1B27C4A13440A469A70FB7B7A4A13449B78DBB2002B08D0FB7B764A13449B78DBB203F0F003E02B03D051
:4051C00001F064FA002394E3FB7B0133FB73FB7B072BDBD90023FB7323E0FB7B0C33FA7B0D3269498A5CD1B2684A13440A469A70FB7B0C33654A13449B78DBB2002B09D078
:40520000FB7B0C33614A13449B78DBB203F0F003E02B03D001F03AFA00236AE3FB7B0133FB73FB7B072BD8D90023FB730DE0FB7BFA7B163254498A5CD1B2544A13440A4651
:4052400083F84A20FB7B0133FB73FB7B032BEED9BB79022B68D10023FB7320E0FB7BFA7B223249498A5CD1B2484A13440A469A76FB7B464A13449B7EDBB2002B08D0FB7B9C
:40528000424A13449B7EDBB203F0F003E02B03D001F0FCF900232CE3FB7B0133FB73FB7B072BDBD90023FB7323E0FB7B0C33FA7B2B3235498A5CD1B2344A13440A469A76DE
:4052C000FB7B0C33314A13449B7EDBB2002B09D0FB7B0C332D4A13449B7EDBB203F0F003E02B03D001F0D2F9002302E3FB7B0133FB73FB7B072BD8D90023FB730DE0FB7B67
:40530000FA7B343220498A5CD1B2204A13440A4683F84F20FB7B0133FB73FB7B032BEED901F0B4F90223E4E2BB79032B40F0DA800023FB7320E0FB7BFA7B223212498A5CBC
:40534000D1B2124A13440A469A76FB7B0F4A13449B7EDBB2002B08D0FB7B0C4A13449B7EDBB203F0F003E02B03D001F08FF90023BFE2FB7B0133FB73FB7B072BDBD9002367
:40538000FB7329E0D882FF1F8087FF1F5882FF1FFB7B0C33FA7B2B32AE498A5CD1B2AE4A13440A469A76FB7B0C33AB4A13449B7EDBB2002B09D0FB7B0C33A74A13449B7E8A
:4053C000DBB203F0F003E02B03D001F05FF900238FE2FB7B0133FB73FB7B072BD8D90023FB730DE0FB7BFA7B34329A498A5CD1B2994A13440A4683F84F20FB7B0133FB7367
:40540000FB7B032BEED90023FB7323E0FB7BFA7B403290498A5CD1B28F4A13440A4683F83220FB7B8C4A134493F83230DBB2002B09D0FB7B884A134493F83230DBB203F054
:40544000F003E02B03D001F021F9002351E2FB7B0133FB73FB7B072BD8D90023FB7326E0FB7B0C33FA7B49327A498A5CD1B27A4A13440A4683F83220FB7B0C33764A13441D
:4054800093F83230DBB2002B0AD0FB7B0C33724A134493F83230DBB203F0F003E02B03D001F0F4F8002324E2FB7B0133FB73FB7B072BD5D90023FB730DE0FB7BFA7B523206
:4054C00064498A5CD1B2644A13440A4683F85420FB7B0133FB73FB7B032BEED901F0D6F8032306E201F0D2F8012302E201F0CEF80023FEE101F0CAF80023FAE14FF46170C1
:4055000000F0F2FE01F078F80346FB73FB7B2E2B06D0FB7B582B03D0FB7B822B40F0E4814C4B1B78DBB2FF2B40F0DA81494B5B78DBB2F62B40F0D481464BDB78DBB2F92BAF
:4055400040F0CE810023BB7316E00023FB730DE0BA7BF97B404813465B001344DB000B44034400229A70FB7B0133FB73FB7B172BEED9BB7B0133BB73BB7B022BE5D900239B
:40558000FB7320E0FB7BFA7B043232498A5CD1B2314A13440A469A70FB7B2F4A13449B78DBB2002B08D0FB7B2B4A13449B78DBB203F0F003E02B03D001F068F8002398E1D0
:4055C000FB7B0133FB73FB7B0B2BDBD90023FB7323E0FB7B0C33FA7B11321E498A5CD1B21D4A13440A469A70FB7B0C331A4A13449B78DBB2002B09D0FB7B0C33164A1344CA
:405600009B78DBB203F0F003E02B03D001F03EF800236EE1FB7B0133FB73FB7B0B2BD8D90023FB730DE0FB7BFA7B1E3209498A5CD1B2094A13440A4683F84A20FB7B0133FB
:40564000FB73FB7B042BEED9BB79022B6CD10023FB7324E08087FF1F5882FF1FFB7BFA7B2E32A6498A5CD1B2A54A13440A469A76FB7BA34A13449B7EDBB2002B08D0FB7BDE
:405680009F4A13449B7EDBB203F0F003E02B03D000F0FCFF00232CE1FB7B0133FB73FB7B0B2BDBD90023FB7323E0FB7B0C33FA7B3B3292498A5CD1B2914A13440A469A76AC
:4056C000FB7B0C338E4A13449B7EDBB2002B09D0FB7B0C338A4A13449B7EDBB203F0F003E02B03D000F0D2FF002302E1FB7B0133FB73FB7B0B2BD8D90023FB730DE0FB7BA2
:40570000FA7B48327D498A5CD1B27D4A13440A4683F84F20FB7B0133FB73FB7B042BEED900F0B4FF0223E4E0BB79032B40F0D4800023FB7320E0FB7BFA7B2E326F498A5C83
:40574000D1B26F4A13440A469A76FB7B6C4A13449B7EDBB2002B08D0FB7B694A13449B7EDBB203F0F003E02B03D000F08FFF0023BFE0FB7B0133FB73FB7B0B2BDBD9002345
:40578000FB7323E0FB7B0C33FA7B3B325B498A5CD1B25B4A13440A469A76FB7B0C33584A13449B7EDBB2002B09D0FB7B0C33544A13449B7EDBB203F0F003E02B03D000F01C
:4057C00065FF002395E0FB7B0133FB73FB7B0B2BD8D90023FB730DE0FB7BFA7B483247498A5CD1B2464A13440A4683F84F20FB7B0133FB73FB7B042BEED90023FB7323E023
:40580000FB7BFA7B58323D498A5CD1B23C4A13440A4683F83220FB7B394A134493F83230DBB2002B09D0FB7B354A134493F83230DBB203F0F003E02B03D000F027FF002379
:4058400057E0FB7B0133FB73FB7B0B2BD8D90023FB7326E0FB7B0C33FA7B653227498A5CD1B2274A13440A4683F83220FB7B0C33234A134493F83230DBB2002B0AD0FB7BF8
:405880000C331F4A134493F83230DBB203F0F003E02B03D000F0FAFE00232AE0FB7B0133FB73FB7B0B2BD5D90023FB730DE0FB7BFA7B723211498A5CD1B2114A13440A4652
:4058C00083F85420FB7B0133FB73FB7B042BEED900F0DCFE03230CE000F0D8FE012308E000F0D4FE002304E000F0D0FE002300E0002318461037BD4680BD00BF8087FF1F11
:405900005882FF1F80B582B000AF03460A46FB711346BB80FB79012B1ED1AA2001F0D0FC702001F0CDFCBB881B0A9BB2DBB2184601F0C6FCBB88DBB2184601F0C1FCCC2045
:4059400001F0BEFC332001F0BBFCC32001F0B8FC3C2001F0B5FC1DE0AA2001F0A7FD702001F0A4FDBB881B0A9BB2DBB2184601F09DFDBB88DBB2184601F098FDCC2001F0C1
:4059800095FD332001F092FDC32001F08FFD3C2001F08CFD0837BD4680BD00BFB0B588B000AF0446084611461A462346FB710346BB710B46BB8013467B80294B07F10C04CD
:4059C0001D4628686968AA68EB680FC42B8A23807A8813465B0013449B001B12DBB2BB737B88DBB21A46520013449B00DBB2FB73BA8813461B019B1A1B12DBB23B74BB887C
:405A0000DBB21A461201D31ADBB27B7497F830302333DBB2BB74BB797B760023FB7718E0FB79012B09D1FB7F07F12002134413F8143C184601F044FC08E0FB7F07F120027F
:405A4000134413F8143C184601F030FDFB7F0133FB77FB7F112BE3D92037BD46B0BD00BFCCA9000080B584B000AF0346FB71FB79012B29D1002001F0D3FD4FF4FA7000F086
:405A800055FC012001F0CCFD052000F04FFC01F0E1FD0346002B01D100233EE0412000F045FC01F0D7FD0346002B0CBF01230023DBB2FB73F02000F039FCFB7B002B01D085
:405AC00001232AE0002328E0002001F0D1FD4FF4FA7000F02BFC012001F0CAFD052000F025FC01F0E3FD0346002B01D1002314E0412000F01BFC01F0D9FD0346002B0CBFFF
:405B000001230023DBB2FB73F02000F00FFCFB7B002B01D0012300E0002318461037BD4680BD00BF80B584B000AF03460A46FB711346BB71FB79012B3BD10023FB7333E0E9
:405B4000002001F06DFD0A2000F0F0FBBA79FB7B42FA03F303F00103002B0CD0012001F05FFD0A2000F0E2FB01F074FD0346002B0ED1002358E0002001F052FD0A2000F0DD
:405B8000D5FB01F067FD0346002B01D000234BE0322000F0CBFB012001F042FD322000F0C5FBFB7B0133FB73FB7B072BC8D901233AE00023FB7333E0002001F059FD0A20FE
:405BC00000F0B4FBBA79FB7B42FA03F303F00103002B0CD0012001F04BFD0A2000F0A6FB01F064FD0346002B0ED100231CE0002001F03EFD0A2000F099FB01F057FD0346CC
:405C0000002B01D000230FE0322000F08FFB012001F02EFD322000F089FBFB7B0133FB73FB7B072BC8D9012318461037BD4680BD80B584B000AF0346FB710023BB73FB798B
:405C4000012B25D10023FB731DE0002001F0E8FC0E2000F06BFB012001F0E2FC072000F065FB01F0F7FC03461A46FB7B02FA03F3DAB2BB7B1343DBB2BB73642000F056FB07
:405C8000FB7B0133FB73FB7B072BDED9BB7B24E00023FB731DE0002001F0EAFC0E2000F045FB012001F0E4FC072000F03FFB01F0FDFC03461A46FB7B02FA03F3DAB2BB7B50
:405CC0001343DBB2BB73642000F030FBFB7B0133FB73FB7B072BDED9BB7B18461037BD4680BD00BF80B485B000AF03460A46FB711346BB71FA79BB795340FB710023FB73CA
:405D000012E0FB7903F00103002B07D0FB795B08DBB283F07303DB43FB7102E0FB795B08FB71FB7B0133FB73FB7B072BE9D9FB7918461437BD465DF8047B704780B400AFF8
:405D4000FEE700BF80B584B000AF7860104B1A687B6813441A460F4BD31AB3F5805F09DC0B4B1B68FB600A4B1A687B681344084A136007E002F0CCFB02460C2313604FF092
:405D8000FF33FB60FB6818461037BD4680BD00BF4C81FF1F508FFF1F80B586B000AF224B7B61224B3B61204B7B6135E03B691B68FB603B695B68BB603B699B683B60002336
:405DC0007B600CE0FB681A68BB681A60BB680433BB60FB680433FB607B6804337B607A683B689A42EED13B69DB683B6000237B6008E0BB6800221A60BB680433BB607B685C
:405E000004337B607A683B689A42F2D13B6910333B617B69013B7B617B69002BC6D102F07DFBFDF785FCFEE70100000018AC000080B582B000AF174B174A1A60174A174B68
:405E40001B6843F40073136000237B600FE07B68032B04D8124A7B6852F8233000E0114B11497A6841F822307B6801337B607B682F2BECD90D4B1B78DAB20D4B1A700D4B24
:405E8000094A1A6000F042F90B4B00221A600837BD4680BD0CED00E00004FA0514ED00E0000000003D5D00000080FF1FBC7600400481FF1F08ED00E00081FF1F80B582B094
:405EC00000AF78603960786800213A6802F057FB0837BD4680BD00BF80B584B000AFF860B9607A60F868B9687A6802F03DFB1037BD4680BD80B483B000AF0346FB71FEE736
:405F000080B487B000AF7860396000233B6100237B6127E07B699B007A6813441B68BB60BB68FB73BB6823F0FF03BB6014E03B695B003A6813441B781A46BB68134419461F
:405F40003B695B003A6813445B780B703B6901333B61FB7B013BFB73FB7B002BE7D17B6901337B617B69262BD4D91C37BD465DF8047B704780B582B000AF3D4B81221A805C
:405F80003C4B18221A703C4B81221A803B4B18221A703B4B4FF443721A803A4B18221A70394B40F217521A80384B18221A70384B4EF65F221A80374B18221A70364B02225A
:405FC0001A704FF0402308221A70344B03221A70334B344A1278D2B21A70334B14221A80324B41F251221A800023FB7019237B6014E0FB785B00DAB22D4B1B78DBB203F076
:406000000103DBB21343DBB203F00303FB704FF4F07000F04DF97B68013B7B607B68002B02D0FB78032BE4D17B68002B02D10320FFF760FF1F4B4FF480721A801D4B07225C
:406040001A701D4B00221A701C4B48221A70194B00221A701A4B02221A701A4A194B1B78DBB243F01F03DBB213700837BD4680BD804000408240004084400040864000402C
:40608000884000408A4000408C4000408E40004090400040924000400043004000420040A14600400801004922420040204200402542004004400040064000400840004095
:4060C00001400040A243004080B483B000AF0B4B1B78FB710A4AFB7903F00703DBB21370084AFB791B09DBB21370074B44221A700C37BD465DF8047B704700BFCF010049D5
:406100006E5800406F5800407658004080B586B000AF72B64F4B01221A70FFF72BFF4E4A4D4B1B78DBB243F00403DBB213700023FB7513E0FA7D13465B0013445B00474A0D
:4061400013443B613B691A683B699B889BB210461946FFF7B3FEFB7D0133FB75FB7D0C2BE8D90023FB751CE0FA7D13469B0013445B003B4A1344FB60FB681B68BB60FB68C3
:406180005B687B60FB681A7A5B7A1B0213437B807B88B86879681A46FFF79EFEFB7D0133FB75FB7D032BDFD94FF090402D49FFF7A7FE2D4A2C4B1B78DBB243F00203DBB2A4
:4061C00013702A4A294B1B78DBB243F00203DBB21370274A264B1B78DBB243F04003DBB21370244A234B1B78DBB243F01003DBB21370214821490A22FFF76EFE20482149BF
:406200000A22FFF769FE204820490A22FFF764FE1F4820490A22FFF75FFE1F481F490A22FFF75AFE1E481F490A22FFF755FE1E4A1D4B1B78DBB243F00803DBB21370FFF771
:4062400043FF1A480A490E22FFF746FE1837BD4680BD00BF00480040E846004014AA000064AA00009C0000480350014013500140A0430040C2430040F05100407C0C0048D8
:4062800010510040880C004820510040940C004840510040A00C004850510040AC0C004860510040B80C004822430040B04300400230800803D000BF01380046FCD17047FE
:4062C000EFF3108072B6704780F31088704700BF80B483B000AF0346FB7101BE0C37BD465DF8047B704700BF80B582B000AF786008E00C4B1B681846FFF7DAFF7B68A3F55A
:4063000000437B607B68B3F5004FF2D8064B1B687A6802FB03F31846FFF7CAFF0837BD4680BD00BF5C81FF1F5481FF1F80B582B000AF0346FB80FB88044A127802FB03F381
:406340001846FFF7B5FF0837BD4680BD5881FF1F80B483B000AF03460A46FB711346BB711D491D4B1B78DBB223F00303DAB2FB7903F00303DBB21343DBB20B70164A164B53
:406380001B78DBB263F07F03DBB21370124A124B1B78DBB203F07F03DBB213700E49BB795B01DBB203F06003DAB20B4B1B78DBB223F06003DBB21343DBB20B70064A064BAC
:4063C0001B78DBB243F01003DBB213700C37BD465DF8047B704700BF8343004080B400AF034B01221A70BD465DF8047B704700BF8443004080B584B000AF03463960FB71F9
:406400000F4B1B68FB60FB791F2B02D90020FFF75FFFFB7903F01F0310339B00FA6813441B68BB60FB7903F01F0310339B00FA6813443A681A60BB6818461037BD4680BD15
:4064400008ED00E080B582B000AF03460A46FB711346BB71BB79072B02D90020FFF738FFFB791F2B02D90020FFF732FFFB7903F01F0303F1604303F56443BA795201D2B270
:406480001A700837BD4680BD80B500AF054B1B78002B04D100F008F8024B01221A7000F02FF880BD1C82FF1F80B500AF03200D49FFF7A0FF03200121FFF7C4FF0A4B0022AB
:4064C0001A700A4B72221A70094B20221A70094B06221A70084B47221A70084B00221A7080BD00BF3D6700001D82FF1F8E6400408A6400402B6500403B6500408A65004098
:4065000080B582B000AFFFF7DBFE0346FB71114A104B1B78DBB243F02003DBB213700E4A0D4B1B78DBB243F01003DBB213700B4B08221A600A4A0A4B1B78DBB243F0100356
:40654000DBB21370FB791846FFF7BEFE0837BD4680BD00BF9E6400409A64004000E100E09A65004080B483B000AF1C4B08221A601B4B1B88BB801B4B1B887B801A4B1B7868
:40658000DBB2002B03D1BA887B889A4218D0BB88164AD35CFB71BB880133BB80BB88FF2B01D90023BB800E4ABB8813800E4B1B78DBB2002B03D00C4B00221A7003E002E044
:4065C0000B4B1B78FB710B4B08221A60FB7918460C37BD465DF8047B704700BF80E100E01E82FF1F2082FF1F2282FF1F8087FF1F4E64004000E100E080B483B000AF1E4B12
:4066000008221A601D4B1B889AB21D4B1B889BB29A420BD11B4B1B78DBB2002B03D04FF48073FB801EE00023FB801BE0134B1B889AB2134B1B889BB29A4208D2104B1B8834
:406640009AB20E4B1B889BB2D31AFB800AE00C4B1B889AB2094B1B889BB2D31A9BB203F58073FB80084B08221A60FB8818460C37BD465DF8047B704780E100E01E82FF1F61
:406680002082FF1F2282FF1F00E100E080B582B000AFFFF715FE0346FB71144A134B1B78DBB243F00103DBB21370104A0F4B1B78DBB223F00103DBB21370FB791846FFF7DD
:4066C00003FE0B4B08221A600A4B00221A800A4B00221A80094B00221A70094B00221A70084B08221A600837BD4680BD9E64004080E100E01E82FF1F2082FF1F2282FF1F44
:406700002382FF1F00E100E080B483B000AF0346FB7100BF074B1B78DBB203F00403002BF8D1054AFB7913700C37BD465DF8047B704700BF6A6500404A65004080B483B0B0
:4067400000AF0023FB712B4B1B78BB71BB797B71BB7903F01E03002B0BD0BB7903F01E03DAB2254B1B78DBB21343DBB2DAB2224B1A70BB7903F02003002B30D01F4B1B78FC
:406780007B711F4B1B889BB219461E4A7B7953540123FB71FB79002B21D01B4B1B78DBB2002B02D0194B01221A70154B1B889BB201339AB2124B1A80114B1B889BB2FF2B40
:4067C00002D90F4B00221A800D4B1B889AB2104B1B889BB29A4202D10B4B01221A70BB7903F02003002BAED10C37BD465DF8047B704700BF6A6400401D82FF1F4E64004023
:406800002082FF1F8087FF1F2282FF1F2382FF1F1E82FF1F80B500AF054B1B78002B04D100F008F8024B01221A7000F02FF880BD2682FF1F80B500AF02200D49FFF7DAFD3C
:4068400002200021FFF7FEFD0A4B00221A700A4B72221A70094B20221A70094B06221A70084B47221A70084B00221A7080BD00BF796A00002782FF1F8B6400408B65004000
:4068800024640040346400408564004080B582B000AFFFF715FD0346FB71124A114B1B78DBB243F02003DBB213700F4A0E4B1B78DBB243F01003DBB213700C4B04221A60DF
:4068C0000B4A0B4B1B78DBB243F01003DBB2137000F0E6FBFB791846FFF7F6FC0837BD4680BD00BF9B6400409B65004000E100E09564004080B483B000AF1E4B04221A6016
:406900001D4B1B889AB21D4B1B889BB29A420BD11B4B1B78DBB2002B03D040F2DC53FB801EE00023FB801BE0134B1B889AB2134B1B889BB29A4208D2104B1B889AB20E4B05
:406940001B889BB2D31AFB800AE00C4B1B889AB2094B1B889BB2D31A9BB203F2DC53FB80084B04221A60FB8818460C37BD465DF8047B704780E100E02882FF1F2A82FF1FFA
:406980002C82FF1F00E100E080B582B000AFFFF797FC0346FB71144A134B1B78DBB243F00103DBB21370104A0F4B1B78DBB223F00103DBB21370FB791846FFF785FC0B4B39
:4069C00004221A600A4B00221A800A4B00221A80094B00221A70094B00221A70084B04221A600837BD4680BD9864004080E100E02882FF1F2A82FF1F2C82FF1F2D82FF1FBB
:406A000000E100E080B483B000AF0346FB7100BF074B1B78DBB203F00403002BF8D1054AFB7913700C37BD465DF8047B704700BF656400404564004080B582B000AFFFF7D7
:406A40003FFC0346FB710B4A0A4B1B78DBB243F00103DBB21370074A064B1B78DBB223F00103DBB21370FB791846FFF72DFC0837BD4680BD9564004080B483B000AF00234A
:406A8000FB712C4B1B78BB71BB797B71BB7903F01E03002B0BD0BB7903F01E03DAB2264B1B78DBB21343DBB2DAB2234B1A70BB7903F02003002B32D0204B1B787B71204B2E
:406AC0001B889BB219461F4A7B7953540123FB71FB79002B23D01C4B1B78DBB2002B02D01A4B01221A70164B1B889BB201339AB2134B1A80124B1B889BB240F2DB52934241
:406B000002D90F4B00221A800D4B1B889AB2104B1B889BB29A4202D10B4B01221A70BB7903F02003002BACD10C37BD465DF8047B704700BF6B6500402782FF1F48640040DB
:406B40002A82FF1F8088FF1F2C82FF1F2D82FF1F2882FF1F80B500AF134B02221A70134B81221A70124B08221A70124B26221A70114B00221A70114B4FF400421A600F2077
:406B80000521FFF75FFC0F200D49FFF733FC0D4B10221A700C4B00221A700C4B00221A700B4B00221A7080BDD6490040C8490040CA490040DB490040DC49004080E100E04E
:406BC000456C00005C8EFF1F628EFF1F648EFF1F608EFF1F80B582B000AFFFF771FB0346FB710B4A0A4B1B78DBB243F00403DBB21370084A074B1B78DBB243F00403DBB2E6
:406C00001370FB791846FFF75FFB0837BD4680BDA5430040B543004080B500AF074B1B78002B04D1FFF796FF044B01221A70FFF7D1FF034B4FF400421A6080BD3082FF1F60
:406C400000E100E080B582B000AFA84B1B78FB71A74B1B78DBB203F04003DBB2002B00F0AC81FB7903F00103002B00F08381A04B1B78DBB2453B052B00F2788101A252F811
:406C800023F000BF9D6C0000C56D00006D6F00006D6F00009D6C0000B36E0000FB7923F02003FB71FB7903F00A03DBB2082B46D18F4B1B78DBB2452B3AD18E4B1B78DBB216
:406CC000002B0FD08C4A8D4B1B681B78DBB21370864B04221A708A4B01221A70844B46221A706EE0874B1B78DBB203F00203002B0FD0854B1B78DBB243F00A03DAB2824B27
:406D00001A707B4B60221A70804B4FF400421A6057E07F4A7E4B1B78DBB243F01003DBB213707C4B10221A70704B04221A7048E06E4B00221A706E4B4A221A701AE1FB7955
:406D400003F00A03DBB20A2B37D16F4B1B78DBB263F05F03DAB26C4B1A706A4B1B78DBB203F00203002B19D0614B1B78DBB203F00803002B01D0092300E00A23DAB2624BD4
:406D80001B78DBB21343DAB25F4B1A70584B60221A705E4B4FF400421A6012E05C4A5C4B1B78DBB243F01003DBB21370594B10221A704E4B04221A70DCE00020FFF788FA94
:406DC000D8E0D7E0FB7903F00203002B42D14C4B1B78DAB2474B1B78DBB29A4214D2464A464B1B6846490978C9B20B441B78DBB213703E4B04221A70414B1B78DBB2013316
:406E0000DAB23F4B1A7053E03E4B1B78DBB203F00203002B0FD03C4B1B78DBB243F00A03DAB2394B1A70324B60221A70374B4FF400421A603CE0364A354B1B78DBB243F0DA
:406E40001003DBB21370334B10221A70274B04221A708FE02B4B1B78DBB203F00203002B0FD0294B1B78DBB263F06503DAB2264B1A701F4B60221A70244B4FF400421A60D2
:406E800016E0234A224B1B78DBB243F01003DBB21370204B10221A70144B04221A701A4B1B78DBB263F06F03DAB2174B1A7061E060E0194B1B68194A1278D2B213440E4A0C
:406EC0001278D2B21A70154B1B78DBB20133DAB2124B1A70114B1B78DAB2114B1B78DBB29A421FD2014B10221A703EE0D74900405C8EFF1F638EFF1FD8490040688EFF1FFD
:406F0000608EFF1F618EFF1F628EFF1F80E100E0D6490040D94900406C8EFF1F648EFF1F708EFF1F2C4B1B78DBB203F00203002B0FD02A4B1B78DBB243F00903DAB2274B79
:406F40001A70274B60221A70264B4FF400421A600BE0254A244B1B78DBB243F01003DBB21370224B00221A7004E003E00020FFF7AFF900BFFB7903F02003002B28D0184BED
:406F80001B78DBB203F00803002B01D0012300E00223DAB2114B1B78DBB21343DAB20F4B1A70114A104B1B78DBB223F01003DBB213700B4B10221A700AE0094B1B78DBB244
:406FC00003F01003DBB2002B02D1054B10221A700837BD4680BD00BF618EFF1F628EFF1F5C8EFF1F80E100E0D6490040D749004080B582B000AF786000F046F8786800F0A7
:4070000013F8072000F022F800F032F80837BD4680BD00BF80B500AF00F036F8014800F003F880BD3D5D000080B485B000AF7860054B1B68FB60FB6890337A681A601437C4
:40704000BD465DF8047B704708ED00E080B483B000AF0346FB71054AFB795B01DBB213700C37BD465DF8047B704700BF14E400E080B400AF034B4FF480121A60BD465DF873
:40708000047B704700E100E080B400AF034B4FF480121A60BD465DF8047B704780E100E080B400AF094A094B1B78DBB243F00403DBB21370064A064B1B78DBB243F004039B
:4070C000DBB21370BD465DF8047B7047A2430040B243004080B500AF054B1B78002B04D100F008F8024B01221A7000F02FF880BD3182FF1F80B500AF00200D49FFF77AF9FF
:4071000000200221FFF79EF90A4B00221A700A4B72221A70094B20221A70094B06221A70084B47221A70084B00221A7080BD00BFF57200003282FF1F886500408464004016
:4071400023640040336400408264004080B582B000AFFFF7B5F80346FB71124A114B1B78DBB243F02003DBB213700F4A0E4B1B78DBB243F01003DBB213700C4B01221A6083
:407180000B4A0B4B1B78DBB243F01003DBB2137000F012FAFB791846FFF796F80837BD4680BD00BF986500409464004000E100E09264004080B483B000AF1D4B01221A6097
:4071C0001C4B1B78DAB21C4B1B78DBB29A420AD11A4B1B78DBB2002B02D00823FB711DE00023FB711AE0134B1B78DAB2124B1B78DBB29A4208D2104B1B78DAB20D4B1B7817
:40720000DBB2D31AFB7109E00B4B1B78DAB2094B1B78DBB2D31ADBB20833FB71084B01221A60FB7918460C37BD465DF8047B704780E100E03382FF1F3482FF1F3582FF1F25
