:400000000080002011000000ED590000ED59000080B500AF024A034B1B68136005F014FDBC760040FA46004010B5054C237833B9044B13B10448AFF300800123237010BD75
:400040000082FF1F0000000088A80000084B10B51BB108480849AFF300800848036803B910BD074B002BFBD0BDE81040184700BF0000000088A800000482FF1F0881FF1FEF
:400080000000000090B583B000AF694B00221A8062B606F009FB06F0E9FC06F055F806F043FF07F0BDF807F071FD624B002283F85920604B002283F85A205E4B002283F865
:4000C0005B205D4B002283F859205B4B002283F85A20594B002283F85B200023FB7108E0FB79564A1344012283F83320FB790133FB71FB790F2BF3D9052005F055FF0D234F
:40010000FB710EE0FB79A3F10D04FB799BB2184607F0D2FD03461A46494B1A55FB790133FB71FB790E2BEDD90F2007F0C5FD03461A46404B83F85C20102007F0BDFD0346F7
:400140001A463C4B83F85920112007F0B5FD03461A46384B83F85A20122007F0ADFD03461A46344B83F85B20132007F0A5FD03461A46314B83F85C20142007F09DFD0346C2
:400180001A462D4B83F85920152007F095FD03461A46294B83F85A20162007F08DFD03461A46254B83F85B20172007F085FD03461A46244B1A701E2007F07EFD03461A4632
:4001C000214B5A701F2007F077FD03461A461E4B9A70202007F070FD03461A461A4BDA701A2007F069FD03461A46124B1A701C2007F062FD03461A460F4B1A700D4B012246
:400200005A700D4B01225A70104B00221A70094B032283F85C200C4B00229A700A4B0322DA70052005F0C0FE0C37BD4690BD00BF3883FF1F6486FF1F6882FF1FE886FF1F52
:400240004C85FF1F4E85FF1FE882FF1F6286FF1F80B582B000AF03460A46FB711346BB80FB79012B15D1BB880120194605F0A2F9114B64221A70114B01221A70104B012295
:400280005A7007F037FD0F4807F04AF907F012FA0FE0BB880220194605F08CF90A4B64221A700A4B01221A70094807F035FB07F0E5FA0837BD4680BD6585FF1F3885FF1F71
:4002C0006486FF1FD53200001384FF1FD082FF1F4933000080B582B000AF0023FB717BE10023FB71C04B1B78DBB2FF2B04D0BF4B1B78DBB2FF2B58D100BF03F0DBF803464A
:40030000002BFAD000BFB84B1B78DAB2B64B93F85C30DBB21046194604F002F90346002BF1D0322005F040FE00BFB04B1B78DAB2AE4B93F85C30DBB21046194604F0F0F8DD
:400340000346002BF1D0322005F02EFEA64B1B78DBB218461A2107F01FFC0346002B04D101203C2105F026F903E00120552105F021F99E4B1B78DBB218461C2107F00CFC12
:400380000346002B04D102203C2105F013F903E00220552105F00EF9954B00221A70954B00221A700223FB7116E18F4B1B78DBB2184603F033F80346BB71BB790C2B7BD8B4
:4003C00001A252F823F000BFFD030000B9040000B9040000B9040000B9040000B904000005040000410400006B040000790400009504000087040000A30400007A4BFF22A2
:400400001A7059E0784B1B78DBB2184603F060F9322005F0C9FD744B1B78DAB2724B93F85C30DBB21046194604F07AF8322005F0BBFD704B00221A70FB790133FB713BE070
:40044000694B1B78DAB2684B93F85C30DBB21046194604F065F8322005F0A6FD654B00221A70FB790133FB7126E0624B0B221A70FB790133FB711FE05E4B0B221A70FB79A1
:400480000133FB7118E05B4B0C221A70FB790133FB7111E0574B0C221A70FB790133FB710AE0544B0B221A700120082105F082F8FB790133FB7100BF4C4B1B78DBB21846F2
:4004C00002F0ACFF0346BB71BB790C2B00F2848001A252F823F000BF0D050000D9050000D9050000D9050000D9050000D905000015050000510500007B05000091050000DC
:40050000B5050000A7050000C3050000374BFF221A7061E0354B1B78DBB2184603F0D8F8322005F041FD314B1B78DAB22F4B93F85C30DBB21046194603F0F2FF322005F040
:4005400033FD2B4B00221A70FB790133FB7143E0264B1B78DAB2254B93F85C30DBB21046194603F0DDFF322005F01EFD204B00221A70FB790133FB712EE01D4B0B221A7010
:400580000220082105F016F8FB790133FB7123E0174B0B221A700220082105F00BF8FB790133FB7118E0124B0C221A70FB790133FB7111E00E4B0C221A70FB790133FB712F
:4005C0000AE00B4B0B221A700220082104F0F2FFFB790133FB7100BFFB79022B7FF480AE0837BD4680BD00BF6486FF1F6882FF1F1384FF1F6585FF1F80B586B000AF06F0A4
:40060000C3F80346052B40F2EB8206F0BDF803463B820A2005F0C8FC06F0B6F80346FB813A8AFB899A4240F0DB82904B1B78DBB2422B40F0CD828D4B5B78DBB2422B40F07D
:40064000C7828A4B9B78DBB2422B40F0C182884B00221A70854BDB78DBB2312B00F03B82452B00F07182302B40F09E827F4B5B79DBB24E2B0AD17D4B1B79DBB203F00F0339
:40068000DBB218461C21FFF7E3FD8DE2774B9B7ADBB2462B7DD1774B9B7E5A1E764913469B0013440B4448339B78DBB203F00F03DBB23B726F4B9B7E5A1E6F4913469B00AD
:4006C00013440B4449339B78DBB203F00F03DBB27B72684B9B7E5A1E674913469B0013440B444A339B78DBB203F00F03DBB2BB72604B9B7E5A1E604913469B0013440B44D0
:400700004B339B78DBB203F00F03DBB2FB72594B9B7E5A1E584913469B0013440B444C339B78DBB203F00F03DBB23B73524B1B78DBB203F00F03D9B24E4B9B7E07F10802CC
:40074000084611461A4603F0ADFD0346002B40F099804A4B4D221A70484B55225A70474B58229A70454B4522DA70444B30221A713E4B1B79DAB2414B5A71404B31229A710C
:400780003E4B2A22DA710823FB82394B01221A700AE2394B1B78DAB2374B93F85C30DBB21046194603F0BCFE354B1B78DBB2012B11D12E4B5B7ADBB23B722C4B1B7ADBB25A
:4007C0007B722A4BDB79DBB2BB72284B9B79DBB2FB7200233B732A4B1B78DBB2002B13D1224B9B7ADBB23B72204B5B7ADBB27B721E4B1B7ADBB2BB721C4BDB79DBB2FB72B0
:400800001A4B9B79DBB23B731B4B1B78DBB203F00F03D9B2174B9B7E07F10802084611461A4603F03FFD0346002B2BD1134B4D221A70124B55225A70104B58229A700F4B9F
:400840004522DA700D4B30221A71084B1B79DAB20A4B5A71094B31229A71084B2A22DA710823FB82024B01221A709DE15889FF1F3A83FF1FE886FF1F6486FF1F7084FF1FC3
:400880004E85FF1FA84B5B7CDBB27B70A64B5B7CDBB22C2B06D0A44B5B7CDBB203F00F03DBB27B70A04B1B7CDBB2BB709E4B1B7CDBB22C2B06D09C4B1B7CDBB203F00F032F
:4008C000DBB2BB70984BDB7BDBB2FB70964BDB7BDBB22C2B06D0944BDB7BDBB203F00F03DBB2FB70904B9B7BDBB23B718E4B9B7BDBB22C2B06D08C4B9B7BDBB203F00F030D
:40090000DBB23B71884B5B7BDBB27B71864B5B7BDBB22C2B06D0844B5B7BDBB203F00F03DBB27B71804B1B7BDBB2BB717E4B1B7BDBB22C2B06D07C4B1B7BDBB203F00F0329
:40094000DBB2BB71784BDB7ADBB2FB71764BDB7ADBB22C2B06D0744BDB7ADBB203F00F03DBB2FB71704B9B7CDBB27B827B8A312B02D102237B8201E001237B826B4B1B7841
:40098000DBB203F00F03D8B2694B997E7B8ADBB23A4603F047F80346012B7CD1654B1B78002B5CD10023BB820EE0BB8ABA8A5F490A4492F84A20D2B207F118010B4403F80F
:4009C000102CBB8A0133BB82BB8A042BEDD9574B1B78DAB207F1080310461946012203F061FC0023BB820EE0BB8ABA8A4F490A4492F84F20D2B207F118010B4403F8102C0E
:400A0000BB8A0133BB82BB8A042BEDD9474B1B78DAB207F1080310461946022203F042FC0023BB820EE0BB8ABA8A40490A4492F85420D2B207F118010B4403F8102CBB8AFC
:400A40000133BB82BB8A042BEDD9384B1B78DAB207F1080310461946032203F023FC0A2005F0A2FA314B1B78DBB2DBB203F00F03DBB243F01003DBB2DBB2184605F0A4FC71
:400A80002A4B06225A702C4B0B221A700120082104F090FD88E0294B4D221A70274B55225A70264B58229A70244B4522DA70234B30221A711C4B1B79DAB2204B5A711F4BC7
:400AC00032229A711D4B2A22DA710823FB821C4B01221A7068E00120372104F06BFD134B1B78DBB21A46114B1B78DBB203F00F039A4206D10D4B01225A700F4B00221A7062
:400B000011E0104B1B78DBB21A46074B1B79DBB203F00F039A4206D10A4B01225A70064B00221A7040E03FE05889FF1F6486FF1FE886FF1F1C82FF1F6585FF1F7084FF1FD7
:400B40003A83FF1F6882FF1F274B1B78002B2AD1264B5B79DBB2313B032B24D801A252F823F000BF750B0000850B0000950B0000A50B00001E4B01225A7001201C21FFF736
:400B800067FB10E01A4B01225A7001200C21FFF75FFB08E0164B01225A7001205521FFF757FB00E000BF00BF124B1B78012B0FD10023BB8208E0BB8A0F4AD35C184605F01C
:400BC0006BFEBB8A0133BB82BA8AFB8A9A42F2D305F024FE05F0BAFB00233B820023FB811837BD4680BD00BF6286FF1F5889FF1F6486FF1F3A83FF1F7084FF1F80B582B07D
:400C000000AF284B5B78DBB2012B1BD105E005F009FB0346184605F02DFD05F04DFB0346002BF4D105E005F055FC0346184605F0CBFB05F099FC0346002BF4D11A4B012228
:400C40001A702CE005F090FC0346002B24D005F041FC0346FB71FB7903F00F03114A1278D2B2934207D0FB7903F00F030F4A1278D2B293420ED1FB7903F0F003002B09D18D
:400C8000FB7943F06003DBB2184605F0F3FC05F0B3FC01E005F0B0FC034B00221A700837BD4680BD6486FF1F4281FF1F6882FF1FB0B58EB002AFD14B1B78DBB2122B02F20A
:400CC000E88201A252F823F0150D00002F0D00005B0D000037100000DB10000093320000BD120000933200009332000055130000D7170000111800007119000099240000AE
:400D0000BD290000D92B0000F92C0000E92D00007F2E0000BA4806F003FC06F0CBFCB94B00221A70B54B01221A7002F0B2BA06F06BF90346082B0ED106F004FC06F0CAFC0B
:400D4000AE4B02221A700120632104F033FC06F0A3F902F09EBA02F09CBA06F055F90346082B40F06681A84B1B78DBB2AA2B40F05981A54B9B79DBB2C32B40F05381A24BA7
:400D8000DB79DBB23C2B40F04D819F4BDB78DBB2592B1AD0592B02DC452B0ED042E15C2B03D07E2B00F036813CE10120492104F001FC924B03221A7034E10120722104F056
:400DC000F9FB8E4B0F221A702CE10120392104F0F1FB8E4B4D221A708C4B55225A708B4B58229A70894B3222DA70894B1B78DAB2874B93F85C30DBB21046194603F090FBB1
:400E0000322005F0D1F8042387F82D30002387F82F3018E097F82D3097F82F207C490A449278D2B202F00F02D2B23032D1B2774AD15497F82D30013387F82D3097F82F30FF
:400E4000013387F82F3097F82F300B2BE2D90C2387F82F3018E097F82D3097F82F206C490A449278D2B202F00F02D2B23032D1B2664AD15497F82D30013387F82D3097F855
:400E80002F30013387F82F3097F82F30172BE2D9002387F82F3018E097F82D3097F82F205B490A44927ED2B202F00F02D2B23032D1B2564AD15497F82D30013387F82D3060
:400EC00097F82F30013387F82F3097F82F300B2BE2D90C2387F82F3018E097F82D3097F82F204B490A44927ED2B202F00F02D2B23032D1B2454AD15497F82D30013387F80F
:400F00002D3097F82F30013387F82F3097F82F30172BE2D9002387F82F3019E097F82D3097F82F203A490A4492F83220D2B202F00F02D2B23032D1B2344AD15497F82D3079
:400F4000013387F82D3097F82F30013387F82F3097F82F300B2BE1D90C2387F82F3019E097F82D3097F82F2029490A4492F83220D2B202F00F02D2B23032D1B2234AD15495
:400F800097F82D30013387F82D3097F82F30013387F82F3097F82F30172BE1D91B4B2A2283F84B2005F03AFC002387F82F300BE097F82F30154AD35C184605F06DFC97F8D5
:400FC0002F30013387F82F3097F82F304B2BEFD9FA2004F0E9FF05F0D7FB0346012B09D90120002104F0E6FA044B00221A70084B01225A7005F012FC14E000BF6585FF1F31
:40100000D53200003885FF1F4C8FFF1F7084FF1F6486FF1F0120002104F0CCFABE4B00221A7000BF642004F0BFFF06F035F802F030B902F02EB905F0E7FF0346082B4AD1CC
:40104000B64B1B78DBB2AA2B3ED1B44B9B79DBB2C32B39D1B14BDB79DBB23C2B34D1AF4BDB78DBB25F2B09D05F2B02DC5E2B10D02AE07E2B18D0942B1ED025E001200521E8
:4010800004F098FAA64B00221A70A34B04221A701AE001201D2104F08DFAA14B01221A709D4B0B221A700FE00120142104F082FA994B00221A7007E00120632104F07AFA2A
:4010C000954B01221A7000BF642004F06DFF05F0E3FF02F0DEB802F0DCB805F095FF0346082B40F0E9808D4B1B78DBB2AA2B40F0DC808A4B9B79DBB2C32B40F0D680874B28
:40110000DB79DBB23C2B40F0D080844BDB78DBB23B2B00F0C2803B2B04DC0F2B09D0102B47D0C2E0432B00F084807E2B00F0B980BBE0002387F82F300AE097F82F30794AE8
:4011400013440022DA7697F82F30013387F82F3097F82F30072BF0D9734B00221A70734B01221A70724B2C221A70724B5B78DAB2714B1A706B4B0122DA76704B00221A7061
:401180000120062104F016FA6D4B04221A806D4B03221A806C4B01221A8001230093012024210322042304F051FA5B4B0C221A707BE0002387F82F300AE097F82F30594AA3
:4011C00013440022DA7697F82F30013387F82F3097F82F30072BF0D9534B00221A70534B01221A70524B2C221A70524B5B78DAB2514B1A704B4B0222DA76504B00221A70C0
:4012000001200D2104F0D6F94D4B04221A804D4B03221A804C4B01221A8001230093012047210322042304F011FA3B4B0C221A703BE0002387F82F300AE097F82F30394A59
:4012400013440022DA7697F82F30013387F82F3097F82F30072BF0D9324B0322DA76052387F82F300AE097F82F302E4A13440922DA7697F82F30013387F82F3097F82F30B4
:40128000072BF0D90120072104F094F92F4B02225A70214B06221A7007E01F4B00221A7003E01D4B00221A7000BF642004F07CFE05F0F2FE01F0EDBF01F0EBBF0A2004F003
:4012C00073FE224B1B78DBB2184602F043F903461A46144B9A76134B9B7E002B1AD0142004F062FE194B1B78DBB2184602F096F80346072B0ED1084B09221A70144B0022F3
:401300001A80124B04225A700120392104F052F901F0BFBF01F0BDBF6585FF1F4C8FFF1F1284FF1FE886FF1F4F85FF1FE782FF1FC582FF1FE882FF1F1684FF1F6582FF1FCC
:40134000C286FF1FEC82FF1F1084FF1F6486FF1F3883FF1F2C4B4D221A702B4B55225A70294B58229A70284B3022DA70274B1B78012B44D1002387F82F303AE097F82F306B
:401380005B08DBB21A46224B134493F823301B0987F82E3097F82F3003F00103DBB2002B0CD197F82F305B08DBB21A46184B134493F8233003F00F0387F82E3097F82F301A
:4013C000043397F82E203032D1B20F4AD15497F82E30092B08D997F82F30043397F82E203732D1B2084AD15497F82F30013387F82F3097F82F300F2BC0D901F04ABF002331
:4014000087F82F303CE000BF7084FF1F1284FF1FE886FF1F97F82F30B44A134493F8333003F00F0387F82E3097F82F3003F00103DBB2002B09D197F82F30AC4A134493F851
:40144000333003F00F0387F82E3097F82F30043397F82E203032D1B2A54AD15497F82E30092B08D997F82F30043397F82E203732D1B29F4AD15497F82F30013387F82F302E
:4014800097F82F300F2BC5D9984B9B7E013B994A134493F85930DBB23033DAB2944B1A75934B00225A75924B00229A75904B0022DA758F4B00221A768F4B1B78DBB2002B1C
:4014C00059D18A4B9B7E5A1E8A4913469B0013440B444C339B78DBB203F00F03DBB23033DAB2834B5A76814B9B7E5A1E814913469B0013440B444B339B78DBB203F00F03CD
:40150000DBB23033DAB27A4B9A76784B9B7E5A1E784913469B0013440B444A339B78DBB203F00F03DBB23033DAB2714BDA766F4B9B7E5A1E6F4913469B0013440B444933E8
:401540009B78DBB203F00F03DBB23033DAB2684B1A77664B9B7E5A1E664913469B0013440B4448339B78DBB203F00F03DBB23033DAB25F4B5A77604B1B78DBB2012B4AD152
:401580005A4B9B7E5A1E5B4913469B0013440B444B339B78DBB203F00F03DBB23033DAB2534B5A76514B9B7E5A1E524913469B0013440B444A339B78DBB203F00F03DBB299
:4015C0003033DAB24A4B9A76484B9B7E5A1E494913469B0013440B4449339B78DBB203F00F03DBB23033DAB2414BDA763F4B9B7E5A1E404913469B0013440B4448339B78C2
:40160000DBB203F00F03DBB23033DAB2384B1A77374B30225A77354BDB7E3033DAB2344B9A77324B93F82220314BDA772F4B93F82230092B06D82D4B93F822303033DAB2C7
:401640002B4BDA77294B93F82120294B83F82020264B93F82130092B07D8244B93F821303033DAB2224B83F82020204B93F820201F4B83F821201D4B93F82030092B07D8C0
:401680001A4B93F820303033DAB2194B83F82120164BDA7F164B83F82220144BDB7F092B06D8124BDB7F3033DAB2114B83F822200E4B9A7F0E4B83F823200C4B9B7F092B4B
:4016C00006D80A4B9B7F3033DAB2094B83F82320064B5A7F064B83F82420044B5B7F092B0FD8024B5B7F3033DAB207E0E886FF1F7084FF1F6486FF1F4E85FF1F8E4B83F836
:4017000024208E4B1A7F8C4B83F825208B4B1B7F092B06D8894B1B7F3033DAB2864B83F82520002387F82F3012E097F82F30263397F82F20013281490A4492F8432030323A
:40174000D1B27D4AD15497F82F30013387F82F3097F82F30062BE8D9774B312283F82D20754B2A2283F82E2005F058F8002387F82F300BE097F82F306F4AD35C184605F00E
:401780008BF897F82F30013387F82F3097F82F302E2BEFD9FA2004F007FC04F0F5FF0346022B16D1664B1B78DBB24F2B11D1644B5B78DBB24B2B0CD1624B02221A80624B9A
:4017C00002225A70614B0A221A7005F027F801F060BD01F05EBD5B4B1B88012B16D9594B1B8801339AB2574B1A80012004F0DCFB544B1B8844F61F62934207D9514B0022A8
:401800001A80524B09221A7001F043BD01F041BD012003F07FFF0346012B66D10120332103F0D8FF0346002B5FD0002387F82F300FE097F82F40012004F052F803461A46C6
:401840003E4B234483F8232097F82F30013387F82F3097F82F30072BEBD93D4B00221A70002387F82F3014E0394B197897F82F30324A134493F823300846194604F08AF8D6
:4018800003461A46324B1A7097F82F30013387F82F3097F82F30062BE6D9284B93F82A202B4B1B789A4220D10120132103F082FE4FF4FA7004F078FB264B00221A70264B12
:4018C00002221A70254B0A221A70254B02221A80244B03221A80244B01221A8001200E2103F068FE194B0C221A7005F08DFB0346082B1ED11D4B1B78DBB2AA2B12D11B4B39
:401900009B79DBB2C32B0DD1184BDB79DBB23C2B08D1164BDB78DBB23B2B03D10B4B00221A7000BF642004F03FFB05F0B5FB01F0B0BC01F0AEBC00BF7084FF1FE886FF1F0E
:401940005889FF1F3883FF1F6486FF1F6585FF1F3583FF1F4F85FF1FE782FF1F1684FF1FC286FF1FEC82FF1F1084FF1F4C8FFF1F05F04AFB0346082B40F04685A14B1B78AB
:40198000DBB2AA2B40F03E859E4B9B79DBB2C32B40F038859B4BDB79DBB23C2B40F03285994B00221A70994B1B78DAB2984B1B78DBB29A4280F0BD80924BDB78DBB2092B48
:4019C00032D8924B1B78DBB20133DAB28F4B1A708E4B1B78DBB21A468A4BDB78D9B28D4B9954884BDB78DBB23033D9B28A4B1B889DB2864B1B78DBB29BB2884A128892B295
:401A0000013292B202FB03F39AB2854B1B889BB213449CB2814B1B889BB2DBB2009301202A46234603F012FE764BDB78DBB20A2B3CD17C4B1B78DBB2012B0AD1734B1B7890
:401A4000DBB2012B05D1734B5B78DBB2002B00D12CE06E4B1B78DBB20133DAB26B4B1A706A4B1B78DBB21A466A4B002199546A4B1B889DB2654B1B78DBB29BB2674A1288D1
:401A800092B2013292B202FB03F39AB2644B1B889BB213449CB2614B1B889BB2DBB20093012030212A46234603F0D0FD554BDB78DBB2512B3DD1554B1B78DBB2002B38D024
:401AC000594B1B78DBB2002B33D1504B1B78DBB20133DAB24D4B1A704C4B1B78DBB21A46524B1B78D9B24B4B9954504B1B78D9B2494B1B889DB2454B1B78DBB29BB2474A34
:401B0000128892B2013292B202FB03F39AB2444B1B889BB213449CB2404B1B889BB2DBB2009301202A46234603F090FD3E4B01221A70344BDB78DBB20B2B40F0B980334B26
:401B40001B78DBB2002B77D1364B1B78DBB2013B072B00F2AD8001A252F823F07D1B00008D1B0000951B0000AB1B0000C11B0000D71B0000B11C0000ED1B00000120052104
:401B800003F018FD2A4B04221A703AE0284B00221A7036E00120002103F00CFD244B00221A70244B01225A702BE00120002103F001FD1F4B00221A701E4B01225A7020E04A
:401BC0000120002103F0F6FC194B00221A70194B01225A7015E00120002103F0EBFC144B00221A70134B01225A700AE00120002103F0E0FC0E4B00221A700E4B01225A70B0
:401C000000BF55E04C8FFF1F3885FF1F4F85FF1F1684FF1F4086FF1FEC82FF1F1084FF1FC286FF1FE782FF1F6582FF1FC582FF1F6585FF1F6486FF1FA74B1B889DB2A74BD3
:401C40001B78DBB29BB2A64A128892B2013292B202FB03F39AB2A34B1B889BB213449CB29F4B1B889BB2DBB20093012020212A46234603F0EBFC994B1B78DBB21A469A4B98
:401C80009B5CDAB2994B1B78DBB29A4202D1984B00221A70914B1B78DBB21A46924B002199548E4B1B78DBB2013BDAB28B4B1A70904BDB78DBB20C2B40F0A4838E4B1B7842
:401CC000DBB2013B072B00F29D8301A252F823F0F11C0000571E0000CF1E00007F1F0000D91F000097200000C9200000B1220000002387F82F300CE097F82F3007F130025A
:401D00001344002203F82C2C97F82F30013387F82F3097F82F30072BEED9704B1B78DBB2002B00F097806D4B1B78DBB21A466E4B9B5CDBB22C2B00F08D80012387F82F3018
:401D400028E097F82F30684AD35CDBB22C2B0FD097F82F30013B97F82F2063498A5CD2B23032D2B207F130010B4403F82C2C0CE097F82F30013B97F82F205B498A5CD2B2F8
:401D800007F130010B4403F82C2C97F82F30013387F82F30514B1B78DBB297F82F209A42CFD93B1D184606F017FBC7E90801534BDB7E012B09D1D7E908014FF00002504B21
:401DC00006F0F6FA0346002B1AD14C4BDB7E022B40D1D7E908014FF000024A4B06F0DEFA0346002B00D10DE3D7E908014FF000024FF0000306F0E6FA0346002B00D101E383
:401E0000364B1B7887F82F3015E097F82F30334A1278D2B2114697F82F208A1A013232498A5CD1B2354A13440A46DA7697F82F30013B87F82F3097F82F30002BE5D1324B88
:401E400005221A70314B02225A700120072103F0B1FBD7E2D6E2002387F82F300BE097F82F30264A1344002283F8432097F82F30013387F82F3097F82F300A2BEFD9174B00
:401E80001B7887F82F3016E097F82F30134A1278D2B2114697F82F208A1A013212498A5CD1B2164A13440A4683F8432097F82F30013B87F82F3097F82F30002BE4D1124B7A
:401EC00004221A700120052103F074FB9AE2034B1B7887F82F3034E0EC82FF1F4F85FF1F1084FF1FC286FF1F4086FF1FC582FF1F6582FF1F4C8FFF1FE782FF1FE886FF1F4A
:401F00000000894000208C406585FF1F6486FF1F97F82F30B74A1278D2B2114697F82F208A1A0132B4498A5CD2B23032D1B2B34A13440A4683F8592097F82F30013B87F846
:401F40002F3097F82F30002BE2D1AD4B02221A700120052103F02EFBA64B00221A70A94B04221A70A84B0A221A70A84B02221A80A74B03221A80A74B01221A8042E29D4B26
:401F80001B7887F82F3018E097F82F30994A1278D2B2114697F82F208A1A013296498A5CD2B23032D1B2954A13440A4683F8642097F82F30013B87F82F3097F82F30002BF9
:401FC000E2D18F4B66221A700120392103F0F2FA914B10225A7015E2864B1B7887F82F3018E097F82F30834A1278D2B2114697F82F208A1A013280498A5CD2B23032D1B2F2
:402000007E4A13440A4683F8712097F82F30013B87F82F3097F82F30002BE2D17F4B1A78764B93F875309A4223D17C4B5A78734B93F874309A421CD1784B9A786F4B93F8CB
:4020400073309A4215D1754BDA786C4B93F872309A420ED16A4B10221A700120262103F0A9FAC82003F0A0FF01205F2103F0A2FAC8E1634B00221A700120272103F09AFA3E
:40208000654B01225A70C82003F08EFF0120002103F090FAB6E1574B1B78DBB21A46564B9B5CDBB218461E2105F076FD544B00221A7001203C2103F07DFAC82003F074FFF8
:4020C000554B01225A709DE14D4B12221A700120732103F06FFA524B1B78013B032B00F2B88001A252F823F0F92000003F21000085210000CB2100003F4B5B78DBB2303352
:40210000DAB2484B1A70474B1B78322B08D0332B0BD0312B0ED1404B012283F859200DE03D4B012283F85A2008E03B4B012283F85B2003E03C4B00221A7000BF89E02E4BBB
:402140005B78DBB23033DAB2364B5A70354B5B78322B08D0332B0BD0312B0ED12E4B022283F859200DE02C4B022283F85A2008E0294B022283F85B2003E02C4B00221A703F
:4021800000BF66E01C4B5B78DBB23033DAB2254B9A70244B9B78322B08D0332B0BD0312B0ED11D4B032283F859200DE01A4B032283F85A2008E0184B032283F85B2003E089
:4021C0001B4B00221A7000BF43E00B4B5B78DBB23033DAB2134BDA70124BDB78322B29D0332B2CD0312B2FD10B4B042283F859202EE000BF4F85FF1F4086FF1FE886FF1F43
:402200006585FF1FE782FF1F1684FF1FC286FF1FEC82FF1F1084FF1F6486FF1F4481FF1F8D87FF1FCC82FF1F4881FF1F4981FF1F4A81FF1F8A4B042283F85A2008E0884BC7
:40224000042283F85B2003E0864B00221A7000BF00BF854B1A7801230093012011460B222C2303F0F3F9804B5A78012300930120114610222C2303F0E9F97B4B9A7801235A
:4022800000930120114614222C2303F0DFF9764BDA78012300930120114619222C2303F0D5F96F4B01225A70C82003F07DFEA9E0012387F82F3009E097F82F306B4A002101
:4022C000D15497F82F30013387F82F3097F82F30042BF1D9654B04221A70654B1B7887F82F3015E097F82F30614A1278D2B2114697F82F208A1A01325E498A5CD2B2303236
:40230000D1B25A4AD15497F82F30013B87F82F3097F82F30002BE5D1544B5B78DBB22F2B17D9524B9B78DBB22F2B12D84F4BDB78DBB22F2B0DD84D4B1B79DBB22F2B08D804
:402340004A4B30229A70494B3022DA70474B30221A71464B5B78DBB22F2B14D9434B9B78DBB22F2B0FD9414BDB78DBB22F2B0AD83E4B1B79DBB22F2B05D83C4B3022DA7079
:402380003A4B30221A71394B5B78DBB22F2B11D9364B9B78DBB22F2B0CD9344BDB78DBB22F2B07D9314B1B79DBB22F2B02D82F4B30221A71082387F82F3011E097F82F308A
:4023C000083B2A4AD35CDAB297F82F309BB21046194605F0E1FB97F82F30013387F82F3097F82F300C2BE9D9234B00221A7001203C2103F0DFF8C82003F0D6FD184B01222D
:402400005A7000BF04F048FE1C4B1B78DBB21D2B24D91B4B93F85830002B1FD1194B1B78DBB2022B1AD1124B00221A70164B07221A70164B04221A80154B03221A80154B20
:4024400001221A8001200A2103F0B4F80A4B0D221A700A4B00221A7000F01BBF00F019BF6486FF1F4B81FF1FCC82FF1F3C85FF1F4F85FF1F4086FF1F6585FF1F3885FF1F1D
:40248000E886FF1FE782FF1F1684FF1FC286FF1FEC82FF1F1084FF1F7B4B4D221A707A4B55225A70784B58229A70774B3122DA70754B31221A71754B5B7E013B744A1344BA
:4024C00093F85930DBB23033DAB26F4B5A716F4B5B7D3033DAB26C4B9A716C4B1B7D3033DAB2694BDA71694BDB7C3033DAB2664B1A72654B2C225A72644B9B7C3033DAB291
:40250000614B9A72614B5B7C3033DAB25E4BDA725E4B1B7C3033DAB25B4B1A735D4B5B78DBB2072B2AD1594B9B7B3033DAB2564B5A73564B5B7B3033DAB2534B9A73534B1F
:402540001B7B3033DAB2504BDA73504BDB7A3033DAB24D4B1A744D4B9B7A3033DAB24A4B5A744A4B5B7A3033DAB2474B9A74474B1B7A3033DAB2444BDA7429E0434B5B7B91
:402580003033DAB2404B5A73404B1B7B3033DAB23D4B9A733D4BDB7A3033DAB23A4BDA733A4B9B7A3033DAB2374B1A74374B5B7A3033DAB2344B5A74344B1B7A3033DAB262
:4025C000314B9A74314BDB793033DAB22E4BDA74314B1B78DBB2002B1DD12C4B9B793033DAB2294B1A75294B5B793033DAB2264B5A75264B1B793033DAB2234B9A75234B43
:40260000DB783033DAB2204BDA75204B9B783033DAB21D4B1A76204B1B78DBB2012B1AD11A4B5B793033DAB2174B1A75174B1B793033DAB2144B5A75144BDB783033DAB2CA
:40264000114B9A75114B9B783033DAB20E4BDA750D4B30221A76114B1B79DAB20A4B5A760E4BDB78DAB2084B9A760C4B9B78DAB2054BDA76094B5B78DAB2034B1A77002328
:4026800087F82F3047E000BF7084FF1FE886FF1F6486FF1FE882FF1F4E85FF1F3C85FF1F97F82F305B08DBB21A46B94B134493F823301B0987F82E3097F82F3003F00103FB
:4026C000DBB2002B0CD197F82F305B08DBB21A46AF4B134493F8233003F00F0387F82E3097F82F301D3397F82E203032D1B2A94AD15497F82E30092B08D997F82F301D339E
:4027000097F82E203732D1B2A24AD15497F82F30013387F82F3097F82F300F2BC0D99E4B1B8801339AB29C4B1A809B4B1B889B4AA2FB03239B099BB2DBB23033DAB2984BF0
:402740001A71954B1B88954AA2FB031292094FF47A7101FB02F29B1A9BB2924AA2FB03235B099BB2DBB23033DAB28D4BDA708A4B1B888A4AA2FB031292094FF47A7101FB4E
:4027800002F29B1A9BB2874AA2FB03125209642101FB02F29B1A9BB2834AA2FB0323DB089BB2DBB23033DAB27D4B9A707A4B1B887A4AA2FB031292094FF47A7101FB02F229
:4027C0009B1A9BB2774AA2FB03125209642101FB02F29B1A9AB2744BA3FB0213D9080B469B000B445B00D31A9BB2DBB23033DAB26B4B5A70012387F82F300EE097F82F3096
:402800002C3397F82F2066498A5CD1B2614AD15497F82F30013387F82F3097F82F30072BECD9012387F82F3010E097F82F305C4AD35CDAB297F82F309BB21046194605F068
:40284000ABF997F82F30013387F82F3097F82F30042BEAD9002387F82F3012E097F82F30343397F82F20013249490A4492F843203032D1B2474AD15497F82F30013387F872
:402880002F3097F82F30062BE8D9424B2A2283F83B2003F0C3FF002387F82F300BE097F82F303C4AD35C184603F0F6FF97F82F30013387F82F3097F82F303B2BEFD9FA206A
:4028C00003F072FB03F060FF0346022B5ED1374B1B78DBB24F2B0DD1344B5B78DBB24B2B08D1334B02225A70324B66221A70324B00221A7003F092FF254B5B7E5A1E2C497B
:4029000013469B0013440B4448339B78DBB23B731F4B5B7E5A1E264913469B0013440B4449339B78DBB27B73194B5B7E5A1E204913469B0013440B444A339B78DBB2BB7363
:40294000134B5B7E5A1E1A4913469B0013440B444B339B78DBB2FB730D4B5B7E5A1E144913469B0013440B444C339B78DBB23B740F4B1B78D9B2064B5B7E07F10C020846BB
:4029800011461A4601F08EFC00F083BC00F081BCE886FF1F7084FF1FCA82FF1FD34D62104485FF1F1F85EB51CDCCCCCC5889FF1F6486FF1F6585FF1F6286FF1F04F024FBCF
:4029C0000346082B40F00781AD4B1B78DBB2AA2B40F0FE80AA4B9B79DBB2C32B40F0F880A74BDB79DBB23C2B40F0F280A54B1B78DAB2A54B1B78DBB29A426CD2A04BDB7889
:402A0000DBB2092B33D89F4B1B78DBB201339C4AD278D2B23032D1B29C4A13440A4683F864209B4B1B889DB2964B1B78DBB29BB2984A128892B2013292B202FB03F39AB2CB
:402A4000954B1B889BB213449CB2924B1B889BB2DBB2009301202A212A46234602F0F6FD884B1B78DBB20133DAB2864B1A70844BDB78DBB20A2B2ED1824B1B78DBB20133B8
:402A8000824A1344302283F86420814B1B889DB27C4B1B78DBB29BB27E4A128892B2013292B202FB03F39AB27B4B1B889BB213449CB2784B1B889BB2DBB2009301202A21BA
:402AC0002A46234602F0C2FD6E4B1B78DBB20133DAB26C4B1A706A4BDB78DBB20B2B2ED1694B1B78DBB2002B03D16C4B00221A7025E0644B1B78DBB2013BDAB2614B1A70A0
:402B0000634B1B889DB25F4B1B78DBB29BB2614A128892B2013292B202FB03F39AB25E4B1B889BB213449CB25A4B1B889BB2DBB20093012020212A46234602F087FD504B60
:402B4000DB78DBB20C2B43D14E4B1B78DBB2002B3ED04C4B1B78DAB24C4B83F86420002387F82E30494B93F86430042B2DD1012387F82F3015E097F82F30444A134493F8B7
:402B8000642097F82F304649CB5C9A4204D197F82E30013387F82E3097F82F30013387F82F3097F82F30042BE5D997F82E30042B07D13A4B0F221A7001205D2102F0FAFCA8
:402BC00006E0364B00221A7002E0344B00221A7004F062FA5DE35CE304F016FA0346082B40F08980264B1B78DBB2AA2B40F08380234B9B79DBB2C32B7DD1214BDB79DBB2FC
:402C00003C2B78D11E4BDB78DBB2B92B04D0BA2B4CD07E2B67D03CE3224B4D221A70214B55225A701F4B58229A701E4B3322DA701C4B2A221A7103F0F1FD002387F82F30BA
:402C40000BE097F82F30174AD35C184603F024FE97F82F30013387F82F3097F82F30042BEFD9962003F0A0F90120002102F0A2FC0A4B00221A700C4B01225A703BE000BF60
:402C80004C8FFF1F4F85FF1F1684FF1FE886FF1FEC82FF1F1084FF1FC286FF1F6585FF1F2881FF1F7084FF1F6486FF1FA94B02221A700120252102F07DFCA74B05221A7041
:402CC000A64B00221A70A64B2C221A70A54B04221A70A54B04221A80A44B03221A80A44B01221A8007E00120002102F063FC994B00221A7000BFCCE204F086F90346082B5E
:402D000071D19C4B1B78DBB2AA2B6CD1994B9B79DBB2C32B67D1974BDB79DBB23C2B62D1944BDB78DBB2802B13D0802B04DC7E2B51D07F2B05D0ACE2812B27D0C22B2DD0F4
:402D4000A7E2844B12221A700120732102F032FC49E0804B02221A700120642102F02AFC7D4B06221A707D4B00221A707C4B2C221A707C4B01221A707B4B04221A807B4BBB
:402D800003221A807A4B01221A802CE0714B11221A7001206D2102F00DFC24E06D4B02221A700120842102F005FC6B4B08221A706A4B00221A706A4B2C221A70694B04224E
:402DC0001A70694B04221A80684B03221A80684B01221A8007E00120002102F0EBFB5D4B00221A7000BF54E204F00EF90346082B44D1604B1B78DBB2AA2B3FD15D4B9B79B1
:402E0000DBB2C32B3AD15B4BDB79DBB23C2B35D1584BDB78DBB28F2B04D0902B14D07E2B24D036E20020172104F0B6FE494B00221A7001203C2102F0BDFBC82003F0B4F8C4
:402E40004D4B01225A7019E00120172104F0A4FE404B00221A7001203C2102F0ABFBC82003F0A2F8444B01225A7007E00120002102F0A0FB374B00221A7000BF09E204F025
:402E8000C3F80346082B40F003823A4B1B78DBB2AA2B40F0FD81374B9B79DBB2C32B40F0F781344BDB79DBB23C2B40F0F181314BDB78DBB2BC2B2CD0BC2B05DC7E2B00F03C
:402EC0009F80BB2B05D0E4E1BD2B59D0BE2B77D0DFE12A4B01221A701E4B02221A700120842102F067FB1C4B07221A701B4B00221A701B4B2C221A701A4B01221A701A4BFE
:402F000004221A80194B03221A80194B01221A80BEE11A4B02221A700E4B02221A700120842102F047FB0C4B07221A700B4B00221A700B4B2C221A700A4B01221A700A4B49
:402F400004221A80094B03221A80094B01221A809EE100BF6585FF1FE782FF1F4F85FF1FC582FF1F1684FF1FC286FF1FEC82FF1F1084FF1F4C8FFF1F6486FF1F8D87FF1FBA
:402F8000C54B03221A70C54B02221A700120842102F010FBC24B07221A70C24B00221A70C14B2C221A70C14B01221A70C04B04221A80C04B03221A80BF4B01221A8067E117
:402FC000B54B04221A70B54B02221A700120842102F0F0FAB24B07221A70B24B00221A70B14B2C221A70B14B01221A70B04B04221A80B04B03221A80AF4B01221A8047E1A7
:40300000AE4B4D221A70AD4B55225A70AB4B58229A70AA4B3422DA70042387F82E30002387F82F303CE097F82F30A54A134493F85930DBB2013B032B22D801A252F823F0FC
:40304000513000005D300000693000007530000097F82E30994A4421D15417E097F82E30964A4321D15411E097F82E30934A4521D1540BE097F82E30904A5321D15405E0E7
:4030800097F82E308D4A3021D15400BF97F82E30013387F82E3097F82F30013387F82F3097F82F30022BBED9864B1B78002B26D1002387F82E30042387F82F301BE097F852
:4030C0002F307E4AD35C442B0BD197F82F307B4A3021D15497F82E30794A1344002283F8592097F82E30013387F82E3097F82F30013387F82F3097F82F30062BDFD9724B57
:403100001B78002B26D1002387F82E30042387F82F301BE097F82F30684AD35C432B0BD197F82F30654A3021D15497F82E30644A1344002283F8592097F82E30013387F806
:403140002E3097F82F30013387F82F3097F82F30062BDFD95D4B1B78002B26D1002387F82E30042387F82F301BE097F82F30534AD35C452B0BD197F82F30504A3021D154B9
:4031800097F82E304E4A1344002283F8592097F82E30013387F82E3097F82F30013387F82F3097F82F30062BDFD9494B1B78002B26D1002387F82E30042387F82F301BE0FF
:4031C00097F82F303D4AD35C532B0BD197F82F303A4A3021D15497F82E30394A1344002283F8592097F82E30013387F82E3097F82F30013387F82F3097F82F30062BDFD937
:403200002E4B2A22DA7103F009FB002387F82F300BE097F82F30294AD35C184603F03CFB97F82F30013387F82F3097F82F30072BEFD9244B01221A70244B01221A70224BF6
:4032400001221A70224B01221A701D4B93F85930DBB21846102104F09FFC194B93F85A30DBB21846112104F097FC154B93F85B30DBB21846122104F08FFC0120002102F0FC
:4032800099F9064B00221A700D4B01225A7000BF00BF3037BD46B0BD8D87FF1F6585FF1FE782FF1F4F85FF1FC582FF1F1684FF1FC286FF1FEC82FF1F1084FF1F7084FF1F5F
:4032C0006486FF1F4881FF1F4981FF1F4A81FF1F4B81FF1F80B500AF04F030FA184B1B78DBB2012B24D1174B1B78DBB2062B11D8144B1B78DBB20133DAB2124B1A70114B60
:403300001B78DBB29BB214339BB20120194602F051F914E00B4B00221A700A4B1B78DBB29BB214339BB20120194602F043F906E0044B1B78DBB20133DAB2024B1A7080BDAD
:403340006585FF1F3885FF1F80B500AF04F0B6FA184B1B78DBB2012B24D1174B1B78DBB2062B11D8144B1B78DBB20133DAB2124B1A70114B1B78DBB29BB214339BB20220FD
:40338000194602F017F914E00B4B00221A700A4B1B78DBB29BB214339BB20220194602F009F906E0044B1B78DBB20133DAB2024B1A7080BD1384FF1FD082FF1F80B500AFB9
:4033C000FCF760FEFCF786FF0320002102F020FE0C4B1B78012B08D1FDF710FC02F05EFEFDF766FC02F05AFE0BE0FDF707FC02F055FEFDF75DFC02F051FEFDF7FDF802F043
:403400004DFEE5E74281FF1F80B500AF04F088FB014B01221A7080BD8E87FF1F80B584B000AF0346FB7102F091FFFB79184602F0CBFF1E4803F006FD04F02EFB1C4B0022F1
:403440001A700A2002F0B0FD0BE0194B1B78012B07D103F009FD04F02FFB02F077FF002320E002F029FF0346002BEED002F0DAFE0346FB73FB7B03F00F02FB799A420AD1FF
:40348000FB7B1B09FB7302F061FF03F0EDFC04F013FBFB7B06E002F059FF03F0E5FC04F00BFB002318461037BD4680BD093400008E87FF1F80B582B000AF244BFF221A70B8
:4034C000234BFF221A70052002F06EFD0020FFF7A5FF0346002B02D01D4B00221A700123FB711FE0052002F05FFDFB791846FFF795FF0346002B12D0144B1B78DBB2FF2BC0
:4035000003D1124AFB79137009E0114B1B78DBB2FF2B04D10E4AFB791370012312E0FB790133FB71FB790F2BDCD9084B1B78DBB2FF2B06D0064B1B78DBB2FF2B01D0012321
:4035400000E0002318460837BD4680BD6486FF1F6882FF1F90B58BB000AF0346FB71594A07F108031068516803C3127A1A7002F0EDFEFB7943F02003DBB2184602F024FF1D
:40358000514803F05FFC04F087FA504B00221A700BE04E4B1B78012B07D103F065FC04F08BFA02F0D3FE002388E002F085FE0346002BEED003F058FC04F07EFA02F032FEB6
:4035C00003461A46FB7963F02F03DBB29A4274D102F0BCFE052002F0E7FC002387F827300EE097F8273007F12802134413F8203C184602F0E9FE97F82730013387F8273001
:4036000097F82730082BECD92F4803F01BFC04F043FA2E4B00221A700BE02C4B1B78012B07D103F021FC04F047FA02F08FFE002344E002F041FE0346132BEED103F014FC57
:4036400004F03AFA002387F827300FE097F8274002F0E8FD03461A4607F12803234403F8142C97F82730013387F8273097F82730122BEBD902F06AFE3B7DBA2B1BD197F8B6
:4036800025308D2B17D197F826308A2B13D197F82030B12B0FD197F82230B22B05D0B32B05D0B12B05D1012308E0022306E0032304E0002302E0002300E0002318462C37F7
:4036C000BD4690BD90A80000093400008E87FF1F80B584B000AF0346FB7102F037FEFB7943F04003DBB2184602F06EFE4FF4967002F05AFCAB4B5B78DBB2072B00F0BC8066
:4037000002F0DAFD0346212B40F0B680A64B1B78DBB2FF2B40F0AE80A34B9B78DBB2F82B40F0A880A04B93F82030DBB2F02B40F0A1809E4B1B78DBB2FA799A424CD19A4B0A
:403740005B7ADBB203F00F03DBB20133DAB2984B5A760023FB730FE0FB7BFA7B0C3292498A5CD2B202F00F02D1B2914A13440A469A70FB7B0133FB73FB7B032BECD900233E
:40378000FB730FE0FB7BFA7B113287498A5CD2B202F00F02D1B2864A13440A461A74FB7B0133FB73FB7B052BECD90023FB730FE0FB7BFA7B18327C498A5CD2B202F00F024F
:4037C000D1B27B4A13440A46DA71FB7B0133FB73FB7B052BECD94BE0734B5B7ADBB203F00F03DBB20133DAB2724B5A760023FB730FE0FB7BFA7B0C326B498A5CD2B202F029
:403800000F02D1B26B4A13440A469A70FB7B0133FB73FB7B032BECD90023FB730FE0FB7BFA7B113260498A5CD2B202F00F02D1B2604A13440A461A74FB7B0133FB73FB7B59
:40384000052BECD90023FB730FE0FB7BFA7B183255498A5CD2B202F00F02D1B2554A13440A46DA71FB7B0133FB73FB7B052BECD90123CFE00023CDE04A4B5B78DBB2072B32
:4038800040F0C78002F018FD0346272B40F0C180454B1B78DBB2FF2B40F0B980424B9B78DBB2F82B40F0B3803F4B93F82630DBB2F02B40F0AC803D4B1B78DBB2FA799A4222
:4038C0004CD1394B5B7ADBB203F00F03DBB20133DAB2374B5A760023FB730FE0FB7BFA7B0C3231498A5CD2B202F00F02D1B2304A13440A469A70FB7B0133FB73FB7B052B25
:40390000ECD90023FB730FE0FB7BFA7B133226498A5CD2B202F00F02D1B2254A13440A461A74FB7B0133FB73FB7B072BECD90023FB730FE0FB7BFA7B1C321B498A5CD2B203
:4039400002F00F02D1B21A4A13440A46DA71FB7B0133FB73FB7B072BECD956E0124B5B7ADBB203F00F03DBB20133DAB2114B5A760023FB730FE0FB7BFA7B0C320A498A5C91
:40398000D2B202F00F02D1B20A4A13440A469A70FB7B0133FB73FB7B052BECD90023FB731AE000BFE882FF1F9087FF1F6486FF1FE886FF1F6885FF1FFB7BFA7B133217493F
:4039C0008A5CD2B202F00F02D1B2154A13440A461A74FB7B0133FB73FB7B072BECD90023FB730FE0FB7BFA7B1C320C498A5CD2B202F00F02D1B20A4A13440A46DA71FB7B04
:403A00000133FB73FB7B072BECD9012302E0002300E0002318461037BD4680BD9087FF1F6885FF1F80B588B000AF3A601A460346FB710B46BB7113467B7107F10803002274
:403A40001A60043300221A60043300221A60043300221A60043300221A8002330423BB777B79032B01D102237B71B34B5B78DBB2052B04D0B04B5B78DBB2062B04D17B7916
:403A8000012B01D10323BB77AB4B5B78DBB2052B04D17B79022B01D10523BB77A64B5B78DBB2072B04D17B79012B01D10023BB77A14B5B78DBB2072B04D17B79022B01D123
:403AC0000223BB7700233B7701237B770AE07B7F3A6813441B782C2B01D17B7F3B777B7F01337B777B7F072BF1D93B7F042B01D90023CFE3904B5B78DBB2072B00F00582AD
:403B0000FF233B72BB7F63F01F03DBB27B727B7963F00F03DBB2BB72F423FB72F8233B733B6801331B7863F01F03DBB27B733B6802331B7863F01F03DBB2BB733B6803335F
:403B40001B7863F01F03DBB2FB733B6804331B7863F01F03DBB23B743B6805331B7863F01F03DBB27B743B6806331B7863F01F03DBB2BB74704B9B78DBB2022B40F0A58048
:403B80003B7F042B29D13B6802331B7863F01F03DBB27B733B6803331B7863F01F03DBB2BB733B6805331B7863F01F03DBB2FB733B6806331B7863F01F03DBB23B743B688A
:403BC00007331B7863F01F03DBB27B743B6808331B7863F01F03DBB2BB743B7F032B29D13B6801331B7863F01F03DBB27B733B6802331B7863F01F03DBB2BB733B680433B4
:403C00001B7863F01F03DBB2FB733B6805331B7863F01F03DBB23B743B6806331B7863F01F03DBB27B743B6807331B7863F01F03DBB2BB743B7F022B24D1E0237B733B68F1
:403C400001331B7863F01F03DBB2BB733B6803331B7863F01F03DBB2FB733B6804331B7863F01F03DBB23B743B6805331B7863F01F03DBB27B743B6806331B7863F01F0310
:403C8000DBB2BB743B7F002B1FD1E0237B73E023BB733B6801331B7863F01F03DBB2FB733B6802331B7863F01F03DBB23B743B6803331B7863F01F03DBB27B743B68043324
:403CC0001B7863F01F03DBB2BB74FB23FB7400233B7500237B770FE03A7D7B7F07F120010B4413F8183C03F00F03DBB21344DBB23B757B7F01337B777B7F0B2BECD93B7D31
:403D00005B42DBB2DBB203F00F03DBB263F01F03DBB2DBB23B75F0237B750D23FB77064B5B78DBB2052B2CD1FB23BB740023FB7400237B7712E000BFE882FF1FFA7C7B7FDB
:403D400007F120010B4413F8183C03F00F03DBB21344DBB2FB747B7F01337B777B7F0A2BECD9FB7C5B42DBB2DBB203F00F03DBB263F01F03DBB2DBB2FB74F0233B750C23D3
:403D8000FB777B79012B40F0C080F6233B73BB79013BDBB2DBB263F01F03DBB2DBB27B73F823BB733B7F042B22D13B6802331B7863F01F03DBB2FB733B6803331B7863F074
:403DC0001F03DBB23B743B6805331B7863F01F03DBB27B743B6806331B7863F01F03DBB2BB743B6807331B7863F01F03DBB2FB743B7F032B22D13B6801331B7863F01F03CB
:403E0000DBB2FB733B6802331B7863F01F03DBB23B743B6804331B7863F01F03DBB27B743B6805331B7863F01F03DBB2BB743B6806331B7863F01F03DBB2FB743B7F022BA7
:403E40001DD1E023FB733B6801331B7863F01F03DBB23B743B6803331B7863F01F03DBB27B743B6804331B7863F01F03DBB2BB743B6805331B7863F01F03DBB2FB743B7F34
:403E8000002B18D1E023FB73E0233B743B6801331B7863F01F03DBB27B743B6802331B7863F01F03DBB2BB743B6803331B7863F01F03DBB2FB74FB233B7500237B750023F3
:403EC0007B770FE07A7D7B7F07F120010B4413F8183C03F00F03DBB21344DBB27B757B7F01337B777B7F0C2BECD97B7D5B42DBB2DBB203F00F03DBB263F01F03DBB2DBB2DD
:403F00007B75F023BB750E23FB77A24B5B78DBB2072B40F06481FF233B72BB7F63F01F03DBB27B727B7963F00F03DBB2BB72F423FB72F8233B733B6801331B7863F01F03E0
:403F4000DBB27B733B6802331B7863F01F03DBB2BB733B6803331B7863F01F03DBB2FB733B6804331B7863F01F03DBB23B743B6805331B7863F01F03DBB27B743B680633F6
:403F80001B7863F01F03DBB2BB743B6807331B7863F01F03DBB2FB74E0233B75FB237B750023BB7500237B770FE0BA7D7B7F07F120010B4413F8183C03F00F03DBB2134463
:403FC000DBB2BB757B7F01337B777B7F0D2BECD9BB7D5B42DBB2DBB203F00F03DBB263F01F03DBB2DBB2BB75F023FB750F23FB777B79012B40F0F380F6233B73BB79013B8C
:40400000DBB2DBB263F01F03DBB2DBB27B73F823BB733B7F042B2DD13B6801331B7863F01F03DBB2FB733B6802331B7863F01F03DBB23B743B6803331B7863F01F03DBB255
:404040007B743B6805331B7863F01F03DBB2BB743B6806331B7863F01F03DBB2FB743B6807331B7863F01F03DBB23B75E0237B75E023BB753B7F032B2DD1E023FB733B6890
:4040800001331B7863F01F03DBB23B743B6802331B7863F01F03DBB27B743B6804331B7863F01F03DBB2BB743B6805331B7863F01F03DBB2FB743B6806331B7863F01F03CB
:4040C000DBB23B753B6807331B7863F01F03DBB27B75E023BB753B7F022B2DD1E023FB73E0233B743B6801331B7863F01F03DBB27B743B6803331B7863F01F03DBB2BB74EE
:404100003B6804331B7863F01F03DBB2FB743B6805331B7863F01F03DBB23B753B6806331B7863F01F03DBB27B753B6807331B7863F01F03DBB2BB753B7F002B23D1E023A2
:40414000FB73E0233B74E0237B743B6801331B7863F01F03DBB2BB743B6802331B7863F01F03DBB2FB743B6803331B7863F01F03DBB23B753B6804331B7863F01F03DBB229
:404180007B75E023BB75FB23FB7500233B7600237B7711E0E882FF1F3A7E7B7F07F120010B4413F8183C03F00F03DBB21344DBB23B767B7F01337B777B7F0F2BECD93B7E7A
:4041C0005B42DBB2DBB203F00F03DBB263F01F03DBB2DBB23B76F0237B761123FB7702F0B5F8FB7943F02003DBB2184602F0ECF82A4802F027FE03F04FFC294B00221A707B
:404200000A2001F0D1FE0BE0254B1B78012B07D102F02AFE03F050FC02F098F8002339E002F04AF80346002BEED002F01DFE03F043FC01F0F7FF03461A46FB7963F02F035D
:40424000DBB29A4225D102F081F80A2001F0ACFE00237B770BE07B7F07F12002134413F8183C184602F0B0F87B7F01337B777A7FFB7F9A42EFD9322001F096FEFB7918460D
:40428000FFF7CCF80346002B01D1002302E0012300E0002318462037BD4680BD093400008E87FF1F80B588B000AF03463960FB711346BB7100233B7300237B730023BB734B
:4042C0000023FB7300233B7400237B740023BB740023FB7400233B7500237B750023BB750023FB7500233B7600237B760023BB76884B5B78DBB2072B56D0FF233B73E523FA
:404300007B73F423BB73F623FB73BB79013BDBB2DBB263F01F03DBB2DBB23B74F7237B740623BB7715E0BB7FBA7F063A39680A441278D2B202F00F02D2B262F01F02D2B274
:40434000D2B207F120010B4403F8142CBB7F0133BB77BB7F092BE6D9FB23BB750023BB770FE0FA7DBB7F07F120010B4413F8143C03F00F03DBB21344DBB2FB75BB7F0133EF
:40438000BB77BB7F0A2BECD9FB7D5B42DBB2DBB203F00F03DBB263F01F03DBB2DBB2FB75F0233B760C23FB775A4B5B78DBB2072B53D1FF233B73E3237B73F423BB73F623F5
:4043C000FB73BB79013BDBB2DBB263F01F03DBB2DBB23B74F7237B740623BB7710E0BB7FBA7F063A39680A44127862F01F02D2B207F120010B4403F8142CBB7F0133BB77CD
:40440000BB7F0A2BEBD9E023FB75FB233B760023BB770FE07A7EBB7F07F120010B4413F8143C03F00F03DBB21344DBB27B76BB7F0133BB77BB7F0C2BECD97B7E5B42DBB26E
:40444000DBB203F00F03DBB263F01F03DBB2DBB27B76F023BB760E23FB7701F077FFFB7943F02003DBB2184601F0AEFF2A4802F0E9FC03F011FB294B00221A700BE0274B37
:404480001B78012B07D102F0EFFC03F015FB01F05DFF002339E001F00FFF0346002BEED002F0E2FC03F008FB01F0BCFE03461A46FB7963F02F03DBB29A4225D101F046FF23
:4044C0000A2001F071FD0023BB770BE0BB7F07F12002134413F8143C184601F075FFBB7F0133BB77BA7FFB7F9A42EFD9322001F05BFDFB791846FEF791FF0346002B01D1FB
:40450000002302E0012300E0002318462037BD4680BD00BFE882FF1F093400008E87FF1F80B584B000AF03460A46FB711346BB7101F00CFFFB7943F05003DBB2184601F02F
:4045400043FFB04B00221A704FF4967001F02CFD01F0B2FE0346002B01F02280AA4B1B78DBB2FA799A4240F01F84A84B5B78DBB2072B00F00C824FF4617001F015FD01F005
:404580009BFE0346FB73FB7B222B06D0FB7B402B03D0FB7B5E2B40F0F5819D4B1B78DBB2FF2B40F0EA819A4B5B78DBB2F62B40F0E481974BDB78DBB2F92B40F0DE81002359
:4045C000BB7316E00023FB730DE0BA7BF97B8E4813465B001344DB000B44034400229A70FB7B0133FB73FB7B172BEED9BB7B0133BB73BB7B022BE5D90023FB7321E0FB7B9A
:40460000FA7B043282498A5CD1B27F4A13440A469A70FB7B7C4A13449B78DBB2002B08D0FB7B794A13449B78DBB203F0F003E02B04D001F08BFE002300F0B3BFFB7B01334D
:40464000FB73FB7B072BDAD90023FB7324E0FB7B0C33FA7B0D326E498A5CD1B26A4A13440A469A70FB7B0C33674A13449B78DBB2002B09D0FB7B0C33634A13449B78DBB234
:4046800003F0F003E02B04D001F060FE002300F088BFFB7B0133FB73FB7B072BD7D90023FB730DE0FB7BFA7B163259498A5CD1B2554A13440A4683F84A20FB7B0133FB731D
:4046C000FB7B032BEED9BB79022B6BD10023FB7321E0FB7BFA7B22324D498A5CD1B24A4A13440A469A76FB7B474A13449B7EDBB2002B08D0FB7B444A13449B7EDBB203F09C
:40470000F003E02B04D001F021FE002300F049BFFB7B0133FB73FB7B072BDAD90023FB7324E0FB7B0C33FA7B2B3239498A5CD1B2354A13440A469A76FB7B0C33324A134444
:404740009B7EDBB2002B09D0FB7B0C332E4A13449B7EDBB203F0F003E02B04D001F0F6FD002300F01EBFFB7B0133FB73FB7B072BD7D90023FB730DE0FB7BFA7B3432244920
:404780008A5CD1B2204A13440A4683F84F20FB7B0133FB73FB7B032BEED901F0D7FD022300F0FFBEBB79032B40F0E2800023FB7321E0FB7BFA7B223215498A5CD1B2124A93
:4047C00013440A469A76FB7B0F4A13449B7EDBB2002B08D0FB7B0C4A13449B7EDBB203F0F003E02B04D001F0B1FD002300F0D9BEFB7B0133FB73FB7B072BDAD90023FB7358
:404800002DE000BF8E87FF1F6486FF1FE882FF1F9087FF1FFB7B0C33FA7B2B32B3498A5CD1B2B34A13440A469A76FB7B0C33B04A13449B7EDBB2002B09D0FB7B0C33AC4AB9
:4048400013449B7EDBB203F0F003E02B04D001F07DFD002300F0A5BEFB7B0133FB73FB7B072BD7D90023FB730DE0FB7BFA7B34329E498A5CD1B29E4A13440A4683F84F208D
:40488000FB7B0133FB73FB7B032BEED90023FB7324E0FB7BFA7B403294498A5CD1B2944A13440A4683F83220FB7B914A134493F83230DBB2002B09D0FB7B8D4A134493F896
:4048C0003230DBB203F0F003E02B04D001F03EFD002300F066BEFB7B0133FB73FB7B072BD7D90023FB7327E0FB7B0C33FA7B49327E498A5CD1B27E4A13440A4683F8322088
:40490000FB7B0C337A4A134493F83230DBB2002B0AD0FB7B0C33764A134493F83230DBB203F0F003E02B04D001F010FD002300F038BEFB7B0133FB73FB7B072BD4D9002386
:40494000FB730DE0FB7BFA7B523268498A5CD1B2674A13440A4683F85420FB7B0133FB73FB7B032BEED901F0F1FC032300F019BE01F0ECFC012300F014BE01F0E7FC002308
:4049800000F00FBE01F0E2FC002300F00ABE4FF4617001F009FB01F08FFC0346FB73FB7B2E2B06D0FB7B582B03D0FB7B822B40F0F1814E4B1B78DBB2FF2B40F0E6814B4B0E
:4049C0005B78DBB2F62B40F0E081484BDB78DBB2F92B40F0DA810023BB7316E00023FB730DE0BA7BF97B424813465B001344DB000B44034400229A70FB7B0133FB73FB7B55
:404A0000172BEED9BB7B0133BB73BB7B022BE5D90023FB7321E0FB7BFA7B043233498A5CD1B2334A13440A469A70FB7B304A13449B78DBB2002B08D0FB7B2D4A13449B78AD
:404A4000DBB203F0F003E02B04D001F07FFC002300F0A7BDFB7B0133FB73FB7B0B2BDAD90023FB7324E0FB7B0C33FA7B11321F498A5CD1B21E4A13440A469A70FB7B0C33E9
:404A80001B4A13449B78DBB2002B09D0FB7B0C33174A13449B78DBB203F0F003E02B04D001F054FC002300F07CBDFB7B0133FB73FB7B0B2BD7D90023FB730DE0FB7BFA7B5A
:404AC0001E320A498A5CD1B2094A13440A4683F84A20FB7B0133FB73FB7B042BEED9BB79022B70D10023FB7326E000BF9087FF1F6486FF1FFB7BFA7B2E32A9498A5CD1B26C
:404B0000A84A13440A469A76FB7BA64A13449B7EDBB2002B08D0FB7BA24A13449B7EDBB203F0F003E02B04D001F010FC002300F038BDFB7B0133FB73FB7B0B2BDAD90023A3
:404B4000FB7324E0FB7B0C33FA7B3B3294498A5CD1B2944A13440A469A76FB7B0C33914A13449B7EDBB2002B09D0FB7B0C338D4A13449B7EDBB203F0F003E02B04D001F081
:404B8000E5FB002300F00DBDFB7B0133FB73FB7B0B2BD7D90023FB730DE0FB7BFA7B48327F498A5CD1B27F4A13440A4683F84F20FB7B0133FB73FB7B042BEED901F0C6FB20
:404BC000022300F0EEBCBB79032B40F0D9800023FB7321E0FB7BFA7B2E3271498A5CD1B2704A13440A469A76FB7B6E4A13449B7EDBB2002B08D0FB7B6A4A13449B7EDBB245
:404C000003F0F003E02B04D001F0A0FB002300F0C8BCFB7B0133FB73FB7B0B2BDAD90023FB7324E0FB7B0C33FA7B3B325C498A5CD1B25C4A13440A469A76FB7B0C33594A26
:404C400013449B7EDBB2002B09D0FB7B0C33554A13449B7EDBB203F0F003E02B04D001F075FB002300F09DBCFB7B0133FB73FB7B0B2BD7D90023FB730DE0FB7BFA7B4832F9
:404C800047498A5CD1B2474A13440A4683F84F20FB7B0133FB73FB7B042BEED90023FB7324E0FB7BFA7B58323D498A5CD1B23D4A13440A4683F83220FB7B3A4A134493F885
:404CC0003230DBB2002B09D0FB7B364A134493F83230DBB203F0F003E02B04D001F036FB002300F05EBCFB7B0133FB73FB7B0B2BD7D90023FB7327E0FB7B0C33FA7B653219
:404D000027498A5CD1B2274A13440A4683F83220FB7B0C33234A134493F83230DBB2002B0AD0FB7B0C331F4A134493F83230DBB203F0F003E02B04D001F008FB002300F002
:404D400030BCFB7B0133FB73FB7B0B2BD4D90023FB730DE0FB7BFA7B723211498A5CD1B2104A13440A4683F85420FB7B0133FB73FB7B042BEED901F0E9FA032300F011BCDB
:404D800001F0E4FA012300F00CBC01F0DFFA002300F007BC01F0DAFA002300F002BC00BF9087FF1F6486FF1FA24B5B78DBB2072B00F0FC814FF4617001F0F6F801F07CFAD0
:404DC0000346FB73FB7B222B06D0FB7B402B03D0FB7B5E2B40F0E681974B1B78DBB2FF2B40F0DC81944B5B78DBB2F62B40F0D681914BDB78DBB2F92B40F0D0810023BB73C7
:404E000016E00023FB730DE0BA7BF97B8B4813465B001344DB000B44034400229A70FB7B0133FB73FB7B172BEED9BB7B0133BB73BB7B022BE5D90023FB7320E0FB7BFA7B0E
:404E400004327D498A5CD1B27C4A13440A469A70FB7B7A4A13449B78DBB2002B08D0FB7B764A13449B78DBB203F0F003E02B03D001F06CFA002394E3FB7B0133FB73FB7BB2
:404E8000072BDBD90023FB7323E0FB7B0C33FA7B0D3269498A5CD1B2684A13440A469A70FB7B0C33654A13449B78DBB2002B09D0FB7B0C33614A13449B78DBB203F0F003F5
:404EC000E02B03D001F042FA00236AE3FB7B0133FB73FB7B072BD8D90023FB730DE0FB7BFA7B163254498A5CD1B2544A13440A4683F84A20FB7B0133FB73FB7B032BEED962
:404F0000BB79022B68D10023FB7320E0FB7BFA7B223249498A5CD1B2484A13440A469A76FB7B464A13449B7EDBB2002B08D0FB7B424A13449B7EDBB203F0F003E02B03D0FA
:404F400001F004FA00232CE3FB7B0133FB73FB7B072BDBD90023FB7323E0FB7B0C33FA7B2B3235498A5CD1B2344A13440A469A76FB7B0C33314A13449B7EDBB2002B09D034
:404F8000FB7B0C332D4A13449B7EDBB203F0F003E02B03D001F0DAF9002302E3FB7B0133FB73FB7B072BD8D90023FB730DE0FB7BFA7B343220498A5CD1B2204A13440A4615
:404FC00083F84F20FB7B0133FB73FB7B032BEED901F0BCF90223E4E2BB79032B40F0DA800023FB7320E0FB7BFA7B223212498A5CD1B2124A13440A469A76FB7B0F4A1344FA
:405000009B7EDBB2002B08D0FB7B0C4A13449B7EDBB203F0F003E02B03D001F097F90023BFE2FB7B0133FB73FB7B072BDBD90023FB7329E0E882FF1F9087FF1F6882FF1F22
:40504000FB7B0C33FA7B2B32AE498A5CD1B2AE4A13440A469A76FB7B0C33AB4A13449B7EDBB2002B09D0FB7B0C33A74A13449B7EDBB203F0F003E02B03D001F067F9002314
:405080008FE2FB7B0133FB73FB7B072BD8D90023FB730DE0FB7BFA7B34329A498A5CD1B2994A13440A4683F84F20FB7B0133FB73FB7B032BEED90023FB7323E0FB7BFA7B7D
:4050C000403290498A5CD1B28F4A13440A4683F83220FB7B8C4A134493F83230DBB2002B09D0FB7B884A134493F83230DBB203F0F003E02B03D001F029F9002351E2FB7BD2
:405100000133FB73FB7B072BD8D90023FB7326E0FB7B0C33FA7B49327A498A5CD1B27A4A13440A4683F83220FB7B0C33764A134493F83230DBB2002B0AD0FB7B0C33724A18
:40514000134493F83230DBB203F0F003E02B03D001F0FCF8002324E2FB7B0133FB73FB7B072BD5D90023FB730DE0FB7BFA7B523264498A5CD1B2644A13440A4683F85420D7
:40518000FB7B0133FB73FB7B032BEED901F0DEF8032306E201F0DAF8012302E201F0D6F80023FEE101F0D2F80023FAE14FF4617000F0FAFE01F080F80346FB73FB7B2E2B67
:4051C00006D0FB7B582B03D0FB7B822B40F0E4814C4B1B78DBB2FF2B40F0DA81494B5B78DBB2F62B40F0D481464BDB78DBB2F92B40F0CE810023BB7316E00023FB730DE076
:40520000BA7BF97B404813465B001344DB000B44034400229A70FB7B0133FB73FB7B172BEED9BB7B0133BB73BB7B022BE5D90023FB7320E0FB7BFA7B043232498A5CD1B2AF
:40524000314A13440A469A70FB7B2F4A13449B78DBB2002B08D0FB7B2B4A13449B78DBB203F0F003E02B03D001F070F8002398E1FB7B0133FB73FB7B0B2BDBD90023FB7375
:4052800023E0FB7B0C33FA7B11321E498A5CD1B21D4A13440A469A70FB7B0C331A4A13449B78DBB2002B09D0FB7B0C33164A13449B78DBB203F0F003E02B03D001F046F883
:4052C00000236EE1FB7B0133FB73FB7B0B2BD8D90023FB730DE0FB7BFA7B1E3209498A5CD1B2094A13440A4683F84A20FB7B0133FB73FB7B042BEED9BB79022B6CD100232F
:40530000FB7324E09087FF1F6882FF1FFB7BFA7B2E32A6498A5CD1B2A54A13440A469A76FB7BA34A13449B7EDBB2002B08D0FB7B9F4A13449B7EDBB203F0F003E02B03D0F2
:4053400001F004F800232CE1FB7B0133FB73FB7B0B2BDBD90023FB7323E0FB7B0C33FA7B3B3292498A5CD1B2914A13440A469A76FB7B0C338E4A13449B7EDBB2002B09D009
:40538000FB7B0C338A4A13449B7EDBB203F0F003E02B03D000F0DAFF002302E1FB7B0133FB73FB7B0B2BD8D90023FB730DE0FB7BFA7B48327D498A5CD1B27D4A13440A46DF
:4053C00083F84F20FB7B0133FB73FB7B042BEED900F0BCFF0223E4E0BB79032B40F0D4800023FB7320E0FB7BFA7B2E326F498A5CD1B26F4A13440A469A76FB7B6C4A1344D5
:405400009B7EDBB2002B08D0FB7B694A13449B7EDBB203F0F003E02B03D000F097FF0023BFE0FB7B0133FB73FB7B0B2BDBD90023FB7323E0FB7B0C33FA7B3B325B498A5C64
:40544000D1B25B4A13440A469A76FB7B0C33584A13449B7EDBB2002B09D0FB7B0C33544A13449B7EDBB203F0F003E02B03D000F06DFF002395E0FB7B0133FB73FB7B0B2B29
:40548000D8D90023FB730DE0FB7BFA7B483247498A5CD1B2464A13440A4683F84F20FB7B0133FB73FB7B042BEED90023FB7323E0FB7BFA7B58323D498A5CD1B23C4A1344E5
:4054C0000A4683F83220FB7B394A134493F83230DBB2002B09D0FB7B354A134493F83230DBB203F0F003E02B03D000F02FFF002357E0FB7B0133FB73FB7B0B2BD8D9002327
:40550000FB7326E0FB7B0C33FA7B653227498A5CD1B2274A13440A4683F83220FB7B0C33234A134493F83230DBB2002B0AD0FB7B0C331F4A134493F83230DBB203F0F003AB
:40554000E02B03D000F002FF00232AE0FB7B0133FB73FB7B0B2BD5D90023FB730DE0FB7BFA7B723211498A5CD1B2114A13440A4683F85420FB7B0133FB73FB7B042BEED978
:4055800000F0E4FE03230CE000F0E0FE012308E000F0DCFE002304E000F0D8FE002300E0002318461037BD4680BD00BF9087FF1F6882FF1F80B582B000AF03460A46FB7174
:4055C0001346BB80FB79012B1ED1AA2001F0A2FD702001F09FFDBB881B0A9BB2DBB2184601F098FDBB88DBB2184601F093FDCC2001F090FD332001F08DFDC32001F08AFDA9
:405600003C2001F087FD1DE0AA2001F079FE702001F076FEBB881B0A9BB2DBB2184601F06FFEBB88DBB2184601F06AFECC2001F067FE332001F064FEC32001F061FE3C2079
:4056400001F05EFE0837BD4680BD00BFB0B588B000AF0446084611461A462346FB710346BB710B46BB8013467B80294B07F10C041D4628686968AA68EB680FC42B8A23800A
:405680007A8813465B0013449B001B12DBB2BB737B88DBB21A46520013449B00DBB2FB73BA8813461B019B1A1B12DBB23B74BB88DBB21A461201D31ADBB27B7497F83030BB
:4056C0002333DBB2BB74BB797B760023FB7718E0FB79012B09D1FB7F07F12002134413F8143C184601F016FD08E0FB7F07F12002134413F8143C184601F002FEFB7F013399
:40570000FB77FB7F112BE3D92037BD46B0BD00BF9CA8000080B584B000AF0346FB71FB79012B29D1002001F0A5FE4FF4FA7000F05DFC012001F09EFE052000F057FC01F0A3
:40574000B3FE0346002B01D100233EE0412000F04DFC01F0A9FE0346002B0CBF01230023DBB2FB73F02000F041FCFB7B002B01D001232AE0002328E0002001F0A3FE4FF441
:40578000FA7000F033FC012001F09CFE052000F02DFC01F0B5FE0346002B01D1002314E0412000F023FC01F0ABFE0346002B0CBF01230023DBB2FB73F02000F017FCFB7B61
:4057C000002B01D0012300E0002318461037BD4680BD00BF80B584B000AF03460A46FB711346BB71FB79012B3BD10023FB7333E0002001F03FFE0A2000F0F8FBBA79FB7BEC
:4058000042FA03F303F00103002B0CD0012001F031FE0A2000F0EAFB01F046FE0346002B0ED1002358E0002001F024FE0A2000F0DDFB01F039FE0346002B01D000234BE035
:40584000322000F0D3FB012001F014FE322000F0CDFBFB7B0133FB73FB7B072BC8D901233AE00023FB7333E0002001F02BFE0A2000F0BCFBBA79FB7B42FA03F303F00103CA
:40588000002B0CD0012001F01DFE0A2000F0AEFB01F036FE0346002B0ED100231CE0002001F010FE0A2000F0A1FB01F029FE0346002B01D000230FE0322000F097FB012021
:4058C00001F000FE322000F091FBFB7B0133FB73FB7B072BC8D9012318461037BD4680BD80B584B000AF0346FB710023BB73FB79012B25D10023FB731DE0002001F0BAFD77
:405900000E2000F073FB012001F0B4FD072000F06DFB01F0C9FD03461A46FB7B02FA03F3DAB2BB7B1343DBB2BB73642000F05EFBFB7B0133FB73FB7B072BDED9BB7B24E080
:405940000023FB731DE0002001F0BCFD0E2000F04DFB012001F0B6FD072000F047FB01F0CFFD03461A46FB7B02FA03F3DAB2BB7B1343DBB2BB73642000F038FBFB7B013359
:40598000FB73FB7B072BDED9BB7B18461037BD4680BD00BF80B485B000AF03460A46FB711346BB71FA79BB795340FB710023FB7312E0FB7903F00103002B07D0FB795B0831
:4059C000DBB283F07303DB43FB7102E0FB795B08FB71FB7B0133FB73FB7B072BE9D9FB7918461437BD465DF8047B704780B400AFFEE700BF80B584B000AF7860104B1A6801
:405A00007B6813441A460F4BD31AB3F5805F09DC0B4B1B68FB600A4B1A687B681344084A136007E002F0DCFC02460C2313604FF0FF33FB60FB6818461037BD4680BD00BFA1
:405A40004C81FF1F2890FF1F80B586B000AF224B7B61224B3B61204B7B6135E03B691B68FB603B695B68BB603B699B683B6000237B600CE0FB681A68BB681A60BB68043391
:405A8000BB60FB680433FB607B6804337B607A683B689A42EED13B69DB683B6000237B6008E0BB6800221A60BB680433BB607B6804337B607A683B689A42F2D13B69103325
:405AC0003B617B69013B7B617B69002BC6D102F08DFCFDF773FCFEE70100000000AB000080B582B000AF174B174A1A60174A174B1B6843F40073136000237B600FE07B6873
:405B0000032B04D8124A7B6852F8233000E0114B11497A6841F822307B6801337B607B682F2BECD90D4B1B78DAB20D4B1A700D4B094A1A6000F042F90B4B00221A600837AE
:405B4000BD4680BD0CED00E00004FA0514ED00E000000000ED5900000080FF1FBC7600400481FF1F08ED00E00081FF1F80B582B000AF78603960786800213A6802F067FC3C
:405B80000837BD4680BD00BF80B584B000AFF860B9607A60F868B9687A6802F04DFC1037BD4680BD80B483B000AF0346FB71FEE780B487B000AF7860396000233B61002302
:405BC0007B6127E07B699B007A6813441B68BB60BB68FB73BB6823F0FF03BB6014E03B695B003A6813441B781A46BB68134419463B695B003A6813445B780B703B690133B2
:405C00003B61FB7B013BFB73FB7B002BE7D17B6901337B617B69292BD4D91C37BD465DF8047B704780B582B000AF3D4B81221A803C4B18221A703C4B81221A803B4B1822EB
:405C40001A703B4B4FF443721A803A4B18221A70394B40F217521A80384B18221A70384B4EF65F221A80374B18221A70364B02221A704FF0402308221A70344B03221A705E
:405C8000334B344A1278D2B21A70334B14221A80324B41F251221A800023FB7019237B6014E0FB785B00DAB22D4B1B78DBB203F00103DBB21343DBB203F00303FB704FF4AC
:405CC000F07000F055F97B68013B7B607B68002B02D0FB78032BE4D17B68002B02D10320FFF760FF1F4B4FF480721A801D4B07221A701D4B00221A701C4B48221A70194B56
:405D000000221A701A4B02221A701A4A194B1B78DBB243F01F03DBB213700837BD4680BD80400040824000408440004086400040884000408A4000408C4000408E400040A0
:405D400090400040924000400043004000420040A14600400801004922420040204200402542004004400040064000400840004001400040A243004080B483B000AF0B4BF2
:405D80001B78FB710A4AFB7903F00703DBB21370084AFB791B09DBB21370074B44221A700C37BD465DF8047B704700BFCF0100496E5800406F5800407658004080B586B0A4
:405DC00000AF72B6514B01221A70FFF72BFF504A4F4B1B78DBB243F00403DBB213700023FB7513E0FA7D13465B0013445B00494A13443B613B691A683B699B889BB210464C
:405E00001946FFF7B3FEFB7D0133FB75FB7D0C2BE8D90023FB751CE0FA7D13469B0013445B003D4A1344FB60FB681B68BB60FB685B687B60FB681A7A5B7A1B0213437B80AF
:405E40007B88B86879681A46FFF79EFEFB7D0133FB75FB7D052BDFD94FF090402F49FFF7A7FE2F4A2E4B1B78DBB243F00203DBB213702C4A2B4B1B78DBB243F00203DBB263
:405E80001370294A284B1B78DBB243F04003DBB21370264A254B1B78DBB243F01003DBB21370234823490A22FFF76EFE224823490A22FFF769FE224822490A22FFF764FE60
:405EC000214822490A22FFF75FFE214821490A22FFF75AFE204821490A22FFF755FE204820490A22FFF750FE1F4A1F4B1B78DBB243F00803DBB21370FFF73EFF1B480A4950
:405F00000E22FFF741FE1837BD4680BD00480040E8460040E4A8000034A90000A80000480350014013500140A0430040C2430040C051004088120048F051004094120048DC
:405F400010510040A012004820510040AC12004840510040B812004850510040C412004860510040D012004822430040B04300400230800803D000BF01380046FCD17047AB
:405F8000EFF3108072B6704780F31088704700BF80B483B000AF0346FB7101BE0C37BD465DF8047B704700BF80B582B000AF786008E00C4B1B681846FFF7DAFF7B68A3F59D
:405FC00000437B607B68B3F5004FF2D8064B1B687A6802FB03F31846FFF7CAFF0837BD4680BD00BF5C81FF1F5481FF1F80B582B000AF0346FB80FB88044A127802FB03F3C5
:406000001846FFF7B5FF0837BD4680BD5881FF1F80B483B000AF03460A46FB711346BB711D491D4B1B78DBB223F00303DAB2FB7903F00303DBB21343DBB20B70164A164B96
:406040001B78DBB263F07F03DBB21370124A124B1B78DBB203F07F03DBB213700E49BB795B01DBB203F06003DAB20B4B1B78DBB223F06003DBB21343DBB20B70064A064BEF
:406080001B78DBB243F01003DBB213700C37BD465DF8047B704700BF8343004080B400AF034B01221A70BD465DF8047B704700BF8443004080B584B000AF03463960FB713C
:4060C0000F4B1B68FB60FB791F2B02D90020FFF75FFFFB7903F01F0310339B00FA6813441B68BB60FB7903F01F0310339B00FA6813443A681A60BB6818461037BD4680BD59
:4061000008ED00E080B582B000AF03460A46FB711346BB71BB79072B02D90020FFF738FFFB791F2B02D90020FFF732FFFB7903F01F0303F1604303F56443BA795201D2B2B3
:406140001A700837BD4680BD80B500AF054B1B78002B04D100F008F8024B01221A7000F02FF880BD1E82FF1F80B500AF05200D49FFF7A0FF05200121FFF7C4FF0A4B0022E8
:406180001A700A4B72221A70094B20221A70094B06221A70084B47221A70084B00221A7080BD00BFFD6300001F82FF1F886500408864004028640040386400408B6500402B
:4061C00080B582B000AFFFF7DBFE0346FB71114A104B1B78DBB243F02003DBB213700E4A0D4B1B78DBB243F01003DBB213700B4B20221A600A4A0A4B1B78DBB243F0100382
:40620000DBB21370FB791846FFF7BEFE0837BD4680BD00BF986500409864004000E100E09B65004080B483B000AF1C4B20221A601B4B1B88BB801B4B1B887B801A4B1B7899
:40624000DBB2002B03D1BA887B889A4218D0BB88164AD35CFB71BB880133BB80BB88FF2B01D90023BB800E4ABB8813800E4B1B78DBB2002B03D00C4B00221A7003E002E087
:406280000B4B1B78FB710B4B20221A60FB7918460C37BD465DF8047B704700BF80E100E02082FF1F2282FF1F2482FF1F9087FF1F4865004000E100E080B483B000AF1E4B2C
:4062C00020221A601D4B1B889AB21D4B1B889BB29A420BD11B4B1B78DBB2002B03D04FF48073FB801EE00023FB801BE0134B1B889AB2134B1B889BB29A4208D2104B1B8860
:406300009AB20E4B1B889BB2D31AFB800AE00C4B1B889AB2094B1B889BB2D31A9BB203F58073FB80084B20221A60FB8818460C37BD465DF8047B704780E100E02082FF1F8A
:406340002282FF1F2482FF1F00E100E080B582B000AFFFF715FE0346FB71144A134B1B78DBB243F00103DBB21370104A0F4B1B78DBB223F00103DBB21370FB791846FFF71C
:4063800003FE0B4B20221A600A4B00221A800A4B00221A80094B00221A70094B00221A70084B20221A600837BD4680BD9865004080E100E02082FF1F2282FF1F2482FF1F56
:4063C0002582FF1F00E100E080B483B000AF0346FB7100BF074B1B78DBB203F00403002BF8D1054AFB7913700C37BD465DF8047B704700BF6B6500404B65004080B483B0F0
:4064000000AF0023FB712B4B1B78BB71BB797B71BB7903F01E03002B0BD0BB7903F01E03DAB2254B1B78DBB21343DBB2DAB2224B1A70BB7903F02003002B30D01F4B1B783F
:406440007B711F4B1B889BB219461E4A7B7953540123FB71FB79002B21D01B4B1B78DBB2002B02D0194B01221A70154B1B889BB201339AB2124B1A80114B1B889BB2FF2B83
:4064800002D90F4B00221A800D4B1B889AB2104B1B889BB29A4202D10B4B01221A70BB7903F02003002BAED10C37BD465DF8047B704700BF686400401F82FF1F486500406B
:4064C0002282FF1F9087FF1F2482FF1F2582FF1F2082FF1F80B483B000AF1C4B01221A601B4B1B78BB711B4B1B787B711A4B1B78DBB2002B03D1BA797B799A4218D0BB7995
:40650000164AD35CFB71BB790133BB71BB79C72B01D90023BB710E4ABB7913700E4B1B78DBB2002B03D00C4B00221A7003E002E00B4B1B78FB710B4B01221A60FB79184615
:406540000C37BD465DF8047B704700BF80E100E02A82FF1F2B82FF1F2C82FF1F9088FF1F4764004000E100E080B483B000AF1D4B01221A601C4B1B78DAB21C4B1B78DBB2DF
:406580009A420AD11A4B1B78DBB2002B02D0C823FB711DE00023FB711AE0134B1B78DAB2124B1B78DBB29A4208D2104B1B78DAB20D4B1B78DBB2D31AFB7109E00B4B1B78F8
:4065C000DAB2094B1B78DBB2D31ADBB2383BFB71084B01221A60FB7918460C37BD465DF8047B704780E100E02A82FF1F2B82FF1F2C82FF1F00E100E080B582B000AFFFF740
:40660000BFFC0346FB71144A134B1B78DBB243F00103DBB21370104A0F4B1B78DBB223F00103DBB21370FB791846FFF7ADFC0B4B01221A600A4B00221A700A4B00221A7066
:40664000094B00221A70094B00221A70084B01221A600837BD4680BD9764004080E100E02A82FF1F2B82FF1F2C82FF1F2D82FF1F00E100E080B483B000AF0346FB7100BFB6
:40668000074B1B78DBB203F00403002BF8D1054AFB7913700C37BD465DF8047B704700BF6A6400404A64004080B500AF054B1B78002B04D100F008F8024B01221A7000F007
:4066C0002FF880BD3082FF1F80B500AF04200D49FFF7F0FC04200021FFF714FD0A4B00221A700A4B72221A70094B20221A70094B06221A70084B47221A70084B00221A70FB
:4067000080BD00BFCD6800003182FF1F836400408C64004020640040306400408764004080B582B000AFFFF72BFC0346FB71124A114B1B78DBB243F02003DBB213700F4ABE
:406740000E4B1B78DBB243F01003DBB213700C4B10221A600B4A0B4B1B78DBB243F01003DBB2137000F0C6FBFB791846FFF70CFC0837BD4680BD00BF936400409C640040F0
:4067800000E100E09764004080B483B000AF1E4B10221A601D4B1B889AB21D4B1B889BB29A420BD11B4B1B78DBB2002B03D040F2DC53FB801EE00023FB801BE0134B1B8853
:4067C0009AB2134B1B889BB29A4208D2104B1B889AB20E4B1B889BB2D31AFB800AE00C4B1B889AB2094B1B889BB2D31A9BB203F2DC53FB80084B10221A60FB8818460C37DE
:40680000BD465DF8047B704780E100E03282FF1F3482FF1F3682FF1F00E100E080B582B000AFFFF7ADFB0346FB71144A134B1B78DBB243F00103DBB21370104A0F4B1B7879
:40684000DBB223F00103DBB21370FB791846FFF79BFB0B4B10221A600A4B00221A800A4B00221A80094B00221A70094B00221A70084B10221A600837BD4680BD936400402D
:4068800080E100E03282FF1F3482FF1F3682FF1F3782FF1F00E100E080B483B000AF0346FB7100BF074B1B78DBB203F00403002BF8D1054AFB7913700C37BD465DF8047B39
:4068C000704700BF676400404B64004080B483B000AF0023FB712C4B1B78BB71BB797B71BB7903F01E03002B0BD0BB7903F01E03DAB2264B1B78DBB21343DBB2DAB2234B9D
:406900001A70BB7903F02003002B32D0204B1B787B71204B1B889BB219461F4A7B7953540123FB71FB79002B23D01C4B1B78DBB2002B02D01A4B01221A70164B1B889BB2A5
:4069400001339AB2134B1A80124B1B889BB240F2DB52934202D90F4B00221A800D4B1B889AB2104B1B889BB29A4202D10B4B01221A70BB7903F02003002BACD10C37BD46B1
:406980005DF8047B704700BF6C6400403182FF1F436400403482FF1F5889FF1F3682FF1F3782FF1F3282FF1F80B500AF134B02221A70134B81221A70124B08221A70124B8A
:4069C00026221A70114B00221A70114B4FF400421A600F200521FFF795FB0F200D49FFF769FB0D4B10221A700C4B00221A700C4B00221A700B4B00221A7080BDD6490040F0
:406A0000C8490040CA490040DB490040DC49004080E100E0996A0000348FFF1F3A8FFF1F3C8FFF1F388FFF1F80B582B000AFFFF7A7FA0346FB710B4A0A4B1B78DBB243F0B0
:406A40000403DBB21370084A074B1B78DBB243F00403DBB21370FB791846FFF795FA0837BD4680BDA5430040B543004080B500AF074B1B78002B04D1FFF796FF044B0122F5
:406A80001A70FFF7D1FF034B4FF400421A6080BD3A82FF1F00E100E080B582B000AFA84B1B78FB71A74B1B78DBB203F04003DBB2002B00F0AC81FB7903F00103002B00F0B6
:406AC0008381A04B1B78DBB2453B052B00F2788101A252F823F000BFF16A0000196C0000C16D0000C16D0000F16A0000076D0000FB7923F02003FB71FB7903F00A03DBB20B
:406B0000082B46D18F4B1B78DBB2452B3AD18E4B1B78DBB2002B0FD08C4A8D4B1B681B78DBB21370864B04221A708A4B01221A70844B46221A706EE0874B1B78DBB203F0C8
:406B40000203002B0FD0854B1B78DBB243F00A03DAB2824B1A707B4B60221A70804B4FF400421A6057E07F4A7E4B1B78DBB243F01003DBB213707C4B10221A70704B0422B4
:406B80001A7048E06E4B00221A706E4B4A221A701AE1FB7903F00A03DBB20A2B37D16F4B1B78DBB263F05F03DAB26C4B1A706A4B1B78DBB203F00203002B19D0614B1B785A
:406BC000DBB203F00803002B01D0092300E00A23DAB2624B1B78DBB21343DAB25F4B1A70584B60221A705E4B4FF400421A6012E05C4A5C4B1B78DBB243F01003DBB213705A
:406C0000594B10221A704E4B04221A70DCE00020FFF7BEF9D8E0D7E0FB7903F00203002B42D14C4B1B78DAB2474B1B78DBB29A4214D2464A464B1B6846490978C9B20B4461
:406C40001B78DBB213703E4B04221A70414B1B78DBB20133DAB23F4B1A7053E03E4B1B78DBB203F00203002B0FD03C4B1B78DBB243F00A03DAB2394B1A70324B60221A70D0
:406C8000374B4FF400421A603CE0364A354B1B78DBB243F01003DBB21370334B10221A70274B04221A708FE02B4B1B78DBB203F00203002B0FD0294B1B78DBB263F065030F
:406CC000DAB2264B1A701F4B60221A70244B4FF400421A6016E0234A224B1B78DBB243F01003DBB21370204B10221A70144B04221A701A4B1B78DBB263F06F03DAB2174B75
:406D00001A7061E060E0194B1B68194A1278D2B213440E4A1278D2B21A70154B1B78DBB20133DAB2124B1A70114B1B78DAB2114B1B78DBB29A421FD2014B10221A703EE098
:406D4000D7490040348FFF1F3B8FFF1FD8490040408FFF1F388FFF1F398FFF1F3A8FFF1F80E100E0D6490040D9490040448FFF1F3C8FFF1F488FFF1F2C4B1B78DBB203F08F
:406D80000203002B0FD02A4B1B78DBB243F00903DAB2274B1A70274B60221A70264B4FF400421A600BE0254A244B1B78DBB243F01003DBB21370224B00221A7004E003E05B
:406DC0000020FFF7E5F800BFFB7903F02003002B28D0184B1B78DBB203F00803002B01D0012300E00223DAB2114B1B78DBB21343DAB20F4B1A70114A104B1B78DBB223F0D7
:406E00001003DBB213700B4B10221A700AE0094B1B78DBB203F01003DBB2002B02D1054B10221A700837BD4680BD00BF398FFF1F3A8FFF1F348FFF1F80E100E0D649004096
:406E4000D749004080B582B000AF786000F046F8786800F013F8072000F022F800F032F80837BD4680BD00BF80B500AF00F036F8014800F003F880BDED59000080B485B010
:406E800000AF7860054B1B68FB60FB6890337A681A601437BD465DF8047B704708ED00E080B483B000AF0346FB71054AFB795B01DBB213700C37BD465DF8047B704700BF63
:406EC00014E400E080B400AF034B4FF480121A60BD465DF8047B704700E100E080B400AF034B4FF480121A60BD465DF8047B704780E100E080B400AF094A094B1B78DBB2F2
:406F000043F00403DBB21370064A064B1B78DBB243F00403DBB21370BD465DF8047B7047A2430040B243004080B500AF054B1B78002B04D100F008F8024B01221A7000F073
:406F40002FF880BD3B82FF1F80B500AF01200D49FFF7B0F801200221FFF7D4F80A4B00221A700A4B72221A70094B20221A70094B06221A70084B47221A70084B00221A70F4
:406F800080BD00BF497100003C82FF1F816400408064004024640040346400408564004080B582B000AFFEF7EBFF0346FB71124A114B1B78DBB243F02003DBB213700F4AEC
:406FC0000E4B1B78DBB243F01003DBB213700C4B02221A600B4A0B4B1B78DBB243F01003DBB2137000F012FAFB791846FEF7CCFF0837BD4680BD00BF916400409064004077
:4070000000E100E09564004080B483B000AF1D4B02221A601C4B1B78DAB21C4B1B78DBB29A420AD11A4B1B78DBB2002B02D00823FB711DE00023FB711AE0134B1B78DAB25A
:40704000124B1B78DBB29A4208D2104B1B78DAB20D4B1B78DBB2D31AFB7109E00B4B1B78DAB2094B1B78DBB2D31ADBB20833FB71084B02221A60FB7918460C37BD465DF841
:40708000047B704780E100E03D82FF1F3E82FF1F3F82FF1F00E100E080B582B000AFFEF76FFF0346FB71144A134B1B78DBB243F00103DBB21370104A0F4B1B78DBB223F0C6
:4070C0000103DBB21370FB791846FEF75DFF0B4B02221A600A4B00221A700A4B00221A70094B00221A70094B00221A70084B02221A600837BD4680BD9164004080E100E07D
:407100003D82FF1F3E82FF1F3F82FF1F4082FF1F00E100E080B483B000AF0346FB7100BF074B1B78DBB203F00403002BF8D1054AFB7913700C37BD465DF8047B704700BF54
:40714000656400404564004080B483B000AF0023FB712B4B1B78BB71BB797B71BB7903F01E03002B0BD0BB7903F01E03DAB2254B1B78DBB21343DBB2DAB2224B1A70BB79D7
:4071800003F02003002B30D01F4B1B787B711F4B1B78DBB219461E4A7B7953540123FB71FB79002B21D01B4B1B78DBB2002B02D0194B01221A70154B1B78DBB20133DAB2C5
:4071C000124B1A70114B1B78DBB2072B02D90F4B00221A700D4B1B78DAB2104B1B78DBB29A4202D10B4B01221A70BB7903F02003002BAED10C37BD465DF8047B704700BFF1
:40720000606400403C82FF1F416400403E82FF1F4C8FFF1F3F82FF1F4082FF1F3D82FF1F80B500AF054B1B78002B04D100F008F8024B01221A7000F02FF880BD4282FF1F2F
