:400000000080002011000000795C0000795C000080B500AF024A034B1B68136005F05AFEBC760040FA46004010B5054C237833B9044B13B10448AFF300800123237010BD10
:400040000082FF1F00000000F8A80000084B10B51BB108480849AFF300800848036803B910BD074B002BFBD0BDE81040184700BF00000000F8A800000482FF1F0881FF1F0F
:400080000000000090B583B000AF694B00221A8062B606F05FFB06F05FFD06F095F906F0B9FF07F033F907F0E7FD624B002283F85920604B002283F85A205E4B002283F8F4
:4000C0005B205D4B002283F859205B4B002283F85A20594B002283F85B200023FB7108E0FB79564A1344012283F83320FB790133FB71FB790F2BF3D9052006F095F80D2315
:40010000FB710EE0FB79A3F10D04FB799BB2184607F048FE03461A46494B1A55FB790133FB71FB790E2BEDD90F2007F03BFE03461A46404B83F85C20102007F033FE034692
:400140001A463C4B83F85920112007F02BFE03461A46384B83F85A20122007F023FE03461A46344B83F85B20132007F01BFE03461A46314B83F85C20142007F013FE0346E6
:400180001A462D4B83F85920152007F00BFE03461A46294B83F85A20162007F003FE03461A46254B83F85B20172007F0FBFD03461A46244B1A701E2007F0F4FD03461A4658
:4001C000214B5A701F2007F0EDFD03461A461E4B9A70202007F0E6FD03461A461A4BDA701A2007F0DFFD03461A46124B1A701C2007F0D8FD03461A460F4B1A700D4B01226E
:400200005A700D4B01225A70104B00221A70094B032283F85C200C4B00229A700A4B0322DA70052006F000F80C37BD4690BD00BF2883FF1F5486FF1F5882FF1FD886FF1F57
:400240003C85FF1F3E85FF1FD882FF1F5286FF1F80B582B000AF03460A46FB711346BB80FB79012B13D1BB880120194605F0E8FA104B64221A70104B01221A700F4B012293
:400280005A700F4807F0C2F907F08AFA0FE0BB880220194605F0D4FA0A4B64221A700A4B01221A70094807F0ADFB07F05DFB0837BD4680BD5585FF1F2885FF1F5486FF1F9A
:4002C000853500000384FF1FC082FF1FF935000080B582B000AF0023FB717BE10023FB71C04B1B78DBB2FF2B04D0BF4B1B78DBB2FF2B58D100BF03F023FA0346002BFAD0CE
:4003000000BFB84B1B78DAB2B64B93F85C30DBB21046194604F04AFA0346002BF1D0322005F082FF00BFB04B1B78DAB2AE4B93F85C30DBB21046194604F038FA0346002B88
:40034000F1D0322005F070FFA64B1B78DBB218461A2107F097FC0346002B04D101203C2105F06EFA03E00120552105F069FA9E4B1B78DBB218461C2107F084FC0346002B4D
:4003800004D102203C2105F05BFA03E00220552105F056FA954B00221A70954B00221A700223FB7116E18F4B1B78DBB2184603F07BF90346BB71BB790C2B7BD801A252F860
:4003C00023F000BFF9030000B5040000B5040000B5040000B5040000B5040000010400003D040000670400007504000091040000830400009F0400007A4BFF221A7059E000
:40040000784B1B78DBB2184603F0A8FA322005F00BFF744B1B78DAB2724B93F85C30DBB21046194604F0C2F9322005F0FDFE704B00221A70FB790133FB713BE0694B1B78D3
:40044000DAB2684B93F85C30DBB21046194604F0ADF9322005F0E8FE654B00221A70FB790133FB7126E0624B0B221A70FB790133FB711FE05E4B0B221A70FB790133FB71BC
:4004800018E05B4B0C221A70FB790133FB7111E0574B0C221A70FB790133FB710AE0544B0B221A700120082105F0CAF9FB790133FB7100BF4C4B1B78DBB2184603F0F4F86A
:4004C0000346BB71BB790C2B00F2848001A252F823F000BF09050000D5050000D5050000D5050000D5050000D5050000110500004D050000770500008D050000B1050000EB
:40050000A3050000BF050000374BFF221A7061E0354B1B78DBB2184603F020FA322005F083FE314B1B78DAB22F4B93F85C30DBB21046194604F03AF9322005F075FE2B4B49
:4005400000221A70FB790133FB7143E0264B1B78DAB2254B93F85C30DBB21046194604F025F9322005F060FE204B00221A70FB790133FB712EE01D4B0B221A7002200821E5
:4005800005F05EF9FB790133FB7123E0174B0B221A700220082105F053F9FB790133FB7118E0124B0C221A70FB790133FB7111E00E4B0C221A70FB790133FB710AE00B4BA8
:4005C0000B221A700220082105F03AF9FB790133FB7100BFFB79022B7FF480AE0837BD4680BD00BF5486FF1F5882FF1F0384FF1F5585FF1F80B586B000AF06F01BF9034684
:40060000022B40F2638206F015F903463B820A2005F00AFE06F00EF90346FB813A8AFB899A4240F05382924B1B78DBB2422B40F045828F4B5B78DBB2422B40F03F828C4B8A
:400640009B78DBB2422B40F039828A4B00221A70874BDB78DBB2312B00F0DE81452B00F0ED81302B40F01682814B0022DA70804B5B79DBB24E2B0AD17D4B1B79DBB203F01F
:400680000F03DBB218461C21FFF7E2FD02E2784B9B7ADBB2462B7DD1774B9B7E5A1E774913469B0013440B4448339B78DBB203F00F03DBB23B72704B9B7E5A1E6F491346BF
:4006C0009B0013440B4449339B78DBB203F00F03DBB27B72684B9B7E5A1E684913469B0013440B444A339B78DBB203F00F03DBB2BB72614B9B7E5A1E604913469B00134482
:400700000B444B339B78DBB203F00F03DBB2FB72594B9B7E5A1E594913469B0013440B444C339B78DBB203F00F03DBB23B73534B1B78DBB203F00F03D9B24F4B9B7E07F184
:400740000802084611461A4603F0F2FE0346002B40F09A804A4B4D221A70494B55225A70474B58229A70464B4522DA70444B30221A713F4B1B79DAB2414B5A71404B3122C3
:400780009A713F4B2A22DA710823FB82394B01221A707FE1394B1B78DAB2384B93F85C30DBB21046194604F001F8364B1B78DBB2012B11D12E4B5B7ADBB23B732C4B1B7A24
:4007C000DBB2FB722A4BDB79DBB2BB72284B9B79DBB27B7200233B722A4B1B78DBB2002B13D1234B9B7ADBB23B73214B5B7ADBB2FB721F4B1B7ADBB2BB721D4BDB79DBB20C
:400800007B721B4B9B79DBB23B721C4B1B78DBB203F00F03D9B2184B9B7E07F10802084611461A4603F084FE0346002B2CD1144B4D221A70124B55225A70114B58229A70C1
:400840000F4B4522DA700E4B30221A71084B1B79DAB20B4B5A710A4B31229A71084B2A22DA710823FB82034B01221A7012E100BF8088FF1F2A83FF1FD886FF1F5486FF1F4C
:400880006084FF1F3E85FF1F924B5B7CDBB27B70904B5B7CDBB22C2B06D08E4B5B7CDBB203F00F03DBB27B708A4B1B7CDBB2BB70884B1B7CDBB22C2B06D0864B1B7CDBB2C6
:4008C00003F00F03DBB2BB70824BDB7BDBB2FB70804BDB7BDBB22C2B06D07E4BDB7BDBB203F00F03DBB2FB707A4B9B7BDBB23B71784B9B7BDBB22C2B06D0764B9B7BDBB291
:4009000003F00F03DBB23B71724B5B7BDBB27B71704B5B7BDBB22C2B06D06E4B5B7BDBB203F00F03DBB27B716A4B1B7BDBB2BB71684B1B7BDBB22C2B06D0664B1B7BDBB2AD
:4009400003F00F03DBB2BB71624BDB7ADBB2FB71604BDB7ADBB22C2B06D05E4BDB7ADBB203F00F03DBB2FB715A4B9B7CDBB27B827B8A312B02D102237B8201E001237B82DD
:40098000554B1B78DBB203F00F03D8B2534B997E7B8ADBB23A4603F08BF90346012B1BD10A2005F041FC4C4B1B78DBB2DBB203F00F03DBB243F01003DBB2DBB2184605F064
:4009C00043FE454B06225A70454B08221A700120082104F035FF5DE0424B4D221A70414B55225A703F4B58229A703E4B4522DA703C4B30221A71374B1B79DAB2394B5A7151
:400A0000384B32229A71374B2A22DA710823FB82354B01221A703DE00120372104F010FF2C4B5B79DBB2322B07D12B4B01225A7001200C21FFF70CFC2CE02BE0254B5B7936
:400A4000DBB2313B032B24D801A252F823F000BF610A0000710A0000810A0000910A00001D4B01225A7001201C21FFF7F1FB10E0194B01225A7001200C21FFF7E9FB08E0A2
:400A8000154B01225A7001200C21FFF7E1FB00E000BF00BF144B1B78012B0FD10023BB8208E0BB8A0F4AD35C184605F04BFFBB8A0133BB82BA8AFB8A9A42F2D305F004FFA3
:400AC00005F084FD00233B820023FB811837BD4680BD00BF8088FF1F5486FF1FD886FF1F5585FF1F6084FF1F2A83FF1FB0B58EB002AFDD4B1B78DBB2662B02F2368501A2D5
:400B000052F823F0A10C0000BB0C0000E70C0000C30F00006D100000931200005F1300006B350000BB130000351500006B350000A1190000E11A00009D250000352B00005C
:400B40005B2D0000792E0000632F000005300000653400006B3500006B3500006B3500006B3500006B3500006B3500006B3500006B3500006B3500006B3500006B35000006
:400B80006B3500006B3500006B3500006B3500006B3500006B3500006B3500006B3500006B3500006B3500006B3500006B3500006B3500006B3500006B3500006B35000035
:400BC0006B3500006B3500006B3500006B3500006B3500006B3500006B3500006B3500006B3500006B3500006B3500006B3500006B3500006B3500006B3500006B350000F5
:400C00006B3500006B3500006B3500006B3500006B3500006B3500006B3500006B3500006B3500006B3500006B3500006B3500006B3500006B3500006B3500006B350000B4
:400C40006B3500006B3500006B3500006B3500006B3500006B3500006B3500006B3500006B3500006B3500006B3500006B3500006B3500006B3500006B3500006B35000074
:400C80006B3500006B3500006B3500006B3500006B3500004B3500006B3500006B350000724806F0B3FC06F07BFD714B00221A706D4B01221A7002F058BC06F01BFA034660
:400CC000082B0ED106F0B4FC06F07AFD664B02221A700120632104F0B3FD06F053FA02F044BC02F042BC06F005FA0346082B40F06681604B1B78DBB2AA2B40F059815D4B28
:400D00009B79DBB2C32B40F053815A4BDB79DBB23C2B40F04D81574BDB78DBB2592B1AD0592B02DC452B0ED042E15C2B03D07E2B00F036813CE10120492104F081FD4A4B19
:400D400003221A7034E10120722104F079FD464B0F221A702CE10120392104F071FD464B4D221A70444B55225A70434B58229A70414B3222DA70414B1B78DAB23F4B93F805
:400D80005C30DBB21046194603F010FD322005F04BFA042387F82D30002387F82F3018E097F82D3097F82F2034490A449278D2B202F00F02D2B23032D1B22F4AD15497F821
:400DC0002D30013387F82D3097F82F30013387F82F3097F82F300B2BE2D90C2387F82F3018E097F82D3097F82F2024490A449278D2B202F00F02D2B23032D1B21E4AD15496
:400E000097F82D30013387F82D3097F82F30013387F82F3097F82F30172BE2D9002387F82F3018E097F82D3097F82F2013490A44927ED2B202F00F02D2B23032D1B20E4A06
:400E4000D15497F82D30013387F82D3097F82F30013387F82F3097F82F300B2BE2D90C2387F82F3025E000BF5585FF1F853500002885FF1F748EFF1F6084FF1F5486FF1F0A
:400E800097F82D3097F82F20B0490A44927ED2B202F00F02D2B23032D1B2AD4AD15497F82D30013387F82D3097F82F30013387F82F3097F82F30172BE2D9002387F82F301D
:400EC00019E097F82D3097F82F20A0490A4492F83220D2B202F00F02D2B23032D1B29C4AD15497F82D30013387F82D3097F82F30013387F82F3097F82F300B2BE1D90C2318
:400F000087F82F3019E097F82D3097F82F208F490A4492F83220D2B202F00F02D2B23032D1B28B4AD15497F82D30013387F82D3097F82F30013387F82F3097F82F30172BF8
:400F4000E1D9834B2A2283F84B2005F0BDFC002387F82F300BE097F82F307D4AD35C184605F0F0FC97F82F30013387F82F3097F82F304B2BEFD9FA2005F056F905F05AFC25
:400F80000346012B09D901204A2104F059FC714B00221A706D4B01225A7005F095FC07E001204A2104F04CFC6A4B00221A7000BF642005F039F906F0E5F802F0D6BA02F0B1
:400FC000D4BA06F097F80346082B4DD1624B1B78DBB2AA2B41D1604B9B79DBB2C32B3CD15D4BDB79DBB23C2B37D15B4BDB78DBB25F2B09D05F2B02DC5E2B10D02DE07E2BE1
:401000001BD0942B21D028E00120052104F018FC524B00221A704F4B04221A701DE00120122104F00DFC4D4B01221A70494B0B221A704B4B00221A700FE001204A2104F09C
:40104000FFFB444B00221A7007E00120632104F0F7FB404B01221A7000BF642005F0E4F806F090F802F081BA02F07FBA06F042F80346082B40F00B81374B1B78DBB2AA2BC8
:4010800040F0FE80344B9B79DBB2C32B40F0F880314BDB79DBB23C2B40F0F2802E4BDB78DBB23B2B00F0E0803B2B04DC0F2B09D0102B47D0E4E0432B00F0A2807E2B00F0CF
:4010C000D780DDE0002387F82F300AE097F82F30244A13440022DA7697F82F30013387F82F3097F82F30072BF0D91F4B00221A701B4B01221A701D4B2C221A701C4B5B7840
:40110000DAB21C4B1A70174B0122DA761A4B00221A700120062104F093FB184B04221A80174B03221A80174B01221A8001230093012024210322042304F0CEFB054B0C227B
:401140001A709DE0002387F82F3028E05486FF1F6084FF1F5585FF1F748EFF1F0284FF1FD782FF1FD886FF1F3F85FF1FB582FF1FD882FF1F0684FF1F5582FF1FB286FF1F14
:40118000DC82FF1F0084FF1F97F82F30C24A13440022DA7697F82F30013387F82F3097F82F30072BF0D9BD4B00221A70BC4B01221A70BC4B2C221A70BB4B5B78DAB2BB4BB3
:4011C0001A70B54B0222DA76B94B00221A7001200D2104F035FBB74B04221A80B64B03221A80B64B01221A8001230093012047210322042304F070FBB14B0C221A703FE0D0
:40120000002387F82F300AE097F82F30A24A13440022DA7697F82F30013387F82F3097F82F30072BF0D99C4B0322DA76052387F82F300AE097F82F30974A13440922DA764A
:4012400097F82F30013387F82F3097F82F30072BF0D90120072104F0F3FA9A4B02225A70974B06221A700BE0954B00221A7007E001204A2104F0E4FA914B00221A7000BFF1
:40128000642004F0D1FF05F07DFF02F06EB902F06CB9322004F0C8FF05F02CFF0346082B1AD1894B1B78DBB2AA2B11D1864B9B79DBB2C32B0CD1844BDB79DBB23C2B07D1DA
:4012C000814BDB78DBB27E2B02D17D4B00221A7005F058FF02F049B97A4B1B78DBB2184602F0E2F9034687F82F3097F82F30072B06D1734B06221A70322004F095FF2CE08E
:4013000097F82F30002B0ED1322004F08DFF6D4B1B78DAB207F11403104601211A46022302F0C6FC19E097F82F300C2B04D101205521FEF78DFF10E097F82F300B2B03D159
:401340005F4B0D221A7008E097F82F300A2B04D15B4B0D221A7002F008B902F006B90A2004F062FF574B1B78DBB2184602F038FA03461A46484B9A76474B9B7E002B1AD098
:40138000142004F051FF4F4B1B78DBB2184602F08BF90346072B0ED14C4B00221A80494B04225A700120392104F04AFA444B09221A7002F0DAB802F0D8B8322004F034FF80
:4013C000404B1B78DBB2184602F06EF903460A2B33D00B2B03D0062B5AD002F0C6B8642004F022FF002387F82F3010E097F82F30294A13440022DA7197F82F30264A1344D2
:4014000000221A7497F82F30013387F82F3097F82F30082BEAD92B4B1B78DBB2184602F09DFA0346012B07D1254B0D221A700120392104F005FA7BE07AE0002387F82F3001
:4014400010E097F82F30144A13440022DA7197F82F30114A134400221A7497F82F30013387F82F3097F82F30082BEAD9154B1B78DBB2184602F072FA0346012B07D1104B54
:401480000D221A700120392104F0DAF950E04FE0002387F82F302CE0D886FF1F3F85FF1FD782FF1FB582FF1FD882FF1F0684FF1F5582FF1FB286FF1FDC82FF1F0084FF1F12
:4014C0005585FF1F5486FF1F748EFF1F2883FF1F97F82F30454A13440022DA7197F82F30424A134400221A7497F82F30013387F82F3097F82F30082BEAD9002387F82F306C
:401500000AE097F82F30394A134400229A7097F82F30013387F82F3097F82F30042BF0D9334B0D221A700120392104F089F900BF02F01BB82F4B4D221A702E4B55225A700E
:401540002C4B58229A702B4B3022DA702A4B1B78012B42D1002387F82F303AE097F82F305B08DBB21A46214B134493F823301B0987F82E3097F82F3003F00103DBB2002B7F
:401580000CD197F82F305B08DBB21A46174B134493F8233003F00F0387F82E3097F82F30043397F82E203032D1B2124AD15497F82E30092B08D997F82F30043397F82E202B
:4015C0003732D1B20B4AD15497F82F30013387F82F3097F82F300F2BC0D9074B1B78002B46D1002387F82F303EE000BFD886FF1F5585FF1F6084FF1F0284FF1F97F82F30B7
:40160000B44A134493F8333003F00F0387F82E3097F82F30043397F82E203032D1B2AE4AD15497F82F3003F00103DBB2002B09D197F82F30A74A134493F8333003F00F03E1
:4016400087F82E3097F82E30092B08D997F82F30043397F82E203732D1B29F4AD15497F82F30013387F82F3097F82F300F2BC5D9984B9B7E013B994A134493F85930DBB2B6
:401680003033DAB2944B1A75954B1B79DAB2924B5A75934BDB78DAB28F4B9A75904B9B78DAB28D4BDA758E4B5B78DAB28A4B1A768C4B1B78DBB2002B59D1864B9B7E5A1E8F
:4016C000864913469B0013440B444C339B78DBB203F00F03DBB23033DAB27F4B5A767D4B9B7E5A1E7D4913469B0013440B444B339B78DBB203F00F03DBB23033DAB2764B2E
:401700009A76744B9B7E5A1E744913469B0013440B444A339B78DBB203F00F03DBB23033DAB26D4BDA766B4B9B7E5A1E6B4913469B0013440B4449339B78DBB203F00F0396
:40174000DBB23033DAB2644B1A77624B9B7E5A1E624913469B0013440B4448339B78DBB203F00F03DBB23033DAB25B4B5A775D4B1B78DBB2012B4AD1564B9B7E5A1E574936
:4017800013469B0013440B444B339B78DBB203F00F03DBB23033DAB24F4B5A764D4B9B7E5A1E4E4913469B0013440B444A339B78DBB203F00F03DBB23033DAB2464B9A76ED
:4017C000444B9B7E5A1E454913469B0013440B4449339B78DBB203F00F03DBB23033DAB23D4BDA763B4B9B7E5A1E3C4913469B0013440B4448339B78DBB203F00F03DBB249
:401800003033DAB2344B1A77334B30225A77314BDB7E3033DAB2304B9A772E4B93F822202D4BDA772B4B93F82230092B06D8294B93F822303033DAB2274BDA77254B93F846
:401840002120254B83F82020224B93F82130092B07D8204B93F821303033DAB21E4B83F820201C4B93F820201B4B83F82120194B93F82030092B07D8164B93F82030303301
:40188000DAB2154B83F82120124BDA7F124B83F82220104BDB7F092B06D80E4BDB7F3033DAB20D4B83F822200A4B9A7F0A4B83F82320084B9B7F092B06D8064B9B7F303364
:4018C000DAB2054B83F82320024B5A7F024B83F8242009E0D886FF1F6084FF1F5486FF1F2C85FF1F3E85FF1FB64B5B7F092B06D8B44B5B7F3033DAB2B34B83F82420B14B9F
:401900001A7FB14B83F82520AE4B1B7F092B06D8AC4B1B7F3033DAB2AB4B83F82520002387F82F3012E097F82F30263397F82F200132A4490A4492F843203032D1B2A24A33
:40194000D15497F82F30013387F82F3097F82F30062BE8D99C4B312283F82D209A4B2A2283F82E2004F0B0FF002387F82F300BE097F82F30944AD35C184604F0E3FF97F819
:401980002F30013387F82F3097F82F302E2BEFD94FF4AF7004F048FC04F0EEFF01F0E5BD012003F0FDFF0346012B73D10120332104F056F80346002B6CD0002387F82F3068
:4019C0000FE097F82F40012004F0D0F803461A467C4B234483F8232097F82F30013387F82F3097F82F30072BEBD9784B00221A70002387F82F3014E0744B197897F82F3002
:401A0000704A134493F823300846194604F008F903461A466D4B1A7097F82F30013387F82F3097F82F30062BE6D9664B93F82A20664B1B789A422DD10120132103F000FF61
:401A40004FF4FA7004F0F0FB614B00221A70614B0A221A70604B02221A80604B03221A805F4B01221A805F4B1B78DBB20A2B07D10120132103F0E4FE5B4B13221A7009E097
:401A8000584B02221A7001200E2103F0D9FE564B0C221A7005F02EFB0346082B1ED1534B1B78DBB2AA2B12D1504B9B79DBB2C32B0DD14E4BDB79DBB23C2B08D14B4BDB78B8
:401AC000DBB23B2B03D1484B00221A7000BF642004F0AAFB05F056FB01F047BD01F045BD05F008FB0346082B40F056853F4B1B78DBB2AA2B40F04C853C4B9B79DBB2C32BC1
:401B000040F04685394BDB79DBB23C2B40F04085374B00221A702E4B1B78DAB22D4B1B78DBB29A4280F0D880304BDB78DBB2092B32D8274B1B78DBB20133DAB2244B1A7003
:401B4000234B1B78DBB21A46284BDB78D9B2294B9954264BDB78DBB23033D9B21F4B1B889DB21B4B1B78DBB29BB21D4A128892B2013292B202FB03F39AB2174B1B889BB20A
:401B800013449CB2164B1B889BB2DBB2009301202A46234603F0A0FE144BDB78DBB20A2B57D1104B1B78DBB2012B25D1084B1B78DBB2012B20D10F4B5B78DBB2002B1BD1EA
:401BC00047E000BFD886FF1F6084FF1F2583FF1F3F85FF1F0684FF1FB286FF1FDC82FF1F0084FF1FD782FF1F5585FF1F748EFF1F2885FF1F3086FF1FAF4B1B78DBB2013341
:401C0000DAB2AD4B1A70AC4B1B78DBB21A46AB4B00219954AA4B1B889DB2A74B1B78DBB29BB2A84A128892B2013292B202FB03F39AB2A54B1B889BB213449CB2A14B1B883B
:401C40009BB2DBB20093012030212A46234603F043FE9E4BDB78DBB2512B3DD1964B1B78DBB2002B38D09A4B1B78DBB2002B33D1914B1B78DBB20133DAB28F4B1A708E4BC4
:401C80001B78DBB21A46934B1B78D9B28B4B9954904B1B78D9B28A4B1B889DB2864B1B78DBB29BB2874A128892B2013292B202FB03F39AB2844B1B889BB213449CB2814B52
:401CC0001B889BB2DBB2009301202A46234603F003FE7F4B01221A707C4BDB78DBB20B2B40F0A080744B1B78DBB2002B5ED17A4B1B78DBB2013B072B00F2948001A252F8C3
:401D000023F000BF251D0000351D00003D1D0000531D0000691D00007F1D0000251E0000951D00000120052103F08AFD6B4B04221A703AE0694B00221A7036E00120002163
:401D400003F07EFD654B00221A70654B01225A702BE00120002103F073FD604B00221A705F4B01225A7020E00120002103F068FD5A4B00221A705A4B01225A7015E00120CB
:401D8000002103F05DFD554B00221A70544B01225A700AE00120002103F052FD4F4B00221A704F4B01225A7000BF3BE0444B1B889DB2414B1B78DBB29BB2424A128892B2E4
:401DC000013292B202FB03F39AB23F4B1B889BB213449CB23B4B1B889BB2DBB20093012020212A46234603F077FD334B1B78DBB21A46324B9B5CDAB2364B1B78DBB29A425B
:401E000002D1334B00221A702B4B1B78DBB21A462A4B00219954284B1B78DBB2013BDAB2254B1A70294BDB78DBB20C2B40F0B083294B1B78DBB2013B072B00F2A98301A226
:401E400052F823F0651E0000F91F000071200000E92000004321000035220000672200000F240000002387F82F300CE097F82F3007F130021344002203F82C2C97F82F309A
:401E8000013387F82F3097F82F30072BEED90A4B1B78DBB2002B00F0AE80074B1B78DBB21A46064B9B5CDBB22C2B00F0A480012387F82F303FE000BF3F85FF1F3086FF1FC3
:401EC000DC82FF1F0084FF1FB286FF1F748EFF1F5582FF1FB582FF1FD782FF1F5585FF1F5486FF1F97F82F30BC4AD35CDBB22C2B0FD097F82F30013B97F82F20B7498A5CC9
:401F0000D2B23032D2B207F130010B4403F82C2C0CE097F82F30013B97F82F20AF498A5CD2B207F130010B4403F82C2C97F82F30013387F82F30AA4B1B78DBB297F82F2058
:401F40009A42CFD93B1D184606F07EFAC7E90801A44BDB7E012B09D1D7E908014FF00002A14B06F05DFA0346002B1AD19D4BDB7E022B40D1D7E908014FF000029B4B06F0AB
:401F800045FA0346002B00D102E3D7E908014FF000024FF0000306F04DFA0346002B00D1F6E28F4B1B7887F82F3015E097F82F308B4A1278D2B2114697F82F208A1A0132F5
:401FC00086498A5CD1B2874A13440A46DA7697F82F30013B87F82F3097F82F30002BE5D1834B05221A70834B02225A700120072103F026FCCCE2CBE20120052103F020FCC0
:40200000002387F82F300BE097F82F30754A1344002283F8432097F82F30013387F82F3097F82F300A2BEFD96D4B1B7887F82F3016E097F82F306A4A1278D2B2114697F810
:402040002F208A1A013265498A5CD1B2654A13440A4683F8432097F82F30013B87F82F3097F82F30002BE4D1614B04221A708FE25B4B1B7887F82F3018E097F82F30584AAD
:402080001278D2B2114697F82F208A1A013253498A5CD2B23032D1B2524A13440A4683F8592097F82F30013B87F82F3097F82F30002BE2D14E4B02221A700120052103F08F
:4020C000BFFB474B00221A704B4B04221A704B4B0A221A704A4B02221A804A4B03221A80494B01221A8053E23D4B1B7887F82F3018E097F82F303A4A1278D2B2114697F8D2
:402100002F208A1A013235498A5CD2B23032D1B2344A13440A4683F8642097F82F30013B87F82F3097F82F30002BE2D1304B66221A700120392103F083FB2E4B10225A70C6
:4021400026E2274B1B7887F82F3018E097F82F30234A1278D2B2114697F82F208A1A01321E498A5CD2B23032D1B21E4A13440A4683F8712097F82F30013B87F82F3097F89F
:402180002F30002BE2D1214B1A78164B93F875309A423DD11D4B5A78124B93F874309A4236D11A4B9A780F4B93F873309A422FD1164BDA780B4B93F872309A4228D10120B9
:4021C000262103F03DFBC82004F02EF80120462103F036FB064B10221A70D9E13086FF1F3F85FF1FD886FF1F0000894000208C405585FF1F5486FF1FD782FF1F0684FF1F02
:40220000B286FF1FDC82FF1F0084FF1F4481FF1F8C4B00221A700120272103F011FB8A4B01225A70C82003F0FFFF0120002103F007FBADE1854B1B78DBB21A46844B9B5CE6
:40224000DBB218461E2105F01DFD7E4B00221A7001203C2103F0F4FAC82003F0E5FF7A4B01225A7094E1774B12221A700120582103F0E6FA774B1B78013B032B00F29880B5
:4022800001A252F823F000BF99220000DF220000252300006B2300006D4B5B78DBB23033DAB26D4B1A706C4B1B78322B08D0332B0BD0312B0ED1644B012283F859200DE0DE
:4022C000614B012283F85A2008E05F4B012283F85B2003E0614B00221A7000BF68E05C4B5B78DBB23033DAB25B4B5A705A4B5B78322B08D0332B0BD0312B0ED1524B0222E5
:4023000083F859200DE0504B022283F85A2008E04D4B022283F85B2003E0514B00221A7000BF45E04A4B5B78DBB23033DAB24A4B9A70494B9B78322B08D0332B0BD0312B6B
:402340000ED1414B032283F859200DE03E4B032283F85A2008E03C4B032283F85B2003E0404B00221A7000BF22E0394B5B78DBB23033DAB2384BDA70374BDB78322B08D03A
:40238000332B0BD0312B0ED12F4B042283F859200DE02D4B042283F85A2008E02A4B042283F85B2003E0304B00221A7000BF00BF294B1A78012300930120114607222C23E7
:4023C00003F08AFA244B5A7801230093012011460E222C2303F080FA1F4B9A78012300930120114613222C2303F076FA1A4BDA78012300930120114619222C2303F06CFAAF
:40240000114B01225A70C82003F00EFFC0E0012387F82F3009E097F82F30144A0021D15497F82F30013387F82F3097F82F30042BF1D90E4B04221A70044B1B7887F82F309E
:402440002CE000BF5585FF1F5486FF1F3F85FF1F3086FF1F7D87FF1FBC82FF1F4881FF1F4981FF1F4A81FF1F4B81FF1F2C85FF1F97F82F30824A1278D2B2114697F82F20FF
:402480008A1A01327F498A5CD2B23032D1B27E4AD15497F82F30013B87F82F3097F82F30002BE5D1784B5B78DBB22F2B17D9764B9B78DBB22F2B12D8734BDB78DBB22F2B60
:4024C0000DD8714B1B79DBB22F2B08D86E4B30229A706D4B3022DA706B4B30221A716A4B5B78DBB22F2B14D9674B9B78DBB22F2B0FD9654BDB78DBB22F2B0AD8624B1B79E7
:40250000DBB22F2B05D8604B3022DA705E4B30221A715D4B5B78DBB22F2B11D95A4B9B78DBB22F2B0CD9584BDB78DBB22F2B07D9554B1B79DBB22F2B02D8534B30221A710D
:40254000082387F82F3011E097F82F30083B4E4AD35CDAB297F82F309BB21046194605F091FB97F82F30013387F82F3097F82F300C2BE9D9454B00221A7001203C2103F0D8
:402580005FF9C82003F050FE414B01225A7000BF04F0F8FD00F0E9BF00F0E7BF3D4B4D221A703C4B55225A703A4B58229A70394B3122DA70374B31221A71374B5B7E013BE1
:4025C000334A134493F85930DBB23033DAB2314B5A71314B5B7D3033DAB22E4B9A712E4B1B7D3033DAB22B4BDA712B4BDB7C3033DAB2284B1A72274B2C225A72264B9B7CD9
:402600003033DAB2234B9A72234B5B7C3033DAB2204BDA72204B1B7C3033DAB21D4B1A731E4B5B78DBB2072B3AD11B4B9B7B3033DAB2184B5A73184B5B7B3033DAB2154B37
:402640009A73154B1B7B3033DAB2124BDA73124BDB7A3033DAB20F4B1A740F4B9B7A3033DAB20C4B5A740C4B5B7A3033DAB2094B9A74094B1B7A3033DAB2064BDA7439E0A5
:402680003F85FF1F3086FF1F2C85FF1F5585FF1F5486FF1F6084FF1FD886FF1FD882FF1F664B5B7B3033DAB2654B5A73634B1B7B3033DAB2624B9A73604BDB7A3033DAB2E0
:4026C0005F4BDA735D4B9B7A3033DAB25C4B1A745A4B5B7A3033DAB2594B5A74574B1B7A3033DAB2564B9A74544BDB793033DAB2534BDA74534B1B78DBB2002B1DD14F4B13
:402700009B793033DAB24E4B1A754C4B5B793033DAB24B4B5A75494B1B793033DAB2484B9A75464BDB783033DAB2454BDA75434B9B783033DAB2424B1A76424B1B78DBB2EA
:40274000012B1AD13D4B5B793033DAB23C4B1A753A4B1B793033DAB2394B5A75374BDB783033DAB2364B9A75344B9B783033DAB2334BDA75324B30221A76334B1B79DAB2E7
:402780002F4B5A76304BDB78DAB22D4B9A762E4B9B78DAB22A4BDA762B4B5B78DAB2284B1A772A4B1B78012B43D1002387F82F303AE097F82F305B08DBB21A461F4B1344D5
:4027C00093F823301B0987F82E3097F82F3003F00103DBB2002B0CD197F82F305B08DBB21A46164B134493F8233003F00F0387F82E3097F82F301D3397F82E203032D1B2CA
:402800000F4AD15497F82E30092B08D997F82F301D3397F82E203732D1B2094AD15497F82F30013387F82F3097F82F300F2BC0D948E0002387F82F3040E000BFD886FF1F54
:402840006084FF1F3E85FF1F2C85FF1F0284FF1F97F82F30AE4A134493F8233003F00F0387F82E3097F82F3003F00103DBB2002B09D197F82F30A64A134493F8233003F088
:402880000F0387F82E3097F82F301D3397F82E203032D1B29F4AD15497F82E30092B08D997F82F301D3397F82E203732D1B2994AD15497F82F30013387F82F3097F82F301C
:4028C0000F2BC5D9944B1B8801339AB2924B1A80914B1B88914AA2FB03239B099BB2DBB23033DAB28E4B1A718B4B1B888B4AA2FB031292094FF47A7101FB02F29B1A9BB2DE
:40290000884AA2FB03235B099BB2DBB23033DAB2834BDA70804B1B88804AA2FB031292094FF47A7101FB02F29B1A9BB27D4AA2FB03125209642101FB02F29B1A9BB27A4A09
:40294000A2FB0323DB089BB2DBB23033DAB2744B9A70714B1B88714AA2FB031292094FF47A7101FB02F29B1A9BB26E4AA2FB03125209642101FB02F29B1A9AB26A4BA3FB0A
:402980000213D9080B469B000B445B00D31A9BB2DBB23033DAB2624B5A70012387F82F300EE097F82F302C3397F82F205C498A5CD1B2584AD15497F82F30013387F82F306E
:4029C00097F82F30072BECD9012387F82F3010E097F82F30524AD35CDAB297F82F309BB21046194605F04EF997F82F30013387F82F3097F82F30042BEAD9002387F82F30AE
:402A000012E097F82F30343397F82F20013240490A4492F843203032D1B23E4AD15497F82F30013387F82F3097F82F30062BE8D9384B2A2283F83B2003F046FF002387F889
:402A40002F300BE097F82F30324AD35C184603F079FF97F82F30013387F82F3097F82F303B2BEFD903F030FF4FF4967003F0DCFB03F082FF2D4B00221A70254B5B7E5A1E00
:402A80002B4913469B0013440B4448339B78DBB23B731F4B5B7E5A1E254913469B0013440B4449339B78DBB27B73194B5B7E5A1E1F4913469B0013440B444A339B78DBB29E
:402AC000BB73134B5B7E5A1E194913469B0013440B444B339B78DBB2FB730D4B5B7E5A1E134913469B0013440B444C339B78DBB23B740F4B1B78D9B2054B5B7E07F10C025D
:402B0000084611461A4601F013FD00F02EBD00BFD886FF1F6084FF1FBA82FF1FD34D62103485FF1F1F85EB51CDCCCCCC5286FF1F5486FF1F04F0DEFA0346082B40F00B81B1
:402B4000AF4B1B78DBB2AA2B40F0FE80AC4B9B79DBB2C32B40F0F880A94BDB79DBB23C2B40F0F280A74B1B78DAB2A74B1B78DBB29A426CD2A24BDB78DBB2092B33D8A14B77
:402B80001B78DBB201339E4AD278D2B23032D1B29E4A13440A4683F864209D4B1B889DB2984B1B78DBB29BB29A4A128892B2013292B202FB03F39AB2974B1B889BB21344CD
:402BC0009CB2944B1B889BB2DBB2009301202A212A46234602F080FE8A4B1B78DBB20133DAB2884B1A70864BDB78DBB20A2B2ED1844B1B78DBB20133844A1344302283F8D7
:402C00006420834B1B889DB27E4B1B78DBB29BB2804A128892B2013292B202FB03F39AB27D4B1B889BB213449CB27A4B1B889BB2DBB2009301202A212A46234602F04CFE09
:402C4000704B1B78DBB20133DAB26E4B1A706C4BDB78DBB20B2B2ED16B4B1B78DBB2002B03D16E4B00221A7025E0664B1B78DBB2013BDAB2634B1A70654B1B889DB2614B4C
:402C80001B78DBB29BB2634A128892B2013292B202FB03F39AB2604B1B889BB213449CB25C4B1B889BB2DBB20093012020212A46234602F011FE524BDB78DBB20C2B43D16B
:402CC000504B1B78DBB2002B3ED04E4B1B78DAB24E4B83F86420002387F82E304B4B93F86430042B2DD1012387F82F3015E097F82F30464A134493F8642097F82F30484954
:402D0000CB5C9A4204D197F82E30013387F82E3097F82F30013387F82F3097F82F30042BE5D997F82E30042B07D13C4B0F221A7001205D2102F084FD06E0384B00221A7085
:402D400002E0364B00221A70642003F06DFA04F019FA00F00ABC00F008BC04F0CBF90346082B40F08880264B1B78DBB2AA2B40F08280234B9B79DBB2C32B7CD1204BDB79E8
:402D8000DBB23C2B77D11E4BDB78DBB2B92B04D0BA2B4BD07E2B66D0E7E3224B4D221A70204B55225A701F4B58229A701D4B3322DA701C4B2A221A7103F086FD002387F8D0
:402DC0002F300BE097F82F30164AD35C184603F0B9FD97F82F30013387F82F3097F82F30042BEFD9962003F01FFA0120002102F027FD0A4B00221A700B4B01225A703AE0A8
:402E0000748EFF1F3F85FF1F0684FF1FD886FF1FDC82FF1F0084FF1FB286FF1F5585FF1F2881FF1F6084FF1F5486FF1F01202F2102F006FDA94B05221A70A94B00221A7094
:402E4000A84B2C221A70A84B04221A70A74B04221A80A74B03221A80A64B01221A80A64B0C221A7007E001204A2102F0E9FCA24B00221A7000BF78E304F03CF90346082B88
:402E80006ED19E4B1B78DBB2AA2B63D19B4B9B79DBB2C32B5ED1994BDB79DBB23C2B59D1964BDB78DBB2802B13D0802B04DC7E2B48D07F2B05D04DE0812B27D0C22B2DD0F3
:402EC00048E00120582102F0BBFC8B4B12221A7040E00120642102F0B3FC804B06221A707F4B00221A707F4B2C221A707E4B01221A707E4B04221A807D4B03221A807D4B89
:402F000001221A807C4B0C221A7023E07A4B11221A7001206D2102F093FC1BE001206E2102F08EFC714B04221A80714B03221A80704B01221A80704B0B221A70674B0A22BA
:402F40001A7007E001204A2102F07AFC6A4B00221A7000BF642003F067F904F013F904E303E304F0C7F80346082B4AD1634B1B78DBB2AA2B3FD1614B9B79DBB2C32B3AD1E5
:402F80005E4BDB79DBB23C2B35D15C4BDB78DBB28F2B04D0902B14D07E2B24D02BE00020172104F06FFE544B00221A7001203C2102F046FCC82003F037F9514B01225A7074
:402FC00019E00120172104F05DFE4B4B00221A7001203C2102F034FCC82003F025F9484B01225A7007E001204A2102F029FC424B00221A7000BF642003F016F904F0C2F81F
:40300000B3E2B2E204F076F80346082B40F00A823A4B1B78DBB2AA2B40F0FE81374B9B79DBB2C32B40F0F881344BDB79DBB23C2B40F0F281314BDB78DBB27E3B042B00F24A
:40304000EB8101A252F823F089310000093100005D3000009D30000049310000294B01221A700120062102F0EBFB1C4B07221A701B4B00221A701B4B2C221A701A4B0122E9
:403080001A701A4B04221A80194B03221A80194B01221A80184B0C221A70BDE1194B02221A700120062102F0CBFB0C4B07221A700B4B00221A700B4B2C221A700A4B0122A0
:4030C0001A700A4B04221A80094B03221A80094B01221A80084B0C221A709DE1D782FF1F3F85FF1FB582FF1F0684FF1FB286FF1FDC82FF1F0084FF1F5585FF1F748EFF1FA2
:403100005486FF1F7D87FF1FC74B03221A700120062102F095FBC54B07221A70C44B00221A70C44B2C221A70C34B01221A70C34B04221A80C24B03221A80C24B01221A8066
:40314000C14B0C221A7067E1B74B04221A700120062102F075FBB54B07221A70B44B00221A70B44B2C221A70B34B01221A70B34B04221A80B24B03221A80B24B01221A80D3
:40318000B14B0C221A7047E1B04B4D221A70AF4B55225A70AD4B58229A70AC4B3422DA70042387F82E30002387F82F303CE097F82F30A74A134493F85930DBB2013B032B8F
:4031C00022D801A252F823F0D9310000E5310000F1310000FD31000097F82E309B4A3121D15417E097F82E30984A3221D15411E097F82E30954A3321D1540BE097F82E30D0
:40320000924A3421D15405E097F82E308F4A3021D15400BF97F82E30013387F82E3097F82F30013387F82F3097F82F30022BBED9884B1B78002B26D1002387F82E300423F9
:4032400087F82F301BE097F82F30804AD35C312B0BD197F82F307D4A3021D15497F82E307B4A1344002283F8592097F82E30013387F82E3097F82F30013387F82F3097F87F
:403280002F30062BDFD9744B1B78002B26D1002387F82E30042387F82F301BE097F82F306A4AD35C322B0BD197F82F30674A3021D15497F82E30664A1344002283F8592029
:4032C00097F82E30013387F82E3097F82F30013387F82F3097F82F30062BDFD95F4B1B78002B26D1002387F82E30042387F82F301BE097F82F30554AD35C332B0BD197F815
:403300002F30524A3021D15497F82E30504A1344002283F8592097F82E30013387F82E3097F82F30013387F82F3097F82F30062BDFD94B4B1B78002B26D1002387F82E3008
:40334000042387F82F301BE097F82F303F4AD35C342B0BD197F82F303C4A3021D15497F82E303B4A1344002283F8592097F82E30013387F82E3097F82F30013387F82F30A5
:4033800097F82F30062BDFD9304B2A22DA7103F09BFA002387F82F300BE097F82F302B4AD35C184603F0CEFA97F82F30013387F82F3097F82F30072BEFD9264B01221A70FF
:4033C000254B01221A70254B01221A70244B01221A701F4B93F85930DBB21846102104F051FC1B4B93F85A30DBB21846112104F049FC174B93F85B30DBB21846122104F041
:4034000041FC01204A2102F01BFA0F4B00221A700F4B01225A7000BF642002F005FF03F0B1FEA2E0A1E000BF7D87FF1FD782FF1F3F85FF1FB582FF1F0684FF1FB286FF1F04
:40344000DC82FF1F0084FF1F5585FF1F6084FF1F5486FF1F4881FF1F4981FF1F4A81FF1F4B81FF1F424B4D221A70414B55225A703F4B58229A703E4B3522DA70002387F86D
:403480002F303AE097F82F305B08DBB21A46394B134493F823301B0987F82E3097F82F3003F00103DBB2002B0CD197F82F305B08DBB21A462F4B134493F8233003F00F032F
:4034C00087F82E3097F82F30043397F82E203032D1B2274AD15497F82E30092B08D997F82F30043397F82E203732D1B2204AD15497F82F30013387F82F3097F82F300F2BCB
:40350000C0D91B4B2A221A7503F0DEF9002387F82F300BE097F82F30154AD35C184603F011FA97F82F30013387F82F3097F82F30142BEFD90120002102F082F90E4B002204
:403540001A700E4B01225A700FE00D4B1B78DBB2032B09D9084B00221A7004F069F804F02FF9074B00221A7000BF3037BD46B0BD6084FF1FD886FF1F5585FF1F5486FF1F92
:403580002885FF1F80B500AF04F04EF9184B1B78DBB2012B24D1174B1B78DBB2062B11D8144B1B78DBB20133DAB2124B1A70114B1B78DBB29BB214339BB20120194602F0EC
:4035C0003FF914E00B4B00221A700A4B1B78DBB29BB214339BB20120194602F031F906E0044B1B78DBB20133DAB2024B1A7080BD5585FF1F2885FF1F80B500AF04F0D4F91A
:40360000184B1B78DBB2012B24D1174B1B78DBB2062B11D8144B1B78DBB20133DAB2124B1A70114B1B78DBB29BB214339BB20220194602F005F914E00B4B00221A700A4B0B
:403640001B78DBB29BB214339BB20220194602F0F7F806E0044B1B78DBB20133DAB2024B1A7080BD0384FF1FC082FF1F80B500AFFCF708FDFCF72CFE0320002102F008FE84
:4036800002F04CFEFDF732FA02F048FEFCF7B2FFF6E700BF80B500AF04F0B8FA014B01221A7080BD7E87FF1F80B584B000AF0346FB7102F08BFFFB79184602F0C5FF1E481C
:4036C00003F036FC04F05EFA1C4B00221A700A2002F0AAFD0BE0194B1B78012B07D103F039FC04F05FFA02F071FF002320E002F023FF0346002BEED002F0D4FE0346FB73E2
:40370000FB7B03F00F02FB799A420AD1FB7B1B09FB7302F05BFF03F01DFC04F043FAFB7B06E002F053FF03F015FC04F03BFA002318461037BD4680BD953600007E87FF1F90
:4037400080B582B000AF244BFF221A70234BFF221A70052002F068FD0020FFF7A5FF0346002B02D01D4B00221A700123FB711FE0052002F059FDFB791846FFF795FF0346CF
:40378000002B12D0144B1B78DBB2FF2B03D1124AFB79137009E0114B1B78DBB2FF2B04D10E4AFB791370012312E0FB790133FB71FB790F2BDCD9084B1B78DBB2FF2B06D079
:4037C000064B1B78DBB2FF2B01D0012300E0002318460837BD4680BD5486FF1F5882FF1F90B58BB000AF0346FB71594A07F108031068516803C3127A1A7002F0E7FEFB7987
:4038000043F02003DBB2184602F01EFF514803F08FFB04F0B7F9504B00221A700BE04E4B1B78012B07D103F095FB04F0BBF902F0CDFE002388E002F07FFE0346002BEED008
:4038400003F088FB04F0AEF902F02CFE03461A46FB7963F02F03DBB29A4274D102F0B6FE052002F0E1FC002387F827300EE097F8273007F12802134413F8203C184602F034
:40388000E3FE97F82730013387F8273097F82730082BECD92F4803F04BFB04F073F92E4B00221A700BE02C4B1B78012B07D103F051FB04F077F902F089FE002344E002F0D6
:4038C0003BFE0346132BEED103F044FB04F06AF9002387F827300FE097F8274002F0E2FD03461A4607F12803234403F8142C97F82730013387F8273097F82730122BEBD9CC
:4039000002F064FE3B7DBA2B1BD197F825308D2B17D197F826308A2B13D197F82030B12B0FD197F82230B22B05D0B32B05D0B12B05D1012308E0022306E0032304E00023D1
:4039400002E0002300E0002318462C37BD4690BD00A90000953600007E87FF1F80B584B000AF0346FB7102F031FEFB7943F04003DBB2184602F068FE4FF4967002F054FCF1
:40398000AB4B5B78DBB2072B00F0BC8002F0D4FD0346212B40F0B680A64B1B78DBB2FF2B40F0AE80A34B9B78DBB2F82B40F0A880A04B93F82030DBB2F02B40F0A1809E4B4B
:4039C0001B78DBB2FA799A424CD19A4B5B7ADBB203F00F03DBB20133DAB2984B5A760023FB730FE0FB7BFA7B0C3292498A5CD2B202F00F02D1B2914A13440A469A70FB7B79
:403A00000133FB73FB7B032BECD90023FB730FE0FB7BFA7B113287498A5CD2B202F00F02D1B2864A13440A461A74FB7B0133FB73FB7B052BECD90023FB730FE0FB7BFA7B1A
:403A400018327C498A5CD2B202F00F02D1B27B4A13440A46DA71FB7B0133FB73FB7B052BECD94BE0734B5B7ADBB203F00F03DBB20133DAB2724B5A760023FB730FE0FB7BED
:403A8000FA7B0C326B498A5CD2B202F00F02D1B26B4A13440A469A70FB7B0133FB73FB7B032BECD90023FB730FE0FB7BFA7B113260498A5CD2B202F00F02D1B2604A134480
:403AC0000A461A74FB7B0133FB73FB7B052BECD90023FB730FE0FB7BFA7B183255498A5CD2B202F00F02D1B2554A13440A46DA71FB7B0133FB73FB7B052BECD90123CFE03B
:403B00000023CDE04A4B5B78DBB2072B40F0C78002F012FD0346272B40F0C180454B1B78DBB2FF2B40F0B980424B9B78DBB2F82B40F0B3803F4B93F82630DBB2F02B40F0D1
:403B4000AC803D4B1B78DBB2FA799A424CD1394B5B7ADBB203F00F03DBB20133DAB2374B5A760023FB730FE0FB7BFA7B0C3231498A5CD2B202F00F02D1B2304A13440A4647
:403B80009A70FB7B0133FB73FB7B052BECD90023FB730FE0FB7BFA7B133226498A5CD2B202F00F02D1B2254A13440A461A74FB7B0133FB73FB7B072BECD90023FB730FE0C0
:403BC000FB7BFA7B1C321B498A5CD2B202F00F02D1B21A4A13440A46DA71FB7B0133FB73FB7B072BECD956E0124B5B7ADBB203F00F03DBB20133DAB2114B5A760023FB7359
:403C00000FE0FB7BFA7B0C320A498A5CD2B202F00F02D1B20A4A13440A469A70FB7B0133FB73FB7B052BECD90023FB731AE000BFD882FF1F8087FF1F5486FF1FD886FF1F46
:403C40005885FF1FFB7BFA7B133217498A5CD2B202F00F02D1B2154A13440A461A74FB7B0133FB73FB7B072BECD90023FB730FE0FB7BFA7B1C320C498A5CD2B202F00F0235
:403C8000D1B20A4A13440A46DA71FB7B0133FB73FB7B072BECD9012302E0002300E0002318461037BD4680BD8087FF1F5885FF1F80B588B000AF3A601A460346FB710B4669
:403CC000BB7113467B7107F1080300221A60043300221A60043300221A60043300221A60043300221A8002330423BB777B79032B01D102237B71B34B5B78DBB2052B04D053
:403D0000B04B5B78DBB2062B04D17B79012B01D10323BB77AB4B5B78DBB2052B04D17B79022B01D10523BB77A64B5B78DBB2072B04D17B79012B01D10023BB77A14B5B78D2
:403D4000DBB2072B04D17B79022B01D10223BB7700233B7701237B770AE07B7F3A6813441B782C2B01D17B7F3B777B7F01337B777B7F072BF1D93B7F042B01D90023CFE387
:403D8000904B5B78DBB2072B00F00582FF233B72BB7F63F01F03DBB27B727B7963F00F03DBB2BB72F423FB72F8233B733B6801331B7863F01F03DBB27B733B6802331B7802
:403DC00063F01F03DBB2BB733B6803331B7863F01F03DBB2FB733B6804331B7863F01F03DBB23B743B6805331B7863F01F03DBB27B743B6806331B7863F01F03DBB2BB749A
:403E0000704B9B78DBB2022B40F0A5803B7F042B29D13B6802331B7863F01F03DBB27B733B6803331B7863F01F03DBB2BB733B6805331B7863F01F03DBB2FB733B68063311
:403E40001B7863F01F03DBB23B743B6807331B7863F01F03DBB27B743B6808331B7863F01F03DBB2BB743B7F032B29D13B6801331B7863F01F03DBB27B733B6802331B7854
:403E800063F01F03DBB2BB733B6804331B7863F01F03DBB2FB733B6805331B7863F01F03DBB23B743B6806331B7863F01F03DBB27B743B6807331B7863F01F03DBB2BB74D5
:403EC0003B7F022B24D1E0237B733B6801331B7863F01F03DBB2BB733B6803331B7863F01F03DBB2FB733B6804331B7863F01F03DBB23B743B6805331B7863F01F03DBB2F1
:403F00007B743B6806331B7863F01F03DBB2BB743B7F002B1FD1E0237B73E023BB733B6801331B7863F01F03DBB2FB733B6802331B7863F01F03DBB23B743B6803331B7899
:403F400063F01F03DBB27B743B6804331B7863F01F03DBB2BB74FB23FB7400233B7500237B770FE03A7D7B7F07F120010B4413F8183C03F00F03DBB21344DBB23B757B7FB6
:403F800001337B777B7F0B2BECD93B7D5B42DBB2DBB203F00F03DBB263F01F03DBB2DBB23B75F0237B750D23FB77064B5B78DBB2052B2CD1FB23BB740023FB7400237B772F
:403FC00012E000BFD882FF1FFA7C7B7F07F120010B4413F8183C03F00F03DBB21344DBB2FB747B7F01337B777B7F0A2BECD9FB7C5B42DBB2DBB203F00F03DBB263F01F0333
:40400000DBB2DBB2FB74F0233B750C23FB777B79012B40F0C080F6233B73BB79013BDBB2DBB263F01F03DBB2DBB27B73F823BB733B7F042B22D13B6802331B7863F01F0330
:40404000DBB2FB733B6803331B7863F01F03DBB23B743B6805331B7863F01F03DBB27B743B6806331B7863F01F03DBB2BB743B6807331B7863F01F03DBB2FB743B7F032B60
:4040800022D13B6801331B7863F01F03DBB2FB733B6802331B7863F01F03DBB23B743B6804331B7863F01F03DBB27B743B6805331B7863F01F03DBB2BB743B6806331B78AB
:4040C00063F01F03DBB2FB743B7F022B1DD1E023FB733B6801331B7863F01F03DBB23B743B6803331B7863F01F03DBB27B743B6804331B7863F01F03DBB2BB743B68053318
:404100001B7863F01F03DBB2FB743B7F002B18D1E023FB73E0233B743B6801331B7863F01F03DBB27B743B6802331B7863F01F03DBB2BB743B6803331B7863F01F03DBB225
:40414000FB74FB233B7500237B7500237B770FE07A7D7B7F07F120010B4413F8183C03F00F03DBB21344DBB27B757B7F01337B777B7F0C2BECD97B7D5B42DBB2DBB203F015
:404180000F03DBB263F01F03DBB2DBB27B75F023BB750E23FB77A24B5B78DBB2072B40F06481FF233B72BB7F63F01F03DBB27B727B7963F00F03DBB2BB72F423FB72F823BD
:4041C0003B733B6801331B7863F01F03DBB27B733B6802331B7863F01F03DBB2BB733B6803331B7863F01F03DBB2FB733B6804331B7863F01F03DBB23B743B6805331B78B4
:4042000063F01F03DBB27B743B6806331B7863F01F03DBB2BB743B6807331B7863F01F03DBB2FB74E0233B75FB237B750023BB7500237B770FE0BA7D7B7F07F120010B445B
:4042400013F8183C03F00F03DBB21344DBB2BB757B7F01337B777B7F0D2BECD9BB7D5B42DBB2DBB203F00F03DBB263F01F03DBB2DBB2BB75F023FB750F23FB777B79012B9B
:4042800040F0F380F6233B73BB79013BDBB2DBB263F01F03DBB2DBB27B73F823BB733B7F042B2DD13B6801331B7863F01F03DBB2FB733B6802331B7863F01F03DBB23B7467
:4042C0003B6803331B7863F01F03DBB27B743B6805331B7863F01F03DBB2BB743B6806331B7863F01F03DBB2FB743B6807331B7863F01F03DBB23B75E0237B75E023BB759A
:404300003B7F032B2DD1E023FB733B6801331B7863F01F03DBB23B743B6802331B7863F01F03DBB27B743B6804331B7863F01F03DBB2BB743B6805331B7863F01F03DBB2A1
:40434000FB743B6806331B7863F01F03DBB23B753B6807331B7863F01F03DBB27B75E023BB753B7F022B2DD1E023FB73E0233B743B6801331B7863F01F03DBB27B743B6812
:4043800003331B7863F01F03DBB2BB743B6804331B7863F01F03DBB2FB743B6805331B7863F01F03DBB23B753B6806331B7863F01F03DBB27B753B6807331B7863F01F03BF
:4043C000DBB2BB753B7F002B23D1E023FB73E0233B74E0237B743B6801331B7863F01F03DBB2BB743B6802331B7863F01F03DBB2FB743B6803331B7863F01F03DBB23B757D
:404400003B6804331B7863F01F03DBB27B75E023BB75FB23FB7500233B7600237B7711E0D882FF1F3A7E7B7F07F120010B4413F8183C03F00F03DBB21344DBB23B767B7F70
:4044400001337B777B7F0F2BECD93B7E5B42DBB2DBB203F00F03DBB263F01F03DBB2DBB23B76F0237B761123FB7702F0AFF8FB7943F02003DBB2184602F0E6F82A4802F0AF
:4044800057FD03F07FFB294B00221A700A2001F0CBFE0BE0254B1B78012B07D102F05AFD03F080FB02F092F8002339E002F044F80346002BEED002F04DFD03F073FB01F0E8
:4044C000F1FF03461A46FB7963F02F03DBB29A4225D102F07BF80A2001F0A6FE00237B770BE07B7F07F12002134413F8183C184602F0AAF87B7F01337B777A7FFB7F9A427C
:40450000EFD9322001F090FEFB791846FFF7CCF80346002B01D1002302E0012300E0002318462037BD4680BD953600007E87FF1F80B588B000AF03463960FB711346BB7112
:4045400000233B7300237B730023BB730023FB7300233B7400237B740023BB740023FB7400233B7500237B750023BB750023FB7500233B7600237B760023BB76884B5B7801
:40458000DBB2072B56D0FF233B73E5237B73F423BB73F623FB73BB79013BDBB2DBB263F01F03DBB2DBB23B74F7237B740623BB7715E0BB7FBA7F063A39680A441278D2B2B3
:4045C00002F00F02D2B262F01F02D2B2D2B207F120010B4403F8142CBB7F0133BB77BB7F092BE6D9FB23BB750023BB770FE0FA7DBB7F07F120010B4413F8143C03F00F033E
:40460000DBB21344DBB2FB75BB7F0133BB77BB7F0A2BECD9FB7D5B42DBB2DBB203F00F03DBB263F01F03DBB2DBB2FB75F0233B760C23FB775A4B5B78DBB2072B53D1FF2323
:404640003B73E3237B73F423BB73F623FB73BB79013BDBB2DBB263F01F03DBB2DBB23B74F7237B740623BB7710E0BB7FBA7F063A39680A44127862F01F02D2B207F1200174
:404680000B4403F8142CBB7F0133BB77BB7F0A2BEBD9E023FB75FB233B760023BB770FE07A7EBB7F07F120010B4413F8143C03F00F03DBB21344DBB27B76BB7F0133BB771B
:4046C000BB7F0C2BECD97B7E5B42DBB2DBB203F00F03DBB263F01F03DBB2DBB27B76F023BB760E23FB7701F071FFFB7943F02003DBB2184601F0A8FF2A4802F019FC03F0C1
:4047000041FA294B00221A700BE0274B1B78012B07D102F01FFC03F045FA01F057FF002339E001F009FF0346002BEED002F012FC03F038FA01F0B6FE03461A46FB7963F003
:404740002F03DBB29A4225D101F040FF0A2001F06BFD0023BB770BE0BB7F07F12002134413F8143C184601F06FFFBB7F0133BB77BA7FFB7F9A42EFD9322001F055FDFB79F2
:404780001846FEF791FF0346002B01D1002302E0012300E0002318462037BD4680BD00BFD882FF1F953600007E87FF1F80B584B000AF03460A46FB711346BB7101F006FFF2
:4047C000FB7943F05003DBB2184601F03DFFB04B00221A704FF4967001F026FD01F0ACFE0346002B01F02280AA4B1B78DBB2FA799A4240F01F84A84B5B78DBB2072B00F055
:404800000C824FF4617001F00FFD01F095FE0346FB73FB7B222B06D0FB7B402B03D0FB7B5E2B40F0F5819D4B1B78DBB2FF2B40F0EA819A4B5B78DBB2F62B40F0E481974B02
:40484000DB78DBB2F92B40F0DE810023BB7316E00023FB730DE0BA7BF97B8E4813465B001344DB000B44034400229A70FB7B0133FB73FB7B172BEED9BB7B0133BB73BB7B54
:40488000022BE5D90023FB7321E0FB7BFA7B043282498A5CD1B27F4A13440A469A70FB7B7C4A13449B78DBB2002B08D0FB7B794A13449B78DBB203F0F003E02B04D001F090
:4048C00085FE002300F0B3BFFB7B0133FB73FB7B072BDAD90023FB7324E0FB7B0C33FA7B0D326E498A5CD1B26A4A13440A469A70FB7B0C33674A13449B78DBB2002B09D059
:40490000FB7B0C33634A13449B78DBB203F0F003E02B04D001F05AFE002300F088BFFB7B0133FB73FB7B072BD7D90023FB730DE0FB7BFA7B163259498A5CD1B2554A134494
:404940000A4683F84A20FB7B0133FB73FB7B032BEED9BB79022B6BD10023FB7321E0FB7BFA7B22324D498A5CD1B24A4A13440A469A76FB7B474A13449B7EDBB2002B08D0C0
:40498000FB7B444A13449B7EDBB203F0F003E02B04D001F01BFE002300F049BFFB7B0133FB73FB7B072BDAD90023FB7324E0FB7B0C33FA7B2B3239498A5CD1B2354A1344BC
:4049C0000A469A76FB7B0C33324A13449B7EDBB2002B09D0FB7B0C332E4A13449B7EDBB203F0F003E02B04D001F0F0FD002300F01EBFFB7B0133FB73FB7B072BD7D90023D5
:404A0000FB730DE0FB7BFA7B343224498A5CD1B2204A13440A4683F84F20FB7B0133FB73FB7B032BEED901F0D1FD022300F0FFBEBB79032B40F0E2800023FB7321E0FB7BE9
:404A4000FA7B223215498A5CD1B2124A13440A469A76FB7B0F4A13449B7EDBB2002B08D0FB7B0C4A13449B7EDBB203F0F003E02B04D001F0ABFD002300F0D9BEFB7B013349
:404A8000FB73FB7B072BDAD90023FB732DE000BF7E87FF1F5486FF1FD882FF1F8087FF1FFB7B0C33FA7B2B32B3498A5CD1B2B34A13440A469A76FB7B0C33B04A13449B7E59
:404AC000DBB2002B09D0FB7B0C33AC4A13449B7EDBB203F0F003E02B04D001F077FD002300F0A5BEFB7B0133FB73FB7B072BD7D90023FB730DE0FB7BFA7B34329E498A5CD1
:404B0000D1B29E4A13440A4683F84F20FB7B0133FB73FB7B032BEED90023FB7324E0FB7BFA7B403294498A5CD1B2944A13440A4683F83220FB7B914A134493F83230DBB24A
:404B4000002B09D0FB7B8D4A134493F83230DBB203F0F003E02B04D001F038FD002300F066BEFB7B0133FB73FB7B072BD7D90023FB7327E0FB7B0C33FA7B49327E498A5C97
:404B8000D1B27E4A13440A4683F83220FB7B0C337A4A134493F83230DBB2002B0AD0FB7B0C33764A134493F83230DBB203F0F003E02B04D001F00AFD002300F038BEFB7B65
:404BC0000133FB73FB7B072BD4D90023FB730DE0FB7BFA7B523268498A5CD1B2674A13440A4683F85420FB7B0133FB73FB7B032BEED901F0EBFC032300F019BE01F0E6FC55
:404C0000012300F014BE01F0E1FC002300F00FBE01F0DCFC002300F00ABE4FF4617001F003FB01F089FC0346FB73FB7B2E2B06D0FB7B582B03D0FB7B822B40F0F1814E4B3D
:404C40001B78DBB2FF2B40F0E6814B4B5B78DBB2F62B40F0E081484BDB78DBB2F92B40F0DA810023BB7316E00023FB730DE0BA7BF97B424813465B001344DB000B44034415
:404C800000229A70FB7B0133FB73FB7B172BEED9BB7B0133BB73BB7B022BE5D90023FB7321E0FB7BFA7B043233498A5CD1B2334A13440A469A70FB7B304A13449B78DBB2CB
:404CC000002B08D0FB7B2D4A13449B78DBB203F0F003E02B04D001F079FC002300F0A7BDFB7B0133FB73FB7B0B2BDAD90023FB7324E0FB7B0C33FA7B11321F498A5CD1B2E1
:404D00001E4A13440A469A70FB7B0C331B4A13449B78DBB2002B09D0FB7B0C33174A13449B78DBB203F0F003E02B04D001F04EFC002300F07CBDFB7B0133FB73FB7B0B2B28
:404D4000D7D90023FB730DE0FB7BFA7B1E320A498A5CD1B2094A13440A4683F84A20FB7B0133FB73FB7B042BEED9BB79022B70D10023FB7326E000BF8087FF1F5486FF1F96
:404D8000FB7BFA7B2E32A9498A5CD1B2A84A13440A469A76FB7BA64A13449B7EDBB2002B08D0FB7BA24A13449B7EDBB203F0F003E02B04D001F00AFC002300F038BDFB7BA5
:404DC0000133FB73FB7B0B2BDAD90023FB7324E0FB7B0C33FA7B3B3294498A5CD1B2944A13440A469A76FB7B0C33914A13449B7EDBB2002B09D0FB7B0C338D4A13449B7E1E
:404E0000DBB203F0F003E02B04D001F0DFFB002300F00DBDFB7B0133FB73FB7B0B2BD7D90023FB730DE0FB7BFA7B48327F498A5CD1B27F4A13440A4683F84F20FB7B0133EC
:404E4000FB73FB7B042BEED901F0C0FB022300F0EEBCBB79032B40F0D9800023FB7321E0FB7BFA7B2E3271498A5CD1B2704A13440A469A76FB7B6E4A13449B7EDBB2002B3B
:404E800008D0FB7B6A4A13449B7EDBB203F0F003E02B04D001F09AFB002300F0C8BCFB7B0133FB73FB7B0B2BDAD90023FB7324E0FB7B0C33FA7B3B325C498A5CD1B25C4ABA
:404EC00013440A469A76FB7B0C33594A13449B7EDBB2002B09D0FB7B0C33554A13449B7EDBB203F0F003E02B04D001F06FFB002300F09DBCFB7B0133FB73FB7B0B2BD7D951
:404F00000023FB730DE0FB7BFA7B483247498A5CD1B2474A13440A4683F84F20FB7B0133FB73FB7B042BEED90023FB7324E0FB7BFA7B58323D498A5CD1B23D4A13440A46C8
:404F400083F83220FB7B3A4A134493F83230DBB2002B09D0FB7B364A134493F83230DBB203F0F003E02B04D001F030FB002300F05EBCFB7B0133FB73FB7B0B2BD7D9002329
:404F8000FB7327E0FB7B0C33FA7B653227498A5CD1B2274A13440A4683F83220FB7B0C33234A134493F83230DBB2002B0AD0FB7B0C331F4A134493F83230DBB203F0F00330
:404FC000E02B04D001F002FB002300F030BCFB7B0133FB73FB7B0B2BD4D90023FB730DE0FB7BFA7B723211498A5CD1B2104A13440A4683F85420FB7B0133FB73FB7B042BF7
:40500000EED901F0E3FA032300F011BC01F0DEFA012300F00CBC01F0D9FA002300F007BC01F0D4FA002300F002BC00BF8087FF1F5486FF1FA24B5B78DBB2072B00F0FC8161
:405040004FF4617001F0F0F801F076FA0346FB73FB7B222B06D0FB7B402B03D0FB7B5E2B40F0E681974B1B78DBB2FF2B40F0DC81944B5B78DBB2F62B40F0D681914BDB7879
:40508000DBB2F92B40F0D0810023BB7316E00023FB730DE0BA7BF97B8B4813465B001344DB000B44034400229A70FB7B0133FB73FB7B172BEED9BB7B0133BB73BB7B022B43
:4050C000E5D90023FB7320E0FB7BFA7B04327D498A5CD1B27C4A13440A469A70FB7B7A4A13449B78DBB2002B08D0FB7B764A13449B78DBB203F0F003E02B03D001F066FA24
:40510000002394E3FB7B0133FB73FB7B072BDBD90023FB7323E0FB7B0C33FA7B0D3269498A5CD1B2684A13440A469A70FB7B0C33654A13449B78DBB2002B09D0FB7B0C33D2
:40514000614A13449B78DBB203F0F003E02B03D001F03CFA00236AE3FB7B0133FB73FB7B072BD8D90023FB730DE0FB7BFA7B163254498A5CD1B2544A13440A4683F84A20E0
:40518000FB7B0133FB73FB7B032BEED9BB79022B68D10023FB7320E0FB7BFA7B223249498A5CD1B2484A13440A469A76FB7B464A13449B7EDBB2002B08D0FB7B424A13445F
:4051C0009B7EDBB203F0F003E02B03D001F0FEF900232CE3FB7B0133FB73FB7B072BDBD90023FB7323E0FB7B0C33FA7B2B3235498A5CD1B2344A13440A469A76FB7B0C33CB
:40520000314A13449B7EDBB2002B09D0FB7B0C332D4A13449B7EDBB203F0F003E02B03D001F0D4F9002302E3FB7B0133FB73FB7B072BD8D90023FB730DE0FB7BFA7B3432FF
:4052400020498A5CD1B2204A13440A4683F84F20FB7B0133FB73FB7B032BEED901F0B6F90223E4E2BB79032B40F0DA800023FB7320E0FB7BFA7B223212498A5CD1B2124A77
:4052800013440A469A76FB7B0F4A13449B7EDBB2002B08D0FB7B0C4A13449B7EDBB203F0F003E02B03D001F091F90023BFE2FB7B0133FB73FB7B072BDBD90023FB7329E08E
:4052C000D882FF1F8087FF1F5882FF1FFB7B0C33FA7B2B32AE498A5CD1B2AE4A13440A469A76FB7B0C33AB4A13449B7EDBB2002B09D0FB7B0C33A74A13449B7EDBB203F042
:40530000F003E02B03D001F061F900238FE2FB7B0133FB73FB7B072BD8D90023FB730DE0FB7BFA7B34329A498A5CD1B2994A13440A4683F84F20FB7B0133FB73FB7B032B01
:40534000EED90023FB7323E0FB7BFA7B403290498A5CD1B28F4A13440A4683F83220FB7B8C4A134493F83230DBB2002B09D0FB7B884A134493F83230DBB203F0F003E02BBB
:4053800003D001F023F9002351E2FB7B0133FB73FB7B072BD8D90023FB7326E0FB7B0C33FA7B49327A498A5CD1B27A4A13440A4683F83220FB7B0C33764A134493F83230ED
:4053C000DBB2002B0AD0FB7B0C33724A134493F83230DBB203F0F003E02B03D001F0F6F8002324E2FB7B0133FB73FB7B072BD5D90023FB730DE0FB7BFA7B523264498A5C1F
:40540000D1B2644A13440A4683F85420FB7B0133FB73FB7B032BEED901F0D8F8032306E201F0D4F8012302E201F0D0F80023FEE101F0CCF80023FAE14FF4617000F0F4FE2A
:4054400001F07AF80346FB73FB7B2E2B06D0FB7B582B03D0FB7B822B40F0E4814C4B1B78DBB2FF2B40F0DA81494B5B78DBB2F62B40F0D481464BDB78DBB2F92B40F0CE81CF
:405480000023BB7316E00023FB730DE0BA7BF97B404813465B001344DB000B44034400229A70FB7B0133FB73FB7B172BEED9BB7B0133BB73BB7B022BE5D90023FB7320E06D
:4054C000FB7BFA7B043232498A5CD1B2314A13440A469A70FB7B2F4A13449B78DBB2002B08D0FB7B2B4A13449B78DBB203F0F003E02B03D001F06AF8002398E1FB7B013353
:40550000FB73FB7B0B2BDBD90023FB7323E0FB7B0C33FA7B11321E498A5CD1B21D4A13440A469A70FB7B0C331A4A13449B78DBB2002B09D0FB7B0C33164A13449B78DBB294
:4055400003F0F003E02B03D001F040F800236EE1FB7B0133FB73FB7B0B2BD8D90023FB730DE0FB7BFA7B1E3209498A5CD1B2094A13440A4683F84A20FB7B0133FB73FB7B76
:40558000042BEED9BB79022B6CD10023FB7324E08087FF1F5882FF1FFB7BFA7B2E32A6498A5CD1B2A54A13440A469A76FB7BA34A13449B7EDBB2002B08D0FB7B9F4A134443
:4055C0009B7EDBB203F0F003E02B03D000F0FEFF00232CE1FB7B0133FB73FB7B0B2BDBD90023FB7323E0FB7B0C33FA7B3B3292498A5CD1B2914A13440A469A76FB7B0C33F6
:405600008E4A13449B7EDBB2002B09D0FB7B0C338A4A13449B7EDBB203F0F003E02B03D000F0D4FF002302E1FB7B0133FB73FB7B0B2BD8D90023FB730DE0FB7BFA7B483226
:405640007D498A5CD1B27D4A13440A4683F84F20FB7B0133FB73FB7B042BEED900F0B6FF0223E4E0BB79032B40F0D4800023FB7320E0FB7BFA7B2E326F498A5CD1B26F4AF5
:4056800013440A469A76FB7B6C4A13449B7EDBB2002B08D0FB7B694A13449B7EDBB203F0F003E02B03D000F091FF0023BFE0FB7B0133FB73FB7B0B2BDBD90023FB7323E0CF
:4056C000FB7B0C33FA7B3B325B498A5CD1B25B4A13440A469A76FB7B0C33584A13449B7EDBB2002B09D0FB7B0C33544A13449B7EDBB203F0F003E02B03D000F067FF0023C5
:4057000095E0FB7B0133FB73FB7B0B2BD8D90023FB730DE0FB7BFA7B483247498A5CD1B2464A13440A4683F84F20FB7B0133FB73FB7B042BEED90023FB7323E0FB7BFA7B7F
:4057400058323D498A5CD1B23C4A13440A4683F83220FB7B394A134493F83230DBB2002B09D0FB7B354A134493F83230DBB203F0F003E02B03D000F029FF002357E0FB7B76
:405780000133FB73FB7B0B2BD8D90023FB7326E0FB7B0C33FA7B653227498A5CD1B2274A13440A4683F83220FB7B0C33234A134493F83230DBB2002B0AD0FB7B0C331F4ABE
:4057C000134493F83230DBB203F0F003E02B03D000F0FCFE00232AE0FB7B0133FB73FB7B0B2BD5D90023FB730DE0FB7BFA7B723211498A5CD1B2114A13440A4683F85420CA
:40580000FB7B0133FB73FB7B042BEED900F0DEFE03230CE000F0DAFE012308E000F0D6FE002304E000F0D2FE002300E0002318461037BD4680BD00BF8087FF1F5882FF1FC0
:4058400080B582B000AF03460A46FB711346BB80FB79012B1ED1AA2001F0D2FC702001F0CFFCBB881B0A9BB2DBB2184601F0C8FCBB88DBB2184601F0C3FCCC2001F0C0FC49
:40588000332001F0BDFCC32001F0BAFC3C2001F0B7FC1DE0AA2001F0A9FD702001F0A6FDBB881B0A9BB2DBB2184601F09FFDBB88DBB2184601F09AFDCC2001F097FD332038
:4058C00001F094FDC32001F091FD3C2001F08EFD0837BD4680BD00BFB0B588B000AF0446084611461A462346FB710346BB710B46BB8013467B80294B07F10C041D4628687A
:405900006968AA68EB680FC42B8A23807A8813465B0013449B001B12DBB2BB737B88DBB21A46520013449B00DBB2FB73BA8813461B019B1A1B12DBB23B74BB88DBB21A4642
:405940001201D31ADBB27B7497F830302333DBB2BB74BB797B760023FB7718E0FB79012B09D1FB7F07F12002134413F8143C184601F046FC08E0FB7F07F12002134413F8C9
:40598000143C184601F032FDFB7F0133FB77FB7F112BE3D92037BD46B0BD00BF0CA9000080B584B000AF0346FB71FB79012B29D1002001F0D5FD4FF4FA7000F057FC0120F1
:4059C00001F0CEFD052000F051FC01F0E3FD0346002B01D100233EE0412000F047FC01F0D9FD0346002B0CBF01230023DBB2FB73F02000F03BFCFB7B002B01D001232AE07E
:405A0000002328E0002001F0D3FD4FF4FA7000F02DFC012001F0CCFD052000F027FC01F0E5FD0346002B01D1002314E0412000F01DFC01F0DBFD0346002B0CBF0123002398
:405A4000DBB2FB73F02000F011FCFB7B002B01D0012300E0002318461037BD4680BD00BF80B584B000AF03460A46FB711346BB71FB79012B3BD10023FB7333E0002001F0DE
:405A80006FFD0A2000F0F2FBBA79FB7B42FA03F303F00103002B0CD0012001F061FD0A2000F0E4FB01F076FD0346002B0ED1002358E0002001F054FD0A2000F0D7FB01F0E0
:405AC00069FD0346002B01D000234BE0322000F0CDFB012001F044FD322000F0C7FBFB7B0133FB73FB7B072BC8D901233AE00023FB7333E0002001F05BFD0A2000F0B6FBD5
:405B0000BA79FB7B42FA03F303F00103002B0CD0012001F04DFD0A2000F0A8FB01F066FD0346002B0ED100231CE0002001F040FD0A2000F09BFB01F059FD0346002B01D023
:405B400000230FE0322000F091FB012001F030FD322000F08BFBFB7B0133FB73FB7B072BC8D9012318461037BD4680BD80B584B000AF0346FB710023BB73FB79012B25D120
:405B80000023FB731DE0002001F0EAFC0E2000F06DFB012001F0E4FC072000F067FB01F0F9FC03461A46FB7B02FA03F3DAB2BB7B1343DBB2BB73642000F058FBFB7B013334
:405BC000FB73FB7B072BDED9BB7B24E00023FB731DE0002001F0ECFC0E2000F047FB012001F0E6FC072000F041FB01F0FFFC03461A46FB7B02FA03F3DAB2BB7B1343DBB2CE
:405C0000BB73642000F032FBFB7B0133FB73FB7B072BDED9BB7B18461037BD4680BD00BF80B485B000AF03460A46FB711346BB71FA79BB795340FB710023FB7312E0FB7905
:405C400003F00103002B07D0FB795B08DBB283F07303DB43FB7102E0FB795B08FB71FB7B0133FB73FB7B072BE9D9FB7918461437BD465DF8047B704780B400AFFEE700BF7B
:405C800080B584B000AF7860104B1A687B6813441A460F4BD31AB3F5805F09DC0B4B1B68FB600A4B1A687B681344084A136007E002F0CEFB02460C2313604FF0FF33FB6068
:405CC000FB6818461037BD4680BD00BF4C81FF1F508FFF1F80B586B000AF224B7B61224B3B61204B7B6135E03B691B68FB603B695B68BB603B699B683B6000237B600CE0BD
:405D0000FB681A68BB681A60BB680433BB60FB680433FB607B6804337B607A683B689A42EED13B69DB683B6000237B6008E0BB6800221A60BB680433BB607B6804337B60D1
:405D40007A683B689A42F2D13B6910333B617B69013B7B617B69002BC6D102F07FFBFDF785FCFEE70100000058AB000080B582B000AF174B174A1A60174A174B1B6843F440
:405D80000073136000237B600FE07B68032B04D8124A7B6852F8233000E0114B11497A6841F822307B6801337B607B682F2BECD90D4B1B78DAB20D4B1A700D4B094A1A60D2
:405DC00000F042F90B4B00221A600837BD4680BD0CED00E00004FA0514ED00E000000000795C00000080FF1FBC7600400481FF1F08ED00E00081FF1F80B582B000AF786060
:405E00003960786800213A6802F059FB0837BD4680BD00BF80B584B000AFF860B9607A60F868B9687A6802F03FFB1037BD4680BD80B483B000AF0346FB71FEE780B487B00E
:405E400000AF7860396000233B6100237B6127E07B699B007A6813441B68BB60BB68FB73BB6823F0FF03BB6014E03B695B003A6813441B781A46BB68134419463B695B004C
:405E80003A6813445B780B703B6901333B61FB7B013BFB73FB7B002BE7D17B6901337B617B69262BD4D91C37BD465DF8047B704780B582B000AF3D4B81221A803C4B18225B
:405EC0001A703C4B81221A803B4B18221A703B4B4FF443721A803A4B18221A70394B40F217521A80384B18221A70384B4EF65F221A80374B18221A70364B02221A704FF013
:405F0000402308221A70344B03221A70334B344A1278D2B21A70334B14221A80324B41F251221A800023FB7019237B6014E0FB785B00DAB22D4B1B78DBB203F00103DBB26E
:405F40001343DBB203F00303FB704FF4F07000F04FF97B68013B7B607B68002B02D0FB78032BE4D17B68002B02D10320FFF760FF1F4B4FF480721A801D4B07221A701D4BBA
:405F800000221A701C4B48221A70194B00221A701A4B02221A701A4A194B1B78DBB243F01F03DBB213700837BD4680BD8040004082400040844000408640004088400040D7
:405FC0008A4000408C4000408E40004090400040924000400043004000420040A14600400801004922420040204200402542004004400040064000400840004001400040DD
:40600000A243004080B483B000AF0B4B1B78FB710A4AFB7903F00703DBB21370084AFB791B09DBB21370074B44221A700C37BD465DF8047B704700BFCF0100496E58004010
:406040006F5800407658004080B586B000AF72B64F4B01221A70FFF72BFF4E4A4D4B1B78DBB243F00403DBB213700023FB7513E0FA7D13465B0013445B00474A13443B61E1
:406080003B691A683B699B889BB210461946FFF7B3FEFB7D0133FB75FB7D0C2BE8D90023FB751CE0FA7D13469B0013445B003B4A1344FB60FB681B68BB60FB685B687B60D9
:4060C000FB681A7A5B7A1B0213437B807B88B86879681A46FFF79EFEFB7D0133FB75FB7D032BDFD94FF090402D49FFF7A7FE2D4A2C4B1B78DBB243F00203DBB213702A4A0C
:40610000294B1B78DBB243F00203DBB21370274A264B1B78DBB243F04003DBB21370244A234B1B78DBB243F01003DBB21370214821490A22FFF76EFE204821490A22FFF754
:4061400069FE204820490A22FFF764FE1F4820490A22FFF75FFE1F481F490A22FFF75AFE1E481F490A22FFF755FE1E4A1D4B1B78DBB243F00803DBB21370FFF743FF1A48B0
:406180000A490E22FFF746FE1837BD4680BD00BF00480040E846004054A90000A4A900009C0000480350014013500140A0430040C2430040F05100407C0C0048105100401E
:4061C000880C004820510040940C004840510040A00C004850510040AC0C004860510040B80C004822430040B0430040000000000230800803D000BF01380046FCD1704760
:40620000EFF3108072B6704780F31088704700BF80B483B000AF0346FB7101BE0C37BD465DF8047B704700BF80B582B000AF786008E00C4B1B681846FFF7DAFF7B68A3F51A
:4062400000437B607B68B3F5004FF2D8064B1B687A6802FB03F31846FFF7CAFF0837BD4680BD00BF5C81FF1F5481FF1F80B582B000AF0346FB80FB88044A127802FB03F342
:406280001846FFF7B5FF0837BD4680BD5881FF1F80B483B000AF03460A46FB711346BB711D491D4B1B78DBB223F00303DAB2FB7903F00303DBB21343DBB20B70164A164B14
:4062C0001B78DBB263F07F03DBB21370124A124B1B78DBB203F07F03DBB213700E49BB795B01DBB203F06003DAB20B4B1B78DBB223F06003DBB21343DBB20B70064A064B6D
:406300001B78DBB243F01003DBB213700C37BD465DF8047B704700BF8343004080B400AF034B01221A70BD465DF8047B704700BF8443004080B584B000AF03463960FB71B9
:406340000F4B1B68FB60FB791F2B02D90020FFF75FFFFB7903F01F0310339B00FA6813441B68BB60FB7903F01F0310339B00FA6813443A681A60BB6818461037BD4680BDD6
:4063800008ED00E080B582B000AF03460A46FB711346BB71BB79072B02D90020FFF738FFFB791F2B02D90020FFF732FFFB7903F01F0303F1604303F56443BA795201D2B231
:4063C0001A700837BD4680BD80B500AF054B1B78002B04D100F008F8024B01221A7000F02FF880BD1C82FF1F80B500AF03200D49FFF7A0FF03200121FFF7C4FF0A4B00226C
:406400001A700A4B72221A70094B20221A70094B06221A70084B47221A70084B00221A7080BD00BF7D6600001D82FF1F8E6400408A6400402B6500403B6500408A65004019
:4064400080B582B000AFFFF7DBFE0346FB71114A104B1B78DBB243F02003DBB213700E4A0D4B1B78DBB243F01003DBB213700B4B08221A600A4A0A4B1B78DBB243F0100317
:40648000DBB21370FB791846FFF7BEFE0837BD4680BD00BF9E6400409A64004000E100E09A65004080B483B000AF1C4B08221A601B4B1B88BB801B4B1B887B801A4B1B7829
:4064C000DBB2002B03D1BA887B889A4218D0BB88164AD35CFB71BB880133BB80BB88FF2B01D90023BB800E4ABB8813800E4B1B78DBB2002B03D00C4B00221A7003E002E005
:406500000B4B1B78FB710B4B08221A60FB7918460C37BD465DF8047B704700BF80E100E01E82FF1F2082FF1F2282FF1F8087FF1F4E64004000E100E080B483B000AF1E4BD2
:4065400008221A601D4B1B889AB21D4B1B889BB29A420BD11B4B1B78DBB2002B03D04FF48073FB801EE00023FB801BE0134B1B889AB2134B1B889BB29A4208D2104B1B88F5
:406580009AB20E4B1B889BB2D31AFB800AE00C4B1B889AB2094B1B889BB2D31A9BB203F58073FB80084B08221A60FB8818460C37BD465DF8047B704780E100E01E82FF1F22
:4065C0002082FF1F2282FF1F00E100E080B582B000AFFFF715FE0346FB71144A134B1B78DBB243F00103DBB21370104A0F4B1B78DBB223F00103DBB21370FB791846FFF79E
:4066000003FE0B4B08221A600A4B00221A800A4B00221A80094B00221A70094B00221A70084B08221A600837BD4680BD9E64004080E100E01E82FF1F2082FF1F2282FF1F04
:406640002382FF1F00E100E080B483B000AF0346FB7100BF074B1B78DBB203F00403002BF8D1054AFB7913700C37BD465DF8047B704700BF6A6500404A65004080B483B071
:4066800000AF0023FB712B4B1B78BB71BB797B71BB7903F01E03002B0BD0BB7903F01E03DAB2254B1B78DBB21343DBB2DAB2224B1A70BB7903F02003002B30D01F4B1B78BD
:4066C0007B711F4B1B889BB219461E4A7B7953540123FB71FB79002B21D01B4B1B78DBB2002B02D0194B01221A70154B1B889BB201339AB2124B1A80114B1B889BB2FF2B01
:4067000002D90F4B00221A800D4B1B889AB2104B1B889BB29A4202D10B4B01221A70BB7903F02003002BAED10C37BD465DF8047B704700BF6A6400401D82FF1F4E640040E3
:406740002082FF1F8087FF1F2282FF1F2382FF1F1E82FF1F80B500AF054B1B78002B04D100F008F8024B01221A7000F02FF880BD2682FF1F80B500AF02200D49FFF7DAFDFD
:4067800002200021FFF7FEFD0A4B00221A700A4B72221A70094B20221A70094B06221A70084B47221A70084B00221A7080BD00BFB96900002782FF1F8B6400408B65004082
:4067C00024640040346400408564004080B582B000AFFFF715FD0346FB71124A114B1B78DBB243F02003DBB213700F4A0E4B1B78DBB243F01003DBB213700C4B04221A60A0
:406800000B4A0B4B1B78DBB243F01003DBB2137000F0E6FBFB791846FFF7F6FC0837BD4680BD00BF9B6400409B65004000E100E09564004080B483B000AF1E4B04221A60D6
:406840001D4B1B889AB21D4B1B889BB29A420BD11B4B1B78DBB2002B03D040F2DC53FB801EE00023FB801BE0134B1B889AB2134B1B889BB29A4208D2104B1B889AB20E4BC6
:406880001B889BB2D31AFB800AE00C4B1B889AB2094B1B889BB2D31A9BB203F2DC53FB80084B04221A60FB8818460C37BD465DF8047B704780E100E02882FF1F2A82FF1FBB
:4068C0002C82FF1F00E100E080B582B000AFFFF797FC0346FB71144A134B1B78DBB243F00103DBB21370104A0F4B1B78DBB223F00103DBB21370FB791846FFF785FC0B4BFA
:4069000004221A600A4B00221A800A4B00221A80094B00221A70094B00221A70084B04221A600837BD4680BD9864004080E100E02882FF1F2A82FF1F2C82FF1F2D82FF1F7B
:4069400000E100E080B483B000AF0346FB7100BF074B1B78DBB203F00403002BF8D1054AFB7913700C37BD465DF8047B704700BF656400404564004080B582B000AFFFF798
:406980003FFC0346FB710B4A0A4B1B78DBB243F00103DBB21370074A064B1B78DBB223F00103DBB21370FB791846FFF72DFC0837BD4680BD9564004080B483B000AF00230B
:4069C000FB712C4B1B78BB71BB797B71BB7903F01E03002B0BD0BB7903F01E03DAB2264B1B78DBB21343DBB2DAB2234B1A70BB7903F02003002B32D0204B1B787B71204BEF
:406A00001B889BB219461F4A7B7953540123FB71FB79002B23D01C4B1B78DBB2002B02D01A4B01221A70164B1B889BB201339AB2134B1A80124B1B889BB240F2DB52934201
:406A400002D90F4B00221A800D4B1B889AB2104B1B889BB29A4202D10B4B01221A70BB7903F02003002BACD10C37BD465DF8047B704700BF6B6500402782FF1F486400409C
:406A80002A82FF1F8088FF1F2C82FF1F2D82FF1F2882FF1F80B500AF134B02221A70134B81221A70124B08221A70124B26221A70114B00221A70114B4FF400421A600F2038
:406AC0000521FFF75FFC0F200D49FFF733FC0D4B10221A700C4B00221A700C4B00221A700B4B00221A7080BDD6490040C8490040CA490040DB490040DC49004080E100E00F
:406B0000856B00005C8EFF1F628EFF1F648EFF1F608EFF1F80B582B000AFFFF771FB0346FB710B4A0A4B1B78DBB243F00403DBB21370084A074B1B78DBB243F00403DBB267
:406B40001370FB791846FFF75FFB0837BD4680BDA5430040B543004080B500AF074B1B78002B04D1FFF796FF044B01221A70FFF7D1FF034B4FF400421A6080BD3082FF1F21
:406B800000E100E080B582B000AFA84B1B78FB71A74B1B78DBB203F04003DBB2002B00F0AC81FB7903F00103002B00F08381A04B1B78DBB2453B052B00F2788101A252F8D2
:406BC00023F000BFDD6B0000056D0000AD6E0000AD6E0000DD6B0000F36D0000FB7923F02003FB71FB7903F00A03DBB2082B46D18F4B1B78DBB2452B3AD18E4B1B78DBB25C
:406C0000002B0FD08C4A8D4B1B681B78DBB21370864B04221A708A4B01221A70844B46221A706EE0874B1B78DBB203F00203002B0FD0854B1B78DBB243F00A03DAB2824BE7
:406C40001A707B4B60221A70804B4FF400421A6057E07F4A7E4B1B78DBB243F01003DBB213707C4B10221A70704B04221A7048E06E4B00221A706E4B4A221A701AE1FB7916
:406C800003F00A03DBB20A2B37D16F4B1B78DBB263F05F03DAB26C4B1A706A4B1B78DBB203F00203002B19D0614B1B78DBB203F00803002B01D0092300E00A23DAB2624B95
:406CC0001B78DBB21343DAB25F4B1A70584B60221A705E4B4FF400421A6012E05C4A5C4B1B78DBB243F01003DBB21370594B10221A704E4B04221A70DCE00020FFF788FA55
:406D0000D8E0D7E0FB7903F00203002B42D14C4B1B78DAB2474B1B78DBB29A4214D2464A464B1B6846490978C9B20B441B78DBB213703E4B04221A70414B1B78DBB20133D6
:406D4000DAB23F4B1A7053E03E4B1B78DBB203F00203002B0FD03C4B1B78DBB243F00A03DAB2394B1A70324B60221A70374B4FF400421A603CE0364A354B1B78DBB243F09B
:406D80001003DBB21370334B10221A70274B04221A708FE02B4B1B78DBB203F00203002B0FD0294B1B78DBB263F06503DAB2264B1A701F4B60221A70244B4FF400421A6093
:406DC00016E0234A224B1B78DBB243F01003DBB21370204B10221A70144B04221A701A4B1B78DBB263F06F03DAB2174B1A7061E060E0194B1B68194A1278D2B213440E4ACD
:406E00001278D2B21A70154B1B78DBB20133DAB2124B1A70114B1B78DAB2114B1B78DBB29A421FD2014B10221A703EE0D74900405C8EFF1F638EFF1FD8490040688EFF1FBD
:406E4000608EFF1F618EFF1F628EFF1F80E100E0D6490040D94900406C8EFF1F648EFF1F708EFF1F2C4B1B78DBB203F00203002B0FD02A4B1B78DBB243F00903DAB2274B3A
:406E80001A70274B60221A70264B4FF400421A600BE0254A244B1B78DBB243F01003DBB21370224B00221A7004E003E00020FFF7AFF900BFFB7903F02003002B28D0184BAE
:406EC0001B78DBB203F00803002B01D0012300E00223DAB2114B1B78DBB21343DAB20F4B1A70114A104B1B78DBB223F01003DBB213700B4B10221A700AE0094B1B78DBB205
:406F000003F01003DBB2002B02D1054B10221A700837BD4680BD00BF618EFF1F628EFF1F5C8EFF1F80E100E0D6490040D749004080B582B000AF786000F046F8786800F067
:406F400013F8072000F022F800F032F80837BD4680BD00BF80B500AF00F036F8014800F003F880BD795C000080B485B000AF7860054B1B68FB60FB6890337A681A6014374A
:406F8000BD465DF8047B704708ED00E080B483B000AF0346FB71054AFB795B01DBB213700C37BD465DF8047B704700BF14E400E080B400AF034B4FF480121A60BD465DF834
:406FC000047B704700E100E080B400AF034B4FF480121A60BD465DF8047B704780E100E080B400AF094A094B1B78DBB243F00403DBB21370064A064B1B78DBB243F004035C
:40700000DBB21370BD465DF8047B7047A2430040B243004080B500AF054B1B78002B04D100F008F8024B01221A7000F02FF880BD3182FF1F80B500AF00200D49FFF77AF9BF
:4070400000200221FFF79EF90A4B00221A700A4B72221A70094B20221A70094B06221A70084B47221A70084B00221A7080BD00BF357200003282FF1F886500408464004097
:4070800023640040336400408264004080B582B000AFFFF7B5F80346FB71124A114B1B78DBB243F02003DBB213700F4A0E4B1B78DBB243F01003DBB213700C4B01221A6044
:4070C0000B4A0B4B1B78DBB243F01003DBB2137000F012FAFB791846FFF796F80837BD4680BD00BF986500409464004000E100E09264004080B483B000AF1D4B01221A6058
:407100001C4B1B78DAB21C4B1B78DBB29A420AD11A4B1B78DBB2002B02D00823FB711DE00023FB711AE0134B1B78DAB2124B1B78DBB29A4208D2104B1B78DAB20D4B1B78D7
:40714000DBB2D31AFB7109E00B4B1B78DAB2094B1B78DBB2D31ADBB20833FB71084B01221A60FB7918460C37BD465DF8047B704780E100E03382FF1F3482FF1F3582FF1FE6
:4071800000E100E080B582B000AFFFF739F80346FB71144A134B1B78DBB243F00103DBB21370104A0F4B1B78DBB223F00103DBB21370FB791846FFF727F80B4B01221A6024
:4071C0000A4B00221A700A4B00221A70094B00221A70094B00221A70084B01221A600837BD4680BD9865004080E100E03382FF1F3482FF1F3582FF1F3682FF1F00E100E08D
:4072000080B483B000AF0346FB7100BF074B1B78DBB203F00403002BF8D1054AFB7913700C37BD465DF8047B704700BF626400404264004080B483B000AF0023FB712B4B87
