:400000000080002011000000A1850000A185000080B500AF024A034B1B68136008F0EEFABC760040FA46004010B5054C237833B9044B13B10448AFF300800123237010BDDB
:400040000082FF1F0000000020D20000084B10B51BB108480849AFF300800848036803B910BD074B002BFBD0BDE81040184700BF0000000020D200000482FF1F0881FF1F6B
:400080000000000090B583B000AF6A4B00221A8062B608F0F3FF09F0F3F908F029FE09F04DFC09F0C7FD0AF07BFA634B002283F85920614B002283F85A205F4B002283F866
:4000C0005B205E4B002283F859205C4B002283F85A205A4B002283F85B200023FB7108E0FB79574A1344012283F83320FB790133FB71FB790F2BF3D9052008F029FD0D2376
:40010000FB710EE0FB79A3F10D04FB799BB218460AF0DCFA03461A464A4B1A55FB790133FB71FB790E2BEDD90F200AF0CFFA03461A46414B83F85C2010200AF0C7FA0346D7
:400140001A463D4B83F8592011200AF0BFFA03461A46394B83F85A2012200AF0B7FA03461A46354B83F85B2013200AF0AFFA03461A46324B83F85C2014200AF0A7FA034696
:400180001A462E4B83F8592015200AF09FFA03461A462A4B83F85A2016200AF097FA03461A46264B83F85B2017200AF08FFA03461A46254B1A701E200AF088FA03461A4606
:4001C000224B5A701F200AF081FA03461A461F4B9A7020200AF07AFA03461A461B4BDA701A200AF073FA03461A46134B1A701C200AF06CFA03461A46104B1A700E4B012218
:400200005A700E4B01225A70114B00221A700A4B032283F85C200D4B00229A700B4B0322DA700C4B00221A70052008F091FC0C37BD4690BD2883FF1F5886FF1F5882FF1FEF
:40024000DC86FF1F3C85FF1F3E85FF1FD882FF1F5686FF1F5585FF1F80B582B000AF03460A46FB711346BB80FB79012B13D1BB880120194607F078FF104B64221A70104BAA
:4002800001221A700F4B01225A700F4809F052FE09F01AFF0FE0BB880220194607F064FF0A4B64221A700A4B01221A7009480AF03DF809F0EDFF0837BD4680BD5585FF1F48
:4002C0002885FF1F5886FF1F895E00000384FF1FC082FF1FFD5E000080B582B000AF0023FB717BE10023FB71C04B1B78DBB2FF2B04D0BF4B1B78DBB2FF2B58D100BF05F006
:40030000B3FE0346002BFAD000BFB84B1B78DAB2B64B93F85C30DBB21046194606F0DAFE0346002BF1D0322008F012FC00BFB04B1B78DAB2AE4B93F85C30DBB2104619460D
:4003400006F0C8FE0346002BF1D0322008F000FCA64B1B78DBB218461A210AF027F90346002B04D101203C2107F0FEFE03E00120552107F0F9FE9E4B1B78DBB218461C21BC
:400380000AF014F90346002B04D102203C2107F0EBFE03E00220552107F0E6FE954B00221A70954B00221A700123FB7116E18F4B1B78DBB2184605F00BFE0346BB71BB799A
:4003C0000C2B7BD801A252F823F000BF01040000BD040000BD040000BD040000BD040000BD04000009040000450400006F0400007D040000990400008B040000A7040000C9
:400400007A4BFF221A7059E0784B1B78DBB2184605F038FF322008F09BFB744B1B78DAB2724B93F85C30DBB21046194606F052FE322008F08DFB704B00221A70FB790133AB
:40044000FB713BE0694B1B78DAB2684B93F85C30DBB21046194606F03DFE322008F078FB654B00221A70FB790133FB7126E0624B0B221A70FB790133FB711FE05E4B0B2265
:400480001A70FB790133FB7118E05B4B0C221A70FB790133FB7111E0574B0C221A70FB790133FB710AE0544B0B221A700120082107F05AFEFB790133FB7100BF4C4B1B78FF
:4004C000DBB2184605F084FD0346BB71BB790C2B00F2848001A252F823F000BF11050000DD050000DD050000DD050000DD050000DD05000019050000550500007F0500008A
:4005000095050000B9050000AB050000C7050000374BFF221A7061E0354B1B78DBB2184605F0B0FE322008F013FB314B1B78DAB22F4B93F85C30DBB21046194606F0CAFD55
:40054000322008F005FB2B4B00221A70FB790133FB7143E0264B1B78DAB2254B93F85C30DBB21046194606F0B5FD322008F0F0FA204B00221A70FB790133FB712EE01D4B02
:400580000B221A700220082107F0EEFDFB790133FB7123E0174B0B221A700220082107F0E3FDFB790133FB7118E0124B0C221A70FB790133FB7111E00E4B0C221A70FB795A
:4005C0000133FB710AE00B4B0B221A700220082107F0CAFDFB790133FB7100BFFB79012B7FF680AE0837BD4680BD00BF5886FF1F5882FF1F0384FF1F5585FF1F80B586B00B
:4006000000AF08F0ABFD0346022B40F2798208F0A5FD03463B820A2008F09AFA08F09EFD0346FB813A8AFB899A4240F06982924B1B78DBB2422B40F05B828F4B5B78DBB22A
:40064000422B40F055828C4B9B78DBB2422B40F04F828A4B00221A70874BDB78DBB2312B00F0DE81452B00F00482302B40F02C82814B0022DA70804B5B79DBB24E2B0AD16C
:400680007D4B1B79DBB203F00F03DBB218461C21FFF7E2FD18E2784B9B7ADBB2462B7DD1774B9B7E5A1E774913469B0013440B4448339B78DBB203F00F03DBB23B72704B6F
:4006C0009B7E5A1E6F4913469B0013440B4449339B78DBB203F00F03DBB27B72684B9B7E5A1E684913469B0013440B444A339B78DBB203F00F03DBB2BB72614B9B7E5A1ED4
:40070000604913469B0013440B444B339B78DBB203F00F03DBB2FB72594B9B7E5A1E594913469B0013440B444C339B78DBB203F00F03DBB23B73534B1B78DBB203F00F03C6
:40074000D9B24F4B9B7E07F10802084611461A4606F082FB0346002B40F09A804A4B4D221A70494B55225A70474B58229A70464B4522DA70444B30221A713F4B1B79DAB232
:40078000414B5A71404B31229A713F4B2A22DA710823FB82394B01221A7095E1394B1B78DAB2384B93F85C30DBB21046194606F091FC364B1B78DBB2012B11D12E4B5B7A8A
:4007C000DBB23B732C4B1B7ADBB2FB722A4BDB79DBB2BB72284B9B79DBB27B7200233B722A4B1B78DBB2002B13D1234B9B7ADBB23B73214B5B7ADBB2FB721F4B1B7ADBB23B
:40080000BB721D4BDB79DBB27B721B4B9B79DBB23B721C4B1B78DBB203F00F03D9B2184B9B7E07F10802084611461A4606F014FB0346002B2CD1144B4D221A70124B552265
:400840005A70114B58229A700F4B4522DA700E4B30221A71084B1B79DAB20B4B5A710A4B31229A71084B2A22DA710823FB82034B01221A7028E100BF8488FF1F2A83FF1FFC
:40088000DC86FF1F5886FF1F6084FF1F3E85FF1F9D4B5B7CDBB27B709B4B5B7CDBB22C2B06D0994B5B7CDBB203F00F03DBB27B70954B1B7CDBB2BB70934B1B7CDBB22C2BDE
:4008C00006D0914B1B7CDBB203F00F03DBB2BB708D4BDB7BDBB2FB708B4BDB7BDBB22C2B06D0894BDB7BDBB203F00F03DBB2FB70854B9B7BDBB23B71834B9B7BDBB22C2BBE
:4009000006D0814B9B7BDBB203F00F03DBB23B717D4B5B7BDBB27B717B4B5B7BDBB22C2B06D0794B5B7BDBB203F00F03DBB27B71754B1B7BDBB2BB71734B1B7BDBB22C2BDB
:4009400006D0714B1B7BDBB203F00F03DBB2BB716D4BDB7ADBB2FB716B4BDB7ADBB22C2B06D0694BDB7ADBB203F00F03DBB2FB71654B9B7CDBB27B827B8A312B02D10223FB
:400980007B8201E001237B82604B1B78DBB203F00F03D8B25E4B997E7B8ADBB23A4605F01BFE0346012B1BD10A2008F0D1F8574B1B78DBB2DBB203F00F03DBB243F010038B
:4009C000DBB2DBB2184608F0D3FA504B06225A70504B08221A700120082107F0C5FB73E04D4B4D221A704C4B55225A704A4B58229A70494B4522DA70474B30221A71424BC7
:400A00001B79DAB2444B5A71434B32229A71424B2A22DA710823FB82404B01221A7053E00120372107F0A0FB384B1B78DBB21A46364B1B78DBB203F00F039A4206D1334B33
:400A400001225A70334B00221A7011E0344B1B78DBB21A462C4B1B79DBB203F00F039A4206D12F4B01225A702A4B00221A702BE02AE0254B5B79DBB2313B032B23D801A279
:400A800052F823F0950A0000A50A0000B50A0000C50A00001D4B01225A7001201C21FFF7DBFB10E0194B01225A7001200C21FFF7D3FB08E0154B01225A7001200C21FFF7B2
:400AC000CBFB00E000BF00BF144B1B78012B0FD10023BB8208E0BB8A0F4AD35C184608F0C5FBBB8A0133BB82BA8AFB8A9A42F2D308F07EFB08F0FEF900233B820023FB81AA
:400B00001837BD4680BD00BF8488FF1F5886FF1FDC86FF1F5585FF1F6084FF1F2A83FF1F5882FF1F80B586B000AF08F017FB0346052B40F27B8208F011FB03463B820A2004
:400B400008F006F808F00AFB0346FB813A8AFB899A4240F06B82924B1B78DBB2422B40F05D828F4B5B78DBB2422B40F057828C4B9B78DBB2422B40F051828A4B00221A70EB
:400B8000874BDB78DBB2312B00F0E081452B00F00682302B40F02E82814B0022DA70804B5B79DBB24E2B0AD17D4B1B79DBB203F00F03DBB218461C21FFF74EFB1AE2784BE7
:400BC0009B7ADBB2462B7DD1774B9B7E5A1E774913469B0013440B4448339B78DBB203F00F03DBB23B72704B9B7E5A1E6F4913469B0013440B4449339B78DBB203F00F03CE
:400C0000DBB27B72684B9B7E5A1E684913469B0013440B444A339B78DBB203F00F03DBB2BB72614B9B7E5A1E604913469B0013440B444B339B78DBB203F00F03DBB2FB7232
:400C4000594B9B7E5A1E594913469B0013440B444C339B78DBB203F00F03DBB23B73534B1B78DBB203F00F03D9B2514B9B7E07F10802084611461A4606F0EEF80346002B4A
:400C800040F09C804B4B4D221A704A4B55225A70484B58229A70474B4522DA70454B30221A713F4B1B79DAB2424B5A71414B31229A71404B2A22DA710823FB82394B01225F
:400CC0001A7097E1394B1B78DAB2384B93F85C30DBB21046194606F0FDF9374B1B78DBB2012B11D12E4B5B7ADBB23B732C4B1B7ADBB2FB722A4BDB79DBB2BB72284B9B793E
:400D0000DBB27B7200233B722B4B1B78DBB2002B13D1234B9B7ADBB23B73214B5B7ADBB2FB721F4B1B7ADBB2BB721D4BDB79DBB27B721B4B9B79DBB23B721C4B1B78DBB2A1
:400D400003F00F03D9B21A4B9B7E07F10802084611461A4606F080F80346002B2ED1154B4D221A70134B55225A70124B58229A70104B4522DA700F4B30221A71084B1B797A
:400D8000DAB20C4B5A710B4B31229A71094B2A22DA710823FB82034B01221A702AE100BF8488FF1F2A83FF1FDC86FF1F5882FF1F5885FF1F6084FF1F3E85FF1F9D4B5B7C6F
:400DC000DBB27B709B4B5B7CDBB22C2B06D0994B5B7CDBB203F00F03DBB27B70954B1B7CDBB2BB70934B1B7CDBB22C2B06D0914B1B7CDBB203F00F03DBB2BB708D4BDB7BF6
:400E0000DBB2FB708B4BDB7BDBB22C2B06D0894BDB7BDBB203F00F03DBB2FB70854B9B7BDBB23B71834B9B7BDBB22C2B06D0814B9B7BDBB203F00F03DBB23B717D4B5B7B18
:400E4000DBB27B717B4B5B7BDBB22C2B06D0794B5B7BDBB203F00F03DBB27B71754B1B7BDBB2BB71734B1B7BDBB22C2B06D0714B1B7BDBB203F00F03DBB2BB716D4BDB7A37
:400E8000DBB2FB716B4BDB7ADBB22C2B06D0694BDB7ADBB203F00F03DBB2FB71654B9B7CDBB27B827B8A312B02D102237B8201E001237B82604B1B78DBB203F00F03D8B2DD
:400EC0005E4B997E7B8ADBB23A4605F085FB0346012B1BD10A2007F03BFE574B1B78DBB2DBB203F00F03DBB243F01003DBB2DBB2184608F03DF8504B06225A70504B0822D2
:400F00001A700120082107F02FF973E04D4B4D221A704C4B55225A704A4B58229A70494B4522DA70474B30221A71424B1B79DAB2444B5A71434B32229A71424B2A22DA711D
:400F40000823FB82404B01221A7053E00120372107F00AF93D4B1B78DBB21A463B4B1B78DBB203F00F039A4206D1384B01225A70334B00221A7011E02F4B1B78DBB21A4600
:400F80002C4B1B79DBB203F00F039A4206D12A4B01225A702A4B00221A702BE02AE0254B5B79DBB2313B032B23D801A252F823F0C10F0000D10F0000E10F0000F10F000043
:400FC0001D4B01225A7001201C21FFF745F910E0194B01225A7001200C21FFF73DF908E0154B01225A7001200C21FFF735F900E000BF00BF144B1B78012B0FD10023BB82EC
:4010000008E0BB8A0F4AD35C184608F02FF9BB8A0133BB82BA8AFB8A9A42F2D308F0E8F807F068FF00233B820023FB811837BD4680BD00BF8488FF1F5882FF1F5885FF1F3D
:401040005585FF1F6084FF1F2A83FF1F5886FF1FB0B58EB002AFCD4B1B78DBB2662B04F2078701A252F823F0051200001F120000C7120000DD1700008D180000631C0000D5
:40108000491E0000715E00000D1F0000BF210000715E0000CB2A0000A32D00003D430000A14E0000C750000007520000F55200009B5300005B5C000051120000715E00005D
:4010C000715E0000715E0000715E0000715E0000715E0000715E0000715E0000715E0000715E0000715E0000715E0000715E0000715E0000715E0000715E0000715E000000
:40110000715E0000715E0000715E0000715E0000715E0000715E0000715E0000715E0000715E0000715E0000715E0000715E0000715E0000715E0000715E0000715E0000BF
:40114000715E0000715E0000715E0000715E0000715E0000715E0000715E0000715E0000715E0000715E0000715E0000715E0000715E0000715E0000715E0000715E00007F
:40118000715E0000715E0000715E0000715E0000715E0000715E0000715E0000715E0000715E0000715E0000715E0000715E0000715E0000715E0000715E0000715E00003F
:4011C000715E0000715E0000715E0000715E0000715E0000715E0000715E0000715E0000715E0000715E0000715E0000715E0000715E0000715E0000515E0000715E00001F
:40120000715E0000624808F095FE08F05DFF614B00221A705D4B01221A7004F029BE08F0FDFB0346082B11D108F096FE08F05CFF01202E2106F098FF544B14221A7008F04D
:4012400035FC554B00221A7004F012BE04F010BE08F0E4FB0346082B33D1504B1B78DBB2AA2B27D14D4B9B79DBB2C32B22D14B4BDB79DBB23C2B1DD1484BDB78DBB2562BB2
:4012800002D0572B0BD015E00120632106F06CFF414B01221A703D4B02221A700AE00120632106F061FF3C4B02221A70374B02221A7000BF642007F04BFC08F0F7FB04F0EC
:4012C000D7BD04F0D5BD08F0A9FB0346082B40F08382324B1B78DBB2AA2B40F076822F4B9B79DBB2C32B40F070822C4BDB79DBB23C2B40F06A82294BDB78DBB2592B1AD025
:40130000592B02DC452B0ED05FE25C2B03D07E2B00F0538259E20120492106F025FF1B4B03221A7051E20120722106F01DFF174B0F221A7049E20120392106F015FF184BD6
:401340004D221A70164B55225A70154B58229A70134B3222DA70104B1B78DBB2012B40F01381104B1B78DAB20E4B93F85C30DBB21046194605F0AEFE322007F0E9FB042366
:4013800087F82D30002387F82F3026E05585FF1F895E00002885FF1F4F86FF1F788EFF1F6084FF1F5886FF1F97F82D3097F82F20C5490A449278D2B202F00F02D2B23032EE
:4013C000D1B2C24AD15497F82D30013387F82D3097F82F30013387F82F3097F82F300B2BE2D90C2387F82F3018E097F82D3097F82F20B5490A449278D2B202F00F02D2B22E
:401400003032D1B2B14AD15497F82D30013387F82D3097F82F30013387F82F3097F82F30172BE2D9002387F82F3018E097F82D3097F82F20A4490A44927ED2B202F00F022B
:40144000D2B23032D1B2A14AD15497F82D30013387F82D3097F82F30013387F82F3097F82F300B2BE2D90C2387F82F3018E097F82D3097F82F2094490A44927ED2B202F098
:401480000F02D2B23032D1B2904AD15497F82D30013387F82D3097F82F30013387F82F3097F82F30172BE2D9002387F82F3019E097F82D3097F82F2083490A4492F8322012
:4014C000D2B202F00F02D2B23032D1B27F4AD15497F82D30013387F82D3097F82F30013387F82F3097F82F300B2BE1D90C2387F82F3019E097F82D3097F82F2072490A445B
:4015000092F83220D2B202F00F02D2B23032D1B26E4AD15497F82D30013387F82D3097F82F30013387F82F3097F82F30172BE1D9664B2A2283F84B2007F05AFE002387F848
:401540002F300BE097F82F30604AD35C184607F08DFE97F82F30013387F82F3097F82F304B2BEFD9FA2007F0F3FA07F0F7FD0346012B09D901204A2106F0F6FD544B0022D8
:401580001A70514B01225A70524B1B78DBB2022B40F01081504B1B78DAB24F4B93F85C30DBB21046194605F095FD322007F0D0FA042387F82D30002387F82F3018E097F89B
:4015C0002D3097F82F2044490A449278D2B202F00F02D2B23032D1B23C4AD15497F82D30013387F82D3097F82F30013387F82F3097F82F300B2BE2D90C2387F82F3018E050
:4016000097F82D3097F82F2033490A449278D2B202F00F02D2B23032D1B22C4AD15497F82D30013387F82D3097F82F30013387F82F3097F82F30172BE2D9002387F82F3099
:4016400018E097F82D3097F82F2023490A44927ED2B202F00F02D2B23032D1B21B4AD15497F82D30013387F82D3097F82F30013387F82F3097F82F300B2BE2D90C2387F8DB
:401680002F3018E097F82D3097F82F2012490A44927ED2B202F00F02D2B23032D1B20B4AD15497F82D30013387F82D3097F82F30013387F82F3097F82F30172BE2D90023DC
:4016C00087F82F3024E000BF5886FF1F6084FF1F5585FF1F4F86FF1F5882FF1F97F82D3097F82F20C5490A4492F83220D2B202F00F02D2B23032D1B2C14AD15497F82D305A
:40170000013387F82D3097F82F30013387F82F3097F82F300B2BE1D90C2387F82F3019E097F82D3097F82F20B4490A4492F83220D2B202F00F02D2B23032D1B2B04AD154B5
:4017400097F82D30013387F82D3097F82F30013387F82F3097F82F30172BE1D9A84B2A2283F84B2007F044FD002387F82F300BE097F82F30A24AD35C184607F077FD97F8D9
:401780002F30013387F82F3097F82F304B2BEFD9FA2007F0DDF907F0E1FC0346012B09D901204A2106F0E0FC964B00221A70934B01225A7007F01CFD07E001204A2106F04B
:4017C000D3FC904B00221A7000BF642007F0C0F908F06CF904F04CBB04F04ABB08F01EF90346082B50D1884B1B78DBB2AA2B44D1854B9B79DBB2C32B3FD1834BDB79DBB2A8
:401800003C2B3AD1804BDB78DBB25F2B09D05F2B02DC5E2B13D030E07E2B1ED0942B24D02BE00120122106F09FFC784B00221A70774B08221A70734B0B221A701DE0012092
:40184000122106F091FC714B01221A706D4B0B221A706F4B00221A700FE001204A2106F083FC684B00221A7007E00120632106F07BFC644B01221A7000BF642007F068F935
:4018800008F014F904F0F4BA04F0F2BA08F0C6F80346082B40F0E3815B4B1B78DBB2AA2B40F0D681584B9B79DBB2C32B40F0D081554BDB79DBB23C2B40F0CA81524BDB78F3
:4018C000DBB23B2B00F0B8813B2B05DC0F2B0AD0102B00F0B580BBE1432B00F03B817E2B00F0AE81B4E14B4B1B78DBB2012B3ED1002387F82F300AE097F82F30464A13444D
:401900000022DA7697F82F30013387F82F3097F82F30072BF0D9414B00221A703C4B01221A703F4B2C221A703E4B5B78DAB23E4B1A70394B0122DA763C4B00221A70012038
:40194000062106F011FC3A4B04221A80394B03221A80394B01221A8001230093012024210322042306F04CFC264B0C221A70294B1B78DBB2022B3FD1002387F82F300AE0E8
:4019800097F82F302D4A13440022DA7697F82F30013387F82F3097F82F30072BF0D91F4B00221A701A4B01221A701D4B2C221A701C4B5B78DAB21C4B1A70204B0122DA7613
:4019C0001A4B00221A700120062106F0CDFB184B04221A80174B03221A80174B01221A8001230093012024210322042306F008FC044B0C221A702BE12AE100BF5882FF1F35
:401A00006084FF1F5585FF1F788EFF1F0284FF1FD782FF1F4F86FF1FDC86FF1F3F85FF1FB582FF1FD882FF1F0884FF1F5682FF1FB686FF1FDC82FF1F0084FF1F5885FF1F38
:401A4000B84B1B78DBB2012B3ED1002387F82F300AE097F82F30B44A13440022DA7697F82F30013387F82F3097F82F30072BF0D9AE4B00221A70AE4B01221A70AD4B2C22EE
:401A80001A70AD4B5B78DAB2AC4B1A70A64B0222DA76AB4B00221A7001200D2106F064FBA84B04221A80A84B03221A80A74B01221A800123009301204C210322042306F07E
:401AC0009FFBA34B0C221A70964B1B78DBB2022B3FD1002387F82F300AE097F82F30924A13440022DA7697F82F30013387F82F3097F82F30072BF0D98C4B00221A708C4BA7
:401B000001221A708B4B2C221A708B4B5B78DAB28A4B1A708F4B0222DA76894B00221A7001200D2106F020FB864B04221A80864B03221A80854B01221A8001230093012002
:401B40004C210322042306F05BFB814B0C221A707EE07DE0734B1B78DBB2012B32D1002387F82F300AE097F82F306F4A13440022DA7697F82F30013387F82F3097F82F30CB
:401B8000072BF0D9684B0322DA76052387F82F300AE097F82F30644A13440922DA7697F82F30013387F82F3097F82F30072BF0D90120072106F0D8FA674B02225A70644B5B
:401BC00006221A70574B1B78DBB2022B33D1002387F82F300AE097F82F305E4A13440022DA7697F82F30013387F82F3097F82F30072BF0D94C4B0322DA76052387F82F30FB
:401C00000AE097F82F30534A13440922DA7697F82F30013387F82F3097F82F30072BF0D90120072106F0A0FA4C4B02225A70484B06221A700CE00BE0454B00221A7007E0D7
:401C400001204A2106F090FA414B00221A7000BF642006F07DFF07F029FF04F009B904F007B9304B1B78DBB2012B40F08280322006F06EFF07F0D2FE0346082B1AD1384B83
:401C80001B78DBB2AA2B11D1354B9B79DBB2C32B0CD1334BDB79DBB23C2B07D1304BDB78DBB27E2B02D12A4B00221A7007F0FEFE04F0DEB8284B1B78DBB2184604F088F9E8
:401CC000034687F82F3097F82F30072B06D1204B06221A70322006F03BFF4AE097F82F30002B0ED1322006F033FF1B4B1B78DAB207F11403104601211A46022304F06CFC9E
:401D000037E097F82F300C2B04D101205521FEF7A3FA2EE097F82F300B2B23D10C4B0D221A7026E04F86FF1FDC86FF1F3F85FF1FD782FF1FB582FF1FD882FF1F0884FF1FEA
:401D40005682FF1FB686FF1FDC82FF1F0084FF1F5585FF1F5885FF1F5886FF1F5882FF1F788EFF1F97F82F300A2B02D1C44B0D221A70C44B1B78DBB2022B63D1322006F054
:401D8000E7FE07F04BFE0346082B1AD1BE4B1B78DBB2AA2B11D1BC4B9B79DBB2C32B0CD1B94BDB79DBB23C2B07D1B74BDB78DBB27E2B02D1B24B00221A7007F077FE04F0B9
:401DC00057B8B24B1B78DBB2184604F001F9034687F82F3097F82F30072B06D1A84B06221A70322006F0B4FE2CE097F82F30002B0ED1322006F0ACFEA44B1B78DAB207F1B2
:401E00001403104601211A46022304F0E5FB19E097F82F300C2B04D101205521FEF71CFA10E097F82F300B2B03D1954B0D221A7008E097F82F300A2B04D1914B0D221A702F
:401E400004F016B804F014B88E4B1B78DBB2012B29D10A2006F07CFE8D4B1B78DBB2184604F052F903461A468A4B9A76894B9B7E002B18D0142006F06BFE854B1B78DBB281
:401E8000184604F0A5F80346072B0CD1824B00221A807F4B04225A700120392106F064F9774B09221A70774B1B78DBB2022B2BD10A2006F04DFE754B1B78DBB2184604F0AB
:401EC00023F903461A46754B9A76744B9B7E002B1AD0142006F03CFE6C4B1B78DBB2184604F076F80346072B0ED16B4B00221A80664B04225A700120392106F035F9604BAE
:401F000009221A7003F0B4BF03F0B2BF322006F01FFE5C4B1B78DBB2012B40F09B805C4B1B78DBB2184604F053F803460A2B32D00B2B02D0062B59D08CE0642006F008FE4D
:401F4000002387F82F3010E097F82F30514A13440022DA7197F82F304E4A134400221A7497F82F30013387F82F3097F82F30082BEAD9474B1B78DBB2184604F083F90346E9
:401F8000012B07D13E4B0D221A700120392106F0EBF85FE05EE0002387F82F3010E097F82F303C4A13440022DA7197F82F30394A134400221A7497F82F30013387F82F3069
:401FC00097F82F30082BEAD9314B1B78DBB2184604F058F90346012B07D1294B0D221A700120392106F0C0F834E033E0002387F82F3010E097F82F30264A13440022DA71E1
:4020000097F82F30234A134400221A7497F82F30013387F82F3097F82F30082BEAD9002387F82F300AE097F82F301A4A134400229A7097F82F30013387F82F3097F82F30AC
:40204000042BF0D90E4B0D221A700120392106F08BF800BF0B4B1B78DBB2022B40F0AD800A4B1B78DBB2184603F0B2FF03460A2B44D00B2B14D0062B6BD003F0F9BE00BFAB
:402080005585FF1F4F86FF1F788EFF1F5882FF1F5886FF1FDC86FF1F2883FF1F5885FF1F642006F055FD002387F82F3010E097F82F30734A13440022DA7197F82F30704A05
:4020C000134400221A7497F82F30013387F82F3097F82F30082BEAD96A4B1B78DBB2184604F0D0F80346012B07D1674B0D221A700120392106F038F85FE05EE0002387F88E
:402100002F3010E097F82F305D4A13440022DA7197F82F305A4A134400221A7497F82F30013387F82F3097F82F30082BEAD9554B1B78DBB2184604F0A5F80346012B07D17E
:40214000514B0D221A700120392106F00DF834E033E0002387F82F3010E097F82F30484A13440022DA7197F82F30454A134400221A7497F82F30013387F82F3097F82F30C6
:40218000082BEAD9002387F82F300AE097F82F303B4A134400229A7097F82F30013387F82F3097F82F30042BF0D9374B0D221A700120392105F0D8FF00BF03F059BE334B99
:4021C0004D221A70314B55225A70304B58229A702E4B3022DA702E4B1B78DBB2012B40F024822C4B1B78012B42D1002387F82F303AE097F82F305B08DBB21A46264B134410
:4022000093F823301B0987F82E3097F82F3003F00103DBB2002B0CD197F82F305B08DBB21A461D4B134493F8233003F00F0387F82E3097F82F30043397F82E203032D1B2A1
:40224000124AD15497F82E30092B08D997F82F30043397F82E203732D1B20C4AD15497F82F30013387F82F3097F82F300F2BC0D9084B1B78002B50D1002387F82F3048E056
:402280005885FF1F5882FF1F5585FF1F6084FF1F4F86FF1F0284FF1FDC86FF1F97F82F305B08DBB21A46B54B134493F823301B0987F82E3097F82F3003F00103DBB2002B09
:4022C0000CD197F82F305B08DBB21A46AB4B134493F8233003F00F0387F82E3097F82F30043397F82E203032D1B2A54AD15497F82E30092B08D997F82F30043397F82E20B7
:402300003732D1B29E4AD15497F82F30013387F82F3097F82F300F2BC0D9984B9B7E013B984A134493F85930DBB23033DAB2944B1A75954B1B78002B13D1944B1B79DAB2F3
:402340008F4B5A75914BDB78DAB28D4B9A758F4B9B78DAB28A4BDA758C4B5B78DAB2884B1A76894B1B78012B0BD1854B30225A75834B30229A75824B3022DA75804B3022C2
:402380001A76834B1B78DBB2002B59D17B4B9B7E5A1E7C4913469B0013440B444C339B78DBB203F00F03DBB23033DAB2744B5A76724B9B7E5A1E734913469B0013440B44C1
:4023C0004B339B78DBB203F00F03DBB23033DAB26B4B9A76694B9B7E5A1E6A4913469B0013440B444A339B78DBB203F00F03DBB23033DAB2624BDA76604B9B7E5A1E614965
:4024000013469B0013440B4449339B78DBB203F00F03DBB23033DAB2594B1A77574B9B7E5A1E584913469B0013440B4448339B78DBB203F00F03DBB23033DAB2504B5A77BA
:40244000534B1B78DBB2012B4AD14C4B9B7E5A1E4C4913469B0013440B444B339B78DBB203F00F03DBB23033DAB2454B5A76434B9B7E5A1E434913469B0013440B444A333F
:402480009B78DBB203F00F03DBB23033DAB23C4B9A763A4B9B7E5A1E3A4913469B0013440B4449339B78DBB203F00F03DBB23033DAB2334BDA76314B9B7E5A1E31491346E6
:4024C0009B0013440B4448339B78DBB203F00F03DBB23033DAB22A4B1A77294B30225A77264BDB7E3033DAB2254B9A77234B93F82220234BDA77214B93F82230092B06D8D3
:402500001E4B93F822303033DAB21D4BDA771B4B93F821201A4B83F82020184B93F82130092B07D8154B93F821303033DAB2144B83F82020114B93F82020114B83F8212085
:402540000E4B93F82030092B07D80C4B93F820303033DAB20A4B83F82120084BDA7F084B83F82220054BDB7F092B13D8034BDB7F3033DAB2024B83F822200BE0DC86FF1F51
:402580006084FF1F5886FF1F0284FF1F2C85FF1F3E85FF1F4F4B9A7F4F4B83F823204D4B9B7F092B06D84B4B9B7F3033DAB24A4B83F82320474B5A7F474B83F82420454BBC
:4025C0005B7F092B06D8434B5B7F3033DAB2424B83F824203F4B1A7F3F4B83F825203D4B1B7F092B06D83B4B1B7F3033DAB23A4B83F82520002387F82F3012E097F82F3076
:40260000263397F82F20013232490A4492F843203032D1B2304AD15497F82F30013387F82F3097F82F30062BE8D92C4B1B78DBB2022B40F024822A4B1B78012B42D1002312
:4026400087F82F303AE097F82F305B08DBB21A46244B134493F823301B0987F82E3097F82F3003F00103DBB2002B0CD197F82F305B08DBB21A461B4B134493F8233003F039
:402680000F0387F82E3097F82F30043397F82E203032D1B2104AD15497F82E30092B08D997F82F30043397F82E203732D1B20A4AD15497F82F30013387F82F3097F82F306E
:4026C0000F2BC0D9064B1B78002B4CD1002387F82F3044E0DC86FF1F6084FF1F4F86FF1F0284FF1F5885FF1F97F82F305B08DBB21A46B54B134493F823301B0987F82E302E
:4027000097F82F3003F00103DBB2002B0CD197F82F305B08DBB21A46AB4B134493F8233003F00F0387F82E3097F82F30043397F82E203032D1B2A54AD15497F82E30092BB8
:4027400008D997F82F30043397F82E203732D1B29E4AD15497F82F30013387F82F3097F82F300F2BC0D9984B9B7E013B984A134493F85930DBB23033DAB2944B1A75954B6D
:402780001B78002B13D1944B1B79DAB28F4B5A75914BDB78DAB28D4B9A758F4B9B78DAB28A4BDA758C4B5B78DAB2884B1A76894B1B78012B0BD1854B30225A75834B302277
:4027C0009A75824B3022DA75804B30221A76834B1B78DBB2002B59D17B4B9B7E5A1E7C4913469B0013440B444C339B78DBB203F00F03DBB23033DAB2744B5A76724B9B7EB1
:402800005A1E734913469B0013440B444B339B78DBB203F00F03DBB23033DAB26B4B9A76694B9B7E5A1E6A4913469B0013440B444A339B78DBB203F00F03DBB23033DAB235
:40284000624BDA76604B9B7E5A1E614913469B0013440B4449339B78DBB203F00F03DBB23033DAB2594B1A77574B9B7E5A1E584913469B0013440B4448339B78DBB203F08D
:402880000F03DBB23033DAB2504B5A77534B1B78DBB2012B4AD14C4B9B7E5A1E504913469B0013440B444B339B78DBB203F00F03DBB23033DAB2454B5A76434B9B7E5A1EA0
:4028C000474913469B0013440B444A339B78DBB203F00F03DBB23033DAB23C4B9A763A4B9B7E5A1E3E4913469B0013440B4449339B78DBB203F00F03DBB23033DAB2334B27
:40290000DA76314B9B7E5A1E354913469B0013440B4448339B78DBB203F00F03DBB23033DAB22A4B1A77294B30225A77264BDB7E3033DAB2254B9A77234B93F82220234B06
:40294000DA77284B93F82230092B06D81E4B93F822303033DAB21D4BDA771B4B93F821201A4B83F820201F4B93F82130092B07D8154B93F821303033DAB2144B83F82020C6
:40298000114B93F82020114B83F821200E4B93F82030092B07D80C4B93F820303033DAB20A4B83F82120084BDA7F084B83F82220054BDB7F092B17D8034BDB7F3033DAB23F
:4029C000024B83F822200FE05885FF1F6084FF1F5882FF1F0284FF1F2C85FF1F3E85FF1F5886FF1FDC86FF1F9D4B9A7F9D4B83F823209B4B9B7F092B06D8994B9B7F3033FF
:402A0000DAB2984B83F82320954B5A7F954B83F82420934B5B7F092B06D8914B5B7F3033DAB2904B83F824208D4B1A7F8D4B83F825208B4B1B7F092B06D8894B1B7F3033AC
:402A4000DAB2884B83F82520002387F82F3012E097F82F30263397F82F20013280490A4492F843203032D1B27E4AD15497F82F30013387F82F3097F82F30062BE8D9794B72
:402A8000312283F82D20774B2A2283F82E2006F0AFFB002387F82F300BE097F82F30714AD35C184606F0E2FB97F82F30013387F82F3097F82F302E2BEFD94FF4AF7006F028
:402AC00047F806F0EDFB03F0D3B9674B1B78DBB2012B40F09180012005F0F6FB0346012B40F08A800120332105F04EFC0346002B00F08280002387F82F300FE097F82F403D
:402B0000012005F0C7FC03461A46584B234483F8232097F82F30013387F82F3097F82F30072BEBD9524B00221A70002387F82F3014E04F4B197897F82F304C4A134493F898
:402B400023300846194605F0FFFC03461A46484B1A7097F82F30013387F82F3097F82F30062BE6D9414B93F82A20414B1B789A4242D10120132105F0F7FA4FF4FA7005F075
:402B8000E7FF3C4B00221A703B4B0A221A703B4B02221A803A4B03221A803A4B01221A80394B1B78DBB20A2B06D10120132105F0DBFA364B13221A70334B1B78DBB2082B16
:402BC00006D10120242105F0CFFA304B0C221A702D4B1B78DBB2082B0ED02B4B1B78DBB20A2B09D0284B02221A7001200E2105F0BBFA264B0C221A701B4B1B78DBB2022B63
:402C000040F0A980012005F05FFB0346012B40F0A2800120332105F0B7FB0346002B00F09A80002387F82F300FE097F82F40012005F030FC03461A46094B234483F8232018
:402C400097F82F30013387F82F3097F82F30072BEBD9074B00221A70002387F82F302CE05885FF1F6084FF1F4F86FF1FDC86FF1F2583FF1F3F85FF1F0884FF1FB686FF1F49
:402C8000DC82FF1F0084FF1FD782FF1F5585FF1F7F4B197897F82F307E4A134493F823300846194605F050FC03461A46784B1A7097F82F30013387F82F3097F82F30062B3E
:402CC000E6D9744B93F82A20714B1B789A4242D10120132105F048FA4FF4FA7005F038FF6D4B00221A706D4B0A221A706C4B02221A806C4B03221A806B4B01221A806B4BF8
:402D00001B78DBB20A2B06D10120132105F02CFA674B13221A70654B1B78DBB2082B06D10120242105F020FA614B0C221A705F4B1B78DBB2082B0ED05C4B1B78DBB20A2BFC
:402D400009D05A4B02221A7001200E2105F00CFA574B0C221A7006F061FE0346082B1ED1544B1B78DBB2AA2B12D1524B9B79DBB2C32B0DD14F4BDB79DBB23C2B08D14D4BEE
:402D8000DB78DBB23B2B03D1494B00221A7000BF642005F0DDFE06F089FE03F069B803F067B8454B1B78DBB2012B40F05D8506F035FE0346082B40F057853E4B1B78DBB2BB
:402DC000AA2B40F04F853B4B9B79DBB2C32B40F04985384BDB79DBB23C2B40F04385374B00221A702C4B1B78DAB22C4B1B78DBB29A4280F0D7802F4BDB78DBB2092B32D88E
:402E0000254B1B78DBB20133DAB2234B1A70224B1B78DBB21A46274BDB78D9B2284B9954244BDB78DBB23033D9B21E4B1B889DB2194B1B78DBB29BB21B4A128892B20132CE
:402E400092B202FB03F39AB2154B1B889BB213449CB2154B1B889BB2DBB2009301202A46234605F0CDF9134BDB78DBB20A2B56D10E4B1B78DBB2012B24D1074B1B78DBB20F
:402E8000012B1FD10E4B5B78DBB2002B1AD146E02583FF1F5885FF1F3F85FF1F0884FF1FB686FF1FDC82FF1F0084FF1FD782FF1F5585FF1F788EFF1F4F86FF1F2885FF1FEB
:402EC0003086FF1FAF4B1B78DBB20133DAB2AD4B1A70AC4B1B78DBB21A46AB4B00219954AA4B1B889DB2A74B1B78DBB29BB2A84A128892B2013292B202FB03F39AB2A54B6B
:402F00001B889BB213449CB2A14B1B889BB2DBB20093012030212A46234605F071F99E4BDB78DBB2512B3DD1964B1B78DBB2002B38D09A4B1B78DBB2002B33D1914B1B782C
:402F4000DBB20133DAB28F4B1A708E4B1B78DBB21A46934B1B78D9B28B4B9954904B1B78D9B28A4B1B889DB2864B1B78DBB29BB2874A128892B2013292B202FB03F39AB225
:402F8000844B1B889BB213449CB2814B1B889BB2DBB2009301202A46234605F031F97F4B01221A707C4BDB78DBB20B2B40F0A080744B1B78DBB2002B5ED17A4B1B78DBB2F6
:402FC000013B072B00F2948001A252F823F000BFF12F000001300000093000001F300000353000004B300000F1300000613000000120052105F0B8F86B4B04221A703AE0C7
:40300000694B00221A7036E00120002105F0ACF8654B00221A70654B01225A702BE00120002105F0A1F8604B00221A705F4B01225A7020E00120002105F096F85A4B0022F1
:403040001A705A4B01225A7015E00120002105F08BF8554B00221A70544B01225A700AE00120002105F080F84F4B00221A704F4B01225A7000BF3BE0444B1B889DB2414B60
:403080001B78DBB29BB2424A128892B2013292B202FB03F39AB23F4B1B889BB213449CB23B4B1B889BB2DBB20093012020212A46234605F0A5F8334B1B78DBB21A46324B86
:4030C0009B5CDAB2364B1B78DBB29A4202D1334B00221A702B4B1B78DBB21A462A4B00219954284B1B78DBB2013BDAB2254B1A70294BDB78DBB20C2B40F0B483294B1B780C
:40310000DBB2013B072B00F2AD8301A252F823F031310000C53200003D330000B53300000F340000FD3400002F350000D7360000002387F82F300CE097F82F3007F13002D7
:403140001344002203F82C2C97F82F30013387F82F3097F82F30072BEED90A4B1B78DBB2002B00F0AE80074B1B78DBB21A46064B9B5CDBB22C2B00F0A480012387F82F30CA
:403180003FE000BF3F85FF1F3086FF1FDC82FF1F0084FF1FB686FF1F788EFF1F5682FF1FB582FF1FD782FF1F5585FF1F5886FF1F97F82F30BC4AD35CDBB22C2B0FD097F8B4
:4031C0002F30013B97F82F20B7498A5CD2B23032D2B207F130010B4403F82C2C0CE097F82F30013B97F82F20AF498A5CD2B207F130010B4403F82C2C97F82F30013387F879
:403200002F30AA4B1B78DBB297F82F209A42CFD93B1D184607F0ACFDC7E90801A44BDB7E012B09D1D7E908014FF00002A14B07F08BFD0346002B1AD19D4BDB7E022B40D108
:40324000D7E908014FF000029A4B07F073FD0346002B00D106E3D7E908014FF000024FF0000307F07BFD0346002B00D1FAE28F4B1B7887F82F3015E097F82F308B4A127861
:40328000D2B2114697F82F208A1A013286498A5CD1B2874A13440A46DA7697F82F30013B87F82F3097F82F30002BE5D1824B05221A70824B02225A700120072104F054FFDE
:4032C000D0E2CFE20120052104F04EFF002387F82F300BE097F82F30754A1344002283F8432097F82F30013387F82F3097F82F300A2BEFD96D4B1B7887F82F3016E097F85A
:403300002F306A4A1278D2B2114697F82F208A1A013265498A5CD1B2654A13440A4683F8432097F82F30013B87F82F3097F82F30002BE4D1604B04221A7093E25B4B1B7836
:4033400087F82F3018E097F82F30584A1278D2B2114697F82F208A1A013253498A5CD2B23032D1B2524A13440A4683F8592097F82F30013B87F82F3097F82F30002BE2D1D7
:403380004D4B02221A700120052104F0EDFE474B00221A704A4B04221A704A4B0A221A70494B02221A80494B03221A80484B01221A8057E23D4B1B7887F82F3018E097F825
:4033C0002F303A4A1278D2B2114697F82F208A1A013235498A5CD2B23032D1B2344A13440A4683F8642097F82F30013B87F82F3097F82F30002BE2D12F4B66221A7001205E
:40340000392104F0B1FE2D4B10225A702AE2274B1B7887F82F3018E097F82F30234A1278D2B2114697F82F208A1A01321E498A5CD2B23032D1B21E4A13440A4683F87120EE
:4034400097F82F30013B87F82F3097F82F30002BE2D1204B1A78164B93F875309A423BD11C4B5A78124B93F874309A4234D1194B9A780F4B93F873309A422DD1154BDA78D2
:403480000B4B93F872309A4226D10120262104F06BFEC82005F05CFB0120462104F064FE054B10221A70DDE13086FF1F3F85FF1FDC86FF1F000014405585FF1F5886FF1F97
:4034C000D782FF1F0884FF1FB686FF1FDC82FF1F0084FF1F4481FF1F8C4B00221A700120272104F041FE8A4B01225A70C82005F02FFB0120002104F037FEB3E1854B1B7806
:40350000DBB21A46844B9B5CDBB218461E2107F04DF87E4B00221A7001203C2104F024FEC82005F015FB7A4B01225A709AE1774B12221A700120582104F016FE774B1B78D8
:40354000013B032B00F2988001A252F823F000BF61350000A7350000ED350000333600006D4B5B78DBB23033DAB26D4B1A706C4B1B78322B08D0332B0BD0312B0ED1644B30
:40358000012283F859200DE0614B012283F85A2008E05F4B012283F85B2003E0614B00221A7000BF68E05C4B5B78DBB23033DAB25B4B5A705A4B5B78322B08D0332B0BD00A
:4035C000312B0ED1524B022283F859200DE0504B022283F85A2008E04D4B022283F85B2003E0514B00221A7000BF45E04A4B5B78DBB23033DAB24A4B9A70494B9B78322B0A
:4036000008D0332B0BD0312B0ED1414B032283F859200DE03E4B032283F85A2008E03C4B032283F85B2003E0404B00221A7000BF22E0394B5B78DBB23033DAB2384BDA7004
:40364000374BDB78322B08D0332B0BD0312B0ED12F4B042283F859200DE02D4B042283F85A2008E02A4B042283F85B2003E0304B00221A7000BF00BF294B1A7801230093FA
:403680000120114607222C2304F0BAFD244B5A7801230093012011460E222C2304F0B0FD1F4B9A78012300930120114613222C2304F0A6FD1A4BDA78012300930120114633
:4036C00019222C2304F09CFD114B01225A70C82005F03EFAC6E0012387F82F3009E097F82F30144A0021D15497F82F30013387F82F3097F82F30042BF1D90E4B04221A7042
:40370000044B1B7887F82F302CE000BF5585FF1F5886FF1F3F85FF1F3086FF1F8187FF1FBC82FF1F4881FF1F4981FF1F4A81FF1F4B81FF1F2C85FF1F97F82F30864A127819
:40374000D2B2114697F82F208A1A013283498A5CD2B23032D1B2824AD15497F82F30013B87F82F3097F82F30002BE5D17C4B5B78DBB22F2B17D97A4B9B78DBB22F2B12D8BC
:40378000774BDB78DBB22F2B0DD8754B1B79DBB22F2B08D8724B30229A70714B3022DA706F4B30221A716E4B5B78DBB22F2B14D96B4B9B78DBB22F2B0FD9694BDB78DBB279
:4037C0002F2B0AD8664B1B79DBB22F2B05D8644B3022DA70624B30221A71614B5B78DBB22F2B11D95E4B9B78DBB22F2B0CD95C4BDB78DBB22F2B07D9594B1B79DBB22F2BF7
:4038000002D8574B30221A71082387F82F3011E097F82F30083B524AD35CDAB297F82F309BB21046194606F0C1FE97F82F30013387F82F3097F82F300C2BE9D9494B0C225F
:403840001A70494B02221A7001200E2104F08CFCC82005F07DF9404B00221A70434B01225A7000BF06F022F9414B1B78DBB2022B40F0628506F0D2F80346082B40F05C859E
:403880003C4B1B78DBB2AA2B40F05285394B9B79DBB2C32B40F04C85364BDB79DBB23C2B40F04685344B00221A702B4B1B78DAB2324B1B78DBB29A4280F0D8802D4BDB78E1
:4038C000DBB2092B32D8244B1B78DBB20133DAB2214B1A70204B1B78DBB21A46254BDB78D9B21E4B9954234BDB78DBB23033D9B2234B1B889DB2184B1B78DBB29BB2214A52
:40390000128892B2013292B202FB03F39AB21E4B1B889BB213449CB21A4B1B889BB2DBB2009301202A46234604F06AFC114BDB78DBB20A2B57D10C4B1B78DBB2012B25D1FA
:40394000054B1B78DBB2012B20D1044B5B78DBB2002B1BD147E000BF3F85FF1F3086FF1F2C85FF1F5585FF1FD782FF1F5886FF1F4F86FF1F788EFF1F2885FF1F0884FF1F92
:40398000DC82FF1F0084FF1FB686FF1FAF4B1B78DBB20133DAB2AD4B1A70AC4B1B78DBB21A46AB4B00219954AA4B1B889DB2A74B1B78DBB29BB2A84A128892B2013292B22B
:4039C00002FB03F39AB2A54B1B889BB213449CB2A14B1B889BB2DBB20093012030212A46234604F00DFC9E4BDB78DBB2512B3DD1964B1B78DBB2002B38D09A4B1B78DBB233
:403A0000002B33D1914B1B78DBB20133DAB28F4B1A708E4B1B78DBB21A46934B1B78D9B28B4B9954904B1B78D9B28A4B1B889DB2864B1B78DBB29BB2874A128892B201323F
:403A400092B202FB03F39AB2844B1B889BB213449CB2814B1B889BB2DBB2009301202A46234604F0CDFB7F4B01221A707C4BDB78DBB20B2B40F0A080744B1B78DBB2002B1F
:403A80005ED17A4B1B78DBB2013B072B00F2948001A252F823F000BFB93A0000C93A0000D13A0000E73A0000FD3A0000133B0000B93B0000293B00000120052104F054FB36
:403AC0006B4B04221A703AE0694B00221A7036E00120002104F048FB654B00221A70654B01225A702BE00120002104F03DFB604B00221A705F4B01225A7020E001200021B5
:403B000004F032FB5A4B00221A705A4B01225A7015E00120002104F027FB554B00221A70544B01225A700AE00120002104F01CFB4F4B00221A704F4B01225A7000BF3BE07E
:403B4000444B1B889DB2414B1B78DBB29BB2424A128892B2013292B202FB03F39AB23F4B1B889BB213449CB23B4B1B889BB2DBB20093012020212A46234604F041FB334B0D
:403B80001B78DBB21A46324B9B5CDAB2364B1B78DBB29A4202D1334B00221A702B4B1B78DBB21A462A4B00219954284B1B78DBB2013BDAB2254B1A70294BDB78DBB20C2BB2
:403BC00040F0B683294B1B78DBB2013B072B00F2AF8301A252F823F0F93B00008D3D0000053E00007D3E0000D73E0000C53F0000F73F00009F410000002387F82F300CE01E
:403C000097F82F3007F130021344002203F82C2C97F82F30013387F82F3097F82F30072BEED90A4B1B78DBB2002B00F0AE80074B1B78DBB21A46064B9B5CDBB22C2B00F00D
:403C4000A480012387F82F303FE000BF3F85FF1F3086FF1FDC82FF1F0084FF1FB686FF1F788EFF1F5682FF1FB582FF1FD782FF1F5585FF1F5882FF1F97F82F30BC4AD35C19
:403C8000DBB22C2B0FD097F82F30013B97F82F20B7498A5CD2B23032D2B207F130010B4403F82C2C0CE097F82F30013B97F82F20AF498A5CD2B207F130010B4403F82C2CFD
:403CC00097F82F30013387F82F30AA4B1B78DBB297F82F209A42CFD93B1D184607F048F8C7E90801A44BDB7E012B09D1D7E908014FF00002A14B07F027F80346002B1AD1EE
:403D00009D4BDB7E022B40D1D7E908014FF000029A4B07F00FF80346002B00D108E3D7E908014FF000024FF0000307F017F80346002B00D1FCE28F4B1B7887F82F3015E032
:403D400097F82F308B4A1278D2B2114697F82F208A1A013286498A5CD1B2874A13440A46DA7697F82F30013B87F82F3097F82F30002BE5D1824B05221A70824B02225A7056
:403D80000120072104F0F0F9D2E2D1E20120052104F0EAF9002387F82F300BE097F82F30754A1344002283F8432097F82F30013387F82F3097F82F300A2BEFD96D4B1B7832
:403DC00087F82F3016E097F82F306A4A1278D2B2114697F82F208A1A013265498A5CD1B2654A13440A4683F8432097F82F30013B87F82F3097F82F30002BE4D1604B042241
:403E00001A7095E25B4B1B7887F82F3018E097F82F30584A1278D2B2114697F82F208A1A013253498A5CD2B23032D1B2524A13440A4683F8592097F82F30013B87F82F309E
:403E400097F82F30002BE2D14D4B02221A700120052104F089F9474B00221A704A4B04221A704A4B0A221A70494B02221A80494B03221A80484B01221A8059E23D4B1B785A
:403E800087F82F3018E097F82F303A4A1278D2B2114697F82F208A1A013235498A5CD2B23032D1B2344A13440A4683F8642097F82F30013B87F82F3097F82F30002BE2D1DB
:403EC0002F4B66221A700120392104F04DF92D4B10225A702CE2274B1B7887F82F3018E097F82F30234A1278D2B2114697F82F208A1A01321E498A5CD2B23032D1B21E4A91
:403F000013440A4683F8712097F82F30013B87F82F3097F82F30002BE2D1204B1A78164B93F875309A423BD11C4B5A78124B93F874309A4234D1194B9A780F4B93F87330E0
:403F40009A422DD1154BDA780B4B93F872309A4226D10120262104F007F9C82004F0F8FD0120462104F000F9054B10221A70DFE13086FF1F3F85FF1F5885FF1F00001440EC
:403F80005585FF1F5882FF1FD782FF1F0884FF1FB686FF1FDC82FF1F0084FF1F4481FF1F8C4B00221A700120272104F0DDF88A4B01225A70C82004F0CBFD0120002104F044
:403FC000D3F8B5E1854B1B78DBB21A46844B9B5CDBB218461E2106F0E9FA7E4B00221A7001203C2104F0C0F8C82004F0B1FD7A4B01225A709CE1774B12221A7001205821D5
:4040000004F0B2F8774B1B78013B032B00F2988001A252F823F000BF294000006F400000B5400000FB4000006D4B5B78DBB23033DAB26D4B1A706C4B1B78322B08D0332BEC
:404040000BD0312B0ED1644B012283F859200DE0614B012283F85A2008E05F4B012283F85B2003E0614B00221A7000BF68E05C4B5B78DBB23033DAB25B4B5A705A4B5B78E8
:40408000322B08D0332B0BD0312B0ED1524B022283F859200DE0504B022283F85A2008E04D4B022283F85B2003E0514B00221A7000BF45E04A4B5B78DBB23033DAB24A4BDF
:4040C0009A70494B9B78322B08D0332B0BD0312B0ED1414B032283F859200DE03E4B032283F85A2008E03C4B032283F85B2003E0404B00221A7000BF22E0394B5B78DBB2E8
:404100003033DAB2384BDA70374BDB78322B08D0332B0BD0312B0ED12F4B042283F859200DE02D4B042283F85A2008E02A4B042283F85B2003E0304B00221A7000BF00BF30
:40414000294B1A78012300930120114607222C2304F056F8244B5A7801230093012011460E222C2304F04CF81F4B9A78012300930120114613222C2304F042F81A4BDA7815
:40418000012300930120114619222C2304F038F81A4B01225A70C82004F0DAFCC8E0012387F82F3009E097F82F30154A0021D15497F82F30013387F82F3097F82F30042BDB
:4041C000F1D90F4B04221A70044B1B7887F82F302EE000BF5585FF1F5882FF1F3F85FF1F3086FF1F8187FF1FBC82FF1F4881FF1F4981FF1F4A81FF1F4B81FF1F5886FF1F98
:404200002C85FF1F97F82F30884A1278D2B2114697F82F208A1A013285498A5CD2B23032D1B2844AD15497F82F30013B87F82F3097F82F30002BE5D17E4B5B78DBB22F2B6B
:4042400017D97C4B9B78DBB22F2B12D8794BDB78DBB22F2B0DD8774B1B79DBB22F2B08D8744B30229A70734B3022DA70714B30221A71704B5B78DBB22F2B14D96D4B9B7868
:40428000DBB22F2B0FD96B4BDB78DBB22F2B0AD8684B1B79DBB22F2B05D8664B3022DA70644B30221A71634B5B78DBB22F2B11D9604B9B78DBB22F2B0CD95E4BDB78DBB214
:4042C0002F2B07D95B4B1B79DBB22F2B02D8594B30221A71082387F82F3011E097F82F30083B544AD35CDAB297F82F309BB21046194606F05BF997F82F30013387F82F304A
:4043000097F82F300C2BE9D94B4B0C221A704B4B02221A7001200E2103F026FFC82004F017FC424B00221A70454B01225A7000BF05F0BCFB01F09CBD01F09ABD414B1B78DB
:40434000DBB2012B40F0D1823F4B4D221A703E4B55225A703C4B58229A703B4B3122DA70394B31221A71394B5B7E013B384A134493F85930DBB23033DAB2334B5A71334B5B
:404380005B7D3033DAB2304B9A71304B1B7D3033DAB22D4BDA712D4BDB7C3033DAB22A4B1A72294B2C225A72284B9B7C3033DAB2254B9A72254B5B7C3033DAB2224BDA72BA
:4043C000224B1B7C3033DAB21F4B1A73214B5B78DBB2072B40D11D4B9B7B3033DAB21A4B5A731A4B5B7B3033DAB2174B9A73174B1B7B3033DAB2144BDA73144BDB7A3033E2
:40440000DAB2114B1A74114B9B7A3033DAB20E4B5A740E4B5B7A3033DAB20B4B9A740B4B1B7A3033DAB2084BDA743FE03F85FF1F3086FF1F2C85FF1F5585FF1FD782FF1F70
:404440005882FF1F4F86FF1F6084FF1FDC86FF1F5886FF1FD882FF1F664B5B7B3033DAB2654B5A73634B1B7B3033DAB2624B9A73604BDB7A3033DAB25F4BDA735D4B9B7AD8
:404480003033DAB25C4B1A745A4B5B7A3033DAB2594B5A74574B1B7A3033DAB2564B9A74544BDB793033DAB2534BDA74534B1B78DBB2002B1DD14F4B9B793033DAB24E4B4D
:4044C0001A754C4B5B793033DAB24B4B5A75494B1B793033DAB2484B9A75464BDB783033DAB2454BDA75434B9B783033DAB2424B1A76424B1B78DBB2012B1AD13D4B5B7936
:404500003033DAB23C4B1A753A4B1B793033DAB2394B5A75374BDB783033DAB2364B9A75344B9B783033DAB2334BDA75324B30221A76334B1B79DAB22F4B5A76304BDB7864
:40454000DAB22D4B9A762E4B9B78DAB22A4BDA762B4B5B78DAB2284B1A772A4B1B78012B43D1002387F82F303AE097F82F305B08DBB21A461F4B134493F823301B0987F88E
:404580002E3097F82F3003F00103DBB2002B0CD197F82F305B08DBB21A46164B134493F8233003F00F0387F82E3097F82F301D3397F82E203032D1B20F4AD15497F82E3002
:4045C000092B08D997F82F301D3397F82E203732D1B2094AD15497F82F30013387F82F3097F82F300F2BC0D94DE0002387F82F3045E000BFDC86FF1F6084FF1F3E85FF1FF1
:404600002C85FF1F0284FF1F97F82F305B08DBB21A467D4B134493F823301B0987F82E3097F82F3003F00103DBB2002B0CD197F82F305B08DBB21A46734B134493F8233020
:4046400003F00F0387F82E3097F82F301D3397F82E203032D1B26D4AD15497F82E30092B08D997F82F301D3397F82E203732D1B2664AD15497F82F30013387F82F3097F80F
:404680002F300F2BC0D9624B1B8801339AB2604B1A805F4B1B885F4AA2FB03239B099BB2DBB23033DAB25C4B1A71594B1B88594AA2FB031292094FF47A7101FB02F29B1A51
:4046C0009BB2564AA2FB03235B099BB2DBB23033DAB2514BDA704E4B1B884E4AA2FB031292094FF47A7101FB02F29B1A9BB24B4AA2FB03125209642101FB02F29B1A9BB29D
:40470000474AA2FB0323DB089BB2DBB23033DAB2414B9A703E4B1B883E4AA2FB031292094FF47A7101FB02F29B1A9BB23B4AA2FB03125209642101FB02F29B1A9AB2384B37
:40474000A3FB0213D9080B469B000B445B00D31A9BB2DBB23033DAB22F4B5A70012387F82F300EE097F82F302C3397F82F202A498A5CD1B2254AD15497F82F30013387F8E9
:404780002F3097F82F30072BECD9012387F82F3010E097F82F30204AD35CDAB297F82F309BB21046194605F001FF97F82F30013387F82F3097F82F30042BEAD9002387F849
:4047C0002F3012E097F82F30343397F82F2001320D490A4492F843203032D1B20B4AD15497F82F30013387F82F3097F82F30062BE8D9064B2A2283F83B2004F0F9FC0023B3
:4048000087F82F301AE000BFDC86FF1F6084FF1FBA82FF1FD34D62103485FF1F1F85EB51CDCCCCCC97F82F306C4AD35C184604F01DFD97F82F30013387F82F3097F82F305E
:404840003B2BEFD904F0D4FC4FF4967004F080F904F026FD624B00221A70624B5B7E5A1E614913469B0013440B4448339B78DBB23B735C4B5B7E5A1E5B4913469B0013442E
:404880000B4449339B78DBB27B73564B5B7E5A1E554913469B0013440B444A339B78DBB2BB73504B5B7E5A1E4F4913469B0013440B444B339B78DBB2FB734A4B5B7E5A1E9A
:4048C000494913469B0013440B444C339B78DBB23B74454B1B78D9B2424B5B7E07F10C02084611461A4602F0B7FA404B1B78DBB2022B40F0BF82394B4D221A70374B55223D
:404900005A70364B58229A70344B3122DA70334B31221A71364B5B7E013B364A134493F85930DBB23033DAB22C4B5A71304B5B7D3033DAB2294B9A712D4B1B7D3033DAB231
:40494000264BDA712A4BDB7C3033DAB2234B1A72224B2C225A72264B9B7C3033DAB21F4B9A72234B5B7C3033DAB21C4BDA72204B1B7C3033DAB2194B1A731F4B5B78DBB2BF
:40498000072B3BD11A4B9B7B3033DAB2134B5A73174B5B7B3033DAB2104B9A73144B1B7B3033DAB20D4BDA73114BDB7A3033DAB20A4B1A740E4B9B7A3033DAB2074B5A740C
:4049C0000B4B5B7A3033DAB2044B9A74084B1B7A3033DAB2014BDA743AE000BF6084FF1F5686FF1FDC86FF1F5886FF1F4F86FF1F5885FF1F5882FF1FD882FF1F664B5B7B99
:404A00003033DAB2654B5A73634B1B7B3033DAB2624B9A73604BDB7A3033DAB25F4BDA735D4B9B7A3033DAB25C4B1A745A4B5B7A3033DAB2594B5A74574B1B7A3033DAB255
:404A4000564B9A74544BDB793033DAB2534BDA74534B1B78DBB2002B1DD14F4B9B793033DAB24E4B1A754C4B5B793033DAB24B4B5A75494B1B793033DAB2484B9A75464B14
:404A8000DB783033DAB2454BDA75434B9B783033DAB2424B1A76424B1B78DBB2012B1AD13D4B5B793033DAB23C4B1A753A4B1B793033DAB2394B5A75374BDB783033DAB2E4
:404AC000364B9A75344B9B783033DAB2334BDA75324B30221A76334B1B79DAB22F4B5A76304BDB78DAB22D4B9A762E4B9B78DAB22A4BDA762B4B5B78DAB2284B1A772A4B84
:404B00001B78012B43D1002387F82F303AE097F82F305B08DBB21A461F4B134493F823301B0987F82E3097F82F3003F00103DBB2002B0CD197F82F305B08DBB21A46164B90
:404B4000134493F8233003F00F0387F82E3097F82F301D3397F82E203032D1B20F4AD15497F82E30092B08D997F82F301D3397F82E203732D1B2094AD15497F82F300133FD
:404B800087F82F3097F82F300F2BC0D94DE0002387F82F3045E000BF5885FF1F6084FF1F3E85FF1F2C85FF1F0284FF1F97F82F305B08DBB21A46B04B134493F823301B0961
:404BC00087F82E3097F82F3003F00103DBB2002B0CD197F82F305B08DBB21A46A64B134493F8233003F00F0387F82E3097F82F301D3397F82E203032D1B2A04AD15497F87A
:404C00002E30092B08D997F82F301D3397F82E203732D1B2994AD15497F82F30013387F82F3097F82F300F2BC0D9954B1B8801339AB2934B1A80924B1B88924AA2FB032397
:404C40009B099BB2DBB23033DAB28F4B1A718C4B1B888C4AA2FB031292094FF47A7101FB02F29B1A9BB2894AA2FB03235B099BB2DBB23033DAB2844BDA70814B1B88814A8F
:404C8000A2FB031292094FF47A7101FB02F29B1A9BB27E4AA2FB03125209642101FB02F29B1A9BB27A4AA2FB0323DB089BB2DBB23033DAB2744B9A70714B1B88714AA2FB88
:404CC000031292094FF47A7101FB02F29B1A9BB26E4AA2FB03125209642101FB02F29B1A9AB26B4BA3FB0213D9080B469B000B445B00D31A9BB2DBB23033DAB2624B5A709C
:404D0000012387F82F300EE097F82F302C3397F82F205D498A5CD1B2584AD15497F82F30013387F82F3097F82F30072BECD9012387F82F3010E097F82F30534AD35CDAB265
:404D400097F82F309BB21046194605F02FFC97F82F30013387F82F3097F82F30042BEAD9002387F82F3012E097F82F30343397F82F20013240490A4492F843203032D1B241
:404D80003E4AD15497F82F30013387F82F3097F82F30062BE8D9394B2A2283F83B2004F027FA002387F82F300BE097F82F30334AD35C184604F05AFA97F82F30013387F8DE
:404DC0002F3097F82F303B2BEFD904F011FA4FF4967003F0BDFE04F063FA2E4B00221A70254B5B7E5A1E2C4913469B0013440B4448339B78DBB23B731F4B5B7E5A1E264909
:404E000013469B0013440B4449339B78DBB27B73194B5B7E5A1E204913469B0013440B444A339B78DBB2BB73134B5B7E5A1E1A4913469B0013440B444B339B78DBB2FB7393
:404E40000D4B5B7E5A1E144913469B0013440B444C339B78DBB23B74104B1B78D9B2064B5B7E07F10C02084611461A4601F0F4FF00F0FEBF00F0FCBF5885FF1F6084FF1FDD
:404E8000BA82FF1FD34D62103485FF1F1F85EB51CDCCCCCC5686FF1F5886FF1F5882FF1F04F0BCFD0346082B40F00B81A24B1B78DBB2AA2B40F0FE809F4B9B79DBB2C32B42
:404EC00040F0F8809C4BDB79DBB23C2B40F0F2809A4B1B78DAB29A4B1B78DBB29A426CD2954BDB78DBB2092B33D8944B1B78DBB20133914AD278D2B23032D1B2914A134424
:404F00000A4683F86420904B1B889DB28B4B1B78DBB29BB28D4A128892B2013292B202FB03F39AB28A4B1B889BB213449CB2874B1B889BB2DBB2009301202A212A46234616
:404F400003F05EF97D4B1B78DBB20133DAB27B4B1A70794BDB78DBB20A2B2ED1774B1B78DBB20133774A1344302283F86420764B1B889DB2714B1B78DBB29BB2734A128865
:404F800092B2013292B202FB03F39AB2704B1B889BB213449CB26D4B1B889BB2DBB2009301202A212A46234603F02AF9634B1B78DBB20133DAB2614B1A705F4BDB78DBB236
:404FC0000B2B2ED15E4B1B78DBB2002B03D1614B00221A7025E0594B1B78DBB2013BDAB2564B1A70584B1B889DB2544B1B78DBB29BB2564A128892B2013292B202FB03F317
:405000009AB2534B1B889BB213449CB24F4B1B889BB2DBB20093012020212A46234603F0EFF8454BDB78DBB20C2B43D1434B1B78DBB2002B3ED0414B1B78DAB2414B83F8DE
:405040006420002387F82E303E4B93F86430042B2DD1012387F82F3015E097F82F30394A134493F8642097F82F303B49CB5C9A4204D197F82E30013387F82E3097F82F30D3
:40508000013387F82F3097F82F30042BE5D997F82E30042B07D12F4B0F221A7001205D2103F062F806E02B4B00221A7002E0294B00221A70642003F04BFD04F0F7FC00F04E
:4050C000D7BE00F0D5BE04F0A9FC0346082B40F09880194B1B78DBB2AA2B40F09280164B9B79DBB2C32B40F08C80134BDB79DBB23C2B40F08680104BDB78DBB2B92B05D0A4
:40510000BA2B59D07E2B74D000F0B2BE134B4D221A70124B55225A70104B58229A700F4B3322DA700D4B2A221A7104F061F8002387F82F3020E000BF788EFF1F3F85FF1F05
:405140000884FF1FDC86FF1FDC82FF1F0084FF1FB686FF1F5585FF1F2881FF1F6084FF1F97F82F30B64AD35C184604F07FF897F82F30013387F82F3097F82F30042BEFD901
:40518000962003F0E5FC0120002102F0EDFFAD4B00221A70AC4B1B78DBB2012B02D1AB4B01225A70A84B1B78DBB2022B03D1A84B01225A7025E024E001202F2102F0D4FF75
:4051C000A44B05221A70A44B00221A70A34B2C221A70A34B04221A70A24B04221A80A24B03221A80A14B01221A80964B0C221A7007E001204A2102F0B7FF924B00221A70D1
:4052000000BF00F035BE04F009FC0346082B6FD1974B1B78DBB2AA2B63D1954B9B79DBB2C32B5ED1924BDB79DBB23C2B59D1904BDB78DBB2802B13D0802B04DC7E2B48D08A
:405240007F2B05D04DE0812B27D0C22B2DD048E00120582102F088FF7A4B12221A7040E00120642102F080FF7A4B06221A707A4B00221A70794B2C221A70794B01221A700B
:40528000784B04221A80784B03221A80774B01221A806C4B0C221A7023E06A4B11221A7001206D2102F060FF1BE001206E2102F05BFF6C4B04221A806B4B03221A806B4BED
:4052C00001221A805F4B0B221A70624B0A221A7007E001204A2102F047FF5A4B00221A7000BF642003F034FC04F0E0FB00F0C0BD00F0BEBD04F092FB0346082B4BD15C4B64
:405300001B78DBB2AA2B3FD1594B9B79DBB2C32B3AD1574BDB79DBB23C2B35D1544BDB78DBB28F2B04D0902B14D07E2B24D02BE00020172105F03AF9424B00221A7001200C
:405340003C2102F011FFC82003F002FC3F4B01225A7019E00120172105F028F9394B00221A7001203C2102F0FFFEC82003F0F0FB364B01225A7007E001204A2102F0F4FEEE
:40538000304B00221A7000BF642003F0E1FB04F08DFB00F06DBD00F06BBD2B4B1B78DBB2012B40F0358204F039FB0346082B40F02F822F4B1B78DBB2AA2B40F024822C4B1C
:4053C0009B79DBB2C32B40F01E82294BDB79DBB23C2B40F01882264BDB78DBB27E3B042B00F2118201A252F823F000BF39550000B95400000154000079540000F954000041
:405400001C4B01221A700120062102F0ADFE114B07221A70104B00221A70104B2C221A700F4B01221A700F4B04221A800E4B03221A800E4B01221A80024B0C221A70E2E113
:405440006084FF1F5585FF1F4F86FF1F5886FF1F5882FF1FD782FF1F3F85FF1FB582FF1F0884FF1FB686FF1FDC82FF1F0084FF1F788EFF1F8187FF1FB44B02221A70012063
:40548000062102F071FEB24B07221A70B14B00221A70B14B2C221A70B04B01221A70B04B04221A80AF4B03221A80AF4B01221A80AE4B0C221A70A6E1A44B03221A7001206E
:4054C000062102F051FEA24B07221A70A14B00221A70A14B2C221A70A04B01221A70A04B04221A809F4B03221A809F4B01221A809E4B0C221A7086E1944B04221A700120FD
:40550000062102F031FE924B07221A70914B00221A70914B2C221A70904B01221A70904B04221A808F4B03221A808F4B01221A808E4B0C221A7066E18D4B4D221A708C4B84
:4055400055225A708A4B58229A70894B3422DA70042387F82E30002387F82F303CE097F82F30844A134493F85930DBB2013B032B22D801A252F823F089550000955500001C
:40558000A1550000AD55000097F82E30784A3121D15417E097F82E30754A3221D15411E097F82E30724A3321D1540BE097F82E306F4A3421D15405E097F82E306C4A3021BB
:4055C000D15400BF97F82E30013387F82E3097F82F30013387F82F3097F82F30022BBED9654B1B78002B26D1002387F82E30042387F82F301BE097F82F305D4AD35C312B92
:405600000BD197F82F305A4A3021D15497F82E30584A1344002283F8592097F82E30013387F82E3097F82F30013387F82F3097F82F30062BDFD9514B1B78002B26D1002341
:4056400087F82E30042387F82F301BE097F82F30474AD35C322B0BD197F82F30444A3021D15497F82E30434A1344002283F8592097F82E30013387F82E3097F82F3001336D
:4056800087F82F3097F82F30062BDFD93C4B1B78002B26D1002387F82E30042387F82F301BE097F82F30324AD35C332B0BD197F82F302F4A3021D15497F82E302D4A13448E
:4056C000002283F8592097F82E30013387F82E3097F82F30013387F82F3097F82F30062BDFD9284B1B78002B26D1002387F82E30042387F82F301BE097F82F301C4AD35C14
:40570000342B0BD197F82F30194A3021D15497F82E30184A1344002283F8592097F82E30013387F82E3097F82F30013387F82F3097F82F30062BDFD90D4B2A22DA7103F0F4
:4057400057FD002387F82F302AE000BF8187FF1FD782FF1F3F85FF1FB582FF1F0884FF1FB686FF1FDC82FF1F0084FF1F5585FF1F6084FF1F5886FF1F4881FF1F4981FF1F50
:405780004A81FF1F4B81FF1F97F82F30BE4AD35C184603F06BFD97F82F30013387F82F3097F82F30072BEFD9B84B01221A70B84B01221A70B74B01221A70B74B01221A7092
:4057C000B64B93F85930DBB21846102104F0EEFEB24B93F85A30DBB21846112104F0E6FEAE4B93F85B30DBB21846122104F0DEFE01204A2102F0B8FCA94B00221A70A74BD0
:4058000001225A7000BF642003F0A2F904F04EF9A44B1B78DBB2022B40F01E8204F0FEF80346082B40F018829F4B1B78DBB2AA2B40F00C829C4B9B79DBB2C32B40F0068268
:40584000994BDB79DBB23C2B40F00082964BDB78DBB27E3B042B00F2F98101A252F823F075590000F558000075580000B5580000355900008D4B01221A700120062102F0F3
:4058800073FC8B4B07221A708A4B00221A708A4B2C221A70894B01221A70894B04221A80884B03221A80884B01221A807C4B0C221A70CBE17D4B02221A700120062102F0B0
:4058C00053FC7B4B07221A707A4B00221A707A4B2C221A70794B01221A70794B04221A80784B03221A80784B01221A806C4B0C221A70ABE16D4B03221A700120062102F03F
:4059000033FC6B4B07221A706A4B00221A706A4B2C221A70694B01221A70694B04221A80684B03221A80684B01221A805C4B0C221A708BE15D4B04221A700120062102F0CD
:4059400013FC5B4B07221A705A4B00221A705A4B2C221A70594B01221A70594B04221A80584B03221A80584B01221A804C4B0C221A706BE1444B4D221A70434B55225A7088
:40598000414B58229A70404B3422DA70042387F82E30002387F82F303CE097F82F304B4A134493F85930DBB2013B032B22D801A252F823F0C5590000D1590000DD5900002E
:4059C000E959000097F82E302F4A3121D15417E097F82E302C4A3221D15411E097F82E30294A3321D1540BE097F82E30264A3421D15405E097F82E30234A3021D15400BFB6
:405A000097F82E30013387F82E3097F82F30013387F82F3097F82F30022BBED91B4B1B78002B26D1002387F82E30042387F82F301BE097F82F30144AD35C312B0BD197F859
:405A40002F30114A3021D15497F82E301F4A1344002283F8592097F82E30013387F82E3097F82F30013387F82F3097F82F30062BDFD9074B1B78002B4AD1002387F82E3033
:405A8000042387F82F303FE06084FF1F4881FF1F4981FF1F4A81FF1F4B81FF1F5886FF1F5585FF1F4F86FF1F788EFF1F8187FF1FD782FF1F3F85FF1FB582FF1F0884FF1F95
:405AC000B686FF1FDC82FF1F0084FF1F5882FF1F97F82F30C54AD35C322B0BD197F82F30C24A3021D15497F82E30C14A1344002283F8592097F82E30013387F82E3097F86F
:405B00002F30013387F82F3097F82F30062BDFD9B84B1B78002B26D1002387F82E30042387F82F301BE097F82F30B04AD35C332B0BD197F82F30AD4A3021D15497F82E30CC
:405B4000AB4A1344002283F8592097F82E30013387F82E3097F82F30013387F82F3097F82F30062BDFD9A44B1B78002B26D1002387F82E30042387F82F301BE097F82F305C
:405B80009A4AD35C342B0BD197F82F30974A3021D15497F82E30964A1344002283F8592097F82E30013387F82E3097F82F30013387F82F3097F82F30062BDFD98B4B2A2221
:405BC000DA7103F015FB002387F82F300BE097F82F30864AD35C184603F048FB97F82F30013387F82F3097F82F30072BEFD9834B01221A70824B01221A707E4B01221A7097
:405C00007D4B01221A707A4B93F85930DBB21846102104F0CBFC764B93F85A30DBB21846112104F0C3FC724B93F85B30DBB21846122104F0BBFC01204A2102F095FA714B34
:405C400000221A706A4B01225A7000BF642002F07FFF03F02BFF0BE10AE1644B4D221A70624B55225A70614B58229A705F4B3522DA70654B1B78DBB2012B65D1002387F84A
:405C80002F303AE097F82F305B08DBB21A465F4B134493F823301B0987F82E3097F82F3003F00103DBB2002B0CD197F82F305B08DBB21A46554B134493F8233003F00F03BB
:405CC00087F82E3097F82F30043397F82E203032D1B2464AD15497F82E30092B08D997F82F30043397F82E203732D1B23F4AD15497F82F30013387F82F3097F82F300F2B65
:405D0000C0D93A4B2A221A7503F072FA002387F82F300BE097F82F30344AD35C184603F0A5FA97F82F30013387F82F3097F82F30142BEFD90120002102F016FA314B0022BD
:405D40001A70334B01225A702F4B1B78DBB2022B7DD1002387F82F303AE097F82F305B08DBB21A462B4B134493F823301B0987F82E3097F82F3003F00103DBB2002B0CD19A
:405D800097F82F305B08DBB21A46224B134493F8233003F00F0387F82E3097F82F30043397F82E203032D1B2104AD15497F82E30092B08D997F82F30043397F82E2037324E
:405DC000D1B20A4AD15497F82F30013387F82F3097F82F300F2BC0D9044B2A221A7503F007FA002387F82F3022E000BF6084FF1F5882FF1F4A81FF1F4B81FF1F4881FF1F52
:405E00004981FF1F5585FF1F4F86FF1FDC86FF1F5886FF1F5885FF1F97F82F30164AD35C184603F023FA97F82F30013387F82F3097F82F30142BEFD90120002102F094F977
:405E40000E4B00221A700E4B01225A7010E00FE00C4B1B78DBB2032B09D9084B00221A7004F07AF804F040F9064B00221A7000BF3037BD46B0BD00BF6084FF1F5585FF1F93
:405E80005882FF1F2885FF1F80B500AF04F060F9184B1B78DBB2012B24D1174B1B78DBB2062B11D8144B1B78DBB20133DAB2124B1A70114B1B78DBB29BB214339BB201200A
:405EC000194602F051F914E00B4B00221A700A4B1B78DBB29BB214339BB20120194602F043F906E0044B1B78DBB20133DAB2024B1A7080BD5585FF1F2885FF1F80B500AF3D
:405F000004F0E6F9184B1B78DBB2012B24D1174B1B78DBB2062B11D8144B1B78DBB20133DAB2124B1A70114B1B78DBB29BB214339BB20220194602F017F914E00B4B0022DC
:405F40001A700A4B1B78DBB29BB214339BB20220194602F009F906E0044B1B78DBB20133DAB2024B1A7080BD0384FF1FC082FF1F80B500AFFAF786F8FAF7AEF9032000216F
:405F800002F01AFE02F05EFEFBF762F802F05AFE094B1B78DBB2012B04D0074B1B78DBB2002B01D1FAF72AFB034B1B78DBB2022B01D1FAF7B7FDE5E74F86FF1F80B500AF45
:405FC00004F0B8FA014B01221A7080BD8287FF1F80B584B000AF0346FB7102F08BFFFB79184602F0C5FF1E4803F036FC04F05EFA1C4B00221A700A2002F0AAFD0BE0194BD1
:406000001B78012B07D103F039FC04F05FFA02F071FF002320E002F023FF0346002BEED002F0D4FE0346FB73FB7B03F00F02FB799A420AD1FB7B1B09FB7302F05BFF03F022
:406040001DFC04F043FAFB7B06E002F053FF03F015FC04F03BFA002318461037BD4680BDBD5F00008287FF1F80B582B000AF244BFF221A70234BFF221A70052002F068FDF9
:406080000020FFF7A5FF0346002B02D01D4B00221A700123FB711FE0052002F059FDFB791846FFF795FF0346002B12D0144B1B78DBB2FF2B03D1124AFB79137009E0114B09
:4060C0001B78DBB2FF2B04D10E4AFB791370012312E0FB790133FB71FB790F2BDCD9084B1B78DBB2FF2B06D0064B1B78DBB2FF2B01D0012300E0002318460837BD4680BDC2
:406100005886FF1F5882FF1F90B58BB000AF0346FB71594A07F108031068516803C3127A1A7002F0E7FEFB7943F02003DBB2184602F01EFF514803F08FFB04F0B7F9504BE4
:4061400000221A700BE04E4B1B78012B07D103F095FB04F0BBF902F0CDFE002388E002F07FFE0346002BEED003F088FB04F0AEF902F02CFE03461A46FB7963F02F03DBB2E8
:406180009A4274D102F0B6FE052002F0E1FC002387F827300EE097F8273007F12802134413F8203C184602F0E3FE97F82730013387F8273097F82730082BECD92F4803F00E
:4061C0004BFB04F073F92E4B00221A700BE02C4B1B78012B07D103F051FB04F077F902F089FE002344E002F03BFE0346132BEED103F044FB04F06AF9002387F827300FE096
:4062000097F8274002F0E2FD03461A4607F12803234403F8142C97F82730013387F8273097F82730122BEBD902F064FE3B7DBA2B1BD197F825308D2B17D197F826308A2B57
:4062400013D197F82030B12B0FD197F82230B22B05D0B32B05D0B12B05D1012308E0022306E0032304E0002302E0002300E0002318462C37BD4690BD28D20000BD5F000034
:406280008287FF1F80B584B000AF0346FB7102F031FEFB7943F04003DBB2184602F068FE4FF4967002F054FCAB4B5B78DBB2072B00F0BC8002F0D4FD0346212B40F0B6809F
:4062C000A64B1B78DBB2FF2B40F0AE80A34B9B78DBB2F82B40F0A880A04B93F82030DBB2F02B40F0A1809E4B1B78DBB2FA799A424CD19A4B5B7ADBB203F00F03DBB20133BB
:40630000DAB2984B5A760023FB730FE0FB7BFA7B0C3292498A5CD2B202F00F02D1B2914A13440A469A70FB7B0133FB73FB7B032BECD90023FB730FE0FB7BFA7B113287491F
:406340008A5CD2B202F00F02D1B2864A13440A461A74FB7B0133FB73FB7B052BECD90023FB730FE0FB7BFA7B18327C498A5CD2B202F00F02D1B27B4A13440A46DA71FB7B0E
:406380000133FB73FB7B052BECD94BE0734B5B7ADBB203F00F03DBB20133DAB2724B5A760023FB730FE0FB7BFA7B0C326B498A5CD2B202F00F02D1B26B4A13440A469A70F3
:4063C000FB7B0133FB73FB7B032BECD90023FB730FE0FB7BFA7B113260498A5CD2B202F00F02D1B2604A13440A461A74FB7B0133FB73FB7B052BECD90023FB730FE0FB7B7D
:40640000FA7B183255498A5CD2B202F00F02D1B2554A13440A46DA71FB7B0133FB73FB7B052BECD90123CFE00023CDE04A4B5B78DBB2072B40F0C78002F012FD0346272B1E
:4064400040F0C180454B1B78DBB2FF2B40F0B980424B9B78DBB2F82B40F0B3803F4B93F82630DBB2F02B40F0AC803D4B1B78DBB2FA799A424CD1394B5B7ADBB203F00F0347
:40648000DBB20133DAB2374B5A760023FB730FE0FB7BFA7B0C3231498A5CD2B202F00F02D1B2304A13440A469A70FB7B0133FB73FB7B052BECD90023FB730FE0FB7BFA7B11
:4064C000133226498A5CD2B202F00F02D1B2254A13440A461A74FB7B0133FB73FB7B072BECD90023FB730FE0FB7BFA7B1C321B498A5CD2B202F00F02D1B21A4A13440A46B7
:40650000DA71FB7B0133FB73FB7B072BECD956E0124B5B7ADBB203F00F03DBB20133DAB2114B5A760023FB730FE0FB7BFA7B0C320A498A5CD2B202F00F02D1B20A4A134481
:406540000A469A70FB7B0133FB73FB7B052BECD90023FB731AE000BFD882FF1F8487FF1F5886FF1FDC86FF1F5885FF1FFB7BFA7B133217498A5CD2B202F00F02D1B2154AFD
:4065800013440A461A74FB7B0133FB73FB7B072BECD90023FB730FE0FB7BFA7B1C320C498A5CD2B202F00F02D1B20A4A13440A46DA71FB7B0133FB73FB7B072BECD9012334
:4065C00002E0002300E0002318461037BD4680BD8487FF1F5885FF1F80B588B000AF3A601A460346FB710B46BB7113467B7107F1080300221A60043300221A600433002232
:406600001A60043300221A60043300221A8002330423BB777B79032B01D102237B71B34B5B78DBB2052B04D0B04B5B78DBB2062B04D17B79012B01D10323BB77AB4B5B78B1
:40664000DBB2052B04D17B79022B01D10523BB77A64B5B78DBB2072B04D17B79012B01D10023BB77A14B5B78DBB2072B04D17B79022B01D10223BB7700233B7701237B7714
:406680000AE07B7F3A6813441B782C2B01D17B7F3B777B7F01337B777B7F072BF1D93B7F042B01D90023CFE3904B5B78DBB2072B00F00582FF233B72BB7F63F01F03DBB2F8
:4066C0007B727B7963F00F03DBB2BB72F423FB72F8233B733B6801331B7863F01F03DBB27B733B6802331B7863F01F03DBB2BB733B6803331B7863F01F03DBB2FB733B68D9
:4067000004331B7863F01F03DBB23B743B6805331B7863F01F03DBB27B743B6806331B7863F01F03DBB2BB74704B9B78DBB2022B40F0A5803B7F042B29D13B6802331B78B4
:4067400063F01F03DBB27B733B6803331B7863F01F03DBB2BB733B6805331B7863F01F03DBB2FB733B6806331B7863F01F03DBB23B743B6807331B7863F01F03DBB27B742E
:406780003B6808331B7863F01F03DBB2BB743B7F032B29D13B6801331B7863F01F03DBB27B733B6802331B7863F01F03DBB2BB733B6804331B7863F01F03DBB2FB733B68E0
:4067C00005331B7863F01F03DBB23B743B6806331B7863F01F03DBB27B743B6807331B7863F01F03DBB2BB743B7F022B24D1E0237B733B6801331B7863F01F03DBB2BB73B5
:406800003B6803331B7863F01F03DBB2FB733B6804331B7863F01F03DBB23B743B6805331B7863F01F03DBB27B743B6806331B7863F01F03DBB2BB743B7F002B1FD1E02387
:406840007B73E023BB733B6801331B7863F01F03DBB2FB733B6802331B7863F01F03DBB23B743B6803331B7863F01F03DBB27B743B6804331B7863F01F03DBB2BB74FB23EA
:40688000FB7400233B7500237B770FE03A7D7B7F07F120010B4413F8183C03F00F03DBB21344DBB23B757B7F01337B777B7F0B2BECD93B7D5B42DBB2DBB203F00F03DBB2DE
:4068C00063F01F03DBB2DBB23B75F0237B750D23FB77064B5B78DBB2052B2CD1FB23BB740023FB7400237B7712E000BFD882FF1FFA7C7B7F07F120010B4413F8183C03F08F
:406900000F03DBB21344DBB2FB747B7F01337B777B7F0A2BECD9FB7C5B42DBB2DBB203F00F03DBB263F01F03DBB2DBB2FB74F0233B750C23FB777B79012B40F0C080F62386
:406940003B73BB79013BDBB2DBB263F01F03DBB2DBB27B73F823BB733B7F042B22D13B6802331B7863F01F03DBB2FB733B6803331B7863F01F03DBB23B743B6805331B78D7
:4069800063F01F03DBB27B743B6806331B7863F01F03DBB2BB743B6807331B7863F01F03DBB2FB743B7F032B22D13B6801331B7863F01F03DBB2FB733B6802331B7863F0F2
:4069C0001F03DBB23B743B6804331B7863F01F03DBB27B743B6805331B7863F01F03DBB2BB743B6806331B7863F01F03DBB2FB743B7F022B1DD1E023FB733B6801331B78AC
:406A000063F01F03DBB23B743B6803331B7863F01F03DBB27B743B6804331B7863F01F03DBB2BB743B6805331B7863F01F03DBB2FB743B7F002B18D1E023FB73E0233B74DA
:406A40003B6801331B7863F01F03DBB27B743B6802331B7863F01F03DBB2BB743B6803331B7863F01F03DBB2FB74FB233B7500237B7500237B770FE07A7D7B7F07F1200153
:406A80000B4413F8183C03F00F03DBB21344DBB27B757B7F01337B777B7F0C2BECD97B7D5B42DBB2DBB203F00F03DBB263F01F03DBB2DBB27B75F023BB750E23FB77A24B19
:406AC0005B78DBB2072B40F06481FF233B72BB7F63F01F03DBB27B727B7963F00F03DBB2BB72F423FB72F8233B733B6801331B7863F01F03DBB27B733B6802331B7863F07F
:406B00001F03DBB2BB733B6803331B7863F01F03DBB2FB733B6804331B7863F01F03DBB23B743B6805331B7863F01F03DBB27B743B6806331B7863F01F03DBB2BB743B68DC
:406B400007331B7863F01F03DBB2FB74E0233B75FB237B750023BB7500237B770FE0BA7D7B7F07F120010B4413F8183C03F00F03DBB21344DBB2BB757B7F01337B777B7F07
:406B80000D2BECD9BB7D5B42DBB2DBB203F00F03DBB263F01F03DBB2DBB2BB75F023FB750F23FB777B79012B40F0F380F6233B73BB79013BDBB2DBB263F01F03DBB2DBB2CE
:406BC0007B73F823BB733B7F042B2DD13B6801331B7863F01F03DBB2FB733B6802331B7863F01F03DBB23B743B6803331B7863F01F03DBB27B743B6805331B7863F01F0341
:406C0000DBB2BB743B6806331B7863F01F03DBB2FB743B6807331B7863F01F03DBB23B75E0237B75E023BB753B7F032B2DD1E023FB733B6801331B7863F01F03DBB23B74FE
:406C40003B6802331B7863F01F03DBB27B743B6804331B7863F01F03DBB2BB743B6805331B7863F01F03DBB2FB743B6806331B7863F01F03DBB23B753B6807331B7863F057
:406C80001F03DBB27B75E023BB753B7F022B2DD1E023FB73E0233B743B6801331B7863F01F03DBB27B743B6803331B7863F01F03DBB2BB743B6804331B7863F01F03DBB293
:406CC000FB743B6805331B7863F01F03DBB23B753B6806331B7863F01F03DBB27B753B6807331B7863F01F03DBB2BB753B7F002B23D1E023FB73E0233B74E0237B743B6871
:406D000001331B7863F01F03DBB2BB743B6802331B7863F01F03DBB2FB743B6803331B7863F01F03DBB23B753B6804331B7863F01F03DBB27B75E023BB75FB23FB7500231E
:406D40003B7600237B7711E0D882FF1F3A7E7B7F07F120010B4413F8183C03F00F03DBB21344DBB23B767B7F01337B777B7F0F2BECD93B7E5B42DBB2DBB203F00F03DBB229
:406D800063F01F03DBB2DBB23B76F0237B761123FB7702F0AFF8FB7943F02003DBB2184602F0E6F82A4802F057FD03F07FFB294B00221A700A2001F0CBFE0BE0254B1B78B4
:406DC000012B07D102F05AFD03F080FB02F092F8002339E002F044F80346002BEED002F04DFD03F073FB01F0F1FF03461A46FB7963F02F03DBB29A4225D102F07BF80A20B2
:406E000001F0A6FE00237B770BE07B7F07F12002134413F8183C184602F0AAF87B7F01337B777A7FFB7F9A42EFD9322001F090FEFB791846FFF7CCF80346002B01D1002304
:406E400002E0012300E0002318462037BD4680BDBD5F00008287FF1F80B588B000AF03463960FB711346BB7100233B7300237B730023BB730023FB7300233B7400237B743A
:406E80000023BB740023FB7400233B7500237B750023BB750023FB7500233B7600237B760023BB76884B5B78DBB2072B56D0FF233B73E5237B73F423BB73F623FB73BB7995
:406EC000013BDBB2DBB263F01F03DBB2DBB23B74F7237B740623BB7715E0BB7FBA7F063A39680A441278D2B202F00F02D2B262F01F02D2B2D2B207F120010B4403F8142C50
:406F0000BB7F0133BB77BB7F092BE6D9FB23BB750023BB770FE0FA7DBB7F07F120010B4413F8143C03F00F03DBB21344DBB2FB75BB7F0133BB77BB7F0A2BECD9FB7D5B42AF
:406F4000DBB2DBB203F00F03DBB263F01F03DBB2DBB2FB75F0233B760C23FB775A4B5B78DBB2072B53D1FF233B73E3237B73F423BB73F623FB73BB79013BDBB2DBB263F039
:406F80001F03DBB2DBB23B74F7237B740623BB7710E0BB7FBA7F063A39680A44127862F01F02D2B207F120010B4403F8142CBB7F0133BB77BB7F0A2BEBD9E023FB75FB2368
:406FC0003B760023BB770FE07A7EBB7F07F120010B4413F8143C03F00F03DBB21344DBB27B76BB7F0133BB77BB7F0C2BECD97B7E5B42DBB2DBB203F00F03DBB263F01F03B3
:40700000DBB2DBB27B76F023BB760E23FB7701F071FFFB7943F02003DBB2184601F0A8FF2A4802F019FC03F041FA294B00221A700BE0274B1B78012B07D102F01FFC03F0F5
:4070400045FA01F057FF002339E001F009FF0346002BEED002F012FC03F038FA01F0B6FE03461A46FB7963F02F03DBB29A4225D101F040FF0A2001F06BFD0023BB770BE065
:40708000BB7F07F12002134413F8143C184601F06FFFBB7F0133BB77BA7FFB7F9A42EFD9322001F055FDFB791846FEF791FF0346002B01D1002302E0012300E0002318465A
:4070C0002037BD4680BD00BFD882FF1FBD5F00008287FF1F80B584B000AF03460A46FB711346BB7101F006FFFB7943F05003DBB2184601F03DFFB04B00221A704FF49670E5
:4071000001F026FD01F0ACFE0346002B01F02280AA4B1B78DBB2FA799A4240F01F84A84B5B78DBB2072B00F00C824FF4617001F00FFD01F095FE0346FB73FB7B222B06D07A
:40714000FB7B402B03D0FB7B5E2B40F0F5819D4B1B78DBB2FF2B40F0EA819A4B5B78DBB2F62B40F0E481974BDB78DBB2F92B40F0DE810023BB7316E00023FB730DE0BA7B7F
:40718000F97B8E4813465B001344DB000B44034400229A70FB7B0133FB73FB7B172BEED9BB7B0133BB73BB7B022BE5D90023FB7321E0FB7BFA7B043282498A5CD1B27F4ADD
:4071C00013440A469A70FB7B7C4A13449B78DBB2002B08D0FB7B794A13449B78DBB203F0F003E02B04D001F085FE002300F0B3BFFB7B0133FB73FB7B072BDAD90023FB73B6
:4072000024E0FB7B0C33FA7B0D326E498A5CD1B26A4A13440A469A70FB7B0C33674A13449B78DBB2002B09D0FB7B0C33634A13449B78DBB203F0F003E02B04D001F05AFE94
