:400000000080002011000000A1820000A182000080B500AF024A034B1B68136008F06EF9BC760040FA46004010B5054C237833B9044B13B10448AFF300800123237010BD62
:400040000082FF1F0000000020CF0000084B10B51BB108480849AFF300800848036803B910BD074B002BFBD0BDE81040184700BF0000000020CF00000482FF1F0881FF1F71
:400080000000000090B583B000AF734B00221A8062B608F073FE09F073F808F0A9FC09F0CDFA09F047FC0AF0FBF86C4B002283F859206A4B002283F85A20684B002283F84B
:4000C0005B20674B002283F85920654B002283F85A20634B002283F85B200023FB7108E0FB79604A1344012283F83320FB790133FB71FB790F2BF3D9052008F0A9FB0D23D4
:40010000FB710EE0FB79A3F10D04FB799BB218460AF05CF903461A46534B1A55FB790133FB71FB790E2BEDD90F200AF04FF903461A464A4B83F85C2010200AF047F9034648
:400140001A46464B83F8592011200AF03FF903461A46424B83F85A2012200AF037F903461A463E4B83F85B2013200AF02FF903461A463B4B83F85C2014200AF027F9034676
:400180001A46374B83F8592015200AF01FF903461A46334B83F85A2016200AF017F903461A462F4B83F85B2017200AF00FF903461A462E4B1A701E200AF008F903461A46E6
:4001C0002B4B5A701F200AF001F903461A46284B9A7020200AF0FAF803461A46244BDA701A200AF0F3F803461A461C4B1A701C200AF0ECF803461A46194B1A7021200AF033
:40020000E5F803461A461B4B1A7022200AF0DEF803461A46184B1A7023200AF0D7F803461A46164B1A700D4B01225A700C4B01225A70134B00221A700D4B00229A700C4B92
:400240000322DA700F4B00221A70052008F000FB0C37BD4690BD00BF2883FF1F5886FF1F5882FF1FDC86FF1F3C85FF1F3E85FF1FD882FF1F8287FF1F5585FF1F5482FF1F17
:400280005686FF1F5685FF1F80B582B000AF03460A46FB711346BB80FB79012B13D1BB880120194607F0E0FD104B64221A70104B01221A700F4B01225A700F4809F0BAFCC1
:4002C00009F082FD0FE0BB880220194607F0CCFD0A4B64221A700A4B01221A70094809F0A5FE09F055FE0837BD4680BD5685FF1F2885FF1F5886FF1FAD5B00000384FF1F87
:40030000C082FF1F215C000080B582B000AF0023FB7180E10023FB71C24B1B78DBB2FF2B04D0C14B1B78DBB2FF2B58D100BF05F01BFD0346002BFAD000BFBA4B1B78DAB2B4
:40034000B84B93F85C30DBB21046194606F042FD0346002BF1D0322008F07AFA00BFB24B1B78DAB2B04B93F85C30DBB21046194606F030FD0346002BF1D0322008F068FAC6
:40038000A84B1B78DBB218461A2109F08FFF0346002B04D101203C2107F066FD03E00120552107F061FDA04B1B78DBB218461C2109F07CFF0346002B04D102203C2107F041
:4003C00053FD03E00220552107F04EFD974B00221A70974B00221A700223FB711BE1914B1B78DBB2184605F073FC0346BB71BB790C2B7ED801A252F823F000BF310400005F
:40040000F3040000F3040000F3040000F3040000F304000039040000750400009F040000B3040000CF040000C1040000DD0400007C4BFF221A705CE07A4B1B78DBB218466F
:4004400005F0A0FD322008F003FA764B1B78DAB2744B93F85C30DBB21046194606F0BAFC322008F0F5F9724B00221A70FB790133FB713EE06B4B1B78DAB26A4B93F85C308B
:40048000DBB21046194606F0A5FC322008F0E0F9674B00221A70FB790133FB7129E0644B08221A70634B01221A70FB790133FB711FE05F4B0B221A70FB790133FB7118E087
:4004C0005B4B0C221A70FB790133FB7111E0584B0C221A70FB790133FB710AE0544B0B221A700120082107F0BFFCFB790133FB7100BF4D4B1B78DBB2184605F0E9FB0346E3
:40050000BB71BB790C2B00F2868001A252F823F04505000017060000170600001706000017060000170600004D05000089050000B3050000CF050000F3050000E505000003
:4005400001060000384BFF221A7064E0364B1B78DBB2184605F016FD322008F079F9324B1B78DAB2304B93F85C30DBB21046194606F030FC322008F06BF92C4B00221A70DC
:40058000FB790133FB7146E0274B1B78DAB2264B93F85C30DBB21046194606F01BFC322008F056F9214B00221A70FB790133FB7131E01E4B08221A701E4B02221A7002206D
:4005C000082107F051FCFB790133FB7123E0174B0B221A700220082107F046FCFB790133FB7118E0114B0C221A70FB790133FB7111E00E4B0C221A70FB790133FB710AE0A6
:400600000A4B0B221A700220082107F02DFCFB790133FB7100BFFB79012B7FF67BAE0837BD4680BD5886FF1F5882FF1F0384FF1F5685FF1F4F86FF1F80B586B000AF08F01C
:400640000DFC0346052B40F28C8508F007FC03463B820A2008F0FCF808F000FC0346FB813A8AFB899A4240F07C85AB4B1B78DBB2422B40F06E85A84B5B78DBB2422B40F0FA
:400680006885A54B9B78DBB2422B40F06285A34B00221A70A04BDB78DBB2303B152B00F2448501A252F823F0010700007D0E00002B110000490F00002B1100002B110000CF
:4006C0002B1100002B1100002B1100002B1100002B1100002B1100002B1100002B1100002B1100002B1100002B1100002B1100002B1100002B1100002B110000EF0E000079
:40070000854B1B79DBB2312B40F0DA81824B0022DA70814B5B79DBB24E2B0BD17E4B1B79DBB203F00F03DBB218461C21FFF7ACFD00F0FBBC784B9B7ADBB2462B7ED1784BE1
:400740009B7E5A1E774913469B0013440B4448339B78DBB203F00F03DBB23B72704B9B7E5A1E704913469B0013440B4449339B78DBB203F00F03DBB27B72694B9B7E5A1EB5
:40078000684913469B0013440B444A339B78DBB203F00F03DBB2BB72614B9B7E5A1E614913469B0013440B444B339B78DBB203F00F03DBB2FB725A4B9B7E5A1E5949134643
:4007C0009B0013440B444C339B78DBB203F00F03DBB23B73534B1B78DBB203F00F03D9B24F4B9B7E07F10802084611461A4606F0B3F90346002B40F09B804B4B4D221A7061
:40080000494B55225A70484B58229A70464B4522DA70454B30221A713F4B1B79DAB2424B5A71414B31229A713F4B2A22DA710823FB823A4B01221A7000F077BC394B1B78FC
:40084000DAB2384B93F85C30DBB21046194606F0C1FA364B1B78DBB2012B11D12E4B5B7ADBB23B732C4B1B7ADBB2FB722A4BDB79DBB2BB72284B9B79DBB27B7200233B72CD
:400880002A4B1B78DBB2002B13D1234B9B7ADBB23B73214B5B7ADBB2FB721F4B1B7ADBB2BB721D4BDB79DBB27B721B4B9B79DBB23B721C4B1B78DBB203F00F03D9B2184B7E
:4008C0009B7E07F10802084611461A4606F044F90346002B2CD1144B4D221A70124B55225A70114B58229A700F4B4522DA700E4B30221A71084B1B79DAB20B4B5A710A4B34
:4009000031229A71084B2A22DA710823FB82034B01221A7000F009BC8488FF1F2A83FF1FDC86FF1F5886FF1F6084FF1F3E85FF1FAF4B5B7CDBB27B70AD4B5B7CDBB22C2BC7
:4009400006D0AB4B5B7CDBB203F00F03DBB27B70A74B1B7CDBB2BB70A54B1B7CDBB22C2B06D0A34B1B7CDBB203F00F03DBB2BB709F4BDB7BDBB2FB709D4BDB7BDBB22C2B1F
:4009800006D09B4BDB7BDBB203F00F03DBB2FB70974B9B7BDBB23B71954B9B7BDBB22C2B06D0934B9B7BDBB203F00F03DBB23B718F4B5B7BDBB27B718D4B5B7BDBB22C2B40
:4009C00006D08B4B5B7BDBB203F00F03DBB27B71874B1B7BDBB2BB71854B1B7BDBB22C2B06D0834B1B7BDBB203F00F03DBB2BB717F4BDB7ADBB2FB717D4BDB7ADBB22C2B61
:400A000006D07B4BDB7ADBB203F00F03DBB2FB71774B9B7CDBB27B827B8A312B02D102237B8201E001237B82724B1B78DBB203F00F03D8B2704B997E7B8ADBB23A4605F03A
:400A40004BFC0346012B1BD10A2007F001FF694B1B78DBB2DBB203F00F03DBB243F01003DBB2DBB2184608F003F9624B06225A70624B08221A700120082107F0F5F9FCE1FC
:400A80005F4B4D221A705E4B55225A705C4B58229A705B4B4522DA70594B30221A71544B1B79DAB2564B5A71554B32229A71544B2A22DA710823FB82524B01221A7034E33D
:400AC0004B4B0022DA704A4B5B79DBB24E2B0AD1474B1B79DBB203F00F03DBB218461C21FFF7D2FB21E3424B9B7ADBB2462B40F08F80454B9B7E5A1E444913469B0013442B
:400B00000B4448339B78DBB203F00F03DBB23B723D4B9B7E5A1E3D4913469B0013440B4449339B78DBB203F00F03DBB27B72364B9B7E5A1E354913469B0013440B444A3391
:400B40009B78DBB203F00F03DBB2BB722E4B9B7E5A1E2E4913469B0013440B444B339B78DBB203F00F03DBB2FB72274B9B7E5A1E264913469B0013440B444C339B78DBB2B3
:400B800003F00F03DBB23B73204B1B78DBB203F00F03D9B21C4B9B7E07F10802084611461A4605F0D9FF0346002B40F09E80144B4D221A70124B55225A70114B58229A70EE
:400BC0000F4B4522DA700E4B30221A71084B1B79DAB20B4B5A710A4B31229A71084B2A22DA710823FB82074B01221A709DE200BF8488FF1F5886FF1FDC86FF1F5685FF1FFF
:400C00006084FF1F2A83FF1F5885FF1F5882FF1FAE4B1B78DAB2AD4B93F85C30DBB21046194606F0D7F8AA4B1B78DBB2012B11D1A84B5B7ADBB23B73A64B1B7ADBB2FB7220
:400C4000A44BDB79DBB2BB72A24B9B79DBB27B7200233B729E4B1B78DBB2002B13D19D4B9B7ADBB23B739B4B5B7ADBB2FB72994B1B7ADBB2BB72974BDB79DBB27B72954B64
:400C80009B79DBB23B72914B1B78DBB203F00F03D9B2914B9B7E07F10802084611461A4605F05AFF0346002B1FD18C4B4D221A708A4B55225A70894B58229A70874B452235
:400CC000DA70864B30221A71824B1B79DAB2834B5A71824B31229A71804B2A22DA710823FB827F4B01221A701FE27A4B5B7CDBB27B70784B5B7CDBB22C2B06D0754B5B7CCA
:400D0000DBB203F00F03DBB27B70724B1B7CDBB2BB70704B1B7CDBB22C2B06D06D4B1B7CDBB203F00F03DBB2BB706A4BDB7BDBB2FB70684BDB7BDBB22C2B06D0654BDB7B2C
:400D4000DBB203F00F03DBB2FB70624B9B7BDBB23B71604B9B7BDBB22C2B06D05D4B9B7BDBB203F00F03DBB23B715A4B5B7BDBB27B71584B5B7BDBB22C2B06D0554B5B7B4C
:400D8000DBB203F00F03DBB27B71524B1B7BDBB2BB71504B1B7BDBB22C2B06D04D4B1B7BDBB203F00F03DBB2BB714A4BDB7ADBB2FB71484BDB7ADBB22C2B06D0454BDB7A6E
:400DC000DBB203F00F03DBB2FB71424B9B7CDBB27B827B8A312B02D102237B8201E001237B823A4B1B78DBB203F00F03D8B23A4B997E7B8ADBB23A4605F06EFA0346012B2E
:400E00001BD10A2007F024FD304B1B78DBB2DBB203F00F03DBB243F01003DBB2DBB2184607F026FF294B06225A702E4B08221A700120082107F018F81FE0284B4D221A70A1
:400E4000264B55225A70254B58229A70234B4522DA70224B30221A711E4B1B79DAB21F4B5A711E4B32229A711C4B2A22DA710823FB821B4B01221A7057E156E1012037213C
:400E800006F0F2FF184B1B78DBB21A46164B1B78DBB203F00F039A4206D1134B01225A70104B00221A7021E0084B1B78DBB21A46084B1B79DBB203F00F039A4216D1034B7F
:400EC00001225A70074B00221A702EE15882FF1F3E85FF1F8488FF1F5885FF1F6084FF1F2A83FF1F5685FF1F5886FF1F1DE19E4B5B79DBB2313B032B00F2168101A252F8E0
:400F000023F000BF150F0000250F0000350F0000450F0000954B01225A7001201C21FFF7B3F910E0914B01225A7001200C21FFF7ABF908E08D4B01225A7001200C21FFF790
:400F4000A3F900E000BFEFE0874B1B79DBB2303BDAB2864B83F85C20834B5B79DBB2303BDAB2824B83F859207F4B9B79DBB2303BDAB27E4B83F85A207B4BDB79DBB2303B9C
:400F8000DAB27A4B83F85B20774B1B7ADBB2303BDAB2774B83F85C20734B5B7ADBB2303BDAB2734B83F859206F4B9B7ADBB2303BDAB26F4B83F85A206B4BDB7ADBB2303B88
:400FC000DAB26B4B83F85B20674B1B7BDBB2303BDAB2684B5A70644B5B7BDBB2303BDAB2644B9A70604B9B7BDBB2303BDAB2614BDA705D4BDB7BDBB2303BDAB25E4B1A70BE
:40100000594B1B7CDBB2303BDAB25C4B1A70564B5B7CDBB2303BDAB2594B1A70524B9B7CDBB2303BDAB2574B1A70504B93F85C30DBB218460F2109F039F94C4B93F859308F
:40104000DBB21846102109F031F9484B93F85A30DBB21846112109F029F9444B93F85B30DBB21846122109F021F9414B93F85C30DBB21846132109F019F93D4B93F8593012
:40108000DBB21846142109F011F9394B93F85A30DBB21846152109F009F9354B93F85B30DBB21846162109F001F9334B1B78DBB21846172109F0FAF82E4B5B78DBB2184657
:4010C0001E2109F0F3F82B4B9B78DBB218461F2109F0ECF8274BDB78DBB21846202109F0E5F8264B1B78DBB21846212109F0DEF8234B1B78DBB21846222109F0D7F8214B12
:401100001B78DBB21846232109F0D0F801203C2106F0AAFE4FF4FA7007F09AFBFEF7B2FF194B00221A7000E000BF184B1B78012B0FD10023BB8208E0BB8A154AD35C184607
:4011400007F014FFBB8A0133BB82BA8AFB8A9A42F2D307F0CDFE07F04DFD00233B820023FB811837BD4680BD8488FF1F5886FF1F5882FF1FD882FF1F3E85FF1F8287FF1F96
:401180005585FF1F5482FF1F5685FF1F2A83FF1F6084FF1FB0B58EB002AFCD4B1B78DBB2662B04F2ED8401A252F823F0491300009D1400009F1500009B1A00006D1B0000FB
:4011C000391F0000DD200000815B0000E921000079240000815B00000D2E0000F730000095470000F95200001B55000055560000F7580000815B0000995900000515000060
:4012000063130000815B0000815B0000815B0000815B0000815B0000815B0000815B0000815B0000815B0000815B0000815B0000815B0000815B0000815B0000815B000054
:40124000815B0000815B0000815B0000815B0000815B0000815B0000815B0000815B0000815B0000815B0000815B0000815B0000815B0000815B0000815B0000815B0000AE
:40128000815B0000815B0000815B0000815B0000815B0000815B0000815B0000815B0000815B0000815B0000815B0000815B0000815B0000815B0000815B0000815B00006E
:4012C000815B0000815B0000815B0000815B0000815B0000815B0000815B0000815B0000815B0000815B0000815B0000815B0000815B0000815B0000815B0000815B00002E
:40130000815B0000815B0000815B0000815B0000815B0000815B0000815B0000815B0000815B0000815B0000815B0000815B0000815B0000815B0000815B0000615B00000D
:40134000815B0000815B0000624808F073FC08F03BFD614B00221A705D4B15221A7004F00FBC012006F030FE0346012B70D10120332106F089FE0346002B69D0002387F8B8
:401380002F301CE097F82F40012006F003FF03461A46524B234483F8232097F82F3097F82F204E490A4492F823104D4A13440A4683F8232097F82F30013387F82F3097F857
:4013C0002F30072BDED9474B00221A70002387F82F3014E0434B197897F82F303F4A134493F823300846194606F02EFF03461A463C4B1A7097F82F30013387F82F3097F88E
:401400002F30062BE6D9354B93F82A20354B1B789A421DD10120132106F026FD4FF4FA7007F016FA304B00221A70304B0A221A702F4B02221A802F4B03221A802E4B0122A4
:401440001A80234B14221A7001202E2106F00CFD08F064F90346082B1ED1284B1B78DBB2AA2B12D1254B9B79DBB2C32B0DD1234BDB79DBB23C2B08D1204BDB78DBB23B2B0D
:4014800003D1134B00221A7000BF642007F0E0F908F08CF904F074BB04F072BB08F03EF90346082B11D108F0D7FB08F09DFC01202E2106F0D9FC064B14221A7008F076F9DF
:4014C0000F4B00221A7004F05BBB04F059BB00BF5685FF1FAD5B00002885FF1FDC86FF1F5885FF1F2583FF1F3F85FF1F0884FF1FB686FF1FDC82FF1F0084FF1F788EFF1FE0
:401500004F86FF1F08F00AF90346082B45D1BC4B1B78DBB2AA2B39D1B94B9B79DBB2C32B34D1B74BDB79DBB23C2B2FD1B44BDB78DBB2572B11D0942B1DD0562B26D10120BC
:40154000242106F091FCAF4B01221A70AE4B0C221A70AE4B08221A7018E00120242106F083FCA84B02221A70A74B0C221A70A74B08221A700AE00120722106F075FCA14BE9
:4015800001221A70A04B0F221A7000BF642007F05FF908F00BF904F0F3BA04F0F1BA08F0BDF80346082B40F07682954B1B78DBB2AA2B40F06982924B9B79DBB2C32B40F02D
:4015C00063828F4BDB79DBB23C2B40F05D828C4BDB78DBB2592B1AD0592B02DC452B0ED052E25C2B03D07E2B00F046824CE20120492106F039FC844B03221A7044E2012068
:40160000722106F031FC804B0F221A703CE20120392106F029FC7E4B4D221A707C4B55225A707B4B58229A70794B3222DA70754B1B78DBB2012B40F01181764B1B78DAB296
:40164000744B93F85C30DBB21046194605F0C2FB322007F0FDF8042387F82D30002387F82F3018E097F82D3097F82F2069490A449278D2B202F00F02D2B23032D1B2644AF4
:40168000D15497F82D30013387F82D3097F82F30013387F82F3097F82F300B2BE2D90C2387F82F3018E097F82D3097F82F2059490A449278D2B202F00F02D2B23032D1B271
:4016C000534AD15497F82D30013387F82D3097F82F30013387F82F3097F82F30172BE2D9002387F82F3018E097F82D3097F82F2048490A44927ED2B202F00F02D2B2303222
:40170000D1B2434AD15497F82D30013387F82D3097F82F30013387F82F3097F82F300B2BE2D90C2387F82F3018E097F82D3097F82F2038490A44927ED2B202F00F02D2B2E0
:401740003032D1B2324AD15497F82D30013387F82D3097F82F30013387F82F3097F82F30172BE2D9002387F82F3019E097F82D3097F82F2027490A4492F83220D2B202F028
:401780000F02D2B23032D1B2214AD15497F82D30013387F82D3097F82F30013387F82F3097F82F300B2BE1D90C2387F82F3019E097F82D3097F82F2016490A4492F83220EC
:4017C000D2B202F00F02D2B23032D1B2104AD15497F82D30013387F82D3097F82F30013387F82F3097F82F30172BE1D9084B2A2283F84B2007F07CFB002387F82F3017E0A9
:40180000788EFF1F4F86FF1F5685FF1FD782FF1F6084FF1F5886FF1F97F82F30CB4AD35C184607F0A3FB97F82F30013387F82F3097F82F304B2BEFD9FA2007F009F807F0C9
:401840000DFB0346012B09D901204A2106F00CFBBF4B00221A70BF4B01225A70BE4B1B78DBB2022B40F00581BC4B1B78DAB2BB4B93F85C30DBB21046194605F0ABFA322056
:4018800006F0E6FF042387F82D30002387F82F3018E097F82D3097F82F20B0490A449278D2B202F00F02D2B23032D1B2A74AD15497F82D30013387F82D3097F82F30013312
:4018C00087F82F3097F82F300B2BE2D90C2387F82F3018E097F82D3097F82F209F490A449278D2B202F00F02D2B23032D1B2974AD15497F82D30013387F82D3097F82F303C
:40190000013387F82F3097F82F30172BE2D9002387F82F3018E097F82D3097F82F208F490A44927ED2B202F00F02D2B23032D1B2864AD15497F82D30013387F82D3097F841
:401940002F30013387F82F3097F82F300B2BE2D90C2387F82F3018E097F82D3097F82F207E490A44927ED2B202F00F02D2B23032D1B2764AD15497F82D30013387F82D3052
:4019800097F82F30013387F82F3097F82F30172BE2D9002387F82F3019E097F82D3097F82F206E490A4492F83220D2B202F00F02D2B23032D1B2654AD15497F82D300133B3
:4019C00087F82D3097F82F30013387F82F3097F82F300B2BE1D90C2387F82F3019E097F82D3097F82F205D490A4492F83220D2B202F00F02D2B23032D1B2544AD15497F84B
:401A00002D30013387F82D3097F82F30013387F82F3097F82F30172BE1D94C4B2A2283F84B2007F065FA002387F82F300BE097F82F30464AD35C184607F098FA97F82F30C2
:401A4000013387F82F3097F82F304B2BEFD9FA2006F0FEFE07F002FA0346012B09D901204A2106F001FA3A4B00221A703B4B01225A7007F03DFA07E001204A2106F0F4F92D
:401A8000334B00221A7000BF642006F0E1FE07F08DFE04F075B804F073B807F03FFE0346082B50D12E4B1B78DBB2AA2B44D12C4B9B79DBB2C32B3FD1294BDB79DBB23C2BFC
:401AC0003AD1274BDB78DBB25F2B09D05F2B02DC5E2B13D030E07E2B1ED0942B24D02BE00120122106F0C0F91E4B00221A701E4B08221A70164B0B221A701DE0012012214F
:401B000006F0B2F9174B01221A70114B0B221A70154B00221A700FE001204A2106F0A4F90B4B00221A7007E00120632106F09CF9074B01221A7000BF642006F089FE07F0F9
:401B400035FE04F01DB804F01BB800BF6084FF1F5685FF1F5886FF1F4F86FF1F5882FF1F788EFF1F0284FF1FD782FF1F07F0D6FD0346082B40F0DE81BD4B1B78DBB2AA2BF0
:401B800040F0D181BA4B9B79DBB2C32B40F0CB81B74BDB79DBB23C2B40F0C581B44BDB78DBB23B2B00F0B3813B2B05DC0F2B0AD0102B00F09280B6E1432B00F018817E2B9B
:401BC00000F0A981AFE1AB4B1B78DBB2012B3ED1002387F82F300AE097F82F30A64A13440022DA7697F82F30013387F82F3097F82F30072BF0D9A14B00221A70A04B0122C9
:401C00001A70A04B2C221A709F4B5B78DAB29F4B1A70994B0122DA769D4B00221A700120062106F021F99B4B04221A809A4B03221A809A4B01221A8001230093012024214E
:401C40000322042306F05CF9954B0C221A70894B1B78DBB2022B3FD1002387F82F300AE097F82F308F4A13440022DA7697F82F30013387F82F3097F82F30072BF0D97F4BD6
:401C800000221A707E4B01221A707E4B2C221A707D4B5B78DAB27D4B1A70824B0122DA767B4B00221A700120062106F0DDF8794B04221A80784B03221A80784B01221A809D
:401CC00001230093012024210322042306F018F9734B0C221A7026E125E1664B1B78DBB2012B3ED1002387F82F300AE097F82F30614A13440022DA7697F82F30013387F8F7
:401D00002F3097F82F30072BF0D95C4B00221A705B4B01221A705B4B2C221A705A4B5B78DAB25A4B1A70544B0222DA76584B00221A7001200D2106F097F8564B04221A806D
:401D4000554B03221A80554B01221A800123009301204C210322042306F0D2F8504B0C221A70444B1B78DBB2022B3FD1002387F82F300AE097F82F303F4A13440022DA76EC
:401D800097F82F30013387F82F3097F82F30072BF0D93A4B00221A70394B01221A70394B2C221A70384B5B78DAB2384B1A703D4B0222DA76364B00221A7001200D2106F01F
:401DC00053F8344B04221A80334B03221A80334B01221A800123009301204C210322042306F08EF82E4B0C221A709CE09BE0214B1B78DBB2012B32D1002387F82F300AE006
:401E000097F82F301C4A13440022DA7697F82F30013387F82F3097F82F30072BF0D9164B0322DA76052387F82F300AE097F82F30114A13440922DA7697F82F30013387F81A
:401E40002F3097F82F30072BF0D90120072106F00BF8154B02225A70114B06221A70054B1B78DBB2022B51D1002387F82F3028E0788EFF1F4F86FF1FDC86FF1F3F85FF1F3B
:401E8000D782FF1FB582FF1FD882FF1F0884FF1F5782FF1FB686FF1FDC82FF1F0084FF1F5685FF1F5885FF1F5886FF1F97F82F30C34A13440022DA7697F82F30013387F870
:401EC0002F3097F82F30072BF0D9BE4B0322DA76052387F82F300AE097F82F30B84A13440922DA7697F82F30013387F82F3097F82F30072BF0D90120072105F0B5FFB24B92
:401F000002225A70B14B06221A700CE00BE0AF4B00221A7007E001204A2105F0A5FFAB4B00221A7000BF642006F092FC07F03EFC03F026BE03F024BEA54B1B78DBB2012BFA
:401F400061D1322006F084FC07F0E8FB0346082B1AD1A04B1B78DBB2AA2B11D19D4B9B79DBB2C32B0CD19B4BDB79DBB23C2B07D1984BDB78DBB27E2B02D1944B00221A7040
:401F800007F014FC03F0FCBD934B1B78DBB2184603F09EFE034687F82F3097F82F30072B06D18A4B06221A70322006F051FC2AE097F82F30002B0ED1322006F049FC864BE9
:401FC0001B78DAB207F11403104601211A46022304F082F917E097F82F300C2B04D101205521FEF751F90EE097F82F300B2B03D1764B0D221A7006E097F82F300A2B02D144
:40200000724B0D221A70724B1B78DBB2022B63D1322006F01DFC07F081FB0346082B1AD16C4B1B78DBB2AA2B11D16A4B9B79DBB2C32B0CD1674BDB79DBB23C2B07D1654B80
:40204000DB78DBB27E2B02D1604B00221A7007F0ADFB03F095BD5C4B1B78DBB2184603F037FE034687F82F3097F82F30072B06D1564B06221A70322006F0EAFB2CE097F843
:402080002F30002B0ED1322006F0E2FB4E4B1B78DAB207F11403104601211A46022304F01BF919E097F82F300C2B04D101205521FEF7EAF810E097F82F300B2B03D1434BEF
:4020C0000D221A7008E097F82F300A2B04D13F4B0D221A7003F054BD03F052BD3C4B1B78DBB2012B31D10A2006F0B2FB3A4B1B78DBB2184603F088FE03461A46314B9A76AB
:40210000304B9B7E002B20D0142006F0A1FB324B1B78DBB2184603F0DBFD0346072B14D12E4807F087FD07F04FFE2D4B00221A702C4B00221A80284B04225A70012039219A
:4021400005F092FE214B09221A70214B1B78DBB2022B33D10A2006F07BFB1B4B1B78DBB2184603F051FE03461A46154B9A76144B9B7E002B22D0142006F06AFB124B1B7813
:40218000DBB2184603F0A4FD0346072B16D1134807F050FD07F018FE114B00221A70114B00221A80084B04225A700120392105F05BFE064B09221A7003F0E2BC03F0E0BC40
:4021C0005885FF1FDC86FF1F5882FF1F5685FF1F4F86FF1F788EFF1F5886FF1FAD5B00002885FF1F2883FF1F322006F031FBAF4B1B78DBB2012B40F09B80AD4B1B78DBB2A7
:40220000184603F065FD03460A2B32D00B2B02D0062B59D08CE0642006F01AFB002387F82F3010E097F82F30A24A13440022DA7197F82F309F4A134400221A7497F82F30B3
:40224000013387F82F3097F82F30082BEAD9984B1B78DBB2184603F095FE0346012B07D1954B0D221A700120392105F0FDFD5FE05EE0002387F82F3010E097F82F308D4AFE
:4022800013440022DA7197F82F308A4A134400221A7497F82F30013387F82F3097F82F30082BEAD9824B1B78DBB2184603F06AFE0346012B07D1804B0D221A7001203921BB
:4022C00005F0D2FD34E033E0002387F82F3010E097F82F30774A13440022DA7197F82F30744A134400221A7497F82F30013387F82F3097F82F30082BEAD9002387F82F30F7
:402300000AE097F82F306B4A134400229A7097F82F30013387F82F3097F82F30042BF0D9654B0D221A700120392105F09DFD00BF5E4B1B78DBB2022B40F09C805F4B1B78F6
:40234000DBB2184603F0C4FC03460A2B33D00B2B03D0062B5AD003F013BC642006F078FA002387F82F3010E097F82F30544A13440022DA7197F82F30514A134400221A745B
:4023800097F82F30013387F82F3097F82F30082BEAD94A4B1B78DBB2184603F0F3FD0346012B07D1444B0D221A700120392105F05BFD5FE05EE0002387F82F3010E097F8E9
:4023C0002F303F4A13440022DA7197F82F303C4A134400221A7497F82F30013387F82F3097F82F30082BEAD9344B1B78DBB2184603F0C8FD0346012B07D12F4B0D221A709D
:402400000120392105F030FD34E033E0002387F82F3010E097F82F30294A13440022DA7197F82F30264A134400221A7497F82F30013387F82F3097F82F30082BEAD9002356
:4024400087F82F300AE097F82F301D4A134400229A7097F82F30013387F82F3097F82F30042BF0D9144B0D221A700120392105F0FBFC00BF03F084BB124B4D221A70114BB4
:4024800055225A700F4B58229A700E4B3022DA70064B1B78DBB2012B40F031820A4B1B78012B52D1002387F82F304AE04F86FF1F5886FF1FDC86FF1F5685FF1F5882FF1FC6
:4024C0005885FF1F6084FF1F0284FF1F97F82F305B08DBB21A46214B134493F823301B0987F82E3097F82F3003F00103DBB2002B0CD197F82F305B08DBB21A46174B1344EA
:4025000093F8233003F00F0387F82E3097F82F30043397F82E203032D1B2114AD15497F82E30092B08D997F82F30043397F82E203732D1B20A4AD15497F82F30013387F86A
:402540002F3097F82F300F2BC0D9064B1B78002B49D1002387F82F3041E000BFDC86FF1F6084FF1F0284FF1F97F82F305B08DBB21A46B54B134493F823301B0987F82E3097
:4025800097F82F3003F00103DBB2002B0CD197F82F305B08DBB21A46AB4B134493F8233003F00F0387F82E3097F82F30043397F82E203032D1B2A54AD15497F82E30092B3A
:4025C00008D997F82F30043397F82E203732D1B29E4AD15497F82F30013387F82F3097F82F300F2BC0D9984B9B7E013B984A134493F85930DBB23033DAB2944B1A75954BEF
:402600001B78002B13D1944B1B79DAB28F4B5A75914BDB78DAB28D4B9A758F4B9B78DAB28A4BDA758C4B5B78DAB2884B1A76894B1B78012B0BD1854B30225A75834B3022F8
:402640009A75824B3022DA75804B30221A76834B1B78DBB2002B59D17B4B9B7E5A1E7C4913469B0013440B444C339B78DBB203F00F03DBB23033DAB2744B5A76724B9B7E32
:402680005A1E734913469B0013440B444B339B78DBB203F00F03DBB23033DAB26B4B9A76694B9B7E5A1E6A4913469B0013440B444A339B78DBB203F00F03DBB23033DAB2B7
:4026C000624BDA76604B9B7E5A1E614913469B0013440B4449339B78DBB203F00F03DBB23033DAB2594B1A77574B9B7E5A1E584913469B0013440B4448339B78DBB203F00F
:402700000F03DBB23033DAB2504B5A77534B1B78DBB2012B4AD14C4B9B7E5A1E4C4913469B0013440B444B339B78DBB203F00F03DBB23033DAB2454B5A76434B9B7E5A1E25
:40274000434913469B0013440B444A339B78DBB203F00F03DBB23033DAB23C4B9A763A4B9B7E5A1E3A4913469B0013440B4449339B78DBB203F00F03DBB23033DAB2334BB0
:40278000DA76314B9B7E5A1E314913469B0013440B4448339B78DBB203F00F03DBB23033DAB22A4B1A77294B30225A77264BDB7E3033DAB2254B9A77234B93F82220234B8C
:4027C000DA77214B93F82230092B06D81E4B93F822303033DAB21D4BDA771B4B93F821201A4B83F82020184B93F82130092B07D8154B93F821303033DAB2144B83F8202056
:40280000114B93F82020114B83F821200E4B93F82030092B07D80C4B93F820303033DAB20A4B83F82120084BDA7F084B83F82220054BDB7F092B13D8034BDB7F3033DAB2C4
:40284000024B83F822200BE0DC86FF1F6084FF1F5886FF1F0284FF1F2C85FF1F3E85FF1F514B9A7F514B83F823204F4B9B7F092B06D84D4B9B7F3033DAB24C4B83F82320C6
:40288000494B5A7F494B83F82420474B5B7F092B06D8454B5B7F3033DAB2444B83F82420414B1A7F414B83F825203F4B1B7F092B06D83D4B1B7F3033DAB23C4B83F8252034
:4028C000002387F82F3012E097F82F30263397F82F20013234490A4492F843203032D1B2324AD15497F82F30013387F82F3097F82F30062BE8D92D4B312283F82D202C4B65
:402900001B78DBB2022B40F028822A4B1B78012B42D1002387F82F303AE097F82F305B08DBB21A46244B134493F823301B0987F82E3097F82F3003F00103DBB2002B0CD1B1
:4029400097F82F305B08DBB21A461B4B134493F8233003F00F0387F82E3097F82F30043397F82E203032D1B2104AD15497F82E30092B08D997F82F30043397F82E203732C9
:40298000D1B20A4AD15497F82F30013387F82F3097F82F300F2BC0D9064B1B78002B4CD1002387F82F3044E0DC86FF1F6084FF1F4F86FF1F0284FF1F5885FF1F97F82F3007
:4029C0005B08DBB21A46B54B134493F823301B0987F82E3097F82F3003F00103DBB2002B0CD197F82F305B08DBB21A46AB4B134493F8233003F00F0387F82E3097F82F309E
:402A0000043397F82E203032D1B2A54AD15497F82E30092B08D997F82F30043397F82E203732D1B29E4AD15497F82F30013387F82F3097F82F300F2BC0D9984B9B7E013B93
:402A4000984A134493F85930DBB23033DAB2944B1A75954B1B78002B13D1944B1B79DAB28F4B5A75914BDB78DAB28D4B9A758F4B9B78DAB28A4BDA758C4B5B78DAB2884BAD
:402A80001A76894B1B78012B0BD1854B30225A75834B30229A75824B3022DA75804B30221A76834B1B78DBB2002B59D17B4B9B7E5A1E7C4913469B0013440B444C339B7851
:402AC000DBB203F00F03DBB23033DAB2744B5A76724B9B7E5A1E734913469B0013440B444B339B78DBB203F00F03DBB23033DAB26B4B9A76694B9B7E5A1E6A4913469B0044
:402B000013440B444A339B78DBB203F00F03DBB23033DAB2624BDA76604B9B7E5A1E614913469B0013440B4449339B78DBB203F00F03DBB23033DAB2594B1A77574B9B7E47
:402B40005A1E584913469B0013440B4448339B78DBB203F00F03DBB23033DAB2504B5A77534B1B78DBB2012B4AD14C4B9B7E5A1E504913469B0013440B444B339B78DBB21C
:402B800003F00F03DBB23033DAB2454B5A76434B9B7E5A1E474913469B0013440B444A339B78DBB203F00F03DBB23033DAB23C4B9A763A4B9B7E5A1E3E4913469B001344CE
:402BC0000B4449339B78DBB203F00F03DBB23033DAB2334BDA76314B9B7E5A1E354913469B0013440B4448339B78DBB203F00F03DBB23033DAB22A4B1A77294B30225A77BD
:402C0000264BDB7E3033DAB2254B9A77234B93F82220234BDA77284B93F82230092B06D81E4B93F822303033DAB21D4BDA771B4B93F821201A4B83F820201F4B93F8213078
:402C4000092B07D8154B93F821303033DAB2144B83F82020114B93F82020114B83F821200E4B93F82030092B07D80C4B93F820303033DAB20A4B83F82120084BDA7F084B45
:402C800083F82220054BDB7F092B17D8034BDB7F3033DAB2024B83F822200FE05885FF1F6084FF1F5882FF1F0284FF1F2C85FF1F3E85FF1F5886FF1FDC86FF1FBA4B9A7F17
:402CC000BA4B83F82320B84B9B7F092B06D8B64B9B7F3033DAB2B54B83F82320B24B5A7FB24B83F82420B04B5B7F092B06D8AE4B5B7F3033DAB2AD4B83F82420AA4B1A7F9A
:402D0000AA4B83F82520A84B1B7F092B06D8A64B1B7F3033DAB2A54B83F82520002387F82F3012E097F82F30263397F82F2001329D490A4492F843203032D1B29B4AD154BA
:402D400097F82F30013387F82F3097F82F30062BE8D9964B322283F82D20944B2A2283F82E2006F0C5F8002387F82F300BE097F82F308E4AD35C184606F0F8F897F82F30BC
:402D8000013387F82F3097F82F302E2BEFD94FF4AF7005F05DFD06F003F9854B1B78DBB20F2B31D906F058FF07F01EF8804B00221A70804B00221A707F4B01225A707F4B52
:402DC0001B78DBB2012B04D07C4B1B78DBB2042B0CD101202C2105F047F84FF4FA7005F037FD01202E2105F03FF80DE00120152105F03AF801202C2105F036F84FF4FA7003
:402E000005F026FD02F0BCBE02F0BABE6C4B1B78DBB2012B40F09480012005F0D5F80346012B40F08D800120332105F02DF90346002B00F08580002387F82F300FE097F850
:402E40002F40012005F0A6F903461A465D4B234483F8232097F82F30013387F82F3097F82F30072BEBD9584B00221A70002387F82F3014E0544B197897F82F30514A134480
:402E800093F823300846194605F0DEF903461A464D4B1A7097F82F30013387F82F3097F82F30062BE6D9474B93F82A20464B1B789A4245D10120132104F0D6FF4FF4FA70CA
:402EC00005F0C6FC414B00221A70414B0A221A70404B02221A80404B03221A803F4B01221A80334B00221A703D4B1B78DBB20A2B06D10120132104F0B7FF2E4B13221A70B2
:402F0000374B1B78DBB2082B06D10120242104F0ABFF284B0C221A70314B1B78DBB2082B0ED02F4B1B78DBB20A2B09D02C4B02221A7001200E2104F097FF1E4B0C221A7041
:402F40001F4B1B78DBB2022B40F0AF80012005F03BF80346012B40F0A8800120332105F093F80346002B00F0A080002387F82F300FE097F82F40012005F00CF903461A46FA
:402F8000094B234483F8232097F82F30013387F82F3097F82F30072BEBD90B4B00221A70002387F82F3032E05885FF1F6084FF1F2885FF1F5685FF1F5886FF1F8287FF1FBB
:402FC0004F86FF1FDC86FF1F2583FF1F3F85FF1F0884FF1FB686FF1FDC82FF1F0084FF1FD782FF1F7F4B197897F82F307E4A134493F823300846194605F026F903461A466D
:40300000784B1A7097F82F30013387F82F3097F82F30062BE6D9744B93F82A20714B1B789A4242D10120132104F01EFF4FF4FA7005F00EFC6D4B00221A706D4B0A221A70AF
:403040006C4B02221A806C4B03221A806B4B01221A806B4B1B78DBB20A2B06D10120132104F002FF674B13221A70654B1B78DBB2082B06D10120242104F0F6FE614B0C2253
:403080001A705F4B1B78DBB2082B0ED05C4B1B78DBB20A2B09D05A4B02221A7001200E2104F0E2FE574B0C221A7006F037FB0346082B1ED1544B1B78DBB2AA2B12D1524B5E
:4030C0009B79DBB2C32B0DD14F4BDB79DBB23C2B08D14D4BDB78DBB23B2B03D1494B00221A7000BF642005F0B3FB06F05FFB02F047BD02F045BD454B1B78DBB2012B40F08A
:40310000A88506F00BFB0346082B40F0A2853E4B1B78DBB2AA2B40F09A853B4B9B79DBB2C32B40F09485384BDB79DBB23C2B40F08E85374B00221A702C4B1B78DAB22C4B1F
:403140001B78DBB29A4280F0D7802F4BDB78DBB2092B32D8254B1B78DBB20133DAB2234B1A70224B1B78DBB21A46274BDB78D9B2284B9954244BDB78DBB23033D9B21E4B69
:403180001B889DB2194B1B78DBB29BB21B4A128892B2013292B202FB03F39AB2154B1B889BB213449CB2154B1B889BB2DBB2009301202A46234604F0A3FE134BDB78DBB221
:4031C0000A2B56D10E4B1B78DBB2012B24D1074B1B78DBB2012B1FD10E4B5B78DBB2002B1AD146E02583FF1F5885FF1F3F85FF1F0884FF1FB686FF1FDC82FF1F0084FF1F91
:40320000D782FF1F5685FF1F788EFF1F4F86FF1F2885FF1F3086FF1FAF4B1B78DBB20133DAB2AD4B1A70AC4B1B78DBB21A46AB4B00219954AA4B1B889DB2A74B1B78DBB298
:403240009BB2A84A128892B2013292B202FB03F39AB2A54B1B889BB213449CB2A14B1B889BB2DBB20093012030212A46234604F047FE9E4BDB78DBB2512B3DD1964B1B78AF
:40328000DBB2002B38D09A4B1B78DBB2002B33D1914B1B78DBB20133DAB28F4B1A708E4B1B78DBB21A46934B1B78D9B28B4B9954904B1B78D9B28A4B1B889DB2864B1B78BE
:4032C000DBB29BB2874A128892B2013292B202FB03F39AB2844B1B889BB213449CB2814B1B889BB2DBB2009301202A46234604F007FE7F4B01221A707C4BDB78DBB20B2B08
:4033000040F0A080744B1B78DBB2002B5ED17A4B1B78DBB2013B072B00F2948001A252F823F000BF45330000553300005D33000073330000893300009F33000045340000AF
:40334000B53300000120052104F08EFD6B4B04221A703AE0694B00221A7036E00120002104F082FD654B00221A70654B01225A702BE00120002104F077FD604B00221A70EF
:403380005F4B01225A7020E00120002104F06CFD5A4B00221A705A4B01225A7015E00120002104F061FD554B00221A70544B01225A700AE00120002104F056FD4F4B002264
:4033C0001A704F4B01225A7000BF3BE0444B1B889DB2414B1B78DBB29BB2424A128892B2013292B202FB03F39AB23F4B1B889BB213449CB23B4B1B889BB2DBB20093012072
:4034000020212A46234604F07BFD334B1B78DBB21A46324B9B5CDAB2364B1B78DBB29A4202D1334B00221A702B4B1B78DBB21A462A4B00219954284B1B78DBB2013BDAB2BA
:40344000254B1A70294BDB78DBB20C2B40F0FF83294B1B78DBB2013B072B00F2F88301A252F823F08534000019360000F53600006D370000C7370000B5380000E7380000C5
:403480008F3A0000002387F82F300CE097F82F3007F130021344002203F82C2C97F82F30013387F82F3097F82F30072BEED90A4B1B78DBB2002B00F0AE80074B1B78DBB25B
:4034C0001A46064B9B5CDBB22C2B00F0A480012387F82F303FE000BF3F85FF1F3086FF1FDC82FF1F0084FF1FB686FF1F788EFF1F5782FF1FB582FF1FD782FF1F5685FF1F3E
:403500005886FF1F97F82F30B14AD35CDBB22C2B0FD097F82F30013B97F82F20AC498A5CD2B23032D2B207F130010B4403F82C2C0CE097F82F30013B97F82F20A4498A5CD5
:40354000D2B207F130010B4403F82C2C97F82F30013387F82F309F4B1B78DBB297F82F209A42CFD93B1D184607F082FAC7E90801994BDB7E012B09D1D7E908014FF0000261
:40358000964B07F061FA0346002B1AD1924BDB7E022B40D1D7E908014FF000028F4B07F049FA0346002B00D151E3D7E908014FF000024FF0000307F051FA0346002B00D19B
:4035C00045E3844B1B7887F82F3015E097F82F30804A1278D2B2114697F82F208A1A01327B498A5CD1B27C4A13440A46DA7697F82F30013B87F82F3097F82F30002BE5D1DB
:40360000774B05221A70774B02225A700120072104F02AFC1BE31AE3002387F82F300BE097F82F306C4A1344002283F8432097F82F30013387F82F3097F82F300A2BEFD937
:40364000644B1B7887F82F3016E097F82F30614A1278D2B2114697F82F208A1A01325C498A5CD1B25C4A13440A4683F8432097F82F30013B87F82F3097F82F30002BE4D172
:40368000594B1B78DBB2012B33D1002387F82F300AE097F82F30504A13440022DA7697F82F30013387F82F3097F82F30072BF0D9494B0322DA76052387F82F300AE097F869
:4036C0002F30454A13440922DA7697F82F30013387F82F3097F82F30072BF0D90120072104F0C2FB3F4B02225A703D4B06221A70ADE2ACE2374B1B7887F82F3018E097F8DE
:403700002F30344A1278D2B2114697F82F208A1A01322F498A5CD2B23032D1B22E4A13440A4683F8592097F82F30013B87F82F3097F82F30002BE2D1294B02221A700120A1
:40374000052104F091FB234B00221A70274B04221A70274B0A221A70264B02221A80264B03221A80254B01221A8070E2194B1B7887F82F3018E097F82F30164A1278D2B238
:40378000114697F82F208A1A013211498A5CD2B23032D1B2104A13440A4683F8642097F82F30013B87F82F3097F82F30002BE2D10B4B66221A700120392104F055FB094B05
:4037C00010225A7043E2034B1B7887F82F3030E03086FF1F3F85FF1FDC86FF1F000014405685FF1F5886FF1F4F86FF1FD782FF1F0884FF1FB686FF1FDC82FF1F0084FF1FCE
:4038000097F82F30AF4A1278D2B2114697F82F208A1A0132AC498A5CD2B23032D1B2AB4A13440A4683F8712097F82F30013B87F82F3097F82F30002BE2D1A54B1A78A34B57
:4038400093F875309A4223D1A14B5A789F4B93F874309A421CD19E4B9A789C4B93F873309A4215D19A4BDA78984B93F872309A420ED10120262104F0F7FAC82004F0E8FFC4
:403880000120462104F0F0FA924B10221A70DEE1904B00221A700120272104F0E5FA8E4B01225A70C82004F0D3FF0120002104F0DBFACCE1834B1B78DBB21A46824B9B5C49
:4038C000DBB218461E2106F0F1FC824B00221A7001203C2104F0C8FAC82004F0B9FF7E4B01225A70B3E17B4B12221A700120582104F0BAFA794B1B78013B032B00F298809F
:4039000001A252F823F000BF193900005F390000A5390000EB3900006B4B5B78DBB23033DAB26F4B1A706E4B1B78322B08D0332B0BD0312B0ED1684B012283F859200DE0E7
:40394000654B012283F85A2008E0634B012283F85B2003E0634B00221A7000BF68E05A4B5B78DBB23033DAB25D4B5A705C4B5B78322B08D0332B0BD0312B0ED1564B02223E
:4039800083F859200DE0544B022283F85A2008E0514B022283F85B2003E0534B00221A7000BF45E0484B5B78DBB23033DAB24C4B9A704B4B9B78322B08D0332B0BD0312BC9
:4039C0000ED1454B032283F859200DE0424B032283F85A2008E0404B032283F85B2003E0424B00221A7000BF22E0374B5B78DBB23033DAB23A4BDA70394BDB78322B08D094
:403A0000332B0BD0312B0ED1334B042283F859200DE0314B042283F85A2008E02E4B042283F85B2003E0324B00221A7000BF00BF2B4B1A78012300930120114607222C2340
:403A400004F05EFA264B5A7801230093012011460E222C2304F054FA214B9A78012300930120114613222C2304F04AFA1C4BDA78012300930120114619222C2304F040FABE
:403A8000154B01225A70C82004F0E2FEDFE0012387F82F3009E097F82F30164A0021D15497F82F30013387F82F3097F82F30042BF1D9104B04221A70024B1B7887F82F300F
:403AC00030E000BF3F85FF1F3086FF1FDC86FF1F4481FF1F5685FF1F5886FF1F8187FF1FBC82FF1F4881FF1F4981FF1F4A81FF1F4B81FF1F2C85FF1F97F82F30904A1278A4
:403B0000D2B2114697F82F208A1A01328D498A5CD2B23032D1B28C4AD15497F82F30013B87F82F3097F82F30002BE5D1864B5B78DBB22F2B17D9844B9B78DBB22F2B12D8D0
:403B4000814BDB78DBB22F2B0DD87F4B1B79DBB22F2B08D87C4B30229A707B4B3022DA70794B30221A71784B5B78DBB22F2B14D9754B9B78DBB22F2B0FD9734BDB78DBB265
:403B80002F2B0AD8704B1B79DBB22F2B05D86E4B3022DA706C4B30221A716B4B5B78DBB22F2B11D9684B9B78DBB22F2B0CD9664BDB78DBB22F2B07D9634B1B79DBB22F2BED
:403BC00002D8614B30221A71082387F82F3011E097F82F30083B5C4AD35CDAB297F82F309BB21046194606F061FB97F82F30013387F82F3097F82F300C2BE9D9534B1B787C
:403C0000DBB2012B12D1524B0C221A70514B02221A7001200E2104F027F9C82004F018FE474B00221A704C4B01225A70474B1B78DBB2002B0AD1464B06221A7001200721ED
:403C400004F012F9444B02225A70FFE700BF05F0ADFD424B1B78DBB2022B40F0998505F05DFD0346082B40F093853D4B1B78DBB2AA2B40F089853A4B9B79DBB2C32B40F04A
:403C80008385374BDB79DBB23C2B40F07D85354B00221A702A4B1B78DAB2334B1B78DBB29A4280F0D9802E4BDB78DBB2092B32D8234B1B78DBB20133DAB2214B1A70204BB7
:403CC0001B78DBB21A46264BDB78D9B21D4B9954234BDB78DBB23033D9B2244B1B889DB2174B1B78DBB29BB2214A128892B2013292B202FB03F39AB21E4B1B889BB2134485
:403D00009CB21B4B1B889BB2DBB2009301202A46234604F0F5F8124BDB78DBB20A2B58D10C4B1B78DBB2012B26D1054B1B78DBB2012B21D1034B5B78DBB2002B1CD148E033
:403D40003F85FF1F3086FF1F2C85FF1F5585FF1F5685FF1FD782FF1F5886FF1F4F86FF1F788EFF1F2885FF1F0884FF1FDC82FF1F0084FF1FB686FF1FAF4B1B78DBB2013308
:403D8000DAB2AD4B1A70AC4B1B78DBB21A46AB4B00219954AA4B1B889DB2A74B1B78DBB29BB2A84A128892B2013292B202FB03F39AB2A54B1B889BB213449CB2A14B1B889A
:403DC0009BB2DBB20093012030212A46234604F097F89E4BDB78DBB2512B3DD1964B1B78DBB2002B38D09A4B1B78DBB2002B33D1914B1B78DBB20133DAB28F4B1A708E4BD4
:403E00001B78DBB21A46934B1B78D9B28B4B9954904B1B78D9B28A4B1B889DB2864B1B78DBB29BB2874A128892B2013292B202FB03F39AB2844B1B889BB213449CB2814BB0
:403E40001B889BB2DBB2009301202A46234604F057F87F4B01221A707C4BDB78DBB20B2B40F0A080744B1B78DBB2002B5ED17A4B1B78DBB2013B072B00F2948001A252F8D2
:403E800023F000BFA53E0000B53E0000BD3E0000D33E0000E93E0000FF3E0000A53F0000153F00000120052103F0DEFF6B4B04221A703AE0694B00221A7036E00120002163
:403EC00003F0D2FF654B00221A70654B01225A702BE00120002103F0C7FF604B00221A705F4B01225A7020E00120002103F0BCFF5A4B00221A705A4B01225A7015E0012028
:403F0000002103F0B1FF554B00221A70544B01225A700AE00120002103F0A6FF4F4B00221A704F4B01225A7000BF3BE0444B1B889DB2414B1B78DBB29BB2424A128892B296
:403F4000013292B202FB03F39AB23F4B1B889BB213449CB23B4B1B889BB2DBB20093012020212A46234603F0CBFF334B1B78DBB21A46324B9B5CDAB2364B1B78DBB29A4263
:403F800002D1334B00221A702B4B1B78DBB21A462A4B00219954284B1B78DBB2013BDAB2254B1A70294BDB78DBB20C2B40F0EC83294B1B78DBB2013B072B00F2E58301A20D
:403FC00052F823F0E53F00007941000055420000CD420000274300001544000047440000EF450000002387F82F300CE097F82F3007F130021344002203F82C2C97F82F309F
:40400000013387F82F3097F82F30072BEED90A4B1B78DBB2002B00F0AE80074B1B78DBB21A46064B9B5CDBB22C2B00F0A480012387F82F303FE000BF3F85FF1F3086FF1F21
:40404000DC82FF1F0084FF1FB686FF1F788EFF1F5782FF1FB582FF1FD782FF1F5685FF1F5882FF1F97F82F30B14AD35CDBB22C2B0FD097F82F30013B97F82F20AC498A5C32
:40408000D2B23032D2B207F130010B4403F82C2C0CE097F82F30013B97F82F20A4498A5CD2B207F130010B4403F82C2C97F82F30013387F82F309F4B1B78DBB297F82F20CD
:4040C0009A42CFD93B1D184606F0D2FCC7E90801994BDB7E012B09D1D7E908014FF00002964B06F0B1FC0346002B1AD1924BDB7E022B40D1D7E908014FF000028F4B06F08B
:4041000099FC0346002B00D13EE3D7E908014FF000024FF0000306F0A1FC0346002B00D132E3844B1B7887F82F3015E097F82F30804A1278D2B2114697F82F208A1A013244
:404140007B498A5CD1B27C4A13440A46DA7697F82F30013B87F82F3097F82F30002BE5D1774B05221A70774B02225A700120072103F07AFE08E307E3002387F82F300BE0E6
:4041800097F82F306C4A1344002283F8432097F82F30013387F82F3097F82F300A2BEFD9644B1B7887F82F3016E097F82F30614A1278D2B2114697F82F208A1A01325C49AB
:4041C0008A5CD1B25C4A13440A4683F8432097F82F30013B87F82F3097F82F30002BE4D1594B1B78DBB2022B33D1002387F82F300AE097F82F30504A13440022DA7697F895
:404200002F30013387F82F3097F82F30072BF0D9494B0322DA76052387F82F300AE097F82F30454A13440922DA7697F82F30013387F82F3097F82F30072BF0D901200721AA
:4042400003F012FE3F4B02225A703D4B06221A709AE299E2374B1B7887F82F3018E097F82F30344A1278D2B2114697F82F208A1A01322F498A5CD2B23032D1B22E4A13448B
:404280000A4683F8592097F82F30013B87F82F3097F82F30002BE2D1294B02221A700120052103F0E1FD234B00221A70274B04221A70274B0A221A70264B02221A80264BA8
:4042C00003221A80254B01221A805DE2194B1B7887F82F3018E097F82F30164A1278D2B2114697F82F208A1A013211498A5CD2B23032D1B2104A13440A4683F8642097F826
:404300002F30013B87F82F3097F82F30002BE2D10B4B66221A700120392103F0A5FD094B10225A7030E2034B1B7887F82F3030E03086FF1F3F85FF1F5885FF1F000014408A
:404340005685FF1F5882FF1F4F86FF1FD782FF1F0884FF1FB686FF1FDC82FF1F0084FF1F97F82F30AF4A1278D2B2114697F82F208A1A0132AC498A5CD2B23032D1B2AB4A86
:4043800013440A4683F8712097F82F30013B87F82F3097F82F30002BE2D1A54B1A78A34B93F875309A4223D1A14B5A789F4B93F874309A421CD19E4B9A789C4B93F8733056
:4043C0009A4215D19A4BDA78984B93F872309A420ED10120262103F047FDC82004F038FA0120462103F040FD924B10221A70CBE1904B00221A700120272103F035FD8E4B61
:4044000001225A70C82004F023FA0120002103F02BFDB9E1834B1B78DBB21A46824B9B5CDBB218461E2105F041FF824B00221A7001203C2103F018FDC82004F009FA7E4B87
:4044400001225A70A0E17B4B12221A700120582103F00AFD794B1B78013B032B00F2988001A252F823F000BF79440000BF440000054500004B4500006B4B5B78DBB2303319
:40448000DAB26F4B1A706E4B1B78322B08D0332B0BD0312B0ED1684B012283F859200DE0654B012283F85A2008E0634B012283F85B2003E0634B00221A7000BF68E05A4B20
:4044C0005B78DBB23033DAB25D4B5A705C4B5B78322B08D0332B0BD0312B0ED1564B022283F859200DE0544B022283F85A2008E0514B022283F85B2003E0534B00221A70AF
:4045000000BF45E0484B5B78DBB23033DAB24C4B9A704B4B9B78322B08D0332B0BD0312B0ED1454B032283F859200DE0424B032283F85A2008E0404B032283F85B2003E014
:40454000424B00221A7000BF22E0374B5B78DBB23033DAB23A4BDA70394BDB78322B08D0332B0BD0312B0ED1334B042283F859200DE0314B042283F85A2008E02E4B04227E
:4045800083F85B2003E0324B00221A7000BF00BF2B4B1A78012300930120114607222C2303F0AEFC264B5A7801230093012011460E222C2303F0A4FC214B9A780123009376
:4045C0000120114613222C2303F09AFC1C4BDA78012300930120114619222C2303F090FC1C4B01225A70C82004F032F9CCE0012387F82F3009E097F82F30174A0021D154BE
:4046000097F82F30013387F82F3097F82F30042BF1D9114B04221A70024B1B7887F82F3032E000BF3F85FF1F3086FF1FDC86FF1F4481FF1F5685FF1F5882FF1F8187FF1FC8
:40464000BC82FF1F4881FF1F4981FF1F4A81FF1F4B81FF1F5886FF1F2C85FF1F97F82F30884A1278D2B2114697F82F208A1A013285498A5CD2B23032D1B2844AD15497F8F8
:404680002F30013B87F82F3097F82F30002BE5D17E4B5B78DBB22F2B17D97C4B9B78DBB22F2B12D8794BDB78DBB22F2B0DD8774B1B79DBB22F2B08D8744B30229A70734BBB
:4046C0003022DA70714B30221A71704B5B78DBB22F2B14D96D4B9B78DBB22F2B0FD96B4BDB78DBB22F2B0AD8684B1B79DBB22F2B05D8664B3022DA70644B30221A71634B25
:404700005B78DBB22F2B11D9604B9B78DBB22F2B0CD95E4BDB78DBB22F2B07D95B4B1B79DBB22F2B02D8594B30221A71082387F82F3011E097F82F30083B544AD35CDAB288
:4047400097F82F309BB21046194605F0AFFD97F82F30013387F82F3097F82F300C2BE9D94B4B0C221A704B4B02221A7001200E2103F07AFBC82004F06BF8424B00221A70FF
:40478000454B01225A7000BF05F010F801F0F8B901F0F6B9414B1B78DBB2012B40F0D1823F4B4D221A703E4B55225A703C4B58229A703B4B3122DA70394B31221A71394BC2
:4047C0005B7E013B384A134493F85930DBB23033DAB2334B5A71334B5B7D3033DAB2304B9A71304B1B7D3033DAB22D4BDA712D4BDB7C3033DAB22A4B1A72294B2C225A7215
:40480000284B9B7C3033DAB2254B9A72254B5B7C3033DAB2224BDA72224B1B7C3033DAB21F4B1A73214B5B78DBB2072B40D11D4B9B7B3033DAB21A4B5A731A4B5B7B30335E
:40484000DAB2174B9A73174B1B7B3033DAB2144BDA73144BDB7A3033DAB2114B1A74114B9B7A3033DAB20E4B5A740E4B5B7A3033DAB20B4B9A740B4B1B7A3033DAB2084BE8
:40488000DA743FE03F85FF1F3086FF1F2C85FF1F5685FF1FD782FF1F5882FF1F4F86FF1F6084FF1FDC86FF1F5886FF1FD882FF1F664B5B7B3033DAB2654B5A73634B1B7B7E
:4048C0003033DAB2624B9A73604BDB7A3033DAB25F4BDA735D4B9B7A3033DAB25C4B1A745A4B5B7A3033DAB2594B5A74574B1B7A3033DAB2564B9A74544BDB793033DAB2B6
:40490000534BDA74534B1B78DBB2002B1DD14F4B9B793033DAB24E4B1A754C4B5B793033DAB24B4B5A75494B1B793033DAB2484B9A75464BDB783033DAB2454BDA75434B37
:404940009B783033DAB2424B1A76424B1B78DBB2012B1AD13D4B5B793033DAB23C4B1A753A4B1B793033DAB2394B5A75374BDB783033DAB2364B9A75344B9B783033DAB2C3
:40498000334BDA75324B30221A76334B1B79DAB22F4B5A76304BDB78DAB22D4B9A762E4B9B78DAB22A4BDA762B4B5B78DAB2284B1A772A4B1B78012B43D1002387F82F3002
:4049C0003AE097F82F305B08DBB21A461F4B134493F823301B0987F82E3097F82F3003F00103DBB2002B0CD197F82F305B08DBB21A46164B134493F8233003F00F0387F8ED
:404A00002E3097F82F301D3397F82E203032D1B20F4AD15497F82E30092B08D997F82F301D3397F82E203732D1B2094AD15497F82F30013387F82F3097F82F300F2BC0D958
:404A40004DE0002387F82F3045E000BFDC86FF1F6084FF1F3E85FF1F2C85FF1F0284FF1F97F82F305B08DBB21A467D4B134493F823301B0987F82E3097F82F3003F001032D
:404A8000DBB2002B0CD197F82F305B08DBB21A46734B134493F8233003F00F0387F82E3097F82F301D3397F82E203032D1B26D4AD15497F82E30092B08D997F82F301D3332
:404AC00097F82E203732D1B2664AD15497F82F30013387F82F3097F82F300F2BC0D9624B1B8801339AB2604B1A805F4B1B885F4AA2FB03239B099BB2DBB23033DAB25C4B75
:404B00001A71594B1B88594AA2FB031292094FF47A7101FB02F29B1A9BB2564AA2FB03235B099BB2DBB23033DAB2514BDA704E4B1B884E4AA2FB031292094FF47A7101FBD2
:404B400002F29B1A9BB24B4AA2FB03125209642101FB02F29B1A9BB2474AA2FB0323DB089BB2DBB23033DAB2414B9A703E4B1B883E4AA2FB031292094FF47A7101FB02F271
:404B80009B1A9BB23B4AA2FB03125209642101FB02F29B1A9AB2384BA3FB0213D9080B469B000B445B00D31A9BB2DBB23033DAB22F4B5A70012387F82F300EE097F82F3066
:404BC0002C3397F82F202A498A5CD1B2254AD15497F82F30013387F82F3097F82F30072BECD9012387F82F3010E097F82F30204AD35CDAB297F82F309BB21046194605F039
:404C000055FB97F82F30013387F82F3097F82F30042BEAD9002387F82F3012E097F82F30343397F82F2001320D490A4492F843203032D1B20B4AD15497F82F30013387F85A
:404C40002F3097F82F30062BE8D9064B2A2283F83B2004F04DF9002387F82F301AE000BFDC86FF1F6084FF1FBA82FF1FD34D62103485FF1F1F85EB51CDCCCCCC97F82F304A
:404C80006C4AD35C184604F071F997F82F30013387F82F3097F82F303B2BEFD904F028F94FF4967003F0D4FD04F07AF9624B00221A70624B5B7E5A1E614913469B00134462
:404CC0000B4448339B78DBB23B735C4B5B7E5A1E5B4913469B0013440B4449339B78DBB27B73564B5B7E5A1E554913469B0013440B444A339B78DBB2BB73504B5B7E5A1EFB
:404D00004F4913469B0013440B444B339B78DBB2FB734A4B5B7E5A1E494913469B0013440B444C339B78DBB23B74454B1B78D9B2424B5B7E07F10C02084611461A4601F0C5
:404D40000BFF404B1B78DBB2022B40F0BF82394B4D221A70374B55225A70364B58229A70344B3122DA70334B32221A71364B5B7E013B364A134493F85930DBB23033DAB225
:404D80002C4B5A71304B5B7D3033DAB2294B9A712D4B1B7D3033DAB2264BDA712A4BDB7C3033DAB2234B1A72224B2C225A72264B9B7C3033DAB21F4B9A72234B5B7C303364
:404DC000DAB21C4BDA72204B1B7C3033DAB2194B1A731F4B5B78DBB2072B3BD11A4B9B7B3033DAB2134B5A73174B5B7B3033DAB2104B9A73144B1B7B3033DAB20D4BDA73DD
:404E0000114BDB7A3033DAB20A4B1A740E4B9B7A3033DAB2074B5A740B4B5B7A3033DAB2044B9A74084B1B7A3033DAB2014BDA743AE000BF6084FF1F5686FF1FDC86FF1F35
:404E40005886FF1F4F86FF1F5885FF1F5882FF1FD882FF1F664B5B7B3033DAB2654B5A73634B1B7B3033DAB2624B9A73604BDB7A3033DAB25F4BDA735D4B9B7A3033DAB266
:404E80005C4B1A745A4B5B7A3033DAB2594B5A74574B1B7A3033DAB2564B9A74544BDB793033DAB2534BDA74534B1B78DBB2002B1DD14F4B9B793033DAB24E4B1A754C4B0C
:404EC0005B793033DAB24B4B5A75494B1B793033DAB2484B9A75464BDB783033DAB2454BDA75434B9B783033DAB2424B1A76424B1B78DBB2012B1AD13D4B5B793033DAB263
:404F00003C4B1A753A4B1B793033DAB2394B5A75374BDB783033DAB2364B9A75344B9B783033DAB2334BDA75324B30221A76334B1B79DAB22F4B5A76304BDB78DAB22D4B45
:404F40009A762E4B9B78DAB22A4BDA762B4B5B78DAB2284B1A772A4B1B78012B43D1002387F82F303AE097F82F305B08DBB21A461F4B134493F823301B0987F82E3097F89B
:404F80002F3003F00103DBB2002B0CD197F82F305B08DBB21A46164B134493F8233003F00F0387F82E3097F82F301D3397F82E203032D1B20F4AD15497F82E30092B08D9D0
:404FC00097F82F301D3397F82E203732D1B2094AD15497F82F30013387F82F3097F82F300F2BC0D94DE0002387F82F3045E000BF5885FF1F6084FF1F3E85FF1F2C85FF1FB2
:405000000284FF1F97F82F305B08DBB21A46B04B134493F823301B0987F82E3097F82F3003F00103DBB2002B0CD197F82F305B08DBB21A46A64B134493F8233003F00F037A
:4050400087F82E3097F82F301D3397F82E203032D1B2A04AD15497F82E30092B08D997F82F301D3397F82E203732D1B2994AD15497F82F30013387F82F3097F82F300F2B0B
:40508000C0D9954B1B8801339AB2934B1A80924B1B88924AA2FB03239B099BB2DBB23033DAB28F4B1A718C4B1B888C4AA2FB031292094FF47A7101FB02F29B1A9BB2894A5B
:4050C000A2FB03235B099BB2DBB23033DAB2844BDA70814B1B88814AA2FB031292094FF47A7101FB02F29B1A9BB27E4AA2FB03125209642101FB02F29B1A9BB27A4AA2FB53
:405100000323DB089BB2DBB23033DAB2744B9A70714B1B88714AA2FB031292094FF47A7101FB02F29B1A9BB26E4AA2FB03125209642101FB02F29B1A9AB26B4BA3FB0213A9
:40514000D9080B469B000B445B00D31A9BB2DBB23033DAB2624B5A70012387F82F300EE097F82F302C3397F82F205D498A5CD1B2584AD15497F82F30013387F82F3097F80B
:405180002F30072BECD9012387F82F3010E097F82F30534AD35CDAB297F82F309BB21046194605F083F897F82F30013387F82F3097F82F30042BEAD9002387F82F3012E02E
:4051C00097F82F30343397F82F20013240490A4492F843203032D1B23E4AD15497F82F30013387F82F3097F82F30062BE8D9394B2A2283F83B2003F07BFE002387F82F3000
:405200000BE097F82F30334AD35C184603F0AEFE97F82F30013387F82F3097F82F303B2BEFD903F065FE4FF4967003F011FB03F0B7FE2E4B00221A70254B5B7E5A1E2C492F
:4052400013469B0013440B4448339B78DBB23B731F4B5B7E5A1E264913469B0013440B4449339B78DBB27B73194B5B7E5A1E204913469B0013440B444A339B78DBB2BB73FA
:40528000134B5B7E5A1E1A4913469B0013440B444B339B78DBB2FB730D4B5B7E5A1E144913469B0013440B444C339B78DBB23B74104B1B78D9B2064B5B7E07F10C02084651
:4052C00011461A4601F048FC00F05ABC00F058BC5885FF1F6084FF1FBA82FF1FD34D62103485FF1F1F85EB51CDCCCCCC5686FF1F5886FF1F5882FF1F04F010FA0346082B7F
:4053000040F00A81A04B1B78DBB2AA2B40F0FE809D4B9B79DBB2C32B40F0F8809A4BDB79DBB23C2B40F0F280984B1B78DAB2984B1B78DBB29A426CD2934BDB78DBB2092B25
:4053400033D8924B1B78DBB201338F4AD278D2B23032D1B28F4A13440A4683F864208E4B1B889DB2894B1B78DBB29BB28B4A128892B2013292B202FB03F39AB2884B1B88FB
:405380009BB213449CB2854B1B889BB2DBB2009301202A212A46234602F0B2FD7B4B1B78DBB20133DAB2794B1A70774BDB78DBB20A2B2ED1754B1B78DBB20133754A134441
:4053C000302283F86420744B1B889DB26F4B1B78DBB29BB2714A128892B2013292B202FB03F39AB26E4B1B889BB213449CB26B4B1B889BB2DBB2009301202A212A462346DC
:4054000002F07EFD614B1B78DBB20133DAB25F4B1A705D4BDB78DBB20B2B2ED15C4B1B78DBB2002B03D15F4B00221A7025E0574B1B78DBB2013BDAB2544B1A70564B1B886A
:405440009DB2524B1B78DBB29BB2544A128892B2013292B202FB03F39AB2514B1B889BB213449CB24D4B1B889BB2DBB20093012020212A46234602F043FD434BDB78DBB2ED
:405480000C2B43D1414B1B78DBB2002B3ED03F4B1B78DAB23F4B83F86420002387F82E303C4B93F86430042B2DD1012387F82F3015E097F82F30374A134493F8642097F85C
:4054C0002F303949CB5C9A4204D197F82E30013387F82E3097F82F30013387F82F3097F82F30042BE5D997F82E30042B07D12D4B0F221A7001205D2102F0B6FC06E0294B56
:4055000000221A7002E0274B00221A70642003F09FF904F04BF933E332E304F0FFF80346082B40F09680184B1B78DBB2AA2B40F09080154B9B79DBB2C32B40F08A80124B82
:40554000DB79DBB23C2B40F084800F4BDB78DBB2B92B04D0BA2B57D07E2B72D010E3134B4D221A70114B55225A70104B58229A700E4B3322DA700D4B2A221A7103F0B8FC32
:40558000002387F82F301FE0788EFF1F3F85FF1F0884FF1FDC86FF1FDC82FF1F0084FF1FB686FF1F5685FF1F2881FF1F6084FF1F97F82F30BA4AD35C184603F0D7FC97F8AD
:4055C0002F30013387F82F3097F82F30042BEFD9962003F03DF90120002102F045FCB14B00221A70B04B1B78DBB2012B02D1AF4B01225A70AC4B1B78DBB2022B03D1AC4B49
:4056000001225A7025E024E001202F2102F02CFCA84B05221A70A84B00221A70A74B2C221A70A74B04221A70A64B04221A80A64B03221A80A54B01221A809A4B0C221A708F
:4056400007E001204A2102F00FFC964B00221A7000BF95E204F062F80346082B40F04A819B4B1B78DBB2AA2B40F03E81984B9B79DBB2C32B40F03881954BDB79DBB23C2BE5
:4056800040F03281924BDB78DBB2802B5ED0802B05DC7E2B00F020817F2B07D024E1812B00F09F80C22B00F0E7801DE17C4B4D221A707B4B55225A70794B58229A70784B56
:4056C0003622DA70764B2A221A7103F011FC002387F82F300BE097F82F30714AD35C184603F044FC97F82F30013387F82F3097F82F30042BEFD9962003F0AAF8754B1B7898
:40570000DBB2012B04D0734B1B78DBB2042B04D101202E2102F0A8FB03E00120152102F0A3FB604B00221A705F4B1B78DBB2012B02D15E4B01225A705B4B1B78DBB2022B82
:4057400003D15B4B01225A70CEE0CDE0544B4D221A70534B55225A70514B58229A70504B3622DA704E4B2A221A7103F0C1FB002387F82F300BE097F82F30494AD35C18467A
:4057800003F0F4FB97F82F30013387F82F3097F82F30042BEFD9962003F05AF84D4B1B78DBB2012B04D101202E2102F05DFB03E00120152102F058FB3A4B00221A703A4B7F
:4057C0001B78DBB2012B02D1384B01225A70364B1B78DBB2022B03D1354B01225A7083E082E02F4B4D221A702D4B55225A702C4B58229A702A4B3622DA70294B2A221A71BD
:4058000003F076FB002387F82F300BE097F82F30234AD35C184603F0A9FB97F82F30013387F82F3097F82F30042BEFD9962003F00FF8284B1B78DBB2012B04D101202E2100
:4058400002F012FB03E00120152102F00DFB154B00221A70144B1B78DBB2012B02D1134B01225A70104B1B78DBB2022B03D1104B01225A7038E037E001206E2102F0F4FA9D
:40588000104B04221A80104B03221A800F4B01221A80044B0B221A70064B0A221A7023E06084FF1F5685FF1F4F86FF1F5886FF1F5882FF1FD782FF1F3F85FF1FB582FF1FFC
:4058C0000884FF1FB686FF1FDC82FF1F0084FF1F788EFF1F8287FF1F01204A2102F0C4FAA94B00221A7000BF642002F0B1FF03F05DFF45E144E103F011FF0346082B4AD146
:40590000A24B1B78DBB2AA2B3FD1A04B9B79DBB2C32B3AD19D4BDB79DBB23C2B35D19B4BDB78DBB28F2B04D0902B14D07E2B24D02BE00020172104F0B9FC934B00221A7094
:4059400001203C2102F090FAC82002F081FF904B01225A7019E00120172104F0A7FC8A4B00221A7001203C2102F07EFAC82002F06FFF874B01225A7007E001204A2102F04D
:4059800073FA814B00221A7000BF642002F060FF03F00CFFF4E0F3E07E4B4D221A707D4B55225A707B4B58229A707A4B3522DA70794B1B78DBB2012B65D1002387F82F3007
:4059C0003AE097F82F305B08DBB21A46734B134493F823301B0987F82E3097F82F3003F00103DBB2002B0CD197F82F305B08DBB21A466A4B134493F8233003F00F0387F835
:405A00002E3097F82F30043397F82E203032D1B2604AD15497F82E30092B08D997F82F30043397F82E203732D1B25A4AD15497F82F30013387F82F3097F82F300F2BC0D9D8
:405A4000544B2A221A7503F053FA002387F82F300BE097F82F304F4AD35C184603F086FA97F82F30013387F82F3097F82F30142BEFD90120002102F0F7F9434B00221A70A6
:405A8000434B01225A70444B1B78DBB2022B66D1002387F82F303AE097F82F305B08DBB21A463F4B134493F823301B0987F82E3097F82F3003F00103DBB2002B0CD197F836
:405AC0002F305B08DBB21A46354B134493F8233003F00F0387F82E3097F82F30043397F82E203032D1B22B4AD15497F82E30092B08D997F82F30043397F82E203732D1B2EF
:405B0000244AD15497F82F30013387F82F3097F82F300F2BC0D91F4B2A221A7503F0E8F9002387F82F300BE097F82F30194AD35C184603F01BFA97F82F30013387F82F3026
:405B400097F82F30142BEFD90120002102F08CF90D4B00221A70134B01225A7010E00FE0114B1B78DBB2032B09D9074B00221A7004F072F804F038F90B4B00221A7000BF7B
:405B80003037BD46B0BD00BF5685FF1F788EFF1F5886FF1F6084FF1F4F86FF1FDC86FF1F5885FF1F5882FF1F2885FF1F80B500AF04F04EF9184B1B78DBB2012B24D1174BDE
:405BC0001B78DBB2062B11D8144B1B78DBB20133DAB2124B1A70114B1B78DBB29BB214339BB20120194602F03FF914E00B4B00221A700A4B1B78DBB29BB214339BB20120D1
:405C0000194602F031F906E0044B1B78DBB20133DAB2024B1A7080BD5685FF1F2885FF1F80B500AF04F0D4F9184B1B78DBB2012B24D1174B1B78DBB2062B11D8144B1B7825
:405C4000DBB20133DAB2124B1A70114B1B78DBB29BB214339BB20220194602F005F914E00B4B00221A700A4B1B78DBB29BB214339BB20220194602F0F7F806E0044B1B78AC
:405C8000DBB20133DAB2024B1A7080BD0384FF1FC082FF1F80B500AFFAF7F4F9FAF734FB0320002102F008FE02F04CFEFBF772FA02F048FEFAF7C0FCF6E700BF80B500AF61
:405CC00004F0B8FA014B01221A7080BD8387FF1F80B584B000AF0346FB7102F08BFFFB79184602F0C5FF1E4803F036FC04F05EFA1C4B00221A700A2002F0AAFD0BE0194BD3
:405D00001B78012B07D103F039FC04F05FFA02F071FF002320E002F023FF0346002BEED002F0D4FE0346FB73FB7B03F00F02FB799A420AD1FB7B1B09FB7302F05BFF03F025
:405D40001DFC04F043FAFB7B06E002F053FF03F015FC04F03BFA002318461037BD4680BDBD5C00008387FF1F80B582B000AF244BFF221A70234BFF221A70052002F068FDFE
:405D80000020FFF7A5FF0346002B02D01D4B00221A700123FB711FE0052002F059FDFB791846FFF795FF0346002B12D0144B1B78DBB2FF2B03D1124AFB79137009E0114B0C
:405DC0001B78DBB2FF2B04D10E4AFB791370012312E0FB790133FB71FB790F2BDCD9084B1B78DBB2FF2B06D0064B1B78DBB2FF2B01D0012300E0002318460837BD4680BDC5
:405E00005886FF1F5882FF1F90B58BB000AF0346FB71594A07F108031068516803C3127A1A7002F0E7FEFB7943F02003DBB2184602F01EFF514803F08FFB04F0B7F9504BE7
:405E400000221A700BE04E4B1B78012B07D103F095FB04F0BBF902F0CDFE002388E002F07FFE0346002BEED003F088FB04F0AEF902F02CFE03461A46FB7963F02F03DBB2EB
:405E80009A4274D102F0B6FE052002F0E1FC002387F827300EE097F8273007F12802134413F8203C184602F0E3FE97F82730013387F8273097F82730082BECD92F4803F011
:405EC0004BFB04F073F92E4B00221A700BE02C4B1B78012B07D103F051FB04F077F902F089FE002344E002F03BFE0346132BEED103F044FB04F06AF9002387F827300FE099
:405F000097F8274002F0E2FD03461A4607F12803234403F8142C97F82730013387F8273097F82730122BEBD902F064FE3B7DBA2B1BD197F825308D2B17D197F826308A2B5A
:405F400013D197F82030B12B0FD197F82230B22B05D0B32B05D0B12B05D1012308E0022306E0032304E0002302E0002300E0002318462C37BD4690BD28CF0000BD5C00003D
:405F80008387FF1F80B584B000AF0346FB7102F031FEFB7943F04003DBB2184602F068FE4FF4967002F054FCAB4B5B78DBB2072B00F0BC8002F0D4FD0346212B40F0B680A1
:405FC000A64B1B78DBB2FF2B40F0AE80A34B9B78DBB2F82B40F0A880A04B93F82030DBB2F02B40F0A1809E4B1B78DBB2FA799A424CD19A4B5B7ADBB203F00F03DBB20133BE
:40600000DAB2984B5A760023FB730FE0FB7BFA7B0C3292498A5CD2B202F00F02D1B2914A13440A469A70FB7B0133FB73FB7B032BECD90023FB730FE0FB7BFA7B1132874922
:406040008A5CD2B202F00F02D1B2864A13440A461A74FB7B0133FB73FB7B052BECD90023FB730FE0FB7BFA7B18327C498A5CD2B202F00F02D1B27B4A13440A46DA71FB7B11
:406080000133FB73FB7B052BECD94BE0734B5B7ADBB203F00F03DBB20133DAB2724B5A760023FB730FE0FB7BFA7B0C326B498A5CD2B202F00F02D1B26B4A13440A469A70F6
:4060C000FB7B0133FB73FB7B032BECD90023FB730FE0FB7BFA7B113260498A5CD2B202F00F02D1B2604A13440A461A74FB7B0133FB73FB7B052BECD90023FB730FE0FB7B80
:40610000FA7B183255498A5CD2B202F00F02D1B2554A13440A46DA71FB7B0133FB73FB7B052BECD90123CFE00023CDE04A4B5B78DBB2072B40F0C78002F012FD0346272B21
:4061400040F0C180454B1B78DBB2FF2B40F0B980424B9B78DBB2F82B40F0B3803F4B93F82630DBB2F02B40F0AC803D4B1B78DBB2FA799A424CD1394B5B7ADBB203F00F034A
:40618000DBB20133DAB2374B5A760023FB730FE0FB7BFA7B0C3231498A5CD2B202F00F02D1B2304A13440A469A70FB7B0133FB73FB7B052BECD90023FB730FE0FB7BFA7B14
:4061C000133226498A5CD2B202F00F02D1B2254A13440A461A74FB7B0133FB73FB7B072BECD90023FB730FE0FB7BFA7B1C321B498A5CD2B202F00F02D1B21A4A13440A46BA
:40620000DA71FB7B0133FB73FB7B072BECD956E0124B5B7ADBB203F00F03DBB20133DAB2114B5A760023FB730FE0FB7BFA7B0C320A498A5CD2B202F00F02D1B20A4A134484
:406240000A469A70FB7B0133FB73FB7B052BECD90023FB731AE000BFD882FF1F8487FF1F5886FF1FDC86FF1F5885FF1FFB7BFA7B133217498A5CD2B202F00F02D1B2154A00
:4062800013440A461A74FB7B0133FB73FB7B072BECD90023FB730FE0FB7BFA7B1C320C498A5CD2B202F00F02D1B20A4A13440A46DA71FB7B0133FB73FB7B072BECD9012337
:4062C00002E0002300E0002318461037BD4680BD8487FF1F5885FF1F80B588B000AF3A601A460346FB710B46BB7113467B7107F1080300221A60043300221A600433002235
:406300001A60043300221A60043300221A8002330423BB777B79032B01D102237B71B34B5B78DBB2052B04D0B04B5B78DBB2062B04D17B79012B01D10323BB77AB4B5B78B4
:40634000DBB2052B04D17B79022B01D10523BB77A64B5B78DBB2072B04D17B79012B01D10023BB77A14B5B78DBB2072B04D17B79022B01D10223BB7700233B7701237B7717
:406380000AE07B7F3A6813441B782C2B01D17B7F3B777B7F01337B777B7F072BF1D93B7F042B01D90023CFE3904B5B78DBB2072B00F00582FF233B72BB7F63F01F03DBB2FB
:4063C0007B727B7963F00F03DBB2BB72F423FB72F8233B733B6801331B7863F01F03DBB27B733B6802331B7863F01F03DBB2BB733B6803331B7863F01F03DBB2FB733B68DC
:4064000004331B7863F01F03DBB23B743B6805331B7863F01F03DBB27B743B6806331B7863F01F03DBB2BB74704B9B78DBB2022B40F0A5803B7F042B29D13B6802331B78B7
:4064400063F01F03DBB27B733B6803331B7863F01F03DBB2BB733B6805331B7863F01F03DBB2FB733B6806331B7863F01F03DBB23B743B6807331B7863F01F03DBB27B7431
:406480003B6808331B7863F01F03DBB2BB743B7F032B29D13B6801331B7863F01F03DBB27B733B6802331B7863F01F03DBB2BB733B6804331B7863F01F03DBB2FB733B68E3
:4064C00005331B7863F01F03DBB23B743B6806331B7863F01F03DBB27B743B6807331B7863F01F03DBB2BB743B7F022B24D1E0237B733B6801331B7863F01F03DBB2BB73B8
:406500003B6803331B7863F01F03DBB2FB733B6804331B7863F01F03DBB23B743B6805331B7863F01F03DBB27B743B6806331B7863F01F03DBB2BB743B7F002B1FD1E0238A
:406540007B73E023BB733B6801331B7863F01F03DBB2FB733B6802331B7863F01F03DBB23B743B6803331B7863F01F03DBB27B743B6804331B7863F01F03DBB2BB74FB23ED
:40658000FB7400233B7500237B770FE03A7D7B7F07F120010B4413F8183C03F00F03DBB21344DBB23B757B7F01337B777B7F0B2BECD93B7D5B42DBB2DBB203F00F03DBB2E1
:4065C00063F01F03DBB2DBB23B75F0237B750D23FB77064B5B78DBB2052B2CD1FB23BB740023FB7400237B7712E000BFD882FF1FFA7C7B7F07F120010B4413F8183C03F092
:406600000F03DBB21344DBB2FB747B7F01337B777B7F0A2BECD9FB7C5B42DBB2DBB203F00F03DBB263F01F03DBB2DBB2FB74F0233B750C23FB777B79012B40F0C080F62389
:406640003B73BB79013BDBB2DBB263F01F03DBB2DBB27B73F823BB733B7F042B22D13B6802331B7863F01F03DBB2FB733B6803331B7863F01F03DBB23B743B6805331B78DA
:4066800063F01F03DBB27B743B6806331B7863F01F03DBB2BB743B6807331B7863F01F03DBB2FB743B7F032B22D13B6801331B7863F01F03DBB2FB733B6802331B7863F0F5
:4066C0001F03DBB23B743B6804331B7863F01F03DBB27B743B6805331B7863F01F03DBB2BB743B6806331B7863F01F03DBB2FB743B7F022B1DD1E023FB733B6801331B78AF
:4067000063F01F03DBB23B743B6803331B7863F01F03DBB27B743B6804331B7863F01F03DBB2BB743B6805331B7863F01F03DBB2FB743B7F002B18D1E023FB73E0233B74DD
:406740003B6801331B7863F01F03DBB27B743B6802331B7863F01F03DBB2BB743B6803331B7863F01F03DBB2FB74FB233B7500237B7500237B770FE07A7D7B7F07F1200156
:406780000B4413F8183C03F00F03DBB21344DBB27B757B7F01337B777B7F0C2BECD97B7D5B42DBB2DBB203F00F03DBB263F01F03DBB2DBB27B75F023BB750E23FB77A24B1C
:4067C0005B78DBB2072B40F06481FF233B72BB7F63F01F03DBB27B727B7963F00F03DBB2BB72F423FB72F8233B733B6801331B7863F01F03DBB27B733B6802331B7863F082
:406800001F03DBB2BB733B6803331B7863F01F03DBB2FB733B6804331B7863F01F03DBB23B743B6805331B7863F01F03DBB27B743B6806331B7863F01F03DBB2BB743B68DF
:4068400007331B7863F01F03DBB2FB74E0233B75FB237B750023BB7500237B770FE0BA7D7B7F07F120010B4413F8183C03F00F03DBB21344DBB2BB757B7F01337B777B7F0A
:406880000D2BECD9BB7D5B42DBB2DBB203F00F03DBB263F01F03DBB2DBB2BB75F023FB750F23FB777B79012B40F0F380F6233B73BB79013BDBB2DBB263F01F03DBB2DBB2D1
:4068C0007B73F823BB733B7F042B2DD13B6801331B7863F01F03DBB2FB733B6802331B7863F01F03DBB23B743B6803331B7863F01F03DBB27B743B6805331B7863F01F0344
:40690000DBB2BB743B6806331B7863F01F03DBB2FB743B6807331B7863F01F03DBB23B75E0237B75E023BB753B7F032B2DD1E023FB733B6801331B7863F01F03DBB23B7401
:406940003B6802331B7863F01F03DBB27B743B6804331B7863F01F03DBB2BB743B6805331B7863F01F03DBB2FB743B6806331B7863F01F03DBB23B753B6807331B7863F05A
:406980001F03DBB27B75E023BB753B7F022B2DD1E023FB73E0233B743B6801331B7863F01F03DBB27B743B6803331B7863F01F03DBB2BB743B6804331B7863F01F03DBB296
:4069C000FB743B6805331B7863F01F03DBB23B753B6806331B7863F01F03DBB27B753B6807331B7863F01F03DBB2BB753B7F002B23D1E023FB73E0233B74E0237B743B6874
:406A000001331B7863F01F03DBB2BB743B6802331B7863F01F03DBB2FB743B6803331B7863F01F03DBB23B753B6804331B7863F01F03DBB27B75E023BB75FB23FB75002321
:406A40003B7600237B7711E0D882FF1F3A7E7B7F07F120010B4413F8183C03F00F03DBB21344DBB23B767B7F01337B777B7F0F2BECD93B7E5B42DBB2DBB203F00F03DBB22C
:406A800063F01F03DBB2DBB23B76F0237B761123FB7702F0AFF8FB7943F02003DBB2184602F0E6F82A4802F057FD03F07FFB294B00221A700A2001F0CBFE0BE0254B1B78B7
:406AC000012B07D102F05AFD03F080FB02F092F8002339E002F044F80346002BEED002F04DFD03F073FB01F0F1FF03461A46FB7963F02F03DBB29A4225D102F07BF80A20B5
:406B000001F0A6FE00237B770BE07B7F07F12002134413F8183C184602F0AAF87B7F01337B777A7FFB7F9A42EFD9322001F090FEFB791846FFF7CCF80346002B01D1002307
:406B400002E0012300E0002318462037BD4680BDBD5C00008387FF1F80B588B000AF03463960FB711346BB7100233B7300237B730023BB730023FB7300233B7400237B743F
:406B80000023BB740023FB7400233B7500237B750023BB750023FB7500233B7600237B760023BB76884B5B78DBB2072B56D0FF233B73E5237B73F423BB73F623FB73BB7998
:406BC000013BDBB2DBB263F01F03DBB2DBB23B74F7237B740623BB7715E0BB7FBA7F063A39680A441278D2B202F00F02D2B262F01F02D2B2D2B207F120010B4403F8142C53
:406C0000BB7F0133BB77BB7F092BE6D9FB23BB750023BB770FE0FA7DBB7F07F120010B4413F8143C03F00F03DBB21344DBB2FB75BB7F0133BB77BB7F0A2BECD9FB7D5B42B2
:406C4000DBB2DBB203F00F03DBB263F01F03DBB2DBB2FB75F0233B760C23FB775A4B5B78DBB2072B53D1FF233B73E3237B73F423BB73F623FB73BB79013BDBB2DBB263F03C
:406C80001F03DBB2DBB23B74F7237B740623BB7710E0BB7FBA7F063A39680A44127862F01F02D2B207F120010B4403F8142CBB7F0133BB77BB7F0A2BEBD9E023FB75FB236B
:406CC0003B760023BB770FE07A7EBB7F07F120010B4413F8143C03F00F03DBB21344DBB27B76BB7F0133BB77BB7F0C2BECD97B7E5B42DBB2DBB203F00F03DBB263F01F03B6
:406D0000DBB2DBB27B76F023BB760E23FB7701F071FFFB7943F02003DBB2184601F0A8FF2A4802F019FC03F041FA294B00221A700BE0274B1B78012B07D102F01FFC03F0F8
:406D400045FA01F057FF002339E001F009FF0346002BEED002F012FC03F038FA01F0B6FE03461A46FB7963F02F03DBB29A4225D101F040FF0A2001F06BFD0023BB770BE068
:406D8000BB7F07F12002134413F8143C184601F06FFFBB7F0133BB77BA7FFB7F9A42EFD9322001F055FDFB791846FEF791FF0346002B01D1002302E0012300E0002318465D
:406DC0002037BD4680BD00BFD882FF1FBD5C00008387FF1F80B584B000AF03460A46FB711346BB7101F006FFFB7943F05003DBB2184601F03DFFB04B00221A704FF49670EA
:406E000001F026FD01F0ACFE0346002B01F02280AA4B1B78DBB2FA799A4240F01F84A84B5B78DBB2072B00F00C824FF4617001F00FFD01F095FE0346FB73FB7B222B06D07D
:406E4000FB7B402B03D0FB7B5E2B40F0F5819D4B1B78DBB2FF2B40F0EA819A4B5B78DBB2F62B40F0E481974BDB78DBB2F92B40F0DE810023BB7316E00023FB730DE0BA7B82
:406E8000F97B8E4813465B001344DB000B44034400229A70FB7B0133FB73FB7B172BEED9BB7B0133BB73BB7B022BE5D90023FB7321E0FB7BFA7B043282498A5CD1B27F4AE0
:406EC00013440A469A70FB7B7C4A13449B78DBB2002B08D0FB7B794A13449B78DBB203F0F003E02B04D001F085FE002300F0B3BFFB7B0133FB73FB7B072BDAD90023FB73B9
:406F000024E0FB7B0C33FA7B0D326E498A5CD1B26A4A13440A469A70FB7B0C33674A13449B78DBB2002B09D0FB7B0C33634A13449B78DBB203F0F003E02B04D001F05AFE97
:406F4000002300F088BFFB7B0133FB73FB7B072BD7D90023FB730DE0FB7BFA7B163259498A5CD1B2554A13440A4683F84A20FB7B0133FB73FB7B032BEED9BB79022B6BD140
:406F80000023FB7321E0FB7BFA7B22324D498A5CD1B24A4A13440A469A76FB7B474A13449B7EDBB2002B08D0FB7B444A13449B7EDBB203F0F003E02B04D001F01BFE0023BC
:406FC00000F049BFFB7B0133FB73FB7B072BDAD90023FB7324E0FB7B0C33FA7B2B3239498A5CD1B2354A13440A469A76FB7B0C33324A13449B7EDBB2002B09D0FB7B0C3302
:407000002E4A13449B7EDBB203F0F003E02B04D001F0F0FD002300F01EBFFB7B0133FB73FB7B072BD7D90023FB730DE0FB7BFA7B343224498A5CD1B2204A13440A4683F8A7
:407040004F20FB7B0133FB73FB7B032BEED901F0D1FD022300F0FFBEBB79032B40F0E2800023FB7321E0FB7BFA7B223215498A5CD1B2124A13440A469A76FB7B0F4A1344C8
:407080009B7EDBB2002B08D0FB7B0C4A13449B7EDBB203F0F003E02B04D001F0ABFD002300F0D9BEFB7B0133FB73FB7B072BDAD90023FB732DE000BF8387FF1F5886FF1F62
:4070C000D882FF1F8487FF1FFB7B0C33FA7B2B32B3498A5CD1B2B34A13440A469A76FB7B0C33B04A13449B7EDBB2002B09D0FB7B0C33AC4A13449B7EDBB203F0F003E02B06
:4071000004D001F077FD002300F0A5BEFB7B0133FB73FB7B072BD7D90023FB730DE0FB7BFA7B34329E498A5CD1B29E4A13440A4683F84F20FB7B0133FB73FB7B032BEED915
:407140000023FB7324E0FB7BFA7B403294498A5CD1B2944A13440A4683F83220FB7B914A134493F83230DBB2002B09D0FB7B8D4A134493F83230DBB203F0F003E02B04D07C
:4071800001F038FD002300F066BEFB7B0133FB73FB7B072BD7D90023FB7327E0FB7B0C33FA7B49327E498A5CD1B27E4A13440A4683F83220FB7B0C337A4A134493F832309C
:4071C000DBB2002B0AD0FB7B0C33764A134493F83230DBB203F0F003E02B04D001F00AFD002300F038BEFB7B0133FB73FB7B072BD4D90023FB730DE0FB7BFA7B52326849E6
:407200008A5CD1B2674A13440A4683F85420FB7B0133FB73FB7B032BEED901F0EBFC032300F019BE01F0E6FC012300F014BE01F0E1FC002300F00FBE01F0DCFC002300F013
